:020000040800F2
:10000000C8440020010100089D360008C90100080D
:100010006D31000849270008C151000800000000A8
:10002000000000000000000000000000CD480008B3
:10003000C12C00080000000053010008514A0008CC
:100040001B0100081B0100081B0100081B01000820
:100050001B0100081B0100081B0100081B01000810
:100060001B0100081B0100081B0100081B01000800
:100070001B0100081B0100081B0100081B010008F0
:100080001B0100081B0100081B0100081B010008E0
:100090001B0100081B0100081B0100081B010008D0
:1000A0001B010008C94A00081B0100081B010008C9
:1000B000F14A0008154B00083D4B00081B010008E1
:1000C0001B0100081B0100081B0100081B010008A0
:1000D0001B010008114D0008254D0008394D00088E
:1000E0001B0100081B0100081B010008DFF80CD0F1
:1000F00001F020FA0048004751190008C8440020C8
:100100000648804706480047FEE7FEE7FEE7FEE7B1
:10011000FEE7FEE7FEE7FEE7FEE7FEE7614A0008CE
:10012000ED000008EFF3108072B6704780F310887E
:100130007047324A1368012B04D04FF0010313605B
:100140002F4A10602F4A11602F484FF080510160F4
:100150007047EFF3108272B62848016891B14FF0F2
:10016000000101602648016829B1EFF3098121E906
:10017000F00F00680160234909680968B1E8F00FD1
:1001800081F3098882F310884EF0040E70471D49F0
:1001900008601B494FF00000086018494FF001004B
:1001A00008601A481A49D0F8002041EA02010160AB
:1001B00015484FF08051016016480068006880F3D0
:1001C000088861B662B670471EF0040F0CBFEFF3EB
:1001D0000880EFF3098020E9F00F40F804ED1EF0ED
:1001E000040F0CBF80F3088880F3098800B506F07F
:1001F000E7FE5DF804EB4EF0040E70472C3400204F
:10020000903100209831002004ED00E020ED00E066
:100210000000FFFF08ED00E0A0F14101192900D81E
:100220002030704738B5D0E90221491E01EB410169
:1002300002EBC1014268C1EB011102EB81010268CE
:10024000C1EB011102EB8102D0E9043101EB410164
:1002500003EB81013023A1F5527191FBF3F4174DAB
:100260006C4302EBC41291FBF3F403FB14110092F4
:100270001A2902DB124B1A4400920C2291FBF2F372
:10028000104C6343009C04EBC313009391FBF2F307
:1002900002FB13110C4A08E0491E40F2A324535CF0
:1002A0006343009C04EBC31300930029F4DC014674
:1002B000684600F03BFC009838BD00003F0C0F0082
:1002C0008051010067C203005698000810B5431A18
:1002D000934209D28318881803E010F8011D03F82F
:1002E000011D521EF9D210BD40EA01039B0703D045
:1002F00009E008C9121F08C0042AFAD203E011F865
:10030000013B00F8013B521EF9D210BDD2B201E010
:1003100000F8012B491EFBD270470022F6E710B50A
:1003200013460A4604461946FFF7F0FF204610BD63
:1003300030B505462A460B4612F8010B13F8014B5F
:1003400008B1A042F8D01CB1002802D06D1CF1E722
:10035000284630BD10B5044604E00B7800F8013B98
:1003600003B1491C521EF8D2204610BDCAB2401E2D
:1003700010F8011F8A4202D00029F9D100207047ED
:10038000421C10F8011B0029FBD1801A704710B5E0
:10039000002200E0521C835C8C5CA34201D1002B44
:1003A000F8D1D8B2E1B2401A10BD30B505460020F0
:1003B000034600E05B1C934205D2EC5CC85C201A4B
:1003C00001D1002CF6D130BD0FB400B58DB010A90D
:1003D00009900B9000914FF0FF300A9000200C9094
:1003E00005480690054807906A4609A80F9900F04D
:1003F0005BFF0DB05DF814FBC5120008E3120008A6
:10040000F0B480EA0102D40F4200B2EB410F02D2F5
:100410000246084611464A0042D0C30DDDB2C1F380
:10042000C752AD1A202D35DAC1F3160141F400028E
:1004300004B15242C5F1200602FA06F12A411044E5
:10044000B3EBD05F23D0C4B1012DA0EBC35009DCC6
:10045000F0BC4FF0004202EAC352DBB200F50000EC
:1004600000F0ADBF400000F1807000EBC350A0F180
:10047000807040EAD170490009E0490841EAC07142
:10048000A0EBC35000F50000400800EBC350F0BCE7
:1004900000F08CBF6142012202EB4101001BF6E734
:1004A000F0BC704781F00041AAE780F00040A7E768
:1004B00080EA010210B502F00043400022D04A0059
:1004C0001FD0010E01EB1261C0F35600C2F35602B9
:1004D00040F4000042F40002A0FB022000047F3937
:1004E000140400D0401C50EA124001D44000491EC0
:1004F000C2B20C0604EBD010401C4008802A02D087
:1005000003E0002010BD20F00100002900DA0020E7
:10051000184310BD30B480EA010202F0004530F00B
:10052000004221F0004013D090B1C30DD40DC2F3AE
:100530001601C0F31600E41A41F4000140F4000271
:100540007D34914201D3641C00E04900002C02DAA2
:1005500030BC002070474FF400000023914201D3CB
:10056000891A034340084FEA4101F7D151B1914242
:1005700002D14FF0004105E002D24FF0010101E04D
:100580006FF0010103EBC450284430BC00F00EBFF3
:100590002DE9FE4F804681EA0300C00F0C46009013
:1005A00021F0004123F00045B8EB0200A94105D23B
:1005B0004046214690461C460B46024623F000402A
:1005C000104347D0270DC7F30A00C3F30A51029026
:1005D000401A019040286BDAC3F3130040F4801BEB
:1005E0000098924620B10023D2EB030A63EB0B0B79
:1005F00001985946C0F14002504600F05FFA0646A5
:100600000D4650465946019A00F077FA10EB080063
:100610006141002487EA115284EAE7731A4340D00B
:10062000009A62B3019A012A4FEA075215DC001BB7
:1006300061EB02014FF0004202EA0752CDE90042AD
:10064000001C41F5801132462B4600F0F5FE03B048
:10065000BDE8F08F40462146F9E7001B61EB02013F
:10066000001C41F5801300185B412018A2F500170B
:1006700047EB030140EAD570B6196D4111E06D08F2
:100680004FEA360645EAC0754FEA0752001B61EB98
:100690000201001C41F5801149084FEA30000019A1
:1006A000514132462B4603B0BDE8F04F00F0B5BED5
:1006B0000098012240000023D0EB020263EBE073BC
:1006C000009821464FEAE074B8EB000061EB0401AA
:1006D000E9E783F000435BE781F0004158E72DE94B
:1006E000FE4F81EA030404F0004421F0004100942D
:1006F0004FF0000B23F0004350EA01045ED052EAB1
:1007000003045BD0C3F30A54C1F30A552C44A4F28A
:10071000F3340194A0FB0254C1F3130141F480119E
:10072000C3F3130343F4801301FB024400FB034EA5
:10073000840A970A44EA815447EA8357A4FB07686E
:1007400002958D0A05FB07854FEA932C04FB0C5498
:100750002705029D4FEA065847EA1637B5EB08050C
:100760006EEB070C870E920E47EA811742EA83125E
:10077000A7FB0201B6EB0B0164EB00042B0D43EA6F
:100780000C335E1844EB1C50DA465146E7FB02017D
:10079000C5F313044FEA0B3343EA14534FEA043210
:1007A000019C43EA0603A4F10C040294009CCDE9E9
:1007B00000B400F041FE03B0BDE8F08F0020014618
:1007C000F9E72DE9F04D81EA030404F0004B21F034
:1007D000004514464FF0000A23F0004150EA05029C
:1007E00020D054EA01021DD0C5F30A570246C5F3D2
:1007F0001303C1F31300C1F30A5640F4801543F408
:100800008013A7EB0608101BD64608F2FD3873EBE1
:10081000050002D308F1010801E092185B41B8F12C
:10082000000F03DA00200146BDE8F08D00204FF4F0
:100830008011064684460EE0171B73EB050705D3AF
:10084000121B63EB050306434CEA010C49084FEA0F
:10085000300092185B4150EA0107EDD152EA0300E3
:1008600012D082EA040083EA0501084305D0101B78
:10087000AB4106D20122002306E000224FF00043E4
:1008800002E06FF0010253101AEB06004CEB085126
:1008900010EB0A0041EB0B01BDE8F04D00F0BDBDCF
:1008A000002801DBC0F10040002901DBC1F100415B
:1008B000814201D80120704700207047002801DBE9
:1008C000C0F10040002901DBC1F10041814201D3A8
:1008D000012070470020704730B5041E71F10004FC
:1008E00004DB4FF00044404264EB0101141E73F13D
:1008F000000405DB1C464FF00043524263EB040347
:10090000101A8B4101D2012030BD002030BD30B51E
:10091000041E71F1000404DB4FF00044404264EB1C
:100920000101141E73F1000405DB1C464FF0004367
:10093000524263EB0403801A994101D2012030BD79
:10094000002030BDC10F80EAE0700844CA0796233A
:10095000002100F034BD96230022114600F02FBD87
:1009600000F0004220F00040C10DC0F3160040F43A
:1009700000007F2901DA00207047962903DCC1F1CD
:100980009601C84001E096398840002AF4D04042E0
:10099000704770B5C1F30A5201F000450024C1F35D
:1009A000130140F2FF3341F480119A4201DA002032
:1009B00070BD40F233439A42A2F2334203DC52420A
:1009C00000F08BF800E090402C43F1D0404270BD25
:1009D00000F0004230F000400AD0C10D01F5607116
:1009E000C0F3160042EA0151C208400711437047A4
:1009F00000200146704701F0004330B421F000416F
:100A000050EA010206D00A0DA2F56072C1F313018B
:100A1000002A02DC30BC00207047440F44EAC104C5
:100A2000C100E01830BC00EBC25000F0BFBC30B5D4
:100A30000B46014600202022012409E021FA02F59C
:100A40009D4205D303FA02F5491B04FA02F5284436
:100A5000151EA2F10102F1DC30BD2DE9F05F054663
:100A6000002092469B4688460646814640241BE06D
:100A7000284641464746224600F02FF853465A463C
:100A8000C01A914110D311461846224600F016F8BC
:100A90002D1A67EB01084F4622460120002100F085
:100AA0000DF817EB00094E41201EA4F10104DFDC14
:100AB000484631462A464346BDE8F09F202A04DBDB
:100AC000203A00FA02F1002070479140C2F1200361
:100AD00020FA03F3194390407047202A04DB203AA0
:100AE00021FA02F00021704721FA02F3D040C2F14E
:100AF00020029140084319467047202A06DBCB1795
:100B0000203A41FA02F043EAE07306E041FA02F3C8
:100B1000D040C2F1200291400843194670470000BE
:100B2000014900F003B80000D805002010B50068A6
:100B30003C22B0FBF2F302FB1303B0FBF2F00B60BC
:100B4000B0FBF2F302FB1303B0FBF2F018224B6090
:100B5000B0FBF2F302FB1303B0FBF2F0021D8B605B
:100B60000723B2FBF3F403FB1422800040F2B553D9
:100B700000F66C308A61B0FBF3F2B0FBF3F403FBD8
:100B80001400443280084A61C8613B2802D39207AE
:100B900000D0401C0022074C13460A61E25C8242EE
:100BA00003D8801A5B1C0B61F8E7401CC86008463C
:100BB00010BD0000629800082DE9FF4F1C4681B06F
:100BC0000021D4E9016791464FF0FF358A468846F7
:100BD000A1696D1C02988847216A834688470028CE
:100BE000F6D1BBF1FF3F0CD026F4C066002F1ADD12
:100BF000700615D5BBF12B0F0AD0BBF12D0F0FD10D
:100C000004E04FF0FF3005B0BDE8F08F46F4806699
:100C1000A1696D1C029888477F1E8346002F02DD64
:100C2000BBF1300F03D0B9F1000F2AD025E0A16944
:100C30006D1C46F400767F1E029888478346002F7D
:100C400005DDBBF1780F06D0BBF1580F03D0B9F129
:100C5000000F10D011E0B9F1000F02D0B9F1100F60
:100C60000BD1A1696D1C26F400767F1E029888477F
:100C70008346102000E0082081464FEAE97000908A
:100C800017E00A20F8E74346AAFB092803FB09807E
:100C9000DDF800C07F1E0AFB0C0112EB0B0A41EBD2
:100CA000EB78A16946F4007605F1010502988847C2
:100CB0008346002F06DD4946584600F058FC5FEA9F
:100CC000000BE0D5E16902988847B00502D46FF0C7
:100CD000010098E7F00718D1700610D5700551464D
:100CE00005D50023D1EB030163EB080200E0424687
:100CF0002068031D23600068C0E9001205E0206839
:100D0000011D21600068C0E900A828467BE72DE9A5
:100D1000FF5F1D464FF0FF3BD5E9014691465F4618
:100D20004FF00008A9697F1C01988847296A82460C
:100D300088470028F6D1BAF1FF3F0CD024F4C064F4
:100D4000002E19DD600614D5BAF12B0F09D0BAF1C7
:100D50002D0F0ED103E0584604B0BDE8F09F44F4D7
:100D60008064A9697F1C01988847761E8246002E00
:100D700002DDBAF1300F03D0B9F1000F26D032E016
:100D8000A969761E44F400747F1C01988847824646
:100D9000002E05DDBAF1780F06D0BAF1580F03D056
:100DA000B9F1000F10D01EE0B9F1000F02D0B9F177
:100DB000100F18D1A969761E24F400747F1C0198C5
:100DC00088478246102002E0082000E00A20814681
:100DD00009E008FB0908A969761E44F400747F1C29
:100DE000019888478246002E05DD4946504600F0AE
:100DF000BEFB0028EDDAE96901988847A00502D416
:100E00006FF00100A8E7E00725D1600613D5600563
:100E100002D5C8F1000000E0404629680A1D2A609A
:100E20000968220501D5087015E0220701D5088060
:100E300011E008600FE02868011D296000682105A5
:100E400002D580F8008006E0210702D5A0F80080D6
:100E500001E0C0F8008038467EE72DE9FF5FD2E967
:100E600001A74FF00008916999461446DDF838B0A3
:100E7000464601988847054659EA0B0005D009E027
:100E8000A169761C019888470546216A284688474B
:100E90000028F5D1681C03D05FEACA7005D015E0C0
:100EA0004FF0FF3004B0BDE8F09F2068011D2160C5
:100EB000D0F800800AE05FEACA7001D108F8015B4F
:100EC000A169761C7F1E019888470546002F1ADD10
:100ED000681C18D0B9F1000F0DD0E81705EBD060F1
:100EE000421120F01F0059F822102A1A01209040C8
:100EF0000142E0D107E0BBF1000FDCD1216A2846B6
:100F000088470028D7D0E16901988847BBF1000FD6
:100F100007D1002E05DD5FEACA7002D1002188F8F2
:100F20000010A068B84203DDBBF1000F03D017B179
:100F30006FF00100B6E73046B4E700002DE9FF4F3F
:100F4000087883B09946FF2805D0491C2D2804D085
:100F50000024002008E000200BE00124F9E700EB6A
:100F6000800003EB4000491C0B78FF2BF7D104B144
:100F7000404200230293147819461D462D2C01D0BF
:100F80002B2C04D1521C2D2C13D000240294AA46E1
:100F90001478FF2C0FD00A25A3FB057801FB0581EF
:100FA0004FF0000C03FB0C11521CE3194AEB01013A
:100FB000EEE70124EAE7814453EA010002D019F583
:100FC000C87F06DA03980021C0E9001107B0BDE828
:100FD000F08F0025AE4E2F46DFF8B882184600F09D
:100FE0006BFCCDE90001B9F1000002DAC9F100049F
:100FF00000E004460023A74A1AEB030B42EB045A15
:1010000012E0E00707D02A46334638464146FFF74C
:1010100066FB074688462A46334610461946FFF7C0
:101020005EFB05460E466410002CEAD1DDE90001A6
:10103000B9F1000F5A46534606DAFFF7C2FB3A46AB
:101040004346FFF7BEFB05E0FFF749FB3A46434640
:10105000FFF745FB029A0AB181F00041039AC2E909
:101060000001B3E72DE9FF4F1F468DB0D7E90146D8
:101070004FF0FF382E2045464FF000090B90B9691C
:101080006D1C0E988847396A824688470028F6D139
:10109000BAF1FF3F0AD024F4D064002E11DDBAF17A
:1010A0002B0F08D0BAF12D0F0BD102E0404611B042
:1010B0008DE744F48064B9696D1C0E9888478246B8
:1010C000761E6946600501D52D2000E02B208DF8A5
:1010D000000001F1010B0DF1200809E0B9696D1C58
:1010E0000E98884782460F9844F40074761E056077
:1010F000002E02DDBAF1300FF0D00B998A453ED1B7
:1011000044F0800406E00F99681CA9F1010944F439
:1011100000740860B9696D1C761E0E988847824677
:101120003028F0D02BE00B998A4505D1200603D456
:1011300044F08004761E18E0504607F06FFF08B3B5
:101140000DF11302761EAAF1300044F400749345A9
:1011500006D20BF8010B200607D5A9F1010003E028
:10116000200602D409F101008146A00502D50F999D
:10117000681C0860B9696D1C0E9888478246002E6D
:10118000D1DC53E0002E51DDBAF1650F02D0BAF187
:10119000450F4BD1A00549D5B9696D1C24F44074A5
:1011A000761E0E9888478246002E0CDD2B2804D030
:1011B000BAF12D0F07D144F48074B9696D1C0E98F3
:1011C00088478246761EE00501D52D2100E02B21BF
:1011D00008F8011BCDF82C8021E00DF12901761EC5
:1011E00044F4007488450CD2AAF1300010F0FF00DE
:1011F00088F8000002D10B99884509D908F1010847
:1012000006E0E00501D5244801E042F20F70814676
:10121000B9696D1C0E98884782460F980560002EAC
:1012200004DD504607F0FAFE0028D6D1F9690E9881
:101230008847FF208BF8000088F800000020069007
:1012400007904B466A4608A906A8FFF777FEA00557
:1012500002D46FF001002AE714F0240F0AD0E0074F
:1012600014D1DDE906123868031D3B600068C0E94F
:1012700000120BE0DDE90601FFF7BDFB0146E007C8
:1012800004D13868021D3A600068016028460EE704
:10129000000014400000F03FF1D8FFFF0268114445
:1012A0001378016018467047D160044951610449C0
:1012B000116200211161114600F068B99D12000809
:1012C00065150008426842B1016811F8013B23B17D
:1012D000521EC0E90012184670470121C160881EE5
:1012E000704742685AB1C368016843B983688B424A
:1012F00005D0491E521CC0E90012002070474FF073
:10130000FF3070470FB40B0010B58AB00FA90091E1
:101310000E994FF00004234ACC60214CCDE90642DF
:1013200000D004236FF00042CDE901321E4A08923A
:1013300002466B460020FFF795FE0AB010BC5DF830
:1013400014FBF0B585B007464FF0FF300091CDE9B2
:1013500001011E46002015460C4604903B466A4695
:10136000314604A8FFF7CEFF04990346601825B163
:1013700009B1024600E022462A6000290ED0002B67
:1013800002DD0099814209D00094001BCDE90104DF
:101390003B466A46314604A8FFF7B4FF05B0F0BDEE
:1013A000C5120008E3120008651500080029A8BF4F
:1013B0007047401C490008BF20F00100704710B47E
:1013C000B0FA80FC00FA0CF050EA010404BF10BC33
:1013D000704749B1CCF1200421FA04F411FA0CF160
:1013E00018BF012121430843A3EB0C01CB1D4FEA99
:1013F00000614FEA102042BF002010BC704700EB94
:10140000C35010440029A4BF10BC7047401C4900C1
:1014100008BF20F0010010BC704710B5141E73F116
:10142000000408DA401C41F1000192185B411A43A4
:1014300001D120F0010010BD2DE9F04D92469B46F0
:1014400011B1B1FA81F202E0B0FA80F22032904696
:10145000FFF734FB04460F4640EA0A0041EA0B015D
:1014600053465A46084313D0114653EA010019D097
:10147000C8F140025046FFF730FB05460E46504685
:1014800059464246FFF71AFB084305D0012004E005
:1014900020463946BDE8F08D0020054346EAE07657
:1014A0002C4337430A986305E40AA0EB08000022A6
:1014B000FD0A44EA47540A3002D500200146E9E714
:1014C000010510196941DDE9084500196941BDE8C8
:1014D000F04DA2E7C1F30A52C1F3130140F2FF330A
:1014E00041F480119A4202DA00200146704740F22E
:1014F00033439A42A2F2334202DC5242FFF7EDBA82
:10150000FFF7DCBA30B5041E71F1000404DB4FF0C4
:101510000044404264EB0101141E73F1000405DB3A
:101520001C464FF00043524263EB0403994208BF4C
:10153000904230BD1CB5094800900948019005460D
:10154000009C06E0E06840F0010394E8070098473B
:101550001034AC42F6D3FEF7CDFD0000A4A900087C
:10156000C4A90008C0B24FF4F05100F0B1B93A2854
:1015700000D2303820F02002412A01D3A2F13700F6
:10158000884201D34FF0FF30704700002DE9F34F40
:101590008BB04FF0000801F10C000C464FF0010B2E
:1015A00046460DF1080A01906269012101989047B1
:1015B000051E2DD0252D2CD0216A8847C0B1626927
:1015C000012101989047216A88470028F7D1411EE0
:1015D00062690198904700E0761CA1690B988847E2
:1015E000216A88470028F7D1E1690B988847DBE733
:1015F000A1690B9888470746A84201D1761CD3E71A
:10160000E1690B9888477F1C02D1B8F1000F6FD0B9
:1016100046E1002762693D463946019890472A28ED
:1016200004D162690121019890470125DFF8849275
:101630006269012101989047A0F130010A290AD27C
:101640004F45E5DC07EB870100EB4107303FDFD476
:1016500045F01005ECE7E90601D46FF000476C286F
:101660000AD04C2814D0682815D06A280DD07428C8
:101670001CD07A281AD01DE0626901210198904798
:101680006C2802D045F0040514E045F002050DE099
:1016900045F020050AE06269012101989047682819
:1016A00002D045F0080505E045F4006562690121B6
:1016B00001989047C4E9015765283DD019DC5828A6
:1016C0007AD00CDC452837D004DC252826D04128E8
:1016D00031D131E046282FD047282CD12CE05B288F
:1016E00077D0612828D063287CD0642823D15AE0A1
:1016F000D0E06F2848D008DC66281DD067281BD0B2
:10170000692821D06E2816D127E0702845D073288B
:1017100068D0752847D078280DD14DE0A1690B9885
:101720008847054625283FF469AFE1690B9888474B
:101730006D1C3FF46AAFB3E023466A466FF00100C8
:101740000B99FFF78FFC9EE045F040006060A80712
:1017500023464FF0000236D43EE0E8077FF447AF5F
:101760002068011D21600068290501D506701BE76E
:10177000290701D5068017E7A90703D5F117C0E9A6
:10178000006111E706600FE745F040006060A807C0
:1017900023464FF0080216D41EE040F60E0125EA5B
:1017A0000100606016E045F040006060A807234635
:1017B0004FF00A0207D40FE045F040006060A80730
:1017C00008D5234610226FF001000B99FFF7F4F9BA
:1017D00059E007E0234610226FF001000B99FFF754
:1017E00096FA50E04FF000094F464B46632802D06E
:1017F0005B2806D040E0E80601D40120A060012764
:101800003AE062690121019890475E2805D14FF0C6
:1018100001096269494601989047216939B9002157
:101820000A46534643F82120491C0829FADBB0B385
:10183000216969B9C11700EBD16253110AEB830129
:1018400022F01F02821A01200B68904003430B60B4
:1018500062690121019890475D28E8D1B9F1000F34
:1018600009D00020514651F82020D24341F82020D1
:10187000401C0828F7DB02AB224600976FF00100FE
:101880000B99FFF7EAFA00280CDA401C08D1BBF1EB
:10189000000F05D04FF0FF300DB0BDE8F08FFFE72F
:1018A0004046F9E7E90701D108F1010806444FF085
:1018B000000B79E6CCCCCC0C0EB540F23342029250
:1018C0000022CDE900221346FFF7B6FD03B000BDAC
:1018D0007F2801D9002208E0064A02EB5002C00727
:1018E000127800D1120902F00F0201209040084046
:1018F000704700006E98000870B58C1810F8015BF6
:1019000015F0070301D110F8013B2A1106D110F898
:10191000012B03E010F8016B01F8016B5B1EF9D19C
:101920002B0705D40023521E0DD401F8013BFAE722
:1019300010F8013BCB1A921C03E013F8015B01F88D
:10194000015B521EF9D5A142D8D3002070BD000022
:1019500080B506F01BFF002080BD000082B0019022
:101960008DF803109DF8030030B1FFE701998868F6
:1019700040F00100886005E00199886820F00100CE
:101980008860FFE702B0704780B588B04FF4007000
:101990000121019102F0E0FA0198002100910391E8
:1019A0008DF810108DF811004FF460220592069109
:1019B0008DF81C0042F20040C4F20100029003A91D
:1019C00000F01EF90099019A0298072300F06EF9C1
:1019D0000199029800F042F801990298FFF7BEFFC2
:1019E000029800F021FAFFE742F20040C4F2010041
:1019F00000F0EEF808B1FFE7F6E742F20040C4F26B
:101A0000010000F031FAFFE742F20040C4F20100A9
:101A100000F084F808B1FFE7F6E742F20040C4F2B4
:101A20000100012100F00AFA08B080BD80B582B043
:101A3000ADF80600BDF80600FEF784FF4FF2000186
:101A4000C4F27F51FEF766FD43F23331C4F2530115
:101A5000FEF72EFD0090009802B080BD82B001908C
:101A60008DF803109DF8030030B1FFE701998868F5
:101A700040F48070886005E00199886820F48070E7
:101A80008860FFE702B0704780B58EB001210291F7
:101A9000084602F00DFA0820C4F20200019000F09E
:101AA00085FE019842F24C41C4F20101039141F6D6
:101AB0007C51C2F20001049100210591102206928E
:101AC0000791802208924FF4807209924FF480624D
:101AD0000A9220220B924FF400520C920D9103A90E
:101AE00000F072FF0198029900F048FE0EB080BD30
:101AF00080B582B004200121009102F02DFA0098F7
:101B0000ADF8040000208DF8070040F60000C4F294
:101B1000010001A901F0D6F802B080BD82B00190A9
:101B200000208DF80300019880684007002804D544
:101B3000FFE701208DF8030003E000208DF803008B
:101B4000FFE79DF8030002B07047000080B584B045
:101B5000002003900290FFE702980F280FDCFFE7B8
:101B6000029941F67C50C2F2000030F8111003983F
:101B700008440390FFE7029801300290ECE70398D5
:101B8000FEF7E9FE4FF07651FEF792FC01900198C6
:101B900001F09EFA009000980021FEF78FFE18B920
:101BA000FFE700200090FFE700984FF20001C4F229
:101BB0007F51FEF775FE30B9FFE74FF20000C4F227
:101BC0007F500090FFE70098FEF7CAFE04B080BD8A
:101BD00082B0019000208DF8030001988068000712
:101BE000002804D5FFE701208DF8030003E0002062
:101BF0008DF80300FFE79DF8030002B07047000076
:101C000084B003900291002001908DF803000398A6
:101C10004068019001984FF6FF61CFF6F0710840DF
:101C2000019002990868097940EA01210198084366
:101C30000190019803994860039880680190019889
:101C40004FF2FD71CFF6F171084001900299C8681A
:101C50008A681043497940EA41010198084301909C
:101C60000198039988600398C06A0190019820F454
:101C7000700001900298007C411E9DF8030008430B
:101C80008DF803009DF80310019840EA015001907F
:101C900001980399C86204B07047000080B5FFF74F
:101CA00027FFFFF7F1FEFFF76FFE80BD84B00390C2
:101CB0008DF80B108DF80A208DF809300020019066
:101CC00000909DF80B000A2821DBFFE70398C0680D
:101CD00001909DF80B0000EB4000A0F11E010720D1
:101CE0008840009000990198884301909DF8090070
:101CF0009DF80B1001EB41011E39884000900099BE
:101D000001980843019001980399C8601DE0039869
:101D1000006901909DF80B0000EB4001072088400E
:101D2000009000990198884301909DF809009DF862
:101D30000B1001EB41018840009000990198084385
:101D40000190019803990861FFE79DF80A000628B1
:101D500020DCFFE70398406B01909DF80A0000EB40
:101D60008000411F1F2088400090009901988843FF
:101D700001909DF80B009DF80A1001EB81010539D7
:101D800088400090009901980843019001980399B8
:101D9000486347E09DF80A000C2821DCFFE7039820
:101DA000006B01909DF80A0000EB8000A0F1230178
:101DB0001F208840009000990198884301909DF869
:101DC0000B009DF80A1001EB810123398840009037
:101DD000009901980843019001980399086320E055
:101DE0000398C06A01909DF80A0000EB8000A0F102
:101DF00041011F208840009000990198884301907C
:101E00009DF80B009DF80A1001EB810141398840D3
:101E10000090009901980843019001980399C862C5
:101E2000FFE7FFE704B0704781B000900099886831
:101E300040F00800886001B07047000082B0019057
:101E40008DF803109DF8030030B1FFE70199886811
:101E500040F4A000886005E00199886820F4A000A3
:101E60008860FFE702B0704781B0009000998868F1
:101E700040F00400886001B07047000080B582B077
:101E80000190FFF70BFFFFE7FFF760FEFFF7CEFDC6
:101E900041F69C51C2F200010860642005F084FE06
:101EA000F2E7000080B586B00023059369460A205A
:101EB000C86088604FF40070486041F62060C2F24C
:101EC0000000086041F6A050C2F200004AF2A831BA
:101ED000C0F6000141F67D62C0F6000205F038FE52
:101EE0000590059838B9FFE741F6A050C2F200000E
:101EF00005F0BCFEFFE7012006B080BD10B5D0B0F4
:101F0000DDF84CC1DDF848C14E904D91ADF832215D
:101F10004B934E9830B1FFE7539818B1FFE74D98B7
:101F200008BBFFE742F6B861C2F200010B68581C1B
:101F300008604AF21A30C0F60000694648604AF26A
:101F40001530C0F6000008604AF2A451C0F6000146
:101F50004AF21F32C0F60002002002F059FA0120B6
:101F60008DF83F019DE04E98406808BBFFE742F6C0
:101F7000B861C2F200010B68581C08604AF21A30BE
:101F8000C0F60000694648604AF21530C0F600000D
:101F900008604AF26151C0F600014AF21F32C0F6F1
:101FA0000002002002F034FA05208DF83F0178E0AD
:101FB00054A80A90539A0A9B0BA84FF4807106F01C
:101FC000EBFE4FF0FF3009905298002807D4FFE74E
:101FD00052980F2803DCFFE75298099016E0002082
:101FE0000890FFE708980F280FDCFFE74E9840683D
:101FF00008990901405818B9FFE70898099004E0CA
:10200000FFE7089801300890ECE7FFE709980130F6
:1020100020B9FFE706208DF83F0142E00BA8FEF74C
:10202000AFF901300790079806F0FEFE069006987B
:1020300020B9FFE707208DF83F0132E00698079AA4
:102040000BA9FEF787F94E98406809990901405895
:1020500040B1FFE74E98406809990901405806F0E1
:10206000B5FEFFE74E98D0F804E009980EEB00119A
:102070000401069802904D980390BDF83201ADF826
:1020800010004B980590DDF808C00398049A059B52
:102090004EF804C0CB608A60486004208DF83F0190
:1020A000FFE79DF83F0150B010BD000080B582B041
:1020B000019040F23450C2F20000203001F09CF94F
:1020C0000A2005F071FD02B080BD000080B58AB025
:1020D0000990099828B1FFE70998C068007A08B903
:1020E000FFE787E00998C168002006900872099808
:1020F000C168006949694FF4807205F0B5F9069826
:10210000ADF82200FFE7BDF8221000200F2905904E
:102110000BDCFFE709988068BDF8221050F8310009
:10212000002818BF01200590FFE70598C007002888
:102130005CD0FFE7099881680069BDF8222051F85A
:102140003210FEF7F5F807900798002847D0FFE710
:1021500009988068BDF8221000EBC100406848B1C2
:10216000FFE709988168BDF8222001EBC2014968A8
:102170008847FFE709980069002101914FF48072B8
:1021800005F01EFA09998868C96849690291BDF885
:10219000221050F83100FEF7F3F801990246029838
:1021A00005F00EFA09998868C96849690491BDF873
:1021B000221050F83100FEF7E3F801460498084475
:1021C000039009988068BDF8221050F83100FEF79E
:1021D000D7F8039902460498FEF778F80AE0FFE77B
:1021E000BDF822000130ADF822008CE709990620E5
:1021F0000870FFE70AB080BD80B582B001900198F9
:10220000007D102807DBFFE7019900200875019980
:102210000520087037E001994868097D0901405898
:1022200038B9FFE701990020087501990520087069
:1022300029E001984168027D01EB021312018958DF
:102240005A681B89EE464FF0000CCEF800C000F033
:10225000D9F8A8B9FFE701994868097D00EB01109A
:10226000C06840B1FFE701994868097D00EB0110A3
:10227000C0688047FFE70199087D0130087500E0DC
:10228000FFE7FFE7FFE702B080BD000080B58EB03A
:102290000D900D9800694AF20361C0F60001FEF747
:1022A00047F80C900C98002800F0A580FFE70C98E8
:1022B0007B21FEF75BF80B900C987D21FEF756F81A
:1022C0000A90002009900B9840B1FFE70A9828B1C6
:1022D000FFE70A980B99884204D2FFE70D99052081
:1022E00008708CE00C984AF21231C0F60001FEF73B
:1022F0001FF80890089828B1FFE708980C99401A31
:102300000990FFE70B9803F08BFC0790079820B922
:10231000FFE703F051FC069071E007984AF2DE6196
:10232000C0F6000103F05CFC05900598B0B3FFE730
:1023300005208DF81300FFE70D980599096906F04F
:102340003BFA0C2829D0FFE79DF81300411E8DF8B9
:102350001310F0B9FFE742F6B861C2F200010B6852
:10236000581C08604AF21A30C0F6000069464860FE
:102370004AF24C30C0F6000008604AF28751C0F6BD
:1023800000014AF25132C0F60002002002F040F88B
:1023900003E0642005F008FCCEE703E0079803F0B3
:1023A000BFFB2CE007984AF23071C0F6000103F041
:1023B0000BFC0390039808B1FFE703E0039803F0D8
:1023C000AFFBFFE7079803F0ABFB099890B1FFE77D
:1023D000099803280ED8FFE70C98099A002105F008
:1023E000EFF80C98099A811805F0A8F80D98FFF7F6
:1023F0004DFFFFE7FFE70D9905200870FFE70EB0DE
:1024000080BD000080B590B0DDF848C00E900D9101
:102410000C92ADF82E300020ADF82C000E9838B19B
:10242000FFE70D9820B1FFE70E98C06820B9FFE7DD
:1024300001208DF83F00CDE00D98FDF7A1FFADF82C
:102440002A00BDF82A00B0F5807F21DBFFE742F6C5
:10245000B861C2F200010B68581C08604AF21A30D9
:10246000C0F60000694648604AF21530C0F6000028
:1024700008604AF24051C0F600014AF21F32C0F62D
:102480000002002001F0C4FF01208DF83F00A1E010
:102490000E98C0684069002106914FF4807205F0E3
:1024A0008FF806980E99C96848810E99C968087214
:1024B0000E98C0680D99BDF82A2002F08DFB05F03A
:1024C0009FFC01460698099108900790FFE705F0E8
:1024D00097FC0999401ABDF82E10884276D2FFE782
:1024E0000E98C068007A00286CD0FFE70E9800694B
:1024F00000214FF48072059205F062F8059A0E985B
:10250000C16800694969BDF82C30194404F0ACFF7A
:102510000E9800690C99FDF70BFF08900E98006962
:102520004AF2B061C0F60001FDF702FF079008987B
:1025300068B3FFE7129868B1FFE712980E99C9686F
:102540004969BDF82C304FF4807202EB032204F08D
:102550008BFFFFE70E98C0684069BDF82C204FF450
:102560008071039101EB02220021049105F028F80B
:1025700003990E98C0684069BDF82C2001EB022237
:102580008118FDF7A3FE04988DF83F0022E007981C
:1025900020B1FFE703208DF83F001BE0FFE7BDF807
:1025A0002C0000F58070ADF82C00BDF82C000E99C1
:1025B000C9688989884204DBFFE70020ADF82C0058
:1025C000FFE7FFE70A2005F0EFFA80E702208DF829
:1025D0003F00FFE79DF83F0010B080BD80B582B09E
:1025E0000190FFE740F20810C2F2000000F030F85E
:1025F0000A2005F0D9FAF5E780B586B0694664206F
:10260000C8600A2088604FF40060486042F2A01061
:10261000C2F20000086042F22010C2F200004AF24A
:102620009E31C0F6000142F2DD52C0F600020023E6
:1026300005F08EFA0590059838B9FFE742F22010B0
:10264000C2F2000005F012FBFFE7002006B080BDDB
:1026500080B582B00190019808B9FFE73DE001988C
:10266000007801460091082836D80099DFE801F08B
:10267000050C1D34342125292D000198FFF716FD86
:1026800001990120087028E0019840F23451C2F20B
:102690000001203100231A4603F0D0F9019806F01A
:1026A000DBF901990220087017E00198FFF7A4FDFB
:1026B00013E00198FFF70AFD0FE00198FFF7E6FD30
:1026C0000BE001990520087007E0019800F002FC7A
:1026D00001990520087000E0FFE702B080BD00000E
:1026E00080B5012001F070FC002001F06DFC80BD80
:1026F00082B0ADF806000020009046F60040C4F21B
:1027000000000090BDF80610009808440090009862
:10271000008802B07047000082B0ADF80600ADF846
:1027200004100020009046F60040C4F20000009023
:10273000BDF80610009808440090BDF80400009908
:10274000086002B070470000FFE7FEE781B000902C
:102750009DF80300C006002807D5FFE7009840F267
:102760000441C4F20201086005E000980421C4F2AB
:1027700002010860FFE701B07047000082B00190DD
:102780008DF803109DF8030030B1FFE70199086848
:1027900040F00100086006E0019908684FF6FE72FB
:1027A00010400860FFE702B07047000081B0009061
:1027B000009908684FF6FE721040086000990020EA
:1027C000086000994860009988600099C860009886
:1027D0000821C4F20201884208D1FFE70421C4F2B3
:1027E0000201086840F00F000860B9E000981C2161
:1027F000C4F20201884208D1FFE70421C4F20201B9
:10280000086840F0F0000860A9E000983021C4F2A8
:102810000201884208D1FFE70421C4F202010868DE
:1028200040F47060086099E000984421C4F202010D
:10283000884208D1FFE70421C4F20201086840F48D
:102840007040086089E000985821C4F20201884273
:1028500008D1FFE70421C4F20201086840F47020A7
:10286000086079E000986C21C4F20201884208D126
:10287000FFE70421C4F20201086840F47000086018
:1028800069E000988021C4F20201884208D1FFE784
:102890000421C4F20201086840F07060086059E049
:1028A000009840F20841C4F20201884209D1FFE7D2
:1028B00040F20441C4F20201086840F00F000860D1
:1028C00047E0009840F21C41C4F20201884209D15D
:1028D000FFE740F20441C4F20201086840F0F00052
:1028E000086035E0009840F23041C4F202018842AD
:1028F00009D1FFE740F20441C4F20201086840F444
:102900007060086023E0009840F24441C4F2020184
:10291000884209D1FFE740F20441C4F2020108688D
:1029200040F47040086011E0009840F25841C4F251
:102930000201884209D1FFE740F20441C4F20201DA
:10294000086840F470200860FFE7FFE7FFE7FFE753
:10295000FFE7FFE7FFE7FFE7FFE7FFE7FFE7FFE747
:1029600001B0704781B000900098406880B201B01B
:102970007047000083B0029000208DF8070000909F
:102980009DF80B00C006002807D5FFE740F2004085
:10299000C4F202000068009005E00020C4F20200CA
:1029A00000680090FFE700980299084204D0FFE712
:1029B00001208DF8070003E000208DF80700FFE7F5
:1029C0009DF8070003B0704780B583B00290019175
:1029D00000200090029800680090009847F6F0717F
:1029E000884300900199D1F820E08868D1F810C0A0
:1029F0004B698A6940EA0E0040EA0C001843104314
:102A0000CA6910434A6A1043896A0143009808431F
:102A100000900098029908600198C0680299486087
:102A20000198006802998860019840680299C8601E
:102A300003B080BD82B00190ADF80210BDF8020075
:102A40000199486002B0704780B582B0082001212A
:102A5000019101F081FA00F0CFF8019940F60040B1
:102A6000C4F2010000F016FA02B080BD80B584B057
:102A700000208DF80E008DF80F00FFE79DF80F0085
:102A8000072837DCFFE700F0B7F840F60040C4F253
:102A9000010001900121029100F0F2F9022004F0FE
:102AA00081FB00F097F8082004F07CFB0198029964
:102AB00000F0CCF958B1FFE79DF80F10012000FAA3
:102AC00001F19DF80E0008438DF80E00FFE732205B
:102AD00004F068FB00F090F840F60040C4F20100FA
:102AE000012100F0D7F9FFE79DF80F0001308DF8C4
:102AF0000F00C3E79DF80E0004B080BD80B582B022
:102B000000F08EF800F066F8FFE740F60040C4F2EF
:102B10000100012100F09AF908B9FFE7F5E700F09C
:102B200023F8CC2000F086F8BE2000F083F8FFF7F1
:102B30009DFF8DF80700FFF799FF8DF806009DF8BF
:102B400006109DF8070040EA0120ADF80400BDF929
:102B50000400FDF7F7FE4FF07651FDF7A9FC009059
:102B6000009802B080BD000080B582B000F044F84B
:102B700040F60040C4F2010000900121019100F0F4
:102B80007FF94FF4F07004F00DFB0098019900F00C
:102B900081F93C2004F006FB00F01CF8FFE740F64A
:102BA0000040C4F20100012100F050F908B1FFE734
:102BB000F5E7FFE740F60040C4F20100012100F014
:102BC00045F908B9FFE7F5E74FF4D27004F0EAFAE7
:102BD00002B080BD80B582B00120ADF8040048206D
:102BE0008DF8070040F60040C4F2010001A900F092
:102BF00069F802B080BD000080B582B00120ADF858
:102C0000040010208DF8070003208DF8060040F620
:102C10000040C4F2010001A900F054F802B080BDE8
:102C200080B5FFF7A1FFCC2000F004F8442000F0AD
:102C300001F880BD80B582B08DF80700FFF7DCFF9A
:102C400000208DF80600FFE79DF80600072834DC19
:102C5000FFE740F60040C4F20100012100F010F946
:102C60009DF80700C00770B1FFE7022004F09AFA50
:102C700040F60040C4F20100012100F00BF93C20B5
:102C800004F090FA0DE03C2004F08CFA40F600408D
:102C9000C4F20100012100F0FDF8022004F082FAE4
:102CA000FFE79DF8070040088DF80700FFE79DF853
:102CB000060001308DF80600C6E702B080BD0000B6
:102CC0007047000088B0079006910020059004909E
:102CD00003900290019000900698C07800F00F00D9
:102CE00005900698C078C006002806D5FFE706982C
:102CF0008178059808430590FFE70698007800283A
:102D00004BD0FFE707980068019000200390FFE791
:102D1000039807283DD8FFE70399012088400290D7
:102D20000698008802990840049004980299884205
:102D30002AD1FFE703988000029002990F20884073
:102D4000009000990198884301900598029900FA33
:102D500001F10198084301900698C078282806D10F
:102D6000FFE7039901208840079948610BE0069826
:102D7000C078482806D1FFE70399012088400799C9
:102D80000861FFE7FFE7FFE7FFE7039801300390E3
:102D9000BEE7019807990860FFE706980088B0F53C
:102DA000807F50DBFFE70798406801900020039088
:102DB000FFE70398072842D8FFE7039800F10801CE
:102DC00001208840029006980088029908400490EB
:102DD0000498029988422DD1FFE703988000029061
:102DE00002990F2088400090009901988843019033
:102DF0000598029900FA01F101980843019006989C
:102E0000C078282808D1FFE7039800F108010120C5
:102E1000884007994861FFE70698C078482808D19C
:102E2000FFE7039800F10801012088400799086135
:102E3000FFE7FFE7FFE7039801300390B9E7019848
:102E400007994860FFE708B07047000082B0019022
:102E5000ADF8021000208DF8010001988068BDF8DF
:102E60000210084204D0FFE701208DF8010003E0C2
:102E700000208DF80100FFE79DF8010002B07047C7
:102E800082B00190ADF80210BDF8020001994861CE
:102E900002B0704782B00190ADF80210BDF8020098
:102EA0000199086102B0704782B00190ADF802103C
:102EB0008DF801209DF8010028B1FFE7BDF8020060
:102EC0000199086104E0BDF8020001994861FFE73B
:102ED00002B07047B0B5B0B02E90002007902D9092
:102EE0001DA84021FDF719FA07992E986A4611602E
:102EF0004AF22051C0F600014AF20A62C0F600020E
:102F000041F28833FFF77EFA20B1FFE709208DF800
:102F1000BF00D8E02E98C06840694AF20A61C0F646
:102F20000001FDF705FA2D902D9820B9FFE70A2042
:102F30008DF8BF00C7E02D980D302D904FF47A70BA
:102F400004F032FE2D9843F25411C2F200010591B3
:102F500001F114036A461361D1600B1D936001F106
:102F6000080353600C3111604AF2BE61C0F60001E3
:102F70001BAA1CABFDF728FA059949F6B004C0F668
:102F80000004069420686268A368D4F80CC0D4F8E2
:102F900010E065691495CDF84CE0CDF848C0119368
:102FA00010920F90A069E269236AD4F824C0D4F883
:102FB00028E0E46A1A94CDF864E0CDF860C0179375
:102FC0001692159000200861FFE743F25410C2F2F8
:102FD000000000690B281FDCFFE743F25410C2F227
:102FE000000001690FA850F821101CA80322FDF76A
:102FF000DCF940B9FFE743F25411C2F2000108695D
:103000000130086108E0FFE743F25411C2F2000109
:10301000086901300861D8E749F6E000C0F6000011
:10302000016842688368D0F80CC0D0F810E04469A9
:103030000D94CDF830E0CDF82CC00A930992089198
:1030400080690E9043F25411C2F2000100208861A1
:10305000FFE743F25410C2F200008069062818DC32
:10306000FFE743F25410C2F20000816908A850F84B
:1030700021101BA80322FDF798F908B9FFE708E023
:10308000FFE743F25411C2F2000188690130886100
:10309000DFE743F25410C2F20000426940F2A0118F
:1030A000C2F200010A8002694A80C2688A8082688E
:1030B000CA8042680A810068488100F07BF90820D4
:1030C0008DF8BF00FFE79DF8BF0030B0B0BD000035
:1030D00080B588B0079040F2C010C2F200000490A2
:1030E00000684DF20A71C3F62341FDF789F90146E4
:1030F00004980160006801904FF08041FDF780F96D
:1031000001460198FDF706FA069042F6A860C2F261
:103110000000059001680391069802900798FDF75A
:10312000C1F901460298FDF7C3F90399FDF768F963
:103130000599086006994FF07E50FDF7B3F90499A0
:103140000968FDF7B5F9049A014605981160006811
:1031500008B080BD82B001900198009000990020D5
:10316000087500990220087002B07047FFE7FEE77B
:1031700080B586B00590ADF812108DF81120059835
:1031800040F60001C4F20101884205D1FFE70420A6
:10319000012100F0E1FE55E0059840F60041C4F23F
:1031A0000101884205D1FFE70820012100F0D4FE8B
:1031B00047E0059841F20001C4F20101884205D1BF
:1031C000FFE71020012100F0C7FE39E0059841F229
:1031D0000041C4F20101884205D1FFE7202001210E
:1031E00000F0BAFE2BE0059841F60001C4F201019F
:1031F000884205D1FFE74020012100F0ADFE1DE02F
:1032000042F6B061C2F200010B68581C08604AF235
:103210001A30C0F60000694648604AF24C30C0F6E9
:10322000000008604AF22731C0F600014AF251322C
:10323000C0F60002002001F0EBF813E0FFE7FFE723
:10324000FFE7FFE7BDF81200ADF80C009DF8110094
:103250008DF80F0003208DF80E00059803A9FFF7E5
:1032600031FDFFE706B080BD80B582B04FF08050E1
:103270000121019100F038FE01994FF0006000F04B
:1032800033FE019800F008FE0420FFF731FA4AF2FD
:10329000B451884226D0FFE7FFF722FA012000F060
:1032A0009BFFFFE7612000F055FF012801D0FFE7F9
:1032B000F8E74FF4007000F0A7FF012000F098FF3E
:1032C00001F012F801F004F849F63F4000F0E8FF81
:1032D00000F0FEFF00F06EF804204AF2B451FFF750
:1032E0001BFA16E0012000F077FFFFE7612000F0F5
:1032F00031FF012801D0FFE7F8E74FF4007000F03C
:1033000083FF012000F074FF00F0EEFF00F0E0FF0B
:10331000FFE7012002B080BD10B58CB000F094FF33
:1033200000F5E1400B900BA8FDF7FAFB8446DCF8B2
:103330000000DCF80410DCF80820DCF80C30DCF8C5
:1033400010E0DCF814400594CDF810E003930292ED
:1033500001910090DCF81800DCF81C10DCF820204B
:10336000DCF82430DCF828C0CDF828C00993089296
:1033700007910690059800F26C7040F2A011C2F21D
:1033800000010880049801304880039888800298E2
:10339000C88001980881009848816846FCF742FF80
:1033A0000B900B9840F2B011C2F2000108600CB013
:1033B00010BD000080B58CB040F2A010C2F2000039
:1033C0000188A1F26C7105914188013904918188CD
:1033D0000391C1880291018901914089009068465A
:1033E000FCF720FFA0F5E1400B900B9800F042FFA6
:1033F00000F06EFF0CB080BD80B5AEB02D90002007
:103400002B902D988089ADF8AA002D9800680E9019
:1034100044F20041C4F20001884233D0FFE70E9825
:1034200044F60001C4F2000188424DD0FFE70E9837
:1034300043F60001C4F20101884268D1FFE74FF46E
:10344000804001210C9100F087FD0C99084600F0A6
:103450002FFD40F60000C4F201000D904FF4007102
:103460001822FFF785FE0D984FF480610422FFF7C4
:103470007FFE25208DF8A60043F60400C4F201006B
:103480002B9062E04FF400300121099100F02CFDF7
:103490000999084600F00CFD40F60000C4F2010056
:1034A0000A9004210B911822FFF762FE0A980B9AEA
:1034B0000821FFF75DFE26208DF8A60044F20440A7
:1034C000C4F200002B9040E04FF4802001210791CE
:1034D00000F00AFD0799084600F0EAFC40F60040BB
:1034E000C4F2010008904FF480611822FFF740FEFB
:1034F00008984FF400610422FFF73AFE27208DF868
:10350000A60044F60400C4F200002B901DE042F631
:10351000AC61C2F200010B68581C08604AF21A3014
:10352000C0F60000694648604AF21530C0F6000057
:1035300008604AF2FC21C0F600014AF21F32C0F6D0
:103540000002002000F064FFA5E02D98006801F063
:103550004FFC2D984068259000200590ADF898000C
:10356000ADF89A00ADF89C00ADF8A0000C20ADF8C5
:103570009E002D98006825A901F074FD2D98006823
:1035800040F224410122069201F022FD059A2D9875
:10359000006840F2266101F01BFD059A2D98006835
:1035A00040F2255101F014FD4FF4A06000F0CCF87A
:1035B000059906988DF8A7108DF8A8108DF8A90028
:1035C0000DF1A60000F06CF82D98806958B3FFE764
:1035D0002D988069FFF7EAF82D9840691B9000202C
:1035E0001C90BDF8AA101D911E9080211F91209063
:1035F0002190202122914FF40051239124902B9867
:103600001A902D9880691AA9FFF7DEF92D980068A5
:1036100040210122049201F0D1FB04992D98806988
:10362000FFF7ACF8FFE72D98C06970B3FFE72D985E
:10363000C069FFF7BBF82D98006804300F902D98F3
:1036400000691090102011902D98C08912900020D0
:1036500013908021029114911590169017904FF4B9
:103660000051189119902D98C0690FA9FFF7ACF976
:1036700002992D9800680122039201F09FFB0399A3
:103680002D98C069FFF77AF8FFE72D9800680121AF
:1036900001F07EFBFFE72EB080BD00007047000008
:1036A00084B003900020029001900F2000900398B6
:1036B000C078B8B3FFE74EF60C50CEF200000068B9
:1036C000C043C0F3022002900298C0F104000190B0
:1036D00000980299C840009003984078019988406A
:1036E0000290039880780099014002980843029064
:1036F0000298000102900298039909784EF2004264
:10370000CEF2000288540398027802F01F010120D3
:1037100088401C2101EAD2014EF20012CEF20002D2
:1037200088500EE00398027802F01F0101208840C3
:103730001C2101EAD2014EF28012CEF20002885022
:10374000FFE704B07047000081B0009000980021AE
:10375000C0F2FA5108434EF60C51CEF20001086057
:1037600001B0704782B08DF807008DF806108DF813
:1037700005208DF804309DF80700802801DBFFE765
:1037800064E09DF80600402801DBFFE75EE09DF85D
:1037900007009DF805100844812807DBFFE79DF826
:1037A0000700C0F180008DF80500FFE79DF80600D6
:1037B0009DF804100844412807DBFFE79DF8060048
:1037C000C0F140008DF80400FFE79DF806008DF879
:1037D0000200FFE79DF802009DF806109DF8042006
:1037E0001144884232DAFFE79DF807008DF80300A4
:1037F000FFE79DF803009DF807109DF80520114490
:1038000088421CDAFFE79DF8021001F00702012050
:1038100000FA02F36FF0700000EA011140F2446018
:10382000C2F2000001449DF80320885C984388544C
:10383000FFE79DF8030001308DF80300D9E7FFE7AB
:103840009DF8020001308DF80200C3E702B0704716
:1038500080B584B010200121029100F07DFB14207E
:103860008DF80F0003208DF80E004FF48040ADF866
:103870000C0041F20000C4F20100009003A9019184
:10388000FFF720FA009801994FF40052ADF80C2090
:10389000FFF718FA029800F0A1FA029800F0AEFAC9
:1038A00004B080BD80B582B08DF8070000208DF88F
:1038B0000600FFE79DF80600072816DCFFE79DF8E5
:1038C00007009DF806108840C0B2C00900F096FAC3
:1038D000012000F083FA002000F080FAFFE79DF855
:1038E000060001308DF80600E4E7012000F076FACA
:1038F000002000F073FA02B080BD000080B582B0F5
:103900000120009000F07AFA009800F067FA002099
:10391000019000F073FA019800F060FA02B080BDE7
:1039200080B582B0002000F069FA0120019000F01B
:1039300055FA019800F062FA02B080BD80B5FFF739
:1039400087FFAE2000F06AFAD52000F067FA8020E9
:1039500000F064FAA82000F061FA3F2000F05EFA5F
:10396000D32000F05BFA002000F058FA402000F06D
:1039700055FAA12000F052FAC82000F04FFADA20E0
:1039800000F04CFA122000F049FA812000F046FACB
:10399000CF2000F043FAD92000F040FAF12000F0E7
:1039A0003DFADB2000F03AFA302000F037FAA4208C
:1039B00000F034FAA62000F031FA8D2000F02EFA43
:1039C000142000F02BFAAF2000F028FA80BD000090
:1039D00080B582B08DF807008DF806109DF80700BD
:1039E00040F0B00000F01AFA9DF80600000910300F
:1039F00000F014FA9DF8060000F00F0000F00EFA37
:103A000002B080BD80B582B08DF807008DF8061039
:103A10008DF805208DF804309DF80400082815D194
:103A2000FFE79DF807009DF806109DF8053049F660
:103A30004A32C0F6000202EB0312A2F500726B4696
:103A40001A600822102300F01FF81BE09DF8040004
:103A5000062816D1FFE79DF807009DF806109DF88F
:103A6000052002EB420349F61012C0F6000202EBF9
:103A70004302C03A6B461A600622082300F004F89D
:103A8000FFE7FFE702B080BD80B582B0DDF810C06F
:103A90008DF807008DF806108DF805208DF804309C
:103AA0009DF80700802801DBFFE798E09DF80600FD
:103AB000402801DBFFE792E09DF807009DF8061023
:103AC0009DF805209DF80430FFF74CFE00208DF88E
:103AD0000200FFE79DF802009DF80410013901EB98
:103AE0005172012101EBE201884278DAFFE7002000
:103AF0008DF80300FFE79DF803009DF8051088424C
:103B000066DAFFE79DF807009DF803100844802857
:103B100001DBFFE75CE09DF806109DF8020000EB7A
:103B2000D100082801DBFFE759E004999DF8020065
:103B30009DF805309DF8032000FB0323CB5C9DF826
:103B4000061001F0070C03FA0CF300EBD10140F270
:103B50004460C2F2000000EBC1119DF8070002446E
:103B6000885C184388549DF806109DF8020000EB0D
:103B7000D1000130082801DBFFE723E004999DF81C
:103B800002009DF805209DF8033000FB02328A5C9C
:103B90009DF8061001F0070CCCF1080C22FA0CF28B
:103BA00000EBD10140F24460C2F2000000EBC11012
:103BB0009DF807101944014491F88000104381F8E2
:103BC0008000FFE79DF8030001308DF8030092E7C5
:103BD000FFE79DF8020001308DF802007AE702B09D
:103BE00080BD000080B584B08DF80F008DF80E10F8
:103BF00002928DF8073000208DF80600FFE702984A
:103C00009DF80610405CB8B1FFE79DF80F009DF8E5
:103C100006C09DF807300CFB03009DF80E10029AB9
:103C200012F80C20C0B2FFF7EDFEFFE79DF806008A
:103C300001308DF80600E2E700F0ACF804B080BD7A
:103C400080B582B00190FFF779FEFFE700F034F80D
:103C50004FF47A7003F0A8FFF8E7000080B586B053
:103C60000023059369464FF47A70C8600A20886083
:103C70004FF40070486040F6C420C2F200000860B3
:103C800040F64420C2F200004AF26831C0F600015A
:103C900043F64142C0F6000203F05AFF0590059832
:103CA00038B9FFE740F64420C2F2000003F0DEFF1F
:103CB000FFE7012006B080BDB0B588B040F20460D7
:103CC000C2F200000590002107914022049203F007
:103CD00077FC059840F2A01CC2F2000CBCF8002052
:103CE000BCF80230BCF80410BCF806E0BCF8084090
:103CF000BCF80A50EC46CCF80C50CCF80840CCF894
:103D000004E0CCF800104AF26D31C0F6000105F075
:103D10002FF80799059A06230846FFF763FF049AD0
:103D20000799059803F04CFC43F2C050C2F2000022
:103D30000068FCF74DFE024605980B464AF29431A6
:103D4000C0F6000105F014F8059A079808230693B9
:103D50001946FFF747FF049A0799059803F030FCCE
:103D600041F69C50C2F200000068FCF731FE0246AA
:103D700005980B464AF28B31C0F6000104F0F8FFBB
:103D8000059A069B07981821FFF72CFF00F002F810
:103D900008B0B0BD80B582B000208DF80700FFE705
:103DA0009DF80700072817DCFFE79DF807000021B2
:103DB000FFF70EFE9DF8071040F24460C2F20000CB
:103DC00000EBC110802100F03DF8FFE79DF80700EF
:103DD00001308DF80700E3E702B080BD80B582B006
:103DE0008DF807009DF8072041F20000C4F20100A1
:103DF0004FF40051FFF758F802B080BD80B582B093
:103E00008DF807009DF8072041F20000C4F2010080
:103E10004FF48041FFF748F802B080BD80B582B012
:103E20008DF80700FFF76AFD7820FFF73BFD0020C3
:103E3000FFF738FD9DF80700FFF734FDFFF770FD31
:103E400002B080BD80B582B001908DF80310FFF7FD
:103E500055FD7820FFF726FD4020FFF723FD0020C9
:103E60008DF80200FFE79DF802009DF803108842DC
:103E70000DDAFFE701989DF80210405CFFF712FD94
:103E8000FFE79DF8020001308DF80200EBE7FFF735
:103E900047FD02B080BD000081B08DF803009DF8A1
:103EA00003002021C4F20E21086001B07047000019
:103EB00082B001908DF803109DF8030048B1FFE730
:103EC000019A41F21401C4F202010868104308602B
:103ED00008E0019A41F21401C4F20201086890431B
:103EE0000860FFE702B0704782B001908DF80310C0
:103EF0009DF8030048B1FFE7019A41F21C01C4F2AA
:103F0000020108681043086008E0019A41F21C01B0
:103F1000C4F20201086890430860FFE702B07047EE
:103F200082B001908DF803109DF8030048B1FFE7BF
:103F3000019A41F21001C4F20201086810430860BE
:103F400008E0019A41F21001C4F2020108689043AE
:103F50000860FFE702B0704782B001908DF803104F
:103F60009DF8030048B1FFE7019A41F21801C4F23D
:103F7000020108681043086008E0019A41F2180144
:103F8000C4F20201086890430860FFE702B070477E
:103F900082B001908DF803109DF8030048B1FFE74F
:103FA000019A41F20C01C4F2020108681043086052
:103FB00008E0019A41F20C01C4F202010868904342
:103FC0000860FFE702B0704781B08DF803009DF8EC
:103FD000030040F24041C4F24221086001B0704742
:103FE00086B005900020049003900290019041F269
:103FF0000400C4F20200006800F00C000490049871
:10400000009040B1FFE7009804280BD0FFE700982C
:1040100008280ED047E0059941F20020C0F27A004E
:10402000086047E0059941F20020C0F27A0008607C
:1040300040E041F20400C4F20200016801F4701192
:104040000391006800F4803002900399022000EB95
:1040500091400390029848B9FFE7039840F6001199
:10406000C0F23D014843059908601BE041F204009D
:10407000C4F2020000688003002809D5FFE7039816
:1040800040F60011C0F23D0148430599086008E080
:10409000039841F20021C0F27A0148430599086073
:1040A000FFE7FFE706E0059941F20020C0F27A0041
:1040B0000860FFE741F20400C4F20200016801F069
:1040C000F0010491049909090491049A49F6001138
:1040D000C0F600018A5C0192059B1A68DDF804C0F5
:1040E00022FA0CF25A60026802F4E0620492049A26
:1040F000120A0492049A8A5C0192059B5A68DDF8C0
:1041000004C022FA0CF29A60026802F4605204922F
:10411000049AD20A0492049A895C0191059A516822
:10412000019BD940D160006800F44040049004989D
:10413000800B0490049949F6FC00C0F60000405C36
:1041400001900599C868019AB0FBF2F0086106B0C9
:104150007047000084B08DF80F000020029001909D
:104160008DF803009DF80F00400902900298012885
:1041700007D1FFE741F20000C4F20200006801909D
:1041800012E00298022807D1FFE741F22000C4F2B2
:1041900002000068019006E041F22400C4F202002F
:1041A00000680190FFE7FFE79DF80F0000F01F0097
:1041B000029001980299C840C00720B1FFE7012092
:1041C0008DF8030003E000208DF80300FFE79DF861
:1041D000030004B07047000081B08DF803009DF823
:1041E000030040F28041C4F24221086001B07047F0
:1041F00081B08DF803009DF8030040F23C41C4F209
:104200004221086001B0704781B00090009A41F2ED
:104210002001C4F2020108681043086001B0704731
:1042200042F60401C4F20001088840F01000088042
:104230007047000042F60401C4F20001088820F033
:10424000100008807047000081B00020ADF8020027
:1042500042F61C00C4F200000088ADF8020042F6ED
:104260001800C4F200000188BDF8020040EA0140D5
:1042700001B0704780B582B00190FFF7D1FFBDF863
:10428000060042F61801C4F200010880019842F6C7
:104290001C01C4F200010880FFF7CCFF02B080BD12
:1042A00080B582B00190FFF7BBFF0198C0F30340D7
:1042B00042F60801C4F200010880019842F60C01A0
:1042C000C4F200010880FFF7B5FF02B080BD000016
:1042D000FFE742F60400C4F20000008880060028D0
:1042E00001D4FFE7F5E7704742F60401C4F200018C
:1042F000088820F008000880FFE742F60400C4F2B6
:10430000000000880007002801D4FFE7F5E77047A8
:1043100080B586B0059004910392FFE740F6C44053
:10432000C2F20000019001980078532803D0FFE703
:1043300000F048FFFFE7FFE7EFF311804FF02001A7
:1043400081F31188009005980499039A00F008F809
:104350000290009880F31188029806B080BD00009A
:1043600080B58AB00990089107920898049009983E
:1043700000EB400140F6C440C2F2000000EBC10077
:104380001830039003984069029040B1FFE702980B
:10439000012819D0FFE7029802282CD032E00398B8
:1043A00000F05EFF059005980799884203D2FFE769
:1043B0000020069007E00798069003980499079A52
:1043C00001F0D6F9FFE720E0039800F049FF0590DF
:1043D00005980799884203D2FFE70598019002E00B
:1043E00007980190FFE70198069003980499069AB0
:1043F00001F0BEF909E003980499079A01F048F921
:10440000069002E000200690FFE706980AB080BD03
:1044100082B080B584B0079306920390029106A8FB
:104420000090039802996A4600F008F801900198FC
:1044300004B0BDE8804002B07047000080B5AAB06B
:104440002990289127920DA82190402022900020A9
:104450002390299925912490FFE7289800788DF8DA
:104460009B002898013028909DF89B0008B9FFE731
:1044700017E29DF89B00252840F00682FFE7002008
:104480001E9001202090FFE7289800788DF89B006F
:104490009DF89B002338014609910D2829D80999D8
:1044A000DFE801F01F2727272727272717270727B8
:1044B000270F1E9840F001001E9028980130289088
:1044C0001AE01E9840F002001E90289801302890B3
:1044D00012E01E9840F004001E90289801302890A9
:1044E0000AE01E9840F008001E902898013028909D
:1044F00002E000202090FFE7FFE720980028C3D1CA
:10450000FFE700201D90FFE7289800788DF89B00BA
:104510009DF89B00302805DBFFE79DF89B003A28BB
:1045200001DBFFE710E02898013028901D9800EB90
:1045300080019DF89B0000EB410030381D90FFE7A3
:1045400001200028E0D1FFE700201F902898007884
:104550008DF89B009DF89B002E2825D1FFE7289819
:1045600001302890FFE7289800788DF89B009DF88F
:104570009B00302805DBFFE79DF89B003A2801DB14
:10458000FFE710E02898013028901F9800EB800189
:104590009DF89B0000EB410030381F90FFE70120A1
:1045A0000028E0D1FFE7FFE7289800788DF89B000E
:1045B000FFE79DF89B006C2805D0FFE79DF89B0066
:1045C000682808D1FFE728980130289028980078BB
:1045D0008DF89B0000E004E0FFE701200028E8D10F
:1045E000FFE79DF89B00253801460891532800F20B
:1045F00046810899DFE811F0D800430143014301E7
:10460000430143014301430143014301430143018A
:10461000430143014301430143014301430143017A
:10462000430143014301430143014301430143016A
:1046300043014301430143014301DD0043014301C1
:10464000430143014301430143014301430143014A
:1046500043014301430143014301430143018B00F3
:10466000430143014301430143014301430143012A
:1046700043014301540063004301DD004301430152
:104680004301430143014301430143014301C70087
:10469000430143019F0043017700430143018B0025
:1046A000279A1068011D11600068209020988DF8ED
:1046B00033009DF8331021A800F0AEFFE0E0279A08
:1046C0001068011D11600068209020991F9B1D98A3
:1046D000DDF878C06A46C2F804C0106021A80A223A
:1046E00000F0DEFDCCE0279A1068011D1160006823
:1046F000209020991F9B1D98DDF878C06A46C2F86B
:1047000004C0106021A80A2200F0B0FEB8E0279A89
:104710001068011D11600068209020991F9B1D9852
:10472000DDF878C06A46C2F804C0106021A81022E3
:1047300000F09CFEA4E0279A1068011D116000683B
:104740000B900B9830B9FFE74AF22F40C0F60000FB
:104750000B90FFE7FFE70B9800788DF89B000B9814
:1047600001300B909DF89B0008B9FFE70AE09DF827
:104770009B1021A800F050FFFFE72498B0F1FF3F05
:10478000E9DCFFE77CE0279A1068011D11600068F2
:10479000209020996846002242600823036021A8E7
:1047A000102200F063FE6BE021A8252100F034FF09
:1047B00066E0279A1068073020F0070101F1080031
:1047C000106008684968FCF716F90A900A980021F9
:1047D000FCF774F828B9FFE721A82D2100F01CFF91
:1047E000FFE70A98FCF7BCF806900028079002D56E
:1047F0000698404207900798209020991F9B1D988B
:10480000DDF878C06A46C2F804C0106021A80390A1
:104810000A22029200F044FD03982E2100F0FCFED3
:104820000A980021C4F2C821FBF742FEFCF798F871
:1048300004900028059002D5049840420590029A01
:10484000039805992091DDF880C048F21F51C5F208
:10485000EB118CFB0113591101EBD371642301FBA4
:1048600013C1209120991D9BDDF878E0EC46CCF82F
:1048700004E0CCF80030022300F012FD00E0FFE776
:1048800028980130289005E09DF89B1021A800F0A1
:10489000C3FEFFE7FFE72498B0F1FF3F3FF7DDAD30
:1048A000FFE7249801280EDBFFE7239830B1FFE7EC
:1048B0002998239A0DA9FFF72BFDFFE72399249848
:1048C00008442490FFE724982AB080BD7047000078
:1048D00080B500F001F880BD84B000200390029004
:1048E00041F20001C4F20201086840F4803008601F
:1048F000FFE741F20000C4F20200006800F400305B
:104900000290039801300390FFE702990020019084
:1049100039B9FFE70398B0F5A06018BF01200190F6
:10492000FFE70198C0070028E3D1FFE741F200004C
:10493000C4F2020000688003002803D5FFE70120CD
:10494000029002E000200290FFE70298012851D176
:10495000FFE742F20001C4F20201086840F01000D3
:104960000860086820F003000860086840F0020052
:10497000086041F20401C4F2020100910868086075
:1049800008680860086840F480600860086820F4DF
:104990007C100860086840F4E810086041F20001EB
:1049A000C4F20201086840F080700860FFE741F23D
:1049B0000000C4F2020000688001002801D4FFE773
:1049C000F5E741F20401C4F20201086820F0030097
:1049D0000860086840F002000860FFE741F2040048
:1049E000C4F20200006800F00C00082801D0FFE7C4
:1049F000F4E700E0FFE704B07047000080B582B044
:104A0000009000980138B0F1807F03D3FFE70120C8
:104A1000019019E0009801384EF21401CEF2000125
:104A200008604FF0FF300F2100F0E4FE4EF2180155
:104A3000CEF20001002008604EF21002CEF2000219
:104A4000072111600190FFE7019802B080BD0000CE
:104A500080B502F0EFFB03F0D9F902F0FDFB80BD59
:104A600080B541F20002C4F20202106840F0010079
:104A7000106041F20401C4F2020108680023CFF67D
:104A8000FF031840086010684FF6FF73CFF6F66317
:104A900018401060106820F480201060086820F42E
:104AA000FE00086041F20801C4F202014FF41F0049
:104AB0000860FFF70DFF4EF60851CEF200014FF0EF
:104AC0000060086080BD000080B542F60040C4F27E
:104AD0000100012100F052F840B1FFE742F600402A
:104AE000C4F20100012100F03DF8FFE780BD0000A5
:104AF00080B54FF08040012100F040F840B1FFE761
:104B000002F076F94FF08040012100F02BF8FFE72A
:104B100080BD000080B540F20040C4F200000121D9
:104B200000F02CF840B1FFE740F20040C4F2000072
:104B3000012100F017F8FFE780BD000080B540F6C6
:104B40000000C4F20000012100F018F840B1FFE7B6
:104B500040F60000C4F20000012100F003F8FFE776
:104B600080BD000082B00190ADF80210BDF80200D7
:104B7000C0430199088202B07047000083B00290E0
:104B8000ADF8061000208DF80500ADF80200ADF874
:104B900000000298008ABDF806100840ADF8020037
:104BA00002988089BDF806100840ADF80000BDF8F5
:104BB000020040B1FFE7BDF8000020B1FFE701208F
:104BC0008DF8050003E000208DF80500FFE79DF853
:104BD000050003B07047000080B58AB008900791C7
:104BE000ADF81A20089838B1FFE7079820B1FFE721
:104BF000BDF81A0020B9FFE7FF208DF8270083E0F9
:104C000000200590049008980068029044F200414A
:104C1000C4F20001884218D0FFE7029844F6000170
:104C2000C4F20001884218D0FFE7029843F6000161
:104C3000C4F20101884217D1FFE74420C4F2020008
:104C400005904FF40050049012E08020C4F202005E
:104C500005904FF0007004900AE01C20C4F202009E
:104C600005902020049003E0FF208DF827004BE002
:104C70000498FDF77FFEB0B9FFE748F2A060C0F2EC
:104C800001000390FFE70498FDF774FE50B9FFE7B9
:104C900003980138039020B9FFE7FE208DF8270024
:104CA00032E0F0E7FFE70498FDF750FDBDF81A0089
:104CB0000899C989884204DDFFE7FD208DF82700A7
:104CC00022E0089800690799BDF81A20FBF7FEFA60
:104CD000059800210191FDF751FDBDF81A000599D5
:104CE0004860089800690599C860059801210091FD
:104CF000FDF744FD009A08980068802100F05EF8F6
:104D000001988DF82700FFE79DF927000AB080BDC4
:104D100080B540F23450C2F20000012100F028F9C1
:104D200080BD000080B540F23450C2F20000203057
:104D3000022100F01DF980BD80B540F23450C2F26E
:104D400000004030032100F013F980BD83B00290D1
:104D5000ADF806100020ADF80400ADF80200BDF873
:104D6000060040F66A11884201D1FFE7FFE79DF88F
:104D70000700ADF80400BDF8041001208840ADF82C
:104D80000200BDF80200C0430299088003B07047DA
:104D900082B001908DF803109DF8030030B1FFE759
:104DA0000199888940F40050888105E0019988893B
:104DB00020F400508881FFE702B0704782B0019074
:104DC000ADF802108DF801209DF8010038B1FFE721
:104DD000BDF802200199888A1043888206E0BDF858
:104DE00002200199888A90438882FFE702B07047C9
:104DF00080B586B00590059843F60001C4F2010124
:104E000088420BD1FFE74FF4804004900121FFF767
:104E1000BFF804980021FFF7BBF84FE0059844F273
:104E20000041C4F2000188420BD1FFE74FF400308B
:104E300003900121FFF774F803980021FFF770F841
:104E40003BE0059844F60001C4F2000188420BD112
:104E5000FFE74FF4802002900121FFF761F80298EC
:104E60000021FFF75DF827E0059844F60041C4F201
:104E7000000188420BD1FFE74FF40020019001218F
:104E8000FFF74EF801980021FFF74AF813E0059864
:104E900045F20001C4F2000188420BD1FFE74FF454
:104EA000801000900121FFF73BF800980021FFF7E8
:104EB00037F8FFE7FFE7FFE7FFE7FFE706B080BD52
:104EC00086B00590ADF8121000200390029001907A
:104ED0008DF80300BDF8120040F66A11884201D136
:104EE000FFE7FFE79DF8120040090190BDF81200AE
:104EF00000F01F0002900299012088400290019862
:104F0000012806D1FFE705988189029808400290A0
:104F100010E00198022806D1FFE70598018A02985F
:104F20000840029005E00598818A029808400290A6
:104F3000FFE7FFE79DF813000390039901208840E5
:104F4000039005980188039808400390029838B1AF
:104F5000FFE7039820B1FFE701208DF8030003E08D
:104F600000208DF80300FFE79DF8030006B07047AE
:104F700080B584B003908DF80B100398006840F260
:104F80002441FFF79DFF00B3FFE70398006840F25C
:104F90002441FFF7DBFE0398006800880190039826
:104FA0000068808801900398818900918069FDF7ED
:104FB000D9FC01460098401A0399488103990120C1
:104FC0000872039803F034FDFFE704B080BD0000D1
:104FD00086B00590ADF812108DF8112000200390D6
:104FE000029001900090BDF8120040F66A118842CC
:104FF00001D1FFE7FFE7059800909DF812004009F6
:105000000390BDF8120000F01F00029002990120E9
:10501000884001900398012804D1FFE700980C30E4
:1050200000900CE00398022804D1FFE700981030AC
:10503000009003E0009814300090FFE7FFE79DF830
:10504000110030B1FFE7019A009908681043086029
:1050500005E0019A0099086890430860FFE706B0F0
:105060007047000080B58CB00B900A910020099029
:1050700008900790069005900A98808908B1FFE78C
:10508000FFE70B9805900B98008A099009984CF659
:10509000FF71084009900A98C1880998084309904F
:1050A00009980B9908820B988089099009984EF607
:1050B000F311084009900A9988880A8910434989A0
:1050C000014309980843099009980B9988810B9826
:1050D000808A099009984FF6FF41084009900A9884
:1050E000818909980843099009980B998882684634
:1050F000FEF776FF059843F60001C4F201018842ED
:1051000003D1FFE70398089002E002980890FFE7B8
:105110000B988089000400280AD5FFE70898192118
:1051200048430A9909684900B0FBF1F0079009E08B
:105130000898192148430A9909688900B0FBF1F0E1
:105140000790FFE7079848F21F51C5F2EB11A0FB4B
:1051500001016FF00F0000EA51000990079A0998C9
:105160000009642100FB112006900B98808900043F
:10517000002810D5FFE70699322000EBC10048F265
:105180001F51C5F2EB11A0FB0110C0F342110998A9
:10519000084309900FE00699322000EB011048F215
:1051A0001F51C5F2EB11A0FB0110C0F34311099888
:1051B00008430990FFE709980B9908810CB080BD5E
:1051C000FFE7FEE780B582B040F6C440C2F20000BF
:1051D00001900198A821FBF7A0F80199032008612C
:1051E0000199486101984AF22641C0F600018161A7
:1051F000019A40F67C50C2F20000D061019A4FF44F
:1052000080501062019A00209062019A5062019AC7
:10521000D062019A1166019A40F66C51C2F2000107
:105220005166019A10219166019908670199C86633
:10523000019948670090FFE700980F280ED8FFE714
:10524000009A4AF23A10C0F60000801AC07B019919
:105250008854FFE7009801300090EDE702B080BD70
:1052600084B003900398006902900398C06801908D
:1052700002980199884209D8FFE70398816801984C
:10528000C043084402990844009005E0029901983F
:10529000C04308440090FFE7009804B07047000046
:1052A00010B58CB0DDF83CC0DDF838C00B900A9129
:1052B000099208930A98B0F1FF3F04DCFFE70A98CF
:1052C0004042059002E00A980590FFE70598069095
:1052D00001200790FFE706980999884209DBFFE75C
:1052E0000698099990FBF1F0069007980130079015
:1052F000F1E708980799884203D9FFE708980790D3
:10530000FFE70E9870B1FFE70A98002806D4FFE780
:105310009DF83C004007002804D5FFE70E980138AF
:105320000E90FFE79DF83C008007002803D5FFE7BB
:10533000089858B3FFE79DF83C00C00730BBFFE773
:105340000E9810B3FFE7FFE70E990020049041B1DB
:10535000FFE707990E9A0020914238BF0120049080
:10536000FFE70498C00778B1FFE70E9801380E9068
:105370000B98202100F050F90B98C068B0F1FF3F66
:1053800001DCFFE700E0DFE7FFE7FFE70B98C0681D
:10539000002869D4FFE70A98B0F1FF3F08DCFFE777
:1053A0000A9840420A900B982D2100F035F90CE044
:1053B0009DF83C004007002805D5FFE70B982B21FE
:1053C00000F02AF900E0FFE7FFE70B98C06800282B
:1053D00049D4FFE79DF83C00800700282ED5FFE761
:1053E0009DF83C00C00748BBFFE7089830BBFFE7CB
:1053F0000E9810B3FFE7FFE70E990020039041B12C
:10540000FFE707990E9A0020914238BF01200390D0
:10541000FFE70398C00778B1FFE70E9801380E90B8
:105420000B98302100F0F8F80B98C068B0F1FF3FFE
:1054300001DCFFE700E0DFE7FFE7FFE70B98C0686C
:1054400000280FD4FFE70B980A99099A089BDDF80A
:1054500038C00F9CEE46CEF80440CEF800C000F0F5
:1054600005F8FFE7FFE7FFE70CB010BD80B58CB093
:10547000DDF83CC0DDF838C00B900A910992089322
:105480000A980590012006900490FFE70598099975
:10549000884209D3FFE705980999B0FBF1F0059020
:1054A000049801300490F1E708980499884203D9E0
:1054B000FFE708980490FFE79DF83C00C007C0BBD9
:1054C000FFE70E98A0B3FFE79DF83C008007002897
:1054D00007D5FFE7089820B9FFE730208DF80F00C7
:1054E00003E020208DF80F00FFE7FFE70E99002072
:1054F000029041B1FFE704990E9A0020914238BF13
:1055000001200290FFE70298C00780B1FFE70E98E4
:1055100001380E900B989DF80F1000F07DF80B9855
:10552000C068B0F1FF3F01DCFFE700E0DEE7FFE726
:10553000FFE70B98C06800286CD4FFE7FFE70898E6
:10554000022804D3FFE70898013808900BE00A9876
:105550000699B0FBF1F0079007980999884201D2AB
:10556000FFE705E0FFE70999069848430690E6E75C
:10557000FFE70A980699B0FBF1F0079007980699A3
:105580000A9A00FB11200A900B98079A4AF24B11D5
:10559000C0F60001895C00F03FF80B98C068B0F1DC
:1055A000FF3F01DCFFE709E009990698B0FBF1F045
:1055B0000690FFE706980028DBD1FFE79DF83C0046
:1055C000C00730B3FFE70E9810B3FFE7FFE70E996F
:1055D0000020019041B1FFE704990E9A002091420A
:1055E00038BF01200190FFE70198C00778B1FFE7BD
:1055F0000E9801380E900B98202100F00DF80B98B2
:10560000C068B0F1FF3F01DCFFE700E0DFE7FFE744
:10561000FFE7FFE70CB080BD80B584B003908DF844
:105620000B10039880680190019801300399496834
:1056300088420FD8FFE79DF80B0003990968019A8B
:10564000885401980130039988600399C868013033
:10565000C860FFE7039841688068884215D1FFE77A
:105660000398016882680069FEF752FE0399896811
:10567000884205D0FFE703994FF0FF30C86003E090
:10568000039900208860FFE7FFE704B080BD0000B9
:1056900080B58AB00990089107920020059009987A
:1056A000C0680390FFE70998006904900498039983
:1056B000884206D9FFE704990398C043084406903E
:1056C00008E0099881680398049A801AC043084446
:1056D0000690FFE7069809998968039A891A884213
:1056E00003D2FFE70698019005E0099880680399C6
:1056F000401A0190FFE701980690069807998842A2
:1057000003D2FFE70698009002E007980090FFE7B9
:1057100000980690099840680399084402900298FE
:105720000899069AFAF7D2FD06990598084405905B
:10573000069908980844089006990798401A079017
:105740000699039808440390039809998968884248
:1057500003D1FFE700200390FFE703980999C86091
:10576000FFE7079800289ED1FFE705980AB080BDA3
:1057700080B588B00790069105920798C06803909D
:10578000079880680399401A029002980599884208
:1057900010D9FFE7079840680399084401900198E1
:1057A0000699059AFAF792FD039805990844079916
:1057B000C8601DE002980490079840680399084467
:1057C000019001980699049AFAF780FD05980299CC
:1057D000401A049007984068019001980699029A2F
:1057E0001144049AFAF772FD04980799C860FFE71C
:1057F00008B080BD82B08DF8070000919DF90700C8
:1058000000280AD4FFE7009800019DF907104EF226
:105810000042CEF2000288540BE0009800019DF88F
:10582000071001F00F014EF61452CEF20002885418
:10583000FFE702B07047000082B00090009818B9EE
:10584000FFE70020019033E09DF8000050B1FFE732
:105850009DF800104AF25B10C0F60000405C013079
:10586000019025E09DF8010050B1FFE79DF801107F
:105870004AF25B10C0F60000405C0930019017E06E
:105880009DF8020050B1FFE79DF802104AF25B104C
:10589000C0F60000405C1130019009E09DF8031053
:1058A0004AF25B10C0F60000405C19300190FFE73F
:1058B000019802B07047000080B588B084460D980A
:1058C0000C98DDF82CE0DDF828E0CDF81CC006913E
:1058D000059204938DF80F000798143001F0FCFC3A
:1058E0000598079908620498079948620A980799E9
:1058F00088620B980799C8620799886ACA6A232147
:1059000001F05EFE079B186A596A9A6ADB6A1A44BC
:10591000043A47F68D23C0F6000301F005FC079911
:10592000C8619DF80F00079981F836009DF80F00B7
:10593000079981F8350007980021029181630D983D
:10594000079A50640D98079A906407980163079826
:1059500080F83410079881670798C167079B03F1A7
:105960004C006A465160116047F60152C0F60002D1
:10597000194602F02BFB029808B080BD80B586B0B6
:1059800084460898CDF814C00491039202938DF8D0
:1059900007009DF80700059948720599487A00F0BC
:1059A000FE00487204980599C86103980599086239
:1059B0000599002088620299059A51620090FFE7DC
:1059C000009800280CDCFFE70598009900EBC10067
:1059D000143001F089FCFFE7009801300090EFE7F8
:1059E00006B080BD80B582B0019000200090FFE736
:1059F000009800280CDCFFE70198009900EBC1003B
:105A0000143001F021FDFFE7009801300090EFE72E
:105A100002B080BD80B582B00190FAF783FB0090A0
:105A20000198806F20B1FFE70198816F8847FFE7F9
:105A30000098FAF77BFB02B080BD000086B00590AD
:105A4000049103920293059818B1FFE7049808B9EE
:105A5000FFE724E004980599C860039818B1FFE7B0
:105A60000398019005E040F20800C2F200000190A6
:105A7000FFE7019805994860029818B1FFE702987E
:105A8000009005E040F22010C2F200000090FFE715
:105A9000009805998860059900200875FFE706B011
:105AA0007047000083B00190019820B1FFE7019892
:105AB000006818B9FFE7002002902EE0FFE7019987
:105AC0000020009091B1FFE70198426881680020B2
:105AD000914200900AD2FFE7019908688968415C09
