:020000040800F2
:10000000B044002045010008391600080D02000820
:10001000810F0008650B0008B12B000800000000EC
:10002000000000000000000000000000B5220008F1
:10003000E10D0008000000009701000839240008C5
:100040005F0100085F0100085F0100085F01000810
:100050005F0100085F0100085F0100085F01000800
:100060005F0100085F0100085F0100085F010008F0
:100070005F0100085F0100085F0100085F010008E0
:100080005F0100085F0100085F0100085F010008D0
:100090005F0100085F0100085F0100085F010008C0
:1000A0005F010008B12400085F0100085F0100083B
:1000B000D9240008FD240008252500085F01000858
:1000C0005F0100085F0100085F0100085F01000890
:1000D0005F010008D12600084D270008C927000845
:1000E0005F0100085F0100085F0100085F01000870
:1000F0005F0100085F0100085F0100085F01000860
:100100005F0100085F0100085F0100085F0100084F
:10011000C1250008412600085F0100085F010008B2
:100120005F0100085F0100085F0100085F0100082F
:10013000DFF80CD000F04CFA0048004759060008E0
:10014000B04400200648804706480047FEE7FEE727
:10015000FEE7FEE7FEE7FEE7FEE7FEE7FEE7FEE777
:100160004924000831010008EFF3108072B670478F
:1001700080F310887047324A1368012B04D04FF087
:10018000010313602F4A10602F4A11602F484FF06F
:10019000805101607047EFF3108272B62848016801
:1001A00091B14FF0000101602648016829B1EFF3D9
:1001B000098121E9F00F0068016023490968096895
:1001C000B1E8F00F81F3098882F310884EF0040E35
:1001D00070471D4908601B494FF00000086018492E
:1001E0004FF0010008601A481A49D0F8002041EA8F
:1001F0000201016015484FF0805101601648006807
:10020000006880F3088861B662B670471EF0040F7C
:100210000CBFEFF30880EFF3098020E9F00F40F8FE
:1002200004ED1EF0040F0CBF80F3088880F30988EA
:1002300000B505F093F95DF804EB4EF0040E70473D
:1002400004310020682E0020702E002004ED00E014
:1002500020ED00E00000FFFF08ED00E038B5D0E938
:100260000221491E01EB410102EBC1014268C1EBD1
:10027000011102EB81010268C1EB011102EB810265
:10028000D0E9043101EB410103EB81013023A1F5F9
:10029000527191FBF3F4174D6C4302EBC41291FBC6
:1002A000F3F403FB141100921A2902DB124B1A44D7
:1002B00000920C2291FBF2F3104C6343009C04EB80
:1002C000C313009391FBF2F302FB13110C4A08E0F5
:1002D000491E40F2A324535C6343009C04EBC31308
:1002E00000930029F4DC0146684600F0F3F800981A
:1002F00038BD00003F0C0F008051010067C20300B1
:10030000F871000840EA01039B0703D009E008C91F
:10031000121F08C0042AFAD203E011F8013B00F8CA
:10032000013B521EF9D27047D2B201E000F8012B16
:10033000491EFBD270470022F6E710B513460A4665
:1003400004461946FFF7F0FF204610BD421E12F882
:10035000013F002BFBD111F8013B02F8013B002BC0
:10036000F9D1704730B505462A460B4612F8010B05
:1003700013F8014B08B1A042F8D01CB1002802D0FC
:100380006D1CF1E7284630BD10B5044604E00B783B
:1003900000F8013B03B1491C521EF8D2204610BDA3
:1003A000421C10F8011B0029FBD1801A704703463C
:1003B00011F8012B00F8012B002AF9D118467047DB
:1003C00030B505460020034600E05B1C934205D291
:1003D000EC5CC85C201A01D1002CF6D130BD80EA5B
:1003E000010210B502F00043400022D04A001FD0A5
:1003F000010E01EB1261C0F35600C2F3560240F445
:10040000000042F40002A0FB022000047F39140423
:1004100000D0401C50EA124001D44000491EC2B234
:100420000C0604EBD010401C4008802A02D003E0E8
:10043000002010BD20F00100002900DA0020184340
:1004400010BD002801DBC0F10040002901DBC1F133
:100450000041814201D3012070470020704700F025
:10046000004220F00040C10DC0F3160040F400002F
:100470007F2901DA00207047962903DCC1F196013B
:10048000C84001E096398840002AF4D040427047C5
:1004900001F0004330B421F0004150EA010206D0DF
:1004A0000A0DA2F56072C1F31301002A02DC30BC10
:1004B00000207047440F44EAC104C100E01830BC7A
:1004C00000EBC25000F04CB8014900F003B8000046
:1004D0009806002010B500683C22B0FBF2F302FB46
:1004E0001303B0FBF2F00B60B0FBF2F302FB13035B
:1004F000B0FBF2F018224B60B0FBF2F302FB1303E7
:10050000B0FBF2F0021D8B600723B2FBF3F403FB98
:100510001422800040F2B55300F66C308A61B0FBC3
:10052000F3F2B0FBF3F403FB1400443280084A6199
:10053000C8613B2802D3920700D0401C0022074C20
:1005400013460A61E25C824203D8801A5B1C0B618D
:10055000F8E7401CC860084610BD0000047200089F
:100560000029A8BF7047401C490008BF20F00100C7
:10057000704710B4B0FA80FC00FA0CF050EA0104A5
:1005800004BF10BC704749B1CCF1200421FA04F437
:1005900011FA0CF118BF012121430843A3EB0C0110
:1005A000CB1D4FEA00614FEA102042BF002010BC73
:1005B000704700EBC35010440029A4BF10BC704723
:1005C000401C490008BF20F0010010BC704700002B
:1005D0001CB509480090094801900546009C06E0BA
:1005E000E06840F0010394E8070098471034AC42FB
:1005F000F6D3FFF7A1FD0000B8840008D8840008F6
:1006000070B58C1810F8015B15F0070301D110F8D4
:10061000013B2A1106D110F8012B03E010F8016B01
:1006200001F8016B5B1EF9D12B0705D40023521E84
:100630000DD401F8013BFAE710F8013BCB1A921CEC
:1006400003E013F8015B01F8015B521EF9D5A142EA
:10065000D8D3002070BD000080B506F0F7FA002066
:1006600080BD000080B582B042F6D431C2F20001F4
:100670000B68581C086047F20470C0F60000694619
:10068000486047F23670C0F60000086047F63E1139
:10069000C0F6000147F23B72C0F60002002001F0F4
:1006A000ABFB02B080BD000080B584B0039040F287
:1006B000C461C2F2000101200870FFE740F2882007
:1006C000C2F20000016840F28C20C2F20000006813
:1006D000007800EB800201EB820051F822104268A2
:1006E000038940F2C460C2F2000000F053F928B35D
:1006F000FFE740F28820C2F20000006840F28C213F
:10070000C2F200010968097801EB810100EB810068
:10071000006990B1FFE740F28820C2F20000006853
:1007200040F28C21C2F200010968097801EB8101D5
:1007300000EB810000698047FFE754E040F2882029
:10074000C2F20000006840F28C21C2F20001096888
:10075000097801EB810100EB8100C06890B1FFE7EF
:1007600040F28820C2F20000006840F28C21C2F200
:1007700000010968097801EB810100EB8100C06884
:100780008047FFE740F28C20C2F200000268117837
:100790000131117000680078202823DBFFE740F268
:1007A000C461C2F200010020087042F6D032C2F2E9
:1007B00000021368591C116047F20471C0F6000171
:1007C0006A46516047F23671C0F60001116047F287
:1007D000D371C0F6000147F23B72C0F6000201F08F
:1007E0000BFB05E0FFE74FF47A7005F04BFC65E783
:1007F00004B080BD80B584B010200090012100F0CD
:10080000C3FF009820210291ADF80C108DF80F0065
:1008100003208DF80E0041F20000C4F201000190A7
:1008200003A900F0DFFA0198029900F09FFB04B0E1
:1008300080BD000080B586B043F24810C2F20000CF
:10084000436840F2C462C2F2000243F60000C4F200
:1008500001004FF4E13102F0E5FE69460A20C8606C
:1008600088604FF48060486040F27870C2F2000007
:10087000086040F2F860C2F2000047F6D401C0F60A
:10088000000140F2A962C0F60002002305F0CEFB91
:100890000590059838B1FFE747F62500C0F600003F
:1008A00004F080FF73E040F2F860C2F2000005F04F
:1008B0004BFC0590059838B1FFE747F66100C0F69C
:1008C000000004F06FFF62E069460A20C86088609B
:1008D0004FF48060486041F27800C2F20000086086
:1008E00040F6F870C2F2000047F68201C0F600013F
:1008F00040F2A962C0F60002002305F097FB0590C4
:10090000059838B1FFE747F2EF70C0F6000004F039
:1009100049FF3CE040F6F870C2F2000005F014FC1C
:100920000590059838B1FFE747F64300C0F6000090
:1009300004F038FF2BE069460A20C86088604FF455
:100940008060486040F6F830C2F20000086040F66F
:100950007830C2F2000047F6AA01C0F6000140F666
:100960004D22C0F60002002305F060FB059838B167
:10097000FFE747F60C00C0F6000004F013FF06E0A6
:1009800040F67830C2F2000005F0DEFBFFE706B06B
:1009900080BD000080B586B0049003910292ADF84E
:1009A0000630039820B9FFE701208DF8170049E0D1
:1009B00005208DF8040000208DF80500FFE703985E
:1009C0009DF80510405CE0B1FFE703989DF8051025
:1009D000415C43F60000C4F2010002F0DDF8FFE7DD
:1009E00043F60000C4F20100402101F05BFF08B9AA
:1009F000FFE7F5E7FFE79DF8050001308DF80500FA
:100A0000DDE70298D0B1FFE7FFE70498806A023083
:100A10000299FFF7A7FC80B9FFE79DF80400411E8B
:100A20008DF8041020B9FFE702208DF8170009E0C7
:100A3000BDF8060005F026FBE7E7FFE701208DF88B
:100A40001700FFE79DF8170006B080BD80B582B0A3
:100A5000019002F0F9FDFFE702F03AFE4FF47A70E0
:100A600005F010FBF8E7000080B582B042F6D43103
:100A7000C2F200010B68581C086047F20470C0F60F
:100A800000006946486047F23670C0F60000086012
:100A900047F68211C0F6000147F23B72C0F6000231
:100AA000002001F0A9F942F2B850C2F2000000683B
:100AB00003F0A6FE02B080BD80B582B042F6D4310C
:100AC000C2F200010B68581C086047F20470C0F6BF
:100AD00000006946486047F23670C0F600000860C2
:100AE00047F66111C0F6000147F23B72C0F6000202
:100AF000002001F081F902B080BD000080B5012026
:100B000000F05EFE002000F05BFE80BD82B0ADF81C
:100B100006000020009046F60040C4F2000000905D
:100B2000BDF806100098084400900098008802B0B4
:100B30007047000082B0ADF80600ADF80410002048
:100B4000009046F60040C4F200000090BDF8061088
:100B5000009808440090BDF804000099086002B0B5
:100B600070470000FFE7FEE782B001908DF80310A8
:100B70009DF8030030B1FFE70199086840F00100DB
:100B8000086006E0019908684FF6FE7210400860A0
:100B9000FFE702B07047000081B00090009908683C
:100BA0004FF6FE721040086000990020086000991E
:100BB0004860009988600099C86000980821C4F2D4
:100BC0000201884208D1FFE70421C4F2020108684B
:100BD00040F00F000860B9E000981C21C4F2020147
:100BE000884208D1FFE70421C4F20201086840F0FE
:100BF000F0000860A9E000983021C4F202018842A8
:100C000008D1FFE70421C4F20201086840F47060D3
:100C1000086099E000984421C4F20201884208D19A
:100C2000FFE70421C4F20201086840F47040086044
:100C300089E000985821C4F20201884208D1FFE7F8
:100C40000421C4F20201086840F47020086079E0D1
:100C500000986C21C4F20201884208D1FFE7042108
:100C6000C4F20201086840F47000086069E000986E
:100C70008021C4F20201884208D1FFE70421C4F2B6
:100C80000201086840F07060086059E0009840F286
:100C90000841C4F20201884209D1FFE740F2044151
:100CA000C4F20201086840F00F00086047E00098B5
:100CB00040F21C41C4F20201884209D1FFE740F230
:100CC0000441C4F20201086840F0F000086035E019
:100CD000009840F23041C4F20201884209D1FFE796
:100CE00040F20441C4F20201086840F470600860F8
:100CF00023E0009840F24441C4F20201884209D145
:100D0000FFE740F20441C4F20201086840F4704079
:100D1000086011E0009840F25841C4F20201884294
:100D200009D1FFE740F20441C4F20201086840F42F
:100D300070200860FFE7FFE7FFE7FFE7FFE7FFE757
:100D4000FFE7FFE7FFE7FFE7FFE7FFE701B07047D7
:100D500081B000900098406880B201B070470000F8
:100D600080B583B002900191002000900298006845
:100D70000090009847F6F071884300900199D1F8EF
:100D800020E08868D1F810C04B698A6940EA0E00FB
:100D900040EA0C0018431043CA6910434A6A1043E2
:100DA000896A0143009808430090009802990860FE
:100DB0000198C068029948600198006802998860AB
:100DC000019840680299C86003B080BD82B001906C
:100DD000ADF80210BDF802000199486002B07047FA
:100DE0007047000088B0079006910020059004909D
:100DF00003900290019000900698C07800F00F00D8
:100E000005900698C078C006002806D5FFE706982A
:100E10008178059808430590FFE706980078002838
:100E20004BD0FFE707980068019000200390FFE790
:100E3000039807283DD8FFE70399012088400290D6
:100E40000698008802990840049004980299884204
:100E50002AD1FFE703988000029002990F20884072
:100E6000009000990198884301900598029900FA32
:100E700001F10198084301900698C078282806D10E
:100E8000FFE7039901208840079948610BE0069825
:100E9000C078482806D1FFE70399012088400799C8
:100EA0000861FFE7FFE7FFE7FFE7039801300390E2
:100EB000BEE7019807990860FFE706980088B0F53B
:100EC000807F50DBFFE70798406801900020039087
:100ED000FFE70398072842D8FFE7039800F10801CD
:100EE00001208840029006980088029908400490EA
:100EF0000498029988422DD1FFE703988000029060
:100F000002990F2088400090009901988843019031
:100F10000598029900FA01F101980843019006989A
:100F2000C078282808D1FFE7039800F108010120C4
:100F3000884007994861FFE70698C078482808D19B
:100F4000FFE7039800F10801012088400799086134
:100F5000FFE7FFE7FFE7039801300390B9E7019847
:100F600007994860FFE708B07047000082B0019021
:100F7000ADF80210BDF802000199086102B0704797
:100F8000FFE7FEE780B586B00590ADF812108DF84A
:100F90001120059840F60001C4F20101884205D1F4
:100FA000FFE70420012100F0EFFB55E0059840F633
:100FB0000041C4F20101884205D1FFE70820012168
:100FC00000F0E2FB47E0059841F20001C4F20101A4
:100FD000884205D1FFE71020012100F0D5FB39E060
:100FE000059841F20041C4F20101884205D1FFE7B2
:100FF0002020012100F0C8FB2BE0059841F60001FC
:10100000C4F20101884205D1FFE74020012100F030
:10101000BBFB1DE042F6C831C2F200010B68581C50
:10102000086047F20470C0F600006946486047F265
:101030003670C0F60000086047F21171C0F600017A
:1010400047F23B72C0F60002002000F0D5FE17E028
:10105000FFE7FFE7FFE7FFE7BDF81200ADF80C0080
:101060009DF811100420012908BF10208DF80F00F1
:1010700003208DF80E00059803A9FFF7B3FEFFE7E4
:1010800006B080BD80B582B04FF080500121019143
:1010900000F05EFB01994FF0006000F059FB0198F1
:1010A00000F02EFB0420FFF731FD4AF2B5518842D3
:1010B00026D0FFE7FFF722FD012000F089FCFFE7C3
:1010C000612000F043FC012801D0FFE7F8E74FF46E
:1010D000007000F095FC012000F086FC00F000FD9F
:1010E00000F0F2FC49F63F4000F0D6FC00F0ECFCCA
:1010F00000F06EF804204AF2B551FFF71BFD16E030
:10110000012000F065FCFFE7612000F01FFC0128D2
:1011100001D0FFE7F8E74FF4007000F071FC012008
:1011200000F062FC00F0DCFC00F0CEFCFFE70120E8
:1011300002B080BD10B58CB000F082FC00F5E1403B
:101140000B900BA8FFF7C0F98446DCF80000DCF830
:101150000410DCF80820DCF80C30DCF810E0DCF8D7
:1011600014400594CDF810E0039302920191009091
:10117000DCF81800DCF81C10DCF82020DCF8243047
:10118000DCF828C0CDF828C0099308920791069092
:10119000059800F26C7040F21061C2F20001088004
:1011A000049801304880039888800298C88001988C
:1011B0000881009848816846FFF750F80B900B981B
:1011C00040F22061C2F2000108600CB010BD0000C6
:1011D00080B58CB040F21060C2F200000188A1F22C
:1011E0006C71059141880139049181880391C1880E
:1011F000029101890191408900906846FFF72EF81D
:10120000A0F5E1400B900B9800F030FC00F05CFC86
:101210000CB080BD80B5AEB02D902C9100201990FF
:10122000ADF85E002D9843F60001C4F2010188423A
:1012300050D1FFE743F24810C2F20000189018990D
:1012400043F25010C2F20000486040201590ADF803
:101250005E004FF480400121169100F095FA169936
:10126000084600F059FA40F60000C4F2010013905D
:101270004FF400711822FFF785FE13984FF4806138
:101280000422FFF77FFE169825218DF89810002183
:101290008DF899108DF89A108DF89B0026A800F013
:1012A000CDF9169A43F60000C4F20100149040F202
:1012B000244101F071FB14981599169A5823C4F231
:1012C00002031A9343F60403C4F20103199301F0D5
:1012D000CFFA79E12D9844F20041C4F2000188422E
:1012E0004FD1FFE743F29010C2F200001890189916
:1012F00043F29810C2F20000486040201190ADF80F
:101300005E004FF400300121129100F021FA129991
:10131000084600F001FA40F60000C4F201000E9009
:1013200004210F911822FFF72DFE0E980F9A082125
:10133000FFF728FE129826218DF8981000218DF8CD
:1013400099108DF89A108DF89B0026A800F076F978
:10135000129A44F20040C4F20000109040F224417E
:1013600001F01AFB10981199129A6C23C4F202032F
:101370001A9344F20443C4F20003199301F078FA7B
:1013800021E12D9844F60001C4F20001884250D1B9
:10139000FFE743F2D810C2F200001890189943F208
:1013A000E010C2F20000486040200C90ADF85E00F2
:1013B0004FF4802001210D9100F0CAF90D990846E3
:1013C00000F0AAF940F60040C4F201000A904FF480
:1013D00080611822FFF7D6FD0A984FF400610422BD
:1013E000FFF7D0FD0D9827218DF8981000218DF87A
:1013F00099108DF89A108DF89B0026A800F01EF920
:101400000D9A44F60000C4F200000B9040F2244113
:1014100001F0C2FA0B980C990D9A3023C4F2020322
:101420001A9344F60403C4F20003199301F020FA5E
:10143000C8E02D9844F60041C4F20001884251D121
:10144000FFE743F22020C2F200001890189943F2FF
:101450002820C2F20000486040200890ADF85E00ED
:101460004FF400200121099100F072F9099902203E
:1014700000F052F941F20000C4F2010006904FF46E
:1014800080611822FFF77EFD06984FF40061042268
:10149000FFF778FD099834218DF8981000218DF818
:1014A00099108DF89A108DF89B0026A800F0C6F8C8
:1014B000099A44F60040C4F20000079040F224412B
:1014C00001F06AFA07980899099A40F23043C4F289
:1014D00002031A9344F60443C4F20003199301F083
:1014E000C7F96EE02D9845F20001C4F20001884270
:1014F00048D1FFE743F26820C2F200001890189923
:1015000043F27020C2F2000048604020ADF85E0057
:101510004FF480100121059100F01AF9059902207D
:1015200000F0FAF841F20000C4F201004FF48051DB
:101530001822FFF727FD41F20040C4F20100042207
:101540001146FFF71FFD059835218DF898100021F1
:101550008DF899108DF89A108DF89B0026A800F050
:101560006DF8059A45F20000C4F20000049040F2C4
:10157000244101F011FA0498059A40F2255101F036
:101580000BFA1DE042F6C431C2F200010B68581C90
:10159000086047F20470C0F600006946486047F2F0
:1015A000FF60C0F60000086047F2E661C0F6000187
:1015B00047F20972C0F60002002000F01DFC38E07E
:1015C000FFE7FFE7FFE7FFE72C9827900020039055
:1015D000ADF8A000ADF8A200ADF8A400ADF8A800E9
:1015E0000C20ADF8A6002D9827A901F01FFA2D9820
:1015F000012101F027F91A98FFF7CEFA03981899FC
:10160000496802311C911D90BDF85E1002391E918F
:101610001F90802120912190229023904FF400511F
:101620002491259019981B901A981BA9FFF798FBF5
:10163000FFE72EB080BD00007047000084B003902B
:101640000020029001900F2000900398C078B8B35A
:10165000FFE74EF60C50CEF200000068C043C0F326
:10166000022002900298C0F10400019000980299B3
:10167000C8400090039840780199884002900398F0
:101680008078009901400298084302900298000176
:1016900002900298039909784EF20042CEF20002BD
:1016A00088540398027802F01F01012088401C2111
:1016B00001EAD2014EF20012CEF2000288500EE092
:1016C0000398027802F01F01012088401C2101EAE2
:1016D000D2014EF28012CEF200028850FFE704B031
:1016E0007047000081B0009000980021C0F2FA51CC
:1016F00008434EF60C51CEF20001086001B070476D
:1017000081B08DF803009DF803002021C4F20E2162
:10171000086001B07047000082B001908DF803109E
:101720009DF8030048B1FFE7019A41F21401C4F2A9
:10173000020108681043086008E0019A41F21401B0
:10174000C4F20201086890430860FFE702B07047E6
:1017500082B001908DF803109DF8030048B1FFE7B7
:10176000019A41F21C01C4F20201086810430860AA
:1017700008E0019A41F21C01C4F20201086890439A
:101780000860FFE702B0704782B001908DF8031047
:101790009DF8030048B1FFE7019A41F21801C4F235
:1017A000020108681043086008E0019A41F218013C
:1017B000C4F20201086890430860FFE702B0704776
:1017C00081B08DF803009DF8030040F24041C4F25F
:1017D0004221086001B0704786B005900020049057
:1017E00003900290019041F20400C4F202000068EC
:1017F00000F00C0004900498009040B1FFE70098BE
:1018000004280BD0FFE7009808280ED047E0059980
:1018100041F20020C0F27A00086047E0059941F2E9
:101820000020C0F27A00086040E041F20400C4F2F7
:101830000200016801F470110391006800F4803027
:1018400002900399022000EB91400390029848B95E
:10185000FFE7039840F60011C0F23D0148430599A7
:1018600008601BE041F20400C4F20200006880033B
:10187000002809D5FFE7039840F60011C0F23D01AA
:1018800048430599086008E0039841F20021C0F23E
:101890007A01484305990860FFE7FFE706E00599EC
:1018A00041F20020C0F27A000860FFE741F2040034
:1018B000C4F20200016801F0F001049104990909E1
:1018C0000491049A47F21421C0F600018A5C019247
:1018D000059B1A68DDF804C022FA0CF25A6002680F
:1018E00002F4E0620492049A120A0492049A8A5C56
:1018F0000192059B5A68DDF804C022FA0CF29A6046
:10190000026802F460520492049AD20A0492049A81
:10191000895C0191059A5168019BD940D1600068AA
:1019200000F4404004900498800B0490049947F21E
:101930001020C0F60000405C01900599C868019A2B
:10194000B0FBF2F0086106B07047000084B08DF87B
:101950000F000020029001908DF803009DF80F0009
:10196000400902900298012807D1FFE741F20000E8
:10197000C4F202000068019012E00298022807D128
:10198000FFE741F22000C4F202000068019006E087
:1019900041F22400C4F2020000680190FFE7FFE773
:1019A0009DF80F0000F01F00029001980299C840B6
:1019B000C00720B1FFE701208DF8030003E00020FD
:1019C0008DF80300FFE79DF8030004B070470000A6
:1019D00081B08DF803009DF8030040F28041C4F20D
:1019E0004221086001B0704781B08DF803009DF876
:1019F000030040F23C41C4F24221086001B070474C
:101A000081B00090009A41F22001C4F202010868FE
:101A10001043086001B0704742F60401C4F20001AF
:101A2000088840F0100008807047000042F604016A
:101A3000C4F20001088820F0100008807047000000
:101A400081B00020ADF8020042F61C00C4F2000094
:101A50000088ADF8020042F61800C4F200000188C8
:101A6000BDF8020040EA014001B0704780B582B085
:101A70000190FFF7D1FFBDF8060042F61801C4F24D
:101A800000010880019842F61C01C4F200010880A0
:101A9000FFF7CCFF02B080BD80B582B00190FFF7A8
:101AA000BBFF0198C0F3034042F60801C4F20001F5
:101AB0000880019842F60C01C4F200010880FFF78B
:101AC000B5FF02B080BD0000FFE742F60400C4F29B
:101AD000000000888006002801D4FFE7F5E7704782
:101AE00042F60401C4F20001088820F008000880D2
:101AF000FFE742F60400C4F2000000880007002857
:101B000001D4FFE7F5E7704780B582B000200DF102
:101B10000701012200F03AF800900098012804D152
:101B2000FFE79DF80700009003E04FF0FF300090C2
:101B3000FFE7009802B080BD80B584B0FFE741F2B6
:101B40007840C2F20000009000980078532803D03B
:101B5000FFE701F02FF8FFE7FFE741F27840C2F21C
:101B60000000603003900398006902900298039986
:101B7000C968884203D0FFE70120019002E00020FD
:101B80000190FFE7019804B080BD000080B586B0E9
:101B9000059004910392EFF311804FF0200181F33F
:101BA0001188019005980499039A00F007F80290B3
:101BB000019880F31188029806B080BD80B58EB080
:101BC0000D900C910B92FFE741F27840C2F20000B9
:101BD000039003980078532803D0FFE700F0EAFF52
:101BE000FFE7FFE70D9800EB400141F27840C2F2B9
:101BF000000000EBC100603005900C98069005983D
:101C0000006908900598C06807900020099008981E
:101C10000799884236D9FFE7059880680899401AE5
:101C20000A900A980B99884203D2FFE70A9802901B
:101C300002E00B980290FFE702980A90059840682E
:101C4000089908440490069804990A9AFEF75AFBEA
:101C50000A990998084409900A9906980844069038
:101C60000A990B98401A0B900A9908980844089012
:101C7000089805998968884203D1FFE700200890F9
:101C8000FFE7FFE707980899401A0A900A980B990E
:101C9000884203D2FFE70A98019002E00B98019076
:101CA000FFE701980A900A98D8B1FFE705984068C5
:101CB000089908440490069804990A9AFEF722FBB2
:101CC0000A990998084409900A99069808440690C8
:101CD0000A990B98401A0B900A99089808440890A2
:101CE000FFE7099820B1FFE7089805990861FFE729
:101CF00009980EB080BD000080B586B005900491B3
:101D00000392FFE741F27840C2F20000019001988F
:101D10000078532803D0FFE700F04CFFFFE7FFE710
:101D2000EFF311804FF0200181F3118800900598A6
:101D30000499039A00F008F80290009880F3118843
:101D4000029806B080BD000080B58AB00990089165
:101D5000079208980490099800EB400141F27840FE
:101D6000C2F2000000EBC1001830039003984069F4
:101D7000029040B1FFE70298012819D0FFE70298CE
:101D800002282CD032E0039800F062FF05900598FD
:101D90000799884203D2FFE70020069007E00798E2
:101DA000069003980499079A01F0DAF9FFE720E01A
:101DB000039800F04DFF059005980799884203D2DB
:101DC000FFE70598019002E007980190FFE701986E
:101DD000069003980499069A01F0C2F909E0039865
:101DE0000499079A01F04CF9069002E00020069051
:101DF000FFE706980AB080BD82B080B584B0079333
:101E000006920390029106A80090039802996A46F0
:101E100000F008F80190019804B0BDE8804002B0DD
:101E20007047000080B5AAB02990289127920DA88C
:101E300021904020229000202390299925912490E0
:101E4000FFE7289800788DF89B00289801302890AB
:101E50009DF89B0008B9FFE717E29DF89B00252835
:101E600040F00682FFE700201E9001202090FFE74F
:101E7000289800788DF89B009DF89B002338014638
:101E800009910D2829D80999DFE801F01F27272794
:101E90002727272717270727270F1E9840F001001D
:101EA0001E902898013028901AE01E9840F00200F9
:101EB0001E9028980130289012E01E9840F00400EF
:101EC0001E902898013028900AE01E9840F00800E3
:101ED0001E9028980130289002E000202090FFE713
:101EE000FFE720980028C3D1FFE700201D90FFE7FF
:101EF000289800788DF89B009DF89B00302805DB22
:101F0000FFE79DF89B003A2801DBFFE710E02898E7
:101F1000013028901D9800EB80019DF89B0000EB9C
:101F2000410030381D90FFE701200028E0D1FFE795
:101F300000201F90289800788DF89B009DF89B004A
:101F40002E2825D1FFE7289801302890FFE7289810
:101F500000788DF89B009DF89B00302805DBFFE79B
:101F60009DF89B003A2801DBFFE710E0289801303C
:101F700028901F9800EB80019DF89B0000EB41002A
:101F800030381F90FFE701200028E0D1FFE7FFE78E
:101F9000289800788DF89B00FFE79DF89B006C283F
:101FA00005D0FFE79DF89B00682808D1FFE7289837
:101FB00001302890289800788DF89B0000E004E01C
:101FC000FFE701200028E8D1FFE79DF89B002538B6
:101FD00001460891532800F246810899DFE811F084
:101FE000D80043014301430143014301430143013D
:101FF00043014301430143014301430143014301C1
:1020000043014301430143014301430143014301B0
:1020100043014301430143014301430143014301A0
:102020004301DD00430143014301430143014301F7
:102030004301430143014301430143014301430180
:102040004301430143018B00430143014301430129
:102050004301430143014301430143015400630031
:102060004301DD00430143014301430143014301B7
:10207000430143014301C700430143019F00430162
:102080007700430143018B00279A1068011D1160FE
:102090000068209020988DF833009DF8331021A817
:1020A00000F0B2FFE0E0279A1068011D116000689F
:1020B000209020991F9B1D98DDF878C06A46C2F8D1
:1020C00004C0106021A80A2200F0E2FDCCE0279AAB
:1020D0001068011D11600068209020991F9B1D98B9
:1020E000DDF878C06A46C2F804C0106021A80A2250
:1020F00000F0B4FEB8E0279A1068011D1160006876
:10210000209020991F9B1D98DDF878C06A46C2F880
:1021100004C0106021A8102200F0A0FEA4E0279ABD
:102120001068011D116000680B900B9830B9FFE733
:1021300047F27370C0F600000B90FFE7FFE70B98C3
:1021400000788DF89B000B9801300B909DF89B0058
:1021500008B9FFE70AE09DF89B1021A800F054FFA2
:10216000FFE72498B0F1FF3FE9DCFFE77CE0279A26
:102170001068011D116000682090209968460022B7
:1021800042600823036021A8102200F067FE6BE084
:1021900021A8252100F038FF66E0279A1068073053
:1021A00020F0070101F10800106008684968FEF797
:1021B0006FF90A900A980021FEF743F928B9FFE762
:1021C00021A82D2100F020FFFFE70A98FEF747F92C
:1021D00006900028079002D506984042079007987D
:1021E000209020991F9B1D98DDF878C06A46C2F8A0
:1021F00004C0106021A803900A22029200F048FD5A
:1022000003982E2100F000FF0A980021C4F2C82193
:10221000FEF7E5F8FEF723F904900028059002D5B3
:10222000049840420590029A039805992091DDF8A0
:1022300080C048F21F51C5F2EB118CFB01135911FC
:1022400001EBD371642301FB13C1209120991D9BE5
:10225000DDF878E0EC46CCF804E0CCF8003002235E
:1022600000F016FD00E0FFE728980130289005E017
:102270009DF89B1021A800F0C7FEFFE7FFE7249818
:10228000B0F1FF3F3FF7DDADFFE7249801280EDBFB
:10229000FFE7239830B1FFE72998239A0DA9FFF7AC
:1022A0002BFDFFE72399249808442490FFE7249806
:1022B0002AB080BD7047000080B500F001F880BDF5
:1022C00084B000200390029041F20001C4F20201A8
:1022D000086840F480300860FFE741F20000C4F273
:1022E0000200006800F4003002900398013003906F
:1022F000FFE702990020019039B9FFE70398B0F594
:10230000A06018BF01200190FFE70198C0070028D6
:10231000E3D1FFE741F20000C4F20200006880034D
:10232000002803D5FFE70120029002E00020029080
:10233000FFE70298012851D1FFE742F20001C4F201
:102340000201086840F010000860086820F00300EF
:102350000860086840F00200086041F20401C4F21D
:10236000020100910868086008680860086840F485
:1023700080600860086820F47C100860086840F4F9
:10238000E810086041F20001C4F20201086840F060
:1023900080700860FFE741F20000C4F202000068AC
:1023A0008001002801D4FFE7F5E741F20401C4F2FF
:1023B0000201086820F003000860086840F002008D
:1023C0000860FFE741F20400C4F20200006800F078
:1023D0000C00082801D0FFE7F4E700E0FFE704B0B5
:1023E0007047000080B582B0009000980138B0F1CD
:1023F000807F03D3FFE70120019019E000980138A6
:102400004EF21401CEF2000108604FF0FF300F21B0
:1024100000F0E8FE4EF21801CEF200010020086044
:102420004EF21002CEF20002072111600190FFE788
:10243000019802B080BD000080B503F085F903F07B
:1024400053FF03F093F980BD80B541F20002C4F25E
:102450000202106840F00100106041F20401C4F271
:10246000020108680023CFF6FF03184008601068D7
:102470004FF6FF73CFF6F66318401060106820F433
:1024800080201060086820F4FE00086041F2080116
:10249000C4F202014FF41F000860FFF70DFF4EF673
:1024A0000851CEF200014FF00060086080BD0000CE
:1024B00080B542F60040C4F20100012100F052F85C
:1024C00040B1FFE742F60040C4F20100012100F0F4
:1024D0003DF8FFE780BD000080B54FF0804001214E
:1024E00000F040F840B1FFE702F03EFF4FF08040BF
:1024F000012100F02BF8FFE780BD000080B540F21D
:102500000040C4F20000012100F02CF840B1FFE7C8
:1025100040F20040C4F20000012100F017F8FFE78C
:1025200080BD000080B540F60000C4F2000001212B
:1025300000F018F840B1FFE740F60000C4F20000D8
:10254000012100F003F8FFE780BD000082B0019098
:10255000ADF80210BDF80200C0430199088202B034
:102560007047000083B00290ADF8061000208DF88F
:102570000500ADF80200ADF800000298008ABDF831
:1025800006100840ADF8020002988089BDF80610D8
:102590000840ADF80000BDF8020040B1FFE7BDF80B
:1025A000000020B1FFE701208DF8050003E00020C6
:1025B0008DF80500FFE79DF8050003B070470000A7
:1025C00080B584B044F60040C4F2000040F22441DB
:1025D00000F08AF988B3FFE744F60040C4F2000037
:1025E0000088039044F60440C4F200000088039081
:1025F00040F23040C4F2020001900021FEF7B4FA2C
:102600000198FEF7A5FB01460198C1F1400143F294
:102610002022C2F200025180012102911170536800
:10262000042119709178526851704021FEF7CEFB59
:1026300001980299FEF798FAFFE704B080BD000008
:1026400080B582B045F20000C4F2000040F224419F
:1026500000F04AF9C8B1FFE745F20000C4F20000FB
:102660000088019045F20400C4F200000088019047
:1026700043F26821C2F200014A6805201070887890
:102680004A68507001200870FFE745F20000C4F26C
:10269000000040F2255100F027F9B8B1FFE745F2FC
:1026A0000000C4F2000000F06FFA8DF803009DF8FE
:1026B000030043F2682CC2F2000CDCF80410BCF8F2
:1026C0000220531CACF802308854FFE702B080BDF2
:1026D00080B584B043F60000C4F2010040F224410A
:1026E00000F002F978B3FFE743F60000C4F20100FE
:1026F0000088039043F60400C4F2010000880390B0
:102700005820C4F2020001900021FEF72DFA019832
:10271000FEF71EFB01460198C1F1400143F2481249
:10272000C2F20002518001210291117053681970A8
:102730009178526851704021FEF748FB0198029948
:10274000FEF712FAFFE704B080BD000080B584B048
:1027500044F20040C4F2000040F2244100F0C4F80A
:1027600080B3FFE744F20040C4F200000088039009
:1027700044F20440C4F20000008803906C20C4F2CC
:10278000020001900021FEF7EFF90198FEF7E0FA50
:1027900001460198C1F1400143F29012C2F20002D9
:1027A00051800121029111705368022119709178B2
:1027B000526851704021FEF709FB01980299FEF71B
:1027C000D3F9FFE704B080BD80B584B044F60000C3
:1027D000C4F2000040F2244100F086F880B3FFE725
:1027E00044F60000C4F200000088039044F60400A0
:1027F000C4F20000008803903020C4F2020001906F
:102800000021FEF7B1F90198FEF7A2FA01460198FE
:10281000C1F1400143F2D812C2F2000251800121FD
:1028200002911170536803211970917852685170A8
:102830004021FEF7CBFA01980299FEF795F9FFE7E0
:1028400004B080BD82B001908DF803109DF80300A4
:1028500030B1FFE70199888940F40050888105E094
:102860000199888920F400508881FFE702B0704701
:1028700082B00190ADF802108DF801209DF80100A2
:1028800038B1FFE7BDF802200199888A1043888299
:1028900006E0BDF802200199888A90438882FFE70C
:1028A00002B0704782B00190ADF8021000208DF8A0
:1028B0000100BDF80200B0F5007F01D1FFE7FFE79E
:1028C00001980088BDF802100840000420B1FFE71D
:1028D00001208DF8010003E000208DF80100FFE7E2
:1028E0009DF8010002B0704786B00590ADF8121057
:1028F00000200390029001908DF80300BDF81200B3
:1029000040F66A11884201D1FFE7FFE79DF8120007
:1029100040090190BDF8120000F01F0002900299DA
:102920000120884002900198012806D1FFE7059810
:10293000818902980840029010E00198022806D18F
:10294000FFE70598018A02980840029005E0059883
:10295000818A029808400290FFE7FFE79DF8130084
:1029600003900399012088400390059801880398FB
:1029700008400390029838B1FFE7039820B1FFE7C1
:1029800001208DF8030003E000208DF80300FFE72D
:102990009DF8030006B0704786B00590ADF81210A0
:1029A0008DF8112000200390029001900090BDF856
:1029B000120040F66A11884201D1FFE7FFE705984F
:1029C00000909DF8120040090390BDF8120000F03D
:1029D0001F0002900299012088400190039801286D
:1029E00004D1FFE700980C3000900CE00398022817
:1029F00004D1FFE700981030009003E000981430F5
:102A00000090FFE7FFE79DF8110030B1FFE7019A62
:102A1000009908681043086005E0019A0099086869
:102A200090430860FFE706B07047000080B58CB0A7
:102A30000B900A910020099008900790069005904D
:102A40000A98808908B1FFE7FFE70B9805900B987B
:102A5000008A099009984CF6FF71084009900A987D
:102A6000C18809980843099009980B9908820B9826
:102A70008089099009984EF6F311084009900A9947
:102A800088880A89104349890143099808430990B5
:102A900009980B9988810B98808A099009984FF6BC
:102AA000FF41084009900A988189099808430990D4
:102AB00009980B9988826846FEF78EFE059843F6C2
:102AC0000001C4F20101884203D1FFE70398089096
:102AD00002E002980890FFE70B9880890004002824
:102AE0000AD5FFE70898192148430A99096849005F
:102AF000B0FBF1F0079009E00898192148430A99C2
:102B000009688900B0FBF1F00790FFE7079848F2E9
:102B10001F51C5F2EB11A0FB01016FF00F0000EA9D
:102B200051000990079A09980009642100FB1120BF
:102B300006900B9880890004002810D5FFE70699BD
:102B4000322000EBC10048F21F51C5F2EB11A0FB8F
:102B50000110C0F342110998084309900FE006994B
:102B6000322000EB011048F21F51C5F2EB11A0FB1F
:102B70000110C0F34311099808430990FFE7099831
:102B80000B9908810CB080BD81B0009000988088BE
:102B90006FF35F2001B0704782B00190ADF8021072
:102BA000BDF802006FF35F200199888002B0704782
:102BB000FFE7FEE780B582B041F27840C2F2000044
:102BC00001900198A821FDF7B6FB01990320086147
:102BD00001994861019847F26A71C0F6000181616C
:102BE000019A41F23050C2F20000D061019A4FF4D4
:102BF00080501062019A00209062019A5062019AFE
:102C0000D062019A1166019A41F22051C2F200018C
:102C10005166019A10219166019908670199C86669
:102C2000019948670090FFE700980F280ED8FFE74A
:102C3000009A47F22420C0F60000801AC07B019958
:102C40008854FFE7009801300090EDE702B080BDA6
:102C500084B003900398006902900398C0680190C3
:102C600002980199884209D8FFE703988168019882
:102C7000C043084402990844009005E00299019875
:102C8000C04308440090FFE7009804B0704700007C
:102C900010B58CB0DDF83CC0DDF838C00B900A915F
:102CA000099208930A98B0F1FF3F04DCFFE70A9805
:102CB0004042059002E00A980590FFE705980690CB
:102CC00001200790FFE706980999884209DBFFE792
:102CD0000698099990FBF1F006900798013007904B
:102CE000F1E708980799884203D9FFE70898079009
:102CF000FFE70E9870B1FFE70A98002806D4FFE7B7
:102D00009DF83C004007002804D5FFE70E980138E5
:102D10000E90FFE79DF83C008007002803D5FFE7F1
:102D2000089858B3FFE79DF83C00C00730BBFFE7A9
:102D30000E9810B3FFE7FFE70E990020049041B111
:102D4000FFE707990E9A0020914238BF01200490B6
:102D5000FFE70498C00778B1FFE70E9801380E909E
:102D60000B98202100F050F90B98C068B0F1FF3F9C
:102D700001DCFFE700E0DFE7FFE7FFE70B98C06853
:102D8000002869D4FFE70A98B0F1FF3F08DCFFE7AD
:102D90000A9840420A900B982D2100F035F90CE07A
:102DA0009DF83C004007002805D5FFE70B982B2134
:102DB00000F02AF900E0FFE7FFE70B98C068002861
:102DC00049D4FFE79DF83C00800700282ED5FFE797
:102DD0009DF83C00C00748BBFFE7089830BBFFE701
:102DE0000E9810B3FFE7FFE70E990020039041B162
:102DF000FFE707990E9A0020914238BF0120039007
:102E0000FFE70398C00778B1FFE70E9801380E90EE
:102E10000B98302100F0F8F80B98C068B0F1FF3F34
:102E200001DCFFE700E0DFE7FFE7FFE70B98C068A2
:102E300000280FD4FFE70B980A99099A089BDDF840
:102E400038C00F9CEE46CEF80440CEF800C000F02B
:102E500005F8FFE7FFE7FFE70CB010BD80B58CB0C9
:102E6000DDF83CC0DDF838C00B900A910992089358
:102E70000A980590012006900490FFE705980999AB
:102E8000884209D3FFE705980999B0FBF1F0059056
:102E9000049801300490F1E708980499884203D916
:102EA000FFE708980490FFE79DF83C00C007C0BB0F
:102EB000FFE70E98A0B3FFE79DF83C0080070028CD
:102EC00007D5FFE7089820B9FFE730208DF80F00FD
:102ED00003E020208DF80F00FFE7FFE70E990020A8
:102EE000029041B1FFE704990E9A0020914238BF49
:102EF00001200290FFE70298C00780B1FFE70E981B
:102F000001380E900B989DF80F1000F07DF80B988B
:102F1000C068B0F1FF3F01DCFFE700E0DEE7FFE75C
:102F2000FFE70B98C06800286CD4FFE7FFE708981C
:102F3000022804D3FFE70898013808900BE00A98AC
:102F40000699B0FBF1F0079007980999884201D2E1
:102F5000FFE705E0FFE70999069848430690E6E792
:102F6000FFE70A980699B0FBF1F0079007980699D9
:102F70000A9A00FB11200A900B98079A47F2352114
:102F8000C0F60001895C00F03FF80B98C068B0F112
:102F9000FF3F01DCFFE709E009990698B0FBF1F07B
:102FA0000690FFE706980028DBD1FFE79DF83C007C
:102FB000C00730B3FFE70E9810B3FFE7FFE70E99A5
:102FC0000020019041B1FFE704990E9A0020914240
:102FD00038BF01200190FFE70198C00778B1FFE7F3
:102FE0000E9801380E900B98202100F00DF80B98E8
:102FF000C068B0F1FF3F01DCFFE700E0DFE7FFE77B
:10300000FFE7FFE70CB080BD80B584B003908DF87A
:103010000B1003988068019001980130039949686A
:1030200088420FD8FFE79DF80B0003990968019AC1
:10303000885401980130039988600399C868013069
:10304000C860FFE7039841688068884215D1FFE7B0
:103050000398016882680069FEF74EFE039989684B
:10306000884205D0FFE703994FF0FF30C86003E0C6
:10307000039900208860FFE7FFE704B080BD0000EF
:1030800080B58AB0099008910792002005900998B0
:10309000C0680390FFE709980069049004980399B9
:1030A000884206D9FFE704990398C0430844069074
:1030B00008E0099881680398049A801AC04308447C
:1030C0000690FFE7069809998968039A891A884249
:1030D00003D2FFE70698019005E0099880680399FC
:1030E000401A0190FFE701980690069807998842D8
:1030F00003D2FFE70698009002E007980090FFE7F0
:103100000098069009984068039908440290029834
:103110000899069AFDF7F6F806990598084405906F
:10312000069908980844089006990798401A07904D
:10313000069903980844039003980999896888427E
:1031400003D1FFE700200390FFE703980999C860C7
:10315000FFE7079800289ED1FFE705980AB080BDD9
:1031600080B588B00790069105920798C0680390D3
:10317000079880680399401A02900298059988423E
:1031800010D9FFE707984068039908440190019817
:103190000699059AFDF7B6F803980599084407992A
:1031A000C8601DE00298049007984068039908449D
:1031B000019001980699049AFDF7A4F805980299E0
:1031C000401A049007984068019001980699029A65
:1031D0001144049AFDF796F804980799C860FFE730
:1031E00008B080BD82B08DF8070000919DF90700FE
:1031F00000280AD4FFE7009800019DF907104EF25D
:103200000042CEF2000288540BE0009800019DF8C5
:10321000071001F00F014EF61452CEF2000288544E
:10322000FFE702B07047000082B00090009818B924
:10323000FFE70020019033E09DF8000050B1FFE768
:103240009DF8001047F24520C0F60000405C0130B8
:10325000019025E09DF8010050B1FFE79DF80110B5
:1032600047F24520C0F60000405C0930019017E0AD
:103270009DF8020050B1FFE79DF8021047F245208B
:10328000C0F60000405C1130019009E09DF8031089
:1032900047F24520C0F60000405C19300190FFE77E
:1032A000019802B07047000080B592B010900F9165
:1032B0000E9200200C90FFE710980C99415C0020C2
:1032C0002029029010D0FFE710980C99415C002053
:1032D0000929029008D0FFE70C990F9A002091422B
:1032E00038BF01200290FFE70298C00720B1FFE736
:1032F0000C9801300C90DFE70C9820B9FFE74FF0F5
:10330000FF3011902BE010980C9901F083FD0B9089
:103310000B9820B9FFE74FF0FF3011901FE000201D
:1033200001900A90099008900790069005900490EB
:10333000039010980F9903AA01F0EAFD0D900D98E3
:1033400020B9FFE74FF0FF30119008E00B9A0D987D
:1033500003A990470E99086000201190FFE711988B
:1033600012B080BD80B588B084460D980C98DDF809
:103370002CE0DDF828E0CDF81CC0069105920493FE
:103380008DF80F000798143002F042FA059807995B
:1033900008620498079948620A98079988620B980E
:1033A0000799C8620799886ACA6A232102F05CFB00
:1033B000079B186A596A9A6ADB6A1A44043A45F606
:1033C0006973C0F6000302F081F90799C8619DF89E
:1033D0000F00079981F836009DF80F00079981F8D2
:1033E000350007980021029181630D98079A506477
:1033F0000D98079A906407980163079880F8341035
:10340000079881670798C167079B03F14C006A46DC
:103410005160116046F2DD12C0F60002194603F059
:1034200043F8029808B080BD80B586B084460898FD
:10343000CDF814C00491039202938DF807009DF813
:103440000700059948720599487A00F0FE00487215
:1034500004980599C86103980599086205990020A8
:1034600088620299059A51620090FFE7009800284F
:103470000CDCFFE70598009900EBC100143002F066
:10348000CFF9FFE7009801300090EFE706B080BD6C
:1034900080B582B0019000200090FFE700980028DE
:1034A0000CDCFFE70198009900EBC100143002F03A
:1034B00089FAFFE7009801300090EFE702B080BD85
:1034C00080B582B00190FCF74FFE00900198806FAC
:1034D00020B1FFE70198816F8847FFE70098FCF76C
:1034E00047FE02B080BD000080B582B00020009091
:1034F0008DF8070047F65420C0F6000002F052F99C
:1035000000988DF80700FFE79DF807001F2824DCCE
:10351000FFE79DF8070000EB800140F20800C2F2CF
:10352000000050F8210088B1FFE79DF8071001EB7B
:10353000810240F20800C2F2000050F8222047F653
:10354000E420C0F6000002F02DF9FFE7FFE79DF848
:10355000070001308DF80700D6E747F68920C0F64E
:10356000000002F01FF900208DF80700FFE79DF82A
:1035700007001F2824DCFFE79DF8070000EB80010F
:1035800040F29020C2F2000050F8210088B1FFE71D
:103590009DF8071001EB810240F29020C2F200007A
:1035A00050F8222047F6CF20C0F6000002F0FAF8CB
:1035B000FFE7FFE79DF8070001308DF80700D6E729
:1035C00047F61F20C0F6000002F0ECF800208DF84E
:1035D0000700FFE79DF807001F2820DCFFE79DF8A4
:1035E000071040F21050C2F2000050F8310078B1DC
:1035F000FFE79DF8071040F21050C2F2000050F8AB
:10360000312047F6BF20C0F6000002F0CBF8FFE7FC
:10361000FFE79DF8070001308DF80700DAE702B0F8
:1036200080BD000080B584B00390029101920093A8
:10363000009801998862FDF7DDF803980299FDF77B
:10364000E9FD04B080BD000080B584B047F60430C9
:10365000C0F6000040F26563C0F60003002202924B
:10366000114601F0A5F8029942F2B452C2F20002EA
:10367000106047F60C30C0F6000040F66922C0F634
:10368000000240F6B923C0F6000301F091F8029B56
:1036900042F2B851C2F20001086069460220486057
:1036A00041F28830086043F21C10C2F2000003901F
:1036B00047F6FD21C0F6000146F6A172C0F60002F1
:1036C00002F0F2FE039802F00FFF04B080BD00008C
:1036D00080B542F2B450C2F20000006842F2B0512C
:1036E000C2F2000100F04AFF80BD000080B582B048
:1036F00047F6A770C0F6000002F054F84EF62950C5
:10370000CEF200000190017848F23C10C0F60000B3
:1037100002F048F801980078C00738B1FFE748F296
:103720002710C0F6000002F03DF8FFE74EF62950E2
:10373000CEF2000000788007002807D5FFE748F2A6
:103740001C10C0F6000002F02DF8FFE74EF62950DD
:10375000CEF2000000784007002807D5FFE748F2C6
:103760001A10C0F6000002F01DF8FFE74EF62950CF
:10377000CEF2000000780007002807D5FFE748F2E6
:103780001010C0F6000002F00DF8FFE74EF62950C9
:10379000CEF200000078C006002807D5FFE748F207
:1037A0001210C0F6000001F0FDFFFFE74EF62950B1
:1037B000CEF200000078000600280CD5FFE74EF698
:1037C0003850CEF20000016847F6B370C0F6000032
:1037D00001F0E8FF06E047F6D750C0F6000001F020
:1037E000E1FFFFE702B080BD80B582B0019000919B
:1037F00001F032F8002002B080BD000083B00290DA
:10380000019101980A2815D1FFE7029800684CF64B
:10381000CD42CCF6CC42A0FB0231C90801EB8101BC
:10382000A0EB4100009002990868A0FB0220C008AC
:10383000086009E00298006800F00F00009002990B
:10384000086800090860FFE7009803B070470000AF
:1038500080B584B043F21810C2F20000006890F8FE
:1038600021004008C00740B9FFE742F2BC50C2F255
:1038700000000021017003903FE042F2C060C2F2FC
:103880000000006888B1FFE742F2C060C2F20000A9
:10389000016842F2BC50C2F2000002904FF4807204
:1038A000FCF772FD0298039027E001F02FFB58B15E
:1038B000FFE742F2BC50C2F2000047F62271C0F6A8
:1038C0000001FCF774FD0AE042F2BC50C2F20000B5
:1038D00047F62771C0F60001FCF769FDFFE742F2E9
:1038E000BC50C2F20000019047F68001C0F6000112
:1038F000FCF72CFD01980390FFE7039804B080BD0E
:1039000080B501F0E7FD80BD81B000909DF80020FA
:1039100043F21810C2F20000016891F8210002F091
:10392000010200F0FD0040EA420081F8210001B0F0
:103930007047000082B001900091019842F2A851B6
:10394000C2F200010860009842F2AC51C2F20001DC
:10395000086002B07047000080B588B00020049075
:10396000079048F22420C0F6000048F23831C0F633
:103970000001FFF7DFFF049B43F21811C2F20001C0
:10398000059142F23050C2F20000086042F2C46079
:10399000C2F2000006906A460A21D16015219160AA
:1039A0004FF48061516042F24471C2F20001116033
:1039B00047F63171C0F6000143F6FD12C0F6000271
:1039C00002F034FB049B014605980791006847F616
:1039D0003D71C0F600011A4602F0D4F90120FFF74C
:1039E00093FF069838B1FFE7079820B9FFE70698DC
:1039F00002F0AAFBFFE7002008B080BD80B58AB0C6
:103A0000099043F21810C2F20000016891F82100F9
:103A100040F0010081F82100FFF71AFF01F0C2FE1B
:103A2000FFE7FFF76DFF08900898B0F1FF3F01DC5A
:103A3000FFE7F6E708981B2809D1FFE743F21810C3
:103A4000C2F200000168012081F82000E9E743F29A
:103A50001810C2F20000006890F82000012816D16A
:103A6000FFE708985B2809D1FFE743F21810C2F27C
:103A700000000168022081F82000D2E743F218100C
:103A8000C2F200000168002081F8200069E043F2E2
:103A90001810C2F20000006890F8200002285FD1E0
:103AA000FFE743F21810C2F200000168002081F81D
:103AB00020000898412801D1FFE7B2E70898422882
:103AC00001D1FFE7ADE7089844281BD1FFE743F297
:103AD0001810C2F200000068B0F8740088B1FFE767
:103AE00047F62070C0F6000001F05CFE43F21810AB
:103AF000C2F200000168B1F874000138A1F8740046
:103B0000FFE78EE70898432826D1FFE743F2181015
:103B1000C2F200000168B1F87400B1F87210884276
:103B200019DAFFE743F21810C2F2000004900068AF
:103B3000B0F87410084490F8221047F62E70C0F6C2
:103B4000000001F02FFE04980168B1F87400013004
:103B5000A1F87400FFE764E7FFE7FFE7FFE7FFE78F
:103B6000FFE7FFE7089820B1FFE70898FF2801D199
:103B7000FFE756E7089809282FD1FFE700200790B4
:103B8000FFE7079843F21811C2F200010968B1F883
:103B9000741088420BDAFFE747F62070C0F6000089
:103BA00001F000FEFFE7079801300790E9E743F2D4
:103BB0001810C2F2000003900068223003F05CF895
:103BC000039800682230FCF7EBFB03990A68A2F81F
:103BD00072000968A1F8740023E708987F2804D0D0
:103BE000FFE70898082877D1FFE743F21810C2F2E0
:103BF00000000068B0F8740008B9FFE711E743F26D
:103C00001810C2F200000268B2F872100139A2F86E
:103C100072100268B2F874100139A2F874100168C9
:103C2000B1F87200B1F87410884242DDFFE743F248
:103C30001810C2F2000002900268B2F87430D11875
:103C400001F122002331B2F87220D21A01F0CAFE2B
:103C500002980168B1F872200A44002182F822100B
:103C60000068B0F87410084400F1220147F61B7098
:103C7000C0F6000001F096FD02980068B0F87400EC
:103C80000690FFE7069843F21811C2F20001096896
:103C9000B1F8721088420BDCFFE747F62070C0F6DF
:103CA000000001F07FFDFFE7069801300690E9E78C
:103CB00011E047F61770C0F6000001F073FD43F203
:103CC0001810C2F200000068B0F872100144002021
:103CD00081F82200FFE7A4E6FFE7FFE708980D2838
:103CE00004D0FFE708980A283AD1FFE701F00EF95F
:103CF00001281DD1FFE743F21810C2F2000000684E
:103D000090F82100C00738B1FFE747F6D750C0F65A
:103D1000000001F047FDFFE743F21810C2F2000077
:103D2000016801F12200B1F8721001F011F800E011
:103D3000FFE7FFF78DFD01F035FD43F21810C2F2E9
:103D400000000190006822305021FCF7F4FA01993C
:103D50000A680020A2F872000968A1F8740060E601
:103D600043F21810C2F200000068B0F87200502848
:103D700009DBFFE743F21810C2F2000001680020DF
:103D8000A1F87200FFE743F21810C2F200000168C8
:103D9000B1F87400B1F87210884250DAFFE743F2CC
:103DA0001810C2F2000000900268B2F87430D11806
:103DB00001F123002231B2F87220D21A01F012FE72
:103DC000009808990268B2F874301A4482F82210F8
:103DD000006890F82100C00788B1FFE743F218108F
:103DE000C2F200000068B0F87410084400F122012B
:103DF00047F63A70C0F6000001F0D4FCFFE743F24A
:103E00001810C2F200000068B0F874000590FFE7D7
:103E1000059843F21811C2F200010968B1F8721056
:103E200088420BDAFFE747F62070C0F6000001F089
:103E3000B9FCFFE7059801300590E9E719E008991A
:103E400043F21810C2F200000268B2F872301A444D
:103E500082F82210006890F82100C00740B1FFE707
:103E6000089947F62E70C0F6000001F09BFCFFE7B2
:103E7000FFE70020089043F21810C2F20000026829
:103E8000B2F872100131A2F872100268B2F8741020
:103E90000131A2F874100068B0F8720050280CDBF1
:103EA000FFE743F21811C2F200010A680020A2F8ED
:103EB00072000968A1F87400FFE7B2E580B54EF61C
:103EC0002C50CEF2000000688007002807D5FFE7DD
:103ED00047F6D370C0F6000001F064FCFFE74EF631
:103EE0002C50CEF200000068400000281FD5FFE7EC
:103EF0004EF62950CEF20000007818B1FFE7FFF728
:103F0000F5FBFFE74EF62850CEF20000007818B11E
:103F1000FFE700F043FEFFE74EF62A50CEF2000026
:103F2000008818B1FFE703F05BF8FFE7FFE74EF604
:103F30002C50CEF200000068C00F38B1FFE747F602
:103F4000E870C0F6000001F02DFCFFE780BD000026
:103F500080B547F61230C0F6000001F023FC0020C7
:103F600080BD000080B582B047F61B40C0F600005F
:103F700001F018FC42F2A850C2F200000068019063
:103F8000FFE7019842F2AC51C2F200010968884291
:103F90001AD2FFE70198006847F66661C0F6000193
:103FA0000222FCF70DFA08B9FFE709E00198016861
:103FB000426847F6B750C0F6000001F0F3FBFFE798
:103FC00001980C300190DCE7002002B080BD0000B9
:103FD00080B59AB000200B9047F69B60C0F60000B9
:103FE000099014A804210CAA0823059300F080F876
:103FF00005980A900A99099A47F6A340C0F600006E
:1040000001F0D0FB0A9801F06BF847F6EC30C0F6EF
:10401000000001F0C7FBFFE70B9814A900F08AF835
:104020000B9000200890FFE708981899884256DA0C
:10403000FFE708990CA850F821000C380790FCF70E
:1040400093F819900798007A00F07F009DF85810B7
:10405000884204D0FFE71998FCF78AF83BE01998EA
:10406000FCF786F8079806900698143001F044FC97
:1040700018BBFFE70A98029006980390C169049163
:10408000143001F057FC0299039B844604986A4659
:10409000C2F804C0106047F65160C0F60000082264
:1040A00001F080FB0698143002F006FE47F6D75068
:1040B000C0F6000001F076FB0CE00A99069BD86977
:1040C0006A46106047F60940C0F60000082201F079
:1040D00069FBFFE7FFE7089801300890A4E7FFE7D6
:1040E0000B98002898D1FFE700201AB080BD00008F
:1040F00080B586B005908DF81310039202939DF859
:10410000130001F01DFD019001980430009000980B
:10411000059908609DF813000599087203980599A0
:10412000486002980599C86005990020086106B0AA
:1041300080BD000080B58AB00890079100200690ED
:10414000079908610798C06820B1FFE70798007ACF
:1041500018B9FFE70020099050E007980068039025
:10416000089828B9FFE7039804900120069002E020
:1041700008980490FFE7FBF7F7FF0590069898B9B9
:10418000FFE704980C3800900098007A00F07F0058
:104190000799097A884206D0FFE70598FBF7E8FF00
:1041A000002009902AE0FFE700200190079840686E
:1041B0000290FFE7049800680490049803998842ED
:1041C00003D1FFE7002004900FE001980130019037
:1041D000049802990A1D0292086001980799C9681B
:1041E000884201D1FFE700E0E4E70598FBF7C0FF54
:1041F00001980799086104980990FFE709980AB0A7
:1042000080BD000080B5A0B00020119047F6A760E7
:10421000C0F600000F901AA8052112AA08230B93DC
:10422000FFF766FF0B98109010990F9A47F603500E
:10423000C0F6000001F0B6FA109800F051FF47F602
:10424000B130C0F6000001F0ADFAFFE711981AA9ED
:10425000FFF770FF119000200E90FFE70E981E9957
:1042600088426EDAFFE70E9912A850F821000C3848
:104270000D90FBF779FF1F900D98007A00F07F00FA
:104280009DF87010884204D0FFE71F98FBF770FF7D
:1042900053E01F98FBF76CFF0D980C900C981430AE
:1042A00001F02AFB48BBFFE7109808900C98099092
:1042B000418C0A91018C0791143001F03BFBDDF831
:1042C0001CC00899099B86460A986A46C2F808E00D
:1042D000C2F804C0106047F63B60C0F60000082238
:1042E00001F060FA0C98143002F0E6FC47F6D75063
:1042F000C0F6000001F056FA1EE0109804900C98E9
:104300000590418C0691018C0391143001F012FB51
:10431000DDF80CC00499059B864606986A46C2F8EB
:1043200008E0C2F804C0106047F64E40C0F6000036
:10433000082201F037FAFFE7FFE70E9801300E90F0
:104340008CE7FFE7119800287FF480AFFFE700209B
:1043500020B080BD80B59EB000200F9047F68360EE
:10436000C0F600000D9018A8062110AA0823099392
:10437000FFF7BEFE09980E900E990D9A47F624504D
:10438000C0F6000001F00EFA0E9800F0A9FE47F604
:104390008530C0F6000001F005FAFFE70F9818A974
:1043A000FFF7C8FE0F9000200C90FFE70C981C99B7
:1043B000884262DAFFE70C9910A850F821000C3807
:1043C0000B90FBF7D1FE1D900B98007A00F07F0058
:1043D0009DF86810884204D0FFE71D98FBF7C8FEDF
:1043E00047E01D98FBF7C4FE0B980A900A9814301A
:1043F00001F082FA18BBFFE70E9806900A98079022
:10440000818C0891143001F095FA0699079B844637
:1044100008986A46C2F804C0106047F61A60C0F6F1
:104420000000082201F0BEF90A98143002F044FCA2
:1044300047F6D750C0F6000001F0B4F918E00E9826
:1044400003900A980490818C0591143001F072FA5F
:104450000399049B844605986A46C2F804C010601C
:1044600047F62D40C0F60000082201F09BF9FFE757
:10447000FFE70C9801300C9098E7FFE70F980028B1
:104480007FF48CAFFFE700201EB080BD80B59EB0EA
:1044900000200F9047F6A160C0F600000D9018A80C
:1044A000032110AA08230993FFF722FE09980E9012
:1044B0000E990D9A47F6DF40C0F6000001F072F940
:1044C0000E9800F00DFE47F6CD30C0F6000001F06A
:1044D00069F9FFE70F9818A9FFF72CFE0F9000204D
:1044E0000C90FFE70C981C9988423FDAFFE70C9983
:1044F00010A850F821000C380B90FBF735FE1D90EA
:104500000B98007A00F07F009DF86810884204D074
:10451000FFE71D98FBF72CFE24E01D98FBF728FE13
:104520000B980A900E9807900A980890016A0691D5
:10453000C17F0591143001F0FDF9DDF814C0069A31
:104540000799089B86466846C0F80CE0C0F808C08A
:1045500042600822026047F66440C0F6000001F0A5
:1045600021F9FFE70C9801300C90BBE7FFE70F98AB
:104570000028AFD1FFE700201EB080BD80B582B01B
:1045800001900091019808B9FFE736E000980068B3
:1045900020B9FFE70198009908602EE000980068B4
:1045A000406C28B1FFE700980068406C8047FFE747
:1045B00000980068006C28B1FFE700980068006C64
:1045C0008047FFE700980068406B88B1FFE70098DC
:1045D0000068406BC06B30B1FFE700980068406B2B
:1045E000C06B8047FFE700990868406B086003E0F4
:1045F000019800990860FFE7FFE702B080BD000066
:1046000080B582B042F2B450C2F20000006801905E
:10461000FFE7019858B1FFE7019947F6F120C0F68E
:10462000000001F0BFF80198406B0190F1E702B083
:1046300080BD000080B59EB000200F9047F67960E5
:10464000C0F600000D9018A8022110AA08230993B3
:10465000FFF74EFD09980E900E990D9A47F6C5404A
:10466000C0F6000001F09EF80E9800F039FD47F604
:104670009C30C0F6000001F095F8FFE70F9818A9EC
:10468000FFF758FD0F9000200C90FFE70C981C9945
:10469000884262DAFFE70C9910A850F821000C3824
:1046A0000B90FBF761FD1D900B98007A00F07F00E6
:1046B0009DF86810884204D0FFE71D98FBF758FD6D
:1046C00047E01D98FBF754FD0B980A900A981430A8
:1046D00001F012F918BBFFE70E9806900A980790B0
:1046E000818B0891143001F025F90699079B8446C7
:1046F00008986A46C2F804C0106047F62B60C0F6FE
:104700000000082201F04EF80A98143002F0D4FAA2
:1047100047F6D750C0F6000001F044F818E00E98B4
:1047200003900A980490818B0591143001F002F9EE
:104730000399049B844605986A46C2F804C0106039
:1047400047F63E40C0F60000082201F02BF8FFE7D4
:10475000FFE70C9801300C9098E7FFE70F980028CE
:104760007FF48CAFFFE700201EB080BD82B00190C7
:1047700000910198006818B1FFE7009808B9FFE7B9
:1047800014E001980068406B009948630198006844
:104790000099886300980199096848630098406B04
:1047A00020B1FFE70098416B8863FFE702B07047D4
:1047B00080B586B00490039102920193482002F0E4
:1047C000BBFC0090009818B9FFE70020059014E0AA
:1047D00000984821FBF7AFFD009804993122FBF7C0
:1047E000D3FD03980099C863029800990864019862
:1047F0000099486400980590FFE7059806B080BDD1
:1048000080B590B00F900F9808B9FFE722E00F989D
:10481000806B28B1FFE70F99486B896B4863FFE70E
:104820000F98406B28B1FFE70F98416B806B88634E
:10483000FFE70F990DF10A00009031220192FBF77A
:10484000A3FD0F9802F04AFC0099019A0F98FBF71C
:104850009BFDFFE710B080BD80B5BAB000202B9063
:1048600047F66960C0F600002A9034A801212CAAFE
:1048700008230393FFF73CFC0398299029992A9A6F
:1048800047F67350C0F6000000F08CFF299800F046
:1048900027FC47F62430C0F6000000F083FFFFE756
:1048A0002B9834A9FFF746FC2B9000202890FFE7B7
:1048B00028983899884280F2A580FFE728992CA88B
:1048C00050F821000C382790FBF74EFC39902798C0
:1048D000007A00F07F009DF8D810884204D0FFE7EE
:1048E0003998FBF745FC89E0279907A88022FBF758
:1048F00009FD3998FBF73CFC279806902999069BFF
:1049000093F835006A46106047F6F450C0F6000090
:10491000082200F047FF069890F8340000F00F00DE
:104920008DF817009DF81700012807D1FFE747F61B
:10493000EB50C0F6000000F035FF32E09DF81700A4
:10494000022807D1FFE747F67060C0F6000000F0CC
:1049500029FF25E09DF8170038B9FFE747F6D95041
:10496000C0F6000000F01EFF19E09DF817000428B3
:1049700007D1FFE747F6E250C0F6000000F012FF53
:104980000CE09DF81700032807D1FFE747F68C607D
:10499000C0F6000000F006FFFFE7FFE7FFE7FFE7D4
:1049A000FFE70698806A0490FFE7049800782328C0
:1049B00004D1FFE7049801300490F6E70698C16936
:1049C000836AC26AD0F830E0591A1144DDF810C089
:1049D000A3EB0C0313444FF0640C03FB0CF3B3FB89
:1049E000F2F3806CEC46CCF804E0CCF8000047F61B
:1049F0007B40C0F6000000F0D5FEFFE728980130AC
:104A0000289055E7FFE72B9800287FF449AFFFE790
:104A100000203AB080BD000080B598B00020099019
:104A200047F69560C0F60000079012A80A210AAA6E
:104A300008230393FFF75CFB039808900899079AF3
:104A400047F64D50C0F6000000F0ACFE089800F0AC
:104A500047FB47F66130C0F6000000F0A3FEFFE719
:104A6000099812A9FFF766FB099000200690FFE75E
:104A700006981699884243DAFFE706990AA850F883
:104A800021000C380590FBF76FFB17900598007A12
:104A900000F07F009DF85010884204D0FFE717987F
:104AA000FBF766FB28E01798FBF762FB059804907C
:104AB0000899049B586AD3F828C06A46C2F804C013
:104AC000106047F60060C0F60000082200F06AFEA1
:104AD0000498407AC00738B1FFE747F64250C0F665
:104AE000000000F05FFE06E047F64050C0F6000010
:104AF00000F058FEFFE7FFE7069801300690B7E7A1
:104B0000FFE709980028ABD1FFE701F0E7FB01467A
:104B100047F6C450C0F6000000F044FE002018B074
:104B200080BD000080B584B00020039042F6CC32F6
:104B3000C2F200021368591C116047F20471C0F6FA
:104B400000016A46916047F2E061C0F600015160E1
:104B500047F23671C0F60001116047F24371C0F6AA
:104B6000000147F23B72C0F60002FDF745F94FF431
:104B7000A060FCF7B7FDFBF75DFEFFE74FF47A702E
:104B800001F080FAFAE7000080B582B0019000F0F1
:104B900033FCFFF7C7FF02B080BD000080B582B0D4
:104BA00047F68670C0F6000000F0FCFD4EF6285077
:104BB000CEF200000190017848F25210C0F60000D9
:104BC00000F0F0FD01980078C00738B1FFE748F227
:104BD000EB00C0F6000000F0E5FDFFE74EF62850C0
:104BE000CEF2000000788007002807D5FFE748F2E2
:104BF000E100C0F6000000F0D5FDFFE74EF62850BA
:104C0000CEF2000000780007002807D5FFE748F241
:104C10000F10C0F6000000F0C5FDFFE74EF628506B
:104C2000CEF200000078C006002807D5FFE748F262
:104C30000610C0F6000000F0B5FDFFE74EF6285064
:104C4000CEF200000078000600280CD5FFE74EF6F3
:104C50003450CEF20000016847F6C370C0F6000081
:104C600000F0A0FD06E047F6D750C0F6000000F0C7
:104C700099FDFFE702B080BD80B588B007900020A5
:104C8000059004900798007828B9FFE700210846AE
:104C900000F0FEF85AE042F2A850C2F200000068AC
:104CA0000290FFE7029842F2AC51C2F2000109689B
:104CB000884241D2FFE70298006847F61071C0F6BB
:104CC00000010622FBF77CFB08B1FFE730E0029809
:104CD0000068063003900798019003990091FBF754
:104CE0005FFB009902460198FBF76AFBF8B9FFE702
:104CF000059838B9FFE7039804900498FBF750FB38
:104D00000590FFE70498039902F01CF806900698B6
:104D10000599884203DAFFE706980590FFE70399B3
:104D200047F2DC60C0F6000000F03CFDFFE7FFE763
:104D300002980C300290B5E7049830B1FFE707986D
:104D40000499059A01F072F8FFE7FFE708B080BD0B
:104D500080B588B006900591FFE705990020029084
:104D600091B1FFE70698017801202029019008D031
:104D7000FFE7069800780938B0FA80F04009019002
:104D8000FFE701980290FFE70298C00738B1FFE7FC
:104D9000069801300690059801380590DDE70598E2
:104DA00018B9FFE70020079030E00698059904AA9B
:104DB000FEF77AFA18B9FFE70498079026E00698FC
:104DC0000390FFE70398017800202029009007D086
:104DD000FFE703980078002818BF01200090FFE744
:104DE0000098C00720B1FFE7039801300390E9E77E
:104DF000039900200870069947F6AF60C0F60000DE
:104E000000F0D0FC4FF0FF300790FFE7079808B0A4
:104E100080BD000080B584B0039002910020009016
:104E200042F2A850C2F2000000680190FFE701982A
:104E300042F2AC51C2F200010968884225D2FFE774
:104E40000198006847F61071C0F600010622FBF7D2
:104E5000B7FA08B1FFE714E001980068063003993B
:104E6000029AFBF7ADFA58B9FFE70198016802987A
:104E70000844807920B9FFE701988068009004E039
:104E8000FFE701980C300190D1E7009804B080BD95
:104E900080B584B00390029147F6E560C0F600004B
:104EA00000F080FC42F2A850C2F2000000680190BD
:104EB000FFE7019842F2AC51C2F200010968884252
:104EC0001BD2FFE70198006847F61071C0F6000199
:104ED0000622FBF775FA08B1FFE70AE001990868B6
:104EE0004A68811D47F60070C0F6000000F05AFCC9
:104EF000FFE701980C300190DBE747F6D750C0F68A
:104F0000000000F04FFC002004B080BD012070477D
:104F100080B58AB009900891079209980690002000
:104F200005900490FFE705980899884280F0D480A6
:104F3000FFE7FFE706980078202807D0FFE70698EC
:104F4000017800200929029008D1FFE70599089A05
:104F50000020914238BF01200290FFE70298C0076D
:104F600050B1FFE7069900200870069801300690BE
:104F7000059801300590DDE70498082824D3FFE761
:104F800047F6C760C0F6000000F00CFC002003905C
:104F9000FFE70398049988420FD2FFE70798039927
:104FA00050F8211047F60C70C0F6000000F0FAFB34
:104FB000FFE7039801300390EBE747F6D750C0F6C0
:104FC000000000F0EFFB87E005980899884201D3C4
:104FD000FFE781E00698007822284BD1FFE706988A
:104FE0000130069005980130059006980799049ABB
:104FF00041F82200049801300490FFE706980178F8
:1050000000202229019008D0FFE70599089A002086
:10501000914238BF01200190FFE70198C007C8B155
:10502000FFE7069800785C280DD1FFE706984078E6
:10503000222807D1FFE70698013006900598013035
:105040000590FFE7FFE706980130069005980130CC
:105050000590D3E705980899884201D3FFE73BE024
:1050600006990020087006980130069005980130D6
:10507000059030E006980799049A41F822000498B8
:1050800001300490FFE70698017800202029009065
:105090000FD0FFE70698017800200929009008D07A
:1050A000FFE70599089A0020914238BF012000903F
:1050B000FFE70098C00738B1FFE706980130069077
:1050C000059801300590DEE705980899884201D3DC
:1050D000FFE701E0FFE726E704980AB080BD000083
:1050E00080B582B00190FFE70198411E019138B16F
:1050F000FFE747F61660C0F6000000F053FBF3E749
:1051000002B080BD80B590B0DDF850C0DDF84CC075
:10511000DDF848C00F900E910D920C9313980690F5
:10512000129803901498420647F27461C0F6000189
:1051300047F28560C0F60000002A48BF0846059087
:105140009DF85000C006002805D5FFE7149820F010
:1051500001001490FFE71498C1072020002918BF10
:1051600030208DF82F0000208DF82E009DF8500083
:105170008007002823D5FFE70D98B0F1FF3F07DC3B
:10518000FFE72D208DF82E000D9840420D9015E080
:105190009DF850004007002804D5FFE72B208DF82C
:1051A0002E000AE09DF850000007002804D5FFE714
:1051B00020208DF82E00FFE7FFE7FFE7FFE7002044
:1051C00004900D9840B9FFE7049A501C04900DF12B
:1051D0001E013020885414E0FFE70D9880B1FFE7EE
:1051E000059802900C990DA8FEF708FB014602985D
:1051F000405C049A511C04910DF11E018854ECE7A7
:10520000FFE704981399884203DDFFE704981390A1
:10521000FFE713990398401A03909DF8500010F08F
:10522000110F21D1FFE79DF82E0040B1FFE7039851
:10523000012804DBFFE7039801380390FFE7FFE74D
:105240000398411E039101280DDBFFE70F980E998B
:10525000884204D2FFE70F9920200870FFE70F98DB
:1052600001300F90ECE7FFE79DF82E0088B1FFE7D3
:105270000F980E99884205D2FFE79DF82E000F99EE
:105280000870FFE70398013803900F9801300F90E2
:10529000FFE79DF85000C006002816D4FFE7FFE79F
:1052A0000398411E039101280EDBFFE70F980E992A
:1052B000884205D2FFE79DF82F000F990870FFE79D
:1052C0000F9801300F90EBE7FFE7FFE70498139981
:1052D0004A1E139288420DDAFFE70F980E99884212
:1052E00004D2FFE70F9930200870FFE70F980130D4
:1052F0000F90EBE7FFE70499481E04900020012976
:10530000019006DBFFE70698002818BF01200190F6
:10531000FFE70198C00780B1FFE70F980E99884218
:1053200007D2FFE704990DF11E00405C0F99087049
:10533000FFE70F9801300F90DDE7FFE70398411E6C
:10534000039101280DDBFFE70F980E99884204D2E4
:10535000FFE70F9920200870FFE70F9801300F90AA
:10536000ECE70F9810B080BD80B542F65860C2F2ED
:1053700000000068804780BD80B586B042F6D850F6
:10538000C2F20000059005986A461421D1600A21F6
:1053900091604FF40071516042F6D831C2F20001C1
:1053A000116048F27E11C0F6000144F68932C0F661
:1053B0000002002300F03AFE0490059800F0C4FEBD
:1053C00006B080BD80B582B048F21020C0F6000063
:1053D0000190FFE7019848F21421C0F600018842CD
:1053E00008D2FFE7019800688047FFE70198043082
:1053F0000190EFE702B080BD80B582B048F2142082
:10540000C0F600000190FFE7019848F22021C0F6A5
:105410000001884208D2FFE7019800688047FFE753
:10542000019804300190EFE702B080BD80B582B0F2
:10543000FAF79AFE019042F67471C2F200010888F0
:10544000013008800198FAF793FE02B080BD000099
:1054500080B582B0FAF788FE019042F67470C2F20D
:105460000000018801390180B0F90000002814DC37
:10547000FFE742F67471C2F2000100200880019833
:10548000FAF776FE42F66060C2F20000006818B1DA
:10549000FFE700F0D1FBFFE703E00198FAF768FEB1
:1054A000FFE702B080BD000080B5092001F0F4FCE8
:1054B00040F21C60C2F20000006844F6D351C1F211
:1054C0006201A0FB01108009FCF78CFFFFF77AFF57
:1054D00080BD000080B582B04FF0FF300190FCF736
:1054E0002BFB20B1FFE7FCF70FFB0190FFE79DF8D6
:1054F000040002B080BD000080B586B00590002099
:105500000190049003900D208DF80B00059800F099
:1055100079FC0146019803910490FFE704980399F0
:10552000884219D2FFE705980499405C0A2807D100
:10553000FFE700200DF10B010122FCF7DDFBFFE787
:1055400005980499014400200122FCF7D5FBFFE7F0
:10555000049801300490E1E706B080BD80B584B0C6
:10556000039003980430029042F66460C2F2000097
:10557000006870B1FFE742F66460C2F200000168A3
:10558000039888470190019810B9FFE704B080BDE7
:10559000FFE70298C16B48F2B800C0F6000000F0C7
:1055A00001F90298016A47F6F570C0F6000000F0B4
:1055B000F9F80298416A48F20F00C0F6000000F0C6
:1055C000F1F80298816A48F22900C0F6000000F064
:1055D000E9F80298C16A48F24300C0F6000000F002
:1055E000E1F80298016848F25000C0F6000000F0AF
:1055F000D9F80298416848F25D00C0F6000000F05A
:10560000D1F80298816848F26A00C0F6000000F004
:10561000C9F80298C16848F27700C0F6000000F0AF
:10562000C1F80298016948F28400C0F6000000F059
:10563000B9F80298416948F29100C0F6000000F004
:10564000B1F80298816948F20200C0F6000000F04B
:10565000A9F80298C16948F21C00C0F6000000F0E9
:10566000A1F80298016B48F23600C0F6000000F085
:1056700099F80298416B48F2AB00C0F6000000F0C8
:1056800091F80298816B48F29E00C0F6000000F08D
:1056900089F803980078400700280CD5FFE700F050
:1056A00023FD014647F65C70C0F6000000F07AF872
:1056B000FFF7D2F806E047F64270C0F6000000F0AF
:1056C00071F8FFE7FEF7FAFBFFE7FEE787B0069009
:1056D000059104920393049804300190019820F0FE
:1056E0000700019001984038019001980290002035
:1056F0000090FFE700980F280DD8FFE70299009A65
:105700004BF6EF60CDF6AD6041F82200FFE7009860
:1057100001300090EEE70598029908620299002096
:105720004862029988620299C862029908630398E4
:105730000299486306980299886302994FF0807035
:10574000C863019807B0704780B582B0FAF70CFDC6
:10575000019042F66C61C2F20001087801300870D5
:105760000198FAF705FD02B080BD000080B582B057
:10577000FAF7FAFC019042F66C61C2F20001087877
:10578000013808700198FAF7F3FC02B080BD000000
:1057900080B582B001900198143000F029F8002003
:1057A00002B080BD83B080B583B0079306920591A7
:1057B000029005A80190029A019B42F67460C2F221
:1057C0000000FF2100F056FF00900098B0F5807FA8
:1057D00003D3FFE7FF200090FFE742F67460C2F2B8
:1057E0000000FFF789FE03B0BDE8804003B07047BA
:1057F00081B00090009840600099086001B0704747
:1058000081B00090009840600099086001B0704736
:1058100081B00090009840600099086001B0704726
:1058200081B00090009840600099086001B0704716
:1058300082B0019000910098019909684860019830
:105840000068009908600098019908600198009923
:10585000486002B07047000082B00190009100984B
:1058600001990968486001980068009908600098EB
:105870000199086001980099486002B070470000E3
:1058800082B00190009100980199096848600198E0
:1058900000680099086000980199086001980099D3
:1058A000486002B07047000082B0019000910098FB
:1058B000019949680860019840680099486000981B
:1058C0000199486001980099086002B07047000093
:1058D00082B0019000910098019949680860019890
:1058E00040680099486000980199486001980099C3
:1058F000086002B07047000081B00090009908680D
:10590000401AB0FA80F0400901B0704781B00090B1
:1059100000990868401AB0FA80F0400901B0704759
:1059200081B0009000990868401AB0FA80F04009F0
:1059300001B0704783B0029000200190029800905F
:10594000FFE7009800680299884207D0FFE70098B7
:1059500000680090019801300190F2E7019803B0CF
:105960007047000081B0009000980168406848606E
:1059700000990868496808600098406000990860CC
:1059800001B0704781B0009000980168406848609D
:1059900000990868496808600098406000990860AC
:1059A00001B0704781B0009000980168406848607D
:1059B000009908684968086000984060009908608C
:1059C00001B0704781B0009000980168406848605D
:1059D000009908684968086000984060009908606C
:1059E00001B0704785B00490039102920498019031
:1059F0000398009000980199884221D2FFE701980E
:105A00000099029A114488421AD2FFE7029901983C
:105A1000084401900299009808440090FFE702981A
:105A2000411E029158B1FFE70098411E009110F805
:105A3000010C01994A1E019201F8010CEFE70FE0F9
:105A4000FFE70298411E029148B1FFE70098411C10
:105A50000091007801994A1C01920870F1E7FFE774
:105A6000049805B07047000088B007900691059231
:105A7000079803909DF818000090059804283DD3DE
:105A8000FFE79DF81C008007C0BBFFE70798019067
:105A9000009840EA00200290029840EA00400290FC
:105AA000FFE70598102818D3FFE7029801990A1D0F
:105AB00001920860029801990A1D019208600298FB
:105AC00001990A1D01920860029801990A1D01922C
:105AD0000860059810380590E3E7FFE7059804286B
