:020000040800F2
:1000000060410020450100082D1E00080D02000877
:10001000DD170008CD1100080D34000800000000B5
:10002000000000000000000000000000D92A0008C5
:100030004914000800000000970100088D2C0008FA
:100040005F0100085F0100085F0100085F01000810
:100050005F0100085F0100085F0100085F01000800
:100060005F0100085F0100085F0100085F010008F0
:100070005F0100085F0100085F0100085F010008E0
:100080005F0100085F0100085F0100085F010008D0
:100090005F0100085F0100085F0100085F010008C0
:1000A0005F010008052D00085F0100085F010008DE
:1000B0002D2D0008512D0008792D00085F01000842
:1000C0005F0100085F0100085F0100085F01000890
:1000D0005F010008252F0008A12F0008213000082B
:1000E0005F0100085F0100085F0100085F01000870
:1000F0005F0100085F0100085F0100085F01000860
:100100005F0100085F0100085F0100085F0100084F
:10011000152E0008952E00085F0100085F010008F9
:100120005F0100085F0100085F0100085F0100082F
:10013000DFF80CD000F0C6FC004800478D0B00082B
:10014000604100200648804706480047FEE7FEE77A
:10015000FEE7FEE7FEE7FEE7FEE7FEE7FEE7FEE777
:100160009D2C000831010008EFF3108072B6704733
:1001700080F310887047324A1368012B04D04FF087
:10018000010313602F4A10602F4A11602F484FF06F
:10019000805101607047EFF3108272B62848016801
:1001A00091B14FF0000101602648016829B1EFF3D9
:1001B000098121E9F00F0068016023490968096895
:1001C000B1E8F00F81F3098882F310884EF0040E35
:1001D00070471D4908601B494FF00000086018492E
:1001E0004FF0010008601A481A49D0F8002041EA8F
:1001F0000201016015484FF0805101601648006807
:10020000006880F3088861B662B670471EF0040F7C
:100210000CBFEFF30880EFF3098020E9F00F40F8FE
:1002200004ED1EF0040F0CBF80F3088880F30988EA
:1002300000B508F0E5FF5DF804EB4EF0040E7047E2
:10024000C83400202C3200203432002004ED00E0BD
:1002500020ED00E00000FFFF08ED00E038B5D0E938
:100260000221491E01EB410102EBC1014268C1EBD1
:10027000011102EB81010268C1EB011102EB810265
:10028000D0E9043101EB410103EB81013023A1F5F9
:10029000527191FBF3F4174D6C4302EBC41291FBC6
:1002A000F3F403FB141100921A2902DB124B1A44D7
:1002B00000920C2291FBF2F3104C6343009C04EB80
:1002C000C313009391FBF2F302FB13110C4A08E0F5
:1002D000491E40F2A324535C6343009C04EBC31308
:1002E00000930029F4DC0146684600F059F90098B3
:1002F00038BD00003F0C0F008051010067C20300B1
:100300005CC0000840EA01039B0703D009E008C96C
:10031000121F08C0042AFAD203E011F8013B00F8CA
:10032000013B521EF9D27047D2B201E000F8012B16
:10033000491EFBD270470022F6E710B513460A4665
:1003400004461946FFF7F0FF204610BD421E12F882
:10035000013F002BFBD111F8013B02F8013B002BC0
:10036000F9D1704730B505462A460B4612F8010B05
:1003700013F8014B08B1A042F8D01CB1002802D0FC
:100380006D1CF1E7284630BD10B5044604E00B783B
:1003900000F8013B03B1491C521EF8D2204610BDA3
:1003A000421C10F8011B0029FBD1801A704710B5C0
:1003B000002200E0521C835C8C5CA34201D1002B24
:1003C000F8D1D8B2E1B2401A10BD034611F8012BA2
:1003D00000F8012B002AF9D11846704730B50546C0
:1003E0000020034600E05B1C934205D2EC5CC85C35
:1003F000201A01D1002CF6D130BD80EA010210B5DF
:1004000002F00043400022D04A001FD0010E01EB51
:100410001261C0F35600C2F3560240F4000042F4E9
:100420000002A0FB022000047F39140400D0401C0D
:1004300050EA124001D44000491EC2B20C0604EB3F
:10044000D010401C4008802A02D003E0002010BDDC
:1004500020F00100002900DA0020184310BD002818
:1004600001DBC0F10040002901DBC1F10041814204
:1004700001D3012070470020704700F0004220F0B7
:100480000040C10DC0F3160040F400007F2901DADE
:1004900000207047962903DCC1F19601C84001E0B5
:1004A00096398840002AF4D04042704701F000435A
:1004B00030B421F0004150EA010206D00A0DA2F545
:1004C0006072C1F31301002A02DC30BC00207047C7
:1004D000440F44EAC104C100E01830BC00EBC25034
:1004E00000F0A4B830B50B460146002020220124BC
:1004F00009E021FA02F59D4205D303FA02F5491BF2
:1005000004FA02F52844151EA2F10102F1DC30BD07
:100510002DE9F05F0546002092469B468846064638
:10052000814640241BE0284641464746224600F0CB
:1005300020F853465A46C01A914110D31146184626
:10054000224600F0D7FA2D1A67EB01084F462246E3
:100550000120002100F0CEFA17EB00094E41201EC9
:10056000A4F10104DFDC484631462A464346BDE893
:10057000F09F202A04DB203A21FA02F00021704784
:1005800021FA02F3D040C2F12002914008431946FB
:1005900070470000014900F003B80000F00300209C
:1005A00010B500683C22B0FBF2F302FB1303B0FB72
:1005B000F2F00B60B0FBF2F302FB1303B0FBF2F0BE
:1005C00018224B60B0FBF2F302FB1303B0FBF2F016
:1005D000021D8B600723B2FBF3F403FB142280009F
:1005E00040F2B55300F66C308A61B0FBF3F2B0FB19
:1005F000F3F403FB1400443280084A61C8613B28CD
:1006000002D3920700D0401C0022074C13460A6117
:10061000E25C824203D8801A5B1C0B61F8E7401C45
:10062000C860084610BD000068C000080029A8BFC7
:100630007047401C490008BF20F00100704710B40B
:10064000B0FA80FC00FA0CF050EA010404BF10BCC0
:10065000704749B1CCF1200421FA04F411FA0CF1ED
:1006600018BF012121430843A3EB0C01CB1D4FEA26
:1006700000614FEA102042BF002010BC704700EB21
:10068000C35010440029A4BF10BC7047401C49004F
:1006900008BF20F0010010BC704710B5141E73F1A4
:1006A000000408DA401C41F1000192185B411A4332
:1006B00001D120F0010010BD2DE9F04D92469B467E
:1006C00011B1B1FA81F202E0B0FA80F22032904624
:1006D00000F010FA04460F4640EA0A0041EA0B0116
:1006E00053465A46084313D0114653EA010019D025
:1006F000C8F140025046FFF73CFF05460E46504603
:100700005946424600F0F6F9084305D0012004E0BE
:1007100020463946BDE8F08D0020054346EAE076E4
:100720002C4337430A986305E40AA0EB0800002233
:10073000FD0A44EA47540A3002D500200146E9E7A1
:10074000010510196941DDE9084500196941BDE855
:10075000F04DA2E72DE9FE4F804681EA0300C00F6D
:100760000C46009021F0004123F00045B8EB020058
:10077000A94105D24046214690461C460B460246FA
:1007800023F00040104347D0270DC7F30A00C3F3FE
:100790000A510290401A019040286BDAC3F313000B
:1007A00040F4801B0098924620B10023D2EB030A4C
:1007B00063EB0B0B01985946C0F14002504600F024
:1007C00099F906460D4650465946019A00F0A1F99E
:1007D00010EB08006141002487EA115284EAE773B4
:1007E0001A4340D0009A62B3019A012A4FEA075295
:1007F00015DC001B61EB02014FF0004202EA0752D8
:10080000CDE90042001C41F5801132462B46FFF72E
:1008100053FF03B0BDE8F08F40462146F9E7001BC7
:1008200061EB0201001C41F5801300185B412018A8
:10083000A2F5001747EB030140EAD570B6196D41E8
:1008400011E06D084FEA360645EAC0754FEA0752D7
:10085000001B61EB0201001C41F5801149084FEAC1
:1008600030000019514132462B4603B0BDE8F04F2D
:10087000FFF713BF0098012240000023D0EB0202D3
:1008800063EBE073009821464FEAE074B8EB000098
:1008900061EB0401E9E783F000435BE781F000418D
:1008A00058E72DE9FE4F81EA030404F0004421F0EB
:1008B000004100944FF0000B23F0004350EA010484
:1008C0005ED052EA03045BD0C3F30A54C1F30A5565
:1008D0002C44A4F2F3340194A0FB0254C1F313019D
:1008E00041F48011C3F3130343F4801301FB02446A
:1008F00000FB034E840A970A44EA815447EA83576F
:10090000A4FB076802958D0A05FB07854FEA932C27
:1009100004FB0C542705029D4FEA065847EA163798
:10092000B5EB08056EEB070C870E920E47EA8117B0
:1009300042EA8312A7FB0201B6EB0B0164EB000451
:100940002B0D43EA0C335E1844EB1C50DA4651463B
:10095000E7FB0201C5F313044FEA0B3343EA1453D8
:100960004FEA0432019C43EA0603A4F10C0402940A
:10097000009CCDE900B4FFF79FFE03B0BDE8F08F07
:1009800000200146F9E72DE9F04D81EA030404F067
:10099000004B21F0004514464FF0000A23F00041BF
:1009A00050EA050220D054EA01021DD0C5F30A57CF
:1009B0000246C5F31303C1F31300C1F30A5640F412
:1009C000801543F48013A7EB0608101BD64608F2E7
:1009D000FD3873EB050002D308F1010801E092181D
:1009E0005B41B8F1000F03DA00200146BDE8F08D4D
:1009F00000204FF48011064684460EE0171B73EB6F
:100A0000050705D3121B63EB050306434CEA010CF3
:100A100049084FEA300092185B4150EA0107EDD1D6
:100A200052EA030012D082EA040083EA0501084377
:100A300005D0101BAB4106D20122002306E00022A4
:100A40004FF0004302E06FF0010253101AEB060072
:100A50004CEB085110EB0A0041EB0B01BDE8F04DE7
:100A6000FFF71BBEC1F30A52C1F3130140F2FF337B
:100A700041F480119A4202DA00200146704740F2A8
:100A800033439A42A2F2334202DC5242FFF771BD75
:100A900000F030B830B5041E71F1000404DB4FF0F3
:100AA0000044404264EB0101141E73F1000405DBB5
:100AB0001C464FF00043524263EB0403994208BFC7
:100AC000904230BD1CB50948009009480190054688
:100AD000009C06E0E06840F0010394E807009847B6
:100AE0001034AC42F6D3FFF727FB0000DCE400082B
:100AF000FCE40008202A04DB203A00FA02F100207E
:100B000070479140C2F1200320FA03F3194390404B
:100B10007047202A06DBCB17203A41FA02F043EA5D
:100B2000E07306E041FA02F3D040C2F120029140A6
:100B300008431946704770B58C1810F8015B15F022
:100B4000070301D110F8013B2A1106D110F8012B3F
:100B500003E010F8016B01F8016B5B1EF9D12B0764
:100B600005D40023521E0DD401F8013BFAE710F81A
:100B7000013BCB1A921C03E013F8015B01F8015B07
:100B8000521EF9D5A142D8D3002070BD80B509F01E
:100B9000BDFE002080BD000010B5D2B0DDF854C10C
:100BA000DDF850C150904F91ADF83A214D935098D7
:100BB00030B1FFE7559818B1FFE74F9808BBFFE742
:100BC00042F68471C2F200010B68581C08604CF6B2
:100BD000D910C0F60000694648604CF6D410C0F643
:100BE000000008604CF65C31C0F600014CF6DE12E5
:100BF000C0F60002002001F011FD01208DF8470130
:100C0000C2E05098406908BBFFE742F68471C2F227
:100C100000010B68581C08604CF6D910C0F60000A3
:100C2000694648604CF6D410C0F6000008604CF6E7
:100C30000931C0F600014CF6DE12C0F600020020B9
:100C400001F0ECFC04208DF847019DE056A80C90C3
:100C5000559A0C9B0DA84FF480710AF0E9FC4FF0F7
:100C6000FF300B905498002807D4FFE754981F28B2
:100C700003DCFFE754980B903BE000200A90FFE76D
:100C80000A981F280FDCFFE7509840690A9909016C
:100C9000405818B9FFE70A980B9004E0FFE70A985C
:100CA00001300A90ECE70B98013008BBFFE754983D
:100CB000B0F1FF3F1CDCFFE700200990FFE7099837
:100CC0001F2814DCFFE709981F2808D0FFE7509879
:100CD0004069099900EB0110006918B9FFE709980C
:100CE0000B9004E0FFE7099801300990E7E7FFE780
:100CF000FFE70B98013020B9FFE705208DF8470189
:100D000042E00DA8FFF74CFB0130089008980AF06C
:100D1000D7FC0790079820B9FFE707208DF8470117
:100D200032E00798089A0DA9FFF72EFB509840690A
:100D30000B990901405840B1FFE7509840690B9961
:100D4000090140580AF08EFCFFE75098D0F814E0F3
:100D50000B980EEB00110401079803904F98049034
:100D6000BDF83A01ADF814004D980690DDF80CC0BE
:100D70000498059A069B4EF804C0CB608A604860D0
:100D800000208DF84701FFE79DF8470152B010BDE4
:100D900080B586B00590059848B1FFE70598806852
:100DA00028B1FFE705988068007808B9FFE755E0AB
:100DB0000598816800200870ADF81200FFE7BDF8C3
:100DC000121000201F2902900BDCFFE705988069B4
:100DD000BDF8121050F83100002818BF0120029011
:100DE000FFE70298C007A8B3FFE70599486889693B
:100DF000BDF8122051F83210FFF7B4FA03900398AF
:100E000008B3FFE705988069BDF8121000EBC10038
:100E1000406848B1FFE705988069BDF8121000EB03
:100E2000C10040688047FFE70398019005988069FA
:100E3000BDF8121050F83100FFF7B2FA01460198E0
:100E4000FFF779FA0AE0FFE7BDF812000130ADF8CC
:100E50001200B4E7059906200870FFE706B080BDD0
:100E600080B582B0019040F23840C2F200000078B4
:100E700020280ADBFFE740F23841C2F200010020DF
:100E8000087001990520087047E00198406940F218
:100E90003841C2F2000109780901405850B9FFE712
:100EA00040F23841C2F2000100200870019905208B
:100EB000087032E00198416940F23842C2F2000203
:100EC000127801EB0213120189585A681B8900F04D
:100ED0002FF800BBFFE70198406940F23841C2F2A9
:100EE0000001097800EB0110C06860B1FFE70198CC
:100EF000406940F23841C2F20001097800EB01106C
:100F0000C0688047FFE740F23841C2F2000108782C
:100F100001300870FFE7FFE7FFE702B080BD000087
:100F200081B0009000990520087001B07047000062
:100F300080B58AB0089007910692ADF816300898EF
:100F400018B1FFE7079820B9FFE701208DF82700C7
:100F500081E00898C06820B9FFE702208DF82700DB
:100F600079E00798FFF71CFAADF814000020ADF8FF
:100F70001200FFE7BDF81200BDF81410884218DA1D
:100F8000FFE70898C0680799BDF81220895C02F055
:100F900031FAFFE70898C068402102F0B1F808B9BB
:100FA000FFE7F7E7FFE7BDF812000130ADF81200E8
:100FB000E0E7069820B9FFE700208DF827004AE017
:100FC00005208DF81100FFE79DF81100411E8DF8F6
:100FD0001110012816DBFFE7089840680699FFF713
:100FE000C1F950B1FFE7089840684FF48061FFF7FE
:100FF000A2F900208DF827002DE0BDF8160008F0BA
:1010000093FEE1E742F68471C2F200010B68581CBE
:10101000086006984CF6D912C0F6000269468A604C
:1010200048604CF6D410C0F6000008604CF62F3132
:10103000C0F600014CF6DE12C0F60002002001F0FE
:10104000EDFA089840684FF48061FFF774F90320C7
:101050008DF82700FFE79DF827000AB080BD00004B
:1010600080B582B00190FFE740F21C40C2F2000060
:1010700000F036F80A2008F057FEF5E780B586B094
:1010800069466420C8600A2088604FF48050486038
:1010900041F2F850C2F20000086041F27850C2F20A
:1010A00000004CF69241C0F6000141F26102C0F628
:1010B0000002002308F00CFE0490049848B9FFE7F2
:1010C00041F27850C2F2000008F090FE0020059036
:1010D00003E04FF0FF300590FFE7059806B080BDB4
:1010E00080B582B00190019808B9FFE737E0019818
:1010F000007801460091072830D80099DFE801F018
:10110000040E1B2E2E22262A40F2BC30C2F2000012
:1011100000F0AAFC01990120087020E0019840F23B
:10112000BC31C2F2000100231A4603F045FB0199CD
:101130000220087013E00198FFF792FE0199052044
:1011400008700CE00198FFF723FE08E00198FFF714
:10115000E7FE04E001990520087000E0FFE702B017
:1011600080BD000080B5012000F024FF002000F0C9
:1011700021FF80BD82B0ADF806000020009046F649
:101180000040C4F200000090BDF80610009808442A
:1011900000900098008802B07047000082B0ADF85F
:1011A0000600ADF804100020009046F60040C4F29E
:1011B00000000090BDF80610009808440090BDF8AB
:1011C00004000099086002B070470000FFE7FEE7E6
:1011D00082B001908DF803109DF8030030B1FFE755
:1011E0000199086840F00100086006E0019908686C
:1011F0004FF6FE7210400860FFE702B07047000033
:1012000081B00090009908684FF6FE7210400860A7
:101210000099002008600099486000998860009952
:10122000C86000980821C4F20201884208D1FFE793
:101230000421C4F20201086840F00F000860B9E020
:1012400000981C21C4F20201884208D1FFE7042162
:10125000C4F20201086840F0F0000860A9E00098BC
:101260003021C4F20201884208D1FFE70421C4F210
:101270000201086840F47060086099E00098442119
:10128000C4F20201884208D1FFE70421C4F202013E
:10129000086840F47040086089E000985821C4F262
:1012A0000201884208D1FFE70421C4F20201086864
:1012B00040F47020086079E000986C21C4F20201CB
:1012C000884208D1FFE70421C4F20201086840F413
:1012D0007000086069E000988021C4F20201884231
:1012E00008D1FFE70421C4F20201086840F07060F1
:1012F000086059E0009840F20841C4F202018842B7
:1013000009D1FFE740F20441C4F20201086840F04D
:101310000F00086047E0009840F21C41C4F202014F
:10132000884209D1FFE740F20441C4F20201086893
:1013300040F0F000086035E0009840F23041C4F21F
:101340000201884209D1FFE740F20441C4F20201E0
:10135000086840F47060086023E0009840F244415F
:10136000C4F20201884209D1FFE740F20441C4F20D
:101370000201086840F47040086011E0009840F2F3
:101380005841C4F20201884209D1FFE740F204410A
:10139000C4F20201086840F470200860FFE7FFE72C
:1013A000FFE7FFE7FFE7FFE7FFE7FFE7FFE7FFE70D
:1013B000FFE7FFE701B0704781B0009000984068F8
:1013C00080B201B07047000080B583B002900191F7
:1013D00000200090029800680090009847F6F07195
:1013E000884300900199D1F820E08868D1F810C0B6
:1013F0004B698A6940EA0E0040EA0C00184310432A
:10140000CA6910434A6A1043896A01430098084335
:1014100000900098029908600198C068029948609D
:101420000198006802998860019840680299C86034
:1014300003B080BD82B00190ADF80210BDF802008B
:101440000199486002B070477047000080B584B0D1
:10145000039004208DF80B004FF4302000F0CAF800
:101460008DF80B009DF80B00042820D1FFE742F215
:101470001001C4F202010191086840F00200086006
:10148000039842F21402C4F202021060086840F0AD
:10149000400008604FF4302000F0ACF801998DF85E
:1014A0000B00086841F6FD7210400860FFE79DF8E8
:1014B0000B0004B080BD000081B004208DF8030053
:1014C00042F20C00C4F202000068C00720B1FFE73E
:1014D00001208DF803001FE042F20C00C4F202006C
:1014E00000684007002804D5FFE702208DF80300BC
:1014F00011E042F20C00C4F202000068C0060028AD
:1015000004D5FFE703208DF8030003E004208DF8E5
:101510000300FFE7FFE7FFE79DF8030001B0704716
:1015200042F21001C4F20201086840F08000086035
:101530007047000080B584B00390029104208DF8BC
:101540000700002000904FF4005000F053F88DF891
:1015500007009DF80700042838D1FFE742F2100188
:10156000C4F20201086840F0010008600298039983
:1015700008804FF4005000F03DF88DF807009DF80A
:101580000700042817D1FFE7039802300090BDF848
:101590000A00009908804FF4005000F02BF88DF8F5
:1015A000070042F21001C4F20201086841F6FE721F
:1015B0001040086009E042F21001C4F2020108681C
:1015C00041F6FE7210400860FFE7FFE79DF8070054
:1015D00004B080BD42F20401C4F2020140F22310C3
:1015E000C4F26750086048F6AB10CCF6EF500860C4
:1015F0007047000080B584B0039004208DF80B0084
:10160000FFF75AFF8DF80B00FFE79DF80B10002045
:101610000129019006D1FFE70398002818BF012097
:101620000190FFE70198C00740B1FFE7FFF744FFD3
:101630008DF80B00039801380390E6E7039820B972
:10164000FFE705208DF80B00FFE79DF80B0004B0C5
:1016500080BD000088B0079006910020059004909E
:1016600003900290019000900698C07800F00F005F
:1016700005900698C078C006002806D5FFE70698B2
:101680008178059808430590FFE7069800780028C0
:101690004BD0FFE707980068019000200390FFE718
:1016A000039807283DD8FFE703990120884002905E
:1016B000069800880299084004900498029988428C
:1016C0002AD1FFE703988000029002990F208840FA
:1016D000009000990198884301900598029900FABA
:1016E00001F10198084301900698C078282806D196
:1016F000FFE7039901208840079948610BE00698AD
:10170000C078482806D1FFE703990120884007994F
:101710000861FFE7FFE7FFE7FFE703980130039069
:10172000BEE7019807990860FFE706980088B0F5C2
:10173000807F50DBFFE7079840680190002003900E
:10174000FFE70398072842D8FFE7039800F1080154
:101750000120884002900698008802990840049071
:101760000498029988422DD1FFE7039880000290E7
:1017700002990F20884000900099019888430190B9
:101780000598029900FA01F1019808430190069822
:10179000C078282808D1FFE7039800F1080101204C
:1017A000884007994861FFE70698C078482808D123
:1017B000FFE7039800F108010120884007990861BC
:1017C000FFE7FFE7FFE7039801300390B9E70198CF
:1017D00007994860FFE708B070470000FFE7FEE7A1
:1017E00080B586B00590ADF812108DF811200598DF
:1017F00040F60001C4F20101884205D1FFE7042050
:10180000012100F0BBFB55E0059840F60041C4F211
:101810000101884205D1FFE70820012100F0AEFB5D
:1018200047E0059841F20001C4F20101884205D168
:10183000FFE71020012100F0A1FB39E0059841F2FB
:101840000041C4F20101884205D1FFE720200121B7
:1018500000F094FB2BE0059841F60001C4F2010171
:10186000884205D1FFE74020012100F087FB1DE001
:1018700042F67C71C2F200010B68581C08604CF6FD
:10188000D910C0F60000694648604CF60B20C0F63F
:10189000000008604CF6E611C0F600014CF610227C
:1018A000C0F60002002000F0B9FE13E0FFE7FFE7FA
:1018B000FFE7FFE7BDF81200ADF80C009DF811003E
:1018C0008DF80F0003208DF80E00059803A9FFF78F
:1018D000C1FEFFE706B080BD80B582B04FF08050FA
:1018E0000121019100F02EFB01994FF0006000F002
:1018F00029FB019800F0FEFA0420FFF73BFC4AF2B6
:10190000B551884226D0FFE7FFF72CFC012000F0FC
:1019100059FCFFE7612000F013FC012801D0FFE72C
:10192000F8E74FF4007000F065FC012000F056FC71
:1019300000F0D0FC00F0C2FC49F63F4000F0A6FCED
:1019400000F0BCFC00F06EF804204AF2B551FFF73D
:1019500025FC16E0012000F035FCFFE7612000F0D7
:10196000EFFB012801D0FFE7F8E74FF4007000F02B
:1019700041FC012000F032FC00F0ACFC00F09EFCC9
:10198000FFE7012002B080BD10B58CB000F052FC22
:1019900000F5E1400B900BA8FEF7FCFD8446DCF857
:1019A0000000DCF80410DCF80820DCF80C30DCF86F
:1019B00010E0DCF814400594CDF810E00393029297
:1019C00001910090DCF81800DCF81C10DCF82020F5
:1019D000DCF82430DCF828C0CDF828C00993089240
:1019E00007910690059800F26C7040F20C31C2F23B
:1019F000000108800498013048800398888002988C
:101A0000C88001980881009848816846FEF726FC46
:101A10000B900B9840F21C31C2F2000108600CB030
:101A200010BD000080B58CB040F20C30C2F2000056
:101A30000188A1F26C710591418801390491818876
:101A40000391C18802910189019140890090684603
:101A5000FEF704FCA0F5E1400B900B9800F000FCB1
:101A600000F02CFC0CB080BD80B5A8B02790002001
:101A70001490ADF84E002798006843F60001C4F2B8
:101A80000101884245D1FFE74FF48070ADF84E0068
:101A90004FF480400121129100F070FA129908462B
:101AA00000F034FA40F60000C4F2010010904FF448
:101AB00000711822FFF794FE10984FF48061042201
:101AC000FFF78EFE129825218DF8841000218DF8E5
:101AD00085108DF886108DF8870021A800F0A8F9F0
:101AE000129A43F60000C4F20100119040F2244122
:101AF00001F080FB1198129A5821C4F2020115914D
:101B000043F60401C4F201011491402101F0DEFA10
:101B100052E12798006844F20041C4F20001884273
:101B200044D1FFE74FF48070ADF84E004FF4003021
:101B300001210F9100F006FA0F99084600F0E6F92E
:101B400040F60000C4F201000C9004210D9118220F
:101B5000FFF746FE0C980D9A0821FFF741FE0F98FB
:101B600026218DF8841000218DF885108DF88610BF
:101B70008DF8870021A800F05BF90F9A44F200402D
:101B8000C4F200000E9040F2244101F033FB0E98A5
:101B90000F9A6C21C4F20201159144F20441C4F27F
:101BA00000011491402101F091FA04E127980068A6
:101BB00044F60001C4F20001884245D1FFE74FF42A
:101BC0008070ADF84E004FF4802001210B9100F0A1
:101BD000B9F90B99084600F099F940F60040C4F2B3
:101BE000010009904FF480611822FFF7F9FD099870
:101BF0004FF400610422FFF7F3FD0B9827218DF8C5
:101C0000841000218DF885108DF886108DF88700DE
:101C100021A800F00DF90B9A44F60000C4F2000070
:101C20000A9040F2244101F0E5FA0A980B9A30211B
:101C3000C4F20201159144F60401C4F200011491AA
:101C4000402101F043FAB5E02798006844F60041CE
:101C5000C4F20001884246D1FFE74FF48070ADF82E
:101C60004E004FF400200121089100F06BF9089913
:101C7000022000F04BF941F20000C4F2010006908E
:101C80004FF480611822FFF7ABFD06984FF4006116
:101C90000422FFF7A5FD089834218DF88410002157
:101CA0008DF885108DF886108DF8870021A800F03A
:101CB000BFF8089A44F60040C4F20000079040F2D2
:101CC000244101F097FA0798089A40F23041C4F293
:101CD0000201159144F60441C4F20001149140211F
:101CE00001F0F4F965E02798006845F20001C4F2BC
:101CF000000188423ED1FFE74FF48070ADF84E00FE
:101D00004FF480100121059100F01CF90599022083
:101D100000F0FCF841F20000C4F201004FF48051E1
:101D20001822FFF75DFD41F20040C4F201000422D9
:101D30001146FFF755FD059835218DF884100021D7
:101D40008DF885108DF886108DF8870021A800F099
:101D50006FF8059A45F20000C4F20000049040F2CA
:101D6000244101F047FA0498059A40F2255101F008
:101D700041FA1DE042F67871C2F200010B68581C6E
:101D800008604CF6D910C0F60000694648604CF671
:101D9000D410C0F6000008604CF6BB11C0F600017C
:101DA0004CF6DE12C0F60002002000F037FC3BE0EB
:101DB000FFE7FFE7FFE7FFE7279840682290002052
:101DC0000390ADF88C00ADF88E00ADF89000ADF842
:101DD00094000C20ADF892002798006822A901F029
:101DE00053FA27980068012101F05AF91598FFF776
:101DF00007FA03982799C968023117911890BDF81E
:101E00004E10023919911A9080211B911C901D903F
:101E10001E904FF400511F91209014981690159821
:101E200016A9FFF7D1FAFFE728B080BD7047000080
:101E300084B003900020029001900F20009003983E
:101E4000C078B8B3FFE74EF60C50CEF20000006841
:101E5000C043C0F3022002900298C0F10400019038
:101E600000980299C84000900398407801998840F2
:101E700002900398807800990140029808430290EC
:101E80000298000102900298039909784EF20042EC
:101E9000CEF2000288540398027802F01F0101205C
:101EA00088401C2101EAD2014EF20012CEF200025B
:101EB00088500EE00398027802F01F01012088404C
:101EC0001C2101EAD2014EF28012CEF200028850AB
:101ED000FFE704B07047000081B000900098002137
:101EE000C0F2FA5108434EF60C51CEF200010860E0
:101EF00001B0704781B08DF803009DF803002021E8
:101F0000C4F20E21086001B07047000082B0019059
:101F10008DF803109DF8030048B1FFE7019A41F2E4
:101F20001401C4F2020108681043086008E0019A35
:101F300041F21401C4F20201086890430860FFE70F
:101F400002B0704782B001908DF803109DF8030035
:101F500048B1FFE7019A41F21C01C4F2020108688E
:101F60001043086008E0019A41F21C01C4F202012A
:101F7000086890430860FFE702B0704782B00190A4
:101F80008DF803109DF8030048B1FFE7019A41F274
:101F90001801C4F2020108681043086008E0019AC1
:101FA00041F21801C4F20201086890430860FFE79B
:101FB00002B0704781B08DF803009DF8030040F235
:101FC0004041C4F24221086001B0704786B00590DC
:101FD0000020049003900290019041F20400C4F2AA
:101FE0000200006800F00C0004900498009040B1DA
:101FF000FFE7009804280BD0FFE7009808280ED0D0
:1020000047E0059941F20020C0F27A00086047E0FD
:10201000059941F20020C0F27A00086040E041F2E8
:102020000400C4F20200016801F470110391006819
:1020300000F4803002900399022000EB914003905D
:10204000029848B9FFE7039840F60011C0F23D013D
:102050004843059908601BE041F20400C4F2020005
:1020600000688003002809D5FFE7039840F60011B7
:10207000C0F23D0148430599086008E0039841F229
:102080000021C0F27A01484305990860FFE7FFE7A5
:1020900006E0059941F20020C0F27A000860FFE7EF
:1020A00041F20400C4F20200016801F0F001049161
:1020B000049909090491049A4CF27801C0F60001D0
:1020C0008A5C0192059B1A68DDF804C022FA0CF2C2
:1020D0005A60026802F4E0620492049A120A0492BE
:1020E000049A8A5C0192059B5A68DDF804C022FAC2
:1020F0000CF29A60026802F460520492049AD20AC6
:102100000492049A895C0191059A5168019BD94017
:10211000D160006800F4404004900498800B049063
:1021200004994CF27400C0F60000405C01900599DF
:10213000C868019AB0FBF2F0086106B07047000071
:1021400084B08DF80F000020029001908DF80300FC
:102150009DF80F00400902900298012807D1FFE77F
:1021600041F20000C4F202000068019012E00298FF
:10217000022807D1FFE741F22000C4F20200006804
:10218000019006E041F22400C4F2020000680190D0
:10219000FFE7FFE79DF80F0000F01F000290019895
:1021A0000299C840C00720B1FFE701208DF8030065
:1021B00003E000208DF80300FFE79DF8030004B062
:1021C0007047000081B08DF803009DF8030040F2D5
:1021D0008041C4F24221086001B0704781B08DF89F
:1021E00003009DF8030040F23C41C4F24221086024
:1021F00001B0704781B00090009A41F22001C4F212
:10220000020108681043086001B0704742F60401FB
:10221000C4F20001088840F01000088070470000F8
:1022200042F60401C4F20001088820F01000088082
:102230007047000081B00020ADF8020042F61C009B
:10224000C4F200000088ADF8020042F61800C4F2A3
:1022500000000188BDF8020040EA014001B070476B
:1022600080B582B00190FFF7D1FFBDF8060042F6BD
:102270001801C4F200010880019842F61C01C4F262
:1022800000010880FFF7CCFF02B080BD80B582B0AE
:102290000190FFF7BBFF0198C0F3034042F608012D
:1022A000C4F200010880019842F60C01C4F200015A
:1022B0000880FFF7B5FF02B080BD0000FFE742F6DF
:1022C0000400C4F2000000888006002801D4FFE763
:1022D000F5E7704742F60401C4F20001088820F0D7
:1022E00008000880FFE742F60400C4F200000088FE
:1022F0000007002801D4FFE7F5E7704780B58AB0F2
:1023000009900891ADF81E20099801900899BDF830
:102310001E2002A803F094FD0199024642F60C40EB
:10232000C2F2000003F0C0FD0AB080BD80B582B0EB
:1023300000200DF10701012200F03AF8009000980A
:10234000012804D1FFE79DF80700009003E04FF05B
:10235000FF300090FFE7009802B080BD80B584B0E8
:10236000FFE740F23C40C2F2000000900098007885
:10237000532803D0FFE701F04BF8FFE7FFE740F2F7
:102380003C40C2F200006030039003980069029064
:1023900002980399C968884203D0FFE701200190A1
:1023A00002E000200190FFE7019804B080BD00002A
:1023B00080B586B0059004910392EFF311804FF041
:1023C000200181F31188019005980499039A00F087
:1023D00007F80290019880F31188029806B080BD3A
:1023E00080B58EB00D900C910B92FFE740F23C400F
:1023F000C2F20000039003980078532803D0FFE74F
:1024000001F006F8FFE7FFE70D9800EB400140F20E
:102410003C40C2F2000000EBC100603005900C9817
:1024200006900598006908900598C06807900020FC
:10243000099008980799884236D9FFE7059880687F
:102440000899401A0A900A980B99884203D2FFE72C
:102450000A98029002E00B980290FFE702980A9017
:1024600005984068089908440490069804990A9AC7
:10247000FDF748FF0A990998084409900A990698B7
:10248000084406900A990B98401A0B900A990898EC
:1024900008440890089805998968884203D1FFE7A5
:1024A00000200890FFE7FFE707980899401A0A9074
:1024B0000A980B99884203D2FFE70A98019002E03C
:1024C0000B980190FFE701980A900A98D8B1FFE7AE
:1024D00005984068089908440490069804990A9A57
:1024E000FDF710FF0A990998084409900A9906987F
:1024F000084406900A990B98401A0B900A9908987C
:1025000008440890FFE7099820B1FFE7089805996B
:102510000861FFE709980EB080BD000080B586B065
:10252000059004910392FFE740F23C40C2F20000A4
:10253000019001980078532803D0FFE700F068FF6E
:10254000FFE7FFE7EFF311804FF0200181F31188DF
:10255000009005980499039A00F008F802900098FA
:1025600080F31188029806B080BD000080B58AB063
:1025700009900891079208980490099800EB40018F
:1025800040F23C40C2F2000000EBC1001830039062
:1025900003984069029040B1FFE70298012819D0E2
:1025A000FFE7029802282CD032E0039800F07EFF6B
:1025B000059005980799884203D2FFE7002006900E
:1025C00007E00798069003980499079A01F0F6F936
:1025D000FFE720E0039800F069FF05900598079950
:1025E000884203D2FFE70598019002E00798019026
:1025F000FFE70198069003980499069A01F0DEF926
:1026000009E003980499079A01F068F9069002E03E
:1026100000200690FFE706980AB080BD82B080B522
:1026200084B0079306920390029106A80090039845
:1026300002996A4600F008F80190019804B0BDE8DC
:10264000804002B07047000080B5AAB02990289160
:1026500027920DA8219040202290002023902999B4
:1026600025912490FFE7289800788DF89B00289802
:10267000013028909DF89B0008B9FFE717E29DF80C
:102680009B00252840F00682FFE700201E900120D5
:102690002090FFE7289800788DF89B009DF89B001C
:1026A0002338014609910D2829D80999DFE801F05E
:1026B0001F2727272727272717270727270F1E9892
:1026C00040F001001E902898013028901AE01E98D2
:1026D00040F002001E9028980130289012E01E98C9
:1026E00040F004001E902898013028900AE01E98BF
:1026F00040F008001E9028980130289002E0002049
:102700002090FFE7FFE720980028C3D1FFE70020D3
:102710001D90FFE7289800788DF89B009DF89B009E
:10272000302805DBFFE79DF89B003A2801DBFFE737
:1027300010E02898013028901D9800EB80019DF84A
:102740009B0000EB410030381D90FFE7012000287E
:10275000E0D1FFE700201F90289800788DF89B00BB
:102760009DF89B002E2825D1FFE72898013028905E
:10277000FFE7289800788DF89B009DF89B00302893
:1027800005DBFFE79DF89B003A2801DBFFE710E03F
:102790002898013028901F9800EB80019DF89B003D
:1027A00000EB410030381F90FFE701200028E0D106
:1027B000FFE7FFE7289800788DF89B00FFE79DF87A
:1027C0009B006C2805D0FFE79DF89B00682808D186
:1027D000FFE7289801302890289800788DF89B0012
:1027E00000E004E0FFE701200028E8D1FFE79DF8C2
:1027F0009B00253801460891532800F2468108992C
:10280000DFE811F0D80043014301430143014301D4
:102810004301430143014301430143014301430198
:102820004301430143014301430143014301430188
:102830004301430143014301430143014301430178
:10284000430143014301DD004301430143014301CF
:102850004301430143014301430143014301430158
:10286000430143014301430143018B004301430101
:102870004301430143014301430143014301430138
:10288000540063004301DD00430143014301430160
:1028900043014301430143014301C7004301430195
:1028A0009F0043017700430143018B00279A106882
:1028B000011D11600068209020988DF833009DF86C
:1028C000331021A800F0CEFFE0E0279A1068011D28
:1028D00011600068209020991F9B1D98DDF878C03A
:1028E0006A46C2F804C0106021A80A2200F0FEFD6A
:1028F000CCE0279A1068011D116000682090209993
:102900001F9B1D98DDF878C06A46C2F804C01060AD
:1029100021A80A2200F0D0FEB8E0279A1068011D15
:1029200011600068209020991F9B1D98DDF878C0E9
:102930006A46C2F804C0106021A8102200F0BCFE54
:10294000A4E0279A1068011D116000680B900B9895
:1029500030B9FFE74CF64820C0F600000B90FFE7C7
:10296000FFE70B9800788DF89B000B9801300B90D7
:102970009DF89B0008B9FFE70AE09DF89B1021A88D
:1029800000F070FFFFE72498B0F1FF3FE9DCFFE7BC
:102990007CE0279A1068011D116000682090209942
:1029A0006846002242600823036021A8102200F03C
:1029B00083FE6BE021A8252100F054FF66E0279AF2
:1029C0001068073020F0070101F108001060086866
:1029D0004968FDF76BFD0A900A980021FDF73FFD5D
:1029E00028B9FFE721A82D2100F03CFFFFE70A9856
:1029F000FDF743FD06900028079002D50698404257
:102A000007900798209020991F9B1D98DDF878C0AB
:102A10006A46C2F804C0106021A803900A220292FC
:102A200000F064FD03982E2100F01CFF0A9800219D
:102A3000C4F2C821FDF7E1FCFDF71FFD049000285A
:102A4000059002D5049840420590029A0398059992
:102A50002091DDF880C048F21F51C5F2EB118CFBCC
:102A60000113591101EBD371642301FB13C12091B0
:102A700020991D9BDDF878E0EC46CCF804E0CCF81A
:102A80000030022300F032FD00E0FFE7289801301B
:102A9000289005E09DF89B1021A800F0E3FEFFE7D9
:102AA000FFE72498B0F1FF3F3FF7DDADFFE7249843
:102AB00001280EDBFFE7239830B1FFE72998239A1E
:102AC0000DA9FFF72BFDFFE72399249808442490D4
:102AD000FFE724982AB080BD7047000080B58AB017
:102AE00009900891ADF81E20099801900899BDF849
:102AF0001E2002A803F0A4F90199024642F60C40F8
:102B0000C2F2000003F024FA0AB080BD80B500F0E4
:102B100001F880BD84B000200390029041F20001D2
:102B2000C4F20201086840F480300860FFE741F217
:102B30000000C4F20200006800F400300290039824
:102B400001300390FFE702990020019039B9FFE7B7
:102B50000398B0F5A06018BF01200190FFE701982D
:102B6000C0070028E3D1FFE741F20000C4F20200F1
:102B700000688003002803D5FFE70120029002E0EF
:102B800000200290FFE70298012851D1FFE742F2AE
:102B90000001C4F20201086840F0100008600868F3
:102BA00020F003000860086840F00200086041F26D
:102BB0000401C4F202010091086808600868086016
:102BC000086840F480600860086820F47C100860A1
:102BD000086840F4E810086041F20001C4F2020104
:102BE000086840F080700860FFE741F20000C4F21E
:102BF000020000688001002801D4FFE7F5E741F2F8
:102C00000401C4F20201086820F0030008600868AB
:102C100040F002000860FFE741F20400C4F2020045
:102C2000006800F00C00082801D0FFE7F4E700E09E
:102C3000FFE704B07047000080B582B000900098B4
:102C40000138B0F1807F03D3FFE70120019019E044
:102C5000009801384EF21401CEF2000108604FF0E6
:102C6000FF300F2100F0ECFE4EF21801CEF2000111
:102C7000002008604EF21002CEF20002072111601F
:102C80000190FFE7019802B080BD000080B506F01A
:102C9000ADFB07F07BF906F0BBFB80BD80B541F2D0
:102CA0000002C4F20202106840F00100106041F21C
:102CB0000401C4F2020108680023CFF6FF031840A4
:102CC000086010684FF6FF73CFF6F6631840106087
:102CD000106820F480201060086820F4FE0008606E
:102CE00041F20801C4F202014FF41F000860FFF72F
:102CF0000DFF4EF60851CEF200014FF00060086063
:102D000080BD000080B542F60040C4F20100012100
:102D100000F052F840B1FFE742F60040C4F2010073
:102D2000012100F03DF8FFE780BD000080B54FF0C5
:102D30008040012100F040F840B1FFE705F08AFE35
:102D40004FF08040012100F02BF8FFE780BD00002C
:102D500080B540F20040C4F20000012100F02CF8E0
:102D600040B1FFE740F20040C4F20000012100F052
:102D700017F8FFE780BD000080B540F60000C4F200
:102D80000000012100F018F840B1FFE740F6000014
:102D9000C4F20000012100F003F8FFE780BD00004D
:102DA00082B00190ADF80210BDF80200C043019955
:102DB000088202B07047000083B00290ADF80610A0
:102DC00000208DF80500ADF80200ADF80000029873
:102DD000008ABDF806100840ADF80200029880890C
:102DE000BDF806100840ADF80000BDF8020040B183
:102DF000FFE7BDF8000020B1FFE701208DF80500D6
:102E000003E000208DF80500FFE79DF8050003B002
:102E10007047000080B584B044F60040C4F2000062
:102E200040F2244100F08EF990B3FFE744F60040F1
:102E3000C4F200000088039044F60440C4F200008D
:102E40000088039040F23040C4F20200019000215B
:102E5000FEF7BEF90198FEF7AFFA01460198C1F5F9
:102E6000807140F2CC32C2F2000251810121029104
:102E70001172D36804211970917AD26851704FF49D
:102E80008071FEF7D7FA01980299FEF7A1F9FFE7E2
:102E900004B080BD80B582B045F20000C4F20000ED
:102EA00040F2244100F04EF9C8B1FFE745F20000BE
:102EB000C4F200000088019045F20400C4F2000052
:102EC0000088019040F2DC31C2F20001CA6805209E
:102ED0001070887ACA68507001200872FFE745F2C6
:102EE0000000C4F2000040F2255100F02BF9B8B107
:102EF000FFE745F20000C4F2000000F073FA8DF81D
:102F000003009DF8030040F2DC3CC2F2000CDCF848
:102F10000C10BCF80A20531CACF80A308854FFE7A8
:102F200002B080BD80B584B043F60000C4F2010059
:102F300040F2244100F006F980B3FFE743F60000B9
:102F4000C4F201000088039043F60400C4F20100BB
:102F5000008803905820C4F2020001900021FEF77F
:102F600037F90198FEF728FA01460198C1F58071FA
:102F700040F29C32C2F20002518101210291117291
:102F8000D3681970917AD26851704FF48071FEF74E
:102F900051FA01980299FEF71BF9FFE704B080BDD2
:102FA00080B584B044F20040C4F2000040F22441F5
:102FB00000F0C8F888B3FFE744F20040C4F2000014
:102FC0000088039044F20440C4F20000008803909B
:102FD0006C20C4F2020001900021FEF7F9F801987C
:102FE000FEF7EAF901460198C1F5807140F2AC3272
:102FF000C2F200025181012102911172D3680221B3
:103000001970917AD26851704FF48071FEF712FAFC
:1030100001980299FEF7DCF8FFE704B080BD0000DC
:1030200080B584B044F60000C4F2000040F22441B0
:1030300000F088F888B3FFE744F60000C4F200000F
:103040000088039044F60400C4F200000088039056
:103050003020C4F2020001900021FEF7B9F8019877
:10306000FEF7AAF901460198C1F5807140F2BC3221
:10307000C2F200025181012102911172D368032131
:103080001970917AD26851704FF48071FEF7D2F9BD
:1030900001980299FEF79CF8FFE704B080BD00009C
:1030A00082B001908DF803109DF8030030B1FFE766
:1030B0000199888940F40050888105E00199888948
:1030C00020F400508881FFE702B0704782B0019081
:1030D000ADF802108DF801209DF8010038B1FFE72E
:1030E000BDF802200199888A1043888206E0BDF865
:1030F00002200199888A90438882FFE702B07047D6
:1031000082B00190ADF8021000208DF80100BDF8EA
:103110000200B0F5007F01D1FFE7FFE701980088CA
:10312000BDF802100840000420B1FFE701208DF82F
:10313000010003E000208DF80100FFE79DF8010089
:1031400002B0704786B00590ADF8121000200390D1
:10315000029001908DF80300BDF8120040F66A114C
:10316000884201D1FFE7FFE79DF812004009019076
:10317000BDF8120000F01F00029002990120884063
:1031800002900198012806D1FFE7059881890298ED
:103190000840029010E00198022806D1FFE7059848
:1031A000018A02980840029005E00598818A0298F9
:1031B00008400290FFE7FFE79DF813000390039992
:1031C00001208840039005980188039808400390E7
:1031D000029838B1FFE7039820B1FFE701208DF88E
:1031E000030003E000208DF80300FFE79DF80300D3
:1031F00006B0704786B00590ADF812108DF811201A
:1032000000200390029001900090BDF8120040F65B
:103210006A11884201D1FFE7FFE7059800909DF809
:10322000120040090390BDF8120000F01F00029048
:1032300002990120884001900398012804D1FFE7FA
:1032400000980C3000900CE00398022804D1FFE7AE
:1032500000981030009003E0009814300090FFE7D1
:10326000FFE79DF8110030B1FFE7019A0099086867
:103270001043086005E0019A0099086890430860CF
:10328000FFE706B07047000080B58CB00B900A9144
:103290000020099008900790069005900A98808970
:1032A00008B1FFE7FFE70B9805900B98008A09909B
:1032B00009984CF6FF71084009900A98C18809984E
:1032C0000843099009980B9908820B988089099006
:1032D00009984EF6F311084009900A9988880A89DE
:1032E00010434989014309980843099009980B99AB
:1032F00088810B98808A099009984FF6FF41084011
:1033000009900A98818909980843099009980B99AE
:1033100088826846FEF75AFE059843F60001C4F21B
:103320000101884203D1FFE70398089002E0029868
:103330000890FFE70B988089000400280AD5FFE772
:103340000898192148430A9909684900B0FBF1F02F
:10335000079009E00898192148430A9909688900EB
:10336000B0FBF1F00790FFE7079848F21F51C5F254
:10337000EB11A0FB01016FF00F0000EA5100099072
:10338000079A09980009642100FB112006900B9808
:1033900080890004002810D5FFE70699322000EB51
:1033A000C10048F21F51C5F2EB11A0FB0110C0F3A0
:1033B00042110998084309900FE00699322000EB6A
:1033C000011048F21F51C5F2EB11A0FB0110C0F330
:1033D0004311099808430990FFE709980B99088160
:1033E0000CB080BD81B00090009880886FF35F20A2
:1033F00001B0704782B00190ADF80210BDF8020034
:103400006FF35F200199888002B07047FFE7FEE705
:1034100080B582B040F23C40C2F2000001900198B9
:10342000A821FCF788FF01990320086101994861F0
:1034300001984CF63F21C0F600018161019A40F2EB
:10344000F440C2F20000D061019A4FF48050106243
:10345000019A00209062019A5062019AD062019A0A
:103460001166019A40F2E441C2F200015166019AEC
:1034700010219166019908670199C866019948670A
:103480000090FFE700980F280ED8FFE7009A4CF253
:103490008800C0F60000801AC07B01998854FFE7BD
:1034A000009801300090EDE702B080BD84B0039039
:1034B0000398006902900398C068019002980199EE
:1034C000884209D8FFE7039881680198C0430844FF
:1034D00002990844009005E002990198C04308440D
:1034E0000090FFE7009804B07047000010B58CB062
:1034F000DDF83CC0DDF838C00B900A9109920893C2
:103500000A98B0F1FF3F04DCFFE70A9840420590BB
:1035100002E00A980590FFE70598069001200790C1
:10352000FFE706980999884209DBFFE706980999A1
:1035300090FBF1F00690079801300790F1E70898AA
:103540000799884203D9FFE708980790FFE70E988C
:1035500070B1FFE70A98002806D4FFE79DF83C0009
:103560004007002804D5FFE70E9801380E90FFE7CA
:103570009DF83C008007002803D5FFE7089858B362
:10358000FFE79DF83C00C00730BBFFE70E9810B383
:10359000FFE7FFE70E990020049041B1FFE707998C
:1035A0000E9A0020914238BF01200490FFE7049852
:1035B000C00778B1FFE70E9801380E900B982021D4
:1035C00000F050F90B98C068B0F1FF3F01DCFFE755
:1035D00000E0DFE7FFE7FFE70B98C068002869D449
:1035E000FFE70A98B0F1FF3F08DCFFE70A98404286
:1035F0000A900B982D2100F035F90CE09DF83C0065
:103600004007002805D5FFE70B982B2100F02AF989
:1036100000E0FFE7FFE70B98C068002849D4FFE708
:103620009DF83C00800700282ED5FFE79DF83C0060
:10363000C00748BBFFE7089830BBFFE70E9810B300
:10364000FFE7FFE70E990020039041B1FFE70799DC
:103650000E9A0020914238BF01200390FFE70398A3
:10366000C00778B1FFE70E9801380E900B98302113
:1036700000F0F8F80B98C068B0F1FF3F01DCFFE7FD
:1036800000E0DFE7FFE7FFE70B98C06800280FD4F2
:10369000FFE70B980A99099A089BDDF838C00F9C40
:1036A000EE46CEF80440CEF800C000F005F8FFE783
:1036B000FFE7FFE70CB010BD80B58CB0DDF83CC073
:1036C000DDF838C00B900A91099208930A9805908A
:1036D000012006900490FFE705980999884209D3D4
:1036E000FFE705980999B0FBF1F0059004980130C7
:1036F0000490F1E708980499884203D9FFE70898F5
:103700000490FFE79DF83C00C007C0BBFFE70E98A0
:10371000A0B3FFE79DF83C008007002807D5FFE72E
:10372000089820B9FFE730208DF80F0003E0202033
:103730008DF80F00FFE7FFE70E990020029041B1DE
:10374000FFE704990E9A0020914238BF01200290B1
:10375000FFE70298C00780B1FFE70E9801380E908E
:103760000B989DF80F1000F07DF80B98C068B0F131
:10377000FF3F01DCFFE700E0DEE7FFE7FFE70B9834
:10378000C06800286CD4FFE7FFE70898022804D33C
:10379000FFE70898013808900BE00A980699B0FBFB
:1037A000F1F0079007980999884201D2FFE705E0F8
:1037B000FFE70999069848430690E6E7FFE70A986D
:1037C0000699B0FBF1F00790079806990A9A00FB5A
:1037D00011200A900B98079A4CF29901C0F600014B
:1037E000895C00F03FF80B98C068B0F1FF3F01DC46
:1037F000FFE709E009990698B0FBF1F00690FFE7B2
:1038000006980028DBD1FFE79DF83C00C00730B3E5
:10381000FFE70E9810B3FFE7FFE70E990020019035
:1038200041B1FFE704990E9A0020914238BF012070
:103830000190FFE70198C00778B1FFE70E980138C3
:103840000E900B98202100F00DF80B98C068B0F195
:10385000FF3F01DCFFE700E0DFE7FFE7FFE7FFE70F
:103860000CB080BD80B584B003908DF80B10039828
:1038700080680190019801300399496888420FD807
:10388000FFE79DF80B0003990968019A8854019895
:103890000130039988600399C8680130C860FFE768
:1038A000039841688068884215D1FFE70398016852
:1038B00082680069FEF732FE03998968884205D064
:1038C000FFE703994FF0FF30C86003E00399002041
:1038D0008860FFE7FFE704B080BD000080B58AB0D4
:1038E000099008910792002005900998C0680390FC
:1038F000FFE709980069049004980399884206D963
:10390000FFE704990398C0430844069008E009982B
:1039100081680398049A801AC04308440690FFE720
:10392000069809998968039A891A884203D2FFE7A1
:103930000698019005E0099880680399401A019063
:10394000FFE70198069006980799884203D2FFE79F
:103950000698009002E007980090FFE70098069014
:103960000998406803990844029002980899069AB9
:10397000FCF7C8FC06990598084405900699089834
:103980000844089006990798401A079006990398EA
:1039900008440390039809998968884203D1FFE796
:1039A00000200390FFE703980999C860FFE7079894
:1039B00000289ED1FFE705980AB080BD80B588B089
:1039C0000790069105920798C06803900798806851
:1039D0000399401A029002980599884210D9FFE78E
:1039E0000798406803990844019001980699059A40
:1039F000FCF788FC0398059908440799C8601DE006
:103A0000029804900798406803990844019001982F
:103A10000699049AFCF776FC05980299401A0490DE
:103A200007984068019001980699029A1144049AF7
:103A3000FCF768FC04980799C860FFE708B080BDF0
:103A400082B08DF8070000919DF9070000280AD484
:103A5000FFE7009800019DF907104EF20042CEF2F8
:103A6000000288540BE0009800019DF8071001F057
:103A70000F014EF61452CEF200028854FFE702B056
:103A80007047000082B00090009818B9FFE700204E
:103A9000019033E09DF8000050B1FFE79DF8001061
:103AA0004CF2A900C0F60000405C0130019025E016
:103AB0009DF8010050B1FFE79DF801104CF2A900FC
:103AC000C0F60000405C0930019017E09DF802004C
:103AD00050B1FFE79DF802104CF2A900C0F60000BB
:103AE000405C1130019009E09DF803104CF2A900F0
:103AF000C0F60000405C19300190FFE7019802B069
:103B00007047000080B590B00E900D910C9200208F
:103B10008DF80F000D980190FFE70D980C998842E1
:103B20003BD2FFE70D9820300C99884203D2FFE783
:103B30002020009004E00C980D99401A0090FFE7B7
:103B40000E980D99009B04AA00F074F800200290D2
:103B5000FFE70298009988421AD2FFE79DF80F000C
:103B6000FF280BD0FFE7029904A8405CFF2805D18D
:103B7000FFE70D98029908440190FFE7029904A815
:103B8000405C8DF80F00FFE7029801300290E0E7FB
:103B9000FFE70D9820300D90BFE79DF80F00FF283C
:103BA00006D1FFE70198033020F003000F9002E0F8
:103BB0000C980F90FFE70F9810B080BD82B0009076
:103BC0000098407EC00718B1FFE70020019004E094
:103BD0000098806804300190FFE7019802B07047B8
:103BE00080B586B004900391029200208DF8070002
:103BF0000498407EC00720B1FFE701208DF8170030
:103C000013E0049880680399029A01F0C5FDB0F1B1
:103C1000FF3F04DCFFE701208DF80700FFE7FFE727
:103C20009DF807008DF81700FFE79DF8170006B014
:103C300080BD000080B586B004900391029201938C
:103C400000208DF803000498407EC00720B1FFE7F4
:103C500002208DF8170014E0049880680399029AF6
:103C6000019B01F0B3FEB0F1FF3F04DCFFE702204F
:103C70008DF80300FFE7FFE79DF803008DF81700BC
:103C8000FFE79DF8170006B080BD000080B586B044
:103C900084460898CDF810C00391029201938DF8E4
:103CA000030000208DF802000498407EC00720B178
:103CB000FFE703208DF8170014E00498806803994B
:103CC000029A019B01F02EFFB0F1FF3F04DCFFE7F9
:103CD00003208DF80200FFE7FFE79DF802008DF852
:103CE0001700FFE79DF8170006B080BD84B0039071
:103CF0000291002001900298013802900090FFE7A5
:103D00000298411E029180B1FFE70398029A4FF694
:103D1000FC71C1F6FF7101EA8201405C08B9FFE75E
:103D200003E0019801300190EAE700980199401AF8
:103D300004B0704780B586B0DDF820C004900391D0
:103D400002928DF807300498E0B9FFE74CF69E60C8
:103D5000C0F6000007F05CFC4DF6D770C0F600001E
:103D600007F056FC4CF62260C0F600004CF6A86145
:103D7000C0F600014CF6C162C0F6000207F048FC34
:103D8000FFE7FEE70398E0B9FFE74CF69E60C0F658
:103D9000000007F03DFC4DF6D770C0F6000007F0BC
:103DA00037FC4CF62260C0F600004CF6AB61C0F662
:103DB00000014CF6C162C0F6000207F029FCFFE7E3
:103DC000FEE70298E0B9FFE74CF69E60C0F60000FF
:103DD00007F01EFC4DF6D770C0F6000007F018FC87
:103DE0004CF62260C0F600004CF6B061C0F600014F
:103DF0004CF6C162C0F6000207F00AFCFFE7FEE7DE
:103E00000498007EC00720B1FFE700208DF817005E
:103E1000D1E00398049908609DF80700049908719F
:103E20000898049948620498407EC00708B1FFE7EB
:103E300056E001F04FFC029801F044FD04998860BF
:103E4000B8B9FFE74CF69E60C0F6000007F0E0FB53
:103E50004DF6D770C0F6000007F0DAFB02994CF679
:103E60000060C0F6000007F0D3FB04208DF81700B7
:103E7000A1E0049880681C3001F028FB006A0090E3
:103E80000498C06820B9FFE700980499C86022E050
:103E90000498C2680099B2FBF1F000FB1120C8B190
:103EA000FFE74CF69E60C0F6000007F0B1FB4DF650
:103EB000D770C0F6000007F0ABFB0498C168009A09
:103EC0004CF6C250C0F6000007F0A2FB08208DF8A7
:103ED000170070E0FFE704998868806B0861FFE7CE
:103EE0000498C068411E08421CD0FFE74CF69E6053
:103EF000C0F6000007F08CFB4DF6D770C0F600004E
:103F000007F086FB4CF62260C0F600004CF66561B7
:103F1000C0F600014CF6C162C0F6000207F078FB63
:103F2000FFE7FEE70498C1680269B2FBF1F000FB0D
:103F30001120C8B1FFE74CF69E60C0F6000007F004
:103F400067FB4DF6D770C0F6000007F061FB0498E0
:103F5000C26801694CF68550C0F6000007F058FBB6
:103F600008208DF8170026E00498C1680069B0FBAE
:103F7000F1F001281BD8FFE74CF69E60C0F6000068
:103F800007F046FB4DF6D770C0F6000007F040FB87
:103F90000498C1680069B0FBF1F14CF6C740C0F667
:103FA000000007F035FB08208DF8170003E0002023
:103FB0008DF81700FFE79DF8170006B080BD0000E0
:103FC00080B588B007908DF81B109DF81B00B8BB1A
:103FD000FFE707990120087641F2F440C2F20000A1
:103FE0000078C00758BBFFE74CF69E60C0F60000A3
:103FF000049007F00DFB4DF6D770C0F60000059059
:1040000007F006FB4CF64160C0F600004CF68E61EE
:10401000C0F6000107F0FCFA049807F0F9FA0598D9
:1040200007F0F6FA4CF61250C0F6000007F0F0FA6E
:1040300041F2F441C2F2000101200870FFE732E0D2
:104040000798807EC00768BBFFE74CF69E60C0F60D
:10405000000007F0DDFA4DF6D770C0F6000007F05B
:10406000D7FA079803794CF69962C0F600024CF62D
:104070009461C0F60001002B08BF1146029101684F
:104080000391FFF79BFD0299039A03469DF81B00DD
:10409000EC46CCF800004CF65950C0F6000007F092
:1040A000B7FAFFE7FFE708B080BD000080B5A4B015
:1040B000229000228DF8872004922299012081F815
:1040C0003100229869468A6044F62143C0F6000315
:1040D0004B60086005A904AB06F02EFC2298807E98
:1040E000C00738B1FFE7049820B1FFE702208DF840
:1040F0008F0053E004982299CA680969B1FBF2F174
:1041000088421DD1FFE74DF22E40C0F6000007F0B7
:104110007FFA229801680391FFF750FD0399024648
:104120004DF26B30C0F6000007F072FA4DF2D3107A
:10413000C0F6000007F06CFA229801F05BFFFFE781
:10414000229B68460022826044F63511C0F60001C9
:104150004160026005A9184606F0EEFBFFE7229ACF
:1041600044F66D10C0F60000694608600BA90023F4
:10417000104603F04FF9229890F83000C00720B1A4
:10418000FFE7229802F00EFFE9E72299002081F86C
:1041900031009DF887008DF88F00FFE79DF88F00B4
:1041A00024B080BD80B584B0039002910192009349
:1041B0000198E0B9FFE74DF2D940C0F6000007F0E2
:1041C00027FA4DF6D770C0F6000007F021FA4CF63A
:1041D0002260C0F600004DF2EA41C0F600014DF247
:1041E0001152C0F6000207F013FAFFE7FEE703984A
:1041F0000299019ADDF800C06FF0030303EB8C0312
:104200004FF6FC7CC1F6FF7C03EA0C03FFF712FDBE
:1042100001980099FFF76AFD04B080BD80B584B0B5
:104220000390029101924FF0FF3000900398029AA0
:104230006FF0030101EB82014FF6FC72C1F6FF72D1
:104240001140FF22FCF770F8019858B1FFE701997F
:104250006FF0030000EB810000900399009A0020AA
:104260008854FFE7009804B080BD000080B588B096
:1042700084460B98DDF828E0CDF818C0059104922B
:1042800003938DF80B0000208DF80A000A9803991B
:1042900088421CD3FFE74DF2D940C0F6000007F07A
:1042A000B7F94DF6D770C0F6000007F0B1F94CF63B
:1042B0002260C0F600004DF2F741C0F600014DF259
:1042C0002252C0F6000207F0A3F9FFE7FEE70498C8
:1042D000E0B9FFE74DF2D940C0F6000007F098F9C9
:1042E0004DF6D770C0F6000007F092F94CF6226048
:1042F000C0F600004DF2EA41C0F600014DF2225234
:10430000C0F6000207F084F9FFE7FEE7049803997E
:104310000A9AFFF783FF01900198013020B9FFE767
:1043200000208DF81F0016E006980599019B19449E
:10433000049A1A449DF80B3003F00103EC46CCF8C4
:1043400000300423FFF7A2FC8DF80A009DF80A0054
:104350008DF81F00FFE79DF81F0008B080BD00002A
:1043600080B592B010900F910E9200200C90FFE754
:1043700010980C99415C00202029029010D0FFE792
:1043800010980C99415C00200929029008D0FFE7A1
:104390000C990F9A0020914238BF01200290FFE74C
:1043A0000298C00720B1FFE70C9801300C90DFE7BE
:1043B0000C9820B9FFE74FF0FF3011902BE01098D8
:1043C0000C9904F00DF80B900B9820B9FFE74FF013
:1043D000FF3011901FE0002001900A900990089092
:1043E0000790069005900490039010980F9903AAE7
:1043F00004F074F80D900D9820B9FFE74FF0FF30EE
:10440000119008E00B9A0D9803A990470E99086047
:1044100000201190FFE7119812B080BD80B588B0E0
:1044200084460D980C98DDF82CE0DDF828E0CDF8F6
:104430001CC00691059204938DF80F000798143064
:1044400005F038F8059807990862049807994862BA
:104450000A98079988620B980799C8620799886A31
:10446000CA6A232105F052F9079B186A596A9A6AA9
:10447000DB6A1A44043A49F60D43C0F6000304F01F
:1044800077FF0799C8619DF80F00079981F83600FA
:104490009DF80F00079981F83500079800210291D7
:1044A00081630D98079A50640D98079A9064079855
:1044B0000163079880F83410079881670798C167EF
:1044C000079B03F14C006A465160116049F6816216
:1044D000C0F60002194605F039FE029808B080BD0A
:1044E00080B586B084460898CDF814C00491039234
:1044F00002938DF807009DF8070005994872059909
:10450000487A00F0FE00487204980599C861039843
:10451000059908620599002088620299059A5162FE
:104520000090FFE7009800280CDCFFE70598009951
:1045300000EBC100143004F0C5FFFFE70098013024
:104540000090EFE706B080BD80B582B001900020FA
:104550000090FFE7009800280CDCFFE70198009925
:1045600000EBC100143005F07FF8FFE70098013040
:104570000090EFE702B080BD80B582B00190FBF7FC
:10458000F3FD00900198806F20B1FFE70198816FE3
:104590008847FFE70098FBF7EBFD02B080BD000005
:1045A00080B58CB00B900A9109920893002003907B
:1045B0008DF81F0004200490049905A8FF22FBF742
:1045C000B3FEDDF80CC00B980A99099A089B23F0FA
:1045D0000303EE46CEF800C0FFF758FB8DF81F002E
:1045E000089800F0030006909DF81F00F8B9FFE757
:1045F0000698E0B1FFE70998089921F0030101440A
:10460000069A05A80290FBF77DFE029A0B980A997C
:10461000089B23F003031944049BEE464FF0000C63
:10462000CEF800C0FFF732FB8DF81F00FFE79DF8C2
:104630001F000CB080BD000080B58EB00D900C91B5
:104640000B924FF0FF300A900022099208920D98C9
:1046500005900B9806900AA807900D980C99EC46C7
:10466000CCF808204AF6DD13C0F60003CCF804307D
:1046700008ABCCF8003009AB06F05EF9089888B1B9
:10468000FFE70D980C996B4601229A6044F24D7237
:10469000C0F600025A6000221A60022205AB06F042
:1046A0004BF9FFE7099800284DD0FFE70A98013041
:1046B000002848D1FFE70998012806D8FFE70D98A0
:1046C00090F83000C00798B1FFE70D980C99EC46C0
:1046D0000122CCF8082044F24D73C0F60003CCF858
:1046E00004300023CCF8003005AB06F025F929E0B2
:1046F0004DF22E40C0F6000006F08AFF0D980168CA
:104700000491FFF75BFA049902464DF26B30C0F654
:10471000000006F07DFF4DF2A260C0F600004DF2F1
:104720003C41C0F6000140F2A13206F071FF4DF2AB
:104730008000C0F6000006F06BFF0D99012081F8A3
:104740003000FFE7FFE70A980EB080BD85B0039008
:10475000029101920298009003980078C00710B36C
:10476000FFE70398006900994968683188421AD9BF
:10477000FFE70398807801280CD0FFE70398807842
:10478000022810D1FFE70098006890F83000C007B9
:1047900048B9FFE7039840690099896808600120DB
:1047A0008DF8130003E000208DF81300FFE79DF85B
:1047B000130005B07047000080B586B005900491E5
:1047C00003920293059818B1FFE7049808B9FFE730
:1047D00030E0049800680599C8600498406805991D
:1047E00008610498C06805994860049808300599E4
:1047F0008860039818B1FFE70398019005E040F244
:104800000C00C2F200000190FFE701980599486191
:10481000029818B1FFE70298009005E040F20C20E2
:10482000C2F200000090FFE700980599886106F049
:104830008FFDFFE706B080BD80B582B04EF26110FB
:10484000C0F6000004F000FE4EF62950CEF2000043
:10485000019001784EF2F620C0F6000004F0F4FD5D
:1048600001980078C00738B1FFE74EF2E120C0F6AA
:10487000000004F0E9FDFFE74EF62950CEF20000FB
:1048800000788007002807D5FFE74EF2D620C0F653
:10489000000004F0D9FDFFE74EF62950CEF20000EB
:1048A00000784007002807D5FFE74EF2D420C0F675
:1048B000000004F0C9FDFFE74EF62950CEF20000DB
:1048C00000780007002807D5FFE74EF2CA20C0F69F
:1048D000000004F0B9FDFFE74EF62950CEF20000CB
:1048E0000078C006002807D5FFE74EF2CC20C0F6BE
:1048F000000004F0A9FDFFE74EF62950CEF20000BB
:104900000078000600280CD5FFE74EF63850CEF2AE
:10491000000001684EF26D10C0F6000004F094FD36
:1049200006E04DF69A70C0F6000004F08DFDFFE73A
:1049300002B080BD80B584B00390029101920298CC
:10494000009003980078C00768B1FFE7039880786B
:10495000032808D1FFE70099012081F83000009872
:1049600002F020FBFFE7002004B080BD80B590B0CE
:104970000E900D910C920D980B900E984078C007F8
:1049800000287AD0FFE70E980078032875D1FFE75A
:104990004DF22E40C0F6000006F03AFE0B9801687A
:1049A0000591FFF70BF9059902464DF26B30C0F601
:1049B000000006F02DFE0E98817800F110024DF2F5
:1049C0008910C0F6000006F023FE0B980E9903F044
:1049D00035FB30BBFFE74DF22E40C0F6000006F07D
:1049E00017FE0B9801680491FFF7E8F80499024656
:1049F0004DF26B30C0F6000006F00AFE4DF2A260E8
:104A0000C0F600004DF23C41C0F6000140F25B628E
:104A100006F0FEFD4DF2E300C0F6000006F0F8FDE2
:104A20002AE04DF22E40C0F6000006F0F1FD0B9892
:104A300001680391FFF7C2F8039902464DF26B300B
:104A4000C0F6000006F0E4FD4DF2A260C0F60000E2
:104A50004DF23C41C0F6000140F25D6206F0D8FD27
:104A60000E9881684DF24A20C0F6000006F0D0FD95
:104A700001208DF83F002FE02AE00E9800780128F1
:104A800011D1FFE70B980E99096D6B460122029236
:104A90005A6005221A6006AA0623FFF7E7FB029870
:104AA0008DF83F0018E00E984078C00770B1FFE71E
:104AB0000E980078022809D1FFE70B980E9B03F1AE
:104AC00010019A781B6D06F0DFF9FFE7FFE7FFE7BB
:104AD00000208DF83F00FFE79DF83F0010B080BD3B
:104AE00080B586B004900391002002900190FFE70A
:104AF00001980399884269D2FFE70498019900EB75
:104B000081101C3000F0E2FC02900298F0B9FFE73F
:104B10004DF22F70C0F600004DF6C331C0F6000113
:104B20008A2206F075FD0498019900EB811000F1CE
:104B30001C014DF64110C0F6000006F069FD4DF66F
:104B40009A70C0F6000006F063FD3BE004980199FE
:104B500000EB8110406B0299C969884229DBFFE7AD
:104B60004DF29260C0F600004DF6C331C0F6000170
:104B7000912206F04DFD0498019900EB8110011D72
:104B8000426B0298C3694DF6F300C0F6000006F0D0
:104B90003FFD4DF28C60C0F6000006F039FD43F297
:104BA0001821C2F20001002008604FF0FF3005908C
:104BB0000FE00298019A43F21021C2F2000141F87D
:104BC0002200FFE701980130019091E70020059055
:104BD000FFE7059806B080BD85B00490039102926E
:104BE00003980190029800900098007801280FD156
:104BF000FFE704984078032805D0FFE70498407841
:104C0000022805D1FFE70498406801990860FFE792
:104C10000498407800990870002005B070470000A3
:104C200080B588B006900591049206980078C00778
:104C3000002841D1FFE7059803900498029003995A
:104C40000868013008600298807EC00720B1FFE745
:104C500001208DF81F0033E04DF22E40C0F6000019
:104C600006F0D6FC029801680191FEF7A7FF0199B2
:104C700002464DF26B30C0F6000006F0C9FC4DF262
:104C8000A260C0F600004DF23C41C0F6000140F2C7
:104C90003C6206F0BDFC069841684CF60470C0F614
:104CA000000006F0B5FC0298069949684FF0FF3203
:104CB00002F0C6F8FFE7FFE700208DF81F00FFE7CE
:104CC0009DF81F0008B080BD80B582B001900091B2
:104CD00002F09EFF002002B080BD000080B59CB0B5
:104CE000DDF878C01A9019911892179300208DF86A
:104CF0005B008DF82F00199840690A901898FBF70F
:104D00004FFB41281ED3FFE74DF22E40C0F60000B6
:104D100006F07EFC1A9801680791FEF74FFF07998D
:104D200002464DF26B30C0F6000006F071FC4DF209
:104D3000CE20C0F60000402106F06AFC05208DF868
:104D40006F0046E10CA82821FF22FBF7EDFA45F29F
:104D50004B60C3F2300011901898FBF721FB8DF8DF
:104D600050001E9815909DF85000033020F003006D
:104D70001599033121F0030108442830129012984C
:104D80001A99C968243988421DD9FFE74DF22E408F
:104D9000C0F6000006F03CFC1A9801680691FEF788
:104DA0000DFF069902464DF26B30C0F6000006F08A
:104DB0002FFC4DF23430C0F6000006F029FC07202D
:104DC0008DF86F0005E10A98013058B9FFE71A988D
:104DD0001999129A03F06AFC0A900130002800F039
:104DE000EF80FFE79DF85B0050B9FFE71A9819992B
:104DF000129A0DF12F0306F01FF98DF85B00FFE703
:104E00009DF85B00002853D1FFE7FF208DF82300B9
:104E10000020139013980CA90491203104220592CC
:104E200001F01CF80499059A13901398243101F0AD
:104E300015F81390139818999DF8502001F00EF86A
:104E400013909DF85010C81C20F00300401A0990E0
:104E5000FFE70998411E099140B1FFE713980DF152
:104E60002301012200F0FAFF1390F2E7179913983B
:104E7000159A00F0F3FF13901599C81C20F0030059
:104E8000401A0990FFE70998411E099140B1FFE7D8
:104E900013980DF12301012200F0E0FF1390F2E7D7
:104EA0001A980A990CAA06F07DFB8DF85B00FFE7C3
:104EB0009DF85B0050BBFFE71A980A992831189AB1
:104EC0009DF85030FFF76CFB8DF85B009DF82F00CC
:104ED000C00798B9FFE71A98199949680A9A9DF886
:104EE0005030033323F003031A44159B033323F09C
:104EF00003031A44283206F081F9FFE71A9818993B
:104F00009DF850200A9B05F0BFFFFFE79DF85B006E
:104F100080B9FFE71A980A999DF85020033222F0D1
:104F2000030211442831179A159BFFF739FB8DF8BE
:104F30005B00FFE79DF85B0070B9FFE71A980A99DC
:104F40006B4601225A6002221A600CAA0623FFF760
:104F50008DF98DF85B00FFE79DF85B0078BBFFE7FC
:104F60009DF82F00C00750B3FFE74DF22E40C0F66A
:104F7000000006F04DFB1A9801680391FEF71EFE33
:104F8000039902464DF26B30C0F6000006F040FB7C
:104F90004DF2A260C0F600004DF23C41C0F60001A7
:104FA0004FF4A06206F034FB4CF6B870C0F6000077
:104FB00006F02EFB1A99012081F83000FFE703E08C
:104FC00007208DF85B00FFE79DF85B008DF86F0010
:104FD000FFE79DF86F001CB080BD000080B586B073
:104FE00069460A20C860192088604FF480704860C4
:104FF00043F25C50C2F20000086043F2DC40C2F2AF
:1050000000004CF6B211C0F600014AF6E102C0F60B
:105010000002002304F05CFE0490049838B9FFE716
:1050200043F2DC40C2F2000004F0E0FE09E04CF67E
:105030007310C0F6000004F007FA4FF0FF3005903F
:1050400002E000200590FFE7059806B080BD000053
:1050500080B5A8B02690259124928DF88F3000203D
:105060008DF88E000CA85821FBF765F92498A8BB91
:10507000FFE7269825990CAA01F04EFA18B1FFE730
:105080000CA8249029E04DF22E40C0F6000006F056
:10509000BFFA269801680591FEF790FD0599024632
:1050A0004DF26B30C0F6000006F0B2FA4DF2A2608D
:1050B000C0F600004DF23C41C0F6000140F2BB32A8
:1050C00006F0A6FA25994CF6DE70C0F6000006F050
:1050D0009FFA05208DF89F008FE0FFE79DF88F0075
:1050E000C00798B9FFE726982499096D6B460022FE
:1050F0005A6003221A6007AA0623FFF7B7F88DF853
:105100008E002699012081F8A4003CE0269824997D
:10511000096D6B4601225A6004221A6007AA062311
:10512000FFF7A4F88DF88E00269890F8A400C00729
:1051300020BBFFE79DF88E0000BBFFE7259870B10C
:10514000FFE72698049025980390FBF729F9039927
:10515000024604984FF0FF3305F096FE0DE02498C8
:1051600050B1FFE72698249A02F1100192784FF08F
:10517000FF3305F089FEFFE7FFE7FFE726990020F0
:1051800081F8A400FFE72498006D2699C968B0FB58
:10519000F1F048430C3022909DF88E0040BBFFE7B1
:1051A0002698229907AA0423FEF7FCFF01281FD1A5
:1051B000FFE7269822996B4601225A6002221A6064
:1051C00007AA0423FFF752F88DF88E002698249939
:1051D000096DC268B1FBF2F1514302F099F80690F3
:1051E000069820B1FFE7069902208870FFE7FFE7E5
:1051F0009DF88E008DF89F00FFE79DF89F0028B076
:1052000080BD000083B00290019101980A2815D159
:10521000FFE7029800684CF6CD42CCF6CC42A0FBEA
:105220000231C90801EB8101A0EB41000090029915
:105230000868A0FB0220C008086009E00298006826
:1052400000F00F0000900299086800090860FFE76D
:10525000009803B07047000080B5ACB02A90299147
:1052600028922998119011980068109000200F90B2
:105270002A980078C007002800F0DD80FFE72A9810
:105280008078022806D0FFE72A988078032840F02B
:10529000D280FFE710982A9949680C316B460122A9
:1052A0005A6003221A600CAA0423FEF7DFFF2A9833
:1052B000406824302690FFE7109812A903F008FCFC
:1052C0009DF84900C00780B3FFE79DF84800022819
:1052D00005D0FFE79DF84800032826D1FFE7109886
:1052E00012A902F0ABFEF8B1FFE74DF22E40C0F676
:1052F000000006F08DF9109801680591FEF75EFC3C
:10530000059902464DF26B30C0F6000006F080F9B8
:105310009DF84A1012A800F110024DF25500C0F697
:10532000000006F075F9FFE72AE04DF22E40C0F6C6
:10533000000006F06DF9109801680491FEF73EFC3C
:10534000049902464DF26B30C0F6000006F060F999
:105350004DF2A260C0F600004DF23C41C0F60001E3
:1053600040F26A4206F054F99DF84A1012A800F182
:1053700010024DF25810C0F6000006F049F9FFE7A0
:10538000FFE710982A9912AA01F02CFF269001300D
:10539000002891D1FFE710982A9949684FF0FF3211
:1053A00001F04EFD119880680F902A98406811997D
:1053B000886010982A99002201F074FF10994861C2
:1053C0004DF22E40C0F6000006F022F91098016858
:1053D0000391FEF7F3FB039902464DF26B30C0F6E2
:1053E000000006F015F94DF2A260C0F600004DF283
:1053F0003C41C0F6000140F2724206F009F92A98D9
:1054000041684DF29820C0F6000006F001F91098AE
:105410000F9906AA012303F099FC58B9FFE70A98EF
:1054200011994968884204D9FFE701208DF8AF003F
:1054300005E0FFE7FFE700208DF8AF00FFE79DF8EC
:10544000AF002CB080BD000080B588B006900591FB
:10545000069800F1006004900598C00A0290BDF81B
:105460001400400520B1FFE7029801300290FFE7E9
:10547000FCF7B0F800200190FFE7019802998842FC
:105480001BD2FFE70498019900EBC120FBF7DEFF78
:105490008DF80F009DF80F00042806D0FFE7FCF7F9
:1054A0003FF84FF0FF3007900CE001F033F8FFE7D2
:1054B000FFE7019801300190DFE7FCF731F805982C
:1054C0000790FFE7079808B080BD000080B584B062
:1054D000029042F60940C2F20000007880B9FFE76E
:1054E0004CF62260C0F600004DF60101C0F6000146
:1054F0004DF2B572C0F6000206F08AF8FFE7FEE74B
:10550000029880B9FFE74CF62260C0F600004CF626
:10551000AB61C0F600014DF2B572C0F6000206F0B4
:1055200077F8FFE7FEE700200190FFE70198D8B980
:10553000FFE70298019A4CF2AC51C0F6000151F815
:1055400022101822FAF74AFF48B9FFE701994CF2F6
:10555000AC50C0F6000050F82100039007E0FFE7D0
:10556000019801300190E1E700200390FFE70398E4
:1055700004B080BD80B586B042F60940C2F200009A
:10558000007818B1FFE700200590A0E0002004900B
:10559000FFE70498002840F09180FFE704994CF25F
:1055A000AC50C0F6000050F82100806A80B9FFE7D7
:1055B0004CF62260C0F600004DF29B71C0F600016F
:1055C0004DF60902C0F6000206F022F8FFE7FEE7FA
:1055D00004994CF2AC50C0F6000050F82100C06AAB
:1055E00080B9FFE74CF62260C0F600004DF2E6718C
:1055F000C0F600014DF60902C0F6000206F008F8F8
:10560000FFE7FEE704994CF2AC50C0F6000050F8FA
:105610002100006B80B9FFE74CF62260C0F6000065
:105620004DF2CB71C0F600014DF60902C0F6000242
:1056300005F0EEFFFFE7FEE704994CF2AC50C0F630
:10564000000050F82100406A50B1FFE704994CF285
:10565000AC50C0F6000050F82100406A8047FFE7D8
:105660004DF22F70C0F600004DF60901C0F60001A2
:10567000312205F0CDFF04994CF2AC50C0F6000089
:1056800050F821309869DA69D3F820C06946C1F82A
:1056900008C04A6008604DF24070C0F60000182251
:1056A000114605F0B5FF4DF69A70C0F6000005F002
:1056B000AFFFFFE70498013004906AE742F6094122
:1056C000C2F200010120087000200590FFE7059854
:1056D00006B080BD80B582B0FFF74CFF0190019805
:1056E000B0F1FF3F01DCFFE703E000F035F9019086
:1056F000FFE70198012824DBFFE742F60840C2F2E9
:1057000000000078E8B9FFE742F60841C2F2000164
:10571000012008704DF2AB60C0F6000005F078FF84
:105720004DF2ED60C0F600004DF21F71C0F60001B1
:1057300005F06EFF4DF28C60C0F6000005F068FFCA
:1057400026E00198002822DCFFE742F60841C2F279
:105750000001002008704DF29260C0F600004DF28A
:105760002671C0F60001302205F052FF4DF2BC60F8
:10577000C0F600004DF21F71C0F6000105F048FFB1
:105780004DF28C60C0F6000005F042FFFFE7FFE736
:10579000019802B080BD000080B586B004900391EE
:1057A0000292002001900090049880B9FFE74CF627
:1057B0002260C0F600004DF67141C0F600014DF6C2
:1057C0000F42C0F6000205F023FFFFE7FEE7039853
:1057D000029908440499896B88421CD9FFE74DF26D
:1057E0009260C0F600004DF60F41C0F600014FF484
:1057F000F77205F00DFF4DF68120C0F6000005F0B0
:1058000007FF4DF28C60C0F6000005F001FF4FF07D
:10581000FF30059053E0049801F0C6FA009000981C
:1058200000BBFFE74DF29260C0F600004DF60F415D
:10583000C0F6000140F2F51205F0EAFE049800F10E
:105840001C01021D4DF60120C0F6000005F0E0FE2F
:105850004DF28C60C0F6000005F0DAFE4FF0FF302C
:1058600005902CE00098026B0498406B0399084463
:105870000299904701900198B0F1FF3F1CDCFFE7CF
:105880004DF29260C0F600004DF60F41C0F60001E7
:105890004FF4FE7205F0BCFE049800F11C014DF6B9
:1058A0004B00C0F6000005F0B3FE4DF28C60C0F670
:1058B000000005F0ADFEFFE701980590FFE70598B1
:1058C00006B080BD80B584B0029042F60A40C2F2B4
:1058D0000000007880B9FFE74CF62260C0F60000B7
:1058E0004DF60101C0F600014DF6B032C0F60002DF
:1058F00005F08EFEFFE7FEE700200190FFE701982C
:1059000043F21821C2F20001096888421DD2FFE764
:10591000029843F21421C2F200010968019A01EBD6
:1059200082110431FAF743FD50B9FFE743F2142026
:10593000C2F200000068019900EB8110039007E0BB
:10594000FFE7019801300190D9E700200390FFE7BD
:10595000039804B080BD000080B582B042F60A40D2
:10596000C2F20000007838B1FFE743F21820C2F21B
:1059700000000068019025E043F21420C2F200000C
:105980004CF6A001C0F60001016043F21821C2F2FA
:10599000000101220A6000680968FFF7A1F808B158
:1059A000FFE706E042F60A41C2F20001012008705A
:1059B000FFE700F063F943F21820C2F2000000682C
:1059C0000190FFE7019802B080BD000080B588B06B
:1059D000069005910492039300200290019006988E
:1059E00080B9FFE74CF62260C0F600004DF6714129
:1059F000C0F600014DF69D32C0F6000205F008FE2B
:105A0000FFE7FEE7049880B9FFE74CF62260C0F696
:105A100000004DF63741C0F600014DF69D32C0F64C
:105A2000000205F0F5FDFFE7FEE70598039908443D
:105A30000699896B88421CD9FFE74DF29260C0F647
:105A400000004DF69D31C0F600014FF4CF7205F015
:105A5000DFFD4DF64B20C0F6000005F0D9FD4DF2FC
:105A60008C60C0F6000005F0D3FD4FF0FF300790CA
:105A700054E0069801F098F90190019800BBFFE707
:105A80004DF29260C0F600004DF69D31C0F6000167
:105A900040F2A51205F0BCFD069800F11C01021DA4
:105AA0004DF6B810C0F6000005F0B2FD4DF28C6066
:105AB000C0F6000005F0ACFD4FF0FF3007902DE080
:105AC0000198836A0698406B059908440499039AE3
:105AD000984702900298B0F1FF3F1CDCFFE74DF2BF
