:020000040800F2
:10000000F837002045010008491000080D020008DB
:10001000510F0008AD0A0008412F00080000000041
:10002000000000000000000000000000191B000894
:10003000710B000800000000970100089D1C0008DB
:100040005F0100085F0100085F0100085F01000810
:100050005F0100085F0100085F0100085F01000800
:100060005F0100085F0100085F0100085F010008F0
:100070005F0100085F0100085F0100085F010008E0
:100080005F0100085F0100085F0100085F010008D0
:100090005F0100085F0100085F0100085F010008C0
:1000A0005F0100085F0100085F0100085F010008B0
:1000B000151D0008391D00085F0100085F010008D8
:1000C0005F0100085F0100085F0100085F01000890
:1000D0005F010008AD290008392A0008D12A00086C
:1000E0005F0100085F0100085F0100085F01000870
:1000F0005F0100085F0100085F0100085F01000860
:100100005F0100085F0100085F0100085F0100084F
:10011000B1250008612700085F0100085F010008A1
:100120005F0100085F0100085F0100085F0100082F
:10013000DFF80CD000F01CFA00480047F905000871
:10014000F83700200648804706480047FEE7FEE7EC
:10015000FEE7FEE7FEE7FEE7FEE7FEE7FEE7FEE777
:10016000AD1C000831010008EFF3108072B6704733
:1001700080F310887047324A1368012B04D04FF087
:10018000010313602F4A10602F4A11602F484FF06F
:10019000805101607047EFF3108272B62848016801
:1001A00091B14FF0000101602648016829B1EFF3D9
:1001B000098121E9F00F0068016023490968096895
:1001C000B1E8F00F81F3098882F310884EF0040E35
:1001D00070471D4908601B494FF00000086018492E
:1001E0004FF0010008601A481A49D0F8002041EA8F
:1001F0000201016015484FF0805101601648006807
:10020000006880F3088861B662B670471EF0040F7C
:100210000CBFEFF30880EFF3098020E9F00F40F8FE
:1002200004ED1EF0040F0CBF80F3088880F30988EA
:1002300000B504F0D5FE5DF804EB4EF0040E7047F7
:1002400004310020682E0020702E002004ED00E014
:1002500020ED00E00000FFFF08ED00E038B5D0E938
:100260000221491E01EB410102EBC1014268C1EBD1
:10027000011102EB81010268C1EB011102EB810265
:10028000D0E9043101EB410103EB81013023A1F5F9
:10029000527191FBF3F4174D6C4302EBC41291FBC6
:1002A000F3F403FB141100921A2902DB124B1A44D7
:1002B00000920C2291FBF2F3104C6343009C04EB80
:1002C000C313009391FBF2F302FB13110C4A08E0F5
:1002D000491E40F2A324535C6343009C04EBC31308
:1002E00000930029F4DC0146684600F0C3F800984A
:1002F00038BD00003F0C0F008051010067C20300B1
:100300006272000840EA01039B0703D009E008C9B4
:10031000121F08C0042AFAD203E011F8013B00F8CA
:10032000013B521EF9D27047D2B201E000F8012B16
:10033000491EFBD270470022F6E710B513460A4665
:1003400004461946FFF7F0FF204610BD421E12F882
:10035000013F002BFBD111F8013B02F8013B002BC0
:10036000F9D1704730B505462A460B4612F8010B05
:1003700013F8014B08B1A042F8D01CB1002802D0FC
:100380006D1CF1E7284630BD80EA010210B502F08D
:100390000043400022D04A001FD0010E01EB126141
:1003A000C0F35600C2F3560240F4000042F40002CB
:1003B000A0FB022000047F39140400D0401C50EA46
:1003C000124001D44000491EC2B20C0604EBD0100A
:1003D000401C4008802A02D003E0002010BD20F01D
:1003E0000100002900DA0020184310BD002801DBBD
:1003F000C0F10040002901DBC1F10041814201D37D
:10040000012070470020704700F0004220F00040BB
:10041000C10DC0F3160040F400007F2901DA00206E
:100420007047962903DCC1F19601C84001E0963976
:100430008840002AF4D04042704701F0004330B4B5
:1004400021F0004150EA010206D00A0DA2F56072C7
:10045000C1F31301002A02DC30BC00207047440FB6
:1004600044EAC104C100E01830BC00EBC25000F007
:1004700047B8000010B500683C22B0FBF2F302FB65
:100480001303B0FBF2F00B60B0FBF2F302FB1303BB
:10049000B0FBF2F018224B60B0FBF2F302FB130347
:1004A000B0FBF2F0021D8B600723B2FBF3F403FBF9
:1004B0001422800040F2B55300F66C308A61B0FB24
:1004C000F3F2B0FBF3F403FB1400443280084A61FA
:1004D000C8613B2802D3920700D0401C0022074C81
:1004E00013460A61E25C824203D8801A5B1C0B61EE
:1004F000F8E7401CC860084610BD00006E72000896
:100500000029A8BF7047401C490008BF20F0010027
:10051000704710B4B0FA80FC00FA0CF050EA010405
:1005200004BF10BC704749B1CCF1200421FA04F497
:1005300011FA0CF118BF012121430843A3EB0C0170
:10054000CB1D4FEA00614FEA102042BF002010BCD3
:10055000704700EBC35010440029A4BF10BC704783
:10056000401C490008BF20F0010010BC704700008B
:100570001CB509480090094801900546009C06E01A
:10058000E06840F0010394E8070098471034AC425B
:10059000F6D3FFF7D1FD0000907B0008B07B000888
:1005A00070B58C1810F8015B15F0070301D110F835
:1005B000013B2A1106D110F8012B03E010F8016B62
:1005C00001F8016B5B1EF9D12B0705D40023521EE5
:1005D0000DD401F8013BFAE710F8013BCB1A921C4D
:1005E00003E013F8015B01F8015B521EF9D5A1424B
:1005F000D8D3002070BD000080B506F0CBFA0020F3
:1006000080BD000080B582B0019000208DF803000D
:1006100040F29011C2F2000101200870FFE79DF83E
:10062000030000EB400140F26C00C2F2000000EB5E
:10063000810250F821005168128900F0F7F820B9C2
:10064000FFE700208DF803002BE09DF80300013048
:100650008DF803009DF80300022821D3FFE740F244
:100660009410C2F2000005F033FD88B9FFE70020C6
:100670008DF8030040F29011C2F20001087005F0FD
:1006800099FA40F21440C2F2000005F001FD06E0C4
:1006900047F2F060C0F6000004F01AFEFFE705E044
:1006A000FFE74FF47A7005F091FCB8E702B080BD27
:1006B00080B584B010200090012100F089FD0098E1
:1006C00020210291ADF80C108DF80F0003208DF859
:1006D0000E0041F20000C4F20100019003A900F0F5
:1006E00049FA0198029900F087FB04B080BD000030
:1006F00080B586B04FF4E13001F0D8FDFFF7D8FFA8
:1007000069460A20C86088604FF40070486040F273
:100710001420C2F20000086040F29410C2F20000FF
:1007200047F65701C0F6000140F20562C0F600022C
:10073000002305F01FFC0590059838B1FFE747F24C
:100740004570C0F6000004F0C3FD6CE040F2941068
:10075000C2F2000005F09CFC0590059838B1FFE757
:1007600047F28170C0F6000004F0B2FD5BE069461C
:100770000A20C86088604FF40070486040F214702E
:10078000C2F20000086040F29460C2F2000047F23A
:10079000E271C0F6000140F20562C0F600020023DB
:1007A00005F0E8FB0590059838B1FFE747F20F70B8
:1007B000C0F6000004F08CFD35E040F29460C2F217
:1007C000000005F065FC0590059838B1FFE747F299
:1007D0006370C0F6000004F07BFD24E069460A2047
:1007E000C86088604FF40070486040F29440C2F2E4
:1007F0000000086040F21440C2F2000047F63101E8
:10080000C0F6000140F68D12C0F60002002305F08C
:10081000B1FB059838B1FFE747F22C70C0F6000035
:1008200004F056FDFFE706B080BD000080B588B03B
:1008300006900591ADF8122005208DF8100006985D
:1008400047F2DA61C0F60001FFF780FD40F2840054
:10085000C2F200000068002103914FF4807204F09E
:10086000BDFE03988DF81100FFE706989DF8111062
:10087000405CE0B1FFE706989DF81110415C43F63B
:100880000000C4F2010002F04FFBFFE743F6000056
:10089000C4F20100802102F0CDF908B9FFE7F5E7C5
:1008A000FFE79DF8110001308DF81100DDE742F6F9
:1008B0007831C2F200010B68581C0860069847F2B4
:1008C000F252C0F6000269468A60486047F2ED5075
:1008D000C0F60000086047F2CA61C0F6000147F2A6
:1008E000F752C0F60002002000F0B8FE059800287C
:1008F00043D0FFE740F28400C2F20000016800200C
:1009000081F8FF00FFE740F28400C2F200000068B7
:100910000599FFF727FD80B9FFE79DF81000411EFC
:100920008DF8101020B9FFE700208DF81F0028E097
:10093000BDF8120005F04AFBE5E742F67831C2F255
:1009400000010B68581C0860059847F2F252C0F687
:10095000000269468A60486047F2ED50C0F6000028
:10096000086047F2B761C0F6000147F2F752C0F6DF
:100970000002002000F072FEFFE701208DF81F004A
:10098000FFE79DF81F0008B080BD000080B582B071
:100990000190FFE740F29010C2F2000000780128B9
:1009A00017D1FFE740F29410C2F2000090F8340033
:1009B00002280DD1FFE740F29410C2F2000005F0CA
:1009C00011FB47F2A070C0F6000004F081FCFFE7C5
:1009D00033E040F29010C2F200000078014600912E
:1009E00040B1FFE7009802280BD0FFE700980328EA
:1009F00008D021E040F29011C2F2000102200870FC
:100A00001AE019E040F20002C2F2000210685168D8
:100A10001289FFF70BFF38B9FFE747F2DD60C0F638
:100A2000000004F055FC06E047F2B770C0F6000085
:100A300004F04EFCFFE7FFE7FFE74FF47A7005F0A4
:100A4000C5FAA7E780B5012000F0FAFB002000F00E
:100A5000F7FB80BD82B0ADF806000020009046F69E
:100A60000040C4F200000090BDF806100098084451
:100A700000900098008802B07047000082B0ADF886
:100A80000600ADF804100020009046F60040C4F2C5
:100A900000000090BDF80610009808440090BDF8D2
:100AA00004000099086002B070470000FFE7FEE70D
:100AB00082B001908DF803109DF8030030B1FFE77C
:100AC0000199086840F00100086006E00199086893
:100AD0004FF6FE7210400860FFE702B0704700005A
:100AE00081B000900098406880B201B0704700006B
:100AF00080B583B0029001910020009002980068B8
:100B00000090009847F6F071884300900199D1F861
:100B100020E08868D1F810C04B698A6940EA0E006D
:100B200040EA0C0018431043CA6910434A6A104354
:100B3000896A014300980843009000980299086070
:100B40000198C0680299486001980068029988601D
:100B5000019840680299C86003B080BD82B00190DE
:100B6000ADF80210BDF802000199486002B070476C
:100B70007047000088B0079006910020059004900F
:100B800003900290019000900698C07800F00F004A
:100B900005900698C078C006002806D5FFE706989D
:100BA0008178059808430590FFE7069800780028AB
:100BB0004BD0FFE707980068019000200390FFE703
:100BC000039807283DD8FFE7039901208840029049
:100BD0000698008802990840049004980299884277
:100BE0002AD1FFE703988000029002990F208840E5
:100BF000009000990198884301900598029900FAA5
:100C000001F10198084301900698C078282806D180
:100C1000FFE7039901208840079948610BE0069897
:100C2000C078482806D1FFE703990120884007993A
:100C30000861FFE7FFE7FFE7FFE703980130039054
:100C4000BEE7019807990860FFE706980088B0F5AD
:100C5000807F50DBFFE707984068019000200390F9
:100C6000FFE70398072842D8FFE7039800F108013F
:100C7000012088400290069800880299084004905C
:100C80000498029988422DD1FFE7039880000290D2
:100C900002990F20884000900099019888430190A4
:100CA0000598029900FA01F101980843019006980D
:100CB000C078282808D1FFE7039800F10801012037
:100CC000884007994861FFE70698C078482808D10E
:100CD000FFE7039800F108010120884007990861A7
:100CE000FFE7FFE7FFE7039801300390B9E70198BA
:100CF00007994860FFE708B07047000086B005908C
:100D00008DF81310002003900290019000909DF840
:100D100017000006002806D5FFE71C20C4F20100DA
:100D20000068019005E00420C4F201000068019011
:100D3000FFE70598C0F303400090BDF8140003904E
:100D4000059800F44010B0F5401F0CD1FFE7019862
:100D500020F0706001900421C4F20101086820F0C5
:100D60007060086023E09DF81600C00600280DD5CD
:100D7000FFE7009903208840029002990198884378
:100D80000190019840F0706001900FE00398059A7F
:100D90006FF00F0101EA524100FA01F10198884316
:100DA0000190019840F070600190FFE7FFE79DF827
:100DB000130060B1FFE70398059A6FF00F0101EA95
:100DC000524100FA01F1019808430190FFE79DF8B4
:100DD00017000006002806D5FFE701981C21C4F281
:100DE0000101086005E001980421C4F201010860D6
:100DF000FFE706B07047000082B00190ADF8021026
:100E0000BDF802000199086102B0704780B586B054
:100E100000200590694648604FF44070086042F633
:100E20000060C2F2000047F2AA61C0F6000141F280
:100E30001422C2F200024FF4807304F029FC0590E2
:100E4000059808B1FFE74FE069466420C8601620A6
:100E500088604FF48060486040F61460C2F2000081
:100E6000086040F69450C2F2000047F29E61C0F65E
:100E7000000140F6ED62C0F60002002305F07AF8AA
:100E80000590059838B9FFE740F69450C2F200008B
:100E900005F0FEF800E0FFE769466420C860162010
:100EA00088604FF48060486040F69410C2F2000001
:100EB000086040F61410C2F2000047F29E61C0F6CE
:100EC000000140F62972C0F60002002305F052F836
:100ED0000590059838B9FFE740F61410C2F20000FB
:100EE00005F0D6F800E0FFE706B080BD80B5C2B0DF
:100EF0004190FFE742F60060C2F2000001A94FF402
:100F000080724FF0FF3304F01BFC58B9FFE701A8D3
:100F1000009003F079FF009800214FF4807204F0F4
:100F20005DFBFFE7E6E7000080B582B0019001219C
:100F30004FF4E1320023184603F0B8F802F068FCE1
:100F4000FFE703F04BF90A2005F040F8F9E700004D
:100F5000FFE7FEE780B582B04FF08050012101919C
:100F600000F0FEF801994FF0006000F0F9F80198E8
:100F700000F0CEF80420FFF76DFD4AF2B55188422B
:100F800026D0FFE7FFF75EFD012000F061FAFFE7E2
:100F9000612000F01BFA012801D0FFE7F8E74FF4C9
:100FA000007000F06DFA012000F05EFA00F0C2FA65
:100FB00000F0B4FA49F63F4000F098FA00F0AEFABB
:100FC00000F020F804204AF2B551FFF757FD16E073
:100FD000012000F03DFAFFE7612000F0F7F9012859
:100FE00001D0FFE7F8E74FF4007000F049FA012064
:100FF00000F03AFA00F09EFA00F090FAFFE702B033
:1010000080BD000080B58CB040F28800C2F20000C4
:101010000188A1F26C7105914188013904918188A0
:101020000391C1880291018901914089009068462D
:10103000FFF714F9A0F5E1400B900B9800F040FA8F
:1010400000F06CFA0CB080BD7047000084B00390D3
:101050000020029001900F2000900398C078B8B350
:10106000FFE74EF60C50CEF200000068C043C0F31C
:10107000022002900298C0F10400019000980299A9
:10108000C8400090039840780199884002900398E6
:10109000807800990140029808430290029800016C
:1010A00002900298039909784EF20042CEF20002B3
:1010B00088540398027802F01F01012088401C2107
:1010C00001EAD2014EF20012CEF2000288500EE088
:1010D0000398027802F01F01012088401C2101EAD8
:1010E000D2014EF28012CEF200028850FFE704B027
:1010F0007047000081B0009000980021C0F2FA51C2
:1011000008434EF60C51CEF20001086001B0704762
:1011100081B08DF803009DF803002021C4F20E2158
:10112000086001B07047000082B001908DF8031094
:101130009DF8030048B1FFE7019A41F21401C4F29F
:10114000020108681043086008E0019A41F21401A6
:10115000C4F20201086890430860FFE702B07047DC
:1011600082B001908DF803109DF8030048B1FFE7AD
:10117000019A41F21C01C4F20201086810430860A0
:1011800008E0019A41F21C01C4F202010868904390
:101190000860FFE702B0704782B001908DF803103D
:1011A0009DF8030048B1FFE7019A41F21001C4F233
:1011B000020108681043086008E0019A41F210013A
:1011C000C4F20201086890430860FFE702B070476C
:1011D00082B001908DF803109DF8030048B1FFE73D
:1011E000019A41F21801C4F2020108681043086034
:1011F00008E0019A41F21801C4F202010868904324
:101200000860FFE702B0704782B001908DF80310CC
:101210009DF8030048B1FFE7019A41F20C01C4F2C6
:10122000020108681043086008E0019A41F20C01CD
:10123000C4F20201086890430860FFE702B07047FB
:1012400081B08DF803009DF8030040F24041C4F2E4
:101250004221086001B0704786B0059000200490DC
:1012600003900290019041F20400C4F20200006871
:1012700000F00C0004900498009040B1FFE7009843
:1012800004280BD0FFE7009808280ED047E0059906
:1012900041F20020C0F27A00086047E0059941F26F
:1012A0000020C0F27A00086040E041F20400C4F27D
:1012B0000200016801F470110391006800F48030AD
:1012C00002900399022000EB91400390029848B9E4
:1012D000FFE7039840F60011C0F23D01484305992D
:1012E00008601BE041F20400C4F2020000688003C1
:1012F000002809D5FFE7039840F60011C0F23D0130
:1013000048430599086008E0039841F20021C0F2C3
:101310007A01484305990860FFE7FFE706E0059971
:1013200041F20020C0F27A000860FFE741F20400B9
:10133000C4F20200016801F0F00104910499090966
:101340000491049A47F27E21C0F600018A5C019262
:10135000059B1A68DDF804C022FA0CF25A60026894
:1013600002F4E0620492049A120A0492049A8A5CDB
:101370000192059B5A68DDF804C022FA0CF29A60CB
:10138000026802F460520492049AD20A0492049A07
:10139000895C0191059A5168019BD940D160006830
:1013A00000F4404004900498800B0490049947F2A4
:1013B0007A20C0F60000405C01900599C868019A47
:1013C000B0FBF2F0086106B07047000084B08DF801
:1013D0000F000020029001908DF803009DF80F008F
:1013E000400902900298012807D1FFE741F200006E
:1013F000C4F202000068019012E00298022807D1AE
:10140000FFE741F22000C4F202000068019006E00C
:1014100041F22400C4F2020000680190FFE7FFE7F8
:101420009DF80F0000F01F00029001980299C8403B
:10143000C00720B1FFE701208DF8030003E0002082
:101440008DF80300FFE79DF8030004B0704700002B
:1014500081B08DF803009DF8030040F28041C4F292
:101460004221086001B0704781B08DF803009DF8FB
:10147000030040F23C41C4F24221086001B07047D1
:1014800081B00090009A41F22001C4F20201086884
:101490001043086001B0704742F60401C4F2000135
:1014A000088840F0100008807047000042F60401F0
:1014B000C4F20001088820F0100008807047000086
:1014C00080B582B00190FFF7E7FFBDF8060042F655
:1014D0001801C4F200010880019842F61C01C4F210
:1014E00000010880FFF7E2FF02B080BD80B582B046
:1014F0000190FFF7D1FF0198C0F3034042F60801C5
:10150000C4F200010880019842F60C01C4F2000107
:101510000880FFF7CBFF02B080BD0000FFE742F676
:101520000400C4F2000000888006002801D4FFE710
:10153000F5E7704742F60401C4F20001088820F084
:1015400008000880FFE742F60400C4F200000088AB
:101550000007002801D4FFE7F5E7704780B586B0A3
:10156000059004910392FFE741F61C20C2F20000AF
:10157000019001980078532803D0FFE701F0E2FCC6
:10158000FFE7FFE7EFF311804FF0200181F31188AF
:10159000009005980499039A00F008F802900098CA
:1015A00080F31188029806B080BD000080B58AB033
:1015B00009900891079208980490099800EB40015F
:1015C00041F61C20C2F2000000EBC100183003906D
:1015D00003984069029040B1FFE70298012819D0B2
:1015E000FFE7029802282CD032E0039801F0F8FCC3
:1015F000059005980799884203D2FFE700200690DE
:1016000007E00798069003980499079A01F070FF85
:10161000FFE720E0039801F0E3FC059005980799A7
:10162000884203D2FFE70598019002E007980190F5
:10163000FFE70198069003980499069A01F058FF75
:1016400009E003980499079A01F0E2FE069002E08F
:1016500000200690FFE706980AB080BD82B080B5F2
:1016600084B0079306920390029106A80090039815
:1016700002996A4600F008F80190019804B0BDE8AC
:10168000804002B07047000080B5AAB02990289130
:1016900027920DA821904020229000202390299984
:1016A00025912490FFE7289800788DF89B002898D2
:1016B000013028909DF89B0008B9FFE717E29DF8DC
:1016C0009B00252840F00682FFE700201E900120A5
:1016D0002090FFE7289800788DF89B009DF89B00EC
:1016E0002338014609910D2829D80999DFE801F02E
:1016F0001F2727272727272717270727270F1E9862
:1017000040F001001E902898013028901AE01E98A1
:1017100040F002001E9028980130289012E01E9898
:1017200040F004001E902898013028900AE01E988E
:1017300040F008001E9028980130289002E0002018
:101740002090FFE7FFE720980028C3D1FFE70020A3
:101750001D90FFE7289800788DF89B009DF89B006E
:10176000302805DBFFE79DF89B003A2801DBFFE707
:1017700010E02898013028901D9800EB80019DF81A
:101780009B0000EB410030381D90FFE7012000284E
:10179000E0D1FFE700201F90289800788DF89B008B
:1017A0009DF89B002E2825D1FFE72898013028902E
:1017B000FFE7289800788DF89B009DF89B00302863
:1017C00005DBFFE79DF89B003A2801DBFFE710E00F
:1017D0002898013028901F9800EB80019DF89B000D
:1017E00000EB410030381F90FFE701200028E0D1D6
:1017F000FFE7FFE7289800788DF89B00FFE79DF84A
:101800009B006C2805D0FFE79DF89B00682808D155
:10181000FFE7289801302890289800788DF89B00E1
:1018200000E004E0FFE701200028E8D1FFE79DF891
:101830009B00253801460891532800F246810899FB
:10184000DFE811F0D80043014301430143014301A4
:101850004301430143014301430143014301430168
:101860004301430143014301430143014301430158
:101870004301430143014301430143014301430148
:10188000430143014301DD0043014301430143019F
:101890004301430143014301430143014301430128
:1018A000430143014301430143018B0043014301D1
:1018B0004301430143014301430143014301430108
:1018C000540063004301DD00430143014301430130
:1018D00043014301430143014301C7004301430165
:1018E0009F0043017700430143018B00279A106852
:1018F000011D11600068209020988DF833009DF83C
:10190000331021A801F048FDE0E0279A1068011D7E
:1019100011600068209020991F9B1D98DDF878C009
:101920006A46C2F804C0106021A80A2201F078FBC0
:10193000CCE0279A1068011D116000682090209962
:101940001F9B1D98DDF878C06A46C2F804C010607D
:1019500021A80A2201F04AFCB8E0279A1068011D6C
:1019600011600068209020991F9B1D98DDF878C0B9
:101970006A46C2F804C0106021A8102201F036FCAB
:10198000A4E0279A1068011D116000680B900B9865
:1019900030B9FFE747F29760C0F600000B90FFE711
:1019A000FFE70B9800788DF89B000B9801300B90A7
:1019B0009DF89B0008B9FFE70AE09DF89B1021A85D
:1019C00001F0EAFCFFE72498B0F1FF3FE9DCFFE714
:1019D0007CE0279A1068011D116000682090209912
:1019E0006846002242600823036021A8102201F00B
:1019F000FDFB6BE021A8252101F0CEFC66E0279AD3
:101A00001068073020F0070101F108001060086835
:101A10004968FEF712FD0A900A980021FEF7E6FCDD
:101A200028B9FFE721A82D2101F0B6FCFFE70A98AD
:101A3000FEF7EAFC06900028079002D5069840427F
:101A400007900798209020991F9B1D98DDF878C07B
:101A50006A46C2F804C0106021A803900A220292CC
:101A600001F0DEFA03982E2101F096FC0A9800217D
:101A7000C4F2C821FEF788FCFEF7C6FC04900028DB
:101A8000059002D5049840420590029A0398059962
:101A90002091DDF880C048F21F51C5F2EB118CFB9C
:101AA0000113591101EBD371642301FB13C1209180
:101AB00020991D9BDDF878E0EC46CCF804E0CCF8EA
:101AC0000030022301F0ACFA00E0FFE72898013073
:101AD000289005E09DF89B1021A801F05DFCFFE730
:101AE000FFE72498B0F1FF3F3FF7DDADFFE7249813
:101AF00001280EDBFFE7239830B1FFE72998239AEE
:101B00000DA9FFF72BFDFFE72399249808442490A3
:101B1000FFE724982AB080BD7047000080B500F030
:101B200001F880BD84B000200390029041F20001D2
:101B3000C4F20201086840F480300860FFE741F217
:101B40000000C4F20200006800F400300290039824
:101B500001300390FFE702990020019039B9FFE7B7
:101B60000398B0F5A06018BF01200190FFE701982D
:101B7000C0070028E3D1FFE741F20000C4F20200F1
:101B800000688003002803D5FFE70120029002E0EF
:101B900000200290FFE70298012851D1FFE742F2AE
:101BA0000001C4F20201086840F0100008600868F3
:101BB00020F003000860086840F00200086041F26D
:101BC0000401C4F202010091086808600868086016
:101BD000086840F480600860086820F47C100860A1
:101BE000086840F4E810086041F20001C4F2020104
:101BF000086840F080700860FFE741F20000C4F21E
:101C0000020000688001002801D4FFE7F5E741F2F7
:101C10000401C4F20201086820F0030008600868AB
:101C200040F002000860FFE741F20400C4F2020045
:101C3000006800F00C00082801D0FFE7F4E700E09E
:101C4000FFE704B07047000080B582B000900098B4
:101C50000138B0F1807F03D3FFE70120019019E044
:101C6000009801384EF21401CEF2000108604FF0E6
:101C7000FF300F2101F07EFC4EF21801CEF2000180
:101C8000002008604EF21002CEF20002072111601F
:101C90000190FFE7019802B080BD000080B503F01D
:101CA00091FA04F0C5FA03F09FFA80BD80B541F2C5
:101CB0000002C4F20202106840F00100106041F21C
:101CC0000401C4F2020108680023CFF6FF031840A4
:101CD000086010684FF6FF73CFF6F6631840106087
:101CE000106820F480201060086820F4FE0008606E
:101CF00041F20801C4F202014FF41F000860FFF72F
:101D00000DFF4EF60851CEF200014FF00060086062
:101D100080BD000080B54FF08040012100F090F9B7
:101D200040B1FFE703F068F84FF08040012100F078
:101D300017F8FFE780BD000080B540F20040C4F214
:101D40000000012100F07CF940B1FFE740F20040C3
:101D5000C4F20000012100F003F8FFE780BD00009D
:101D600082B00190ADF80210BDF80200C0430199A5
:101D7000088202B07047000082B001908DF8031015
:101D80009DF8030030B1FFE70199088840F0010099
:101D9000088005E00199088820F001000880FFE72D
:101DA00002B0704780B592B01190119842F6004190
:101DB000C4F2010188420BD1FFE74FF4006010909C
:101DC0000121FFF721FA10980021FFF71DFA34E1F5
:101DD0001198B0F1804F0AD1FFE701210F91084619
:101DE000FFF7DAF90F980021FFF7D6F924E11198EF
:101DF00040F20041C4F2000188420AD1FFE702200C
:101E00000E900121FFF7C8F90E980021FFF7C4F9E1
:101E100011E1119840F60001C4F2000188420AD194
:101E2000FFE704200D900121FFF7B6F90D9800217E
:101E3000FFF7B2F9FEE0119840F60041C4F200014C
:101E400088420AD1FFE708200C900121FFF7A4F98E
:101E50000C980021FFF7A0F9EBE0119841F2000186
:101E6000C4F2000188420AD1FFE710200B90012143
:101E7000FFF792F90B980021FFF78EF9D8E011983F
:101E800041F20041C4F2000188420AD1FFE720205C
:101E90000A900121FFF780F90A980021FFF77CF9E9
:101EA000C5E0119843F20041C4F2010188420BD110
:101EB000FFE74FF4005009900121FFF7A5F90998B9
:101EC0000021FFF7A1F9B1E0119844F60041C4F2F6
:101ED000010188420BD1FFE74FF400200890012157
:101EE000FFF792F908980021FFF78EF99DE011980D
:101EF00045F20001C4F2010188420BD1FFE74FF423
:101F0000801007900121FFF77FF907980021FFF764
:101F10007BF989E0119845F20041C4F20101884241
:101F20000BD1FFE74FF4001006900121FFF76CF989
:101F300006980021FFF768F975E0119841F6000155
:101F4000C4F2000188420AD1FFE740200590012138
:101F5000FFF722F905980021FFF71EF962E01198BA
:101F600041F60041C4F2000188420AD1FFE7802017
:101F700004900121FFF710F904980021FFF70CF9F4
:101F80004FE0119842F20001C4F2000188420BD1E7
:101F9000FFE74FF4807003900121FFF7FDF80398ED
:101FA0000021FFF7F9F83BE0119844F20001C4F278
:101FB000010188420BD1FFE74FF4803002900121EC
:101FC000FFF722F902980021FFF71EF927E0119888
:101FD00044F20041C4F2010188420BD1FFE74FF403
:101FE000003001900121FFF70FF901980021FFF760
:101FF0000BF913E0119844F60001C4F20101884284
:102000000BD1FFE74FF4802000900121FFF7FCF88F
:1020100000980021FFF7F8F8FFE7FFE7FFE7FFE789
:10202000FFE7FFE7FFE7FFE7FFE7FFE7FFE7FFE780
:10203000FFE7FFE7FFE7FFE7FFE712B080BD000023
:1020400083B00290ADF8061000208DF80500ADF8C1
:102050000200ADF800000298008ABDF806100840A2
:10206000ADF8020002988089BDF806100840ADF86E
:102070000000BDF8020040B1FFE7BDF8000020B14C
:10208000FFE701208DF8050003E000208DF8050032
:10209000FFE79DF8050003B07047000082B0019093
:1020A000ADF802108DF801209DF8010038B1FFE76E
:1020B000BDF80220019988891043888106E0BDF8A7
:1020C00002200199888990438881FFE702B0704718
:1020D00081B000900099088920F00700088101B0C4
:1020E0007047000082B00190ADF80210BDF8020008
:1020F0000199888402B0704783B00290019100205A
:10210000ADF8020002980088ADF80200029842F68D
:102110000041C4F20101884225D0FFE7029843F252
:102120000041C4F2010188421DD0FFE70298B0F1DE
:10213000804F18D0FFE7029840F20041C4F200013E
:10214000884210D0FFE7029840F60001C4F2000177
:10215000884208D0FFE7029840F60041C4F200012F
:1021600088420ED1FFE7BDF8020020F07000ADF804
:10217000020001984188BDF802000843ADF8020052
:10218000FFE7029841F20001C4F20001884216D034
:10219000FFE7029841F20041C4F2000188420ED0EC
:1021A000FFE7BDF8020020F44070ADF8020001988E
:1021B000C188BDF802000843ADF80200FFE7BDF892
:1021C0000200029908800198808802998885019808
:1021D000008802990885029842F60041C4F2010184
:1021E000884220D0FFE7029843F20041C4F2010187
:1021F000884218D0FFE7029844F20001C4F20101BE
:10220000884210D0FFE7029844F20041C4F2010175
:10221000884208D0FFE7029844F60001C4F20101A9
:10222000884205D1FFE70198007A02990886FFE706
:1022300002990120888203B07047000080B58EB0FB
:10224000012102910846FEF76FFF43F60400C4F235
:102250000100039000200990079041F21A71C2F228
:102260000001023104910A908021089105904FF4F9
:102270008071069120210B910D904FF480500C90AD
:102280005820C4F20200019003A9FEF731FC029A23
:1022900043F60000C4F20100402100F0B1FC0198B7
:1022A0000299FEF705FC0EB080BD000080B590B02D
:1022B0000F904FF4804001210791FEF789FF0799A5
:1022C00004200290FEF784FF4FF40070ADF8380050
:1022D000032005908DF83A0018208DF83B0040F659
:1022E0000000C4F2010003900EA90491FEF742FC25
:1022F000029A039804994FF48063ADF838308DF852
:102300003B20FEF737FC0F980A9000200890ADF8AC
:102310002C00ADF82E00ADF83000ADF834000C20E4
:10232000ADF8320043F60000C4F2010006900AA99D
:1023300000F044FD0698079A40F2255100F0F4FCA5
:102340000698079A40F2244100F0EEFC0698089A9D
:1023500040F2266100F0E8FC0598079925228DF8E7
:1023600024208DF827108DF825108DF8260009A857
:10237000FEF76CFEFFF762FF0698079900F02AFC53
:10238000089842F66432C2F200021368591C1160C8
:1023900047F2F251C0F600016A46516047F2ED5132
:1023A000C0F60001116047F2D151C0F6000147F2BA
:1023B000F752C0F60002FFF751F910B080BD0000DF
:1023C00080B58EB0012102910846FEF7ADFE44F6BD
:1023D0000400C4F20000039000200990079041F629
:1023E0001A11C2F20001023104910A908021089171
:1023F00005904FF48071069120210B910D904FF4C0
:1024000080500C903020C4F20200019003A9FEF726
:102410006FFB029A44F60000C4F20000402100F075
:10242000EFFB01980299FEF743FB0EB080BD000060
:1024300080B590B00F904FF4802001210791FEF7F6
:102440008FFE07990820FEF7C3FE4FF48060ADF8B9
:102450003800032005908DF83A0018208DF83B00D5
:1024600040F60040C4F2010003900EA90491FEF76B
:1024700081FB039804994FF40062ADF838200422E0
:102480008DF83B20FEF776FB0F980A90002008900D
:10249000ADF82C00ADF82E00ADF83000ADF83400EA
:1024A0000C20ADF8320044F60000C4F200000690A3
:1024B0000AA900F083FC0698079A40F2255100F023
:1024C00033FC0698079A40F2244100F02DFC069850
:1024D000089A40F2266100F027FC05980799272208
:1024E0008DF824208DF827108DF825108DF8260002
:1024F00009A8FEF7ABFDFFF763FF0698079900F008
:1025000069FB089842F66832C2F200021368591C4F
:10251000116047F2F251C0F600016A46516047F27D
:10252000ED51C0F60001116047F20561C0F60001EF
:1025300047F2F752C0F60002FFF790F810B080BDE6
:1025400080B58EB0022001210291FEF7EDFD44F628
:102550000440C4F20000039000200990079041F26B
:102560001751C2F20001023104910A9080210891B2
:1025700005904FF48071069120210B910D904FF43E
:1025800080500C9040F23040C4F20200019003A948
:10259000FEF7AEFA029A44F60040C4F20000402171
:1025A00000F02EFB01980299FEF782FA0EB080BD72
:1025B00080B584B044F60040C4F2000040F22441EB
:1025C00000F05AFB002840D0FFE744F60040C4F278
:1025D000000001888DF80F1044F60441C4F2000198
:1025E00009888DF80F10102100F0C0FA41F2176130
:1025F000C2F2000101200290087041F21751C2F2AC
:10260000000100910420087040F23040C4F2020042
:102610000190FEF765FA0099C0F58070487048781F
:10262000821C42F60060C2F2000003F055F90198E6
:102630000021FEF73DFA01984FF48071FEF78EFA03
:1026400001980299FEF734FAFFE704B080BD00005C
:1026500080B590B00F904FF4002001210791FEF754
:102660007FFD07991020FEF7B3FD4FF48060ADF8B1
:102670003800032005908DF83A0018208DF83B00B3
:1026800041F20000C4F2010003900EA90491FEF78C
:1026900071FA039804994FF40062ADF838200422CF
:1026A0008DF83B20FEF766FA0F980A9000200890FC
:1026B000ADF82C00ADF82E00ADF83000ADF83400C8
:1026C0000C20ADF8320044F60040C4F20000069041
:1026D0000AA900F073FB0698079A40F2255100F012
:1026E00023FB0698079A40F2244100F01DFB069850
:1026F000089A40F2266100F017FB059807993422EA
:102700008DF824208DF827108DF825108DF82600DF
:1027100009A8FEF79BFCFFF713FF0698079900F046
:1027200059FA089842F66C32C2F200021368591C3A
:10273000116047F2F251C0F600016A46516047F25B
:10274000ED51C0F60001116047F22161C0F60001B1
:1027500047F2F752C0F60002FEF780FF10B080BDCE
:1027600080B586B045F20000C4F2000040F2255169
:1027700000F082FA40B3FFE745F20000C4F2000027
:1027800000F0CAFB014641F21860C2F20000027874
:10279000531C037041F21963C2F200031A44917092
:1027A0000078FF2807DBFFE741F21861C2F2000161
:1027B00000200870FFE745F20000C4F2000040F27C
:1027C000255100F0E5F945E045F20000C4F20000B3
:1027D00040F2244100F050FAD8B3FFE741F21971FA
:1027E000C2F200010120087045F20000C4F20000AE
:1027F000049000888DF8170045F20400C4F2000030
:1028000000888DF8170041F21961C2F200010191B0
:102810000520087041F21860C2F2000002900078B2
:1028200048704878821C42F60060C2F2000003F053
:1028300053F80198002103914FF4807202F0CEFE0C
:10284000029A03990498117040F2244100F0A0F913
:10285000FFE7FFE706B080BD80B590B00F904FF462
:10286000801001210491FEF77BFC04991020069052
:10287000FEF7AEFC04992020FEF7AAFC049908207C
:10288000FEF7A6FC04990846FEF7A2FC049940F264
:102890000020C0F23000FEF731FA4FF48050ADF85E
:1028A0003800032002908DF83A00182005908DF82A
:1028B0003B0041F20000C4F201000EA90791FEF7AF
:1028C00059F907990420ADF8380048208DF83B00ED
:1028D00041F20040C4F20100FEF74CF90F980A9053
:1028E00000200890ADF82C00ADF82E00ADF83000B7
:1028F000ADF834000C20ADF8320045F20000C4F20F
:10290000000003900AA900F059FA0398049A40F2D3
:10291000255100F009FA0398049A40F2244100F08E
:1029200003FA0398089A40F2266100F0FDF9029834
:10293000049935228DF824208DF827108DF8251064
:102940008DF8260009A8FEF781FB0398049900F092
:1029500041F9059A06980799ADF838208DF83B00A3
:1029600040F60040C4F20100FEF704F9089842F670
:102970007032C2F200021368591C116047F2F25122
:10298000C0F600016A46516047F2ED51C0F6000101
:10299000116047F23D61C0F6000147F2F752C0F600
:1029A0000002FEF75BFE10B080BD000080B584B071
:1029B00043F60000C4F2010040F2244100F05CF94B
:1029C000B8B3FFE743F60000C4F2010001888DF8B8
:1029D0000F1043F60401C4F2010109888DF80F10AD
:1029E000102100F0C3F841F21451C2F2000101209D
:1029F0000290087041F21A71C2F200010091087051
:102A00005820C4F202000190FEF76AF8009A0146CD
:102A10000198C1F5807151700021FEF749F80198C5
:102A20004FF48071FEF79AF801980299FEF740F88A
:102A3000FFE704B080BD000080B586B044F20040DE
:102A4000C4F2000040F2244100F016F9E8B3FFE7B9
:102A500044F20040C4F2000001888DF8171044F2DF
:102A60000441C4F2000109888DF81710102100F00C
:102A70007DF841F21551C2F2000101200490087066
:102A800041F61A01C2F200010191022008706C2087
:102A9000C4F202000390FEF723F8019A014603985E
:102AA000C1F5807151700021FEF702F803984FF4D0
:102AB00080710291FEF752F801980299FDF73BFCF4
:102AC00003980499FDF7F4FFFFE706B080BD00000E
:102AD00080B584B044F60000C4F2000040F2244106
:102AE00000F0CAF800283FD0FFE744F60000C4F227
:102AF000000001888DF80F1044F60401C4F20001B3
:102B000009888DF80F10102100F030F841F21651AD
:102B1000C2F2000101200290087041F61A11C2F2BF
:102B200000010091032008703020C4F202000190DF
:102B3000FDF7D6FF0099C0F5807048704878821C78
:102B400042F60060C2F2000002F0C6FE01980021C9
:102B5000FDF7AEFF01984FF48071FDF7FFFF01987C
:102B60000299FDF7A5FFFFE704B080BD82B0019098
:102B7000ADF80210BDF802008005002801D5FFE77E
:102B8000FFE7BDF80200C0430199088002B070471A
:102B900083B00290ADF806100020ADF80400ADF847
:102BA0000200BDF8060040F66A11884201D1FFE735
:102BB000FFE79DF80700ADF80400BDF80410012000
:102BC0008840ADF80200BDF80200C04302990880B9
:102BD00003B0704782B001908DF803109DF8030098
:102BE00030B1FFE70199888940F40050888105E001
:102BF0000199888920F400508881FFE702B070476E
:102C000082B00190ADF802108DF801209DF801000E
:102C100038B1FFE7BDF802200199888A1043888205
:102C200006E0BDF802200199888A90438882FFE778
:102C300002B0704782B00190ADF8021000208DF80C
:102C40000100BDF80200B0F5007F01D1FFE7FFE70A
:102C500001980088BDF802100840000420B1FFE789
:102C600001208DF8010003E000208DF80100FFE74E
:102C70009DF8010002B0704786B00590ADF81210C3
:102C800000200390029001908DF80300BDF812001F
:102C900040F66A11884201D1FFE7FFE79DF8120074
:102CA00040090190BDF8120000F01F000290029947
:102CB0000120884002900198012806D1FFE705987D
:102CC000818902980840029010E00198022806D1FC
:102CD000FFE70598018A02980840029005E00598F0
:102CE000818A029808400290FFE7FFE79DF81300F1
:102CF0000390039901208840039005980188039868
:102D000008400390029838B1FFE7039820B1FFE72D
:102D100001208DF8030003E000208DF80300FFE799
:102D20009DF8030006B0704786B00590ADF812100C
:102D30008DF8112000200390029001900090BDF8C2
:102D4000120040F66A11884201D1FFE7FFE70598BB
:102D500000909DF8120040090390BDF8120000F0A9
:102D60001F000290029901208840019003980128D9
:102D700004D1FFE700980C3000900CE00398022883
:102D800004D1FFE700981030009003E00098143061
:102D90000090FFE7FFE79DF8110030B1FFE7019ACF
:102DA000009908681043086005E0019A00990868D6
:102DB00090430860FFE706B07047000080B58CB014
:102DC0000B900A91002009900890079006900590BA
:102DD0000A98808908B1FFE7FFE70B9805900B98E8
:102DE000008A099009984CF6FF71084009900A98EA
:102DF000C18809980843099009980B9908820B9893
:102E00008089099009984EF6F311084009900A99B3
:102E100088880A8910434989014309980843099021
:102E200009980B9988810B98808A099009984FF628
:102E3000FF41084009900A98818909980843099040
:102E400009980B9988826846FEF706FA059843F6BA
:102E50000001C4F20101884203D1FFE70398089002
:102E600002E002980890FFE70B9880890004002890
:102E70000AD5FFE70898192148430A9909684900CB
:102E8000B0FBF1F0079009E00898192148430A992E
:102E900009688900B0FBF1F00790FFE7079848F256
:102EA0001F51C5F2EB11A0FB01016FF00F0000EA0A
:102EB00051000990079A09980009642100FB11202C
:102EC00006900B9880890004002810D5FFE706992A
:102ED000322000EBC10048F21F51C5F2EB11A0FBFC
:102EE0000110C0F342110998084309900FE00699B8
:102EF000322000EB011048F21F51C5F2EB11A0FB8C
:102F00000110C0F34311099808430990FFE709989D
:102F10000B9908810CB080BD81B00090009880882A
:102F20006FF35F2001B0704782B00190ADF80210DE
:102F3000BDF802006FF35F200199888002B07047EE
:102F4000FFE7FEE780B582B041F61C20C2F2000028
:102F500001900198A821FDF7EEF90199032008617D
:102F600001994861019847F28E61C0F600018161C4
:102F7000019A41F6D420C2F20000D061019A4FF4C8
:102F800080501062019A00209062019A5062019A6A
:102F9000D062019A1166019A41F6C421C2F2000181
:102FA0005166019A10219166019908670199C866D6
:102FB000019948670090FFE700980F280ED8FFE7B7
:102FC000009A47F28E20C0F60000801AC07B01995B
:102FD0008854FFE7009801300090EDE702B080BD13
:102FE00084B003900398006902900398C068019030
:102FF00002980199884209D8FFE7039881680198EF
:10300000C043084402990844009005E002990198E1
:10301000C04308440090FFE7009804B070470000E8
:1030200010B58CB0DDF83CC0DDF838C00B900A91CB
:10303000099208930A98B0F1FF3F04DCFFE70A9871
:103040004042059002E00A980590FFE70598069037
:1030500001200790FFE706980999884209DBFFE7FE
:103060000698099990FBF1F00690079801300790B7
:10307000F1E708980799884203D9FFE70898079075
:10308000FFE70E9870B1FFE70A98002806D4FFE723
:103090009DF83C004007002804D5FFE70E98013852
:1030A0000E90FFE79DF83C008007002803D5FFE75E
:1030B000089858B3FFE79DF83C00C00730BBFFE716
:1030C0000E9810B3FFE7FFE70E990020049041B17E
:1030D000FFE707990E9A0020914238BF0120049023
:1030E000FFE70498C00778B1FFE70E9801380E900B
:1030F0000B98202100F050F90B98C068B0F1FF3F09
:1031000001DCFFE700E0DFE7FFE7FFE70B98C068BF
:10311000002869D4FFE70A98B0F1FF3F08DCFFE719
:103120000A9840420A900B982D2100F035F90CE0E6
:103130009DF83C004007002805D5FFE70B982B21A0
:1031400000F02AF900E0FFE7FFE70B98C0680028CD
:1031500049D4FFE79DF83C00800700282ED5FFE703
:103160009DF83C00C00748BBFFE7089830BBFFE76D
:103170000E9810B3FFE7FFE70E990020039041B1CE
:10318000FFE707990E9A0020914238BF0120039073
:10319000FFE70398C00778B1FFE70E9801380E905B
:1031A0000B98302100F0F8F80B98C068B0F1FF3FA1
:1031B00001DCFFE700E0DFE7FFE7FFE70B98C0680F
:1031C00000280FD4FFE70B980A99099A089BDDF8AD
:1031D00038C00F9CEE46CEF80440CEF800C000F098
:1031E00005F8FFE7FFE7FFE70CB010BD80B58CB036
:1031F000DDF83CC0DDF838C00B900A9109920893C5
:103200000A980590012006900490FFE70598099917
:10321000884209D3FFE705980999B0FBF1F00590C2
:10322000049801300490F1E708980499884203D982
:10323000FFE708980490FFE79DF83C00C007C0BB7B
:10324000FFE70E98A0B3FFE79DF83C008007002839
:1032500007D5FFE7089820B9FFE730208DF80F0069
:1032600003E020208DF80F00FFE7FFE70E99002014
:10327000029041B1FFE704990E9A0020914238BFB5
:1032800001200290FFE70298C00780B1FFE70E9887
:1032900001380E900B989DF80F1000F07DF80B98F8
:1032A000C068B0F1FF3F01DCFFE700E0DEE7FFE7C9
:1032B000FFE70B98C06800286CD4FFE7FFE7089889
:1032C000022804D3FFE70898013808900BE00A9819
:1032D0000699B0FBF1F0079007980999884201D24E
:1032E000FFE705E0FFE70999069848430690E6E7FF
:1032F000FFE70A980699B0FBF1F007900798069946
:103300000A9A00FB11200A900B98079A47F29F2116
:10331000C0F60001895C00F03FF80B98C068B0F17E
:10332000FF3F01DCFFE709E009990698B0FBF1F0E7
:103330000690FFE706980028DBD1FFE79DF83C00E8
:10334000C00730B3FFE70E9810B3FFE7FFE70E9911
:103350000020019041B1FFE704990E9A00209142AC
:1033600038BF01200190FFE70198C00778B1FFE75F
:103370000E9801380E900B98202100F00DF80B9854
:10338000C068B0F1FF3F01DCFFE700E0DFE7FFE7E7
:10339000FFE7FFE70CB080BD80B584B003908DF8E7
:1033A0000B100398806801900198013003994968D7
:1033B00088420FD8FFE79DF80B0003990968019A2E
:1033C000885401980130039988600399C8680130D6
:1033D000C860FFE7039841688068884215D1FFE71D
:1033E0000398016882680069FEF7B8F80399896854
:1033F000884205D0FFE703994FF0FF30C86003E033
:10340000039900208860FFE7FFE704B080BD00005B
:1034100080B58AB00990089107920020059009981C
:10342000C0680390FFE70998006904900498039925
:10343000884206D9FFE704990398C04308440690E0
:1034400008E0099881680398049A801AC0430844E8
:103450000690FFE7069809998968039A891A8842B5
:1034600003D2FFE70698019005E009988068039968
:10347000401A0190FFE70198069006980799884244
:1034800003D2FFE70698009002E007980090FFE75C
:1034900000980690099840680399084402900298A1
:1034A0000899069AFCF72EFF06990598084405909E
:1034B000069908980844089006990798401A0790BA
:1034C00006990398084403900398099989688842EB
:1034D00003D1FFE700200390FFE703980999C86034
:1034E000FFE7079800289ED1FFE705980AB080BD46
:1034F00080B588B00790069105920798C068039040
:10350000079880680399401A0290029805998842AA
:1035100010D9FFE707984068039908440190019883
:103520000699059AFCF7EEFE039805990844079959
:10353000C8601DE002980490079840680399084409
:10354000019001980699049AFCF7DCFE059802990F
:10355000401A049007984068019001980699029AD1
:103560001144049AFCF7CEFE04980799C860FFE75F
:1035700008B080BD82B08DF8070000919DF907006A
:1035800000280AD4FFE7009800019DF907104EF2C9
:103590000042CEF2000288540BE0009800019DF832
:1035A000071001F00F014EF61452CEF200028854BB
:1035B000FFE702B07047000082B00090009818B991
:1035C000FFE70020019033E09DF8000050B1FFE7D5
:1035D0009DF8001047F2AF20C0F60000405C0130BB
:1035E000019025E09DF8010050B1FFE79DF8011022
:1035F00047F2AF20C0F60000405C0930019017E0B0
:103600009DF8020050B1FFE79DF8021047F2AF208D
:10361000C0F60000405C1130019009E09DF80310F5
:1036200047F2AF20C0F60000405C19300190FFE780
:10363000019802B07047000080B588B084460D98AC
:103640000C98DDF82CE0DDF828E0CDF81CC00691E0
:10365000059204938DF80F000798143001F06EFE68
:103660000598079908620498079948620A9807998B
:1036700088620B980799C8620799886ACA6A2321E9
:1036800001F0ACFF079B186A596A9A6ADB6A1A4410
:10369000043A45F6B163C0F6000301F055FD079901
:1036A000C8619DF80F00079981F836009DF80F005A
:1036B000079981F8350007980021029181630D98E0
:1036C000079A50640D98079A9064079801630798C9
:1036D00080F83410079881670798C167079B03F14A
:1036E0004C006A465160116046F22512C0F6000295
:1036F000194602F07DFE029808B080BD80B586B004
:1037000084460898CDF814C00491039202938DF872
:1037100007009DF80700059948720599487A00F05E
:10372000FE00487204980599C861039805990862DB
:103730000599002088620299059A51620090FFE77E
:10374000009800280CDCFFE70598009900EBC10009
:10375000143001F0FBFDFFE7009801300090EFE727
:1037600006B080BD80B582B0019000200090FFE7D8
:10377000009800280CDCFFE70198009900EBC100DD
:10378000143001F0B1FEFFE7009801300090EFE740
:1037900002B080BD80B582B00190FCF7E5FC0090DE
:1037A0000198806F20B1FFE70198816F8847FFE79C
:1037B0000098FCF7DDFC02B080BD000083B00290F1
:1037C000019101980A2815D1FFE7029800684CF68C
:1037D000CD42CCF6CC42A0FB0231C90801EB8101FD
:1037E000A0EB4100009002990868A0FB0220C008ED
:1037F000086009E00298006800F00F00009002994C
:10380000086800090860FFE7009803B070470000EF
:1038100080B582B000208DF8070040F29800C2F217
:103820000000007801280DD1FFE742F64C60C2F29B
:1038300000000068804740F29801C2F200010020B9
:10384000087003E006208DF80700FFE79DF80700E9
:1038500002B080BD80B586B00590049100208DF83F
:10386000030004980088052870D1FFE70598407888
:103870000002ADF80E0005988178BDF80E000843EF
:10388000ADF80E000598C0780002ADF80C00059860
:103890000179BDF80C000843ADF80C00BDF80C0030
:1038A00001284EDBFFE7BDF80C00B0F5FA6F48DAEF
:1038B000FFE7059801900499002008800199481CB1
:1038C00001900120087004990888013008809DF853
:1038D0000C00400740B1FFE7BDF80C10012000EBE1
:1038E000D1008DF80B0005E0BDF80C00C0088DF884
:1038F0000B00FFE79DF80B0001994A1C019208702C
:1039000004990888013008800198BDF80E10BDF8B0
:103910000C20002300F070FE8DF802009DF80200DC
:1039200038B1FFE79DF8020001F040FA8DF803007E
:1039300006E09DF80B200499088810440880FFE7F2
:1039400003E003208DF80300FFE703E003208DF878
:103950000300FFE79DF8030006B080BD80B586B088
:103960000590049100208DF8030004980088052834
:103970006FD1FFE7059840780002ADF80E0005987A
:103980008178BDF80E000843ADF80E000598C078A8
:103990000002ADF80C0005980179BDF80C00084351
:1039A000ADF80C00BDF80C0001284DDBFFE7BDF8B9
:1039B0000C00B0F5FA6F47DAFFE70598019004991B
:1039C000002008800199481C019002200870049989
:1039D0000888013008809DF80C00400740B1FFE7DF
:1039E000BDF80C10012000EBD1008DF80B0005E0B4
:1039F000BDF80C00C0088DF80B00FFE79DF80B0028
:103A000001994A1C019208700499088801300880C5
:103A10000198BDF80E10BDF80C2000F0BDFE8DF829
:103A200002009DF8020038B1FFE79DF8020001F0A6
:103A3000BDF98DF8030006E09DF80B200499088875
:103A400010440880FFE703E003208DF80300FFE740
:103A500003E003208DF80300FFE79DF8030006B0A4
:103A600080BD000080B586B00590049100208DF8DF
:103A700007000498008805285DD1FFE70598407885
:103A80000002ADF80E0005988178BDF80E000843DD
:103A9000ADF80E000598C0780002ADF80C0005984E
:103AA0000179BDF80C000843ADF80C00BDF80C001E
:103AB00001283BDBFFE7BDF80C007D2836DCFFE783
:103AC000059802900498002303800299481C0290F4
:103AD000032008700499088801300880BDF80C00A4
:103AE000400002994A1C029208700499088801302B
:103AF00008800298BDF80E10BDF80C2000F0D2FE30
:103B00008DF806009DF8060038B1FFE79DF8060025
:103B100001F04CF98DF8070007E0BDF80C2004997E
:103B2000088800EB42000880FFE703E003208DF8DF
:103B30000700FFE703E003208DF80700FFE79DF88B
:103B4000070006B080BD000080B586B005900491E6
:103B500000208DF8070004980088052862D1FFE74F
:103B6000059840780002ADF80E0005988178BDF800
:103B70000E000843ADF80E00BDF80E000130ADF8A0
:103B80000E000598C0780002ADF80C000598017988
:103B9000BDF80C000843ADF80C00BDF80C0001287E
:103BA0003BDBFFE7BDF80C007C2836DCFFE705981F
:103BB00002900499002008800299481C0290042079
:103BC00008700499088801300880BDF80C00400096
:103BD00002994A1C029208700499088801300880F2
:103BE0000298BDF80E10BDF80C2000F0F3FE8DF821
:103BF00006009DF8060038B1FFE79DF8060001F0C9
:103C0000D5F88DF8070007E0BDF80C200499088866
:103C100000EB42000880FFE703E003208DF8070077
:103C2000FFE703E003208DF80700FFE79DF807009A
:103C300006B080BD80B588B00790069100208DF851
:103C40000700069800880A28C0F2AA80FFE70798B4
:103C500040780002ADF8160007988178BDF816008C
:103C60000843ADF81600BDF816000130ADF8160097
:103C70000798C0780002ADF8140007980179BDF8E4
:103C800014000843ADF81400079840790002ADF81D
:103C9000120007988179BDF812000843ADF81200B0
:103CA000BDF812000130ADF812000798C07900028B
:103CB000ADF810000798017ABDF810000843ADF880
:103CC00010000798407A8DF80F00BDF81400012805
:103CD00061DBFFE7BDF814007D285CDCFFE7BDF881
:103CE0001000012857DBFFE7BDF81000792852DCEF
:103CF000FFE7BDF810109DF80F00B0EB410F4AD15F
:103D0000FFE707980A30BDF81210BDF81020012314
:103D100000F0C8FD8DF806009DF8060078BBFFE7AF
:103D2000079802900698002303800299481C02908D
:103D3000172008700699088801300880BDF8140023
:103D4000400002994A1C02920870069908880130C6
:103D500008800298BDF81610BDF8142000F0A2FDEE
:103D60008DF806009DF8060040B9FFE7BDF8142065
:103D70000699088800EB42000880FFE7FFE79DF8FE
:103D8000060038B1FFE79DF8060001F00FF88DF846
:103D90000700FFE703E003208DF80700FFE7FFE7D8
:103DA0009DF8070008B080BD80B584B003900291F3
:103DB0000398013043F25421C2F2000101910A88B4
:103DC00043F21911C2F20001FCF79CFA0198008835
:103DD000013002990880002004B080BD80B584B015
:103DE0000390029100208DF80300029800880528B6
:103DF00043D1FFE7039840780002ADF8060003982E
:103E00008178BDF806000843ADF8060003980079F4
:103E100070BBFFE70398C078FF2804D0FFE7039842
:103E2000C07828BBFFE700208DF805000398C07814
:103E3000FF2804D1FFE701208DF8040003E00020F3
:103E40008DF80400FFE7BDF8061001A801231A460B
:103E500000F0D2FB8DF802009DF8020038B1FFE7B8
:103E60009DF8020000F0A2FF8DF80300FFE703E0D9
:103E700003208DF80300FFE703E003208DF8030023
:103E8000FFE79DF8030004B080BD000080B584B05A
:103E90000390029100208DF8050002980088052803
:103EA00022D1FFE7039840780002ADF8060003989E
:103EB0008178BDF806000843ADF80600039803308A
:103EC000BDF8061001231A4600F0ECFC8DF8040042
:103ED0009DF8040038B1FFE79DF8040000F066FF8C
:103EE0008DF80500FFE703E003208DF80500FFE7EC
:103EF0009DF8050004B080BD80B584B003900291A8
:103F000000208DF8010002980088062861DBFFE799
:103F1000039840780002ADF8060003988178BDF858
:103F200006000843ADF806000398C0780002ADF81B
:103F3000040003980179BDF804000843ADF80400BB
:103F4000039840798DF80300BDF80400400740B1A4
:103F5000FFE7BDF80410012000EBD1008DF802004E
:103F600005E0BDF80400C0088DF80200FFE7BDF8C9
:103F70000400012828DBFFE7BDF80400B0F5F66F68
:103F800022DCFFE79DF802009DF8031088421BD158
:103F9000FFE703980630BDF80610BDF804200123A2
:103FA00000F02AFB8DF800009DF8000038B1FFE713
:103FB0009DF8000000F0FAFE8DF8010003E0029980
:103FC00005200880FFE703E003208DF80100FFE7EC
:103FD00003E003208DF80100FFE79DF8010004B025
:103FE00080BD000080B584B00390029100208DF860
:103FF00002000298008806284FDBFFE7039840780C
:104000000002ADF8060003988178BDF80600084369
:10401000ADF806000398C0780002ADF804000398DC
:104020000179BDF804000843ADF804000398407915
:104030008DF80300BDF80400012829DBFFE7BDF877
:104040000400782824DCFFE79DF80300BDF8041085
:104050004900C9B288421BD1FFE703980630BDF87A
:104060000610BDF80420012300F01CFC8DF80100AF
:104070009DF8010038B1FFE79DF8010000F096FEC1
:104080008DF8020003E0029905200880FFE703E0B5
:1040900003208DF80200FFE703E003208DF8020003
:1040A000FFE79DF8020004B080BD000080B584B039
:1040B0008DF80F008DF80E1002928DF80730002059
:1040C0008DF806009DF80E0050B1FFE79DF80E0038
:1040D000012805DBFFE79DF80E00F82804DBFFE769
:1040E00002208DF8060074E09DF80E0043F21811CE
:1040F000C2F2000108709DF80F00002849D1FFE7C7
:1041000042F64C61C2F2000144F2E150C0F60000F8
:10411000086042F65061C2F2000144F2F550C0F668
:104120000000086042F64061C2F2000144F2015012
:10413000C0F60000086042F63C61C2F2000144F2A1
:104140007D40C0F60000086042F64861C2F20001FE
:104150000020086042F65461C2F2000147F22500D7
:10416000C0F60000086042F65861C2F2000147F252
:10417000B100C0F60000086043F21810C2F200005F
:10418000007802999DF8072000F042F98DF80600AA
:1041900003E002208DF80600FFE79DF80600B8B99D
:1041A000FFE702F07DFE20B9FFE703208DF806004F
:1041B0000DE09DF80F0042F6D421C2F20001087014
:1041C00040F29801C2F2000101200870FFE7FFE70A
:1041D000FFE79DF8060004B080BD000080B584B004
:1041E00000208DF8070040F29800C2F2000000782D
:1041F00020B1FFE706208DF80F0004E10DF1060065
:1042000002F02CFE012840F0FA80FFE79DF806003E
:1042100001460091032800F2F1800099DFE801F0E7
:1042200002033AEDEAE042F63C60C2F20000D0F848
:1042300000C042F6D620C2F2000042F6DC21C2F2F3
:10424000000142F6D822C2F2000242F6DE23C2F298
:104250000003E0478DF807009DF80700C8B9FFE7A5
:1042600042F6DC20C2F20000007843F21811C2F2DC
:1042700000010978884207D0FFE742F6DC20C2F24D
:104280000000007820B9FFE7022002F011FEFFE7EE
:10429000FFE7B3E042F6D820C2F2000000680078E1
:1042A00042F6D721C2F20001087042F6D521C2F2CF
:1042B00000010120087000200290FFE702980F28FB
:1042C00037DCFFE7029940F20C10C2F2000010F850
:1042D000310008B9FFE72CE0029940F20C10C2F25D
:1042E000000010F8310042F6D721C2F2000109782F
:1042F000884218D1FFE7029940F20C10C2F2000088
:1043000000EBC100426842F6D820C2F2000000680B
:1043100042F6DE21C2F20001904742F6D521C2F2F8
:104320000001087005E0FFE7FFE702980130029006
:10433000C4E742F6DC20C2F20000007800285BD01F
:10434000FFE742F6D520C2F20000007838B3FFE75D
:1043500042F6DE2CC2F2000C0020ACF8000042F65F
:10436000D720C2F20000007840F0800042F6D82149
:10437000C2F200010A68BCF8003003F1010EACF88B
:1043800000E0D05442F6D520C2F20000007809685F
:10439000BCF80020531CACF800308854FFE742F60C
:1043A000D420C2F200000078012807D1FFE70120E5
:1043B00020B9FFE7002001F009FEFFE742F6406068
:1043C000C2F20000D0F800C042F6D620C2F20000CF
:1043D000007843F21811C2F20001097842F6D8229F
:1043E000C2F20002126842F6DE23C2F200031B880A
:1043F000E0478DF80700FFE700E0FFE7FFE7002058
:104400008DF80F00FFE79DF80F0004B080BD00009D
:1044100080B584B08DF80F0002918DF80720002040
:104420008DF80600029802F055FD012804D0FFE740
:1044300003208DF806001DE00298B0F5964F03D9D1
:10444000FFE72320009009E00298410047F6A070A2
:10445000C0F21700B0FBF1F00090FFE7BDF80000DC
:1044600002F0A8FD012804D0FFE703208DF8060024
:10447000FFE7FFE79DF8060004B080BD80B586B079
:10448000059004910392029300208DF8070043F2F7
:104490003910C2F2000000780599087043F25620E6
:1044A000C2F200000088042821DBFFE743F2562017
:1044B000C2F20000018843F23910C2F2000002305B
:1044C00002F064FC98B9FFE743F23910C2F2000031
:1044D0008178049A117043F25621C2F200010988D2
:1044E0000339029A118003990330086003E0052024
:1044F0008DF80700FFE79DF8070006B080BD0000BB
:1045000080B588B08DF81F008DF81E100692ADF8AA
:10451000163000208DF8150042F6E120C2F20000AE
:104520000078012853D1FFE70698411E42F6446007
:10453000C2F20000016043F2F031C2F200010391C7
:10454000012202920A809DF81E2003681A70BDF8AD
:1045500016300A881A440A800068098802F016FC9E
:10456000029902460398ADF81220BDF81220038884
:1045700003F1010CA0F800C043F2391CC2F2000C98
:1045800063449A709DF81320038803F1010EA0F88C
:1045900000E063449A7042F6E222C2F20002117017
:1045A000008898B1FFE79DF81F0042F64461C2F20F
:1045B0000001096843F2F032C2F20002019212884F
:1045C00002F098FC019900200880FFE703E0052035
:1045D0008DF81500FFE79DF8150008B080BD0000BC
:1045E00080B542F6E121C2F200010020087002F01D
:1045F0001DFC80BD7047000080B588B00790ADF805
:104600001A10ADF818208DF8173000208DF816001C
:10461000BDF81820012101EBD201ADF8101043F2D2
:104620003921C2F200010391ADF80A006420ADF80F
:10463000080043F25820C2F200000088ADF80600DE
:10464000BDF81A00BDF80A108842C0F29D80FFE74D
:10465000BDF81A00BDF818100844BDF80A10BDF8DE
:1046600008201144884200F38F80FFE7BDF81A004C
:10467000BDF80610401A80B2C008ADF81400BDF8AD
:104680001A00BDF80610401A00F00700ADF812003D
:104690009DF817000146009120B1FFE7009801281E
:1046A00036D070E0FFE7BDF81000012816DBFFE709
:1046B0000398BDF814104A1CADF814200844BDF846
:1046C0001210082202F024FD07994A1C0792087074
:1046D000BDF810000138ADF81000E4E70798013884
:1046E0000790BDF8180000F00700ADF81800079912
:1046F0000878BDF81820C2F10802904008700799A8
:104700000878BDF81820C2F10802D04008703AE0DD
:10471000FFE7BDF81000022816DBFFE70398BDF89D
:1047200014104A1CADF814200844BDF81210079A62
:10473000531C07931378082202F028FDBDF81000DF
:104740000138ADF81000E4E7BDF8180000F00700EC
:10475000ADF81800BDF81800A0B1FFE70398BDF848
:1047600014104A1CADF814200844BDF812109DF82E
:104770001820079B03F1010CCDF81CC01B7802F038
:1047800005FDFFE7FFE703E001208DF81600FFE7D6
:104790009DF8160008B080BD80B588B00790ADF8D0
:1047A0001A10ADF8182000208DF81700BDF8182059
:1047B000012101EBD201ADF8101043F24621C2F203
:1047C00000010391ADF80A006420ADF8080043F23F
:1047D0005A20C2F200000088ADF80600BDF81A00A9
:1047E000BDF80A10884255DBFFE7BDF81A00BDF896
:1047F00018100844BDF80A10BDF80820114488427A
:1048000048DCFFE7BDF81A00BDF80610401A80B278
:10481000C008ADF81400BDF81A00BDF80610401A23
:1048200000F00700ADF81200FFE7BDF81000012806
:1048300016DBFFE70398BDF814104A1CADF81420EE
:104840000844BDF81210082202F062FC07994A1CC5
:1048500007920870BDF810000138ADF81000E4E7C9
:10486000079801380790BDF8180000F00700ADF870
:10487000180007990878BDF81820C2F10802904086
:10488000087007990878BDF81820C2F10802D040D6
:10489000087003E001208DF81700FFE79DF817006E
:1048A00008B080BD87B00690ADF81610ADF81420A2
:1048B0008DF8133000208DF8120043F25C21C2F213
:1048C00000010391ADF80A006420ADF8080043F23E
:1048D0002430C2F200000088ADF80600BDF81600D2
:1048E000BDF80A1088426CDBFFE7BDF81600BDF882
:1048F00014100844BDF80A10BDF80820114488427D
:104900005FDCFFE7BDF81600BDF80610401AADF8F1
:1049100010009DF813000146009120B1FFE70098B8
:10492000012825D04CE0FFE7BDF8140001281EDB6C
:10493000FFE70398BDF8101000EB4100407806999E
:104940004A1C069208700398BDF8101030F8110048
:1049500006994A1C06920870BDF810000130ADF8A7
:104960001000BDF814000138ADF81400DCE727E0B2
:10497000FFE7BDF81400012821DBFFE70698411C82
:104980000691007800020399BDF8102021F812006A
:104990000698411C069103780399BDF8102031F860
:1049A0001200184321F81200BDF810000130ADF8D4
:1049B0001000BDF814000138ADF81400D9E7FFE786
:1049C00003E001208DF81200FFE79DF8120007B008
:1049D0007047000086B00590ADF81210ADF81020B9
:1049E00000208DF80F0043F22631C2F2000102913F
:1049F000ADF806006420ADF8040043F2EE30C2F2D8
:104A000000000088ADF80200BDF81200BDF80610E5
:104A1000884239DBFFE7BDF81200BDF810100844EA
:104A2000BDF80610BDF80420114488422CDCFFE7D5
:104A3000BDF81200BDF80210401AADF80C00FFE7F7
:104A4000BDF8100001281EDBFFE70298BDF80C102E
:104A500000EB4100407805994A1C059208700298C5
:104A6000BDF80C1030F8110005994A1C0592087029
:104A7000BDF80C000130ADF80C00BDF81000013895
:104A8000ADF81000DCE703E001208DF80F00FFE730
:104A90009DF80F0006B0704780B584B000200390E9
:104AA00042F67432C2F200021368591C116047F2D8
:104AB000F251C0F600016A46516047F2ED51C0F66E
:104AC0000001116047F27361C0F6000147F2F7522E
:104AD000C0F60002FCF7C2FD4FF4A060FCF70AFB31
:104AE000FCF738FAFCF792F9FBF702FEFFE742F613
:104AF0007431C2F200010B68581C086047F2F25092
:104B0000C0F600006946486047F2ED50C0F600006C
:104B1000086047F25961C0F6000147F2F752C0F64B
:104B200000020020FCF79AFD4FF47A7001F04EFA73
:104B3000DDE7000080B582B0019000F0B1F9FFF729
:104B4000ABFF02B080BD000080B590B0DDF850C072
:104B5000DDF84CC0DDF848C00F900E910D920C931B
:104B600013980690129803901498420647F2AF519A
:104B7000C0F6000147F2C050C0F60000002A48BF4E
:104B8000084605909DF85000C006002805D5FFE7AF
:104B9000149820F001001490FFE71498C10720201A
:104BA000002918BF30208DF82F0000208DF82E002E
:104BB0009DF850008007002823D5FFE70D98B0F13D
:104BC000FF3F07DCFFE72D208DF82E000D984042B7
:104BD0000D9015E09DF850004007002804D5FFE730
:104BE0002B208DF82E000AE09DF8500000070028C9
:104BF00004D5FFE720208DF82E00FFE7FFE7FFE751
:104C0000FFE7002004900D9840B9FFE7049A501C7C
:104C100004900DF11E013020885414E0FFE70D9838
:104C200080B1FFE7059802900C990DA8FEF7C6FD2C
:104C300001460298405C049A511C04910DF11E013A
:104C40008854ECE7FFE704981399884203DDFFE7F7
:104C500004981390FFE713990398401A03909DF866
:104C6000500010F0110F21D1FFE79DF82E0040B148
:104C7000FFE70398012804DBFFE70398013803905E
:104C8000FFE7FFE70398411E039101280DDBFFE7D3
:104C90000F980E99884204D2FFE70F9920200870E0
:104CA000FFE70F9801300F90ECE7FFE79DF82E002B
:104CB00088B1FFE70F980E99884205D2FFE79DF86B
:104CC0002E000F990870FFE70398013803900F98A2
:104CD00001300F90FFE79DF85000C006002816D461
:104CE000FFE7FFE70398411E039101280EDBFFE772
:104CF0000F980E99884205D2FFE79DF82F000F9973
:104D00000870FFE70F9801300F90EBE7FFE7FFE730
:104D1000049813994A1E139288420DDAFFE70F9800
:104D20000E99884204D2FFE70F9930200870FFE700
:104D30000F9801300F90EBE7FFE70499481E0490AD
:104D400000200129019006DBFFE70698002818BF24
:104D500001200190FFE70198C00780B1FFE70F989D
:104D60000E99884207D2FFE704990DF11E00405CBE
:104D70000F990870FFE70F9801300F90DDE7FFE70C
:104D80000398411E039101280DDBFFE70F980E9950
:104D9000884204D2FFE70F9920200870FFE70F98A0
:104DA00001300F90ECE70F9810B080BD82B08DF805
:104DB00007009DF807000146009140B1FFE7009809
:104DC000012808D0FFE70098072808D00BE0002052
:104DD0008DF806000BE002208DF8060007E00620A3
:104DE0008DF8060003E004208DF80600FFE79DF82B
:104DF000060002B07047000080B542F65860C2F26B
:104E000000000068804780BD80B582B0019042F606
:104E10005460C2F2000001680198884702B080BD6A
:104E200080B586B042F68050C2F200000590059829
:104E30006A461421D1600A2191604FF400715160DB
:104E400042F68031C2F20001116047F67311C0F6DC
:104E5000000144F63532C0F60002002301F08AF862
:104E60000490059801F014F906B080BD80B582B0B9
:104E700047F60420C0F600000190FFE7019847F6CE
:104E80000821C0F60001884208D2FFE701980068B7
:104E90008047FFE7019804300190EFE702B080BD42
:104EA00080B582B047F60820C0F600000190FFE709
:104EB000019847F60C21C0F60001884208D2FFE7AE
:104EC000019800688047FFE7019804300190EFE700
:104ED00002B080BD80B582B0FBF746F9019042F682
:104EE0007471C2F200010888013008800198FBF754
:104EF0003FF902B080BD000080B582B0FBF734F905
:104F0000019042F67470C2F20000018801390180FC
:104F1000B0F90000002814DCFFE742F67471C2F219
:104F20000001002008800198FBF722F942F660603A
:104F3000C2F20000006818B1FFE700F03BFEFFE797
:104F400003E00198FBF714F9FFE702B080BD000011
:104F500080B5092001F0CEFE40F29400C2F20000BC
:104F6000006844F6D351C1F26201A0FB0110800930
:104F7000FCF76AFEFFF77AFF80BD000080B586B0BF
:104F8000059000200190049003900D208DF80B00F7
:104F9000059800F0DBFE0146019803910490FFE7BD
:104FA00004980399884219D2FFE705980499405C58
:104FB0000A2807D1FFE700200DF10B010122FCF7C1
:104FC000CDFAFFE705980499014400200122FCF77F
:104FD000C5FAFFE7049801300490E1E706B080BD10
:104FE00080B584B0039003980430029042F6646068
:104FF000C2F20000006870B1FFE742F66460C2F2DE
:1050000000000168039888470190019810B9FFE7F4
:1050100004B080BDFFE70298C16B47F66610C0F68A
:10502000000000F055F90298016A47F6A300C0F6A7
:10503000000000F04DF90298416A47F6BD00C0F645
:10504000000000F045F90298816A47F6D700C0F6E3
:10505000000000F03DF90298C16A47F6F100C0F681
:10506000000000F035F90298016847F6FE00C0F62E
:10507000000000F02DF90298416847F60B10C0F6C9
:10508000000000F025F90298816847F61810C0F674
:10509000000000F01DF90298C16847F62510C0F61F
:1050A000000000F015F90298016947F63210C0F6C9
:1050B000000000F00DF90298416947F63F10C0F674
:1050C000000000F005F90298816947F6B000C0F6CB
:1050D000000000F0FDF80298C16947F6CA00C0F66A
:1050E000000000F0F5F80298016B47F6E400C0F606
:1050F000000000F0EDF80298416B47F65910C0F639
:10510000000000F0E5F80298816B47F64C10C0F6FD
:10511000000000F0DDF803980078400700280AD569
:10512000FFE700F085FF014647F67900C0F6000072
:1051300000F0CEF806E047F65F00C0F6000000F091
:10514000C7F8FFE7FFE7FEE787B0069005910492F6
:105150000393049804300190019820F00700019017
:105160000198403801900198029000200090FFE7DC
:1051700000980F280DD8FFE70299009A4BF6EF60D0
:10518000CDF6AD6041F82200FFE7009801300090B5
:10519000EEE7059802990862029900204862029998
:1051A00088620299C8620299086303980299486369
:1051B00006980299886302994FF08070C86301983D
:1051C00007B0704780B582B0FAF7CEFF019042F683
:1051D0006C61C2F200010878013008700198FAF79A
:1051E000C7FF02B080BD000080B582B0FAF7BCFFF7
:1051F000019042F66C61C2F2000108780138087033
:105200000198FAF7B5FF02B080BD000080B582B00A
:1052100001900198006814380090009800F0E2FEB8
:10522000002002B080BD000080B586B005900491DA
:105230008DF80F20049800F04BFF9DF80F000146F9
:10524000009120B1FFE70098012806D032E00598D0
:105250000499143100F0BEF82DE005980068029022
:10526000FFE702980599884218D0FFE702981438A2
:105270000190049890F83500019991F83510884212
:1052800007DAFFE7019814300499143100F0A2F80E
:1052900004E0FFE7029800680290E2E702980599AF
:1052A000884206D1FFE705980499143100F092F87E
:1052B000FFE700E0FFE7002006B080BD80B582B0C8
:1052C00001900198143000F029F8002002B080BD50
:1052D00083B080B583B0079306920591029005A82C
:1052E0000190029A019B42F67460C2F20000FF2115
:1052F00001F064F900900098B0F5807F03D3FFE7D8
:10530000FF200090FFE742F67460C2F20000FFF752
:1053100035FE03B0BDE8804003B0704781B0009017
:10532000009840600099086001B0704781B000901B
:10533000009840600099086001B0704781B000900B
:10534000009840600099086001B0704781B00090FB
:10535000009840600099086001B0704782B00190E9
:1053600000910098019909684860019800680099C7
:10537000086000980199086001980099486002B09F
:105380007047000082B0019000910098019909686F
:1053900048600198006800990860009801990860C9
:1053A00001980099486002B07047000082B00190F7
:1053B0000091009801990968486001980068009977
:1053C000086000980199086001980099486002B04F
:1053D0007047000082B001900091009801994968DF
:1053E00008600198406800994860009801994860F9
:1053F00001980099086002B07047000082B00190E7
:1054000000910098019949680860019840680099E6
:10541000486000980199486001980099086002B0BE
:105420007047000082B0019000910098019949688E
:1054300008600198406800994860009801994860A8
:1054400001980099086002B07047000081B0009098
:1054500000990868401AB0FA80F0400901B070471E
:1054600081B0009000990868401AB0FA80F04009B5
:1054700001B0704781B0009000990868401AB0FAF6
:1054800080F0400901B0704781B000900098016839
:105490004068486000990868496808600098406062
:1054A0000099086001B0704781B0009000980168D1
:1054B0004068486000990868496808600098406042
:1054C0000099086001B0704781B0009000980168B1
:1054D0004068486000990868496808600098406022
:1054E0000099086001B0704781B000900098016891
:1054F0004068486000990868496808600098406002
:105500000099086001B0704788B007900691059235
:10551000079804900698039005980090009810282A
:105520004AD3FFE70398049908438007002843D132
:10553000FFE70498029003980190FFE70098102875
:1055400024D3FFE70198011D0191006802990A1D0B
:10555000029208600198011D0191006802990A1DDC
:10556000029208600198011D0191006802990A1DCC
:10557000029208600198011D0191006802990A1DBC
:1055800002920860009810380090D7E7FFE7009873
:1055900004280CD3FFE70198011D019100680299CE
:1055A0000A1D02920860009804380090EFE7029804
:1055B000049001980390FFE7FFE70098411E0091D7
:1055C00048B1FFE70398411C0391007804994A1CF5
:1055D00004920870F1E7079808B0704788B0079008
:1055E00006910592079803909DF818000090059881
:1055F00004283DD3FFE79DF81C008007C0BBFFE7F0
:1056000007980190009840EA00200290029840EA32
:1056100000400290FFE70598102818D3FFE7029892
:1056200001990A1D01920860029801990A1D0192D0
:105630000860029801990A1D019208600298019978
:105640000A1D01920860059810380590E3E7FFE70E
:105650000598042809D3FFE7029801990A1D0192D1
:105660000860059804380590F2E701980390FFE779
:10567000FFE70598411E059130B1FFE700980399B7
:105680004A1C03920870F4E7079808B070470000BE
:1056900080B588B084460B98DDF828E0CDF81CC0B2
:1056A0000691059204938DF80F000798069A06213B
:1056B00000F02EFA9DF80F00079948720798FFF73F
:1056C000FDFD05980799C8610498033020F0030098
:1056D000079908840A9807990A8C0432B0FBF2F003
:1056E00048840799002088620799C862079908636F
:1056F0000190FFE701980799498C884214DAFFE787
:105700000799CA690198098C043100FB01200290B5
:105710000798006B02990860029807990863FFE7F1
:10572000019801300190E5E70799002000908884F6
:1057300007983430FFF7F2FD009808B080BD0000F4
:1057400080B58CB00A9009910892079300200390CD
:1057500000F06EFC0690FAF707FD05900A98808C21
:1057600050B9FFE7079838B9FFE70598FAF700FD49
:105770006FF001000B90ABE0FFE70A98808C0028E7
:105780004FD1FFE7069900200863079848B9FFE763
:105790000598FAF7EDFC06996FF0010008630B908D
:1057A00096E00A9A02F114000699527AFFF73CFD3E
:1057B000079801280EDBFFE700F034FD0390069800
:1057C0004C30002107AA00F0BDFD06984C3000F0D7
:1057D0002FFEFFE70598FAF7CBFC00F0EBF90698EF
:1057E000006B20B1FFE70698006B0B9070E0FAF7B2
:1057F000BBFC05900798012812DBFFE700F012FDC3
:105800000399401A039003990798401A0790079844
:10581000B0F1FF3F03DCFFE700200790FFE7FFE761
:10582000ABE70A98806A0490049800680A99886235
:105830000A98C06A0499884204D1FFE70A990020B7
:10584000C862FFE70A98808C012805DBFFE70A9908
:10585000888C01388884FFE70598FAF789FC099855
:10586000019004980430029008980A99098C8842A3
:1058700004D9FFE70A98008C009002E00898009095
:10588000FFE702990198009AFFF73EFEFAF76CFCD9
:1058900005900A98006B0499086004980A990863B7
:1058A0000A983430FFF7D2FD60B9FFE70A98343028
:1058B000FFF7ACFC0598FAF75BFC00F07BF90020E1
:1058C0000B9005E00598FAF753FC00200B90FFE7DA
:1058D0000B980CB080BD000080B584B0039002919D
:1058E000019203980299019A002300F003F804B092
:1058F00080BD000080B58AB008900791069205939C
:1059000006980899098C884204D9FFE74FF0FF30C8
:105910000990BDE00020029000F08AFB0190FAF7A8
:1059200023FC04900898006B0390039850B9FFE79C
:10593000059838B9FFE70498FAF71AFC6FF00200EF
:105940000990A5E0FFE70898006B039000284DD16F
:10595000FFE7019900200863059838B9FFE704982C
:10596000FAF706FC6FF00200099091E0089A02F144
:1059700034000199527AFFF757FC059801280EDB95
:10598000FFE700F04FFC029001984C30002105AA7F
:1059900000F0D8FC01984C3000F04AFDFFE7049875
:1059A000FAF7E6FB00F006F90198006B20B1FFE77B
:1059B0000198006B09906BE0FAF7D6FB049005980C
:1059C000012812DBFFE700F02DFC0299401A02903B
:1059D00002990598401A05900598B0F1FF3F03DC45
:1059E000FFE700200590FFE7FFE7ACE703980068BA
:1059F000089908630498FAF7BBFB03990020086034
:105A0000039804300799069AFFF77EFDFAF7ACFB7E
:105A100004900898C06A28B1FFE703980899C96AFA
:105A20000860FFE703980899C8620898806A20B95F
:105A3000FFE7039808998862FFE70898808C4FF683
:105A4000FE71884205DCFFE70899888C0130888464
:105A500006E00498FAF78CFB6FF00200099017E05B
:105A600008981430FFF7F2FC60B9FFE7089814308B
:105A7000FFF7CCFB0498FAF77BFB00F09BF80020C3
:105A8000099005E00498FAF773FB00200990FFE7FE
:105A900009980AB080BD000080B582B001900199DC
:105AA00000200872FAF760FB009001980C30FFF7B5
:105AB000EBFC0098FAF75CFB02B080BD83B08DF878
:105AC000070000200090FFE7009806281ADCFFE797
:105AD0000098010140F29C00C2F20000405C9DF879
