:020000040800F2
:10000000D85B002045010008111C00080D02000803
:10001000C1150008691000086D42000800000000CA
:10002000000000000000000000000000FD280008A3
:10003000E51200080000000097010008812A00086E
:100040005F0100085F0100085F0100085F01000810
:100050005F0100085F0100085F0100085F01000800
:100060005F0100085F0100085F0100085F010008F0
:100070005F0100085F0100085F0100085F010008E0
:100080005F0100085F0100085F0100085F010008D0
:100090005F0100085F0100085F0100085F010008C0
:1000A0005F010008F92A00085F0100085F010008ED
:1000B000212B0008752C0008152E00085F01000890
:1000C0005F0100085F0100085F0100085F01000890
:1000D0005F010008853D0008013E0008813E0008E0
:1000E0005F0100085F0100085F0100085F01000870
:1000F0005F0100085F0100085F0100085F01000860
:100100005F0100085F0100085F0100085F0100084F
:10011000113C0008913C00085F0100085F010008E5
:100120005F0100085F0100085F0100085F0100082F
:10013000DFF80CD000F0B8FC00480047710B000855
:10014000D85B00200648804706480047FEE7FEE7E8
:10015000FEE7FEE7FEE7FEE7FEE7FEE7FEE7FEE777
:10016000912A000831010008EFF3108072B6704741
:1001700080F310887047324A1368012B04D04FF087
:10018000010313602F4A10602F4A11602F484FF06F
:10019000805101607047EFF3108272B62848016801
:1001A00091B14FF0000101602648016829B1EFF3D9
:1001B000098121E9F00F0068016023490968096895
:1001C000B1E8F00F81F3098882F310884EF0040E35
:1001D00070471D4908601B494FF00000086018492E
:1001E0004FF0010008601A481A49D0F8002041EA8F
:1001F0000201016015484FF0805101601648006807
:10020000006880F3088861B662B670471EF0040F7C
:100210000CBFEFF30880EFF3098020E9F00F40F8FE
:1002200004ED1EF0040F0CBF80F3088880F30988EA
:1002300000B509F0BBFB5DF804EB4EF0040E70470F
:100240003C490020A0460020A846002004ED00E024
:1002500020ED00E00000FFFF08ED00E038B5D0E938
:100260000221491E01EB410102EBC1014268C1EBD1
:10027000011102EB81010268C1EB011102EB810265
:10028000D0E9043101EB410103EB81013023A1F5F9
:10029000527191FBF3F4174D6C4302EBC41291FBC6
:1002A000F3F403FB141100921A2902DB124B1A44D7
:1002B00000920C2291FBF2F3104C6343009C04EB80
:1002C000C313009391FBF2F302FB13110C4A08E0F5
:1002D000491E40F2A324535C6343009C04EBC31308
:1002E00000930029F4DC0146684600F04BF90098C1
:1002F00038BD00003F0C0F008051010067C20300B1
:100300002CCA000840EA01039B0703D009E008C992
:10031000121F08C0042AFAD203E011F8013B00F8CA
:10032000013B521EF9D27047D2B201E000F8012B16
:10033000491EFBD270470022F6E710B513460A4665
:1003400004461946FFF7F0FF204610BD421E12F882
:10035000013F002BFBD111F8013B02F8013B002BC0
:10036000F9D1704730B505462A460B4612F8010B05
:1003700013F8014B08B1A042F8D01CB1002802D0FC
:100380006D1CF1E7284630BD10B5044604E00B783B
:1003900000F8013B03B1491C521EF8D2204610BDA3
:1003A000421C10F8011B0029FBD1801A704703463C
:1003B00011F8012B00F8012B002AF9D118467047DB
:1003C00030B505460020034600E05B1C934205D291
:1003D000EC5CC85C201A01D1002CF6D130BD80EA5B
:1003E000010210B502F00043400022D04A001FD0A5
:1003F000010E01EB1261C0F35600C2F3560240F445
:10040000000042F40002A0FB022000047F39140423
:1004100000D0401C50EA124001D44000491EC2B234
:100420000C0604EBD010401C4008802A02D003E0E8
:10043000002010BD20F00100002900DA0020184340
:1004400010BD002801DBC0F10040002901DBC1F133
:100450000041814201D3012070470020704700F025
:10046000004220F00040C10DC0F3160040F400002F
:100470007F2901DA00207047962903DCC1F196013B
:10048000C84001E096398840002AF4D040427047C5
:1004900001F0004330B421F0004150EA010206D0DF
:1004A0000A0DA2F56072C1F31301002A02DC30BC10
:1004B00000207047440F44EAC104C100E01830BC7A
:1004C00000EBC25000F0A4B830B50B460146002046
:1004D0002022012409E021FA02F59D4205D303FA06
:1004E00002F5491B04FA02F52844151EA2F1010287
:1004F000F1DC30BD2DE9F05F0546002092469B46B9
:1005000088460646814640241BE028464146474629
:10051000224600F020F853465A46C01A914110D3A3
:1005200011461846224600F0D7FA2D1A67EB01084B
:100530004F4622460120002100F0CEFA17EB0009B9
:100540004E41201EA4F10104DFDC484631462A4614
:100550004346BDE8F09F202A04DB203A21FA02F04E
:100560000021704721FA02F3D040C2F120029140ED
:100570000843194670470000014900F003B8000025
:100580007004002010B500683C22B0FBF2F302FBBF
:100590001303B0FBF2F00B60B0FBF2F302FB1303AA
:1005A000B0FBF2F018224B60B0FBF2F302FB130336
:1005B000B0FBF2F0021D8B600723B2FBF3F403FBE8
:1005C0001422800040F2B55300F66C308A61B0FB13
:1005D000F3F2B0FBF3F403FB1400443280084A61E9
:1005E000C8613B2802D3920700D0401C0022074C70
:1005F00013460A61E25C824203D8801A5B1C0B61DD
:10060000F8E7401CC860084610BD000038CA000862
:100610000029A8BF7047401C490008BF20F0010016
:10062000704710B4B0FA80FC00FA0CF050EA0104F4
:1006300004BF10BC704749B1CCF1200421FA04F486
:1006400011FA0CF118BF012121430843A3EB0C015F
:10065000CB1D4FEA00614FEA102042BF002010BCC2
:10066000704700EBC35010440029A4BF10BC704772
:10067000401C490008BF20F0010010BC704710B5B5
:10068000141E73F1000408DA401C41F100019218B5
:100690005B411A4301D120F0010010BD2DE9F04D5E
:1006A00092469B4611B1B1FA81F202E0B0FA80F2B3
:1006B0002032904600F010FA04460F4640EA0A0045
:1006C00041EA0B0153465A46084313D0114653EAF8
:1006D000010019D0C8F140025046FFF73CFF054623
:1006E0000E4650465946424600F0F6F9084305D0FA
:1006F000012004E020463946BDE8F08D0020054386
:1007000046EAE0762C4337430A986305E40AA0EBF7
:1007100008000022FD0A44EA47540A3002D50020AE
:100720000146E9E7010510196941DDE908450019AD
:100730006941BDE8F04DA2E72DE9FE4F804681EA10
:100740000300C00F0C46009021F0004123F000454B
:10075000B8EB0200A94105D24046214690461C460E
:100760000B46024623F00040104347D0270DC7F345
:100770000A00C3F30A510290401A019040286BDA34
:10078000C3F3130040F4801B0098924620B100236D
:10079000D2EB030A63EB0B0B01985946C0F1400200
:1007A000504600F099F906460D4650465946019AC2
:1007B00000F0A1F910EB08006141002487EA115212
:1007C00084EAE7731A4340D0009A62B3019A012A7F
:1007D0004FEA075215DC001B61EB02014FF00042AB
:1007E00002EA0752CDE90042001C41F58011324671
:1007F0002B46FFF753FF03B0BDE8F08F404621467C
:10080000F9E7001B61EB0201001C41F580130018A1
:100810005B412018A2F5001747EB030140EAD570B1
:10082000B6196D4111E06D084FEA360645EAC0750C
:100830004FEA0752001B61EB0201001C41F58011D9
:1008400049084FEA30000019514132462B4603B0A7
:10085000BDE8F04FFFF713BF0098012240000023CE
:10086000D0EB020263EBE073009821464FEAE0749C
:10087000B8EB000061EB0401E9E783F000435BE7BC
:1008800081F0004158E72DE9FE4F81EA030404F0AE
:10089000004421F0004100944FF0000B23F000438E
:1008A00050EA01045ED052EA03045BD0C3F30A5459
:1008B000C1F30A552C44A4F2F3340194A0FB025472
:1008C000C1F3130141F48011C3F3130343F4801304
:1008D00001FB024400FB034E840A970A44EA815458
:1008E00047EA8357A4FB076802958D0A05FB078535
:1008F0004FEA932C04FB0C542705029D4FEA06583F
:1009000047EA1637B5EB08056EEB070C870E920E1B
:1009100047EA811742EA8312A7FB0201B6EB0B01FB
:1009200064EB00042B0D43EA0C335E1844EB1C50BF
:10093000DA465146E7FB0201C5F313044FEA0B33D5
:1009400043EA14534FEA0432019C43EA0603A4F13C
:100950000C040294009CCDE900B4FFF79FFE03B0A5
:10096000BDE8F08F00200146F9E72DE9F04D81EA5E
:10097000030404F0004B21F0004514464FF0000A38
:1009800023F0004150EA050220D054EA01021DD0B4
:10099000C5F30A570246C5F31303C1F31300C1F3AD
:1009A0000A5640F4801543F48013A7EB0608101B89
:1009B000D64608F2FD3873EB050002D308F10108B2
:1009C00001E092185B41B8F1000F03DA0020014604
:1009D000BDE8F08D00204FF48011064684460EE0FD
:1009E000171B73EB050705D3121B63EB05030643C7
:1009F0004CEA010C49084FEA300092185B4150EA7A
:100A00000107EDD152EA030012D082EA040083EA22
:100A10000501084305D0101BAB4106D2012200237B
:100A200006E000224FF0004302E06FF00102531095
:100A30001AEB06004CEB085110EB0A0041EB0B01DE
:100A4000BDE8F04DFFF71BBEC1F30A52C1F313011D
:100A500040F2FF3341F480119A4202DA002001464D
:100A6000704740F233439A42A2F2334202DC5242D0
:100A7000FFF771BD00F030B830B5041E71F100040D
:100A800004DB4FF00044404264EB0101141E73F19B
:100A9000000405DB1C464FF00043524263EB0403A5
:100AA000994208BF904230BD1CB5094800900948E2
:100AB00001900546009C06E0E06840F0010394E8E0
:100AC000070098471034AC42F6D3FFF735FB00001F
:100AD00024E4000844E40008202A04DB203A00FA59
:100AE00002F1002070479140C2F1200320FA03F385
:100AF000194390407047202A06DBCB17203A41FA71
:100B000002F043EAE07306E041FA02F3D040C2F19A
:100B10002002914008431946704770B58C1810F8B0
:100B2000015B15F0070301D110F8013B2A1106D132
:100B300010F8012B03E010F8016B01F8016B5B1E4C
:100B4000F9D12B0705D40023521E0DD401F8013B27
:100B5000FAE710F8013BCB1A921C03E013F8015B93
:100B600001F8015B521EF9D5A142D8D3002070BD17
:100B700080B50AF0A5FC002080BD000010B5D4B0FF
:100B8000DDF85CC1DDF858C152905191ADF84221B9
:100B90004F93579818B1FFE7519820B9FFE701200C
:100BA0008DF84F012BE15298406920B9FFE70220F0
:100BB0008DF84F0123E158A80E90579A0E9B0FA86D
:100BC00005904FF480710BF025FA059800210D91E6
:100BD0000C910B910A91FFF7E3FB01300BF062FAE5
:100BE0000A900A9820B9FFE703208DF84F0106E12B
:100BF0004F980D90BDF84201ADF8300051980B9020
:100C00005698002805D4FFE756982028C0F2838024
:100C1000FFE7002009908DF82300FFE79DF82300EF
:100C20001F2813DCFFE7529840699DF82310090143
:100C3000405820B9FFE79DF82300099006E0FFE740
:100C40009DF8230001308DF82300E7E7002007908E
:100C5000FFE707981F285DDCFFE70998079908441C
:100C6000C11700EBD16121F01F01401A0690529884
:100C70004069069909014058002846D1FFE70A98C3
:100C80000FA9FFF794FB5298D0F814E006980EEBEA
:100C900000110401DDF828C00B980C9A0D9B4EF84A
:100CA00004C0CB608A60486006980130C11700EB31
:100CB000D16121F01F01401A099044F2B031C2F213
:100CC00000010B68581C0860529840690699090198
:100CD00040584DF2C532C0F6000269468A6048604D
:100CE0004DF2C030C0F6000008604DF64601C0F677
:100CF00000014DF2CA32C0F600020020049001F05B
:100D00009FFB04988DF84F0179E0FFE707980130C9
:100D100007909EE74FE00FA8FFF742FB01300BF072
:100D2000C1F952994969569A1201885052984069FE
:100D3000569909014058F8B1FFE752984069569911
:100D4000090140580FA9FFF732FB519852994969A0
:100D5000569A01EB02114860BDF842015299496967
:100D6000569A01EB021108814F9852994969569A97
:100D700001EB0211C8601DE044F2B031C2F2000183
:100D80000B68581C08604DF2C530C0F6000069467B
:100D900048604DF2EB30C0F6000008604DF6EF0100
:100DA000C0F600014DF2F032C0F60002002001F062
:100DB00047FBFFE7FFE744F2B031C2F200010B68E6
:100DC000581C08604DF2C530C0F600006946486006
:100DD0004DF2C030C0F6000008604DF66A01C0F662
:100DE00000014DF2CA32C0F60002002001F028FBDB
:100DF0000A980BF029F905208DF84F01FFE79DF8BF
:100E00004F0154B010BD000080B586B00590202081
:100E1000ADF812000020ADF8100003900290059884
:100E20008068007801284DD1FFE70598816800208F
:100E30000870ADF80600FFE7BDF80600BDF8121017
:100E4000884229DAFFE705988069BDF8061050F856
:100E50003100D0B1FFE7059948688969BDF80620DF
:100E600051F83210FFF77EFA0390039860B1FFE764
:100E70000420ADF8100005988069BDF8061000EB5D
:100E8000C1004068029007E0FFE7FFE7BDF80600F9
:100E90000130ADF80600CFE7BDF8100068B1FFE7FC
:100EA000029818B1FFE702988047FFE70398BDF862
:100EB0001020002109F0E0F803E0059905200870F2
:100EC000FFE7FFE706B080BD81B0009001B070473A
:100ED00080B582B00190FFE740F29C40C2F2000072
:100EE00000F056F84FF47A7009F0F8FCF4E70000CF
:100EF00080B586B069466420C8600A2088604FF4D7
:100F00008050486042F67830C2F20000086042F635
:100F1000F820C2F200004DF65E21C0F6000140F656
:100F2000D162C0F60002002309F0ACFC04900498E2
:100F300048B9FFE742F6F820C2F2000009F030FDA0
:100F40000020059020E044F2B031C2F200010B68AD
:100F5000581C08604DF2C530C0F600006946486074
:100F60004DF2EB30C0F6000008604DF6C401C0F64B
:100F700000014DF2F032C0F60002002001F060FAEC
:100F80004FF0FF300590FFE7059806B080BD0000E8
:100F900080B584B00390039800780146029106283A
:100FA0002BD80299DFE801F0041D1E1F2024280021
:100FB00040F2C030C2F20000019000F047FC0199FD
:100FC000039840F20802C2F2000240F20823C2F283
:100FD000000304F0BFFE0399012008700AF0B0FD81
:100FE0000CE00BE00AE009E00398FFF70DFF05E0D5
:100FF0000398FFF769FF01E000E0FFE704B080BD60
:1010000080B5012000F000FF002000F0FDFE80BD53
:1010100082B0ADF806000020009046F60040C4F211
:1010200000000090BDF80610009808440090009859
:10103000008802B07047000082B0ADF80600ADF83D
:1010400004100020009046F60040C4F2000000901A
:10105000BDF80610009808440090BDF804000099FF
:10106000086002B070470000FFE7FEE782B0019021
:101070008DF803109DF8030030B1FFE7019908686F
:1010800040F00100086006E0019908684FF6FE7222
:1010900010400860FFE702B07047000081B0009088
:1010A000009908684FF6FE72104008600099002011
:1010B000086000994860009988600099C8600098AD
:1010C0000821C4F20201884208D1FFE70421C4F2DA
:1010D0000201086840F00F000860B9E000981C2188
:1010E000C4F20201884208D1FFE70421C4F20201E0
:1010F000086840F0F0000860A9E000983021C4F2D0
:101100000201884208D1FFE70421C4F20201086805
:1011100040F47060086099E000984421C4F2020134
:10112000884208D1FFE70421C4F20201086840F4B4
:101130007040086089E000985821C4F2020188429A
:1011400008D1FFE70421C4F20201086840F47020CE
:10115000086079E000986C21C4F20201884208D14D
:10116000FFE70421C4F20201086840F4700008603F
:1011700069E000988021C4F20201884208D1FFE7AB
:101180000421C4F20201086840F07060086059E070
:10119000009840F20841C4F20201884209D1FFE7F9
:1011A00040F20441C4F20201086840F00F000860F8
:1011B00047E0009840F21C41C4F20201884209D184
:1011C000FFE740F20441C4F20201086840F0F00079
:1011D000086035E0009840F23041C4F202018842D4
:1011E00009D1FFE740F20441C4F20201086840F46B
:1011F0007060086023E0009840F24441C4F20201AC
:10120000884209D1FFE740F20441C4F202010868B4
:1012100040F47040086011E0009840F25841C4F278
:101220000201884209D1FFE740F20441C4F2020101
:10123000086840F470200860FFE7FFE7FFE7FFE77A
:10124000FFE7FFE7FFE7FFE7FFE7FFE7FFE7FFE76E
:1012500001B0704781B000900098406880B201B042
:101260007047000080B583B002900191002000908B
:10127000029800680090009847F6F071884300904B
:101280000199D1F820E08868D1F810C04B698A69CB
:1012900040EA0E0040EA0C0018431043CA691043AC
:1012A0004A6A1043896A01430098084300900098F5
:1012B000029908600198C068029948600198006826
:1012C00002998860019840680299C86003B080BDA7
:1012D00082B00190ADF80210BDF80200019948609B
:1012E00002B070477047000088B007900691002058
:1012F0000590049003900290019000900698C078A9
:1013000000F00F0005900698C078C006002806D5AA
:10131000FFE706988178059808430590FFE706984F
:10132000007800284BD0FFE7079800680190002064
:101330000390FFE7039807283DD8FFE703990120B2
:10134000884002900698008802990840049004980A
:10135000029988422AD1FFE70398800002900299FF
:101360000F208840009000990198884301900598CB
:10137000029900FA01F10198084301900698C0789B
:10138000282806D1FFE70399012088400799486182
:101390000BE00698C078482806D1FFE703990120A2
:1013A000884007990861FFE7FFE7FFE7FFE7039839
:1013B00001300390BEE7019807990860FFE706989F
:1013C0000088B0F5807F50DBFFE707984068019008
:1013D00000200390FFE70398072842D8FFE703980F
:1013E00000F10801012088400290069800880299C7
:1013F000084004900498029988422DD1FFE7039891
:101400008000029002990F20884000900099019876
:10141000884301900598029900FA01F10198084368
:1014200001900698C078282808D1FFE7039800F1BA
:1014300008010120884007994861FFE70698C078B5
:10144000482808D1FFE7039800F1080101208840EF
:1014500007990861FFE7FFE7FFE703980130039072
:10146000B9E7019807994860FFE708B070470000A6
:1014700080B586B000200490694648604FF4407003
:10148000086044F23860C2F200004DF25C41C0F6E0
:10149000000141F23802C2F200024FF4807308F0FA
:1014A00045FE0490049818B1FFE70020059052E033
:1014B00069466420C860162088604FF480604860E8
:1014C00040F63840C2F20000086040F6B830C2F280
:1014D00000004DF26941C0F6000141F25D52C0F6D4
:1014E0000002002309F0CEF90490049838B9FFE710
:1014F00040F6B830C2F2000009F052FA00E0FFE70F
:1015000069466420C860162088604FF40070486007
:1015100040F6B810C2F20000086040F63810C2F27F
:1015200000004DF25441C0F6000141F29952C0F65C
:101530000002002309F0A6F90490049838B9FFE7E7
:1015400040F63810C2F2000009F02AFA00E0FFE786
:1015500001200590FFE7059806B080BD80B5C2B0B8
:101560004190FFE744F23860C2F2000001A94FF455
:1015700080724FF0FF3308F031FE58B9FFE701A841
:10158000009008F015F9009800214FF4807208F0DF
:1015900073FDFFE7E6E7000080B582B0019001210E
:1015A0004FF4E1320023184605F032F904F0E2FC72
:1015B000FFE705F0C5F90A2009F090F9F9E7000006
:1015C000FFE7FEE780B586B00590ADF812108DF804
:1015D0001120059840F60001C4F20101884205D1AE
:1015E000FFE70420012100F0D7FB55E0059840F605
:1015F0000041C4F20101884205D1FFE70820012122
:1016000000F0CAFB47E0059841F20001C4F2010175
:10161000884205D1FFE71020012100F0BDFB39E031
:10162000059841F20041C4F20101884205D1FFE76B
:101630002020012100F0B0FB2BE0059841F60001CD
:10164000C4F20101884205D1FFE74020012100F0EA
:10165000A3FB1DE044F29C31C2F200010B68581C50
:1016600008604DF2C530C0F60000694648604DF292
:10167000C030C0F6000008604DF2F831C0F600013D
:101680004DF2CA32C0F60002002000F0D9FE13E08D
:10169000FFE7FFE7FFE7FFE7BDF81200ADF80C003A
:1016A0009DF811008DF80F0003208DF80E000598AD
:1016B00003A9FFF719FEFFE706B080BD80B582B031
:1016C0004FF080500121019100F02EFB01994FF065
:1016D000006000F029FB019800F0FEFA0420FFF7FB
:1016E00097FC4AF2B551884226D0FFE7FFF788FC05
:1016F000012000F091FCFFE7612000F04BFC012885
:1017000001D0FFE7F8E74FF4007000F09DFC0120E6
:1017100000F08EFC00F008FD00F0FAFC49F63F40B6
:1017200000F0DEFC00F0F4FC00F06EF804204AF259
:10173000B551FFF781FC16E0012000F06DFCFFE7DA
:10174000612000F027FC012801D0FFE7F8E74FF403
:10175000007000F079FC012000F06AFC00F0E4FC6D
:1017600000F0D6FCFFE7012002B080BD10B58CB0C0
:1017700000F08AFC00F5E1400B900BA8FEF7FCFEA0
:101780008446DCF80000DCF80410DCF80820DCF803
:101790000C30DCF810E0DCF814400594CDF810E0D3
:1017A0000393029201910090DCF81800DCF81C1001
:1017B000DCF82020DCF82430DCF828C0CDF828C084
:1017C0000993089207910690059800F26C7040F218
:1017D0000831C2F200010880049801304880039863
:1017E00088800298C88001980881009848816846DE
:1017F000FEF734FD0B900B9840F21831C2F2000155
:1018000008600CB010BD000080B58CB040F208300C
:10181000C2F200000188A1F26C7105914188013982
:10182000049181880391C1880291018901914089C5
:1018300000906846FEF712FDA0F5E1400B900B9872
:1018400000F038FC00F064FC0CB080BD80B5A8B09E
:10185000279000201490ADF84E002798006843F6BA
:101860000001C4F20101884245D1FFE74FF48070C6
:10187000ADF84E004FF480400121129100F08CFA37
:101880001299084600F034FA40F60000C4F2010054
:1018900010904FF400711822FFF794FE10984FF447
:1018A00080610422FFF78EFE129825218DF88410A6
:1018B00000218DF885108DF886108DF8870021A8FD
:1018C00000F0A8F9129A43F60000C4F2010011904A
:1018D00040F2244102F0BEFB1198129A5821C4F242
:1018E0000201159143F60401C4F201011491402153
:1018F00002F01CFB52E12798006844F20041C4F258
:101900000001884244D1FFE74FF48070ADF84E00EB
:101910004FF4003001210F9100F006FA0F990846AC
:1019200000F0E6F940F60000C4F201000C9004213A
:101930000D911822FFF746FE0C980D9A0821FFF72B
:1019400041FE0F9826218DF8841000218DF8851016
:101950008DF886108DF8870021A800F05BF90F9AAA
:1019600044F20040C4F200000E9040F2244102F024
:1019700071FB0E980F9A6C21C4F20201159144F28A
:101980000441C4F200011491402102F0CFFA04E1B5
:101990002798006844F60001C4F20001884245D14E
:1019A000FFE74FF48070ADF84E004FF48020012126
:1019B0000B9100F0B9F90B99084600F099F940F63F
:1019C0000040C4F2010009904FF480611822FFF733
:1019D000F9FD09984FF400610422FFF7F3FD0B981D
:1019E00027218DF8841000218DF885108DF8861040
:1019F0008DF8870021A800F00DF90B9A44F600003D
:101A0000C4F200000A9040F2244102F023FB0A983D
:101A10000B9A3021C4F20201159144F60401C4F27C
:101A200000011491402102F081FAB5E02798006886
:101A300044F60041C4F20001884246D1FFE74FF46A
:101A40008070ADF84E004FF400200121089100F0A5
:101A50006BF90899022000F04BF941F20000C4F242
:101A6000010006904FF480611822FFF7ABFD069845
:101A70004FF400610422FFF7A5FD089834218DF88A
:101A8000841000218DF885108DF886108DF8870060
:101A900021A800F0BFF8089A44F60040C4F2000004
:101AA000079040F2244102F0D5FA0798089A40F2D4
:101AB0003041C4F20201159144F60441C4F2000120
:101AC0001491402102F032FA65E02798006845F24F
:101AD0000001C4F2000188423ED1FFE74FF480705C
:101AE000ADF84E004FF480100121059100F01CF973
:101AF0000599022000F0FCF841F20000C4F2010058
:101B00004FF480511822FFF75DFD41F20040C4F20E
:101B1000010004221146FFF755FD059835218DF887
:101B2000841000218DF885108DF886108DF88700BF
:101B300021A800F06FF8059A45F20000C4F20000F9
:101B4000049040F2244102F085FA0498059A40F28C
:101B5000255102F07FFA1DE044F29831C2F20001F3
:101B60000B68581C08604DF2C530C0F6000069468D
:101B700048604DF2EB30C0F6000008604DF2D23103
:101B8000C0F600014DF2F032C0F60002002000F075
:101B900057FC3BE0FFE7FFE7FFE7FFE727984068D8
:101BA000229000200390ADF88C00ADF88E00ADF8C7
:101BB0009000ADF894000C20ADF8920027980068D2
:101BC00022A902F091FA27980068012102F098F901
:101BD0001598FFF763FA03982799C968023117919E
:101BE0001890BDF84E10023919911A9080211B915E
:101BF0001C901D901E904FF400511F91209014983E
:101C00001690159816A9FFF72DFBFFE728B080BDA9
:101C10007047000084B003900020029001900F20D4
:101C200000900398C078B8B3FFE74EF60C50CEF2A0
:101C300000000068C043C0F3022002900298C0F187
:101C40000400019000980299C840009003984078E1
:101C50000199884002900398807800990140029889
:101C600008430290029800010290029803990978B3
:101C70004EF20042CEF2000288540398027802F03D
:101C80001F01012088401C2101EAD2014EF20012FE
:101C9000CEF2000288500EE00398027802F01F0195
:101CA000012088401C2101EAD2014EF28012CEF2BE
:101CB00000028850FFE704B07047000081B0009038
:101CC00000980021C0F2FA5108434EF60C51CEF2B2
:101CD0000001086001B0704781B08DF803009DF8E5
:101CE00003002021C4F20E21086001B070470000FB
:101CF00082B001908DF803109DF8030048B1FFE712
:101D0000019A41F21401C4F202010868104308600C
:101D100008E0019A41F21401C4F2020108689043FC
:101D20000860FFE702B0704782B001908DF80310A1
:101D30009DF8030048B1FFE7019A41F21C01C4F28B
:101D4000020108681043086008E0019A41F21C0192
:101D5000C4F20201086890430860FFE702B07047D0
:101D600082B001908DF803109DF8030048B1FFE7A1
:101D7000019A41F21001C4F20201086810430860A0
:101D800008E0019A41F21001C4F202010868904390
:101D90000860FFE702B0704782B001908DF8031031
:101DA0009DF8030048B1FFE7019A41F21801C4F21F
:101DB000020108681043086008E0019A41F2180126
:101DC000C4F20201086890430860FFE702B0704760
:101DD00082B001908DF803109DF8030048B1FFE731
:101DE000019A41F20C01C4F2020108681043086034
:101DF00008E0019A41F20C01C4F202010868904324
:101E00000860FFE702B0704781B08DF803009DF8CD
:101E1000030040F24041C4F24221086001B0704723
:101E200086B005900020049003900290019041F24A
:101E30000400C4F20200006800F00C000490049852
:101E4000009040B1FFE7009804280BD0FFE700980E
:101E500008280ED047E0059941F20020C0F27A0030
:101E6000086047E0059941F20020C0F27A0008605E
:101E700040E041F20400C4F20200016801F4701174
:101E80000391006800F4803002900399022000EB77
:101E900091400390029848B9FFE7039840F600117B
:101EA000C0F23D014843059908601BE041F204007F
:101EB000C4F2020000688003002809D5FFE70398F8
:101EC00040F60011C0F23D0148430599086008E062
:101ED000039841F20021C0F27A0148430599086055
:101EE000FFE7FFE706E0059941F20020C0F27A0023
:101EF0000860FFE741F20400C4F20200016801F04B
:101F0000F0010491049909090491049A4CF64821BE
:101F1000C0F600018A5C0192059B1A68DDF804C0D6
:101F200022FA0CF25A60026802F4E0620492049A07
:101F3000120A0492049A8A5C0192059B5A68DDF8A1
:101F400004C022FA0CF29A60026802F46052049211
:101F5000049AD20A0492049A895C0191059A516804
:101F6000019BD940D160006800F44040049004987F
:101F7000800B049004994CF64420C0F60000405CAD
:101F800001900599C868019AB0FBF2F0086106B0AB
:101F90007047000084B08DF80F000020029001907F
:101FA0008DF803009DF80F00400902900298012867
:101FB00007D1FFE741F20000C4F20200006801907F
:101FC00012E00298022807D1FFE741F22000C4F294
:101FD00002000068019006E041F22400C4F2020011
:101FE00000680190FFE7FFE79DF80F0000F01F0079
:101FF000029001980299C840C00720B1FFE7012074
:102000008DF8030003E000208DF80300FFE79DF842
:10201000030004B07047000081B08DF803009DF804
:10202000030040F28041C4F24221086001B07047D1
:1020300081B08DF803009DF8030040F23C41C4F2EA
:102040004221086001B0704781B00090009A41F2CF
:102050002001C4F2020108681043086001B0704713
:1020600042F60401C4F20001088840F01000088024
:102070007047000042F60401C4F20001088820F015
:10208000100008807047000081B00020ADF8020009
:1020900042F61C00C4F200000088ADF8020042F6CF
:1020A0001800C4F200000188BDF8020040EA0140B7
:1020B00001B0704780B582B00190FFF7D1FFBDF845
:1020C000060042F61801C4F200010880019842F6A9
:1020D0001C01C4F200010880FFF7CCFF02B080BDF4
:1020E00080B582B00190FFF7BBFF0198C0F30340B9
:1020F00042F60801C4F200010880019842F60C0182
:10210000C4F200010880FFF7B5FF02B080BD0000F7
:10211000FFE742F60400C4F20000008880060028B1
:1021200001D4FFE7F5E7704742F60401C4F200016D
:10213000088820F008000880FFE742F60400C4F297
:10214000000000880007002801D4FFE7F5E770478A
:1021500080B582B000200DF10701012200F03AF8AD
:1021600000900098012804D1FFE79DF80700009037
:1021700003E04FF0FF300090FFE7009802B080BD11
:1021800080B584B0FFE741F6C010C2F200000090B5
:1021900000980078532803D0FFE702F063FAFFE7C6
:1021A000FFE741F6C010C2F20000603003900398D0
:1021B0000069029002980399C968884203D0FFE73A
:1021C0000120019002E000200190FFE7019804B097
:1021D00080BD000080B586B0059004910392EFF3B6
:1021E00011804FF0200181F3118801900598049926
:1021F000039A00F007F80290019880F31188029882
:1022000006B080BD80B58EB00D900C910B92FFE7AB
:1022100041F6C010C2F200000390039800785328E2
:1022200003D0FFE702F01EFAFFE7FFE70D9800EB8F
:10223000400141F6C010C2F2000000EBC100603066
:1022400005900C9806900598006908900598C0685C
:1022500007900020099008980799884236D9FFE72F
:10226000059880680899401A0A900A980B99884244
:1022700003D2FFE70A98029002E00B980290FFE772
:1022800002980A90059840680899084404900698B6
:1022900004990A9AFEF736F80A99099808440990B1
:1022A0000A990698084406900A990B98401A0B90D0
:1022B0000A990898084408900898059989688842FE
:1022C00003D1FFE700200890FFE7FFE70798089990
:1022D000401A0A900A980B99884203D2FFE70A989D
:1022E000019002E00B980190FFE701980A900A988C
:1022F000D8B1FFE70598406808990844049006980B
:1023000004990A9AFDF7FEFF0A9909980844099072
:102310000A990698084406900A990B98401A0B905F
:102320000A99089808440890FFE7099820B1FFE748
:10233000089805990861FFE709980EB080BD000074
:1023400080B586B0059004910392FFE741F6C01076
:10235000C2F20000019001980078532803D0FFE7F3
:1023600002F080F9FFE7FFE7EFF311804FF0200163
:1023700081F31188009005980499039A00F008F8F9
:102380000290009880F31188029806B080BD00008A
:1023900080B58AB00990089107920898049009982E
:1023A00000EB400141F6C010C2F2000000EBC1009A
:1023B0001830039003984069029040B1FFE70298FB
:1023C000012819D0FFE7029802282CD032E00398A8
:1023D00002F096F9059005980799884203D2FFE725
:1023E0000020069007E00798069003980499079A42
:1023F00002F00EFCFFE720E0039802F081F905905F
:1024000005980799884203D2FFE70598019002E0FA
:1024100007980190FFE70198069003980499069A9F
:1024200002F0F6FB09E003980499079A02F080FB9A
:10243000069002E000200690FFE706980AB080BDF3
:1024400082B080B584B0079306920390029106A8EB
:102450000090039802996A4600F008F801900198EC
:1024600004B0BDE8804002B07047000080B5AAB05B
:102470002990289127920DA8219040202290002099
:102480002390299925912490FFE7289800788DF8CA
:102490009B002898013028909DF89B0008B9FFE721
:1024A00017E29DF89B00252840F00682FFE70020F8
:1024B0001E9001202090FFE7289800788DF89B005F
:1024C0009DF89B002338014609910D2829D80999C8
:1024D000DFE801F01F2727272727272717270727A8
:1024E000270F1E9840F001001E9028980130289078
:1024F0001AE01E9840F002001E90289801302890A3
:1025000012E01E9840F004001E9028980130289098
:102510000AE01E9840F008001E902898013028908C
:1025200002E000202090FFE7FFE720980028C3D1B9
:10253000FFE700201D90FFE7289800788DF89B00AA
:102540009DF89B00302805DBFFE79DF89B003A28AB
:1025500001DBFFE710E02898013028901D9800EB80
:1025600080019DF89B0000EB410030381D90FFE793
:1025700001200028E0D1FFE700201F902898007874
:102580008DF89B009DF89B002E2825D1FFE7289809
:1025900001302890FFE7289800788DF89B009DF87F
:1025A0009B00302805DBFFE79DF89B003A2801DB04
:1025B000FFE710E02898013028901F9800EB800179
:1025C0009DF89B0000EB410030381F90FFE7012091
:1025D0000028E0D1FFE7FFE7289800788DF89B00FE
:1025E000FFE79DF89B006C2805D0FFE79DF89B0056
:1025F000682808D1FFE728980130289028980078AB
:102600008DF89B0000E004E0FFE701200028E8D1FE
:10261000FFE79DF89B00253801460891532800F2FA
:1026200046810899DFE811F0D800430143014301D6
:10263000430143014301430143014301430143017A
:10264000430143014301430143014301430143016A
:10265000430143014301430143014301430143015A
:1026600043014301430143014301DD0043014301B1
:10267000430143014301430143014301430143013A
:1026800043014301430143014301430143018B00E3
:10269000430143014301430143014301430143011A
:1026A00043014301540063004301DD004301430142
:1026B0004301430143014301430143014301C70077
:1026C000430143019F0043017700430143018B0015
:1026D000279A1068011D11600068209020988DF8DD
:1026E00033009DF8331021A802F0E6F9E0E0279AC4
:1026F0001068011D11600068209020991F9B1D9893
:10270000DDF878C06A46C2F804C0106021A80A2229
:1027100002F016F8CCE0279A1068011D11600068DD
:10272000209020991F9B1D98DDF878C06A46C2F85A
:1027300004C0106021A80A2202F0E8F8B8E0279A45
:102740001068011D11600068209020991F9B1D9842
:10275000DDF878C06A46C2F804C0106021A81022D3
:1027600002F0D4F8A4E0279A1068011D11600068F7
:102770000B900B9830B9FFE74DF24D40C0F60000CA
:102780000B90FFE7FFE70B9800788DF89B000B9804
:1027900001300B909DF89B0008B9FFE70AE09DF817
:1027A0009B1021A802F088F9FFE72498B0F1FF3FC1
:1027B000E9DCFFE77CE0279A1068011D11600068E2
:1027C000209020996846002242600823036021A8D7
:1027D000102202F09BF86BE021A8252102F06CF991
:1027E00066E0279A1068073020F0070101F1080021
:1027F000106008684968FDF74BFE0A900A980021AE
:10280000FDF71FFE28B9FFE721A82D2102F054F99A
:10281000FFE70A98FDF723FE06900028079002D5EF
:102820000698404207900798209020991F9B1D987A
:10283000DDF878C06A46C2F804C0106021A8039091
:102840000A22029201F07CFF03982E2102F034F953
:102850000A980021C4F2C821FDF7C1FDFDF7FFFD74
:1028600004900028059002D5049840420590029AF1
:10287000039805992091DDF880C048F21F51C5F2F8
:10288000EB118CFB0113591101EBD371642301FB94
:1028900013C1209120991D9BDDF878E0EC46CCF81F
:1028A00004E0CCF80030022301F04AFF00E0FFE72B
:1028B00028980130289005E09DF89B1021A802F08F
:1028C000FBF8FFE7FFE72498B0F1FF3F3FF7DDADEE
:1028D000FFE7249801280EDBFFE7239830B1FFE7DC
:1028E0002998239A0DA9FFF72BFDFFE72399249838
:1028F00008442490FFE724982AB080BD7047000068
:1029000080B500F001F880BD84B0002003900290F3
:1029100041F20001C4F20201086840F4803008600E
:10292000FFE741F20000C4F20200006800F400304A
:102930000290039801300390FFE702990020019074
:1029400039B9FFE70398B0F5A06018BF01200190E6
:10295000FFE70198C0070028E3D1FFE741F200003C
:10296000C4F2020000688003002803D5FFE70120BD
:10297000029002E000200290FFE70298012851D166
:10298000FFE742F20001C4F20201086840F01000C3
:102990000860086820F003000860086840F0020042
:1029A000086041F20401C4F2020100910868086065
:1029B00008680860086840F480600860086820F4CF
:1029C0007C100860086840F4E810086041F20001DB
:1029D000C4F20201086840F080700860FFE741F22D
:1029E0000000C4F2020000688001002801D4FFE763
:1029F000F5E741F20401C4F20201086820F0030087
:102A00000860086840F002000860FFE741F2040037
:102A1000C4F20200006800F00C00082801D0FFE7B3
:102A2000F4E700E0FFE704B07047000080B582B033
:102A3000009000980138B0F1807F03D3FFE70120B8
:102A4000019019E0009801384EF21401CEF2000115
:102A500008604FF0FF300F2102F01CF94EF2180110
:102A6000CEF20001002008604EF21002CEF2000209
:102A7000072111600190FFE7019802B080BD0000BE
:102A800080B507F089F808F05BF807F097F880BD8B
:102A900080B541F20002C4F20202106840F0010069
:102AA000106041F20401C4F2020108680023CFF66D
:102AB000FF031840086010684FF6FF73CFF6F66307
:102AC00018401060106820F480201060086820F41E
:102AD000FE00086041F20801C4F202014FF41F0039
:102AE0000860FFF70DFF4EF60851CEF200014FF0DF
:102AF0000060086080BD000080B542F60040C4F26E
:102B00000100012100F0B2FB40B1FFE742F60040B6
:102B1000C4F20100012100F039FAFFE780BD000096
:102B200080B54FF08040012100F0A0FB40B1FFE7ED
:102B300006F036FE4FF08040012100F027FAFFE753
:102B400080BD000080B58CB0ADF82E008DF82D1042
:102B500004200121FFF720F99DF82D00012813DB47
:102B6000FFE79DF82D0004280EDCFFE79DF82D00FF
:102B7000411E0120884081B240F60000C4F20100ED
:102B80001822FEF71FFD1DE044F29431C2F200014D
:102B90000B68581C08604DF2C530C0F6000069464D
:102BA00048604DF2C030C0F6000008604DF2393187
:102BB000C0F600014DF2CA32C0F600020020FFF755
:102BC0003FFC55E06020ADF818000120ADF81A0078
:102BD000BDF82E00ADF81E000020ADF820009DF8D5
:102BE0002D0001280BD1FFE74FF08040059006A98A
:102BF00000F08EFB0598082100F03CFC32E09DF8C7
:102C00002D0002280BD1FFE74FF08040049006A969
:102C100000F04EFC0498082100F0EAFC21E09DF849
:102C20002D0003280BD1FFE74FF08040039006A949
:102C300000F0FEFC0398082100F09AFD10E09DF8DA
:102C40002D0004280BD1FFE74FF08040029006A929
:102C500000F0ACFD0298082100F020FEFFE7FFE73E
:102C6000FFE7FFE74FF08040012100F09BF9FFE70D
:102C70000CB080BD80B540F20040C4F200000121DC
:102C800000F0F4FA40B1FFE740F20040C4F2000067
:102C9000012100F07BF9FFE780BD000080B58CB01A
:102CA000ADF82E008DF82D1008200121FFF774F8E3
:102CB0009DF82D00012805D0FFE79DF82D00022882
:102CC0000ED1FFE79DF82D00411E1020884081B2F3
:102CD00040F60040C4F201001822FEF773FC36E013
:102CE0009DF82D00032805D0FFE79DF82D0004284E
:102CF0000ED1FFE79DF82D00C11E0120884081B252
:102D000040F60040C4F201001822FEF75BFC1DE013
:102D100044F29431C2F200010B68581C08604DF275
:102D2000C530C0F60000694648604DF2C030C0F6BC
:102D3000000008604DF26631C0F600014DF2CA3263
:102D4000C0F600020020FFF77BFB60E0FFE7602099
:102D5000ADF81C000120ADF81E00BDF82E00ADF846
:102D600022000020ADF824009DF82D0001280DD18F
:102D7000FFE740F20040C4F20000069007A900F00F
:102D8000C7FA0698082100F075FB38E09DF82D0081
:102D900002280DD1FFE740F20040C4F20000059088
:102DA00007A900F085FB0598082100F021FC25E02B
:102DB0009DF82D0003280DD1FFE740F20040C4F23A
:102DC0000000049007A900F033FC0498082100F0EB
:102DD000CFFC12E09DF82D0004280DD1FFE740F252
:102DE0000040C4F20000039007A900F0DFFC039844
:102DF000082100F053FDFFE7FFE7FFE7FFE740F2A0
:102E00000040C4F20000012100F0CCF8FFE70CB054
:102E100080BD000080B540F60000C4F20000012132
:102E200000F024FA40B1FFE740F60000C4F20000D1
:102E3000012100F0ABF8FFE780BD000080B58CB049
:102E4000ADF82E008DF82D10042001210691FEF71B
:102E50006BFF06990820FEF79FFF9DF82D000128C3
:102E600013DBFFE79DF82D0004280EDCFFE79DF83B
:102E70002D00411E4020884081B240F60040C4F23F
:102E800001001822FEF79EFB1DE044F29431C2F2CD
:102E900000010B68581C08604DF2C530C0F60000F8
:102EA000694648604DF2C030C0F6000008604DF23F
:102EB0009331C0F600014DF2CA32C0F60002002084
:102EC000FFF7BEFA5FE06020ADF81C000120ADF80E
:102ED0001E00BDF82E00ADF822000020ADF8240041
:102EE0009DF82D0001280DD1FFE740F60000C4F247
:102EF0000000059007A900F00BFA0598082100F0E2
:102F0000B9FA38E09DF82D0002280DD1FFE740F610
:102F10000000C4F20000049007A900F0C9FA049868
:102F2000082100F065FB25E09DF82D0003280DD158
:102F3000FFE740F60000C4F20000039007A900F08C
:102F400077FB0398082100F013FC12E09DF82D0098
:102F500004280DD1FFE740F60000C4F20000029003
:102F600007A900F023FC0298082100F097FCFFE776
:102F7000FFE7FFE7FFE740F60000C4F20000012191
:102F800000F010F8FFE70CB080BD000082B00190A7
:102F9000ADF80210BDF80200C0430199088202B0EA
:102FA0007047000082B001908DF803109DF8030077
:102FB00030B1FFE70199088840F00100088005E082
:102FC0000199088820F001000880FFE702B07047EF
:102FD00080B592B01190119842F60041C4F20101FF
:102FE00088420BD1FFE74FF4006010900121FEF7FB
:102FF000EFFE10980021FEF7EBFE34E11198B0F1DE
:10300000804F0AD1FFE701210F910846FEF7A8FE85
:103010000F980021FEF7A4FE24E1119840F2004130
:10302000C4F2000188420AD1FFE702200E9001217C
:10303000FEF796FE0E980021FEF792FE11E1119820
:1030400040F60001C4F2000188420AD1FFE70420E3
:103050000D900121FEF784FE0D980021FEF780FE01
:10306000FEE0119840F60041C4F2000188420AD106
:10307000FFE708200C900121FEF772FE0C9800215A
:10308000FEF76EFEEBE0119841F20001C4F2000180
:1030900088420AD1FFE710200B900121FEF760FE65
:1030A0000B980021FEF75CFED8E0119841F2004138
:1030B000C4F2000188420AD1FFE720200A900121D2
:1030C000FEF74EFE0A980021FEF74AFEC5E0119871
:1030D00043F20041C4F2010188420BD1FFE74FF4F3
:1030E000005009900121FEF773FE09980021FEF7B8
:1030F0006FFEB1E0119844F60041C4F2010188422C
:103100000BD1FFE74FF4002008900121FEF760FE8D
:1031100008980021FEF75CFE9DE0119845F2000141
:10312000C4F2010188420BD1FFE74FF480100790F1
:103130000121FEF74DFE07980021FEF749FE89E0C8
:10314000119845F20041C4F2010188420BD1FFE71A
:103150004FF4001006900121FEF73AFE0698002178
:10316000FEF736FE75E0119841F60001C4F2000149
:1031700088420AD1FFE7402005900121FEF7F0FDCB
:1031800005980021FEF7ECFD62E0119841F6004140
:10319000C4F2000188420AD1FFE780200490012197
:1031A000FEF7DEFD04980021FEF7DAFD4FE01198EE
:1031B00042F20001C4F2000188420BD1FFE74FF454
:1031C000807003900121FEF7CBFD03980021FEF7EC
:1031D000C7FD3BE0119844F20001C4F201018842AE
:1031E0000BD1FFE74FF4803002900121FEF7F0FD94
:1031F00002980021FEF7ECFD27E0119844F200410F
:10320000C4F2010188420BD1FFE74FF40030019076
:103210000121FEF7DDFD01980021FEF7D9FD13E045
:10322000119844F60001C4F2010188420BD1FFE776
:103230004FF4802000900121FEF7CAFD0098002184
:10324000FEF7C6FDFFE7FFE7FFE7FFE7FFE7FFE762
:10325000FFE7FFE7FFE7FFE7FFE7FFE7FFE7FFE73E
:10326000FFE7FFE7FFE712B080BD000083B00290E8
:10327000ADF8061000208DF80500ADF80200ADF89D
:1032800000000298008ABDF806100840ADF8020060
:1032900002988089BDF806100840ADF80000BDF81E
:1032A000020040B1FFE7BDF8000020B1FFE70120B8
:1032B0008DF8050003E000208DF80500FFE79DF87C
:1032C000050003B07047000082B00190ADF8021015
:1032D0008DF801209DF8010038B1FFE7BDF802200C
:1032E000019988891043888106E0BDF80220019980
:1032F000888990438881FFE702B0704781B00090D1
:103300000099088920F00700088101B0704700008B
:1033100084B0039002910020ADF80600ADF80400DF
:10332000ADF802000399088C20F00100088403988E
:10333000008CADF8040003988088ADF80200039873
:10334000008BADF80600BDF8060020F07000ADF867
:103350000600BDF8060020F00300ADF80600029854
:103360000188BDF806000843ADF80600BDF804006A
:1033700020F00200ADF8040002980189BDF80400B5
:103380000843ADF8040002984188BDF804000843E2
:10339000ADF80400039842F60041C4F201018842EE
:1033A00020D0FFE7039843F20041C4F201018842B4
:1033B00018D0FFE7039844F20001C4F201018842EB
:1033C00010D0FFE7039844F20041C4F201018842A3
:1033D00008D0FFE7039844F60001C4F201018842D7
:1033E00035D1FFE7BDF8040020F00800ADF8040077
:1033F00002984189BDF804000843ADF80400BDF807
:10340000040020F00400ADF8040002988188BDF8A3
:1034100004000843ADF80400BDF8020020F48070F9
:10342000ADF80200BDF8020020F40070ADF8020013
:1034300002988189BDF802000843ADF802000298A5
:10344000C189BDF802000843ADF80200FFE7BDF8EE
:10345000020003998880BDF806000399088302984A
:10346000C08803998886BDF804000399088404B0D5
:103470007047000082B00190ADF802100020ADF856
:1034800000000198008BADF80000BDF8000020F0AE
:103490000800ADF80000BDF80210BDF800000843B8
:1034A000ADF80000BDF800000199088302B0704734
:1034B00084B0039002910020ADF80600ADF804003E
:1034C000ADF802000399088C20F0100008840398DE
:1034D000008CADF8040003988088ADF802000398D2
:1034E000008BADF80600BDF8060020F4E040ADF812
:1034F0000600BDF8060020F44070ADF80600029802
:103500000188BDF8060040EA0120ADF80600BDF8CC
:10351000040020F02000ADF8040002980189BDF8F5
:10352000040040EA0110ADF8040002984188BDF89B
:10353000040040EA0110ADF80400039842F600418F
:10354000C4F20101884208D0FFE7039843F200412A
:10355000C4F20101884239D1FFE7BDF8040020F030
:103560008000ADF8040002984189BDF8040040EAEB
:103570000110ADF80400BDF8040020F04000ADF8E3
:10358000040002988188BDF8040040EA0110ADF8FB
:103590000400BDF8020020F48060ADF80200BDF820
:1035A000020020F40060ADF8020002988189BDF8A5
:1035B000020040EA8100ADF802000298C189BDF81E
:1035C000020040EA8100ADF80200FFE7BDF802000A
:1035D00003998880BDF80600039908830298C08883
:1035E00003990887BDF804000399088404B0704764
:1035F00082B00190ADF802100020ADF800000198F3
:10360000008BADF80000BDF8000020F40060ADF8BC
:103610000000BDF80210BDF8000040EA0120ADF83E
:103620000000BDF800000199088302B07047000057
:1036300084B0039002910020ADF80600ADF80400BC
:10364000ADF802000399088C20F480700884039878
:10365000008CADF8040003988088ADF80200039850
:10366000808BADF80600BDF8060020F07000ADF8C4
:103670000600BDF8060020F00300ADF80600029831
:103680000188BDF806000843ADF80600BDF8040047
:1036900020F40070ADF8040002980189BDF8040020
:1036A00040EA0120ADF8040002984188BDF804000A
:1036B00040EA0120ADF80400039842F60041C4F24C
:1036C0000101884208D0FFE7039843F20041C4F2A9
:1036D0000101884239D1FFE7BDF8040020F4006001
:1036E000ADF8040002984189BDF8040040EA0120C9
:1036F000ADF80400BDF8040020F48060ADF80400CB
:1037000002988188BDF8040040EA0120ADF8040069
:10371000BDF8020020F48050ADF80200BDF80200B0
:1037200020F40050ADF8020002988189BDF8020033
:1037300040EA0110ADF802000298C189BDF802000C
:1037400040EA0110ADF80200FFE7BDF8020003995E
:103750008880BDF80600039988830298C088039981
:103760008887BDF804000399088404B070470000FE
:1037700082B00190ADF802100020ADF80000019871
:10378000808BADF80000BDF8000020F00800ADF817
:103790000000BDF80210BDF800000843ADF80000BD
:1037A000BDF800000199888302B0704784B003908F
:1037B00002910020ADF80600ADF80400ADF802005B
:1037C0000399088C20F4805008840398008CADF88D
:1037D000040003988088ADF802000398808BADF850
:1037E0000600BDF8060020F4E040ADF80600BDF884
:1037F000060020F44070ADF8060002980188BDF87C
:10380000060040EA0120ADF80600BDF8040020F4EF
:103810000050ADF8040002980189BDF8040040EAA8
:103820000130ADF8040002984188BDF8040040EA78
:103830000130ADF80400039842F60041C4F20101E2
:10384000884208D0FFE7039843F20041C4F2010127
:1038500088420FD1FFE7BDF8020020F48040ADF8A8
:10386000020002988189BDF8020040EA8110ADF89B
:103870000200FFE7BDF8020003998880BDF806004A
:10388000039988830298C0880399A1F84000BDF885
:1038900004000399088404B07047000082B00190CE
:1038A000ADF802100020ADF800000198808BADF853
:1038B0000000BDF8000020F40060ADF80000BDF885
:1038C0000210BDF8000040EA0120ADF80000BDF88C
:1038D00000000199888302B07047000082B0019017
:1038E000ADF80210BDF802000199888402B070475B
:1038F00083B0029001910020ADF802000298008888
:10390000ADF80200029842F60041C4F2010188427B
:1039100025D0FFE7029843F20041C4F2010188423A
:103920001DD0FFE70298B0F1804F18D0FFE7029852
:1039300040F20041C4F20001884210D0FFE7029833
:1039400040F60001C4F20001884208D0FFE7029867
:1039500040F60041C4F2000188420ED1FFE7BDF8F5
:10396000020020F07000ADF8020001984188BDF817
:1039700002000843ADF80200FFE7029841F200019F
:10398000C4F20001884216D0FFE7029841F20041DC
:10399000C4F2000188420ED0FFE7BDF8020020F417
:1039A0004070ADF802000198C188BDF802000843DC
:1039B000ADF80200FFE7BDF8020002990880019807
:1039C0008088029988850198008802990885029864
:1039D00042F60041C4F20101884220D0FFE702987C
:1039E00043F20041C4F20101884218D0FFE7029877
:1039F00044F20001C4F20101884210D0FFE70298AE
:103A000044F20041C4F20101884208D0FFE7029865
:103A100044F60001C4F20101884205D1FFE7019894
:103A2000007A02990886FFE702990120888203B094
:103A30007047000010B58CB08C4686460F980E99E2
:103A4000CDF82CE0ADF82AC0ADF828208DF827304D
:103A5000ADF82410ADF822000B9842F60041C4F2F4
:103A60000101884208D0FFE70B9843F20041C4F2FD
:103A7000010188420FD1FFE70B9942F60042C4F2E0
:103A800001024FF40050914208BF4FF40060012141
:103A9000FEF782F926E00B98B0F1804F05D1FFE7E1
:103AA00001210846FEF740F91BE00B9840F2004167
:103AB000C4F20001884205D1FFE702200121FEF790
:103AC00033F90DE00B9840F60001C4F20001884282
:103AD00005D1FFE704200121FEF726F9FFE7FFE704
:103AE000FFE7FFE70B98FFF709FC4FF08040FFF777
:103AF0006FFABDF82A00ADF81C00BDF82800ADF83B
:103B000018000020ADF81E00ADF81A000B9806A9A9
:103B1000FFF7EEFE0B9801221146FFF7D5FB9DF84B
:103B20002700002840D1FFE74FF4A060FEF7C6F859
:103B30000B9842F60041C4F20101884204D1FFE72C
:103B400019208DF8000023E00B98B0F1804F04D1CC
:103B5000FFE71C208DF8000019E00B9840F20041AF
:103B6000C4F20001884204D1FFE71D208DF8000057
:103B70000CE00B9840F60001C4F20001884204D129
:103B8000FFE71E208DF80000FFE7FFE7FFE7FFE7F4
:103B900002208DF801008DF8020001208DF803004D
:103BA0006846FEF737F82CE00B98B0F1804F07D14C
:103BB000FFE7BDF824009DF82210FEF7C3FF1FE0C9
:103BC0000B9840F20041C4F20001884207D1FFE7A0
:103BD000BDF824009DF82210FFF760F80FE00B9865
:103BE00040F60001C4F20001884207D1FFE7BDF8AA
:103BF00024009DF82210FFF721F9FFE7FFE7FFE718
:103C0000FFE70B980121FFF7CDF90CB010BD0000C4
:103C100080B584B044F60040C4F2000040F2244174
:103C200000F0C0F990B3FFE744F60040C4F2000092
:103C30000088039044F60440C4F20000008803901A
:103C400040F23040C4F2020001900021FDF70EFA6C
:103C50000198FDF7FFFA01460198C1F5807140F225
:103C6000D032C2F200025181012102911172D36857
:103C700004211970917AD26851704FF48071FDF768
:103C800027FB01980299FDF7F1F9FFE704B080BD29
:103C900080B582B045F20000C4F2000040F2244139
:103CA00000F080F9C8B1FFE745F20000C4F200005F
:103CB0000088019045F20400C4F2000000880190E1
:103CC00040F2E031C2F20001CA6805201070887A23
:103CD000CA68507001200872FFE745F20000C4F284
:103CE000000040F2255100F05DF9B8B1FFE745F260
:103CF0000000C4F2000000F0A5FA8DF803009DF862
:103D0000030040F2E03CC2F2000CDCF80C10BCF8FE
:103D10000A20531CACF80A308854FFE702B080BD7B
:103D200080B584B003900291ADF806200020ADF874
:103D30000400FFE7BDF80400BDF80610884216DA5B
:103D4000FFE7FFE70398802100F00AF908B9FFE7D1
:103D5000F8E703980299BDF80420895C00F07AFA2C
:103D6000FFE7BDF804000130ADF80400E2E7FFE72B
:103D70000398402100F0F4F808B9FFE7F8E704B031
:103D800080BD000080B584B043F60000C4F201009D
:103D900040F2244100F006F980B3FFE743F600004B
:103DA000C4F201000088039043F60400C4F201004D
:103DB000008803905820C4F2020001900021FDF712
:103DC00055F90198FDF746FA01460198C1F5807151
:103DD00040F2A032C2F2000251810121029111721F
:103DE000D3681970917AD26851704FF48071FDF7E1
:103DF0006FFA01980299FDF739F9FFE704B080BD29
:103E000080B584B044F20040C4F2000040F2244186
:103E100000F0C8F888B3FFE744F20040C4F20000A5
:103E20000088039044F20440C4F20000008803902C
:103E30006C20C4F2020001900021FDF717F90198EF
:103E4000FDF708FA01460198C1F5807140F2B032E1
:103E5000C2F200025181012102911172D368022144
:103E60001970917AD26851704FF48071FDF730FA71
:103E700001980299FDF7FAF8FFE704B080BD000051
:103E800080B584B044F60000C4F2000040F2244142
:103E900000F088F888B3FFE744F60000C4F20000A1
:103EA0000088039044F60400C4F2000000880390E8
:103EB0003020C4F2020001900021FDF7D7F80198EC
:103EC000FDF7C8F901460198C1F5807140F2C03292
:103ED000C2F200025181012102911172D3680321C3
:103EE0001970917AD26851704FF48071FDF7F0F932
:103EF00001980299FDF7BAF8FFE704B080BD000011
:103F000082B001908DF803109DF8030030B1FFE7F7
:103F10000199888940F40050888105E001998889D9
:103F200020F400508881FFE702B0704782B0019012
:103F3000ADF802108DF801209DF8010038B1FFE7BF
:103F4000BDF802200199888A1043888206E0BDF8F6
:103F500002200199888A90438882FFE702B0704767
:103F600082B00190ADF8021000208DF80100BDF87C
:103F70000200B0F5007F01D1FFE7FFE7019800885C
:103F8000BDF802100840000420B1FFE701208DF8C1
:103F9000010003E000208DF80100FFE79DF801001B
:103FA00002B0704786B00590ADF812100020039063
:103FB000029001908DF80300BDF8120040F66A11DE
:103FC000884201D1FFE7FFE79DF812004009019008
:103FD000BDF8120000F01F000290029901208840F5
:103FE00002900198012806D1FFE70598818902987F
:103FF0000840029010E00198022806D1FFE70598DA
:10400000018A02980840029005E00598818A02988A
:1040100008400290FFE7FFE79DF813000390039923
:104020000120884003900598018803980840039078
:10403000029838B1FFE7039820B1FFE701208DF81F
:10404000030003E000208DF80300FFE79DF8030064
:1040500006B0704786B00590ADF812108DF81120AB
:1040600000200390029001900090BDF8120040F6ED
:104070006A11884201D1FFE7FFE7059800909DF89B
:10408000120040090390BDF8120000F01F000290DA
:1040900002990120884001900398012804D1FFE78C
:1040A00000980C3000900CE00398022804D1FFE740
:1040B00000981030009003E0009814300090FFE763
:1040C000FFE79DF8110030B1FFE7019A00990868F9
:1040D0001043086005E0019A009908689043086061
:1040E000FFE706B07047000080B58CB00B900A91D6
:1040F0000020099008900790069005900A98808902
:1041000008B1FFE7FFE70B9805900B98008A09902C
:1041100009984CF6FF71084009900A98C1880998DF
:104120000843099009980B9908820B988089099097
:1041300009984EF6F311084009900A9988880A896F
:1041400010434989014309980843099009980B993C
:1041500088810B98808A099009984FF6FF410840A2
:1041600009900A98818909980843099009980B9940
:1041700088826846FDF754FE059843F60001C4F2B4
:104180000101884203D1FFE70398089002E00298FA
:104190000890FFE70B988089000400280AD5FFE704
:1041A0000898192148430A9909684900B0FBF1F0C1
:1041B000079009E00898192148430A99096889007D
:1041C000B0FBF1F00790FFE7079848F21F51C5F2E6
:1041D000EB11A0FB01016FF00F0000EA5100099004
:1041E000079A09980009642100FB112006900B989A
:1041F00080890004002810D5FFE70699322000EBE3
:10420000C10048F21F51C5F2EB11A0FB0110C0F331
:1042100042110998084309900FE00699322000EBFB
:10422000011048F21F51C5F2EB11A0FB0110C0F3C1
:104230004311099808430990FFE709980B990881F1
:104240000CB080BD81B00090009880886FF35F2033
:1042500001B0704782B00190ADF80210BDF80200C5
:104260006FF35F200199888002B07047FFE7FEE797
:1042700080B586B069466420C860162088604FF417
:104280008060486041F2B830C2F20000086041F23C
:104290003830C2F200004DF2C051C0F6000144F2C5
:1042A0004D32C0F60002002306F0ECFA05900598A6
:1042B00020BBFFE741F23830C2F2000006F070FB8D
:1042C00044F2A831C2F200010B68581C08604DF29C
:1042D000C530C0F60000694648604DF2C030C0F6F7
:1042E000000008604DF25551C0F600014DF2CA328F
:1042F000C0F600020020FEF7A3F81DE044F2A8314A
:10430000C2F200010B68581C08604DF2C530C0F6BF
:104310000000694648604DF2EB30C0F600000860CE
:104320004DF27B51C0F600014DF2F032C0F60002B2
:104330000020FEF785F8FFE740F2C030C2F200002F
:10434000FDF784FA012006B080BD000080B586B07C
:10435000059000208DF81300FFE707F0C7F88DF8EF
:1043600013009DF8130008B3FFE744F2A831C2F22E
:1043700000010B68581C08609DF813004DF2C5320F
:10438000C0F6000269468A6048604DF2EB30C0F624
:10439000000008604DF2A351C0F600014DF2F0326A
:1043A000C0F600020020FEF74BF8FFE7642006F09D
:1043B00095FAD2E780B586B069466420C8601620B9
:1043C00088604FF48060486040F23850C2F20000CC
:1043D000086040F2B840C2F200004DF24651C0F60B
:1043E000000144F29142C0F60002002306F04AFAAE
:1043F0000590059820BBFFE740F2B840C2F20000EC
:1044000006F0CEFA44F2A431C2F200010B68581C47
:1044100008604DF2C530C0F60000694648604DF2B4
:10442000C030C0F6000008604DF26F41C0F60001D8
:104430004DF2CA32C0F600020020FEF701F81DE07E
:1044400044F2A431C2F200010B68581C08604DF21E
:10445000C530C0F60000694648604DF2EB30C0F64A
:10446000000008604DF29541C0F600014DF2F032B7
:10447000C0F600020020FDF7E3FFFFE740F2C03086
:10448000C2F20000FDF7E2F9012006B080BD000095
:1044900010B5A6B025901CA81B9069464FF48272F7
:1044A0000A6041F6BC01C2F2000141F2B873C2F2E7
:1044B000000301F0BBFA00208DF82F00FFE71B98E6
:1044C00040F2C031C2F200010891C9686A465160E9
:1044D0000A21049111600121099100220A920DF133
:1044E000620303F05DFF049BDDF820C009990A9A7E
:1044F0001B98DCF80CE0EC46CCF804E0CCF800307B
:1045000016AB04F069F8049BDDF820C009990A9AFB
:104510001B98DCF80CE0EC46CCF804E0CCF800305A
:1045200011AB04F099F9049BDDF820C009990A9AAF
:104530001B98DCF80CE0EC46CCF804E0CCF800303A
:104540000CAB04F0E1FB0A9844F2A432C2F2000280
:1045500007921368591C11609DF862104DF2C53422
:10456000C0F600046A46D460916050604DF2C031DC
:10457000C0F60001059111604DF20151C0F6000135
:104580004DF2CA32C0F600020692FDF759FF0599B6
:10459000069ADDF81CE00A98DEF8003003F1010C01
:1045A000CEF800C09DF858E0EC46CCF80C40CCF8B2
:1045B00008E0CCF80400CCF800104DF2BD41C0F684
:1045C0000001FDF73DFF0599069ADDF81CE00A9809
:1045D000DEF8003003F1010CCEF800C0BDF844E075
:1045E000EC46CCF80C40CCF808E0CCF80400CCF851
:1045F00000104DF2DF41C0F60001FDF721FF0599E3
:10460000069ADDF81CE00A98DEF8003003F1010C90
:10461000CEF800C0BDF830E0EC46CCF80C40CCF849
:1046200008E0CCF80400CCF800104DF22351C0F69D
:104630000001FDF705FFDDF820C009990A9A1B98D3
:104640009DF82F3003F1010E8DF82FE0DCF80CC03F
:10465000EE46CEF800C004F03FFA4FF47A7006F050
:104660003DF92CE780B582B041F6C010C2F20000DF
:1046700001900198A821FBF75EFE019903200861D3
:104680000199486101984DF24441C0F600018161F1
:10469000019A41F67820C2F20000D061019A4FF4ED
:1046A00080501062019A00209062019A5062019A33
:1046B000D062019A1166019A41F66821C2F20001A6
:1046C0005166019A10219166019908670199C8669F
:1046D000019948670090FFE700980F280ED8FFE780
:1046E000009A4CF65820C0F60000801AC07B019951
:1046F0008854FFE7009801300090EDE702B080BDDC
:1047000084B003900398006902900398C0680190F8
:1047100002980199884209D8FFE7039881680198B7
:10472000C043084402990844009005E002990198AA
:10473000C04308440090FFE7009804B070470000B1
:1047400010B58CB0DDF83CC0DDF838C00B900A9194
:10475000099208930A98B0F1FF3F04DCFFE70A983A
:104760004042059002E00A980590FFE70598069000
:1047700001200790FFE706980999884209DBFFE7C7
:104780000698099990FBF1F0069007980130079080
:10479000F1E708980799884203D9FFE7089807903E
:1047A000FFE70E9870B1FFE70A98002806D4FFE7EC
:1047B0009DF83C004007002804D5FFE70E9801381B
:1047C0000E90FFE79DF83C008007002803D5FFE727
:1047D000089858B3FFE79DF83C00C00730BBFFE7DF
:1047E0000E9810B3FFE7FFE70E990020049041B147
:1047F000FFE707990E9A0020914238BF01200490EC
:10480000FFE70498C00778B1FFE70E9801380E90D3
:104810000B98202100F050F90B98C068B0F1FF3FD1
:1048200001DCFFE700E0DFE7FFE7FFE70B98C06888
:10483000002869D4FFE70A98B0F1FF3F08DCFFE7E2
:104840000A9840420A900B982D2100F035F90CE0AF
:104850009DF83C004007002805D5FFE70B982B2169
:1048600000F02AF900E0FFE7FFE70B98C068002896
:1048700049D4FFE79DF83C00800700282ED5FFE7CC
:104880009DF83C00C00748BBFFE7089830BBFFE736
:104890000E9810B3FFE7FFE70E990020039041B197
:1048A000FFE707990E9A0020914238BF012003903C
:1048B000FFE70398C00778B1FFE70E9801380E9024
:1048C0000B98302100F0F8F80B98C068B0F1FF3F6A
:1048D00001DCFFE700E0DFE7FFE7FFE70B98C068D8
:1048E00000280FD4FFE70B980A99099A089BDDF876
:1048F00038C00F9CEE46CEF80440CEF800C000F061
:1049000005F8FFE7FFE7FFE70CB010BD80B58CB0FE
:10491000DDF83CC0DDF838C00B900A91099208938D
:104920000A980590012006900490FFE705980999E0
:10493000884209D3FFE705980999B0FBF1F005908B
:10494000049801300490F1E708980499884203D94B
:10495000FFE708980490FFE79DF83C00C007C0BB44
:10496000FFE70E98A0B3FFE79DF83C008007002802
:1049700007D5FFE7089820B9FFE730208DF80F0032
:1049800003E020208DF80F00FFE7FFE70E990020DD
:10499000029041B1FFE704990E9A0020914238BF7E
:1049A00001200290FFE70298C00780B1FFE70E9850
:1049B00001380E900B989DF80F1000F07DF80B98C1
:1049C000C068B0F1FF3F01DCFFE700E0DEE7FFE792
:1049D000FFE70B98C06800286CD4FFE7FFE7089852
:1049E000022804D3FFE70898013808900BE00A98E2
:1049F0000699B0FBF1F0079007980999884201D217
:104A0000FFE705E0FFE70999069848430690E6E7C7
:104A1000FFE70A980699B0FBF1F00790079806990E
:104A20000A9A00FB11200A900B98079A4CF669210C
:104A3000C0F60001895C00F03FF80B98C068B0F147
:104A4000FF3F01DCFFE709E009990698B0FBF1F0B0
:104A50000690FFE706980028DBD1FFE79DF83C00B1
:104A6000C00730B3FFE70E9810B3FFE7FFE70E99DA
:104A70000020019041B1FFE704990E9A0020914275
:104A800038BF01200190FFE70198C00778B1FFE728
:104A90000E9801380E900B98202100F00DF80B981D
:104AA000C068B0F1FF3F01DCFFE700E0DFE7FFE7B0
:104AB000FFE7FFE70CB080BD80B584B003908DF8B0
:104AC0000B100398806801900198013003994968A0
:104AD00088420FD8FFE79DF80B0003990968019AF7
:104AE000885401980130039988600399C86801309F
:104AF000C860FFE7039841688068884215D1FFE7E6
:104B00000398016882680069FDF71AFC03998968B7
:104B1000884205D0FFE703994FF0FF30C86003E0FB
:104B2000039900208860FFE7FFE704B080BD000024
:104B300080B58AB0099008910792002005900998E5
:104B4000C0680390FFE709980069049004980399EE
:104B5000884206D9FFE704990398C04308440690A9
:104B600008E0099881680398049A801AC0430844B1
:104B70000690FFE7069809998968039A891A88427E
:104B800003D2FFE70698019005E009988068039931
:104B9000401A0190FFE7019806900698079988420D
:104BA00003D2FFE70698009002E007980090FFE725
:104BB000009806900998406803990844029002986A
:104BC0000899069AFBF79EFB0699059808440590FC
:104BD000069908980844089006990798401A079083
:104BE00006990398084403900398099989688842B4
:104BF00003D1FFE700200390FFE703980999C860FD
:104C0000FFE7079800289ED1FFE705980AB080BD0E
:104C100080B588B00790069105920798C068039008
:104C2000079880680399401A029002980599884273
:104C300010D9FFE70798406803990844019001984C
:104C40000699059AFBF75EFB0398059908440799B6
:104C5000C8601DE0029804900798406803990844D2
:104C6000019001980699049AFBF74CFB059802996C
:104C7000401A049007984068019001980699029A9A
:104C80001144049AFBF73EFB04980799C860FFE7BC
:104C900008B080BD82B08DF8070000919DF9070033
:104CA00000280AD4FFE7009800019DF907104EF292
:104CB0000042CEF2000288540BE0009800019DF8FB
:104CC000071001F00F014EF61452CEF20002885484
:104CD000FFE702B07047000082B00090009818B95A
:104CE000FFE70020019033E09DF8000050B1FFE79E
:104CF0009DF800104CF67920C0F60000405C0130B1
:104D0000019025E09DF8010050B1FFE79DF80110EA
:104D10004CF67920C0F60000405C0930019017E0A5
:104D20009DF8020050B1FFE79DF802104CF6792083
:104D3000C0F60000405C1130019009E09DF80310BE
:104D40004CF67920C0F60000405C19300190FFE776
:104D5000019802B07047000080B592B010900F919A
:104D60000E9200200C90FFE710980C99415C0020F7
:104D70002029029010D0FFE710980C99415C002088
:104D80000929029008D0FFE70C990F9A0020914260
:104D900038BF01200290FFE70298C00720B1FFE76B
:104DA0000C9801300C90DFE70C9820B9FFE74FF02A
:104DB000FF3011902BE010980C9904F021FA0B9021
:104DC0000B9820B9FFE74FF0FF3011901FE0002053
:104DD00001900A9009900890079006900590049021
:104DE000039010980F9903AA04F088FA0D900D987B
:104DF00020B9FFE74FF0FF30119008E00B9A0D98B3
:104E000003A990470E99086000201190FFE71198C0
:104E100012B080BD80B588B084460D980C98DDF83E
:104E20002CE0DDF828E0CDF81CC006910592049333
:104E30008DF80F000798143004F06AFF0598079961
:104E400008620498079948620A98079988620B9843
:104E50000799C8620799886ACA6A232105F00CF984
:104E6000079B186A596A9A6ADB6A1A44043A4AF23A
:104E7000C173C0F6000304F051FE0799C8619DF8A4
:104E80000F00079981F836009DF80F00079981F807
:104E9000350007980021029181630D98079A5064AC
:104EA0000D98079A906407980163079880F834106A
:104EB000079881670798C167079B03F14C006A4612
:104EC000516011604AF63522C0F60002194605F01D
:104ED00017FF029808B080BD80B586B08446089858
:104EE000CDF814C00491039202938DF807009DF849
:104EF0000700059948720599487A00F0FE0048724B
:104F000004980599C86103980599086205990020DD
:104F100088620299059A51620090FFE70098002884
:104F20000CDCFFE70598009900EBC100143004F099
:104F3000F7FEFFE7009801300090EFE706B080BD74
:104F400080B582B0019000200090FFE70098002813
:104F50000CDCFFE70198009900EBC100143004F06D
:104F6000CFFFFFE7009801300090EFE702B080BD6F
:104F700080B582B00190FBF7F7F800900198806F40
:104F800020B1FFE70198816F8847FFE70098FBF7A2
:104F9000EFF802B080BD000080B58CB00A90099196
:104FA000089207930A98C069406804900898049989
:104FB000405C03900A98C069806A98B1FFE70A983C
:104FC000C169D1F828C00999089A079BE047069063
:104FD0000698B0F1FF3F04DCFFE74FF0FF300B9085
:104FE000B1E0FFE70A98099900F0B0F9059003983D
:104FF000802820DBFFE7079804990A9AD269926813
:1050000011440231884212D1FFE70998049A805C6A
:105010000899895C8039884209D1FFE7089904988A
:10502000084441786FF07F00401A0B908BE04FF0FE
:10503000FF300B9087E007980599884206D0FFE77C
:1050400005980130002840F07780FFE703987F281B
:1050500000F37280FFE703980999049A895C8842FB
:1050600004D0FFE74FF0FF300B906CE0039801385D
:105070000146009116284ED80099DFE801F00C0C8B
:1050800028284C4C4C4C4C4C4C4C4C4C3636454CDB
:105090004C4C4C4C2800099904980844B0F8030083
:1050A00040BA02900298C11700EB517323F0070138
:1050B000421AD810012101EBE301002A18BF08466B
:1050C00002900899049808444078019027E00999D3
:1050D00004980844B0F8030040BA02900899049874
:1050E000084440784008019019E009990498084460
:1050F000B0F8030040BA0290089904980844B0F848
:10510000030040BA01900AE00899049808444078E6
:105110000190029003E0012001900290FFE70298C5
:105120000199884203D1FFE70198069003E04FF010
:10513000FF300690FFE703E04FF0FF300690FFE7F7
:1051400006980B90FFE70B980CB080BD80B584B03B
:10515000DDF818C003900291019200930398242176
:10516000FBF7E9F803994FF0FF30086002980399C4
:10517000486001980399886000980399C860069870
:105180000399086104B080BD80B588B0079006918E
:1051900005928DF8133006980799C9694968405CF3
:1051A00003909DF8130060BBFFE7039801900F3850
:1051B000022804D3FFE70198172808D00FE00699CA
:1051C0000798C069406808444079029018E0069941
:1051D0000798C06940680844407A029010E00020B7
:1051E00002900798806950B1FFE70798D0F818C07F
:1051F0000699059A9DF81330E0470290FFE7FFE714
:1052000025E00398052808DBFFE70398112804D060
:10521000FFE70398172808D1FFE706990798C069A8
:10522000406808444078029010E0002002900798FF
:10523000806950B1FFE70798D0F818C00699059A21
:105240009DF81330E0470290FFE7FFE7FFE707987C
:10525000C0698168029808440290029808B080BD35
:1052600080B586B0059004918DF80F209DF80F0051
:1052700098BBFFE70498062803DCFFE704200290B0
:105280002AE004980F2804D0FFE70498102803D1DF
:10529000FFE7052002901EE00498162803D1FFE7DF
:1052A0000620029016E00498172803D1FFE7092092
:1052B00002900EE0002002900598406940B1FFE79F
:1052C0000598436904999DF80F2098470290FFE7DD
:1052D000FFE7FFE7FFE7FFE734E0049801900138BC
:1052E000042816D3FFE701980538022814D3FFE7F6
:1052F00001980F3802280FD3FFE70198112808D032
:10530000FFE7019816280AD0FFE70198172809D16E
:10531000FFE70120029014E00420029011E0062033
:1053200002900EE0012002900598406940B1FFE72D
:105330000598436904999DF80F2098470290FFE76C
:10534000FFE7FFE79DF8080006B080BD87B0059035
:1053500004910598C0694068029004980299405CE5
:10536000013801460091162837D80099DFE801F08E
:105370000C0C24242F2F35353535353535352F2F69
:105380003535353535322400049902980844B0F893
:10539000030040BA0190019AD01702EB507001212E
:1053A00001EBE00120F00703D21AC010002A18BF59
:1053B00008460230039014E0049902980144C8782A
:1053C0000979400240EA41000230039009E00520DB
:1053D000039006E00720039003E04FF0FF300690B3
:1053E00008E00298039908440599C9698968084446
:1053F0000690FFE7069807B07047000080B58EB0B2
:105400000C900B910A920C98C1694868896808440D
:10541000053009900C9880680999884204DAFFE702
:105420004FF0FF300D9079E00B98012806DBFFE785
:105430000B980C990969884204DDFFE74FF0FF30B3
:105440000D906BE00C98C1680B9A012300F00EFAE6
:1054500008900898B0F1FF3F04DCFFE74FF0FF3001
:105460000D905BE00C984168C268089BFFF794FDC3
:1054700008900898B0F1FF3F03DCFFE708980D9013
:105480004CE0002004900C98C06940680230039002
:1054900003980899084402900C984168C0694068D4
:1054A0000844B0F8030040BA019003980790FFE762
:1054B0000798029988422EDAFFE70C98C06807998E
:1054C000405C069001200590FFE700209DF8141035
:1054D000009041B1FFE70499019A00209142B8BFC2
:1054E00001200090FFE70098C00778B1FFE7069819
:1054F00005990840002818BF01200A99049A531CF6
:1055000004938854059840000590DEE7FFE707986C
:1055100001300790CCE701980D90FFE70D980EB091
:1055200080BD000080B58EB00C900B910A920C9853
:10553000C169486889680844053009900C988068FA
:105540000999884204DAFFE74FF0FF300D9079E0C7
:105550000B98012806DBFFE70B980C990969884234
:1055600004DDFFE74FF0FF300D906BE00C98C16851
:105570000B9A012300F07AF908900898B0F1FF3FE8
:1055800004DCFFE74FF0FF300D905BE00C984168C2
:10559000C268089BFFF700FD08900898B0F1FF3F34
:1055A00003DCFFE708980D904CE0002004900C9875
:1055B000C06940680230039003980899084402903B
:1055C0000C984168C06940680844B0F8030040BACC
:1055D000019003980790FFE70798029988422EDA16
:1055E000FFE70C98C0680799405C06900120059081
:1055F000FFE700209DF81410009041B1FFE70499E7
:10560000019A00209142B8BF01200090FFE7009866
:10561000C00778B1FFE7069805990840002818BF31
:1056200001200A99049A531C049388540598400059
:105630000590DEE7FFE7079801300790CCE7019877
:105640000D90FFE70D980EB080BD000080B588B0CA
:105650000690059104920698C169486889680844D3
:1056600005300390069880680399884204DAFFE7C2
:105670004FF0FF3007904EE00598012806DBFFE76A
:10568000059806990969884204DDFFE74FF0FF306D
:10569000079040E00698C168059A012300F0E6F8FB
:1056A00002900298B0F1FF3F04DCFFE74FF0FF30BB
:1056B000079030E006984168C268029BFFF76CFCD7
:1056C00002900298B0F1FF3F03DCFFE702980790D9
:1056D00021E00698C0694068019000200090FFE733
:1056E00000980299884213DAFFE70698C16801988A
:1056F000009A00EB420008448178C07840EA01201B
:10570000049921F81200FFE7009801300090E7E7C4
:1057100002980790FFE7079808B080BD80B588B071
:105720000690059104920698C16948688968084402
:1057300005300390069880680399884204DAFFE7F1
:105740004FF0FF3007904EE00598012806DBFFE799
:10575000059806990969884204DDFFE74FF0FF309C
:10576000079040E00698C168059A012300F07EF892
:1057700002900298B0F1FF3F04DCFFE74FF0FF30EA
:10578000079030E006984168C268029BFFF704FC6E
:1057900002900298B0F1FF3F03DCFFE70298079008
:1057A00021E00698C0694068019000200090FFE762
:1057B00000980299884213DAFFE70698C1680198B9
:1057C000009A00EB420008448178C07840EA01204A
:1057D000049921F81200FFE7009801300090E7E7F4
:1057E00002980790FFE7079808B080BD80B586B0A3
:1057F000049003910498C169486889680844053099
:105800000290049880680299884204DAFFE74FF01A
:10581000FF30059027E00398012806DBFFE7039897
:1058200004990969884204DDFFE74FF0FF300590D5
:1058300019E00498C168039A012300F017F8019059
:105840000198B0F1FF3F04DCFFE74FF0FF30059017
:1058500009E004984168C268019BFFF79DFB019035
:1058600001980590FFE7059806B080BD80B586B029
:105870000490039102928DF80730029800900498EA
:10588000C06940680099C043084400900098B0F196
:10589000FF3F04DCFFE74FF0FF30059035E0049850
:1058A0000399C2695268895C9DF80720FFF7D8FC0C
:1058B00001460098401A00900098B0F1FF3F04DCC8
:1058C000FFE74FF0FF3005901FE004980399029A1C
:1058D0009DF80730FFF758FC01460098401A0090E9
:1058E0000098B0F1FF3F04DCFFE74FF0FF30059078
:1058F0000BE00498C1694B6A0399029ADDF800C075
:10590000A2EB0C0298470590FFE7059806B080BD12
:1059100084B0DDF810C003900291019200930398C7
:105920000068049908700298049948700198000A68
:105930000499887001980499C8700098000A049925
:105940000871009804994871062004B0704700005F
:1059500082B0019000910198006800990870019848
:10596000406800994870022002B0704780B586B048
:1059700004900391029203980299023989B200F0CF
:105980001FF8ADF8060003990298084410F8021CAD
:1059900010F8010C40EA0120ADF80400BDF8060043
:1059A000BDF80410884203D1FFE70298059003E098
:1059B0004FF0FF300590FFE7059806B080BD00006E
:1059C00083B00290ADF80610FF208DF805008DF829
:1059D0000400FFE7BDF80600411EADF80610E0B177
:1059E000FFE79DF8050002994A1C02920978484099
:1059F00000909DF80400009A4CF67931C0F6000141
:105A0000895C48408DF8050000994CF67940C0F655
:105A10000000405C8DF80400DCE79DF805109DF85F
:105A2000040040EA012003B07047000080B586B052
:105A3000DDF820C005900491039202930598049923
:105A4000039A029BDDF820C0EE46CEF800C0FFF7B7
:105A50007DFB05994CF67C50C0F60000C8610598A6
:105A60000062002006B080BD85B0039002910192D3
:105A700000930298007801990978884208D0FFE7DE
:105A80000298007820B1FFE74FF0FF30049002E069
:105A900000200490FFE7049805B0704782B00190A1
:105AA00000910099086802380860002002B0704731
:105AB00080B584B0039002910398BDF80810FFF7F9
:105AC0007FFFADF806009DF807000399029A531C6A
:105AD00002938854BDF806000399029A531C02935E
