:020000040800F2
:10000000C83E002049010008A110000811020008A4
:10001000BD0F0008810C0008E32400080000000068
:100020000000000000000000000000005D17000854
:10003000110D0008000000009B010008491800088D
:100040006301000863010008630100086301000800
:1000500063010008630100086301000863010008F0
:1000600063010008630100086301000863010008E0
:1000700063010008630100086301000863010008D0
:1000800063010008630100086301000863010008C0
:1000900063010008630100086301000863010008B0
:1000A00063010008630100086301000863010008A0
:1000B000B9180008D518000863010008630100089A
:1000C0006301000863010008630100086301000880
:1000D0006301000865210008ED2100086522000881
:1000E0006301000863010008630100086301000860
:1000F0006301000863010008630100086301000850
:10010000630100086301000863010008630100083F
:10011000C91D0008611F0008630100086301000891
:10012000630100086301000863010008630100081F
:10013000DFF810D000F04EFC004800472F0C0008FC
:10014000AFF30080C83E00200648804706480047BD
:10015000FEE7FEE7FEE7FEE7FEE7FEE7FEE7FEE777
:10016000FEE7FEE75918000831010008EFF31080A0
:1001700072B6704780F310887047324A1368012BBB
:1001800004D04FF0010313602F4A10602F4A116012
:100190002F484FF0805101607047EFF3108272B624
:1001A0002848016891B14FF00001016026480168BC
:1001B00029B1EFF3098121E9F00F006801602349BB
:1001C00009680968B1E8F00F81F3098882F31088A3
:1001D0004EF0040E70471D4908601B494FF00000A7
:1001E000086018494FF0010008601A481A49D0F811
:1001F000002041EA0201016015484FF08051016082
:1002000016480068006880F3088861B662B67047D7
:100210001EF0040F0CBFEFF30880EFF3098020E914
:10022000F00F40F804ED1EF0040F0CBF80F30888B7
:1002300080F3098800B504F0F3FA5DF804EB4EF0A2
:10024000040E7047740100206C0100207001002032
:1002500004ED00E020ED00E00000FFFF08ED00E00D
:1002600038B5D0E90221491E01EB410102EBC10181
:100270004268C1EB011102EB81010268C1EB01117F
:1002800002EB8102D0E9043101EB410103EB810172
:100290003023A1F5527191FBF3F4174D6C4302EB3F
:1002A000C41291FBF3F403FB141100921A2902DB30
:1002B000124B1A4400920C2291FBF2F3104C634350
:1002C000009C04EBC313009391FBF2F302FB1311A8
:1002D0000C4A08E0491E40F2A324535C6343009C8F
:1002E00004EBC31300930029F4DC0146684600F0D8
:1002F00003F9009838BD00003F0C0F008051010049
:1003000067C20300C26A000840EA01039B0703D0EA
:1003100009E008C9121F08C0042AFAD203E011F844
:10032000013B00F8013B521EF9D27047D2B201E006
:1003300000F8012B491EFBD270470022F6E710B5EA
:1003400013460A4604461946FFF7F0FF204610BD43
:1003500010B5002200E0521C835C8C5CA34201D1EA
:10036000002BF8D1D8B2E1B2401A10BD70B50646E4
:1003700002F086FA046805460A220021304600F0A1
:1003800001F92C6070BD80EA010210B502F0004353
:10039000400022D04A001FD0010E01EB1261C0F3D1
:1003A0005600C2F3560240F4000042F40002A0FBE3
:1003B000022000047F39140400D0401C50EA12408F
:1003C00001D44000491EC2B20C0604EBD010401C00
:1003D0004008802A02D003E0002010BD20F0010078
:1003E000002900DA0020184310BD00F0004220F080
:1003F0000040C10DC0F3160040F400007F2901DA6F
:1004000000207047962903DCC1F19601C84001E045
:1004100096398840002AF4D04042704701F00043EA
:1004200030B421F0004150EA010206D00A0DA2F5D5
:100430006072C1F31301002A02DC30BC0020704757
:10044000440F44EAC104C100E01830BC00EBC250C4
:1004500000F0D0B8002801DBC0F10040002901DB2A
:10046000C1F100418142704730B50B460146002082
:100470002022012409E021FA02F59D4205D303FA66
:1004800002F5491B04FA02F52844151EA2F10102E7
:10049000F1DC30BD2DE9F05F0546002092469B4619
:1004A00088460646814640241BE02846414647468A
:1004B000224600F0B0FA53465A46C01A914110D372
:1004C00011461846224600F097FA2D1A67EB0108EC
:1004D0004F4622460120002100F08EFA17EB00095A
:1004E0004E41201EA4F10104DFDC484631462A4675
:1004F0004346BDE8F09F000010B500683C22B0FB09
:10050000F2F302FB1303B0FBF2F00B60B0FBF2F36B
:1005100002FB1303B0FBF2F018224B60B0FBF2F3C6
:1005200002FB1303B0FBF2F0021D8B600723B2FB4A
:10053000F3F403FB1422800040F2B55300F66C3054
:100540008A61B0FBF3F2B0FBF3F403FB1400443216
:1005500080084A61C8613B2802D3920700D0401C42
:100560000022074C13460A61E25C824203D8801ADB
:100570005B1C0B61F8E7401CC860084610BD00001A
:10058000CE6A00082DE9F04791460F4680460446A2
:10059000002614F8015B2DB100F060FA0068405DA0
:1005A000C007F6D12B2D02D02D2D18D0641E4A463F
:1005B0003946204600F056FA27B13968A14201D1E8
:1005C000C7F8008071054FF002040BD540420028A7
:1005D00003DD02F055F90460A007BDE8F08746F49A
:1005E0008066E4E70028F8DA02F04AF904606FF068
:1005F0000040F2E70029A8BF7047401C490008BF2F
:1006000020F00100704710B4B0FA80FC00FA0CF042
:1006100050EA010404BF10BC704749B1CCF120047A
:1006200021FA04F411FA0CF118BF01212143084307
:10063000A3EB0C01CB1D4FEA00614FEA102042BF33
:10064000002010BC704700EBC35010440029A4BF29
:1006500010BC7047401C490008BF20F0010010BCCE
:1006600070472DE9FE4F804681EA0300C00F0C461B
:10067000009021F0004123F00045B8EB0200A941B1
:1006800005D24046214690461C460B46024623F0C2
:100690000040104347D0270DC7F30A00C3F30A51A7
:1006A0000290401A019040286BDAC3F3130040F423
:1006B000801B0098924620B10023D2EB030A63EB23
:1006C0000B0B01985946C0F14002504600F094F9D6
:1006D00006460D4650465946019A00F0ACF910EB1B
:1006E00008006141002487EA115284EAE7731A4343
:1006F00040D0009A62B3019A012A4FEA075215DCF2
:10070000001B61EB02014FF0004202EA0752CDE903
:100710000042001C41F5801132462B4600F000FAE1
:1007200003B0BDE8F08F40462146F9E7001B61EBBE
:100730000201001C41F5801300185B412018A2F54E
:10074000001747EB030140EAD570B6196D4111E07F
:100750006D084FEA360645EAC0754FEA0752001B9E
:1007600061EB0201001C41F5801149084FEA30009D
:100770000019514132462B4603B0BDE8F04F00F05E
:10078000C0B90098012240000023D0EB020263EBC5
:10079000E073009821464FEAE074B8EB000061EB8B
:1007A0000401E9E783F000435BE781F0004158E78B
:1007B0002DE9FE4F81EA030404F0004421F00041DA
:1007C00000944FF0000B23F0004350EA01045ED088
:1007D00052EA03045BD0C3F30A54C1F30A552C4414
:1007E000A4F2F3340194A0FB0254C1F3130141F4C9
:1007F0008011C3F3130343F4801301FB024400FB95
:10080000034E840A970A44EA815447EA8357A4FBBB
:10081000076802958D0A05FB07854FEA932C04FBB8
:100820000C542705029D4FEA065847EA1637B5EBE8
:1008300008056EEB070C870E920E47EA811742EA15
:100840008312A7FB0201B6EB0B0164EB00042B0D36
:1008500043EA0C335E1844EB1C50DA465146E7FB82
:100860000201C5F313044FEA0B3343EA14534FEA72
:100870000432019C43EA0603A4F10C040294009C98
:10088000CDE900B400F04CF903B0BDE8F08F0020D2
:100890000146F9E72DE9F04D81EA030404F0004B2D
:1008A00021F0004514464FF0000A23F0004150EAC1
:1008B000050220D054EA01021DD0C5F30A570246B2
:1008C000C5F31303C1F31300C1F30A5640F48015B6
:1008D00043F48013A7EB0608101BD64608F2FD3838
:1008E00073EB050002D308F1010801E092185B41A7
:1008F000B8F1000F03DA00200146BDE8F08D0020BA
:100900004FF48011064684460EE0171B73EB050773
:1009100005D3121B63EB050306434CEA010C49089F
:100920004FEA300092185B4150EA0107EDD152EADC
:10093000030012D082EA040083EA0501084305D0CF
:10094000101BAB4106D20122002306E000224FF02B
:10095000004302E06FF0010253101AEB06004CEB6B
:10096000085110EB0A0041EB0B01BDE8F04D00F01F
:10097000C8B8C1F30A52C1F3130140F2FF3341F486
:1009800080119A4202DA00200146704740F2334358
:100990009A42A2F2334202DC524200F03CB800F02C
:1009A0002BB8000030B5041E71F1000404DB4FF0D9
:1009B0000044404264EB0101141E73F1000405DBA6
:1009C0001C464FF00043524263EB0403994208BFB8
:1009D000904230BD064C074D06E0E06840F0010350
:1009E00094E8070098471034AC42F6D3FFF7A4FB15
:1009F000646E0008846E0008202A04DB203A00FAA6
:100A000002F1002070479140C2F1200320FA03F365
:100A1000194390407047202A04DB203A21FA02F063
:100A20000021704721FA02F3D040C2F12002914028
:100A3000084319467047202A06DBCB17203A41FAB3
:100A400002F043EAE07306E041FA02F3D040C2F15B
:100A50002002914008431946704700000048704743
:100A60005C6B00082DE9F05F824600780027154690
:100A70008B460AF10104B946302801D09DB113E03C
:100A800014F8010B0127782803D0582801D045B16C
:100A90000AE00DB1102D07D10027102514F8010B25
:100AA00002E0082500E00A250026B0460EE005FB1E
:100AB000080005FB06F1012701EB10461FFA80F83C
:100AC000B6F5803F00D3B94614F8010B294600F073
:100AD00075F80028EBDABBF1000F05D00FB1641EEA
:100AE00000E05446CBF80040B9F1000F06D001F009
:100AF000C7FE02210160C81EBDE8F09F48EA06401B
:100B0000FAE710B5141E73F1000408DA401C41F135
:100B1000000192185B411A4301D120F0010010BD81
:100B20002DE9F04D92469B4611B1B1FA81F202E0F7
:100B3000B0FA80F220329046FFF75EFF04460F467F
:100B400040EA0A0041EA0B0153465A46084313D0D3
:100B5000114653EA010019D0C8F140025046FFF790
:100B60005AFF05460E46504659464246FFF744FF97
:100B7000084305D0012004E020463946BDE8F08D49
:100B80000020054346EAE0762C4337430A98630584
:100B9000E40AA0EB08000022FD0A44EA47540A30A8
:100BA00002D500200146E9E7010510196941DDE998
:100BB000084500196941BDE8F04DA2E73A2800D286
:100BC000303820F02002412A01D3A2F137008842B8
:100BD00001D34FF0FF30704770B58C1810F8015BEF
:100BE00015F0070301D110F8013B2A1106D110F8C6
:100BF000012B03E010F8016B01F8016B5B1EF9D1CA
:100C00002B0705D40023521E0DD401F8013BFAE74F
:100C100010F8013BCB1A921C03E013F8015B01F8BA
:100C2000015B521EF9D5A142D8D3002070BD10B58A
:100C300004F0C6FF002010BD10B5012000F0C0FA7E
:100C4000002000F0BDFA10BD08B50146002000905C
:100C5000034800900098084400900098008808BD60
:100C6000006C004008B500220092044A0092009AED
:100C700002440092009A116008BD0000006C004020
:100C800000BFFEE710B5024600200AE012F8014B53
:100C900084EA2023DBB2054C34F8133083EA0023C6
:100CA00098B20B1EA1F10101F0DC10BDA067000895
:100CB00021B1026842F00102026004E002684FF6CE
:100CC000FE731A40026070470146486880B2704760
:100CD00010B50022026847F6F0739A430C6A8B68DD
:100CE00023430C6923434C6923438C692343CC6918
:100CF00023434C6A23438C6A23431A430260CB6824
:100D000043600B6883604B68C36010BD41607047EF
:100D100070472DE9F04102460025002600200023FF
:100D20000024002791F803C00CF00F0591F803C0D0
:100D30000CF0100CBCF1000F03D091F802C04CEA8B
:100D4000050591F800C0BCF1000F31D014680020F7
:100D50002BE04FF0010C0CFA00F3B1F800C00CEAE4
:100D600003069E4220D183004FF00F0C0CFA03F7CC
:100D7000BC4305FA03FC4CEA040491F803C0BCF13F
:100D8000280F06D14FF0010C0CFA00FCC2F814C079
:100D90000AE091F803C0BCF1480F05D14FF0010CF7
:100DA0000CFA00FCC2F810C0401C0828D1D3146013
:100DB000B1F800C0BCF1FF0F34DD546800202EE014
:100DC00000F1080C4FF0010808FA0CF3B1F800C06C
:100DD0000CEA03069E4221D183004FF00F0C0CFA5F
:100DE00003F7BC4305FA03FC4CEA040491F803C082
:100DF000BCF1280F05D100F1080C08FA0CF8C2F874
:100E0000148091F803C0BCF1480F07D100F1080C21
:100E10004FF0010808FA0CF8C2F81080401C0828AE
:100E2000CED35460BDE8F081F0B50A46002300241B
:100E30000021002500F00046B6F1004F02D11D4E02
:100E4000F16901E01B4E7168C0F3034583B200F401
:100E50004016B6F5401F08D121F07061154E766836
:100E600026F07066134F7E6012E000F48016B6F52F
:100E7000801F06D1032606FA05F4A14341F07061F4
:100E800006E0460D360103FA06F6B14341F0706103
:100E900022B1460D360103FA06F6314300F0004652
:100EA000B6F1004F02D1034EF16101E0014E7160D5
:100EB000F0BD0000000001401FB5002400204FF4E9
:100EC00040714FF480731A4ACDE9001019A11D48F2
:100ED00003F0F0FE044604B11FBD642016214FF458
:100EE0008062194BCDE90032CDE902100023174A88
:100EF00017A11A4804F062FA044614B9174804F01E
:100F0000C7FA642016214FF48062154BCDE90032F8
:100F1000CDE902100023134A0DA1134804F04EFA44
:100F2000044614B9104804F0B3FA00BFD4E7000037
:100F3000F82C00206D6F646275735F72785F6D715D
:100F400000000000BC2C00203C2400206D0F000895
:100F50004D4F444255535F5441534B00BC23002036
:100F6000BC2800209D0F00083C280020C0B011E0E4
:100F70004FF0FF334FF480726946074803F0D3FE09
:100F800040B9684603F078FB4FF480720021684650
:100F900003F06CFEECE70000BC2C002000234FF4B3
:100FA000E1320121184602F0B1FD02F01DFB04E020
:100FB00002F012FE0A2004F01BFAF9E700BFFEE778
:100FC00010B50121080700F0BBF80121C80600F0A8
:100FD000B7F8012000F09EF80420FFF735FE4AF232
:100FE000B551884222D0FFF727FE012000F076F9A4
:100FF00000BF612000F054F90128FAD1400200F04E
:1010000079F9012000F070F900F0B8F900F0ACF9BE
:1010100049F63F4000F098F900F0A6F900F01AF800
:101020004AF2B5510420FFF71DFE12E0012000F046
:1010300055F900BF612000F033F90128FAD14002D0
:1010400000F058F9012000F04FF900F097F900F096
:101050008BF910BD10B58CB010480088A0F26C70F0
:1010600006900E484088401E05900C4880880490E9
:101070000A48C088039009480089029007484089BF
:10108000019001A8FFF7ECF8A0F5E144204600F03C
:101090004DF900F069F90CB010BD000040000020CF
:1010A0007047000070B5002100230F22C47804B3FC
:1010B000154C246804F4E064C4F5E064210AC1F12D
:1010C0000403CA40447804FA03F1847814402143AD
:1010D00009010E4C0678A155047804F01F0501247F
:1010E000AC4005786D11AD0005F1E025C5F8004173
:1010F00009E0047804F01F050124AC40044D067893
:10110000761145F8264070BD0CED00E000E400E0EB
:1011100080E100E0014908627047000000000E42D3
:1011200029B1064A52690243044B5A6104E0034A5A
:1011300052698243014B5A6170470000001002401F
:1011400029B1064AD2690243044BDA6104E0034A3A
:10115000D2698243014BDA617047000000100240FF
:1011600029B1064A12690243044B1A6104E0034A9A
:1011700012698243014B1A6170470000001002405F
:1011800029B1064A92690243044B9A6104E0034A7A
:1011900092698243014B9A6170470000001002403F
:1011A00029B1064AD2680243044BDA6004E0034ADC
:1011B000D2688243014BDA607047000000100240A1
:1011C00001490860704700004004424230B50021E8
:1011D0000022002400232D4D6D6805F00C0121B183
:1011E000042905D0082923D105E0294D056022E016
:1011F000274D05601FE0254D6D6805F47012234DE5
:101200006D6805F48034022505EB92421CB9214D2E
:10121000554305600BE01D4D6D6805F400351DB1AB
:101220001C4D5543056002E0194D5543056002E031
:10123000174D056000BF00BF144D6D6805F0F0014B
:101240000909154D6B5C0568DD4045600F4D6D6803
:1012500005F4E061090A104D6B5C4568DD4085606E
:101260000A4D6D6805F46051C90A0B4D6B5C456809
:10127000DD40C560054D6D6805F44041890B074DA3
:101280006B5CC568B5FBF3F5056130BD001002402D
:1012900000127A0000093D00140000202400002004
:1012A00010B501460022002300204A11012A02D174
:1012B000094C236806E0022A02D1074C236A01E0A8
:1012C000054C636A01F01F02012494401C400CB1DC
:1012D000012000E0002010BD00100240014908601C
:1012E00070470000800442420149086070470000D6
:1012F0003C0442420249096A0143014A11627047B3
:10130000001002400348008840F0100001490880A6
:101310007047000004280040034800884FF6EF7132
:1013200008400149088070470428004000B5024683
:10133000FFF7E8FF100C03490880091D0A80FFF73A
:10134000EBFF00BD1828004000B50246FFF7DAFFAA
:10135000C2F3034003490880091D0A80FFF7DCFF40
:1013600000BD00000828004000BF0348008800F0CE
:1013700020000028F9D07047042800400748008862
:101380004FF6F77108400549088000BF0348008800
:1013900000F008000028F9D0704700000428004041
:1013A0002DE9F04104460D46164600BF0E4F387831
:1013B000532801D001F098F800BFEFF311800746E1
:1013C000202080F3118800BF00BF32462946204606
:1013D00000F00CF88046F8B280F3118800BF00BF1F
:1013E0004046BDE8F0810000201000202DE9F047C4
:1013F000074688461646C24607EB47011B4800EBE6
:10140000C109D9F8140020B1012811D0022826D131
:101410001EE0484601F0A0F80546B54201D200247E
:1014200005E0344632465146484601F0ECF918E0F2
:10143000484601F091F80546B54201D2284600E041
:101440003046044622465146484601F0DCF908E0A1
:1014500032465146484601F09BF9044601E000241B
:1014600000BF00BF2046BDE8F08700003810002014
:101470000FB438B5044606A800906A462046059980
:1014800000F008F8054600200090284638BC5DF8BA
:1014900014FB00002DE9F04F99B082460D4614462A
:1014A00003A814904020159000201690CDF860A05D
:1014B000179000BF2E786D1C06B936E1252E73D12A
:1014C00000274FF0010900BF2E78232E12D02B2EBB
:1014D0000CD02D2E02D0302E10D103E047F00107A2
:1014E0006D1C0EE047F002076D1C0AE047F0040790
:1014F0006D1C06E047F008076D1C02E04FF0000984
:1015000000BF00BFB9F1000FDED14FF0000800BFEF
:101510002E78302E01DB392E00DD07E06D1CA6F1A0
:10152000300008EB880100EB4108F1E700BF002024
:1015300013902E782E2E12D16D1C00BF2E78302ED7
:1015400001DB392E00DD09E06D1CA6F13000139996
:1015500001EB810100EB41001390EFE700BF2E7813
:1015600000BF6C2E01D0682E02D16D1C2E7800E0D9
:1015700000E0F6E700BF662E78D00CDC582E3DD098
:1015800004DC252E75D0462E72D178E0632E0CD067
:10159000642EF9D115E0702E58D0732E3CD0752EE4
:1015A0001DD0782EF0D128E0B7E02168081D20601A
:1015B000D1F8009009F0FF0B594614A801F0C6F8C5
:1015C000A8E02168081D2060D1F80090CDE90087CF
:1015D0000A22494614A8139B00F0CCFF9AE0216828
:1015E000081D2060D1F80090CDE900870A22494605
:1015F00014A8139B01F034F88CE000BF2168081D8B
:101600002060D1F80090CDE900871022494614A847
:10161000139B01F025F87DE02168081D2060D1F8BA
:1016200000B0BBF1000F01D10FF2241B00BF9BF8EB
:1016300000600BF1010B06B906E0314614A801F079
:1016400085F817980028F2DA00BF63E02168081DCA
:101650002060D1F80090002008210B461022CDE92F
:101660000010494614A800F0FBFF53E006E000E03C
:101670004FE0252114A801F069F84BE000BF206875
:10168000C01D20F00700844608302060DCE90021FE
:101690001046FEF7C3FE029000210298FEF7DAFE24
:1016A00003D22D2114A801F051F80298FEF79DFEF7
:1016B000B0F1000B01DB584601E0CBF100008146A0
:1016C000CDE900870A22494614A8139B00F052FF77
:1016D0002E2114A801F03AF81F490298FEF753FE94
:1016E0000190FEF782FEB0F1000B01DB584601E0ED
:1016F000CBF100008146642099FBF0F100FB1199C9
:1017000002230A22494614A8CDE9008700F032FFDF
:1017100000E000BF00BF6D1C03E0314614A801F0DB
:1017200015F817980028BFF6C5AE00BF1798002817
:101730000ADD169820B103A95046169AFFF730FE2D
:10174000DDE9161008441790179819B0BDE8F08F1E
:10175000284E554C4C2900000000C842704710B577
:1017600000F002F810BD00000CB5002001900090C0
:101770003348006840F480303149086000BF304889
:10178000006800F4003000900198401C019000981F
:1017900018B90198B0F5A06FF1D12948006800F49C
:1017A000003010B10120009001E00020009000986E
:1017B000012843D12348006840F010002149086007
:1017C0000846006820F0030008600846006840F002
:1017D000020008601A484068194948600846406895
:1017E00048600846406840F48060486008464068A9
:1017F00020F47C1048600846406840F4E8104860D7
:101800000846006840F08070086000BF0C4800681F
:1018100000F000700028F9D00948406820F003006B
:10182000074948600846406840F00200486000BF31
:101830000348406800F00C000828F9D10CBD0000F6
:10184000001002400020024010B503F00FF903F031
:10185000BBFE03F01BF910BD10B51348006840F043
:1018600001001149086008464068104908400E49C7
:101870004860084600680E4908400B490860084661
:10188000006820F4802008600846406820F4FE00CC
:1018900048604FF41F008860FFF761FF4FF0006061
:1018A0000449086010BD0000001002400000FFF86D
:1018B000FFFFF6FE08ED00E010B50121880700F0FB
:1018C0001BF928B102F0D0FE0121880700F010F8C2
:1018D00010BD000010B50121044800F00DF918B149
:1018E0000121024800F004F810BD0000000400408F
:1018F000CA430282704721B1028842F0010202808D
:1019000004E002884FF6FE731A4002807047000020
:1019100010B504466848844208D10121C014FFF77D
:101920003FFC0021E014FFF73BFCC4E0B4F1804F22
:1019300008D101210846FFF713FC00210120FFF721
:101940000FFCB8E05D48844208D101210220FFF776
:1019500007FC00210220FFF703FCACE0584884425A
:1019600008D101210420FFF7FBFB00210420FFF731
:10197000F7FBA0E05348844208D101210820FFF77B
:10198000EFFB00210820FFF7EBFB94E04E48844278
:1019900008D101211020FFF7E3FB00211020FFF701
:1019A000DFFB88E04948844208D101212020FFF76D
:1019B000D7FB00212020FFF7D3FB7CE04448844282
:1019C00008D101214014FFF7EBFB00216014FFF761
:1019D000E7FB70E03F48844209D10121C804FFF7CA
:1019E000DFFB00214FF40020FFF7DAFB63E03A4809
:1019F000844209D101210805FFF7D2FB00214FF4F1
:101A00008010FFF7CDFB56E03448844209D1012114
:101A10004805FFF7C5FB00214FF40010FFF7C0FB9E
:101A200049E02F48844208D101214020FFF798FB6C
:101A300000214020FFF794FB3DE02A48844208D172
:101A400001218020FFF78CFB00218020FFF788FB1D
:101A500031E02548844208D101218015FFF780FB41
:101A60000021A015FFF77CFB25E02048844209D126
:101A700001210804FFF794FB00214FF48030FFF7A9
:101A80008FFB18E01A48844209D101214804FFF76E
:101A900087FB00214FF40030FFF782FB0BE0154875
:101AA000844208D101218804FFF77AFB00214FF41A
:101AB0008020FFF775FB10BD002C014000040040A2
:101AC00000080040000C00400010004000140040DE
:101AD00000340140004C01400050014000540140DE
:101AE00000180040001C0040002000400040014061
:101AF000004401400048014030B502460020002368
:101B00000024158A05EA0103958905EA010413B149
:101B10000CB1012000E0002030BD1AB183890B43D5
:101B2000838102E083898B438381704701894FF66B
:101B3000F872114001817047818470470022028849
:101B40001D4B98420ED01D4B98420BD0B0F1804FE8
:101B500008D01B4B984205D01A4B984202D01A4B22
:101B6000984204D14FF68F731A404B881A43174B93
:101B7000984207D0164B984204D04FF6FF431A40C4
:101B8000CB881A4302808B8883850B8803850A4B98
:101B900098420BD0094B984208D00E4B984205D082
:101BA0000D4B984202D00D4B984201D10B7A03861F
:101BB0000123838270470000002C01400034014063
:101BC0000004004000080040000C004000100040ED
:101BD0000014004000400140004401400048014022
:101BE00000B58BB001210846FFF79AFA1348009020
:101BF0000020069004901248019000200790802059
:101C00000590002002904FF48070039020200890EF
:101C100000200A904FF48050099069460948FFF768
:101C200057F8012240210548001F00F07FFB0121E9
:101C30000448FFF73DF80BB000BD00000448004029
:101C4000220D00203000024010B588B0044601216A
:101C50008804FFF775FA01210820FFF791FA4FF485
:101C60008060ADF81C0003208DF81E0018208DF850
:101C70001F0007A92A48FFF74CF84FF40060ADF8A1
:101C80001C0004208DF81F0007A92548FFF741F824
:101C900003940020ADF81000ADF81200ADF8140068
:101CA000ADF818000C20ADF8160003A91D4800F08F
:101CB000A3FB012240F225511A4800F077FB0122D4
:101CC00040F22441174800F071FB002240F22661E7
:101CD000144800F06BFB27208DF8080001208DF8D8
:101CE0000B008DF8090003208DF80A0002A8FFF709
:101CF000D9F9FFF775FF01210A4800F00BFB0AA094
:101D00000BA1CDE900100C4803680068401C0A4A8A
:101D100010600AA20BA10020FFF7AAFB08B010BDBB
:101D2000000C0140004800401B5B306D00000000CB
:101D30005B495D3A00000000380000201B5B313B2E
:101D400033326D0025735B25645D25735541525414
:101D50003320496E6974204F4B0D0A25730D0A001C
:101D600000B58BB001210220FFF7DAF9134800908B
:101D700000200690049012480190002007908020D7
:101D80000590002002904FF480700390202008906E
:101D900000200A904FF48050099069460948FEF7E8
:101DA00097FF012240210548001F00F0BFFA0121E2
:101DB0000448FEF77DFF0BB000BD0000044C00405E
:101DC000220E00203004024008B540F22441194898
:101DD00000F0C2FA60B317480088C0B200901548FE
:101DE000001D0088C0B200901021124800F07AFA5D
:101DF0000120114908700420104908701048FEF7AE
:101E000063FF40420D49487008464078821C0D48E7
:101E100003F01AF800210A48FEF74AFF4FF48071D8
:101E20000748FEF773FF01210548FEF741FF00BF99
:101E300008BD0000004C004055000020200E00208E
:101E400030040240BC2C002010B588B004460121AB
:101E5000C804FFF775F901211020FFF791F94FF43D
:101E60008060ADF81C0003208DF81E0018208DF84E
:101E70001F0007A92A48FEF74CFF4FF40060ADF899
:101E80001C0004208DF81F0007A92548FEF741FF1C
:101E900003940020ADF81000ADF81200ADF8140066
:101EA000ADF818000C20ADF8160003A91D4800F08D
:101EB000A3FA012240F225511A4800F077FA0122D4
:101EC00040F22441174800F071FA002240F22661E6
:101ED000144800F06BFA34208DF8080001208DF8CA
:101EE0000B008DF8090003208DF80A0002A8FFF707
:101EF000D9F8FFF735FF01210A4800F00BFA0AA0D4
:101F00000BA1CDE900100C4803680068401C0A4A88
:101F100010600AA20BA10020FFF7AAFA08B010BDBA
:101F200000100140004C00401B5B306D00000000C1
:101F30005B495D3A00000000500000201B5B313B14
:101F400033326D0025735B25645D25735541525412
:101F50003420496E6974204F4B0D0A25730D0A0019
:101F600008B540F22551254800F0F6F9D0B12348D4
:101F700000F0AEFAC2B22248007821490978491C23
:101F80001F4B1970801C1F490A5418460078FE2800
:101F900002DD00201946087040F22551174800F074
:101FA000AAF92AE040F22441144800F0D5F920B300
:101FB00001201549087011480088C0B200900F48F0
:101FC0008088C0B2009005200E4908700C48007847
:101FD000487008464078821C0C4802F035FF4FF4E8
:101FE00080720021074802F041FE00200449087079
:101FF00040F22441014800F07EF908BD0050004045
:102000005C000020200F00205D000020BC2C002080
:1020100010B588B0044601210805FFF791F80121A9
:102020001020FFF7ADF801212020FFF7A9F80121CA
:102030000820FFF7A5F801210846FFF7A1F80121C4
:102040003548FEF7F1FE4FF48050ADF81C00032038
:102050008DF81E0018208DF81F0007A92F48FEF7E5
:1020600058FE0420ADF81C0048208DF81F0007A979
:102070002B48FEF74EFE03940020ADF81000ADF89B
:102080001200ADF81400ADF818000C20ADF81600E1
:1020900003A9244800F0B0F9012240F2255121485B
:1020A00000F084F9012240F224411E4800F07EF93C
:1020B000002240F226611B4800F078F935208DF8A7
:1020C000080001208DF80B008DF8090003208DF821
:1020D0000A0002A8FEF7E6FF0121124800F01AF9F3
:1020E0001820ADF81C0010208DF81F0007A90E481D
:1020F000FEF70FFE0DA00FA1CDE900100F480368F9
:102100000068401C0D4A10600DA20FA10020FFF7CF
:10211000AFF908B010BD000000023000001001400F
:102120000014014000500040000C01401B5B306D6A
:10213000000000005B495D3A0000000058000020EC
:102140001B5B313B33326D0025735B25645D25736A
:10215000554152543520496E6974204F4B0D0A2564
:10216000730D0A0008B540F224411A4800F0F4F853
:1021700078B318480088C0B200901648001D008847
:10218000C0B200901021134800F0ACF801201249B1
:102190000870124908701248FEF796FD40420F4938
:1021A000487010480078012805D108464078821C04
:1021B0000D4802F049FE00210948FEF779FD4FF471
:1021C00080710748FEF7A2FD01210548FEF770FD6A
:1021D00000BF08BD003801402D0000202002002073
:1021E00058000240640000200C35002008B540F281
:1021F0002441184800F0B0F858B316480088C0B21F
:1022000000901448001D0088C0B2009010211148B1
:1022100000F068F801201049087002200F4908708A
:102220000F48FEF751FD40420C49487000210C4810
:10223000FEF73EFD4FF480710948FEF767FD4FF44D
:1022400080710648FEF779F801210548FEF730FD58
:1022500000BF08BD0044004035000020A00700205A
:102260006C00024008B540F22441194800F074F8AF
:1022700060B317480088C0B200901548001D008860
:10228000C0B200901021124800F02CF80120114932
:1022900008700320104908701048FEF715FD4042F1
:1022A0000D49487008464078821C0D4802F0CCFD6C
:1022B00000210A48FEF7FCFC4FF480710748FEF746
:1022C00025FD01210548FEF7F3FC00BF08BD000015
:1022D000004800403D000020200D0020300002405A
:1022E000BC2C002001F40072B2F5007F00D100BFC9
:1022F000CA430280704710B50022002340F66A14DA
:10230000A14200D100BF0A1201249440A3B2DC43D1
:10231000048010BD21B1828942F40052828104E020
:1023200082894DF6FF731A40828170471AB1838A01
:102330000B43838202E0838A8B4383827047024689
:102340000020B1F5007F00D100BF13880B400BB116
:10235000012000E00020704770B5024600240023F1
:102360000025002040F66A16B14200D100BFC1F33B
:10237000421501F01F03012606FA03F3012D02D1D5
:102380009689334006E0022D02D1168A334001E0DF
:10239000968A33400C12012606FA04F4168834405B
:1023A00013B10CB1012000E0002070BDF0B5034670
:1023B000002400260025002040F66A17B94200D10B
:1023C00000BF1846C1F3421401F01F06012707FAA7
:1023D00006F5012C01D10C3004E0022C01D11030A3
:1023E00000E014301AB107682F43076002E0076865
:1023F000AF430760F0BD00002DE9F04786B0054609
:102400000E460024A24600BFA1460027B08900B1B5
:1024100000BF2F462C8A4CF6FF700440F08804431E
:102420002C82AC894EF6F3100440B0883189084301
:10243000718908430443AC81AC8A4FF6FF400440E5
:10244000B0890443AC8201A8FEF7C0FE1F48874252
:1024500002D1DDF810A001E0DDF80CA0A88900F49D
:10246000004040B10AEBCA0000EB0A103168490095
:10247000B0FBF1F807E00AEBCA0000EB0A10316884
:102480008900B0FBF1F86420B8FBF0F004012009EA
:10249000642101FB1089A88900F4004040B132207A
:1024A00000EBC900B0FBF1F000F00700044308E0C6
:1024B000322000EB09106421B0FBF1F000F00F00B6
:1024C00004432C8106B0BDE8F087000000380140CD
:1024D00001468888C0F308007047C1F30802828073
:1024E000704700BFFEE7000070B5144CA8212046DD
:1024F000FDF723FF03202061606111A0A061134953
:10250000E1614FF4805121620021A1626162E162C8
:102510000BA020660E4961661021A166002121678B
:10252000E1666167002505E0C5F10F000949085C17
:1025300060556D1C102DF7D370BD000020100020D9
:102540005465726D696E616C00000000C810002057
:10255000C82000202865000810B501460A69CB682C
:102560009A4204D88C68641EE41AA01801E0D41AB8
:10257000601E10BD2DE9FC5F06460F469246984648
:10258000DDE90C45002F01DA784200E03846834649
:102590004FF0010903E09BFBFAFB09F10109D34568
:1025A000F9DAC84500D9C14634B1002F03DB05F084
:1025B0000400042800D1641E05F0020010B1B8F137
:1025C000000F11D005F0010070B96CB108E0641E75
:1025D0002021304600F0BAF8F068002800DA02E066
:1025E0000CB1A145F3D300BFF068002836DB002F03
:1025F00005DA7F422D21304600F0A8F807E005F00B
:102600000400042803D12B21304600F09FF8F06825
:10261000002823DB05F00200022814D105F0010098
:1026200088B9B8F1000F0ED16CB108E0641E3021FA
:10263000304600F08BF8F068002800DA02E00CB1B8
:10264000A145F3D300BFF068002807DB434652469C
:1026500039463046CDE9004500F002F8BDE8FC9F60
:102660002DE9FC5F8046894615461E460C9CCDF838
:1026700004900127BB4605E00198B0FBF5F00190FE
:102680000BF1010B0198A842F6D25E4500D9B34682
:102690000D9800F00100D0B9CCB10D9800F0020007
:1026A000022803D116B93020009001E020200090CC
:1026B00009E0641E4046009900F048F8D8F80C0084
:1026C000002800DA02E00CB1A345F2D300BFD8F82D
:1026D0000C00002835DB09E0012E01D9761E04E04C
:1026E000B9FBF7FAAA4500D201E06F43F4E700BF57
:1026F00000BFB9FBF7FA0AFB1799134810F80A1044
:10270000404600F023F8D8F80C00002800DA03E077
:10271000B7FBF5F7002FECD100BF0D9800F00100DA
:1027200078B174B109E0641E2021404600F00EF833
:10273000D8F80C00002800DA02E00CB1A345F2D36F
:1027400000BFBDE8FC9F00003965000870B5044675
:102750000E46A568681C6168814206D3206846550C
:10276000681CA060E068401CE060D4E90110884269
:102770000DD1A26821682069FEF712FEA168884287
:1027800003D04FF0FF30E06001E00020A06070BD9A
:102790002DE9F05F0446894617464FF0000AE568C8
:1027A00000BFD4F81080A84503D9A8EB0500461E49
:1027B00004E0A5EB0800401CA1680E1AA068401BAD
:1027C000B04201D9304601E0A068401B0646BE4237
:1027D00001D2304600E038460646606800EB050B43
:1027E000324649465846FDF78FFDB244B144BF1BFF
:1027F0003544A068A84200D10025E560002FD0D163
:102800005046BDE8F09F2DE9F0470446894615463D
:10281000E668A068871BAF420AD9606800EB060A29
:102820002A4649465046FDF76FFD7019E06014E0F6
:10283000B846606800EB060A424649465046FDF736
:1028400063FDA5EB0708D4F804A009EB0701424695
:102850005046FDF759FDC4F80C80BDE8F087000034
:102860000FB4054B10B503A9044A029800F004F90F
:1028700010BC5DF814FB00005D4400081802002045
:10288000004870471C020020014609B9002070472B
:10289000C8B220B1C8B20E4A105C401CF7E701F480
:1028A0007F4028B10A48C1F30722805C0930EEE777
:1028B00001F47F0028B10648C1F30742805C113063
:1028C000E5E7034800EB116000781930DFE700000E
:1028D000A069000802E008C8121F08C1002AFAD146
:1028E00070477047002001E001C1121F002AFBD190
:1028F000704700002DE9FF5F82B00021DDE9043060
:10290000020DDDF840B0034318D044F61050A2F297
:10291000FF3242431514119801281FD0A5EB0B007C
:10292000401C5FEA000A4FF000064E4FDFF8389176
:10293000B046504615D5CAF1000413E011980124A1
:102940004AA3012801D16FEA0B010298119AC0E94C
:102950000031C0E9024206B0BDE8F09FCBF10000B3
:10296000DFE704460021404A491842EB0450CDE914
:10297000001012E0E00707D032463B464046494689
:10298000FDF716FF8046894632463B4610461946FB
:10299000FDF70EFF06460F466410002CEAD1DDE974
:1029A0000401DDE90023BAF1000F06DAFDF700FFAC
:1029B00042464B46FDF7FCFE05E0FDF76BFF424645
:1029C0004B46FDF767FF04460E460022284BFDF7F5
:1029D000E9FF03D84FF0FF30014607E00022254B06
:1029E00020463146FDF73DFEFDF7C3FF102409E008
:1029F000002C0ADB0A220023FDF74CFD039B30323A
:102A00001A55641E50EA0102F2D1641C039AC4F103
:102A100011031444119A012A03D0012208430DD155
:102A20000AE0084304D000204FF0110B119072E728
:102A3000A3EB0B056D1E0DE05B4504DD4FF00002BE
:102A400005F1010504E003DA4FF00002A5F10105EC
:102A5000002AECD002981199C0E90231C0E9004582
:102A600079E70000000014400000F03F3000000053
:102A70000000F0430000E03F2DE9FF4F95B09A467B
:102A8000884606460025EEE1252877D10024274612
:102A9000F94A0121039400E0044316F8013F203B6A
:102AA00001FA03F01042F7D130782A2811D06FF0E4
:102AB0002F033078A0F13002092A16D8039A44F087
:102AC000020402EB820203EB42021044761C0390E4
:102AD000EFE758F8042B0392002A03DA504244F43B
:102AE0000054039044F00204761C30782E2816D14E
:102AF00016F8010F44F004042A280DD06FF02F02BD
:102B00003078A0F13003092B09D807EB870302EBDB
:102B10004303C718761CF3E758F8047B761C30781B
:102B20006C280FD006DC4C2817D068280DD06A28F6
:102B300014D104E0742810D07A280FD10DE044F4A9
:102B400000140AE044F4801401E044F44014727864
:102B5000824202D104F58014761C761C30786628F7
:102B60000BD013DC582877D009DC002875D0452815
:102B7000F6D04628F4D047281AD193E118E063280C
:102B800035D0642879D0652812D18BE1702873D0B4
:102B900008DC6728F1D069286FD06E280DD06F2827
:102BA00006D1ACE073282CD0752874D0782853D087
:102BB0005246179990476D1C54E1C4F30250022805
:102BC00009D003280DD0D8F8001004280DD00D60CE
:102BD00008F1040846E1D8F80010EA17C1E90052EC
:102BE000F6E7D8F800100D80F2E70D70F0E718F85E
:102BF000041B8DF8001000208DF80100EB46012029
:102C000003E058F804BB4FF0FF3061074FF00001BC
:102C100002D40DE009F101018946B9420FDA81457C
:102C2000F8DB1BF809100029F4D108E009F10101D3
:102C300089468142FADB1BF809100029F6D1039876
:102C40005346A0EB090721463846179A00F080FA50
:102C5000284400EB090507E044E008E10DE01BF81B
:102C6000010B524617999047B9F10109F7D2534623
:102C700021463846179AF2E039E00A21C4F302529D
:102C80004FF0000B0091022A06D058F8040BC11730
:102C9000032A09D00AE023E008F1070020F0070228
:102CA000F2E80201904605E000B2C117042A01D102
:102CB00040B2C117002906DA0A460021404261EB02
:102CC00002012D2202E0220504D52B228DF80420DA
:102CD000012203E0E20701D02022F7E7914657E006
:102CE0000A2100E010214FF0000B00910BE01021B1
:102CF0004FF0000B44F004040827009103E0082083
:102D00004FF0000B0090C4F30252022A05D058F88D
:102D1000040B0021032A08D008E008F1070020F086
:102D20000702F2E80201904603E080B2042A00D1D3
:102D3000C0B24FF0000922072AD53278702A07D096
:102D4000DDF800C08CF0100C5CEA0B0C05D00EE036
:102D500040228DF80420012208E050EA010306D049
:102D600030238DF804308DF8052002229146009B17
:102D700083F0080353EA0B030AD150EA010201D1A0
:102D8000620705D530228DF804204FF001097F1E1F
:102D90003278582A04D039A20C920CAA02920BE085
:102DA0003BA2F9E75B46009AFDF774FB0C9B9B5C2A
:102DB000029A521E0292137050EA0102F2D1029856
:102DC00004A9081A00F1200B600702D524F480340E
:102DD00000E001275F4502DDA7EB0B0000E00020CB
:102DE00000EB0B01009003984944401A0390E00364
:102DF00006D453462146179A039800F0A9F90544D2
:102E0000002706E001A85246C05D179990476D1C47
:102E10007F1C4F45F6DBE0030CD553462146179A3D
:102E2000039800F095F9054404E0302052461799C4
:102E300090476D1C0099481E00900029F5DC08E0C1
:102E40000298029952460078491C029117999047BE
:102E50006D1CBBF10001ABF1010BF1DC5BE100F09B
:102E600065F90544761C307800287FF40DAE19B062
:102E70002846BDE8F08F00000928010030313233C8
:102E800034353637383961626364656600000000A6
:102E90003031323334353637383941424344454690
:102EA00000000000600700D4062708F1070020F0AA
:102EB0000700F0E80223804603F0004C5FEA0C00B4
:102EC00001D097A009E0200501D596A005E0E00714
:102ED00001D095A001E0AFF24C001390307823F0C0
:102EE000004365280CD006DC452809D046281DD0B3
:102EF00047287FD13BE0662818D067287AD136E092
:102F00000021112F01DB112000E0781CCDE9000128
:102F100004A90CA8FFF7EEFCDDE90D010C9A4FF0B7
:102F2000000B07F10109109200914EE04FF00040B4
:102F30000097CDE9011004A90CA8FFF7DBFCDDE93F
:102F40000D020C9B0F994FF0000B914610930092CD
:102F500011B9791C00EB0109B7EB090003D4C0F1EA
:102F6000FF3B07F10109A9EB0700019042E0012FA7
:102F700000DA01270021112F01DD112000E0384681
:102F8000CDE9000104A90CA8FFF7B4FCDDE90D01AF
:102F90000C9A00914FF0000BB946109221070FD404
:102FA000009A4A4503DA914601E0A9F10109B9F115
:102FB000010F05DD109AA9F10101515C3029F4D00F
:102FC000B84202DA10F1040F03DA0121CDE9011051
:102FD00010E0002803DC8344A9EB000102E0411C5F
:102FE000494500DD8946A0EB0B00401C01904FF0E5
:102FF00000400290200705D40198484502DB4FF0BD
:10300000FF30019000208DF84B0002980DF14B0726
:10301000B0F1004F25D002200C902B200D9002988B
:1030200000280CDA404202902D200D9007E00A2182
:103030000298FDF719FA3031029007F8011D0C993A
:10304000481E0C900029F2DC02980028EFD1791E6E
:103050000D980870307800F0200040F0450007F827
:10306000020D11A8C01BC01D02901398007800B17A
:10307000012000EB0901019801EBE0710298014485
:103080000398401A401E0390E00306D4534621469D
:10309000179A039800F05CF805441398007818B16B
:1030A0005246179990476D1CE00323D5534621469D
:1030B000179A039800F04CF805441BE0BBF1000F91
:1030C00007DB0098584504DD1098179910F80B009D
:1030D00001E0179930205246904701980BF1010BFF
:1030E000401E05F10105019004D12E20524617998A
:1030F00090476D1CB9F10001A9F10109DEDC05E082
:1031000017F8010B5246179990476D1C0299481EFB
:1031100002900029F4DC53462146179A03989EE654
:103120002D0000002B000000200000002DE9F041E0
:10313000044600251E461746880404D405E0394697
:103140002020B0476D1C641EF9D52846BDE8F081EB
:103150002DE9F041044600251E469046C80301D5DE
:10316000302700E02027880404D505E04146384692
:10317000B0476D1C641EF9D52846BDE8F0810000FB
:103180002DE9FC5F04468B4615461E46DDE90C9A88
:10319000DDE90E7804F114004060006000BF1C34CB
:1031A0006560A660C4F80C90C4F810A02321D4E98F
:1031B000030201F05BFDD4E9033C63441A1F0F4B8B
:1031C000D4E9010101F02CFC2060A776677600208D
:1031D000E061C4F82880C4F82C8060612076E06546
:1031E00020661C3C00902346054A2146019004F1CC
:1031F0004C0002F098FA0020BDE8FC9F1D53000827
:10320000015500082DE9F04704460E46174698463A
:10321000DDF8209084F80990607A20F00100607257
:10322000E66127620020A062C4F82480002506E041
:1032300004F1140101EBC50001F0A0FC6D1C012D8F
:10324000F6DBBDE8F08770B50546002406E005F121
:10325000140101EBC40001F0C2FC641C012CF6DB7C
:1032600070BD2DE9F041044604202073A06828B108
:103270002069011D80222046A36898471521204619
:1032800000F04AF9D4E9041240F6B8335068C82275
:1032900001F049FD10B92069457800E000250621BC
:1032A000204600F039F94321204600F035F9D4E9F1
:1032B000041240F6B8335068C82201F034FD10B94A
:1032C0002069457800E00025012D01D1852608E020
:1032D000022D02D140F2054603E06FF07000BDE818
:1032E000F0812069807818B92069C078FF2802D061
:1032F0006FF07100F3E7206990F8851090F8840072
:1033000041EA00272169081D8021FDF7BBFCB84276
:1033100002D06FF07200E2E72069007970B1606856
:1033200050B1721F2069011D204663689847062826
:1033300002D06FF07400D2E70020D0E705202073A0
:103340000621204600F0E8F80020C8E72DE9F04704
:1033500004460E4601202073002718E04321204632
:1033600000F0DAF8D4E9041240F6B8335068C82205
:1033700001F0D9FC18B9206990F801A001E04FF0E4
:10338000000ABAF1010F01D1852502E07F1CB74286
:10339000E4D300BFB74203D16FF06F00BDE8F08700
:1033A0001B480078A84202D26FF07300F6E720694C
:1033B000807818B92069C078FF2802D06FF07100BA
:1033C000ECE72069401C284410F8011C2069401CCF
:1033D000284410F8020C41EA0029691F2269101DD7
:1033E000FDF750FC8046C14502D06FF07200D5E772
:1033F000606850B16A1F2069011D204663689847C4
:10340000062802D06FF07400C8E70020C6E700006D
:103410002C00002070B504460E460020207313488F
:103420002061206910B96FF0040070BD314620465C
:10343000FFF78CFF05460DB12846F6E711E0204660
:1034400000F016F805460DB12846EEE72046FFF7D6
:1034500008FF05460DB12846E7E7207B052800D187
:1034600000E0ECE700BF2846DFE70000F82F00206F
:10347000F8B504460621204600F04EF843212046C8
:1034800000F04AF80220207345E0D4E9041240F627
:10349000B8335068C82201F046FC18B9206940785A
:1034A000009001E0002000909DF80000012804D069
:1034B000022804D0042807D104E0802607E04FF456
:1034C000806604E00020F8BD6FF07000FBE700BFED
:1034D0006A463146204600F031F805460DB12846CF
:1034E000F1E79DF8000006280DD0182810D100271C
:1034F00004E01821204600F00FF87F1C072FF8D3B6
:103500006FF07400DFE70621204600F005F800E0C8
:1035100000BF00BF00BFB8E770B504460D46616943
:1035200008682946FEF7D9FF00BF61690868402195
:10353000FEF705FF0028F8D0012070BD2DE9F0410D
:1035400004460E461546371D1F480178781C8142F7
:1035500003D06FF07300BDE8F081206980782169A5
:10356000C9780844FF2802D06FF07100F3E7207B90
:10357000022805D12069807810B900202870EAE778
:10358000032020732069401CC15D2069401C384421
:1035900010F8010C41EA00282169081D3146FDF7A9
:1035A00071FB404502D06FF07200D4E7206838B15B
:1035B0002069011D3246204623689847287001E0A3
:1035C000062028700020C6E72C00002070B50446B5
:1035D000FCF7CCFD0546A06F10B12046A16F8847CF
:1035E0002846FCF7C7FD70BD10B5002406480078DA
:1035F000012806D10548006880470020024908706C
:1036000000E00624204610BD860000208C0000202B
:103610002DE9F05F06460D464FF0000B288805287F
:1036200044D170784FEA002AB07840EA0A0AF0786C
:10363000040230790443012C35DBB4F5FA6F32DA39
:10364000374600202880012007F8010B2888401CFD
:10365000288004F0070040B12046E11704EB5171C7
:10366000C910491C01F0FF0805E02046E11704EBF2
:103670005171C1F3C70807F8018B2888401C2880C6
:10368000002322465146384600F0F2FB8146B9F14C
:10369000000F04D0484600F0D5FF834608E0288894
:1036A0004044288004E04FF0030B01E04FF0030B8F
:1036B0005846BDE8F09F2DE9F05F06460D464FF0F5
:1036C000000B2888052843D170784FEA002AB0788B
:1036D00040EA0A0AF078040230790443012C34DB12
:1036E000B4F5FA6F31DA374600202880022007F857
:1036F000010B2888401C288004F0070040B12046B8
:10370000E11704EB5171C910491C01F0FF0805E0F5
:103710002046E11704EB5171C1F3C70807F8018B8C
:103720002888401C288022465146384600F03AFC42
:103730008146B9F1000F04D0484600F083FF83466C
:1037400008E028884044288004E04FF0030B01E0A3
:103750004FF0030B5846BDE8F09F2DE9F0470546B2
:103760000C464FF0000A2088052834D168784FEACB
:103770000029A87840EA0909E87806022879064372
:10378000012E25DB7D2E23DC2F4600202080032008
:1037900007F8010B2088401C20807006000E07F8F7
:1037A000010B2088401C20800023324649463846C1
:1037B00000F05CFC8046B8F1000F04D0404600F0F9
:1037C00041FF824609E0208800EB4600208004E0AB
:1037D0004FF0030A01E04FF0030A5046BDE8F087BE
:1037E0002DE9F04705460C464FF0000A20880528D1
:1037F00037D168784FEA0028A87840EA080808F12D
:1038000001001FFA80F8E878060228790643012EA5
:1038100024DB7D2E22DA2F4600202080042007F8AA
:10382000010B2088401C20807006000E07F8010B59
:103830002088401C208032464146384600F070FC0B
:103840008146B9F1000F04D0484600F0FBFE8246E5
:1038500009E0208800EB4600208004E04FF0030AD6
:1038600001E04FF0030A5046BDE8F0872DE9FC5F08
:1038700004460D460020009028880A285DDB607809
:103880004FEA002AA07840EA0A0A0AF101001FFA6A
:1038900080FAE07806022079064360794FEA002B2F
:1038A000A07940EA0B0B0BF101001FFA80FBE079D5
:1038B0000702207A0743607A0190012E3BDB7D2EC0
:1038C00039DC012F37DB792F35DC79000198814213
:1038D00031D101233A46594604F10A0000F0C6FBF3
:1038E0008146B9F1000F1ED1A04600202880172084
:1038F00008F8010B2888401C28807006000E08F884
:10390000010B2888401C288000233246514640463F
:1039100000F0ACFB8146B9F1000F04D128880221E8
:1039200001FB06002880B9F1000F06D0484600F0E0
:1039300089FE009001E0032000900098BDE8FC9F04
:1039400070B505460C46064802880649681CFCF717
:10395000DBFC03480088401C2080002070BD000074
:1039600078000020F02000202DE9F84304460E46A0
:103970004FF000083088052827D160780702A0782A
:1039800007432079F0B9E078FF2801D0E078C8B982
:1039900000208DF80100E078FF2803D101208DF888
:1039A000000002E000208DF8000001231A4639468D
:1039B000684600F05DFA05464DB1284600F042FE2B
:1039C000804604E04FF0030801E04FF00308404652
:1039D000BDE8F8832DE9F04104460E464FF000089B
:1039E0003088052810D160780702A07807430123AA
:1039F0001A463946E01C00F039FB054635B1284629
:103A000000F020FE804601E04FF003084046BDE88C
:103A1000F0812DE9F05F05460E464FF0000B30882F
:103A2000052838DD68784FEA0029A87840EA0909B6
:103A3000E87804022879044395F805A004F007000B
:103A400038B12046E11704EB5171C910491CCFB2BF
:103A500005E02046E11704EB5171C1F3C707012CC3
:103A600016DBB4F5F66F13DC574511D1012322465E
:103A70004946A81D00F0FCF98046B8F1000F04D0BB
:103A8000404600F0DFFD834607E00520308004E07B
:103A90004FF0030B01E04FF0030B5846BDE8F09FD9
:103AA0002DE9F04704460E464FF0000A30880628FC
:103AB00026DB60784FEA0028A07840EA0808E07822
:103AC00005022079054394F80590012D15DB782D2A
:103AD00013DC6806000E48450FD101232A464146F3
:103AE000A01D00F0C3FA074627B1384600F0AAFD32
:103AF000824607E00520308004E04FF0030A01E031
:103B00004FF0030A5046BDE8F08700002DE9F04170
:103B100005460C4616461F464FF000081CB1012C06
:103B200001DBF72C02DD4FF0020831E01A48047087
:103B3000E5B91A481A4908601A481B4908601B4829
:103B40001B4908601B481C49086000201B4908608D
:103B50001B481C4908601C481C4908603A4631460D
:103B60000D48007800F0DAF8804602E04FF00208D5
:103B700000BF00BFB8F1000F0AD102F047F910B939
:103B80004FF0030804E01248057001201149087045
:103B90004046BDE8F081000084000020593E000846
:103BA0008C0000206D3E000890000020B53D00080C
:103BB00088000020613D000894000020980000204B
:103BC000295F00089C000020995F0008A4000020E5
:103BD0008500002086000020F8B5002543480078C5
:103BE00008B10620F8BD684602F0FEF801287AD137
:103BF0009DF8000030B1012805D0022819D0032813
:103C000070D16EE06EE03A4B3A4A3B493B483C4E3D
:103C10003668B04705465DB93748007839490978B4
:103C2000884202D03448007810B9022002F0F6F839
:103C300058E0304800680078334908700120334963
:103C40000870002417E0324810F8340000B914E07E
:103C50002F4810F834002C49097888420AD12C48A2
:103C600000EBC40022494268224800689047274977
:103C7000087002E0641C102CE5DB00BF1E480078D1
:103C800068B322480078C8B10020194908801E484E
:103C9000007840F08001164802880088401C144BD0
:103CA0001880144800688154184802781846018822
:103CB0000088401C18800F4800684254154800785E
:103CC000012800D100BF0A4803880A4802680D484D
:103CD00001780A480078104E3668B047054601E082
:103CE00001E000BF00BF00207CE70000860000204C
:103CF000360100203001002034010020390100206D
:103D000094000020840000203501002038010020AC
:103D1000B000002085000020880000202DE9F0413F
:103D200007460C4690460026204602F083F80128FC
:103D300001D003260EE0B4F5964F01D9232503E008
:103D400060000649B1FBF0F5A8B202F0B9F801280D
:103D500000D003263046BDE8F0810000A07F1700A8
:103D60002DE9F04104460D4616461F464FF0000867
:103D70000E48007820700E480088042811DB0C489B
:103D800001880A48801C01F0E9FF50B90748807893
:103D9000287007480088C01E38800448C01C306066
:103DA00001E04FF005084046BDE8F081BA2200204E
:103DB000460100202DE9F04780460D4616461F4675
:103DC0004FF000091F480078012835D1701E1E49A8
:103DD000086001201D4908801B48006805700846DE
:103DE000008838440880084601881748006801F0B8
:103DF000B5FF044615490888411C144B1980811CE5
:103E0000134B5C54221211490888411C0F4B198036
:103E1000811C0F4B5A5401200E4908700B48008832
:103E200060B10A48028808480168404602F010F86C
:103E300000200649088001E04FF005094846BDE82A
:103E4000F08700003D0100204001002044010020D7
:103E5000BA2200203C01002010B500200249087061
:103E600001F0ADFF10BD00003D01002070470000D3
:103E70002DE9FF5F05460E4614469A460020039042
:103E80002046E11704EB5171C910491C1FFA81F853
:103E9000DFF80891002002906420019040480088DB
:103EA0000090701E86B20298864271DB3219DDE9FD
:103EB0000110084482426BDC0099711A88B2C11764
:103EC00000EB5171CF100099711A88B2C11700EB45
:103ED0005171C910A0EBC1011FFA81FBBAF1000FAB
:103EE00003D0BAF1010F51D126E00EE039467A1C19
:103EF00097B201EB09000822594602F06DF805F867
:103F0000010BA8F101001FFA80F8B8F1000FEDDCF9
:103F10006D1E2046E11704EB5171C910A4EBC101DD
:103F20008CB22878C4F10801884028702878C4F140
:103F300008010841287029E00EE015F8013B3946D8
:103F40007A1C97B201EB09000822594602F059F891
:103F5000A8F101001FFA80F8B8F1010FEDDC20464E
:103F6000E11704EB5171C910A4EBC1018CB264B12B
:103F700015F8013BE2B2394607F1010C1FFA8CF744
:103F800001EB0900594602F03CF800BF02E0FFE7F0
:103F900001200390039804B0BDE8F09F1D2100208C
:103FA0007E0000202DE9FE4F05460E4614460020F7
:103FB00002902046E11704EB5171C910491C1FFA09
:103FC00081F9284801904FF0000A642000902648AB
:103FD000B0F800B0701E86B256453DDB311900982E
:103FE0005044814238DCA6EB0B0188B2C11700EBCC
:103FF0005171CF10A6EB0B0188B2C11700EB5171C4
:10400000C910A0EBC1011FFA81F80EE039467A1CF5
:1040100097B2019A88180822414601F0DDFF05F8A1
:10402000010BA9F101001FFA80F9B9F1000FEDDCD5
:104030006D1E2046E11704EB5171C910A4EBC101BC
:104040008CB22878C4F10801884028702878C4F11F
:1040500008010841287001E0012002900298BDE8A3
:10406000FE8F0000102100207C0000202DE9F04789
:1040700004460D461E460020274B00274FF0640CD7
:10408000DFF89890B9F80080A5F101091FFA89F5C9
:10409000BD423EDB05EB020907EB0C0AD14538DCDB
:1040A000A5EB08091FFA89F116B1012E30D115E0F0
:1040B00011E033F811904FEA292904F8019B13F815
:1040C000119004F8019B01F101091FFA89F1A2F195
:1040D00001091FFA89F2002AEBDC19E015E014F857
:1040E00001AB4FEA0A2923F8119014F8019B33F829
:1040F00011A049EA0A0923F8119001F101091FFAF8
:1041000089F1A2F101091FFA89F2002AE7DC00BF58
:1041100000E00120BDE8F087F221002082000020AD
:104120002DE9F04303460020174D00266427DFF8F1
:104130005C80B8F800C0A1F101081FFA88F1B14213
:104140001FDB01EB020806EB0709C84519DCA1EBF0
:104150000C081FFA88F411E035F814804FEA28287B
:1041600003F8018B15F8148003F8018B04F10108A2
:104170001FFA88F4A2F101081FFA88F2002AEBDC8A
:1041800000E00120BDE8F0832A210020800000200B
:104190002DE9F04104460D4616460027B846A819F9
:1041A000A16B88420ED94FF4F8721F491FA0FEF789
:1041B00057FB25A0FEF754FB31A0FEF751FB781EFC
:1041C000BDE8F081204600F03BF98046B8F1000FD1
:1041D00011D140F2F712144914A0FEF741FB221D41
:1041E00004F11C012848FEF73BFB25A0FEF738FB35
:1041F0004FF0FF30E4E7616B48193146D8F83020C2
:1042000090470746002F0DDA4FF4FF72064907A0CA
:10421000FEF726FB04F11C011CA0FEF721FB18A0F1
:10422000FEF71EFB3846CBE78C6500081B5B33317D
:104230003B32326D5B452F46414C5D202825733A59
:104240002564292000000000506172746974696F50
:104250006E206572617365206572726F72212050E5
:104260006172746974696F6E2061646472657373DE
:10427000206F7574206F6620626F756E642E00006B
:104280001B5B306D0D0A0000AC6B0008506172744E
:104290006974696F6E206572617365206572726FF3
:1042A000722120466C6173682064657669636528B5
:1042B000257329206572617365206572726F7221A2
:1042C0000000000070B5054600240EE00A480068B2
:1042D00000EB8410011D2846FCF73AF820B9064887
:1042E000006800EB841070BD641C044800688442C0
:1042F000ECD30020F7E700006C00002074000020E1
:104300002DE9F04704460D4617461E464FF00008BB
:10431000C146A819A16B88420FD940F2C9122149A0
:1043200021A0FEF79DFA27A0FEF79AFA33A0FEF728
:1043300097FA4FF0FF30BDE8F087204600F080F894
:104340008146B9F1000F11D14FF4E872154916A05A
:10435000FEF786FA221D04F11C012A48FEF780FAB6
:1043600026A0FEF77DFA4FF0FF30E4E7616B4819B5
:1043700032463946D9F82C3098478046B8F1000FBC
:104380000DDA40F2D712074907A0FEF769FA04F1E7
:104390001C011DA0FEF764FA18A0FEF761FA404662
:1043A000C9E70000786500081B5B33313B32326D92
:1043B0005B452F46414C5D202825733A2564292012
:1043C00000000000506172746974696F6E2077722A
:1043D000697465206572726F722120506172746910
:1043E00074696F6E2061646472657373206F757495
:1043F000206F6620626F756E642E00001B5B306D4F
:104400000D0A0000606B0008506172746974696F76
:104410006E207772697465206572726F7221204612
:104420006C6173682064657669636528257329204B
:104430007772697465206572726F722100000000E6
:10444000014604480068081A8011034A52F8200007
:10445000704700006C000020D820002038B50446CA
:104460008DF8000069460320ABBE204638BDFCF73E
:10447000A7FD01F0FDFDFCF71FFD04E002F032F89E
:104480000A2000F0B5FFF9E710B5044600F02CF95A
:10449000FFF7EDFF10BD000002480349086000204F
:1044A000704700000000020808ED00E02DE9F04F21
:1044B00086B00D469C46DDE9106401960F9B04F022
:1044C0004008B8F1000F02D0DFF8708101E0DFF89A
:1044D0007081CDF8008004F01008B8F1000F01D011
:1044E00024F0010404F00108B8F1000F02D04FF0ED
:1044F000300801E04FF02008C246002704F002080F
:10450000B8F1000F11D0002A02DA2D2752420CE038
:1045100004F00408B8F1000F01D02B2705E004F0E7
:104520000808B8F1000F00D02027002142B94FF051
:10453000300B8846491C0DF1080909F808B01DE048
:104540001AE0E146B9F10A0F08D14FF00A0BB2FBAD
:10455000FBFE0BFB1E28B2FBFBF202E002F00F0891
:10456000120900BFDDF8009019F808B08846491C10
:104570000DF1080909F808B0002AE2D1B14200DDC6
:104580000E469B1B04F01108B8F1000F10D117B1B3
:10459000002B00DD5B1E06E0A84203D24FF020088E
:1045A00080F80080401CB3F10008A3F10103F3DCA4
:1045B00027B1A84200D207705B1E401C04F010080F
:1045C000B8F1000F0AD104E0A84201D280F800A09F
:1045D000401CB3F10008A3F10103F5DC06E0A8429A
:1045E00003D24FF0300880F80080401CB046761EA1
:1045F0008845F4DC08E0A84205D20DF1080818F857
:10460000018080F80080401CB1F10008A1F1010197
:1046100004DDDDF80480B8F1000FECD106E0A8421B
:1046200003D24FF0200880F80080401CB3F100084E
:10463000A3F10103F3DC06B0BDE8F08FB16A000816
:10464000A06A0008014621B1012904D0072906D13A
:1046500003E0002005E0022003E0062001E0042042
:1046600000BF00BF7047000010B5024800688047D7
:1046700010BD0000A400002010B5044620460249E9
:104680000968884710BD00009C0000207FB50A4CD7
:1046900014200A214FF40072084BCDE90032CDE915
:1046A00002100023064A07A1204600F087FE0546B7
:1046B000204600F0EDFE7FBD483700204835002041
:1046C000894400086D61696E0000000010B5044C5B
:1046D00002E020688047241D02488442F9D310BDBF
:1046E000D46C0008DC6C000810B5044C02E02068B3
:1046F0008047241D02488442F9D310BDDC6C0008B9
:10470000E06C000810B5FBF731FD04460448008852
:10471000401C00B2024908802046FBF72BFD10BD6B
:10472000F801002010B5FBF721FD04460C48008875
:10473000401E00B20A4908800846B0F9000000286F
:104740000ADC002008802046FBF714FD05480068BD
:1047500028B100F07FFC02E02046FBF70BFD10BD06
:10476000F8010020FC01002070B5092001F0C2FA18
:10477000154800684FF47A72B0FBF2F1B1F1807F16
:1047800000D31DE021F07F40401E4FF0E022506139
:1047900050170F22002807DA13071D0E0B4B00F0ED
:1047A0000F04241F1D5503E013071C0E084B1C5457
:1047B00000BF00204FF0E02290610720106100BF91
:1047C000FFF784FF70BD00000000002018ED00E03E
:1047D00000E400E0F8B50546002400260D20009016
:1047E000284600F023FD064600BF0DE0285D0A289C
:1047F00004D1012269460020FCF7D2FD29190122CB
:104800000020FCF7CDFD641CB442EFD3F8BD0000DE
:1048100001480249086070470400FA050CED00E009
:1048200070B505462C1D2E48006838B128462C4925
:1048300009688847064606B970BD00BF29A0E16B2C
:1048400000F07EF92BA0216A00F07AF92DA0616AB0
:1048500000F076F92FA0A16A00F072F931A0E16AA8
:1048600000F06EF933A0216800F06AF935A06168A4
:1048700000F066F937A0A16800F062F939A0E1689C
:1048800000F05EF93BA0216900F05AF93DA0616992
:1048900000F056F93FA0A16900F052F941A0E1698A
:1048A00000F04EF943A0216B00F04AF945A0616B7E
:1048B00000F046F947A0A16B00F042F9287800F01B
:1048C000040038B100F0BCFD0646314645A000F0BA
:1048D00037F902E04BA000F033F900BFFEE700001B
:1048E000780100207073723A203078253038780AC9
:1048F000000000007230303A203078253038780AD5
:10490000000000007230313A203078253038780AC3
:10491000000000007230323A203078253038780AB2
:10492000000000007230333A203078253038780AA1
:10493000000000007230343A203078253038780A90
:10494000000000007230353A203078253038780A7F
:10495000000000007230363A203078253038780A6E
:10496000000000007230373A203078253038780A5D
:10497000000000007230383A203078253038780A4C
:10498000000000007230393A203078253038780A3B
:10499000000000007231303A203078253038780A33
:1049A000000000007231313A203078253038780A22
:1049B000000000007231323A203078253038780A11
:1049C00000000000206C723A203078253038780AD8
:1049D000000000002070633A203078253038780AD3
:1049E0000000000068617264206661756C74206F5D
:1049F0006E207468726561643A2025730D0A0D0A91
:104A00000000000068617264206661756C74206F3C
:104A10006E2068616E646C65720D0A0D0A000000FC
:104A2000F0B504460D461646301D20F0070040380C
:104A30000146002203E00C4F41F82270521C102A5C
:104A4000F9D30D624FF0000CC1F824C0C1F828C0A2
:104A5000C1F82CC0C1F830C04B638C634FF0807C30
:104A6000C1F83CC0F0BD0000EFBEADDE10B5FBF7F5
:104A70007DFB044604480078401C0349087020462A
:104A8000FBF778FB10BD00008001002010B5FBF79C
:104A90006DFB044604480078401E03490870204618
:104AA000FBF768FB10BD00008001002070B50446D4
:104AB0002068A0F11405284600F0A4FC002070BD79
:104AC0002DE9F04105460C469046204600F0F6FCE4
:104AD000B8F1000F03D0B8F1010F23D105E004F1C4
:104AE0001401284600F05BF81DE02E680FE0A6F1E7
:104AF000140794F8350097F83510884206DA04F167
:104B0000140107F1140000F04AF802E03668AE42E2
:104B1000EDD100BFAE4204D104F11401284600F0EB
:104B20003EF800E000BF00BF0020BDE8F08110B5F6
:104B3000044604F1140000F01BF8002010BD000032
:104B40000FB438B505A80090FF210848009B049ACF
:104B500000F08EFE0446FF2C00D9FF240348FFF727
:104B600039FE0020009038BC5DF814FBC8380020E6
:104B700040600060704740600060704740600060C7
:104B800070470268516002680A60016048607047BF
:104B90000268516002680A600160486070474268BC
:104BA000116042684A6041600860704701460868C9
:104BB000884201D1012070470020FCE701460868C7
:104BC000884201D1012070470020FCE7D0E9002194
:104BD0005160D0E900121160406000607047D0E978
:104BE00000215160D0E90012116040600060704700
:104BF0002DE9F0410F46164604463D463346102B3C
:104C000028D305F0030C04F003084CEA080CBCF1AF
:104C1000000F1FD121462A4610E052F804CB41F87C
:104C200004CB52F804CB41F804CB52F804CB41F842
:104C300004CB52F804CB41F804CB103B102BECD240
:104C400004E052F804CB41F804CB1B1F042BF8D22C
:104C50000C46154603E015F801CB04F801CBB3F17F
:104C6000000CA3F10103F6D1BDE8F081F0B50C46CC
:104C70000546E6B2042A15D300F0030797B90146AA
:104C800046EA062343EA034304E008C108C108C119
:104C900008C1103A102AF8D201E008C1121F042AF4
:104CA000FBD20D4601E005F8016B171EA2F10102CF
:104CB000F9D1F0BD2DE9F05F04460F4690469946C4
:104CC000DDE90AAB3A460621204600F089F984F86E
:104CD00009B02046FFF72BFFC4F81C8009F1030040
:104CE00020F003002084208C001DBAFBF0F06084CB
:104CF0000020A062E0622063002608E0208C001DF6
:104D0000E16906FB0015206B28602563761C608C2A
:104D1000B042F3DC0020A08404F13400FFF728FF48
:104D20000020BDE8F09F2DE9FF4704460F4690465E
:104D30004FF0000900F084FB0546FBF717FA8246A6
:104D4000A08C48B9039838B95046FBF713FA6FF0B6
:104D5000010004B0BDE8F0873CE000202863039820
:104D600030B95046FBF706FA6FF001002863F0E710
:104D7000627A294604F11400FFF7A2FE0398002886
:104D80000CDD00F01BFC814603AA002105F14C005C
:104D900000F084FC05F14C0000F0DCFC5046FBF711
:104DA000E9F900F057F9286B08B1286BD1E7FBF758
:104DB000DDF98246039800280CDD00F0FFFBA0EB34
:104DC00009090398A0EB090003900398002801DA71
:104DD00000200390A08C0028BFD0A66A3068A06293
:104DE000E06AB04201D10020E062A08C002802DD20
:104DF000A08C401EA0845046FBF7BCF9208C404597
:104E000001D2208C00E040460246311D3846FFF7B3
:104E1000EFFEFBF7ABF98246206B3060266304F1AE
:104E20003400FFF7C3FE50B904F13400FFF73EFE33
:104E30005046FBF79FF900F00DF9002089E7504636
:104E4000FBF798F9002084E770B504460D46164636
:104E5000002332462946204600F001F870BD2DE9B6
:104E6000FF47044689469046208C404504D24FF0C7
:104E7000FF3004B0BDE8F087002700F0E1FA0646F5
:104E8000FBF774F98246256B35B9039820B9504673
:104E9000FBF770F9F81EECE739E000203063039867
:104EA00028B95046FBF766F96FF00200E1E7627A35
:104EB000314604F13400FFF703FE039800280CDDAF
:104EC00000F07CFB074603AA002106F14C0000F02D
:104ED000E5FB06F14C0000F03DFC5046FBF74AF9BB
:104EE00000F0B8F8306B08B1306BC2E7FBF73EF961
:104EF0008246039800280ADD00F060FBC71B039878
:104F0000C01B03900398002801DA00200390206B57
:104F1000051EC2D0286820635046FBF72BF90020FD
:104F2000286042464946281DFFF762FEFBF71EF93E
:104F30008246E06A08B1E06A0560E562A06A00B9ED
:104F4000A562A08C4FF6FF71884203DAA08C401C4A
:104F5000A08405E05046FBF70DF96FF0020088E7EA
:104F600004F11400FFF722FE50B904F11400FFF71A
:104F70009DFD5046FBF7FEF800F06CF8002078E746
:104F80005046FBF7F7F8002073E770B504460020A1
:104F90002072FBF7EBF8054604F10C00D0E9002184
:104FA0005160D0E9001211604060006000BF2846E7
:104FB000FBF7E0F870BD0000024600210AE0074858
:104FC00000EB01100078904203D1044800EB01107F
:104FD0007047491C0729F2DB0020F9E78401002013
:104FE0002DE9F04704460D46904600262846FFF777
:104FF000E3FF0746FFF786FB7E6802E0A6F10C00A0
:105000003668381D8642F9D1FFF78CFB45F08000E9
:10501000207208224146204600F011F9FBF7A6F85D
:105020008146381D04F10C010268516002680A6073
:105030000160486000BF4846FBF79CF8BDE8F08778
:105040000146087A00F0800008B101207047002076
:10505000FCE700002DE9F041FBF788F80746184807
:10506000008838BB17480068FDF70EFC461E16483E
:1050700050F83600A0F1140414480068844218D097
:1050800013490E701148056804601248007850B941
:1050900004F11C0105F11C00FBF76FF83846FBF723
:1050A00069F8BDE8F08104F11C0105F11C00FBF773
:1050B00064F800BF3846FBF75DF800BFF1E7000079
:1050C000F8010020F4010020C8390020FC01002074
:1050D000000200208001002070B50446FBF746F86E
:1050E000054614F8340F20F00F0040F00100207046
:1050F0006278343C0A4B03EBC20004F114014268AD
:10510000116042684A604160086000BF0549A06BB9
:1051100009680843034908602846FBF72BF870BD6F
:10512000C8390020F401002070B50446FBF71EF8D2
:10513000054604F11400D0E900215160D0E90012C5
:1051400011604060006000BF94F83510094A02EB1E
:10515000C1000168814201D1012100E0002129B193
:105160000548A16B00688843034908602846FBF79F
:1051700001F870BDC8390020F401002008B509A06D
:10518000FFF7DEFC0AA0FFF7DBFC12A005230122DB
:105190000321009012A0FFF7D3FC19A0FFF7D0FC69
:1051A00008BD00000A205C207C202F0A00000000BF
:1051B0002D205254202D202020202054687265611B
:1051C00064204F7065726174696E672053797374DF
:1051D000656D0A004D617220323320323032350065
:1051E000202F207C205C202020202025642E256478
:1051F0002E2564206275696C642025730A00000006
:105200002032303036202D203230323020436F7043
:105210007972696768742062792072742D7468727B
:10522000656164207465616D0A00000001460A46EC
:1052300000E0521C10780028FBD1501A704770B55E
:105240000346A2B118460C4600BF14F8016B00F8E3
:10525000016B3EB902E0002500F8015B551E2A1ED5
:10526000F9D102E0551E2A1EEFD100BF00BF18463B
:1052700070BD000010B500200B490880002405E037
:105280000A4901EBC400FFF776FC641C202CF7DB15
:105290001F20074908700020064908600649086079
:1052A0000648FFF768FC10BDF8010020C83900204F
:1052B00000020020FC010020F40100200402002074
:1052C00070B508480068FDF7DFFA451E064850F83B
:1052D0003500A0F114040548046004F11C00FAF73D
:1052E0007AFF70BDF4010020C8390020FC010020C5
:1052F00010B5002405E0044901EBC400FFF73EFCB3
:10530000641C002CF7D010BD0C020020704710B5B3
:105310000446204600F09AF810BD000070B513480E
:105320000468FAF723FF05462046FEF74FF92046AA
:10533000FFF7FAFE042084F8340004F14C0000F07A
:10534000DEF92046FFF77CFE012803D12046FFF757
:105350001CFE04E004F114010548FFF712FCFFF7FE
:1053600079FE2846FAF706FF70BD0000FC01002018
:105370000402002001E000F001F8FCE770470000A3
:105380001FB520201F218022074BCDE90032CDE937
:1053900002100023054A06A1074800F00FF806484E
:1053A00000F076F81FBD0000483800207553000853
:1053B0007469646C65000000C83700202DE9FF5F48
:1053C00005460C4616461F46DDE910ABDDE90E89A1
:1053D000224601212846FFF703FE3B46324621467E
:1053E00028468DE8000FFDF7CBFE04B0BDE8F09F26
:1053F00070B50446204600F0C5F80546284600F082
:1054000025F870BD70B5044694F8340000F00F0024
:10541000022802D04FF0FF3070BDFAF7A7FE054614
:1054200004F11400FFF7D2FB04F14C0000F008FA7D
:105430002846FAF79FFE2046FFF74EFE0020EBE7D6
:105440000148006870470000FC01002031B5FAF700
:105450008DFE05460D480468204600F02FF86A4688
:10546000002104F14C0000F019F904F14C0000F0A7
:1054700071F92846FAF77EFEFFF7ECFD206B801CE1
:1054800008B900202063002038BD0000FC01002086
:1054900010B504463434A0786070617801208840EB
:1054A0006060022004F834092046FFF7ABFFFFF7E5
:1054B000C7FF08B1FFF7CEFD002010BD70B5044650
:1054C00094F8340000F00F00012802D04FF0FF30B4
:1054D00070BDFAF74BFE05462046FFF725FE94F80F
:1054E000340020F00F0040F0020084F8340004F192
:1054F0004C0000F0A5F92846FAF73CFE0020E7E74B
:1055000070B5044625466FF00100286305F11400CC
:10551000FFF75CFB2846FFF7DFFDFFF79BFD70BD43
:1055200070B5FAF723FE05461448046894F8340071
:1055300000F00F0001281CD1D4E90510814218D0D9
:1055400004F11400FFF742FB94F835200C4B03EBF9
:10555000C20004F114014268116042684A6041606F
:10556000086000BF2846FAF705FEFFF773FD00202C
:1055700070BD2846FAF7FEFD0020F9E7FC01002087
:10558000C83900200146002902DA4FF0FF3014E04C
:105590004FF47A7291FBF2F24FF47A7302FB03F04C
:1055A0001A4691FBF2F302FB13124FF47A735A433B
:1055B00002F2E73292FBF3F21044704701480068B0
:1055C000704700007C01002010B50A480068401CAC
:1055D00008490860FFF734FF0446A06C401EA06431
:1055E000A06C18B9606CA064FFF79AFF00F004F893
:1055F00010BD00007C0100207CB56846FFF7BEFAB4
:10560000FFF7DCFF0546FAF7B1FD06463AE022480F
:105610000068A0F11404A06A281A6FF000418842C3
:105620002ED22046FDF70FFE607A00F0020018B976
:10563000607A20F00100607204F114016846FFF7FF
:10564000A7FAD4E907108847FFF7B8FF0546684670
:10565000FFF7B4FA00B115E004F11400FFF7BFFA48
:10566000607A00F0020060B1607A00F0010040B1A1
:10567000607A20F001006072204600F06BF800E0D4
:1056800005E000BF0448FFF799FA0028BFD000BF2B
:105690003046FAF76FFD7CBD0C0200202DE9F04189
:1056A00004460E461546FAF761FD0746052E1ED242
:1056B000DFE806F00603090E1300606A286017E0B1
:1056C0002868606214E0607A20F0020060720FE0E7
:1056D000607A40F0020060720AE0607A00F0010037
:1056E00010B10120286001E00020286000E000BF28
:1056F00000BF3846FAF73EFD0020BDE8F08170B5E6
:105700000446FAF733FD05462046FDF79CFD607A16
:1057100020F0010060722846FAF72CFD2046FFF7C2
:1057200034FC002070BD2DE9F84307460C461546B1
:105730001E46DDE9088922460A213846FFF750FC5B
:105740004346324629463846CDF80090FDF75AFDCB
:10575000BDE8F8832DE9F8430546FAF707FD8046D2
:105760002846FDF770FD687A20F001006872FFF7A7
:1057700025FF696A0844A8622F4F009700242AE099
:1057800019E05DF824201168142202EBC402881A83
:10579000826AAB6AD21A00D108E0826AAB6AD21A76
:1057A0006FF000439A4200D20CE000BF5DF8240085
:1057B00000684DF824005DF8240007EBC401496837
:1057C0008842DED100BF2CB15DF824000830611C96
:1057D0004DF82100641C002CD2D018480068401CF1
:1057E000164908600846066805F114010098FFF79D
:1057F000CFF9022412E006F0030060B9C4F10103FE
:1058000005F1140202EBC301C4F101025DF82200AC
:10581000FFF7BEF900E003E0B608641C012CEAD9EA
:1058200000BF687A40F0010068724046FAF7A2FCB7
:105830000020BDE8F88300000C02002014020020C4
:1058400070B50446607A00F0010010B94FF0FF30E7
:1058500070BDFAF78BFC05462046FDF7F4FC607A34
:1058600020F0010060722846FAF784FC0020EFE780
:105870002DE9FF4F89B081464C460A9809EB000696
:105880004E4504D24FF0FF36A6EB09000A9077E1AF
:105890000B980078252806D0B44202D20B980078E5
:1058A0002070641C69E1002526E00B98401C0B90D9
:1058B0000B9800782D2802D145F010051CE00B98BC
:1058C00000782B2802D145F0040515E00B980078EC
:1058D000202802D145F008050EE00B980078232817
:1058E00002D145F0200507E00B980078302802D15E
:1058F00045F0010500E000E0D7E700BF4FF0FF37BB
:105900000B98007830380A2804D20BA800F088F9E8
:1059100007460EE00B9800782A280AD10B98401C05
:105920000B900C9880C80C90002F02DA7F4245F053
:1059300010054FF0FF3A0B9800782E281CD10B98D9
:10594000401C0B900B98007830380A2804D20BA822
:1059500000F066F982460AE00B9800782A2806D102
:105960000B98401C0B900C9850F804AB0C90BAF1BB
:10597000000F01DA4FF0000A002004900B98007825
:10598000682803D00B9800786C2805D10B98007814
:1059900004900B98401C0B900A2005900B980078FF
:1059A0006F2873D00CDC632813D004DC25286ED05C
:1059B00058286DD195E064286BD06928F9D197E01B
:1059C000702873D0732825D075286ED07828F0D130
:1059D0008AE005F0100040B904E0B44201D2202072
:1059E0002070641C781E071EF7DC0C9810F8041B4E
:1059F0000C90C8B20790B44201D207982070641C82
:105A000004E0B44201D220202070641C781E071EDE
:105A1000F7DCB2E00C98006806900C98001D0C9022
:105A2000069808B960A006904FF0000801E008F160
:105A30000108B84504D0069810F808000028F6D1EF
:105A4000BAF1000F02DDD04500DDD04605F01000B0
:105A500048B904E0B44201D220202070641C3846CA
:105A60007F1E4045F6DC002008900BE0B44202D2D5
:105A7000069800782070641C0698401C06900898D0
:105A8000401C089008984045F0DB09E026E01FE044
:105A900032E02CE00AE0B44201D220202070641CE5
:105AA00038467F1E4045F6DC67E024E0781C10B9DC
:105AB000082745F00105CDE9007A02950C9804C845
:105AC000102331460C902046FEF7F0FC044654E0CB
:105AD000B44201D225202070641C4EE008200590BD
