:020000040800F2
:100000001039002049010008950700081102000876
:1000100091070008810400087B1A00080000000016
:10002000000000000000000000000000390D000882
:10003000E5040008000000009B010008250E0008F0
:100040006301000863010008630100086301000800
:1000500063010008630100086301000863010008F0
:1000600063010008630100086301000863010008E0
:1000700063010008630100086301000863010008D0
:1000800063010008630100086301000863010008C0
:1000900063010008630100086301000863010008B0
:1000A00063010008630100086301000863010008A0
:1000B000950E000863010008630100086301000851
:1000C0006301000863010008630100086301000880
:1000D000630100081917000885170008FD170008BC
:1000E0006301000863010008630100086301000860
:1000F0006301000863010008630100086301000850
:10010000630100086301000863010008630100083F
:100110007D1300081515000863010008630100083D
:10012000630100086301000863010008630100081F
:10013000DFF810D000F062F90048004777040008AB
:10014000AFF300801039002006488047064800477A
:10015000FEE7FEE7FEE7FEE7FEE7FEE7FEE7FEE777
:10016000FEE7FEE7350E000831010008EFF31080CE
:1001700072B6704780F310887047324A1368012BBB
:1001800004D04FF0010313602F4A10602F4A116012
:100190002F484FF0805101607047EFF3108272B624
:1001A0002848016891B14FF00001016026480168BC
:1001B00029B1EFF3098121E9F00F006801602349BB
:1001C00009680968B1E8F00F81F3098882F31088A3
:1001D0004EF0040E70471D4908601B494FF00000A7
:1001E000086018494FF0010008601A481A49D0F811
:1001F000002041EA0201016015484FF08051016082
:1002000016480068006880F3088861B662B67047D7
:100210001EF0040F0CBFEFF30880EFF3098020E914
:10022000F00F40F804ED1EF0040F0CBF80F30888B7
:1002300080F3098800B502F029FE5DF804EB4EF06A
:10024000040E704728010020200100202401002016
:1002500004ED00E020ED00E00000FFFF08ED00E00D
:1002600040EA01039B0703D009E008C9121F08C038
:10027000042AFAD203E011F8013B00F8013B521EB8
:10028000F9D27047D2B201E000F8012B491EFBD22F
:1002900070470022F6E710B513460A460446194691
:1002A000FFF7F0FF204610BD80EA010210B502F012
:1002B0000043400022D04A001FD0010E01EB126122
:1002C000C0F35600C2F3560240F4000042F40002AC
:1002D000A0FB022000047F39140400D0401C50EA27
:1002E000124001D44000491EC2B20C0604EBD010EB
:1002F000401C4008802A02D003E0002010BD20F0FE
:100300000100002900DA0020184310BD00F000426F
:1003100020F00040C10DC0F3160040F400007F291A
:1003200001DA00207047962903DCC1F19601C8402C
:1003300001E096398840002AF4D04042704701F02D
:10034000004330B421F0004150EA010206D00A0D0A
:10035000A2F56072C1F31301002A02DC30BC002058
:100360007047440F44EAC104C100E01830BC00EB00
:10037000C25000F00BB80000002801DBC0F10040C3
:10038000002901DBC1F10041814270470029A8BF6B
:100390007047401C490008BF20F00100704710B4AE
:1003A000B0FA80FC00FA0CF050EA010404BF10BC63
:1003B000704749B1CCF1200421FA04F411FA0CF190
:1003C00018BF012121430843A3EB0C01CB1D4FEAC9
:1003D00000614FEA102042BF002010BC704700EBC4
:1003E000C35010440029A4BF10BC7047401C4900F2
:1003F00008BF20F0010010BC70470000064C074DFC
:1004000006E0E06840F0010394E8070098471034E4
:10041000AC42F6D3FFF790FE704A0008904A0008FD
:1004200070B58C1810F8015B15F0070301D110F8B6
:10043000013B2A1106D110F8012B03E010F8016BE3
:1004400001F8016B5B1EF9D12B0705D40023521E66
:100450000DD401F8013BFAE710F8013BCB1A921CCE
:1004600003E013F8015B01F8015B521EF9D5A142CC
:10047000D8D3002070BD10B503F0D2FE002010BD0F
:1004800000BFFEE721B1026842F00102026004E011
:1004900002684FF6FE731A400260704701464868D2
:1004A00080B2704710B50022026847F6F0739A4395
:1004B0000C6A8B6823430C6923434C6923438C6982
:1004C0002343CC6923434C6A23438C6A23431A4356
:1004D0000260CB6843600B6883604B68C36010BDEB
:1004E0004160704770472DE9F04102460025002623
:1004F000002000230024002791F803C00CF00F0512
:1005000091F803C00CF0100CBCF1000F03D091F86F
:1005100002C04CEA050591F800C0BCF1000F31D0D3
:10052000146800202BE04FF0010C0CFA00F3B1F836
:1005300000C00CEA03069E4220D183004FF00F0C4E
:100540000CFA03F7BC4305FA03FC4CEA040491F8E7
:1005500003C0BCF1280F06D14FF0010C0CFA00FCCF
:10056000C2F814C00AE091F803C0BCF1480F05D1ED
:100570004FF0010C0CFA00FCC2F810C0401C082817
:10058000D1D31460B1F800C0BCF1FF0F34DD546862
:1005900000202EE000F1080C4FF0010808FA0CF3DF
:1005A000B1F800C00CEA03069E4221D183004FF04F
:1005B0000F0C0CFA03F7BC4305FA03FC4CEA0404E5
:1005C00091F803C0BCF1280F05D100F1080C08FA1E
:1005D0000CF8C2F8148091F803C0BCF1480F07D1A1
:1005E00000F1080C4FF0010808FA0CF8C2F810806E
:1005F000401C0828CED35460BDE8F081F0B50A460F
:10060000002300240021002500F00046B6F1004F31
:1006100002D11D4EF16901E01B4E7168C0F3034524
:1006200083B200F44016B6F5401F08D121F0706186
:10063000154E766826F07066134F7E6012E000F467
:100640008016B6F5801F06D1032606FA05F4A143ED
:1006500041F0706106E0460D360103FA06F6B1433B
:1006600041F0706122B1460D360103FA06F63143BE
:1006700000F00046B6F1004F02D1034EF16101E0F7
:10068000014E7160F0BD0000000001401FB5002464
:1006900000204FF440714FF480731A4ACDE90010E6
:1006A00019A11D4802F03CFE044604B11FBD6420A0
:1006B00016214FF48062194BCDE90032CDE90210CA
:1006C0000023174A17A11A4803F0A8F9044614B9E1
:1006D000174803F00DFA642016214FF48062154B81
:1006E000CDE90032CDE902100023134A0DA11348D1
:1006F00003F094F9044614B9104803F0F9F900BF67
:10070000D4E700008C2C00206D6F646275735F72FB
:10071000785F6D7100000000502C0020D023002075
:10072000410700084D4F444255535F5441534B001D
:10073000502300205028002071070008D0270020F7
:10074000C0B011E04FF0FF334FF4807269460748A4
:1007500002F01FFE40B9684602F0CCFA4FF48072F6
:100760000021684602F0B8FDECE70000502C0020A4
:1007700000234FF4E1320121184601F085FE01F01B
:10078000F1FB04E001F0E6FE0A2003F061F9F9E76D
:1007900000BFFEE77047000070B5002100230F2264
:1007A000C47804B3154C246804F4E064C4F5E06430
:1007B000210AC1F10403CA40447804FA03F18478A1
:1007C0001440214309010E4C0678A155047804F029
:1007D0001F050124AC4005786D11AD0005F1E02541
:1007E000C5F8004109E0047804F01F050124AC407D
:1007F000044D0678761145F8264070BD0CED00E0FA
:1008000000E400E080E100E029B1064A52690243B9
:10081000044B5A6104E0034A52698243014B5A6116
:10082000704700000010024029B1064AD269024315
:10083000044BDA6104E0034AD2698243014BDA6176
:10084000704700000010024029B1064A12690243B5
:10085000044B1A6104E0034A12698243014B1A6196
:10086000704700000010024029B1064A9269024315
:10087000044B9A6104E0034A92698243014B9A61F6
:10088000704700000010024029B1064AD2680243B6
:10089000044BDA6004E0034AD2688243014BDA6019
:1008A000704700000010024030B5002100220024F3
:1008B00000232D4D6D6805F00C0121B1042905D0F0
:1008C000082923D105E0294D056022E0274D056068
:1008D0001FE0254D6D6805F47012234D6D6805F419
:1008E0008034022505EB92421CB9214D5543056029
:1008F0000BE01D4D6D6805F400351DB11C4D5543D1
:10090000056002E0194D5543056002E0174D056092
:1009100000BF00BF144D6D6805F0F0010909154DC9
:100920006B5C0568DD4045600F4D6D6805F4E06166
:10093000090A104D6B5C4568DD4085600A4D6D68A5
:1009400005F46051C90A0B4D6B5C4568DD40C5601C
:10095000054D6D6805F44041890B074D6B5CC5681A
:10096000B5FBF3F5056130BD0010024000127A00BE
:1009700000093D0014000020240000202DE9F04172
:1009800004460D46164600BF0E4F3878532801D056
:1009900001F076F800BFEFF311800746202080F3C6
:1009A000118800BF00BF32462946204600F00CF8EF
:1009B0008046F8B280F3118800BF00BF4046BDE812
:1009C000F0810000CC0F00202DE9F0470746884653
:1009D0001646C24607EB47011B4800EBC109D9F890
:1009E000140020B1012811D0022826D11EE048466B
:1009F00001F07EF80546B54201D2002405E03446F8
:100A000032465146484601F0CAF918E0484601F01E
:100A10006FF80546B54201D2284600E0304604464C
:100A200022465146484601F0BAF908E0324651469E
:100A3000484601F079F9044601E0002400BF00BFF8
:100A40002046BDE8F0870000E40F00200FB438B561
:100A5000044606A800906A462046059900F008F86A
:100A6000054600200090284638BC5DF814FB0000C5
:100A70002DE9F04F99B082460D46144603A8149014
:100A80004020159000201690CDF860A0179000BF70
:100A90002E786D1C06B936E1252E73D100274FF054
:100AA000010900BF2E78232E12D02B2E0CD02D2E14
:100AB00002D0302E10D103E047F001076D1C0EE08C
:100AC00047F002076D1C0AE047F004076D1C06E0C2
:100AD00047F008076D1C02E04FF0000900BF00BF9F
:100AE000B9F1000FDED14FF0000800BF2E78302E94
:100AF00001DB392E00DD07E06D1CA6F1300008EBAC
:100B0000880100EB4108F1E700BF002013902E7828
:100B10002E2E12D16D1C00BF2E78302E01DB392E07
:100B200000DD09E06D1CA6F13000139901EB810195
:100B300000EB41001390EFE700BF2E7800BF6C2E52
:100B400001D0682E02D16D1C2E7800E000E0F6E79F
:100B500000BF662E78D00CDC582E3DD004DC252E4C
:100B600075D0462E72D178E0632E0CD0642EF9D168
:100B700015E0702E58D0732E3CD0752E1DD0782ED7
:100B8000F0D128E0B7E02168081D2060D1F800907E
:100B900009F0FF0B594614A801F0A4F8A8E0216859
:100BA000081D2060D1F80090CDE900870A2249464F
:100BB00014A8139B00F0AAFF9AE02168081D20608A
:100BC000D1F80090CDE900870A22494614A8139B6A
:100BD00001F012F88CE000BF2168081D2060D1F8F8
:100BE0000090CDE900871022494614A8139B01F01C
:100BF00003F87DE02168081D2060D1F800B0BBF14A
:100C0000000F01D10FF2241B00BF9BF800600BF115
:100C1000010B06B906E0314614A801F063F81798F5
:100C20000028F2DA00BF63E02168081D2060D1F8D7
:100C30000090002008210B461022CDE90010494603
:100C400014A800F0D9FF53E006E000E04FE02521B2
:100C500014A801F047F84BE000BF2068C01D20F049
:100C60000700844608302060DCE900211046FFF7C9
:100C700066FB029000210298FFF77EFB03D22D2134
:100C800014A801F02FF80298FFF740FBB0F1000B19
:100C900001DB584601E0CBF100008146CDE9008739
:100CA0000A22494614A8139B00F030FF2E2114A8F5
:100CB00001F018F81F490298FFF7F6FA0190FFF7C4
:100CC00025FBB0F1000B01DB584601E0CBF1000041
:100CD0008146642099FBF0F100FB119902230A225E
:100CE000494614A8CDE9008700F010FF00E000BFDE
:100CF00000BF6D1C03E0314614A800F0F3FF179805
:100D00000028BFF6C5AE00BF179800280ADD169868
:100D100020B103A95046169AFFF730FEDDE9161000
:100D200008441790179819B0BDE8F08F284E554C1D
:100D30004C2900000000C842704710B500F002F8CE
:100D400010BD00000CB500200190009033480068F1
:100D500040F480303149086000BF3048006800F43A
:100D6000003000900198401C0190009818B901983B
:100D7000B0F5A06FF1D12948006800F4003010B13F
:100D80000120009001E0002000900098012843D14C
:100D90002348006840F010002149086008460068B8
:100DA00020F0030008600846006840F00200086078
:100DB0001A48406819494860084640684860084633
:100DC000406840F4806048600846406820F47C1029
:100DD00048600846406840F4E810486008460068EB
:100DE00040F08070086000BF0C48006800F00070A0
:100DF0000028F9D00948406820F0030007494860FE
:100E00000846406840F00200486000BF0348406860
:100E100000F00C000828F9D10CBD000000100240C1
:100E20000020024010B502F057F902F0FDFE02F07A
:100E300063F910BD10B51348006840F00100114976
:100E4000086008464068104908400E494860084656
:100E500000680E4908400B4908600846006820F405
:100E6000802008600846406820F4FE0048604FF487
:100E70001F008860FFF761FF4FF0006004490860C1
:100E800010BD0000001002400000FFF8FFFFF6FE5A
:100E900008ED00E010B50121880700F00BF928B13A
:100EA00001F020FF0121880700F001F810BDCA43BE
:100EB0000282704721B1028842F00102028004E000
:100EC00002884FF6FE731A400280704710B5044640
:100ED0006848844208D10121C014FFF7D5FC0021E5
:100EE000E014FFF7D1FCC4E0B4F1804F08D1012138
:100EF0000846FFF7A9FC00210120FFF7A5FCB8E098
:100F00005D48844208D101210220FFF79DFC0021A9
:100F10000220FFF799FCACE05848844208D1012137
:100F20000420FFF791FC00210420FFF78DFCA0E0D6
:100F30005348844208D101210820FFF785FC002195
:100F40000820FFF781FC94E04E48844208D101213B
:100F50001020FFF779FC00211020FFF775FC88E0D6
:100F60004948844208D101212020FFF76DFC00216F
:100F70002020FFF769FC7CE04448844208D101212D
:100F80004014FFF781FC00216014FFF77DFC70E046
:100F90003F48844209D10121C804FFF775FC0021B4
:100FA0004FF40020FFF770FC63E03A48844209D117
:100FB00001210805FFF768FC00214FF48010FFF7BE
:100FC00063FC56E03448844209D101214805FFF70B
:100FD0005BFC00214FF40010FFF756FC49E02F485E
:100FE000844208D101214020FFF72EFC002140203F
:100FF000FFF72AFC3DE02A48844208D101218020E5
:10100000FFF722FC00218020FFF71EFC31E025487D
:10101000844208D101218015FFF716FC0021A0159C
:10102000FFF712FC25E02048844209D10121080481
:10103000FFF72AFC00214FF48030FFF725FC18E071
:101040001A48844209D101214804FFF71DFC002100
:101050004FF40030FFF718FC0BE01548844208D12C
:1010600001218804FFF710FC00214FF48020FFF7D6
:101070000BFC10BD002C01400004004000080040A3
:10108000000C0040001000400014004000340140FB
:10109000004C014000500140005401400018004045
:1010A000001C00400020004000400140004401407E
:1010B0000048014030B50246002000230024158A74
:1010C00005EA0103958905EA010413B10CB1012079
:1010D00000E0002030BD1AB183890B43838102E018
:1010E00083898B438381704701894FF6F8721140E1
:1010F0000181704781847047002202881D4B98420D
:101100000ED01D4B98420BD0B0F1804F08D01B4B36
:10111000984205D01A4B984202D01A4B984204D1FB
:101120004FF68F731A404B881A43174B984207D0DB
:10113000164B984204D04FF6FF431A40CB881A430F
:1011400002808B8883850B8803850A4B98420BD0DD
:10115000094B984208D00E4B984205D00D4B98424F
:1011600002D00D4B984201D10B7A03860123838272
:1011700070470000002C0140003401400004004092
:1011800000080040000C0040001000400014004027
:1011900000400140004401400048014000B58BB0D0
:1011A00001210846FFF730FB12480090002006900E
:1011B00004901148019000200790802005900020A5
:1011C0000290042003902020089000200A904FF401
:1011D0008050099069460948FFF764F901224021CF
:1011E0000448001F00F06EFB01210448FFF74AF994
:1011F0000BB000BD04480040CE0C0020300002407F
:1012000010B588B0044601218804FFF70DFB0121C9
:101210000820FFF729FB4FF48060ADF81C00032085
:101220008DF81E0018208DF81F0007A92A48FFF727
:101230005AF94FF40060ADF81C0004208DF81F002F
:1012400007A92548FFF74FF903940020ADF81000D7
:10125000ADF81200ADF81400ADF818000C20ADF890
:10126000160003A91D4800F093FB012240F225510E
:101270001A4800F067FB012240F22441174800F0B1
:1012800061FB002240F22661144800F05BFB27203E
:101290008DF8080001208DF80B008DF8090003205F
:1012A0008DF80A0002A8FFF777FAFFF777FF012110
:1012B0000A4800F0FBFA0AA00BA1CDE900100C4887
:1012C00003680068401C0A4A10600AA20BA10020B3
:1012D000FFF7BCFB08B010BD000C01400048004007
:1012E0001B5B306D000000005B495D3A00000000B0
:1012F000380000201B5B313B33326D0025735B25CA
:10130000645D2573554152543320496E6974204FF2
:101310004B0D0A25730D0A0000B58BB00121022088
:10132000FFF772FA124800900020069004901148CE
:10133000019000200790802005900020029004205A
:1013400003902020089000200A904FF480500990CC
:1013500069460948FFF7A6F8012240210448001F0A
:1013600000F0B0FA01210448FFF78CF80BB000BD83
:10137000044C0040CE0D00203004024008B540F27D
:101380002441194800F0B4FA60B317480088C0B28D
:1013900000901548001D0088C0B20090102112482E
:1013A00000F06CFA012011490870042010490870FF
:1013B0001048FFF773F840420D49487008464078DE
:1013C000821C0D4802F076F800210A48FFF75AF80F
:1013D0004FF480710748FFF783F801210548FFF7B4
:1013E00051F800BF08BD0000004C0040450000203F
:1013F000CC0D002030040240502C002010B588B0E5
:1014000004460121C804FFF70FFA01211020FFF75D
:101410002BFA4FF48060ADF81C0003208DF81E00FD
:1014200018208DF81F0007A92A48FFF75CF84FF431
:101430000060ADF81C0004208DF81F0007A92548A6
:10144000FFF751F803940020ADF81000ADF812003A
:10145000ADF81400ADF818000C20ADF8160003A983
:101460001D4800F095FA012240F225511A4800F07B
:1014700069FA012240F22441174800F063FA002281
:1014800040F22661144800F05DFA34208DF808001F
:1014900001208DF80B008DF8090003208DF80A005B
:1014A00002A8FFF779F9FFF737FF01210A4800F09A
:1014B000FDF90AA00BA1CDE900100C4803680068F3
:1014C000401C0A4A10600AA20BA10020FFF7BEFAD6
:1014D00008B010BD00100140004C00401B5B306D97
:1014E000000000005B495D3A000000004000002061
:1014F0001B5B313B33326D0025735B25645D2573C7
:10150000554152543420496E6974204F4B0D0A25C1
:10151000730D0A0008B540F22551254800F0E8F99E
:10152000D0B1234800F0A0FAC2B222480078214985
:101530000978491C1F4B1970801C1F490A54184612
:101540000078FE2802DD00201946087040F225517F
:10155000174800F09CF92AE040F22441144800F0BA
:10156000C7F920B301201549087011480088C0B29E
:1015700000900F488088C0B2009005200E49087086
:101580000C480078487008464078821C0C4801F0EE
:1015900091FF4FF480720021074801F09DFE00206A
:1015A0000449087040F22441014800F070F908BD78
:1015B000005000404C000020CC0E00204D000020C8
:1015C000502C002010B588B0044601210805FFF713
:1015D0002BF901211020FFF747F901212020FFF707
:1015E00043F901210820FFF73FF901210846FFF7E1
:1015F0003BF901213548FFF701F84FF48050ADF871
:101600001C0003208DF81E0018208DF81F0007A96C
:101610002F48FEF768FF0420ADF81C0048208DF825
:101620001F0007A92B48FEF75EFF03940020ADF8CA
:101630001000ADF81200ADF81400ADF818000C2041
:10164000ADF8160003A9244800F0A2F9012240F2E7
:101650002551214800F076F9012240F224411E482C
:1016600000F070F9002240F226611B4800F06AF990
:1016700035208DF8080001208DF80B008DF8090049
:1016800003208DF80A0002A8FFF786F8012112480E
:1016900000F00CF91820ADF81C0010208DF81F0088
:1016A00007A90E48FEF71FFF0DA00FA1CDE90010FE
:1016B0000F4803680068401C0D4A10600DA20FA17E
:1016C0000020FFF7C3F908B010BD00000002300091
:1016D000001001400014014000500040000C014087
:1016E0001B5B306D000000005B495D3A00000000AC
:1016F000480000201B5B313B33326D0025735B25B6
:10170000645D2573554152543520496E6974204FEC
:101710004B0D0A25730D0A0008B540F22441154807
:1017200000F0E6F828B313480088C0B200901148D2
:10173000001D0088C0B2009010210E4800F09EF8F5
:1017400001200D4908700D4908700D48FEF7A6FEEE
:1017500040420A49487000210948FEF793FE4FF4C1
:1017600080710748FEF7BCFE01210548FEF78AFE9E
:1017700000BF08BD003801402D000020CC01002032
:101780005800024008B540F22441184800F0B0F873
:1017900058B316480088C0B200901448001D008855
:1017A000C0B200901021114800F068F801201049E3
:1017B000087002200F4908700F48FEF76FFE404284
:1017C0000C49487000210C48FEF75CFE4FF4807114
:1017D0000948FEF785FE4FF480710648FEF759FD73
:1017E00001210548FEF74EFE00BF08BD0044004041
:1017F000350000204C0700206C00024008B540F284
:101800002441194800F074F860B317480088C0B24A
:1018100000901548001D0088C0B2009010211248A9
:1018200000F02CF8012011490870032010490870BD
:101830001048FEF733FE40420D4948700846407894
:10184000821C0D4801F036FE00210A48FEF71AFE00
:101850004FF480710748FEF743FE01210548FEF76B
:1018600011FE00BF08BD0000004800403D00002000
:10187000CC0C002030000240502C002001F40072FB
:10188000B2F5007F00D100BFCA430280704710B597
:101890000022002340F66A14A14200D100BF0A12C0
:1018A00001249440A3B2DC43048010BD21B182899D
:1018B00042F40052828104E082894DF6FF731A409F
:1018C000828170471AB1838A0B43838202E0838A44
:1018D0008B438382704702460020B1F5007F00D120
:1018E00000BF13880B400BB1012000E000207047BF
:1018F00070B50246002400230025002040F66A1639
:10190000B14200D100BFC1F3421501F01F0301260F
:1019100006FA03F3012D02D19689334006E0022D29
:1019200002D1168A334001E0968A33400C12012618
:1019300006FA04F41688344013B10CB1012000E01B
:10194000002070BDF0B503460024002600250020CD
:1019500040F66A17B94200D100BF1846C1F34214DD
:1019600001F01F06012707FA06F5012C01D10C3002
:1019700004E0022C01D1103000E014301AB10768E5
:101980002F43076002E00768AF430760F0BD000027
:101990002DE9F04786B005460E460024A24600BF5A
:1019A000A1460027B08900B100BF2F462C8A4CF613
:1019B000FF700440F08804432C82AC894EF6F3108B
:1019C0000440B08831890843718908430443AC81DD
:1019D000AC8A4FF6FF400440B0890443AC8201A8B2
:1019E000FEF762FF1F48874202D1DDF810A001E038
:1019F000DDF80CA0A88900F4004040B10AEBCA0051
:101A000000EB0A1031684900B0FBF1F807E00AEB7F
:101A1000CA0000EB0A1031688900B0FBF1F86420BD
:101A2000B8FBF0F004012009642101FB1089A889AA
:101A300000F4004040B1322000EBC900B0FBF1F0EF
:101A400000F00700044308E0322000EB0910642195
:101A5000B0FBF1F000F00F0004432C8106B0BDE8AC
:101A6000F08700000038014001468888C0F3080074
:101A70007047C1F308028280704700BFFEE7000094
:101A800070B5144CA8212046FEF703FC032020610A
:101A9000606111A0A0611349E1614FF4805121629E
:101AA0000021A1626162E1620BA020660E496166BD
:101AB0001021A16600212167E1666167002505E02C
:101AC000C5F10F000949085C60556D1C102DF7D356
:101AD00070BD0000CC0F00205465726D696E616CA2
:101AE0000000000074100020742000209A460008B6
:101AF00010B501460A69CB689A4204D88C68641E06
:101B0000E41AA01801E0D41A601E10BD2DE9FC5F94
:101B100006460F4692469846DDE90C45002F01DA4D
:101B2000784200E0384683464FF0010903E09BFB12
:101B3000FAFB09F10109D345F9DAC84500D9C146D4
:101B400034B1002F03DB05F00400042800D1641E2B
:101B500005F0020010B1B8F1000F11D005F001003E
:101B600070B96CB108E0641E2021304600F0BAF86C
:101B7000F068002800DA02E00CB1A145F3D300BF01
:101B8000F068002836DB002F05DA7F422D21304631
:101B900000F0A8F807E005F00400042803D12B2189
:101BA000304600F09FF8F068002823DB05F00200C3
:101BB000022814D105F0010088B9B8F1000F0ED148
:101BC0006CB108E0641E3021304600F08BF8F068FC
:101BD000002800DA02E00CB1A145F3D300BFF068A1
:101BE000002807DB4346524639463046CDE90045DA
:101BF00000F002F8BDE8FC9F2DE9FC5F80468946B5
:101C000015461E460C9CCDF804900127BB4605E006
:101C10000198B0FBF5F001900BF1010B0198A8427F
:101C2000F6D25E4500D9B3460D9800F00100D0B958
:101C3000CCB10D9800F00200022803D116B9302073
:101C4000009001E02020009009E0641E40460099C9
:101C500000F048F8D8F80C00002800DA02E00CB1D7
:101C6000A345F2D300BFD8F80C00002835DB09E00B
:101C7000012E01D9761E04E0B9FBF7FAAA4500D27D
:101C800001E06F43F4E700BF00BFB9FBF7FA0AFBBE
:101C90001799134810F80A10404600F023F8D8F8B6
:101CA0000C00002800DA03E0B7FBF5F7002FECD1B9
:101CB00000BF0D9800F0010078B174B109E0641E16
:101CC0002021404600F00EF8D8F80C00002800DA79
:101CD00002E00CB1A345F2D300BFBDE8FC9F0000B9
:101CE000AB46000870B504460E46A568681C6168DE
:101CF000814206D320684655681CA060E068401CFD
:101D0000E060D4E9011088420DD1A2682168206901
:101D1000FEF734FEA168884203D04FF0FF30E06048
:101D200001E00020A06070BD2DE9F05F0446894607
:101D300017464FF0000AE56800BFD4F81080A845A8
:101D400003D9A8EB0500461E04E0A5EB0800401CE3
:101D5000A1680E1AA068401BB04201D9304601E0CC
:101D6000A068401B0646BE4201D2304600E038461D
:101D70000646606800EB050B324649465846FEF7BA
:101D80006FFAB244B144BF1B3544A068A84200D1E9
:101D90000025E560002FD0D15046BDE8F09F2DE929
:101DA000F047044689461546E668A068871BAF429F
:101DB0000AD9606800EB060A2A4649465046FEF7F3
:101DC0004FFA7019E06014E0B846606800EB060A4C
:101DD000424649465046FEF743FAA5EB0708D4F8B9
:101DE00004A009EB070142465046FEF739FAC4F851
:101DF0000C80BDE8F0870000014609B9002070475B
:101E0000C8B220B1C8B20E4A105C401CF7E701F41A
:101E10007F4028B10A48C1F30722805C0930EEE711
:101E200001F47F0028B10648C1F30742805C1130FD
:101E3000E5E7034800EB116000781930DFE70000A8
:101E4000BB48000802E008C8121F08C1002AFAD1E6
:101E500070477047002001E001C1121F002AFBD12A
:101E6000704700002DE9FC5F04468B4615461E4670
:101E7000DDE90C9ADDE90E7804F1140040600060A1
:101E800000BF1C346560A660C4F80C90C4F810A0B4
:101E90002321D4E9030201F01FFAD4E9033C63448F
:101EA0001A1F0F4BD4E9010101F0F0F82060A7766A
:101EB00067760020E061C4F82880C4F82C80606157
:101EC0002076E06520661C3C00902346054A2146AA
:101ED000019004F14C0001F056FF0020BDE8FC9F8A
:101EE0007D390008613B00082DE9F04704460E46A5
:101EF00017469846DDF8209084F80990607A20F023
:101F000001006072E66127620020A062C4F82480AC
:101F1000002506E004F1140101EBC50001F064F9AD
:101F20006D1C012DF6DBBDE8F08770B50546002479
:101F300006E005F1140101EBC40001F086F9641C10
:101F4000012CF6DB70BD70B50446FEF70FF90546AF
:101F5000A06F10B12046A16F88472846FEF70AF906
:101F600070BD000010B5002406480078012806D195
:101F700005480068804700200249087000E00624F8
:101F8000204610BD5A000020600000202DE9F05FBF
:101F900006460D464FF0000B2888052844D170787E
:101FA0004FEA002AB07840EA0A0AF0780402307951
:101FB0000443012C35DBB4F5FA6F32DA37460020E2
:101FC0002880012007F8010B2888401C288004F095
:101FD000070040B12046E11704EB5171C910491CBC
:101FE00001F0FF0805E02046E11704EB5171C1F351
:101FF000C70807F8018B2888401C28800023224648
:102000005146384600F0F2FB8146B9F1000F04D08A
:10201000484600F055FE834608E028884044288062
:1020200004E04FF0030B01E04FF0030B5846BDE80E
:10203000F09F2DE9F05F06460D464FF0000B288813
:10204000052843D170784FEA002AB07840EA0A0A9E
:10205000F078040230790443012C34DBB4F5FA6FD4
:1020600031DA374600202880022007F8010B288843
:10207000401C288004F0070040B12046E11704EB23
:102080005171C910491C01F0FF0805E02046E11715
:1020900004EB5171C1F3C70807F8018B2888401C75
:1020A000288022465146384600F03AFC8146B9F174
:1020B000000F04D0484600F003FE834608E028885D
:1020C0004044288004E04FF0030B01E04FF0030B85
:1020D0005846BDE8F09F2DE9F04705460C464FF005
:1020E000000A2088052834D168784FEA0029A878AA
:1020F00040EA0909E878060228790643012E25DB23
:102100007D2E23DC2F4600202080032007F8010BC2
:102110002088401C20807006000E07F8010B2088E4
:10212000401C2080002332464946384600F05CFCC3
:102130008046B8F1000F04D0404600F0C1FD824651
:1021400009E0208800EB4600208004E04FF0030AFD
:1021500001E04FF0030A5046BDE8F0872DE9F04753
:1021600005460C464FF0000A2088052837D16878CC
:102170004FEA0028A87840EA080808F101001FFA91
:1021800080F8E878060228790643012E24DB7D2EAC
:1021900022DA2F4600202080042007F8010B208837
:1021A000401C20807006000E07F8010B2088401CA0
:1021B000208032464146384600F070FC8146B9F135
:1021C000000F04D0484600F07BFD824609E02088DD
:1021D00000EB4600208004E04FF0030A01E04FF0DE
:1021E000030A5046BDE8F0872DE9FC5F04460D4622
:1021F0000020009028880A285DDB60784FEA002ADA
:10220000A07840EA0A0A0AF101001FFA80FAE07891
:1022100006022079064360794FEA002BA07940EA54
:102220000B0B0BF101001FFA80FBE0790702207A0B
:102230000743607A0190012E3BDB7D2E39DC012FB4
:1022400037DB792F35DC79000198814231D10123C8
:102250003A46594604F10A0000F0C6FB8146B9F13E
:10226000000F1ED1A04600202880172008F8010B7F
:102270002888401C28807006000E08F8010B28886A
:10228000401C2880002332465146404600F0ACFBFB
:102290008146B9F1000F04D12888022101FB060014
:1022A0002880B9F1000F06D0484600F009FD0090E3
:1022B00001E0032000900098BDE8FC9F70B5054642
:1022C0000C46064802880649681CFDF7C9FF03480A
:1022D0000088401C2080002070BD00004E000020BF
:1022E000842000202DE9F84304460E464FF00008F4
:1022F0003088052827D160780702A0780743207925
:10230000F0B9E078FF2801D0E078C8B900208DF856
:102310000100E078FF2803D101208DF8000002E0E1
:1023200000208DF8000001231A463946684600F067
:102330005DFA05464DB1284600F0C2FC804604E037
:102340004FF0030801E04FF003084046BDE8F88372
:102350002DE9F04104460E464FF00008308805286C
:1023600010D160780702A078074301231A46394646
:10237000E01C00F039FB054635B1284600F0A0FC12
:10238000804601E04FF003084046BDE8F0812DE9AA
:10239000F05F05460E464FF0000B3088052838DD0B
:1023A00068784FEA0029A87840EA0909E878040229
:1023B0002879044395F805A004F0070038B12046B9
:1023C000E11704EB5171C910491CCFB205E020465A
:1023D000E11704EB5171C1F3C707012C16DBB4F50B
:1023E000F66F13DC574511D1012322464946A81D3B
:1023F00000F0FCF98046B8F1000F04D0404600F030
:102400005FFC834607E00520308004E04FF0030BBB
:1024100001E04FF0030B5846BDE8F09F2DE9F0476F
:1024200004460E464FF0000A3088062826DB607806
:102430004FEA0028A07840EA0808E07805022079F1
:10244000054394F80590012D15DB782D13DC680603
:10245000000E48450FD101232A464146A01D00F039
:10246000C3FA074627B1384600F02AFC824607E047
:102470000520308004E04FF0030A01E04FF0030A2A
:102480005046BDE8F08700002DE9F04105460C46B6
:1024900016461F464FF000081CB1012C01DBF72C3B
:1024A00002DD4FF0020831E01A480470E5B91A481D
:1024B0001A4908601A481B4908601B481B490860F4
:1024C0001B481C49086000201B4908601B481C4928
:1024D00008601C481C4908603A4631460D4800789F
:1024E00000F0DAF8804602E04FF0020800BF00BFBB
:1024F000B8F1000F0AD101F09DFF10B94FF00308A9
:1025000004E0124805700120114908704046BDE8FA
:10251000F081000058000020D5270008600000204E
:10252000E927000864000020312700085C00002033
:10253000DD260008680000206C00002051450008DE
:1025400070000020C14500087800002059000020DC
:102550005A000020F8B500254348007808B106204D
:10256000F8BD684601F054FF01287AD19DF80000BB
:1025700030B1012805D0022819D0032870D16EE0AF
:102580006EE03A4B3A4A3B493B483C4E3668B047CE
:1025900005465DB93748007839490978884202D044
:1025A0003448007810B9022001F04CFF58E0304860
:1025B000006800783349087001203349087000240E
:1025C00017E0324810F8340000B914E02F4810F832
:1025D00034002C49097888420AD12C4800EBC40009
:1025E000224942682248006890472749087002E063
:1025F000641C102CE5DB00BF1E48007868B322483D
:102600000078C8B10020194908801E48007840F0C1
:102610008001164802880088401C144B188014481A
:102620000068815418480278184601880088401CC8
:1026300018800F480068425415480078012800D1DE
:1026400000BF0A4803880A4802680D4801780A4812
:102650000078104E3668B047054601E001E000BF43
:1026600000BF00207CE700005A0000200A01002083
:1026700004010020080100200D0100206800002056
:1026800058000020090100200C01002084000020D7
:10269000590000205C0000202DE9F04107460C465F
:1026A00090460026204601F0D9FE012801D00326DD
:1026B0000EE0B4F5964F01D9232503E060000649EA
:1026C000B1FBF0F5A8B201F00FFF012800D00326FE
:1026D0003046BDE8F0810000A07F17002DE9F041F1
:1026E00004460D4616461F464FF000080E48007877
:1026F00020700E480088042811DB0C4801880A4825
:10270000801C01F03FFE50B90748807828700748C8
:102710000088C01E38800448C01C306001E04FF0C3
:1027200005084046BDE8F0814E2200201A01002035
:102730002DE9F04780460D4616461F464FF000092A
:102740001F480078012835D1701E1E4908600120FD
:102750001D4908801B4800680570084600883844F9
:102760000880084601881748006801F00BFE0446FF
:1027700015490888411C144B1980811C134B5C546B
:10278000221211490888411C0F4B1980811C0F4BE4
:102790005A5401200E4908700B48008860B10A485D
:1027A000028808480168404601F066FE002006499C
:1027B000088001E04FF005094846BDE8F0870000B9
:1027C0001101002014010020180100204E220020D9
:1027D0001001002010B500200249087001F003FE2E
:1027E00010BD000011010020704700002DE9FF5FBF
:1027F00005460E4614469A46002003902046E117EF
:1028000004EB5171C910491C1FFA81F8DFF80891D7
:102810000020029064200190404800880090701EC3
:1028200086B20298864271DB3219DDE90110084454
:1028300082426BDC0099711A88B2C11700EB5171AA
:10284000CF100099711A88B2C11700EB5171C910ED
:10285000A0EBC1011FFA81FBBAF1000F03D0BAF15E
:10286000010F51D126E00EE039467A1C97B201EBF8
:1028700009000822594601F0C3FE05F8010BA8F132
:1028800001001FFA80F8B8F1000FEDDC6D1E204644
:10289000E11704EB5171C910A4EBC1018CB2287887
:1028A000C4F10801884028702878C4F10801084163
:1028B000287029E00EE015F8013B39467A1C97B2E2
:1028C00001EB09000822594601F0AFFEA8F1010012
:1028D0001FFA80F8B8F1010FEDDC2046E11704EB98
:1028E0005171C910A4EBC1018CB264B115F8013B60
:1028F000E2B2394607F1010C1FFA8CF701EB09002F
:10290000594601F092FE00BF02E0FFE7012003906C
:10291000039804B0BDE8F09FB120002052000020D1
:102920002DE9FE4F05460E46144600200290204633
:10293000E11704EB5171C910491C1FFA81F92848AD
:1029400001904FF0000A642000902648B0F800B0D3
:10295000701E86B256453DDB3119009850448142C5
:1029600038DCA6EB0B0188B2C11700EB5171CF1018
:10297000A6EB0B0188B2C11700EB5171C910A0EB97
:10298000C1011FFA81F80EE039467A1C97B2019A0C
:1029900088180822414601F033FE05F8010BA9F121
:1029A00001001FFA80F9B9F1000FEDDC6D1E204621
:1029B000E11704EB5171C910A4EBC1018CB2287866
:1029C000C4F10801884028702878C4F10801084142
:1029D000287001E0012002900298BDE8FE8F0000FF
:1029E000A4200020500000202DE9F04704460D46A9
:1029F0001E460020274B00274FF0640CDFF898900C
:102A0000B9F80080A5F101091FFA89F5BD423EDB46
:102A100005EB020907EB0C0AD14538DCA5EB0809E8
:102A20001FFA89F116B1012E30D115E011E033F80B
:102A300011904FEA292904F8019B13F8119004F82A
:102A4000019B01F101091FFA89F1A2F101091FFAA5
:102A500089F2002AEBDC19E015E014F801AB4FEA2B
:102A60000A2923F8119014F8019B33F811A049EAC0
:102A70000A0923F8119001F101091FFA89F1A2F165
:102A800001091FFA89F2002AE7DC00BF00E00120FB
:102A9000BDE8F08786210020560000202DE9F04394
:102AA00003460020174D00266427DFF85C80B8F845
:102AB00000C0A1F101081FFA88F1B1421FDB01EB50
:102AC000020806EB0709C84519DCA1EB0C081FFA40
:102AD00088F411E035F814804FEA282803F8018BB8
:102AE00015F8148003F8018B04F101081FFA88F42B
:102AF000A2F101081FFA88F2002AEBDC00E00120B5
:102B0000BDE8F083BE20002054000020FDF7BEFD8C
:102B100002E00A2000F09CFFFBE710B5044600F03D
:102B200021F9FFF7F3FF10BD2DE9F04F86B00D46F8
:102B30009C46DDE9106401960F9B04F04008B8F153
:102B4000000F02D0DFF8708101E0DFF87081CDF86E
:102B5000008004F01008B8F1000F01D024F0010447
:102B600004F00108B8F1000F02D04FF0300801E086
:102B70004FF02008C246002704F00208B8F1000F09
:102B800011D0002A02DA2D2752420CE004F004088A
:102B9000B8F1000F01D02B2705E004F00808B8F1C8
:102BA000000F00D02027002142B94FF0300B88469B
:102BB000491C0DF1080909F808B01DE01AE0E146CA
:102BC000B9F10A0F08D14FF00A0BB2FBFBFE0BFB69
:102BD0001E28B2FBFBF202E002F00F08120900BF50
:102BE000DDF8009019F808B08846491C0DF1080975
:102BF00009F808B0002AE2D1B14200DD0E469B1B65
:102C000004F01108B8F1000F10D117B1002B00DD4E
:102C10005B1E06E0A84203D24FF0200880F8008037
:102C2000401CB3F10008A3F10103F3DC27B1A84273
:102C300000D207705B1E401C04F01008B8F1000FB2
:102C40000AD104E0A84201D280F800A0401CB3F1F0
:102C50000008A3F10103F5DC06E0A84203D24FF01F
:102C6000300880F80080401CB046761E8845F4DCB1
:102C700008E0A84205D20DF1080818F8018080F894
:102C80000080401CB1F10008A1F1010104DDDDF874
:102C90000480B8F1000FECD106E0A84203D24FF057
:102CA000200880F80080401CB3F10008A3F1010364
:102CB000F3DC06B0BDE8F08FCC490008BB49000842
:102CC000014621B1012904D0072906D103E00020E3
:102CD00005E0022003E0062001E0042000BF00BF61
:102CE0007047000010B502480068804710BD000022
:102CF0007800002010B5044620460249096888473C
:102D000010BD0000700000207FB50A4C14200A217D
:102D10004FF40072084BCDE90032CDE902100023D8
:102D2000064A07A1204600F079FE0546204600F03D
:102D3000DFFE7FBD90310020902F00201B2B00086C
:102D40006D61696E0000000010B5044C02E020685F
:102D50008047241D02488442F9D310BDE44900088D
:102D6000E849000810B5044C02E020688047241DA3
:102D700002488442F9D310BDE8490008EC49000834
:102D800010B5FDF7F3F9044604480088401C00B272
:102D9000024908802046FDF7EDF910BDAC01002086
:102DA00010B5FDF7E3F904460C480088401E00B258
:102DB0000A4908800846B0F9000000280ADC002013
:102DC00008802046FDF7D6F90548006828B100F0D4
:102DD00077FC02E02046FDF7CDF910BDAC010020E4
:102DE000B001002070B5092001F098FA154800687C
:102DF0004FF47A72B0FBF2F1B1F1807F00D31DE0A5
:102E000021F07F40401E4FF0E022506150170F220A
:102E1000002807DA13071D0E0B4B00F00F04241FC8
:102E20001D5503E013071C0E084B1C5400BF002067
:102E30004FF0E02290610720106100BFFFF784FF90
:102E400070BD00000000002018ED00E000E400E08C
:102E5000F8B50546002400260D200090284600F015
:102E60001BFD064600BF0DE0285D0A2804D10122A3
:102E700069460020FDF782FD291901220020FDF797
:102E80007DFD641CB442EFD3F8BD000070B505466B
:102E90002C1D2E48006838B128462C4909688847FF
:102EA000064606B970BD00BF29A0E16B00F07EF9AF
:102EB0002BA0216A00F07AF92DA0616A00F076F962
:102EC0002FA0A16A00F072F931A0E16A00F06EF95A
:102ED00033A0216800F06AF935A0616800F066F956
:102EE00037A0A16800F062F939A0E16800F05EF94E
:102EF0003BA0216900F05AF93DA0616900F056F944
:102F00003FA0A16900F052F941A0E16900F04EF93B
:102F100043A0216B00F04AF945A0616B00F046F92F
:102F200047A0A16B00F042F9287800F0040038B106
:102F300000F0B6FD0646314645A000F037F902E044
:102F40004BA000F033F900BFFEE700002C01002089
:102F50007073723A203078253038780A000000000B
:102F60007230303A203078253038780A000000007E
:102F70007230313A203078253038780A000000006D
:102F80007230323A203078253038780A000000005C
:102F90007230333A203078253038780A000000004B
:102FA0007230343A203078253038780A000000003A
:102FB0007230353A203078253038780A0000000029
:102FC0007230363A203078253038780A0000000018
:102FD0007230373A203078253038780A0000000007
:102FE0007230383A203078253038780A00000000F6
:102FF0007230393A203078253038780A00000000E5
:103000007231303A203078253038780A00000000DC
:103010007231313A203078253038780A00000000CB
:103020007231323A203078253038780A00000000BA
:10303000206C723A203078253038780A0000000081
:103040002070633A203078253038780A000000007C
:1030500068617264206661756C74206F6E2074689C
:10306000726561643A2025730D0A0D0A00000000A4
:1030700068617264206661756C74206F6E2068618F
:103080006E646C65720D0A0D0A000000F0B504460E
:103090000D461646301D20F007004038014600223C
:1030A00003E00C4F41F82270521C102AF9D30D6234
:1030B0004FF0000CC1F824C0C1F828C0C1F82CC0E2
:1030C000C1F830C04B638C634FF0807CC1F83CC0CA
:1030D000F0BD0000EFBEADDE10B5FDF747F80446C9
:1030E00004480078401C034908702046FDF742F868
:1030F00010BD00003401002010B5FDF737F804467C
:1031000004480078401E034908702046FDF732F855
:1031100010BD00003401002070B504462068A0F105
:103120001405284600F09EFC002070BD2DE9F041FA
:1031300005460C469046204600F0F0FCB8F1000F22
:1031400003D0B8F1010F23D105E004F114012846A2
:1031500000F05BF81DE02E680FE0A6F1140794F86C
:10316000350097F83510884206DA04F1140107F1AA
:10317000140000F04AF802E03668AE42EDD100BF1C
:10318000AE4204D104F11401284600F03EF800E0FC
:1031900000BF00BF0020BDE8F08110B5044604F177
:1031A000140000F01BF8002010BD00000FB438B56B
:1031B00005A80090FF210848009B049A00F088FEB3
:1031C0000446FF2C00D9FF240348FFF741FE0020EE
:1031D000009038BC5DF814FB1033002040600060A4
:1031E0007047406000607047406000607047026850
:1031F000516002680A60016048607047026851606F
:1032000002680A6001604860704742681160426865
:103210004A6041600860704701460868884201D1F1
:10322000012070470020FCE701460868884201D170
:10323000012070470020FCE7D0E900215160D0E96F
:1032400000121160406000607047D0E900215160B9
:10325000D0E9001211604060006070472DE9F04134
:103260000F46164604463D463346102B28D305F03C
:10327000030C04F003084CEA080CBCF1000F1FD14A
:1032800021462A4610E052F804CB41F804CB52F80C
:1032900004CB41F804CB52F804CB41F804CB52F8EC
:1032A00004CB41F804CB103B102BECD204E052F8D5
:1032B00004CB41F804CB1B1F042BF8D20C46154657
:1032C00003E015F801CB04F801CBB3F1000CA3F136
:1032D0000103F6D1BDE8F081F0B50C460546E6B233
:1032E000042A15D300F0030797B9014646EA0623DE
:1032F00043EA034304E008C108C108C108C1103A09
:10330000102AF8D201E008C1121F042AFBD20D4690
:1033100001E005F8016B171EA2F10102F9D1F0BD21
:103320002DE9F05F04460F4690469946DDE90AAB69
:103330003A460621204600F089F984F809B0204673
:10334000FFF72BFFC4F81C8009F1030020F00300F5
:103350002084208C001DBAFBF0F060840020A06265
:10336000E0622063002608E0208C001DE16906FB76
:103370000015206B28602563761C608CB042F3DC5E
:103380000020A08404F13400FFF728FF0020BDE8EE
:10339000F09F2DE9FF4704460F4690464FF0000985
:1033A00000F07EFB0546FCF7E1FE8246A08C48B9A2
:1033B000039838B95046FCF7DDFE6FF0010004B009
:1033C000BDE8F0873CE000202863039830B9504600
:1033D000FCF7D0FE6FF001002863F0E7627A29461F
:1033E00004F11400FFF7A2FE039800280CDD00F0A2
:1033F00015FC814603AA002105F14C0000F07EFC7B
:1034000005F14C0000F0D6FC5046FCF7B3FE00F08E
:1034100057F9286B08B1286BD1E7FCF7A7FE824665
:10342000039800280CDD00F0F9FBA0EB09090398D4
:10343000A0EB090003900398002801DA0020039014
:10344000A08C0028BFD0A66A3068A062E06AB042B3
:1034500001D10020E062A08C002802DDA08C401E7B
:10346000A0845046FCF786FE208C404501D2208C7B
:1034700000E040460246311D3846FFF7EFFEFCF7FC
:1034800075FE8246206B3060266304F13400FFF73E
:10349000C3FE50B904F13400FFF73EFE5046FCF77E
:1034A00069FE00F00DF9002089E75046FCF762FE46
:1034B000002084E770B504460D46164600233246C8
:1034C0002946204600F001F870BD2DE9FF4704466B
:1034D00089469046208C404504D24FF0FF3004B01E
:1034E000BDE8F087002700F0DBFA0646FCF73EFE59
:1034F0008246256B35B9039820B95046FCF73AFE51
:10350000F81EECE739E000203063039828B95046F4
:10351000FCF730FE6FF00200E1E7627A314604F119
:103520003400FFF703FE039800280CDD00F076FB63
:10353000074603AA002106F14C0000F0DFFB06F16C
:103540004C0000F037FC5046FCF714FE00F0B8F8D1
:10355000306B08B1306BC2E7FCF708FE8246039877
:1035600000280ADD00F05AFBC71B0398C01B03901C
:103570000398002801DA00200390206B051EC2D0BA
:10358000286820635046FCF7F5FD0020286042467D
:103590004946281DFFF762FEFCF7E8FD8246E06A17
:1035A00008B1E06A0560E562A06A00B9A562A08C76
:1035B0004FF6FF71884203DAA08C401CA08405E01E
:1035C0005046FCF7D7FD6FF0020088E704F11400C5
:1035D000FFF722FE50B904F11400FFF79DFD50469D
:1035E000FCF7C8FD00F06CF8002078E75046FCF7C7
:1035F000C1FD002073E770B5044600202072FCF77F
:10360000B5FD054604F10C00D0E900215160D0E978
:10361000001211604060006000BF2846FCF7AAFD60
:1036200070BD0000024600210AE0074800EB0110CF
:103630000078904203D1044800EB01107047491C08
:103640000729F2DB0020F9E7380100202DE9F047D7
:1036500004460D46904600262846FFF7E3FF07463E
:10366000FFF78EFB7E6802E0A6F10C003668381D7D
:103670008642F9D1FFF794FB45F0800020720822C2
:103680004146204600F011F9FCF770FD8146381DD7
:1036900004F10C010268516002680A600160486030
:1036A00000BF4846FCF766FDBDE8F0870146087A92
:1036B00000F0800008B1012070470020FCE7000006
:1036C0002DE9F041FCF752FD07461848008838BB49
:1036D00017480068FEF790FB461E164850F8360063
:1036E000A0F1140414480068844218D013490E70E5
:1036F0001148056804601248007850B904F11C01B3
:1037000005F11C00FCF739FD3846FCF733FDBDE838
:10371000F08104F11C0105F11C00FCF72EFD00BF37
:103720003846FCF727FD00BFF1E70000AC010020A0
:10373000A801002010340020B0010020B4010020B6
:103740003401002070B50446FCF710FD054614F85E
:10375000340F20F00F0040F0010020706278343CFC
:103760000A4B03EBC20004F1140142681160426885
:103770004A604160086000BF0549A06B09680843C2
:10378000034908602846FCF7F5FC70BD10340020A2
:10379000A801002070B50446FCF7E8FC054604F1DA
:1037A0001400D0E900215160D0E90012116040609E
:1037B000006000BF94F83510094A02EBC1000168AF
:1037C000814201D1012100E0002129B10548A16B0E
:1037D00000688843034908602846FCF7CBFC70BDAD
:1037E00010340020A801002008B509A0FFF7DEFC76
:1037F0000AA0FFF7DBFC12A00523012203210090A1
:1038000012A0FFF7D3FC19A0FFF7D0FC08BD000001
:103810000A205C207C202F0A000000002D2052543A
:10382000202D2020202020546872656164204F7074
:1038300065726174696E672053797374656D0A00EF
:103840004D6172203134203230323500202F207CFF
:10385000205C202020202025642E25642E25642035
:103860006275696C642025730A00000020323030D4
:1038700036202D203230323020436F7079726967E4
:1038800068742062792072742D7468726561642096
:103890007465616D0A00000001460A4600E0521C92
:1038A00010780028FBD1501A704770B50346A2B1BA
:1038B00018460C4600BF14F8016B00F8016B3EB9C6
:1038C00002E0002500F8015B551E2A1EF9D102E036
:1038D000551E2A1EEFD100BF00BF184670BD000064
:1038E00010B500200B490880002405E00A4901EBCF
:1038F000C400FFF776FC641C202CF7DB1F2007496F
:103900000870002006490860064908600648FFF76D
:1039100068FC10BDAC01002010340020B401002070
:10392000B0010020A8010020B801002070B50848AF
:103930000068FEF761FA451E064850F83500A0F110
:1039400014040548046004F11C00FCF744FC70BD3D
:10395000A801002010340020B001002010B5002480
:1039600005E0044901EBC400FFF73EFC641C002C99
:10397000F7D010BDC00100207047000070B513489B
:103980000468FCF7F3FB05462046FEF7DCFA204608
:10399000FFF700FF042084F8340004F14C0000F02D
:1039A000DEF92046FFF782FE012803D12046FFF70B
:1039B00022FE04E004F114010548FFF718FCFFF7AC
:1039C0007FFE2846FCF7D6FB70BD0000B00100204A
:1039D000B801002001E000F001F8FCE770470000AA
:1039E0001FB520201F218022074BCDE90032CDE9F1
:1039F00002100023054A06A1074800F00FF8064808
:103A000000F076F81FBD000090320020D539000884
:103A10007469646C65000000103200202DE9FF5FBE
:103A200005460C4616461F46DDE910ABDDE90E895A
:103A3000224601212846FFF709FE3B463246214631
:103A400028468DE8000FFEF70DFA04B0BDE8F09FA0
:103A500070B50446204600F0C5F80546284600F03B
:103A600025F870BD70B5044694F8340000F00F00DE
:103A7000022802D04FF0FF3070BDFCF777FB0546FF
:103A800004F11400FFF7D8FB04F14C0000F008FA31
:103A90002846FCF76FFB2046FFF754FE0020EBE7BB
:103AA0000148006870470000B001002031B5FCF704
:103AB0005DFB05460D480468204600F02FF86A4675
:103AC000002104F14C0000F019F904F14C0000F061
:103AD00071F92846FCF74EFBFFF7F2FD206B801CC6
:103AE00008B900202063002038BD0000B00100208C
:103AF00010B504463434A0786070617801208840A5
:103B00006060022004F834092046FFF7ABFFFFF79E
:103B1000C7FF08B1FFF7D4FD002010BD70B5044603
:103B200094F8340000F00F00012802D04FF0FF306D
:103B300070BDFCF71BFB05462046FFF72BFE94F8F3
:103B4000340020F00F0040F0020084F8340004F14B
:103B50004C0000F0A5F92846FCF70CFB0020E7E735
:103B600070B5044625466FF00100286305F1140086
:103B7000FFF762FB2846FFF7E5FDFFF7A1FD70BDEB
:103B800070B5FCF7F3FA05461448046894F834005D
:103B900000F00F0001281CD1D4E90510814218D093
:103BA00004F11400FFF748FB94F835200C4B03EBAD
:103BB000C20004F114014268116042684A60416029
:103BC000086000BF2846FCF7D5FAFFF779FD002012
:103BD00070BD2846FCF7CEFA0020F9E7B0010020BE
:103BE000103400200146002902DA4FF0FF3014E0C3
:103BF0004FF47A7291FBF2F24FF47A7302FB03F006
:103C00001A4691FBF2F302FB13124FF47A735A43F4
:103C100002F2E73292FBF3F2104470470148006869
:103C2000704700003001002010B50A480068401CB1
:103C300008490860FFF734FF0446A06C401EA064EA
:103C4000A06C18B9606CA064FFF79AFF00F004F84C
:103C500010BD0000300100207CB56846FFF7C4FAB3
:103C6000FFF7DCFF0546FCF781FA06463AE02248FA
:103C70000068A0F11404A06A281A6FF0004188427D
:103C80002ED22046FEF751F9607A00F0020018B9F2
:103C9000607A20F00100607204F114016846FFF7B9
:103CA000ADFAD4E907108847FFF7B8FF0546684624
:103CB000FFF7BAFA00B115E004F11400FFF7C5FAF6
:103CC000607A00F0020060B1607A00F0010040B15B
:103CD000607A20F001006072204600F06BF800E08E
:103CE00005E000BF0448FFF79FFA0028BFD000BFDF
:103CF0003046FCF73FFA7CBDC00100202DE9F041C1
:103D000004460E461546FCF731FA0746052E1ED22C
:103D1000DFE806F00603090E1300606A286017E06A
:103D20002868606214E0607A20F0020060720FE0A0
:103D3000607A40F0020060720AE0607A00F00100F0
:103D400010B10120286001E00020286000E000BFE1
:103D500000BF3846FCF70EFA0020BDE8F08170B5D0
:103D60000446FCF703FA05462046FEF7DEF8607AC3
:103D700020F0010060722846FCF7FCF92046FFF7AE
:103D80003AFC002070BD2DE9F84307460C46154665
:103D90001E46DDE9088922460A213846FFF756FC0F
:103DA0004346324629463846CDF80090FEF79CF847
:103DB000BDE8F8832DE9F8430546FCF7D7F98046BE
:103DC0002846FEF7B2F8687A20F001006872FFF723
:103DD00025FF696A0844A8622F4F009700242AE053
:103DE00019E05DF824201168142202EBC402881A3D
:103DF000826AAB6AD21A00D108E0826AAB6AD21A30
:103E00006FF000439A4200D20CE000BF5DF824003E
:103E100000684DF824005DF8240007EBC4014968F0
:103E20008842DED100BF2CB15DF824000830611C4F
:103E30004DF82100641C002CD2D018480068401CAA
:103E4000164908600846066805F114010098FFF756
:103E5000D5F9022412E006F0030060B9C4F10103B1
:103E600005F1140202EBC301C4F101025DF8220066
:103E7000FFF7C4F900E003E0B608641C012CEAD99E
:103E800000BF687A40F0010068724046FCF772F9A2
:103E90000020BDE8F8830000C0010020C801002018
:103EA00070B50446607A00F0010010B94FF0FF30A1
:103EB00070BDFCF75BF905462046FEF736F8607AE0
:103EC00020F0010060722846FCF754F90020EFE76B
:103ED0002DE9FF4F89B081464C460A9809EB000650
:103EE0004E4504D24FF0FF36A6EB09000A9077E169
:103EF0000B980078252806D0B44202D20B9800789F
:103F00002070641C69E1002526E00B98401C0B9092
:103F10000B9800782D2802D145F010051CE00B9875
:103F200000782B2802D145F0040515E00B980078A5
:103F3000202802D145F008050EE00B9800782328D0
:103F400002D145F0200507E00B980078302802D117
:103F500045F0010500E000E0D7E700BF4FF0FF3774
:103F60000B98007830380A2804D20BA800F06DF9BD
:103F700007460EE00B9800782A280AD10B98401CBF
:103F80000B900C9880C80C90002F02DA7F4245F00D
:103F900010054FF0FF3A0B9800782E281CD10B9893
:103FA000401C0B900B98007830380A2804D20BA8DC
:103FB00000F04BF982460AE00B9800782A2806D1D7
:103FC0000B98401C0B900C9850F804AB0C90BAF175
:103FD000000F01DA4FF0000A002004900B980078DF
:103FE000682803D00B9800786C2805D10B980078CE
:103FF00004900B98401C0B900A2005900B980078B9
:104000006F2873D00CDC632813D004DC25286ED015
:1040100058286DD195E064286BD06928F9D197E0D4
:10402000702873D0732825D075286ED07828F0D1E9
:104030008AE005F0100040B904E0B44201D220202B
:104040002070641C781E071EF7DC0C9810F8041B07
:104050000C90C8B20790B44201D207982070641C3B
:1040600004E0B44201D220202070641C781E071E98
:10407000F7DCB2E00C98006806900C98001D0C90DC
:10408000069808B960A006904FF0000801E008F11A
:104090000108B84504D0069810F808000028F6D1A9
:1040A000BAF1000F02DDD04500DDD04605F010006A
:1040B00048B904E0B44201D220202070641C384684
:1040C0007F1E4045F6DC002008900BE0B44202D28F
:1040D000069800782070641C0698401C069008988A
:1040E000401C089008984045F0DB09E026E01FE0FE
:1040F00032E02CE00AE0B44201D220202070641C9F
:1041000038467F1E4045F6DC67E024E0781C10B995
:10411000082745F00105CDE9007A02950C9804C8FE
:10412000102331460C902046FEF7FEFC044654E076
:10413000B44201D225202070641C4EE00820059076
:104140001DE045F0400500BF1020059017E000BFBE
:1041500045F0020500BF12E0B44201D225202070D4
:10416000641C0B98007830B1B44202D20B980078EE
:104170002070641C02E00B98401E0B902DE000BFE5
:1041800004986C2807D10C9850F804BB0C9005F0EB
:104190000200B8B116E0049868280BD10C9830F8EA
:1041A000041B1FFA81FB0C9005F0020050B10FFABE
:1041B0008BFB07E00C9850F804BB0C9005F0020054
:1041C00000B100BFCDE9007A02955A46314620463B
:1041D000059BFEF7A9FC044600BF0B98401C0B9002
:1041E0000B98007800287FF483AE0A9838B1B44267
:1041F00002D20020207002E0002006F8010CA4EB9F
:1042000009000DB0BDE8F08F284E554C4C29000038
:104210000020704700207047002070470020704742
:1042200010B5FBF7A3FFFEF7DDFDFFF7DDFAFFF7A3
:1042300095FBFFF755FBFEF767FDFFF79DFBFFF7CB
:10424000CFFBFFF773FB002010BD0146002009E003
:104250000B685A1C0A601A7800EB800302EB4302D9
:10426000A2F130000A681278303A0A2AF0D3704777
:1042700010B5024600210020264B1B6843F4803312
:10428000244C23600AE000BF224B1B6803F4003378
:104290001BB1B1F5004F00D904E0491C4FF6F07393
:1042A0009942F0D300BF4FF6F073994201D3012039
:1042B0002FE04FF48063174C6360921E23465B68C7
:1042C00043EA8243636023465B6843F48033636060
:1042D0001023114C236023461B6843F00203236024
:1042E0000C4B1B6843F080730A4C236000BF094BE2
:1042F0001B685B0E002BFAD0064B5B6843F0020391
:10430000044C636000BF034B5B68C3F38103022B63
:10431000F9D110BD001002400020024010B5044643
:10432000002015490861C860142048610020886198
:10433000C8610846006840F001000860084640680F
:104340000E4908400C494860084600680C4908407E
:10435000094908600846006820F480200860084683
:10436000406820F4FE0048604FF41F00886020463B
:10437000FFF77EFF10BD0000001002400000FFF8B4
:10438000FFFFF6FE70B502460C46FF25FF2309E04D
:1043900012F8010B80EA03010648405C80EA05033D
:1043A0000548455C201EA4F10106B4B2F0D143EAF1
:1043B000052070BDBB460008BB47000810B50121B1
:1043C0008807FCF774FD002201218807FCF783FEB3
:1043D00000214FF08040FCF78DFE00214FF080401F
:1043E000FCF768FD10BD10B501218807FCF75FFDE3
:1043F000012211469007FCF76EFE00214FF080402D
:10440000FCF778FE01218807FCF754FD10BD000081
:1044100001460020054A127832B1054A12780A7026
:104420000022024B1A700120704700001D0100207D
:104430001C01002000200249087001207047000084
:104440001D01002001460120024A1070024801703F
:10445000012070471D0100201C01002010B50446FA
:104460002046FCF7CDFE2046FCF7C8FF2046FDF7AE
:10447000A9F8012010BD00002DE9F04106460F46C5
:104480009046062E0ED2DFE806F00D030507090B55
:10449000104C0AE0104C08E0104C06E0104C04E010
:1044A000104C02E00020BDE8F08100BF00250CE0C8
:1044B000795D2046FDF7DDFA00BF80212046FDF73B
:1044C0000AFA0028F9D0681C85B24545F0DB0120C6
:1044D000E9E7000000380140004400400048004087
:1044E000004C0040005000401FB504460121084622
:1044F000FCF79AF94FF08040FCF7F6FD4FF0804052
:10450000FCF7E4FCADF8084040F60F60ADF804009D
:104510000020ADF80A00ADF8060001A94FF0804078
:10452000FCF7EAFD01218807FCF7C4FC1C208DF88C
:10453000000000208DF8010001208DF802008DF8A8
:1045400003006846FCF728F9012004B010BD000004
:1045500030B5C1B0044600251648007830B10128B6
:104560000AD0022817D003281FD102E0FFF73BFF33
:104570001BE0FFF738FF18E060780F49088060788B
:10458000821C21460D48FBF76BFE0220094908708A
:10459000FFF729FF09E09DF804200DF10501074808
:1045A000FBF75EFEFFF71FFF00BF00BF284641B0CC
:1045B00030BD0000110100201A0100204E22002011
:1045C00010B500240D48007820B1022807D0032838
:1045D0000BD109E00020FFF735FF044606E001207B
:1045E000FFF730FF044601E000E000BF00BFFFF727
:1045F000E5FE012001490870204610BD1101002090
:10460000F0B503460C461546E208A4EBC20087B29B
:104610000120A840401E86B2995C501C185C41EAFB
:10462000002139413140C8B2F0BD2DE9F0430446C4
:1046300015461F46C808A1EBC0081FFA88FC07FAF8
:104640000CF81FFA88F74FF0010808FA05F8A8F1EE
:1046500001081FFA88F6A1EBC00806FA08F81FFA4D
:1046600088F6225C00F1010814F8088042EA08226A
:1046700022EA060848EA070222544FEA222900F1FA
:10468000010804F80890BDE8F08330313233343546
:1046900036373839414243444546000000000000A7
:1046A0005454522052454747455300303132333439
:1046B000353637383941424344454600C1814001CF
:1046C000C0804101C0804100C1814001C0804100E3
:1046D000C1814000C1814001C0804101C0804100D2
:1046E000C1814000C1814001C0804100C1814001C1
:1046F000C0804101C0804100C1814001C0804100B3
:10470000C1814000C1814001C0804100C1814001A0
:10471000C0804101C0804100C1814000C181400191
:10472000C0804101C0804100C1814001C080410082
:10473000C1814000C1814001C0804101C080410071
:10474000C1814000C1814001C0804100C181400160
:10475000C0804101C0804100C1814000C181400151
:10476000C0804101C0804100C1814001C080410042
:10477000C1814000C1814001C0804100C181400130
:10478000C0804101C0804100C1814001C080410022
:10479000C1814000C1814001C0804101C080410011
:1047A000C1814000C1814001C0804100C181400100
:1047B000C0804101C0804100C1814000C0C101C32F
:1047C0000302C2C60607C705C5C404CC0C0DCD0F35
:1047D000CFCE0E0ACACB0BC90908C8D81819D91BE5
:1047E000DBDA1A1EDEDF1FDD1D1CDC14D4D515D765
:1047F0001716D6D21213D311D1D010F03031F133B5
:10480000F3F23236F6F737F53534F43CFCFD3DFF74
:104810003F3EFEFA3A3BFB39F9F83828E8E929EB44
:104820002B2AEAEE2E2FEF2DEDEC2CE42425E527A4
:10483000E7E62622E2E323E12120E0A06061A16314
:10484000A3A26266A6A767A56564A46CACAD6DAFB4
:104850006F6EAEAA6A6BAB69A9A86878B8B979BB64
:104860007B7ABABE7E7FBF7DBDBC7CB47475B577E4
:10487000B7B67672B2B373B17170B0509091519374
:1048800053529296565797559594549C5C5D9D5FF4
:104890009F9E5E5A9A9B5B99595898884849894BC4
:1048A0008B8A4A4E8E8F4F8D4D4C8C448485458724
:1048B00047468682424383418180400000010002D6
:1048C00000010003000100020001000400010002D9
:1048D00000010003000100020001000500010002C8
:1048E00000010003000100020001000400010002B9
:1048F00000010003000100020001000600010002A7
:104900000001000300010002000100040001000298
:104910000001000300010002000100050001000287
:104920000001000300010002000100040001000278
:104930000001000300010002000100070001000265
:104940000001000300010002000100040001000258
:104950000001000300010002000100050001000247
:104960000001000300010002000100040001000238
:104970000001000300010002000100060001000226
:104980000001000300010002000100040001000218
:104990000001000300010002000100050001000207
:1049A00000010003000100020001000400010002F8
:1049B00000010003000100020001003031323334F5
:1049C00035363738396162636465660030313233B9
:1049D00034353637383941424344454600000000FB
:1049E0001D42000815420008114200081942000843
:1049F000303150456664625F6B766462310000005E
:104A00000000000000000000000000006E6F7266F1
:104A10006C617368300000000000000000000000BE
:104A20000000000000000000000020000000000066
:104A3000303150456664625F747364623100000017
:104A40000000000000000000000000006E6F7266B1
:104A50006C6173683000000000000000000000007E
:104A600000000000000020000000400000000000E6
:104A7000904A000800000020CC010000200400083B
:104A8000284B0008CC01002044370000541E0008C9
:104A90001184A24A04680901020304060708090CEC
:104AA0006910053202040608022902321113BD22E0
:104AB0002A0889135D2133080313D7203308101304
:104AC0001D243308061351233308171AE920320135
:104AD000138D1F3308051AE538320F1A8F202972FB
:104AE0001A333801642984133C012A20045A80EEC9
:104AF0001A4C0C2904322029C41A5C0C29043224D3
:104B000029DC1A6C0C2904292029BC1A7C0C2904E4
:104B1000323029E41A8C0C2904323C320A1A9C0CDB
:084B2000290402272C0000000B
:0400000508000131BD
:00000001FF
