:020000040800F2
:10000000E843002045010008BD1100080D0200086A
:10001000C5100008810B0008A53200080000000090
:100020000000000000000000000000007D1E00082D
:10003000450C00080000000097010008012000089E
:100040005F0100085F0100085F0100085F01000810
:100050005F0100085F0100085F0100085F01000800
:100060005F0100085F0100085F0100085F010008F0
:100070005F0100085F0100085F0100085F010008E0
:100080005F0100085F0100085F0100085F010008D0
:100090005F0100085F0100085F0100085F010008C0
:1000A0005F0100085F0100085F0100085F010008B0
:1000B000792000089D2000085F0100085F0100080A
:1000C0005F0100085F0100085F0100085F01000890
:1000D0005F010008112D00089D2D0008352E000835
:1000E0005F0100085F0100085F0100085F01000870
:1000F0005F0100085F0100085F0100085F01000860
:100100005F0100085F0100085F0100085F0100084F
:1001100015290008C52A00085F0100085F010008D2
:100120005F0100085F0100085F0100085F0100082F
:10013000DFF80CD000F046FA004800474D060008F2
:10014000E84300200648804706480047FEE7FEE7F0
:10015000FEE7FEE7FEE7FEE7FEE7FEE7FEE7FEE777
:100160001120000831010008EFF3108072B67047CB
:1001700080F310887047324A1368012B04D04FF087
:10018000010313602F4A10602F4A11602F484FF06F
:10019000805101607047EFF3108272B62848016801
:1001A00091B14FF0000101602648016829B1EFF3D9
:1001B000098121E9F00F0068016023490968096895
:1001C000B1E8F00F81F3098882F310884EF0040E35
:1001D00070471D4908601B494FF00000086018492E
:1001E0004FF0010008601A481A49D0F8002041EA8F
:1001F0000201016015484FF0805101601648006807
:10020000006880F3088861B662B670471EF0040F7C
:100210000CBFEFF30880EFF3098020E9F00F40F8FE
:1002200004ED1EF0040F0CBF80F3088880F30988EA
:1002300000B506F0B5FC5DF804EB4EF0040E704717
:10024000F43C0020583A0020603A002004ED00E021
:1002500020ED00E00000FFFF08ED00E038B5D0E938
:100260000221491E01EB410102EBC1014268C1EBD1
:10027000011102EB81010268C1EB011102EB810265
:10028000D0E9043101EB410103EB81013023A1F5F9
:10029000527191FBF3F4174D6C4302EBC41291FBC6
:1002A000F3F403FB141100921A2902DB124B1A44D7
:1002B00000920C2291FBF2F3104C6343009C04EB80
:1002C000C313009391FBF2F302FB13110C4A08E0F5
:1002D000491E40F2A324535C6343009C04EBC31308
:1002E00000930029F4DC0146684600F0EDF8009820
:1002F00038BD00003F0C0F008051010067C20300B1
:100300000E91000840EA01039B0703D009E008C9E9
:10031000121F08C0042AFAD203E011F8013B00F8CA
:10032000013B521EF9D27047D2B201E000F8012B16
:10033000491EFBD270470022F6E710B513460A4665
:1003400004461946FFF7F0FF204610BD421E12F882
:10035000013F002BFBD111F8013B02F8013B002BC0
:10036000F9D1704730B505462A460B4612F8010B05
:1003700013F8014B08B1A042F8D01CB1002802D0FC
:100380006D1CF1E7284630BD10B5044604E00B783B
:1003900000F8013B03B1491C521EF8D2204610BDA3
:1003A000421C10F8011B0029FBD1801A704703463C
:1003B00011F8012B00F8012B002AF9D118467047DB
:1003C00030B505460020034600E05B1C934205D291
:1003D000EC5CC85C201A01D1002CF6D130BD80EA5B
:1003E000010210B502F00043400022D04A001FD0A5
:1003F000010E01EB1261C0F35600C2F3560240F445
:10040000000042F40002A0FB022000047F39140423
:1004100000D0401C50EA124001D44000491EC2B234
:100420000C0604EBD010401C4008802A02D003E0E8
:10043000002010BD20F00100002900DA0020184340
:1004400010BD002801DBC0F10040002901DBC1F133
:100450000041814201D3012070470020704700F025
:10046000004220F00040C10DC0F3160040F400002F
:100470007F2901DA00207047962903DCC1F196013B
:10048000C84001E096398840002AF4D040427047C5
:1004900001F0004330B421F0004150EA010206D0DF
:1004A0000A0DA2F56072C1F31301002A02DC30BC10
:1004B00000207047440F44EAC104C100E01830BC7A
:1004C00000EBC25000F046B810B500683C22B0FB0B
:1004D000F2F302FB1303B0FBF2F00B60B0FBF2F39C
:1004E00002FB1303B0FBF2F018224B60B0FBF2F3F7
:1004F00002FB1303B0FBF2F0021D8B600723B2FB7B
:10050000F3F403FB1422800040F2B55300F66C3084
:100510008A61B0FBF3F2B0FBF3F403FB1400443246
:1005200080084A61C8613B2802D3920700D0401C72
:100530000022074C13460A61E25C824203D8801A0B
:100540005B1C0B61F8E7401CC860084610BD00004A
:100550001A9100080029A8BF7047401C490008BF35
:1005600020F00100704710B4B0FA80FC00FA0CF0E3
:1005700050EA010404BF10BC704749B1CCF120041B
:1005800021FA04F411FA0CF118BF012121430843A8
:10059000A3EB0C01CB1D4FEA00614FEA102042BFD4
:1005A000002010BC704700EBC35010440029A4BFCA
:1005B00010BC7047401C490008BF20F0010010BC6F
:1005C000704700001CB50948009009480190054695
:1005D000009C06E0E06840F0010394E807009847BB
:1005E0001034AC42F6D3FFF7A7FD000040A300088B
:1005F00060A3000870B58C1810F8015B15F00703B4
:1006000001D110F8013B2A1106D110F8012B03E0AB
:1006100010F8016B01F8016B5B1EF9D12B0705D4B3
:100620000023521E0DD401F8013BFAE710F8013BFC
:10063000CB1A921C03E013F8015B01F8015B521E18
:10064000F9D5A142D8D3002070BD000080B508F0D4
:1006500003F9002080BD000080B584B00390002025
:100660008DF80B0040F28011C2F2000101200870E9
:10067000FFE79DF80B0000EB400140F26C00C2F276
:10068000000000EB810250F821005168128900F04F
:1006900009F920B1FFE700208DF80B003CE09DF840
:1006A0000B0001308DF80B009DF80B0098B3FFE7AD
:1006B00040F20460C2F2000090F83400032807D032
:1006C000FFE740F20460C2F2000007F043FBFFE7DF
:1006D00040F28011C2F200010020087043F26C72F7
:1006E000C2F200021368591C116049F27371C0F61E
:1006F00000016A46516049F26E71C0F60001116056
:1007000049F67901C0F6000149F27872C0F600029C
:1007100001F056F905E0FFE74FF47A7007F0B8FAF8
:10072000A7E704B080BD000080B584B01020009021
:10073000012100F007FE009820210291ADF80C1075
:100740008DF80F0003208DF80E0041F20000C4F276
:100750000100019003A900F077FA0198029900F0D6
:10076000B5FB04B080BD000080B586B04FF4E13029
:1007700001F04EFFFFF7D8FF69460A20C860886085
:100780004FF48060486040F20420C2F2000008602C
:1007900040F28410C2F2000049F6BC11C0F600011C
:1007A00040F25962C0F60002002307F045FA0590B6
:1007B000059838B1FFE749F60410C0F6000006F0CE
:1007C0006BFB6CE040F28410C2F2000007F0C2FA4A
:1007D0000590059838B1FFE749F64010C0F60000D3
:1007E00006F05AFB5BE069460A20C86088604FF457
:1007F0008060486040F60430C2F20000086040F6B5
:100800008420C2F2000049F67511C0F6000140F2E2
:100810005962C0F60002002307F00EFA0590059811
:1008200038B1FFE749F6CE00C0F6000006F034FB11
:1008300035E040F68420C2F2000007F08BFA059004
:10084000059838B1FFE749F62210C0F6000006F01F
:1008500023FB24E069460A20C86088604FF480606A
:10086000486040F28460C2F20000086040F2046018
:10087000C2F2000049F69D11C0F6000140F60522C3
:10088000C0F60002002307F0D7F9059838B1FFE75A
:1008900049F6EB00C0F6000006F0FEFAFFE706B0EE
:1008A00080BD000080B588B006900591ADF812209B
:1008B000069820B9FFE701208DF81F009DE0052074
:1008C0008DF8100040F27800C2F20000006802309B
:1008D00000210391FE2206F0C9FC03988DF8110057
:1008E000FFE706989DF81110405CE0B1FFE706981D
:1008F0009DF81110415C43F60000C4F2010002F0C3
:10090000C5FCFFE743F60000C4F20100402102F0FD
:1009100043FB08B9FFE7F5E7FFE79DF81100013059
:100920008DF81100DDE743F26C71C2F200010B6833
:10093000581C0860069849F27372C0F600026946B6
:100940008A60486049F26E70C0F60000086049F69F
:10095000A801C0F6000149F27872C0F6000200203A
:1009600001F02EF80598002843D0FFE740F2780008
:10097000C2F200000168002081F8FF00FFE740F2AA
:100980007800C2F2000000680599FFF7EBFC80B91F
:10099000FFE79DF81000411E8DF8101020B9FFE709
:1009A00002208DF81F0028E0BDF8120007F070F952
:1009B000E5E743F26C71C2F200010B68581C086055
:1009C000059849F27372C0F6000269468A60486071
:1009D00049F26E70C0F60000086049F69501C0F655
:1009E000000149F27872C0F60002002000F0E8FF32
:1009F000FFE700208DF81F00FFE79DF81F0008B0FB
:100A000080BD000080B588B00790FFE740F28010FD
:100A1000C2F200000078012842D1FFE740F28410C2
:100A2000C2F2000090F83400042838D1FFE769468C
:100A30000A20C86088604FF48060486040F204205B
:100A4000C2F20000086040F28410C2F2000049F6D1
:100A5000BC11C0F6000140F25962C0F6000200234A
:100A600007F0EAF80690069838B1FFE749F6041057
:100A7000C0F6000006F010FA4BE040F28410C2F21B
:100A8000000007F067F90690069838B1FFE749F6CD
:100A90004010C0F6000006F0FFF93AE0FFE733E04F
:100AA00040F28010C2F2000000780146059140B18A
:100AB000FFE7059802280BD0FFE70598032808D028
:100AC00021E040F28011C2F20001032008701AE018
:100AD00019E040F20002C2F2000210685168128967
:100AE000FFF7E0FE38B9FFE749F65F10C0F60000F7
:100AF00006F0D2F906E049F6BB00C0F6000006F0A9
:100B0000CBF9FFE7FFE7FFE74FF47A7007F0C0F893
:100B10007CE708B080BD000080B5012000F04AFCF1
:100B2000002000F047FC80BD82B0ADF80600002038
:100B3000009046F60040C4F200000090BDF8061098
:100B40000098084400900098008802B070470000A8
:100B500082B0ADF80600ADF804100020009046F613
:100B60000040C4F200000090BDF806100098084450
:100B70000090BDF804000099086002B070470000C2
:100B8000FFE7FEE782B001908DF803109DF80300A7
:100B900030B1FFE70199086840F00100086006E005
:100BA000019908684FF6FE7210400860FFE702B036
:100BB0007047000081B000900098406880B201B09A
:100BC0007047000080B583B0029001910020009032
:100BD000029800680090009847F6F07188430090F2
:100BE0000199D1F820E08868D1F810C04B698A6972
:100BF00040EA0E0040EA0C0018431043CA69104353
:100C00004A6A1043896A014300980843009000989B
:100C1000029908600198C0680299486001980068CC
:100C200002998860019840680299C86003B080BD4D
:100C300082B00190ADF80210BDF802000199486041
:100C400002B070477047000088B0079006910020FE
:100C50000590049003900290019000900698C0784F
:100C600000F00F0005900698C078C006002806D551
:100C7000FFE706988178059808430590FFE70698F6
:100C8000007800284BD0FFE707980068019000200B
:100C90000390FFE7039807283DD8FFE70399012059
:100CA00088400290069800880299084004900498B1
:100CB000029988422AD1FFE70398800002900299A6
:100CC0000F20884000900099019888430190059872
:100CD000029900FA01F10198084301900698C07842
:100CE000282806D1FFE70399012088400799486129
:100CF0000BE00698C078482806D1FFE70399012049
:100D0000884007990861FFE7FFE7FFE7FFE70398DF
:100D100001300390BEE7019807990860FFE7069845
:100D20000088B0F5807F50DBFFE7079840680190AE
:100D300000200390FFE70398072842D8FFE70398B5
:100D400000F108010120884002900698008802996D
:100D5000084004900498029988422DD1FFE7039837
:100D60008000029002990F2088400090009901981D
:100D7000884301900598029900FA01F1019808430F
:100D800001900698C078282808D1FFE7039800F161
:100D900008010120884007994861FFE70698C0785C
:100DA000482808D1FFE7039800F108010120884096
:100DB00007990861FFE7FFE7FFE703980130039019
:100DC000B9E7019807994860FFE708B0704700004D
:100DD00086B005908DF813100020039002900190CA
:100DE00000909DF817000006002806D5FFE71C209C
:100DF000C4F201000068019005E00420C4F2010083
:100E000000680190FFE70598C0F303400090BDF82B
:100E100014000390059800F44010B0F5401F0CD169
:100E2000FFE7019820F0706001900421C4F20101F5
:100E3000086820F07060086023E09DF81600C00686
:100E400000280DD5FFE70099032088400290029901
:100E5000019888430190019840F0706001900FE084
:100E60000398059A6FF00F0101EA524100FA01F16F
:100E7000019888430190019840F070600190FFE76D
:100E8000FFE79DF8130060B1FFE70398059A6FF044
:100E90000F0101EA524100FA01F101980843019063
:100EA000FFE79DF817000006002806D5FFE7019828
:100EB0001C21C4F20101086005E001980421C4F27C
:100EC00001010860FFE706B07047000082B00190A2
:100ED000ADF80210BDF802000199086102B0704738
:100EE00043F20001C4F200014CF6CC4008607047A8
:100EF00080B500F019F880BD80B582B08DF807008C
:100F0000ADF8041045F2555000F02EF89DF807009A
:100F100000F012F8BDF8040000F01AF800F004F830
:100F2000FFF7DEFF02B080BD43F20001C4F2000112
:100F30004AF6AA200860704781B08DF803009DF83A
:100F4000030043F20401C4F20001086001B07047DD
:100F500081B0ADF80200BDF8020043F20801C4F20E
:100F60000001086001B0704781B0ADF80200BDF823
:100F7000020043F20001C4F20001086001B07047B2
:100F800080B586B000200590694648604FF44070F7
:100F9000086043F6F010C2F2000049F60D01C0F6F9
:100FA000000141F60402C2F200024FF4807306F021
:100FB000B7F90590059808B1FFE74FE0694664204E
:100FC000C860162088604FF48060486041F2044099
:100FD000C2F20000086041F28430C2F2000049F61B
:100FE0001A01C0F6000141F26102C0F600020023BE
:100FF00006F022FE0590059838B9FFE741F28430EB
:10100000C2F2000006F0A6FE00E0FFE76946642099
:10101000C860162088604FF48060486040F6847095
:10102000C2F20000086040F60470C2F2000049F607
:101030000501C0F6000141F29D02C0F60002002346
:1010400006F0FAFD0590059838B9FFE740F6047000
:10105000C2F2000006F07EFE00E0FFE706B080BDB1
:1010600080B5C2B04190FFE743F6F010C2F2000035
:1010700001A94FF480724FF0FF3306F0A9F958B977
:10108000FFE701A8009005F08DFC009800214FF4C7
:10109000807206F0EBF8FFE7E6E7000080B582B06B
:1010A000019001214FF4E1320023184603F096FA33
:1010B00002F046FEFFE703F029FB0A2006F0E8FDF8
:1010C000F9E70000FFE7FEE780B582B04FF08050FF
:1010D0000121019100F0FEF801994FF0006000F04D
:1010E000F9F8019800F0CEF80420FFF71DFD4AF250
:1010F000B551884226D0FFE7FFF70EFD012000F032
:1011000061FAFFE7612000F01BFA012801D0FFE738
:10111000F8E74FF4007000F06DFA012000F05EFA7D
:1011200000F0C2FA00F0B4FA49F63F4000F098FA35
:1011300000F0AEFA00F020F804204AF2B551FFF7B3
:1011400007FD16E0012000F03DFAFFE7612000F006
:10115000F7F9012801D0FFE7F8E74FF4007000F03D
:1011600049FA012000F03AFA00F09EFA00F090FAF5
:10117000FFE702B080BD000080B58CB040F27C007B
:10118000C2F200000188A1F26C7105914188013919
:10119000049181880391C18802910189019140895C
:1011A00000906846FFF75AF8A0F5E1400B900B98C5
:1011B00000F040FA00F06CFA0CB080BD70470000FF
:1011C00084B003900020029001900F2000900398BB
:1011D000C078B8B3FFE74EF60C50CEF200000068BE
:1011E000C043C0F3022002900298C0F104000190B5
:1011F00000980299C840009003984078019988406F
:101200000290039880780099014002980843029068
:101210000298000102900298039909784EF2004268
:10122000CEF2000288540398027802F01F010120D8
:1012300088401C2101EAD2014EF20012CEF20002D7
:1012400088500EE00398027802F01F0101208840C8
:101250001C2101EAD2014EF28012CEF20002885027
:10126000FFE704B07047000081B0009000980021B3
:10127000C0F2FA5108434EF60C51CEF2000108605C
:1012800001B0704781B08DF803009DF80300202164
:10129000C4F20E21086001B07047000082B00190D6
:1012A0008DF803109DF8030048B1FFE7019A41F261
:1012B0001401C4F2020108681043086008E0019AB2
:1012C00041F21401C4F20201086890430860FFE78C
:1012D00002B0704782B001908DF803109DF80300B2
:1012E00048B1FFE7019A41F21C01C4F2020108680B
:1012F0001043086008E0019A41F21C01C4F20201A7
:10130000086890430860FFE702B0704782B0019020
:101310008DF803109DF8030048B1FFE7019A41F2F0
:101320001001C4F2020108681043086008E0019A45
:1013300041F21001C4F20201086890430860FFE71F
:1013400002B0704782B001908DF803109DF8030041
:1013500048B1FFE7019A41F21801C4F2020108689E
:101360001043086008E0019A41F21801C4F202013A
:10137000086890430860FFE702B0704782B00190B0
:101380008DF803109DF8030048B1FFE7019A41F280
:101390000C01C4F2020108681043086008E0019AD9
:1013A00041F20C01C4F20201086890430860FFE7B3
:1013B00002B0704781B08DF803009DF8030040F241
:1013C0004041C4F24221086001B0704786B00590E8
:1013D0000020049003900290019041F20400C4F2B6
:1013E0000200006800F00C0004900498009040B1E6
:1013F000FFE7009804280BD0FFE7009808280ED0DC
:1014000047E0059941F20020C0F27A00086047E009
:10141000059941F20020C0F27A00086040E041F2F4
:101420000400C4F20200016801F470110391006825
:1014300000F4803002900399022000EB9140039069
:10144000029848B9FFE7039840F60011C0F23D0149
:101450004843059908601BE041F20400C4F2020011
:1014600000688003002809D5FFE7039840F60011C3
:10147000C0F23D0148430599086008E0039841F235
:101480000021C0F27A01484305990860FFE7FFE7B1
:1014900006E0059941F20020C0F27A000860FFE7FB
:1014A00041F20400C4F20200016801F0F00104916D
:1014B000049909090491049A49F22A11C0F600011D
:1014C0008A5C0192059B1A68DDF804C022FA0CF2CE
:1014D0005A60026802F4E0620492049A120A0492CA
:1014E000049A8A5C0192059B5A68DDF804C022FACE
:1014F0000CF29A60026802F460520492049AD20AD2
:101500000492049A895C0191059A5168019BD94023
:10151000D160006800F4404004900498800B04906F
:10152000049949F22610C0F60000405C019005992C
:10153000C868019AB0FBF2F0086106B0704700007D
:1015400084B08DF80F000020029001908DF8030008
:101550009DF80F00400902900298012807D1FFE78B
:1015600041F20000C4F202000068019012E002980B
:10157000022807D1FFE741F22000C4F20200006810
:10158000019006E041F22400C4F2020000680190DC
:10159000FFE7FFE79DF80F0000F01F0002900198A1
:1015A0000299C840C00720B1FFE701208DF8030071
:1015B00003E000208DF80300FFE79DF8030004B06E
:1015C0007047000081B08DF803009DF8030040F2E1
:1015D0008041C4F24221086001B0704781B08DF8AB
:1015E00003009DF8030040F23C41C4F24221086030
:1015F00001B0704781B00090009A41F22001C4F21E
:10160000020108681043086001B0704742F6040107
:10161000C4F20001088840F0100008807047000004
:1016200042F60401C4F20001088820F0100008808E
:101630007047000080B582B00190FFF7E7FFBDF86A
:10164000060042F61801C4F200010880019842F633
:101650001C01C4F200010880FFF7E2FF02B080BD68
:1016600080B582B00190FFF7D1FF0198C0F303402D
:1016700042F60801C4F200010880019842F60C010C
:10168000C4F200010880FFF7CBFF02B080BD00006C
:10169000FFE742F60400C4F200000088800600283C
:1016A00001D4FFE7F5E7704742F60401C4F20001F8
:1016B000088820F008000880FFE742F60400C4F222
:1016C000000000880007002801D4FFE7F5E7704715
:1016D00080B582B000200DF10701012200F03AF838
:1016E00000900098012804D1FFE79DF807000090C2
:1016F00003E04FF0FF300090FFE7009802B080BD9C
:1017000080B584B0FFE742F20C00C2F20000009006
:1017100000980078532803D0FFE701F0C5FDFFE7EC
:10172000FFE742F20C00C2F2000060300390039821
:101730000069029002980399C968884203D0FFE7C4
:101740000120019002E000200190FFE7019804B021
:1017500080BD000080B586B0059004910392EFF340
:1017600011804FF0200181F31188019005980499B0
:10177000039A00F007F80290019880F3118802980C
:1017800006B080BD80B58EB00D900C910B92FFE736
:1017900042F20C00C2F20000039003980078532834
:1017A00003D0FFE701F080FDFFE7FFE70D9800EBB6
:1017B000400142F20C00C2F2000000EBC1006030B8
:1017C00005900C9806900598006908900598C068E7
:1017D00007900020099008980799884236D9FFE7BA
:1017E000059880680899401A0A900A980B998842CF
:1017F00003D2FFE70A98029002E00B980290FFE7FD
:1018000002980A9005984068089908440490069840
:1018100004990A9AFEF776FD0A99099808440990F6
:101820000A990698084406900A990B98401A0B905A
:101830000A99089808440890089805998968884288
:1018400003D1FFE700200890FFE7FFE7079808991A
:10185000401A0A900A980B99884203D2FFE70A9827
:10186000019002E00B980190FFE701980A900A9816
:10187000D8B1FFE705984068089908440490069895
:1018800004990A9AFEF73EFD0A99099808440990BE
:101890000A990698084406900A990B98401A0B90EA
:1018A0000A99089808440890FFE7099820B1FFE7D3
:1018B000089805990861FFE709980EB080BD0000FF
:1018C00080B586B0059004910392FFE742F20C00C8
:1018D000C2F20000019001980078532803D0FFE77E
:1018E00001F0E2FCFFE7FFE7EFF311804FF020018A
:1018F00081F31188009005980499039A00F008F884
:101900000290009880F31188029806B080BD000014
:1019100080B58AB0099008910792089804900998B8
:1019200000EB400142F20C00C2F2000000EBC100EB
:101930001830039003984069029040B1FFE7029885
:10194000012819D0FFE7029802282CD032E0039832
:1019500001F0F8FC059005980799884203D2FFE74B
:101960000020069007E00798069003980499079ACC
:1019700001F070FFFFE720E0039801F0E3FC059021
:1019800005980799884203D2FFE70598019002E085
:1019900007980190FFE70198069003980499069A2A
:1019A00001F058FF09E003980499079A01F0E2FE5C
:1019B000069002E000200690FFE706980AB080BD7E
:1019C00082B080B584B0079306920390029106A876
:1019D0000090039802996A4600F008F80190019877
:1019E00004B0BDE8804002B07047000080B5AAB0E6
:1019F0002990289127920DA8219040202290002024
:101A00002390299925912490FFE7289800788DF854
:101A10009B002898013028909DF89B0008B9FFE7AB
:101A200017E29DF89B00252840F00682FFE7002082
:101A30001E9001202090FFE7289800788DF89B00E9
:101A40009DF89B002338014609910D2829D8099952
:101A5000DFE801F01F272727272727271727072732
:101A6000270F1E9840F001001E9028980130289002
:101A70001AE01E9840F002001E902898013028902D
:101A800012E01E9840F004001E9028980130289023
:101A90000AE01E9840F008001E9028980130289017
:101AA00002E000202090FFE7FFE720980028C3D144
:101AB000FFE700201D90FFE7289800788DF89B0035
:101AC0009DF89B00302805DBFFE79DF89B003A2836
:101AD00001DBFFE710E02898013028901D9800EB0B
:101AE00080019DF89B0000EB410030381D90FFE71E
:101AF00001200028E0D1FFE700201F9028980078FF
:101B00008DF89B009DF89B002E2825D1FFE7289893
:101B100001302890FFE7289800788DF89B009DF809
:101B20009B00302805DBFFE79DF89B003A2801DB8E
:101B3000FFE710E02898013028901F9800EB800103
:101B40009DF89B0000EB410030381F90FFE701201B
:101B50000028E0D1FFE7FFE7289800788DF89B0088
:101B6000FFE79DF89B006C2805D0FFE79DF89B00E0
:101B7000682808D1FFE72898013028902898007835
:101B80008DF89B0000E004E0FFE701200028E8D189
:101B9000FFE79DF89B00253801460891532800F285
:101BA00046810899DFE811F0D80043014301430161
:101BB0004301430143014301430143014301430105
:101BC00043014301430143014301430143014301F5
:101BD00043014301430143014301430143014301E5
:101BE00043014301430143014301DD00430143013C
:101BF00043014301430143014301430143014301C5
:101C000043014301430143014301430143018B006D
:101C100043014301430143014301430143014301A4
:101C200043014301540063004301DD0043014301CC
:101C30004301430143014301430143014301C70001
:101C4000430143019F0043017700430143018B009F
:101C5000279A1068011D11600068209020988DF867
:101C600033009DF8331021A801F048FDE0E0279AE9
:101C70001068011D11600068209020991F9B1D981D
:101C8000DDF878C06A46C2F804C0106021A80A22B4
:101C900001F078FBCCE0279A1068011D1160006804
:101CA000209020991F9B1D98DDF878C06A46C2F8E5
:101CB00004C0106021A80A2201F04AFCB8E0279A6B
:101CC0001068011D11600068209020991F9B1D98CD
:101CD000DDF878C06A46C2F804C0106021A810225E
:101CE00001F036FCA4E0279A1068011D116000681D
:101CF0000B900B9830B9FFE749F2FE70C0F6000078
:101D00000B90FFE7FFE70B9800788DF89B000B988E
:101D100001300B909DF89B0008B9FFE70AE09DF8A1
:101D20009B1021A801F0EAFCFFE72498B0F1FF3FE7
:101D3000E9DCFFE77CE0279A1068011D116000686C
:101D4000209020996846002242600823036021A861
:101D5000102201F0FDFB6BE021A8252101F0CEFC53
:101D600066E0279A1068073020F0070101F10800AB
:101D7000106008684968FEF78BFB0A900A980021FA
:101D8000FEF75FFB28B9FFE721A82D2101F0B6FC83
:101D9000FFE70A98FEF763FB06900028079002D53C
:101DA0000698404207900798209020991F9B1D9805
:101DB000DDF878C06A46C2F804C0106021A803901C
:101DC0000A22029201F0DEFA03982E2101F096FC1D
:101DD0000A980021C4F2C821FEF701FBFEF73FFB81
:101DE00004900028059002D5049840420590029A7C
:101DF000039805992091DDF880C048F21F51C5F283
:101E0000EB118CFB0113591101EBD371642301FB1E
:101E100013C1209120991D9BDDF878E0EC46CCF8A9
:101E200004E0CCF80030022301F0ACFA00E0FFE758
:101E300028980130289005E09DF89B1021A801F01A
:101E40005DFCFFE7FFE72498B0F1FF3F3FF7DDAD12
:101E5000FFE7249801280EDBFFE7239830B1FFE766
:101E60002998239A0DA9FFF72BFDFFE723992498C2
:101E700008442490FFE724982AB080BD70470000F2
:101E800080B500F001F880BD84B00020039002907E
:101E900041F20001C4F20201086840F48030086099
:101EA000FFE741F20000C4F20200006800F40030D5
:101EB0000290039801300390FFE7029900200190FF
:101EC00039B9FFE70398B0F5A06018BF0120019071
:101ED000FFE70198C0070028E3D1FFE741F20000C7
:101EE000C4F2020000688003002803D5FFE7012048
:101EF000029002E000200290FFE70298012851D1F1
:101F0000FFE742F20001C4F20201086840F010004D
:101F10000860086820F003000860086840F00200CC
:101F2000086041F20401C4F20201009108680860EF
:101F300008680860086840F480600860086820F459
:101F40007C100860086840F4E810086041F2000165
:101F5000C4F20201086840F080700860FFE741F2B7
:101F60000000C4F2020000688001002801D4FFE7ED
:101F7000F5E741F20401C4F20201086820F0030011
:101F80000860086840F002000860FFE741F20400C2
:101F9000C4F20200006800F00C00082801D0FFE73E
:101FA000F4E700E0FFE704B07047000080B582B0BE
:101FB000009000980138B0F1807F03D3FFE7012043
:101FC000019019E0009801384EF21401CEF20001A0
:101FD00008604FF0FF300F2101F07EFC4EF2180137
:101FE000CEF20001002008604EF21002CEF2000294
:101FF000072111600190FFE7019802B080BD000049
:1020000080B504F0C3FE05F075FF04F0D1FE80BD7D
:1020100080B541F20002C4F20202106840F00100F3
:10202000106041F20401C4F2020108680023CFF6F7
:10203000FF031840086010684FF6FF73CFF6F66391
:1020400018401060106820F480201060086820F4A8
:10205000FE00086041F20801C4F202014FF41F00C3
:102060000860FFF70DFF4EF60851CEF200014FF069
:102070000060086080BD000080B54FF08040012105
:1020800000F090F940B1FFE704F084FC4FF080408D
:10209000012100F017F8FFE780BD000080B540F295
:1020A0000040C4F20000012100F07CF940B1FFE7DC
:1020B00040F20040C4F20000012100F003F8FFE705
:1020C00080BD000082B00190ADF80210BDF80200A2
:1020D000C0430199088202B07047000082B00190AD
:1020E0008DF803109DF8030030B1FFE701990888CF
:1020F00040F00100088005E00199088820F0010007
:102100000880FFE702B0704780B592B01190119837
:1021100042F60041C4F2010188420BD1FFE74FF4BF
:10212000006010900121FFF729F910980021FFF7B6
:1021300025F934E11198B0F1804F0AD1FFE7012170
:102140000F910846FFF7E2F80F980021FFF7DEF83D
:1021500024E1119840F20041C4F2000188420AD102
:10216000FFE702200E900121FFF7D0F80E98002122
:10217000FFF7CCF811E1119840F60001C4F200011C
:1021800088420AD1FFE704200D900121FFF7BEF835
:102190000D980021FFF7BAF8FEE0119840F60041D3
:1021A000C4F2000188420AD1FFE708200C90012107
:1021B000FFF7ACF80C980021FFF7A8F8EBE01198B6
:1021C00041F20001C4F2000188420AD1FFE7102069
:1021D0000B900121FFF79AF80B980021FFF796F872
:1021E000D8E0119841F20041C4F2000188420AD1BE
:1021F000FFE720200A900121FFF788F80A980021C4
:10220000FFF784F8C5E0119843F20041C4F20101E0
:1022100088420BD1FFE74FF4005009900121FFF7EE
:10222000ADF809980021FFF7A9F8B1E0119844F63C
:102230000041C4F2010188420BD1FFE74FF40020B6
:1022400008900121FFF79AF808980021FFF796F807
:102250009DE0119845F20001C4F2010188420BD1C2
:10226000FFE74FF4801007900121FFF787F80798E8
:102270000021FFF783F889E0119845F20041C4F28C
:10228000010188420BD1FFE74FF4001006900121B5
:10229000FFF774F806980021FFF770F875E01198C1
:1022A00041F60001C4F2000188420AD1FFE7402054
:1022B00005900121FFF72AF805980021FFF726F87D
:1022C00062E0119841F60041C4F2000188420AD14F
:1022D000FFE7802004900121FFF718F804980021FF
:1022E000FFF714F84FE0119842F20001C4F2000128
:1022F00088420BD1FFE74FF4807003900121FFF774
:1023000005F803980021FFF701F83BE0119844F22B
:102310000001C4F2010188420BD1FFE74FF4803085
:1023200002900121FFF72AF802980021FFF726F812
:1023300027E0119844F20041C4F2010188420BD118
:10234000FFE74FF4003001900121FFF717F80198E3
:102350000021FFF713F813E0119844F60001C4F2CE
:10236000010188420BD1FFE74FF48020009001214A
:10237000FFF704F800980021FFF700F8FFE7FFE7F8
:10238000FFE7FFE7FFE7FFE7FFE7FFE7FFE7FFE71D
:10239000FFE7FFE7FFE7FFE7FFE7FFE7FFE712B031
:1023A00080BD000083B00290ADF8061000208DF8CB
:1023B0000500ADF80200ADF800000298008ABDF8F3
:1023C00006100840ADF8020002988089BDF806109A
:1023D0000840ADF80000BDF8020040B1FFE7BDF8CD
:1023E000000020B1FFE701208DF8050003E0002088
:1023F0008DF80500FFE79DF8050003B07047000069
:1024000082B00190ADF802108DF801209DF8010016
:1024100038B1FFE7BDF8022001998889104388810F
:1024200006E0BDF802200199888990438881FFE782
:1024300002B0704781B000900099088920F0070031
:10244000088101B07047000082B00190ADF8021021
:10245000BDF802000199888402B0704783B00290F1
:1024600001910020ADF8020002980088ADF802004A
:10247000029842F60041C4F20101884225D0FFE7EC
:10248000029843F20041C4F2010188421DD0FFE7E7
:102490000298B0F1804F18D0FFE7029840F2004157
:1024A000C4F20001884210D0FFE7029840F6000114
:1024B000C4F20001884208D0FFE7029840F60041CC
:1024C000C4F2000188420ED1FFE7BDF8020020F0FF
:1024D0007000ADF8020001984188BDF80200084381
:1024E000ADF80200FFE7029841F20001C4F20001DA
:1024F000884216D0FFE7029841F20041C4F2000181
:1025000088420ED0FFE7BDF8020020F44070ADF81D
:1025100002000198C188BDF802000843ADF802002E
:10252000FFE7BDF8020002990880019880880299AF
:1025300088850198008802990885029842F6004132
:10254000C4F20101884220D0FFE7029843F2004123
:10255000C4F20101884218D0FFE7029844F200015A
:10256000C4F20101884210D0FFE7029844F2004112
:10257000C4F20101884208D0FFE7029844F6000146
:10258000C4F20101884205D1FFE70198007A02995F
:102590000886FFE702990120888203B07047000097
:1025A00080B58EB0012102910846FEF777FE43F612
:1025B0000400C4F20100039000200990079041F646
:1025C0000A51C2F20001023104910A90802108915F
:1025D00005904FF48071069120210B910D904FF4DE
:1025E00080500C905820C4F20200019003A9FEF71D
:1025F000E9FA029A43F60000C4F20100402100F01B
:10260000B1FC01980299FEF7BDFA0EB080BD000042
:1026100080B590B00F904FF4804001210791FEF7F4
:1026200091FE079904200290FEF78CFE4FF4007093
:10263000ADF83800032005908DF83A0018208DF889
:102640003B0040F60000C4F2010003900EA9049183
:10265000FEF7FAFA029A039804994FF48063ADF8F2
:1026600038308DF83B20FEF7EFFA0F980A900020E3
:102670000890ADF82C00ADF82E00ADF83000ADF8A4
:1026800034000C20ADF8320043F60000C4F2010023
:1026900006900AA900F044FD0698079A40F22551D9
:1026A00000F0F4FC0698079A40F2244100F0EEFC9A
:1026B0000698089A40F2266100F0E8FC0598079910
:1026C00025228DF824208DF827108DF825108DF8FF
:1026D000260009A8FEF774FDFFF762FF0698079928
:1026E00000F02AFC089843F25872C2F20002136804
:1026F000591C116049F27371C0F600016A465160BD
:1027000049F26E71C0F60001116049F25271C0F6D3
:10271000000149F27872C0F60002FFF751F910B0DB
:1027200080BD000080B58EB0012102910846FEF701
:10273000B5FD44F60400C4F20000039000200990A7
:10274000079041F60A71C2F20001023104910A9029
:102750008021089105904FF48071069120210B9102
:102760000D904FF480500C903020C4F20200019084
:1027700003A9FEF727FA029A44F60000C4F200000B
:10278000402100F0EFFB01980299FEF7FBF90EB033
:1027900080BD000080B590B00F904FF480200121E3
:1027A0000791FEF797FD07990820FEF7CBFD4FF440
:1027B0008060ADF83800032005908DF83A001820AD
:1027C0008DF83B0040F60040C4F2010003900EA9D2
:1027D0000491FEF739FA039804994FF40062ADF8BA
:1027E000382004228DF83B20FEF72EFA0F980A902D
:1027F00000200890ADF82C00ADF82E00ADF83000A8
:10280000ADF834000C20ADF8320044F60000C4F2FC
:10281000000006900AA900F083FC0698079A40F28F
:10282000255100F033FC0698079A40F2244100F04D
:102830002DFC0698089A40F2266100F027FC0598C6
:10284000079927228DF824208DF827108DF8251060
:102850008DF8260009A8FEF7B3FCFFF763FF069882
:10286000079900F069FB089843F25C72C2F200021B
:102870001368591C116049F27371C0F600016A4671
:10288000516049F26E71C0F60001116049F2867123
:10289000C0F6000149F27872C0F60002FFF790F826
:1028A00010B080BD80B58EB0022001210291FEF7EC
:1028B000F5FC44F60440C4F20000039000200990A7
:1028C000079041F60731C2F20001023104910A90EB
:1028D0008021089105904FF48071069120210B9181
:1028E0000D904FF480500C9040F23040C4F2020042
:1028F000019003A9FEF766F9029A44F60040C4F27B
:102900000000402100F02EFB01980299FEF73AF9F1
:102910000EB080BD80B584B044F60040C4F2000023
:1029200040F2244100F05AFB002840D0FFE744F673
:102930000040C4F2000001888DF80F1044F60441F5
:10294000C4F2000109888DF80F10102100F0C0FAC0
:1029500041F60741C2F2000101200290087041F6E1
:102960000731C2F2000100910420087040F23040AB
:10297000C4F202000190FEF71DF90099C0F58070C5
:1029800048704878821C43F6F010C2F2000004F050
:10299000EBFD01980021FEF7F5F801984FF48071E6
:1029A000FEF746F901980299FEF7ECF8FFE704B04C
:1029B00080BD000080B590B00F904FF40020012141
:1029C0000791FEF787FC07991020FEF7BBFC4FF438
:1029D0008060ADF83800032005908DF83A0018208B
:1029E0008DF83B0041F20000C4F2010003900EA9F3
:1029F0000491FEF729F9039804994FF40062ADF8A9
:102A0000382004228DF83B20FEF71EF90F980A901B
:102A100000200890ADF82C00ADF82E00ADF8300085
:102A2000ADF834000C20ADF8320044F60040C4F29A
:102A3000000006900AA900F073FB0698079A40F27E
:102A4000255100F023FB0698079A40F2244100F03C
:102A50001DFB0698089A40F2266100F017FB0598C6
:102A6000079934228DF824208DF827108DF8251031
:102A70008DF8260009A8FEF7A3FBFFF713FF0698C1
:102A8000079900F059FA089843F26072C2F2000206
:102A90001368591C116049F27371C0F600016A464F
:102AA000516049F26E71C0F60001116049F2A271E5
:102AB000C0F6000149F27872C0F60002FEF780FF0E
:102AC00010B080BD80B586B045F20000C4F20000B1
:102AD00040F2255100F082FA40B3FFE745F20000D2
:102AE000C4F2000000F0CAFB014641F60840C2F201
:102AF00000000278531C037041F60943C2F2000340
:102B00001A4491700078FF2807DBFFE741F608417F
:102B1000C2F2000100200870FFE745F20000C4F295
:102B2000000040F2255100F0E5F945E045F20000D3
:102B3000C4F2000040F2244100F050FAD8B3FFE79D
:102B400041F60951C2F200010120087045F200006F
:102B5000C4F20000049000888DF8170045F20400CC
:102B6000C4F2000000888DF8170041F60941C2F256
:102B7000000101910520087041F60840C2F20000F2
:102B80000290007848704878821C43F6F010C2F238
:102B9000000004F0E9FC0198002103914FF48072D9
:102BA00004F064FB029A03990498117040F22441E6
:102BB00000F0A0F9FFE7FFE706B080BD80B590B058
:102BC0000F904FF4801001210491FEF783FB0499CC
:102BD00010200690FEF7B6FB04992020FEF7B2FB0A
:102BE00004990820FEF7AEFB04990846FEF7AAFBFD
:102BF000049940F20020C0F23000FEF7E9F84FF4EB
:102C00008050ADF83800032002908DF83A0018206B
:102C100005908DF83B0041F20000C4F201000EA9BE
:102C20000791FEF711F807990420ADF83800482005
:102C30008DF83B0041F20040C4F20100FEF704F8B9
:102C40000F980A9000200890ADF82C00ADF82E00E7
:102C5000ADF83000ADF834000C20ADF8320045F28C
:102C60000000C4F2000003900AA900F059FA03988A
:102C7000049A40F2255100F009FA0398049A40F2B0
:102C8000244100F003FA0398089A40F2266100F00C
:102C9000FDF90298049935228DF824208DF827102B
:102CA0008DF825108DF8260009A8FEF789FA0398FB
:102CB000049900F041F9059A06980799ADF8382073
:102CC0008DF83B0040F60040C4F20100FDF7BCFF68
:102CD000089843F26472C2F200021368591C116032
:102CE00049F27371C0F600016A46516049F26E7193
:102CF000C0F60001116049F2BE71C0F6000149F250
:102D00007872C0F60002FEF75BFE10B080BD0000D6
:102D100080B584B043F60000C4F2010040F22441C3
:102D200000F05CF9B8B3FFE743F60000C4F201001D
:102D300001888DF80F1043F60401C4F201010988DF
:102D40008DF80F10102100F0C3F841F60431C2F2E3
:102D5000000101200290087041F60A51C2F2000100
:102D6000009108705820C4F202000190FDF722FF84
:102D7000009A01460198C1F5807151700021FDF75C
:102D800001FF01984FF48071FDF752FF01980299FD
:102D9000FDF7F8FEFFE704B080BD000080B586B007
:102DA00044F20040C4F2000040F2244100F016F961
:102DB000E8B3FFE744F20040C4F2000001888DF858
:102DC000171044F20441C4F2000109888DF817106D
:102DD000102100F07DF841F60531C2F2000101201A
:102DE0000490087041F60A61C2F2000101910220CC
:102DF00008706C20C4F202000390FDF7DBFE019A1C
:102E000001460398C1F5807151700021FDF7BAFEAB
:102E100003984FF480710291FDF70AFF019802991F
:102E2000FDF789FA03980499FDF7ACFEFFE706B0B9
:102E300080BD000080B584B044F60000C4F20000FC
:102E400040F2244100F0CAF800283FD0FFE744F6E2
:102E50000000C4F2000001888DF80F1044F6040150
:102E6000C4F2000109888DF80F10102100F030F82D
:102E700041F60631C2F2000101200290087041F6CD
:102E80000A71C2F200010091032008703020C4F2E0
:102E900002000190FDF78EFE0099C0F58070487029
:102EA0004878821C43F6F010C2F2000004F05CFB8C
:102EB00001980021FDF766FE01984FF48071FDF73F
:102EC000B7FE01980299FDF75DFEFFE704B080BDF3
:102ED00082B00190ADF80210BDF802008005002814
:102EE00001D5FFE7FFE7BDF80200C0430199088064
:102EF00002B0704783B00290ADF806100020ADF824
:102F00000400ADF80200BDF8060040F66A118842E0
:102F100001D1FFE7FFE79DF80700ADF80400BDF819
:102F2000041001208840ADF80200BDF80200C04343
:102F30000299088003B0704782B001908DF80310A9
:102F40009DF8030030B1FFE70199888940F40050F3
:102F5000888105E00199888920F400508881FFE785
:102F600002B0704782B00190ADF802108DF80120D8
:102F70009DF8010038B1FFE7BDF802200199888A69
:102F80001043888206E0BDF802200199888A9043A8
:102F90008882FFE702B0704782B00190ADF802105E
:102FA00000208DF80100BDF80200B0F5007F01D1CE
:102FB000FFE7FFE701980088BDF802100840000411
:102FC00020B1FFE701208DF8010003E000208DF81B
:102FD0000100FFE79DF8010002B0704786B0059040
:102FE000ADF8121000200390029001908DF80300BC
:102FF000BDF8120040F66A11884201D1FFE7FFE7F1
:103000009DF8120040090190BDF8120000F01F0069
:10301000029002990120884002900198012806D16F
:10302000FFE70598818902980840029010E0019816
:10303000022806D1FFE70598018A0298084002900D
:1030400005E00598818A029808400290FFE7FFE7B3
:103050009DF8130003900399012088400390059880
:103060000188039808400390029838B1FFE703985D
:1030700020B1FFE701208DF8030003E000208DF868
:103080000300FFE79DF8030006B0704786B0059087
:10309000ADF812108DF811200020039002900190DD
:1030A0000090BDF8120040F66A11884201D1FFE796
:1030B000FFE7059800909DF8120040090390BDF8C5
:1030C000120000F01F000290029901208840019038
:1030D0000398012804D1FFE700980C3000900CE021
:1030E0000398022804D1FFE700981030009003E015
:1030F000009814300090FFE7FFE79DF8110030B111
:10310000FFE7019A009908681043086005E0019AFA
:103110000099086890430860FFE706B07047000018
:1031200080B58CB00B900A91002009900890079010
:10313000069005900A98808908B1FFE7FFE70B9891
:1031400005900B98008A099009984CF6FF71084089
:1031500009900A98C18809980843099009980B9921
:1031600008820B988089099009984EF6F31108405F
:1031700009900A9988880A89104349890143099866
:103180000843099009980B9988810B98808A0990C7
:1031900009984FF6FF41084009900A9881890998DB
:1031A0000843099009980B9988826846FEF70EF942
:1031B000059843F60001C4F20101884203D1FFE7FC
:1031C0000398089002E002980890FFE70B98808926
:1031D000000400280AD5FFE70898192148430A99F6
:1031E00009684900B0FBF1F0079009E0089819213F
:1031F00048430A9909688900B0FBF1F00790FFE79E
:10320000079848F21F51C5F2EB11A0FB01016FF0C6
:103210000F0000EA51000990079A099800096421FB
:1032200000FB112006900B9880890004002810D51F
:10323000FFE70699322000EBC10048F21F51C5F2AA
:10324000EB11A0FB0110C0F342110998084309904B
:103250000FE00699322000EB011048F21F51C5F231
:10326000EB11A0FB0110C0F343110998084309902A
:10327000FFE709980B9908810CB080BD81B00090E0
:10328000009880886FF35F2001B0704782B0019092
:10329000ADF80210BDF802006FF35F20019988803D
:1032A00002B07047FFE7FEE780B582B042F20C0043
:1032B000C2F2000001900198A821FDF73CF80199A5
:1032C0000320086101994861019849F2F571C0F63F
:1032D00000018161019A42F2C400C2F20000D06193
:1032E000019A4FF480501062019A00209062019A76
:1032F0005062019AD062019A1166019A42F2B401B9
:10330000C2F200015166019A102191660199086785
:103310000199C866019948670090FFE700980F2857
:103320000ED8FFE7009A49F23A10C0F60000801A62
:10333000C07B01998854FFE7009801300090EDE7C9
:1033400002B080BD84B00390039800690290039896
:10335000C068019002980199884209D8FFE7039854
:1033600081680198C043084402990844009005E030
:1033700002990198C04308440090FFE7009804B008
:103380007047000010B58CB0DDF83CC0DDF838C0E7
:103390000B900A91099208930A98B0F1FF3F04DC60
:1033A000FFE70A984042059002E00A980590FFE77F
:1033B0000598069001200790FFE706980999884232
:1033C00009DBFFE70698099990FBF1F00690079852
:1033D00001300790F1E708980799884203D9FFE781
:1033E00008980790FFE70E9870B1FFE70A98002849
:1033F00006D4FFE79DF83C004007002804D5FFE70E
:103400000E9801380E90FFE79DF83C0080070028D9
:1034100003D5FFE7089858B3FFE79DF83C00C007C5
:1034200030BBFFE70E9810B3FFE7FFE70E990020CF
:10343000049041B1FFE707990E9A0020914238BFEE
:1034400001200490FFE70498C00778B1FFE70E98C9
:1034500001380E900B98202100F050F90B98C068AD
:10346000B0F1FF3F01DCFFE700E0DFE7FFE7FFE748
:103470000B98C068002869D4FFE70A98B0F1FF3FB5
:1034800008DCFFE70A9840420A900B982D2100F0D3
:1034900035F90CE09DF83C004007002805D5FFE712
:1034A0000B982B2100F02AF900E0FFE7FFE70B98CB
:1034B000C068002849D4FFE79DF83C008007002839
:1034C0002ED5FFE79DF83C00C00748BBFFE70898F2
:1034D00030BBFFE70E9810B3FFE7FFE70E9900201F
:1034E000039041B1FFE707990E9A0020914238BF3F
:1034F00001200390FFE70398C00778B1FFE70E981B
:1035000001380E900B98302100F0F8F80B98C06845
:10351000B0F1FF3F01DCFFE700E0DFE7FFE7FFE797
:103520000B98C06800280FD4FFE70B980A99099AF6
:10353000089BDDF838C00F9CEE46CEF80440CEF86C
:1035400000C000F005F8FFE7FFE7FFE70CB010BD93
:1035500080B58CB0DDF83CC0DDF838C00B900A9126
:10356000099208930A980590012006900490FFE7BD
:1035700005980999884209D3FFE705980999B0FB96
:10358000F1F00590049801300490F1E7089804994F
:10359000884203D9FFE708980490FFE79DF83C00B4
:1035A000C007C0BBFFE70E98A0B3FFE79DF83C0043
:1035B0008007002807D5FFE7089820B9FFE73020EB
:1035C0008DF80F0003E020208DF80F00FFE7FFE7E4
:1035D0000E990020029041B1FFE704990E9A002055
:1035E000914238BF01200290FFE70298C00780B1E6
:1035F000FFE70E9801380E900B989DF80F1000F021
:103600007DF80B98C068B0F1FF3F01DCFFE700E0F8
:10361000DEE7FFE7FFE70B98C06800286CD4FFE700
:10362000FFE70898022804D3FFE7089801380890BC
:103630000BE00A980699B0FBF1F0079007980999FA
:10364000884201D2FFE705E0FFE709990698484361
:103650000690E6E7FFE70A980699B0FBF1F00790BD
:10366000079806990A9A00FB11200A900B98079A6E
:1036700049F24B11C0F60001895C00F03FF80B984D
:10368000C068B0F1FF3F01DCFFE709E00999069847
:10369000B0FBF1F00690FFE706980028DBD1FFE7CA
:1036A0009DF83C00C00730B3FFE70E9810B3FFE76A
:1036B000FFE70E990020019041B1FFE704990E9AAF
:1036C0000020914238BF01200190FFE70198C00718
:1036D00078B1FFE70E9801380E900B98202100F08A
:1036E0000DF80B98C068B0F1FF3F01DCFFE700E088
:1036F000DFE7FFE7FFE7FFE70CB080BD80B584B0F0
:1037000003908DF80B1003988068019001980130A8
:103710000399496888420FD8FFE79DF80B00039989
:103720000968019A885401980130039988600399C7
:10373000C8680130C860FFE7039841688068884224
:1037400015D1FFE70398016882680069FEF7B8F8B1
:1037500003998968884205D0FFE703994FF0FF304D
:10376000C86003E0039900208860FFE7FFE704B02A
:1037700080BD000080B58AB00990089107920020B2
:1037800005900998C0680390FFE7099800690490C4
:1037900004980399884206D9FFE704990398C04327
:1037A0000844069008E0099881680398049A801AF2
:1037B000C04308440690FFE7069809998968039A70
:1037C000891A884203D2FFE70698019005E009981C
:1037D00080680399401A0190FFE7019806900698C7
:1037E0000799884203D2FFE70698009002E0079805
:1037F0000090FFE7009806900998406803990844F4
:10380000029002980899069AFCF77CFD06990598A3
:103810000844059006990898084408900699079866
:10382000401A079006990398084403900398099951
:103830008968884203D1FFE700200390FFE70398DF
:103840000999C860FFE7079800289ED1FFE705980F
:103850000AB080BD80B588B00790069105920798A0
:10386000C0680390079880680399401A02900298F4
:103870000599884210D9FFE70798406803990844E2
:10388000019001980699059AFCF73CFD039805996B
:1038900008440799C8601DE00298049007984068A2
:1038A00003990844019001980699049AFCF72AFDAF
:1038B00005980299401A0490079840680190019871
:1038C0000699029A1144049AFCF71CFD0498079982
:1038D000C860FFE708B080BD82B08DF80700009196
:1038E0009DF9070000280AD4FFE7009800019DF920
:1038F00007104EF20042CEF2000288540BE000980E
:1039000000019DF8071001F00F014EF61452CEF29F
:1039100000028854FFE702B07047000082B00090B8
:10392000009818B9FFE70020019033E09DF80000EF
:1039300050B1FFE79DF8001049F25B10C0F600009F
:10394000405C0130019025E09DF8010050B1FFE797
:103950009DF8011049F25B10C0F60000405C093090
:10396000019017E09DF8020050B1FFE79DF80210AA
:1039700049F25B10C0F60000405C1130019009E094
:103980009DF8031049F25B10C0F60000405C19304E
:103990000190FFE7019802B07047000080B592B037
:1039A00010900F910E9200200C90FFE710980C9948
:1039B000415C00202029029010D0FFE710980C995C
:1039C000415C00200929029008D0FFE70C990F9A6A
:1039D0000020914238BF01200290FFE70298C00703
:1039E00020B1FFE70C9801300C90DFE70C9820B96C
:1039F000FFE74FF0FF3011902BE010980C9902F088
:103A0000F9FC0B900B9820B9FFE74FF0FF301190B5
:103A10001FE0002001900A900990089007900690FE
:103A200005900490039010980F9903AA02F060FD8E
:103A30000D900D9820B9FFE74FF0FF30119008E08E
:103A40000B9A0D9803A990470E99086000201190D9
:103A5000FFE7119812B080BD80B588B084460D98FC
:103A60000C98DDF82CE0DDF828E0CDF81CC00691BC
:103A7000059204938DF80F000798143003F042FA72
:103A80000598079908620498079948620A98079967
:103A900088620B980799C8620799886ACA6A2321C5
:103AA00003F0E4FB079B186A596A9A6ADB6A1A44B6
:103AB000043A47F67533C0F6000303F029F9079975
:103AC000C8619DF80F00079981F836009DF80F0036
:103AD000079981F8350007980021029181630D98BC
:103AE000079A50640D98079A9064079801630798A5
:103AF00080F83410079881670798C167079B03F126
:103B00004C006A465160116047F6E952C0F6000267
:103B1000194604F0CFFA029808B080BD80B586B08F
:103B200084460898CDF814C00491039202938DF84E
:103B300007009DF80700059948720599487A00F03A
:103B4000FE00487204980599C861039805990862B7
:103B50000599002088620299059A51620090FFE75A
:103B6000009800280CDCFFE70598009900EBC100E5
:103B7000143003F0CFF9FFE7009801300090EFE731
:103B800006B080BD80B582B0019000200090FFE7B4
:103B9000009800280CDCFFE70198009900EBC100B9
:103BA000143003F0A7FAFFE7009801300090EFE728
:103BB00002B080BD80B582B00190FCF7D5FA0090CC
:103BC0000198806F20B1FFE70198816F8847FFE778
:103BD0000098FCF7CDFA02B080BD000080B582B03D
:103BE00049F65960C0F6000003F056F94EF6295028
:103BF000CEF200000190017849F6EE70C0F60000A8
:103C000003F04AF901980078C00738B1FFE749F698
:103C1000D970C0F6000003F03FF9FFE74EF62950D7
:103C2000CEF2000000788007002807D5FFE749F6AC
:103C3000CE70C0F6000003F02FF9FFE74EF62950D2
:103C4000CEF2000000784007002807D5FFE749F6CC
:103C5000CC70C0F6000003F01FF9FFE74EF62950C4
:103C6000CEF2000000780007002807D5FFE749F6EC
:103C7000C270C0F6000003F00FF9FFE74EF62950BE
:103C8000CEF200000078C006002807D5FFE749F60D
:103C9000C470C0F6000003F0FFF8FFE74EF62950AD
:103CA000CEF200000078000600280CD5FFE74EF6A3
:103CB0003850CEF20000016849F66560C0F6000099
:103CC00003F0EAF806E049F68940C0F6000003F088
:103CD000E3F8FFE702B080BD80B582B001900091AB
:103CE00002F0A4F8002002B080BD000083B0029072
:103CF000019101980A2815D1FFE7029800684CF657
:103D0000CD42CCF6CC42A0FB0231C90801EB8101C7
:103D1000A0EB4100009002990868A0FB0220C008B7
:103D2000086009E00298006800F00F000090029916
:103D3000086800090860FFE7009803B070470000BA
:103D400080B582B000208DF8070040F28C00C2F2EE
:103D50000000007801280DD1FFE743F63C20C2F2B5
:103D600000000068804740F28C01C2F20001002090
:103D7000087003E006208DF80700FFE79DF80700B4
:103D800002B080BD80B586B00590049100208DF80A
:103D9000030004980088052870D1FFE70598407853
:103DA0000002ADF80E0005988178BDF80E000843BA
:103DB000ADF80E000598C0780002ADF80C0005982B
:103DC0000179BDF80C000843ADF80C00BDF80C00FB
:103DD00001284EDBFFE7BDF80C00B0F5FA6F48DABA
:103DE000FFE7059801900499002008800199481C7C
:103DF00001900120087004990888013008809DF81E
:103E00000C00400740B1FFE7BDF80C10012000EBAB
:103E1000D1008DF80B0005E0BDF80C00C0088DF84E
:103E20000B00FFE79DF80B0001994A1C01920870F6
:103E300004990888013008800198BDF80E10BDF87B
:103E40000C20002300F070FE8DF802009DF80200A7
:103E500038B1FFE79DF8020002F076FD8DF803000F
:103E600006E09DF80B200499088810440880FFE7BD
:103E700003E003208DF80300FFE703E003208DF843
:103E80000300FFE79DF8030006B080BD80B586B053
:103E90000590049100208DF80300049800880528FF
:103EA0006FD1FFE7059840780002ADF80E00059845
:103EB0008178BDF80E000843ADF80E000598C07873
:103EC0000002ADF80C0005980179BDF80C0008431C
:103ED000ADF80C00BDF80C0001284DDBFFE7BDF884
:103EE0000C00B0F5FA6F47DAFFE7059801900499E6
:103EF000002008800199481C019002200870049954
:103F00000888013008809DF80C00400740B1FFE7A9
:103F1000BDF80C10012000EBD1008DF80B0005E07E
:103F2000BDF80C00C0088DF80B00FFE79DF80B00F2
:103F300001994A1C01920870049908880130088090
:103F40000198BDF80E10BDF80C2000F0BDFE8DF8F4
:103F500002009DF8020038B1FFE79DF8020002F070
:103F6000F3FC8DF8030006E09DF80B200499088807
:103F700010440880FFE703E003208DF80300FFE70B
:103F800003E003208DF80300FFE79DF8030006B06F
:103F900080BD000080B586B00590049100208DF8AA
:103FA00007000498008805285DD1FFE70598407850
:103FB0000002ADF80E0005988178BDF80E000843A8
:103FC000ADF80E000598C0780002ADF80C00059819
:103FD0000179BDF80C000843ADF80C00BDF80C00E9
:103FE00001283BDBFFE7BDF80C007D2836DCFFE74E
:103FF000059802900498002303800299481C0290BF
:10400000032008700499088801300880BDF80C006E
:10401000400002994A1C02920870049908880130F5
:1040200008800298BDF80E10BDF80C2000F0D2FEFA
:104030008DF806009DF8060038B1FFE79DF80600F0
:1040400002F082FC8DF8070007E0BDF80C2004990F
:10405000088800EB42000880FFE703E003208DF8AA
:104060000700FFE703E003208DF80700FFE79DF856
:10407000070006B080BD000080B586B005900491B1
:1040800000208DF8070004980088052862D1FFE71A
:10409000059840780002ADF80E0005988178BDF8CB
:1040A0000E000843ADF80E00BDF80E000130ADF86B
:1040B0000E000598C0780002ADF80C000598017953
:1040C000BDF80C000843ADF80C00BDF80C00012849
:1040D0003BDBFFE7BDF80C007C2836DCFFE70598EA
:1040E00002900499002008800299481C0290042044
:1040F00008700499088801300880BDF80C00400061
:1041000002994A1C029208700499088801300880BC
:104110000298BDF80E10BDF80C2000F0F3FE8DF8EB
:1041200006009DF8060038B1FFE79DF8060002F092
:104130000BFC8DF8070007E0BDF80C2004990888F7
:1041400000EB42000880FFE703E003208DF8070042
:10415000FFE703E003208DF80700FFE79DF8070065
:1041600006B080BD80B588B00790069100208DF81C
:104170000700069800880A28C0F2AA80FFE707987F
:1041800040780002ADF8160007988178BDF8160057
:104190000843ADF81600BDF816000130ADF8160062
:1041A0000798C0780002ADF8140007980179BDF8AF
:1041B00014000843ADF81400079840790002ADF8E8
:1041C000120007988179BDF812000843ADF812007B
:1041D000BDF812000130ADF812000798C079000256
:1041E000ADF810000798017ABDF810000843ADF84B
:1041F00010000798407A8DF80F00BDF814000128D0
:1042000061DBFFE7BDF814007D285CDCFFE7BDF84B
:104210001000012857DBFFE7BDF81000792852DCB9
:10422000FFE7BDF810109DF80F00B0EB410F4AD129
:10423000FFE707980A30BDF81210BDF810200123DF
:1042400000F0C8FD8DF806009DF8060078BBFFE77A
:10425000079802900698002303800299481C029058
:10426000172008700699088801300880BDF81400EE
:10427000400002994A1C0292087006990888013091
:1042800008800298BDF81610BDF8142000F0A2FDB9
:104290008DF806009DF8060040B9FFE7BDF8142030
:1042A0000699088800EB42000880FFE7FFE79DF8C9
:1042B000060038B1FFE79DF8060002F045FB8DF8D7
:1042C0000700FFE703E003208DF80700FFE7FFE7A3
:1042D0009DF8070008B080BD80B584B003900291BE
:1042E0000398013043F64861C2F2000101910A8847
:1042F00043F60D51C2F20001FCF704F80198008862
:10430000013002990880002004B080BD80B584B0DF
:104310000390029100208DF8030002980088052880
:1043200043D1FFE7039840780002ADF806000398F8
:104330008178BDF806000843ADF8060003980079BF
:1043400070BBFFE70398C078FF2804D0FFE703980D
:10435000C07828BBFFE700208DF805000398C078DF
:10436000FF2804D1FFE701208DF8040003E00020BE
:104370008DF80400FFE7BDF8061001A801231A46D6
:1043800000F0D2FB8DF802009DF8020038B1FFE783
:104390009DF8020002F0D8FA8DF80300FFE703E071
:1043A00003208DF80300FFE703E003208DF80300EE
:1043B000FFE79DF8030004B080BD000080B584B025
:1043C0000390029100208DF80500029800880528CE
:1043D00022D1FFE7039840780002ADF80600039869
:1043E0008178BDF806000843ADF806000398033055
:1043F000BDF8061001231A4600F0ECFC8DF804000D
:104400009DF8040038B1FFE79DF8040002F09CFA23
:104410008DF80500FFE703E003208DF80500FFE7B6
:104420009DF8050004B080BD80B584B00390029172
:1044300000208DF8010002980088062861DBFFE764
:10444000039840780002ADF8060003988178BDF823
:1044500006000843ADF806000398C0780002ADF8E6
:10446000040003980179BDF804000843ADF8040086
:10447000039840798DF80300BDF80400400740B16F
:10448000FFE7BDF80410012000EBD1008DF8020019
:1044900005E0BDF80400C0088DF80200FFE7BDF894
:1044A0000400012828DBFFE7BDF80400B0F5F66F33
:1044B00022DCFFE79DF802009DF8031088421BD123
:1044C000FFE703980630BDF80610BDF8042001236D
:1044D00000F02AFB8DF800009DF8000038B1FFE7DE
:1044E0009DF8000002F030FA8DF8010003E0029917
:1044F00005200880FFE703E003208DF80100FFE7B7
:1045000003E003208DF80100FFE79DF8010004B0EF
:1045100080BD000080B584B00390029100208DF82A
:1045200002000298008806284FDBFFE703984078D6
:104530000002ADF8060003988178BDF80600084334
:10454000ADF806000398C0780002ADF804000398A7
:104550000179BDF804000843ADF8040003984079E0
:104560008DF80300BDF80400012829DBFFE7BDF842
:104570000400782824DCFFE79DF80300BDF8041050
:104580004900C9B288421BD1FFE703980630BDF845
:104590000610BDF80420012300F01CFC8DF801007A
:1045A0009DF8010038B1FFE79DF8010002F0CCF959
:1045B0008DF8020003E0029905200880FFE703E080
:1045C00003208DF80200FFE703E003208DF80200CE
:1045D000FFE79DF8020004B080BD000080B584B004
:1045E0008DF80F008DF80E1002928DF80730002024
:1045F0008DF806009DF80E0050B1FFE79DF80E0003
:10460000012805DBFFE79DF80E00F82804DBFFE733
:1046100002208DF8060074E09DF80E0043F60C5160
:10462000C2F2000108709DF80F00002849D1FFE791
:1046300043F63C21C2F2000144F61130C0F60000FE
:10464000086043F64021C2F2000144F62530C0F66E
:104650000000086043F63021C2F2000144F6312028
:10466000C0F60000086043F62C21C2F2000144F6B7
:10467000AD10C0F60000086043F63821C2F2000118
:104680000020086043F64421C2F2000148F6D160E0
:10469000C0F60000086043F64821C2F2000148F667
:1046A0005D70C0F60000086043F60C50C2F20000D6
:1046B000007802999DF8072000F042F98DF8060075
:1046C00003E002208DF80600FFE79DF80600B8B968
:1046D000FFE704F03BFB20B9FFE703208DF806005D
:1046E0000DE09DF80F0043F24411C2F20001087082
:1046F00040F28C01C2F2000101200870FFE7FFE7E1
:10470000FFE79DF8060004B080BD000080B584B0CE
:1047100000208DF8070040F28C00C2F20000007803
:1047200020B1FFE706208DF80F0004E10DF106002F
:1047300004F0EAFA012840F0FA80FFE79DF806004D
:1047400001460091032800F2F1800099DFE801F0B2
:1047500002033AEDEAE043F62C20C2F20000D0F862
:1047600000C043F24610C2F2000043F24C11C2F204
:10477000000143F24812C2F2000243F24E13C2F2A9
:104780000003E0478DF807009DF80700C8B9FFE770
:1047900043F24C10C2F20000007843F60C51C2F212
:1047A00000010978884207D0FFE743F24C10C2F2BB
:1047B0000000007820B9FFE7022004F0CFFAFFE7FD
:1047C000FFE7B3E043F24810C2F20000006800784F
:1047D00043F24711C2F20001087043F24511C2F2E0
:1047E00000010120087000200290FFE702980F28C6
:1047F00037DCFFE7029940F20010C2F2000010F827
:10480000310008B9FFE72CE0029940F20010C2F233
:10481000000010F8310043F24711C2F2000109789C
:10482000884218D1FFE7029940F20010C2F200005E
:1048300000EBC100426843F24810C2F20000006879
:1048400043F24E11C2F20001904743F24511C2F209
:104850000001087005E0FFE7FFE7029801300290D1
:10486000C4E743F24C10C2F20000007800285BD08D
:10487000FFE743F24510C2F20000007838B3FFE7CB
:1048800043F24E1CC2F2000C0020ACF8000043F2D0
:104890004710C2F20000007840F0800043F2481157
:1048A000C2F200010A68BCF8003003F1010EACF856
:1048B00000E0D05443F24510C2F2000000780968CD
:1048C000BCF80020531CACF800308854FFE743F2DA
:1048D0004410C2F200000078012807D1FFE7012050
:1048E00020B9FFE7002003F0D3F9FFE743F63020BB
:1048F000C2F20000D0F800C043F24610C2F200003D
:10490000007843F60C51C2F20001097843F24812D4
:10491000C2F20002126843F24E13C2F200031B8877
:10492000E0478DF80700FFE700E0FFE7FFE7002022
:104930008DF80F00FFE79DF80F0004B080BD000068
:1049400080B584B08DF80F0002918DF8072000200B
:104950008DF80600029804F013FA012804D0FFE74E
:1049600003208DF806001DE00298B0F5964F03D99C
:10497000FFE72320009009E00298410047F6A0706D
:10498000C0F21700B0FBF1F00090FFE7BDF80000A7
:1049900004F066FA012804D0FFE703208DF8060032
:1049A000FFE7FFE79DF8060004B080BD80B586B044
:1049B000059004910392029300208DF8070043F6BE
:1049C0002D50C2F2000000780599087043F64A6045
:1049D000C2F200000088042821DBFFE743F64A60AA
:1049E000C2F20000018843F62D50C2F200000230EE
:1049F00004F0A4F898B9FFE743F62D50C2F2000086
:104A00008178049A117043F64A61C2F20001098864
:104A10000339029A118003990330086003E00520EE
:104A20008DF80700FFE79DF8070006B080BD000085
:104A300080B588B08DF81F008DF81E100692ADF875
:104A4000163000208DF8150043F25110C2F200001C
:104A50000078012853D1FFE70698411E43F6342021
:104A6000C2F20000016043F6E471C2F2000103915A
:104A7000012202920A809DF81E2003681A70BDF878
:104A800016300A881A440A800068098804F056F82B
:104A9000029902460398ADF81220BDF8122003884F
:104AA00003F1010CA0F800C043F62D5CC2F2000C2B
:104AB00063449A709DF81320038803F1010EA0F857
:104AC00000E063449A7043F25212C2F20002117085
:104AD000008898B1FFE79DF81F0043F63421C2F229
:104AE0000001096843F6E472C2F2000201921288E2
:104AF00004F056F9019900200880FFE703E0052043
:104B00008DF81500FFE79DF8150008B080BD000086
:104B100080B543F25111C2F200010020087004F088
:104B2000D5F880BD7047000080B588B00790ADF81B
:104B30001A10ADF818208DF8173000208DF81600E7
:104B4000BDF81820012101EBD201ADF8101043F699
:104B50002D61C2F200010391ADF80A006420ADF8A6
:104B6000080043F64C60C2F200000088ADF8060071
:104B7000BDF81A00BDF80A108842C0F29D80FFE718
:104B8000BDF81A00BDF818100844BDF80A10BDF8A9
:104B900008201144884200F38F80FFE7BDF81A0017
:104BA000BDF80610401A80B2C008ADF81400BDF878
:104BB0001A00BDF80610401A00F00700ADF8120008
:104BC0009DF817000146009120B1FFE700980128E9
:104BD00036D070E0FFE7BDF81000012816DBFFE7D4
:104BE0000398BDF814104A1CADF814200844BDF811
:104BF0001210082204F0E2F907994A1C0792087083
:104C0000BDF810000138ADF81000E4E7079801384E
:104C10000790BDF8180000F00700ADF818000799DC
:104C20000878BDF81820C2F1080290400870079972
:104C30000878BDF81820C2F10802D04008703AE0A8
:104C4000FFE7BDF81000022816DBFFE70398BDF868
:104C500014104A1CADF814200844BDF81210079A2D
:104C6000531C07931378082204F0E6F9BDF81000EE
:104C70000138ADF81000E4E7BDF8180000F00700B7
:104C8000ADF81800BDF81800A0B1FFE70398BDF813
:104C900014104A1CADF814200844BDF812109DF8F9
:104CA0001820079B03F1010CCDF81CC01B7804F001
:104CB000C3F9FFE7FFE703E001208DF81600FFE7E7
:104CC0009DF8160008B080BD80B588B00790ADF89B
:104CD0001A10ADF8182000208DF81700BDF8182024
:104CE000012101EBD201ADF8101043F63A61C2F296
:104CF00000010391ADF80A006420ADF8080043F606
:104D00004E60C2F200000088ADF80600BDF81A003F
:104D1000BDF80A10884255DBFFE7BDF81A00BDF860
:104D200018100844BDF80A10BDF808201144884244
:104D300048DCFFE7BDF81A00BDF80610401A80B243
:104D4000C008ADF81400BDF81A00BDF80610401AEE
:104D500000F00700ADF81200FFE7BDF810000128D1
:104D600016DBFFE70398BDF814104A1CADF81420B9
:104D70000844BDF81210082204F020F907994A1CD3
:104D800007920870BDF810000138ADF81000E4E794
:104D9000079801380790BDF8180000F00700ADF83B
:104DA000180007990878BDF81820C2F10802904051
:104DB000087007990878BDF81820C2F10802D040A1
:104DC000087003E001208DF81700FFE79DF8170039
:104DD00008B080BD87B00690ADF81610ADF814206D
:104DE0008DF8133000208DF8120043F65061C2F2A6
:104DF00000010391ADF80A006420ADF8080043F605
:104E00001870C2F200000088ADF80600BDF8160068
:104E1000BDF80A1088426CDBFFE7BDF81600BDF84C
:104E200014100844BDF80A10BDF808201144884247
:104E30005FDCFFE7BDF81600BDF80610401AADF8BC
:104E400010009DF813000146009120B1FFE7009883
:104E5000012825D04CE0FFE7BDF8140001281EDB37
:104E6000FFE70398BDF8101000EB41004078069969
:104E70004A1C069208700398BDF8101030F8110013
:104E800006994A1C06920870BDF810000130ADF872
:104E90001000BDF814000138ADF81400DCE727E07D
:104EA000FFE7BDF81400012821DBFFE70698411C4D
:104EB0000691007800020399BDF8102021F8120035
:104EC0000698411C069103780399BDF8102031F82B
:104ED0001200184321F81200BDF810000130ADF89F
:104EE0001000BDF814000138ADF81400D9E7FFE751
:104EF00003E001208DF81200FFE79DF8120007B0D3
:104F00007047000086B00590ADF81210ADF8102083
:104F100000208DF80F0043F61A71C2F200010291D1
:104F2000ADF806006420ADF8040043F6E270C2F26A
:104F300000000088ADF80200BDF81200BDF80610B0
:104F4000884239DBFFE7BDF81200BDF810100844B5
:104F5000BDF80610BDF80420114488422CDCFFE7A0
:104F6000BDF81200BDF80210401AADF80C00FFE7C2
:104F7000BDF8100001281EDBFFE70298BDF80C10F9
:104F800000EB4100407805994A1C05920870029890
:104F9000BDF80C1030F8110005994A1C05920870F4
:104FA000BDF80C000130ADF80C00BDF81000013860
:104FB000ADF81000DCE703E001208DF80F00FFE7FB
:104FC0009DF80F0006B0704780B584B043F60850D6
:104FD000C2F20000006890F821004008C00740B904
:104FE000FFE743F25310C2F200000021017003906A
:104FF0003FE043F25420C2F20000006888B1FFE7AE
:1050000043F25420C2F20000016843F25310C2F28E
:10501000000002904FF48072FBF7B6F902980390FB
:1050200027E001F063FA58B1FFE743F25310C2F2F0
:10503000000049F6D451C0F60001FBF7B8F90AE0C8
:1050400043F25310C2F2000049F6D951C0F60001F4
:10505000FBF7ADF9FFE743F25310C2F200000190F5
:1050600049F67311C0F60001FBF770F9019803903F
:10507000FFE7039804B080BD80B501F04DFD80BD11
:1050800081B000909DF8002043F60850C2F2000065
:10509000016891F8210002F0010200F0FD0040EAF1
:1050A000420081F8210001B07047000082B00190F9
:1050B0000091019843F23C11C2F20001086000988F
:1050C00043F24011C2F20001086002B070470000D4
:1050D00080B588B00020049007904AF2D000C0F656
:1050E00000004AF2C011C0F60001FFF7DFFF049B89
:1050F00043F60851C2F20001059143F2C400C2F226
:105100000000086043F25820C2F2000006906A4690
:105110000A21D160152191604FF48061516043F202
:10512000D821C2F20001116049F6E351C0F6000136
:1051300045F27512C0F6000202F07EFD049B0146A6
:1051400005980791006849F6EF51C0F600011A462C
:1051500002F01EFC0120FFF793FF069838B1FFE72D
:10516000079820B9FFE7069802F0F4FDFFE700205A
:1051700008B080BD80B58AB0099043F60850C2F2ED
:105180000000016891F8210040F0010081F8210041
:10519000FFF71AFF01F080FEFFE7FFF76DFF0890B1
:1051A0000898B0F1FF3F01DCFFE7F6E708981B28FD
:1051B00009D1FFE743F60850C2F200000168012060
:1051C00081F82000E9E743F60850C2F200000068C9
:1051D00090F82000012816D1FFE708985B2809D134
:1051E000FFE743F60850C2F200000168022081F890
:1051F0002000D2E743F60850C2F200000168002008
:1052000081F8200069E043F60850C2F2000000680F
:1052100090F8200002285FD1FFE743F60850C2F261
:1052200000000168002081F820000898412801D181
:10523000FFE7B2E70898422801D1FFE7ADE70898F9
:1052400044281BD1FFE743F60850C2F20000006873
:10525000B0F8740088B1FFE749F6D250C0F60000FC
:1052600001F01AFE43F60850C2F200000168B1F8DE
:1052700074000138A1F87400FFE78EE7089843280E
:1052800026D1FFE743F60850C2F200000168B1F8EA
:105290007400B1F87210884219DAFFE743F608503B
:1052A000C2F2000004900068B0F87410084490F84E
:1052B000221049F6E050C0F6000001F0EDFD049820
:1052C0000168B1F874000130A1F87400FFE764E7E9
:1052D000FFE7FFE7FFE7FFE7FFE7FFE7089820B1F9
:1052E000FFE70898FF2801D1FFE756E7089809284B
:1052F0002FD1FFE700200790FFE7079843F60851FA
:10530000C2F200010968B1F8741088420BDAFFE7B5
:1053100049F6D250C0F6000001F0BEFDFFE7079845
:1053200001300790E9E743F60850C2F2000003900D
:105330000068223003F0A6FA039800682230FBF7D9
:105340002FF803990A68A2F872000968A1F874009E
:1053500023E708987F2804D0FFE70898082877D12A
:10536000FFE743F60850C2F200000068B0F874008E
:1053700008B9FFE711E743F60850C2F200000268DF
:10538000B2F872100139A2F872100268B2F8741003
:105390000139A2F874100168B1F87200B1F8741004
:1053A000884242DDFFE743F60850C2F20000029057
:1053B0000268B2F87430D11801F122002331B2F83A
:1053C0007220D21A01F010FF02980168B1F8722021
:1053D0000A44002182F822100068B0F874100844D2
:1053E00000F1220149F6CD50C0F6000001F054FD55
:1053F00002980068B0F874000690FFE7069843F63C
:105400000851C2F200010968B1F8721088420BDC41
:10541000FFE749F6D250C0F6000001F03DFDFFE77E
:10542000069801300690E9E711E049F6C950C0F648
:10543000000001F031FD43F60850C2F200000068A0
:10544000B0F872100144002081F82200FFE7A4E6C2
:10545000FFE7FFE708980D2804D0FFE708980A281F
:105460003AD1FFE701F042F801281DD1FFE743F6EA
:105470000850C2F20000006890F82100C00738B15F
:10548000FFE749F68940C0F6000001F005FDFFE79F
:1054900043F60850C2F20000016801F12200B1F8A1
:1054A000721000F045FF00E0FFE7FFF78DFD01F00F
:1054B000F3FC43F60850C2F200000190006822306D
:1054C0005021FAF738FF01990A680020A2F872000B
:1054D0000968A1F8740060E643F60850C2F20000C3
:1054E0000068B0F87200502809DBFFE743F6085067
:1054F000C2F2000001680020A1F87200FFE743F645
:105500000850C2F200000168B1F87400B1F87210DE
:10551000884250DAFFE743F60850C2F200000090DC
:105520000268B2F87430D11801F123002231B2F8C8
:105530007220D21A01F058FE009808990268B2F859
:1055400074301A4482F82210006890F82100C007D5
:1055500088B1FFE743F60850C2F200000068B0F8D7
:105560007410084400F1220149F6EC50C0F6000026
:1055700001F092FCFFE743F60850C2F20000006819
:10558000B0F874000590FFE7059843F60851C2F2A1
:1055900000010968B1F8721088420BDAFFE749F69A
:1055A000D250C0F6000001F077FCFFE7059801300B
:1055B0000590E9E719E0089943F60850C2F20000A7
:1055C0000268B2F872301A4482F82210006890F82B
:1055D0002100C00740B1FFE7089949F6E050C0F646
:1055E000000001F059FCFFE7FFE70020089043F6B8
:1055F0000850C2F200000268B2F872100131A2F83D
:1056000072100268B2F874100131A2F874100068C8
:10561000B0F8720050280CDBFFE743F60851C2F2E5
:1056200000010A680020A2F872000968A1F874005D
:10563000FFE7B2E580B54EF62C50CEF200000068D0
:105640008007002807D5FFE749F68560C0F600000F
:1056500001F022FCFFE74EF62C50CEF2000000686D
:10566000400000281FD5FFE74EF62950CEF200007B
:10567000007818B1FFE7FEF7B1FAFFE74EF62850C1
:10568000CEF20000007818B1FFE700F077FDFFE7E9
:105690004EF62A50CEF20000008818B1FFE703F062
:1056A00083FAFFE7FFE74EF62C50CEF200000068C9
:1056B000C00F38B1FFE749F69A60C0F6000001F06C
:1056C000EBFBFFE780BD000080B549F6C410C0F6D3
:1056D000000001F0E1FB002080BD000080B582B039
:1056E00049F6CD20C0F6000001F0D6FB43F23C1095
:1056F000C2F2000000680190FFE7019843F24011F8
:10570000C2F20001096888421AD2FFE701980068D6
:1057100049F61851C0F600010222FAF751FE08B905
:10572000FFE709E001980168426849F66940C0F660
:10573000000001F0B1FBFFE701980C300190DCE7BD
:10574000002002B080BD000080B59AB000200B9010
:1057500049F64D50C0F60000099014A804210CAA87
:105760000823059300F080F805980A900A99099A91
:1057700049F65530C0F6000001F08EFB0A9800F0A3
:105780009FFF49F69E20C0F6000001F085FBFFE771
:105790000B9814A900F08AF80B9000200890FFE7FE
:1057A00008981899884256DAFFE708990CA850F82B
:1057B00021000C380790FAF7D7FC19900798007A67
:1057C00000F07F009DF85810884204D0FFE7199838
:1057D000FAF7CEFC3BE01998FAF7CAFC0798069056
:1057E0000698143001F016FC18BBFFE70A980290E7
:1057F00006980390C1690491143001F033FC0299BA
:10580000039B844604986A46C2F804C0106049F6B7
:105810000350C0F60000082201F03EFB0698143049
:1058200003F050F849F68940C0F6000001F034FB5F
:105830000CE00A99069BD8696A46106049F6BB20BD
:10584000C0F60000082201F027FBFFE7FFE70898F9
:1058500001300890A4E7FFE70B98002898D1FFE7F4
:1058600000201AB080BD000080B586B005908DF88C
:105870001310039202939DF8130001F067FF01904B
:105880000198043000900098059908609DF8130075
:105890000599087203980599486002980599C860AF
:1058A00005990020086106B080BD000080B58AB06F
:1058B0000890079100200690079908610798C06832
:1058C00020B1FFE70798007A18B9FFE70020099098
:1058D00050E0079800680390089828B9FFE70398FC
:1058E00004900120069002E008980490FFE7FAF780
:1058F0003BFC0590069898B9FFE704980C38009097
:105900000098007A00F07F000799097A884206D053
:10591000FFE70598FAF72CFC002009902AE0FFE742
:1059200000200190079840680290FFE70498006803
:10593000049004980399884203D1FFE70020049063
:105940000FE0019801300190049802990A1D02921B
:10595000086001980799C968884201D1FFE700E013
:10596000E4E70598FAF704FC0198079908610498A0
:105970000990FFE709980AB080BD000080B5A0B08B
:105980000020119049F65950C0F600000F901AA857
:10599000052112AA08230B93FFF766FF0B981090BE
:1059A00010990F9A49F6B530C0F6000001F074FA6C
:1059B000109800F085FE49F66320C0F6000001F063
:1059C0006BFAFFE711981AA9FFF770FF11900020FA
:1059D0000E90FFE70E981E9988426EDAFFE70E9947
:1059E00012A850F821000C380D90FAF7BDFB1F905B
:1059F0000D98007A00F07F009DF87010884204D066
:105A0000FFE71F98FAF7B4FB53E01F98FAF7B0FBD3
:105A10000D980C900C98143001F0FCFA48BBFFE78D
:105A2000109808900C980990418C0A91018C07916C
:105A3000143001F017FBDDF81CC00899099B86465D
:105A40000A986A46C2F808E0C2F804C0106049F635
:105A5000ED40C0F60000082201F01EFA0C98143048
:105A600002F030FF49F68940C0F6000001F014FA58
:105A70001EE0109804900C980590418C0691018CC2
:105A80000391143001F0EEFADDF80CC00499059B87
:105A9000864606986A46C2F808E0C2F804C010605C
:105AA00049F60030C0F60000082201F0F5F9FFE7E2
:105AB000FFE70E9801300E908CE7FFE71198002861
:105AC0007FF480AFFFE7002020B080BD80B59EB09E
:105AD00000200F9049F63550C0F600000D9018A830
