:020000040800F2
:10000000B051002045010008312400080D0200080D
:10001000491F000839180008B13700080000000027
:10002000000000000000000000000000BD2E0008DD
:10003000791B00080000000097010008413000080B
:100040005F0100085F0100085F0100085F01000810
:100050005F0100085F0100085F0100085F01000800
:100060005F0100085F0100085F0100085F010008F0
:100070005F0100085F0100085F0100085F010008E0
:100080005F0100083D1800085F0100085F010008DB
:100090005F0100085F0100085F0100085F010008C0
:1000A0005F010008B93000085F0100085F01000827
:1000B000E1300008053100082D3100085F0100081B
:1000C0005F0100085F0100085F0100085F01000890
:1000D0005F0100086D3300088D330008B13300085C
:1000E0005F0100085F0100085F0100085F01000870
:1000F0005F0100085F0100085F0100085F01000860
:100100005F0100085F0100085F0100085F0100084F
:10011000C9310008F13100085F0100085F010008E3
:100120005F0100085F0100085F0100085F0100082F
:10013000DFF80CD000F048FF00480047DD10000851
:10014000B05100200648804706480047FEE7FEE71A
:10015000FEE7FEE7FEE7FEE7FEE7FEE7FEE7FEE777
:100160005130000831010008EFF3108072B670477B
:1001700080F310887047324A1368012B04D04FF087
:10018000010313602F4A10602F4A11602F484FF06F
:10019000805101607047EFF3108272B62848016801
:1001A00091B14FF0000101602648016829B1EFF3D9
:1001B000098121E9F00F0068016023490968096895
:1001C000B1E8F00F81F3098882F310884EF0040E35
:1001D00070471D4908601B494FF00000086018492E
:1001E0004FF0010008601A481A49D0F8002041EA8F
:1001F0000201016015484FF0805101601648006807
:10020000006880F3088861B662B670471EF0040F7C
:100210000CBFEFF30880EFF3098020E9F00F40F8FE
:1002200004ED1EF0040F0CBF80F3088880F30988EA
:1002300000B505F05DF95DF804EB4EF0040E704773
:10024000642D0020C82A0020D02A002004ED00E000
:1002500020ED00E00000FFFF08ED00E0A0F141010B
:10026000192900D82030704738B5D0E90221491E3D
:1002700001EB410102EBC1014268C1EB011102EB4C
:1002800081010268C1EB011102EB8102D0E9043166
:1002900001EB410103EB81013023A1F5527191FB88
:1002A000F3F4174D6C4302EBC41291FBF3F403FB20
:1002B000141100921A2902DB124B1A4400920C22EC
:1002C00091FBF2F3104C6343009C04EBC3130093C7
:1002D00091FBF2F302FB13110C4A08E0491E40F2B5
:1002E000A324535C6343009C04EBC31300930029D5
:1002F000F4DC0146684600F0B1F9009838BD000012
:100300003F0C0F008051010067C20300D28000083B
:1003100010B5431A934209D28318881803E010F8E5
:10032000011D03F8011D521EF9D210BD40EA010360
:100330009B0703D009E008C9121F08C0042AFAD29B
:1003400003E011F8013B00F8013B521EF9D210BD49
:10035000D2B201E000F8012B491EFBD27047002207
:10036000F6E710B513460A4604461946FFF7F0FFB4
:10037000204610BD30B505462A460B4612F8010B43
:1003800013F8014B08B1A042F8D01CB1002802D0EC
:100390006D1CF1E7284630BD10B5044604E00B782B
:1003A00000F8013B03B1491C521EF8D2204610BD93
:1003B000CAB2401E10F8011F8A4202D00029F9D1AA
:1003C00000207047421C10F8011B0029FBD1801A45
:1003D000704710B5002200E0521C835C8C5CA34285
:1003E00001D1002BF8D1D8B2E1B2401A10BD30B51E
:1003F00005460020034600E05B1C934205D2EC5CFE
:10040000C85C201A01D1002CF6D130BD80EA01026F
:1004100010B502F00043400022D04A001FD0010E68
:1004200001EB1261C0F35600C2F3560240F4000023
:1004300042F40002A0FB022000047F39140400D023
:10044000401C50EA124001D44000491EC2B20C06C2
:1004500004EBD010401C4008802A02D003E00020AA
:1004600010BD20F00100002900DA0020184310BD63
:10047000002801DBC0F10040002901DBC1F100418F
:10048000814201D3012070470020704730B5041E1F
:1004900071F1000404DB4FF00044404264EB0101C1
:1004A000141E73F1000405DB1C464FF0004352425A
:1004B00063EB0403101A8B4101D2012030BD0020F0
:1004C00030BD30B5041E71F1000404DB4FF0004470
:1004D000404264EB0101141E73F1000405DB1C466D
:1004E0004FF00043524263EB0403801A994101D25A
:1004F000012030BD002030BD00F0004220F000405F
:10050000C10DC0F3160040F400007F2901DA00207D
:100510007047962903DCC1F19601C84001E0963985
:100520008840002AF4D04042704770B5C1F30A52A7
:1005300001F000450024C1F3130140F2FF3341F400
:1005400080119A4201DA002070BD40F233439A4292
:10055000A2F2334203DC524200F069F800E090401E
:100560002C43F1D0404270BD01F0004330B421F083
:10057000004150EA010206D00A0DA2F56072C1F3F3
:100580001301002A02DC30BC00207047440F44EA0B
:10059000C104C100E01830BC00EBC25000F0C8BA82
:1005A00030B50B46014600202022012409E021FA43
:1005B00002F59D4205D303FA02F5491B04FA02F540
:1005C0002844151EA2F10102F1DC30BD2DE9F05FD7
:1005D0000546002092469B468846064681464024B2
:1005E0001BE0284641464746224600F020F8534685
:1005F0005A46C01A914110D311461846224600F0BF
:10060000FBFC2D1A67EB01084F4622460120002112
:1006100000F0F2FC17EB00094E41201EA4F101048A
:10062000DFDC484631462A464346BDE8F09F202A93
:1006300004DB203A21FA02F00021704721FA02F38C
:10064000D040C2F120029140084319467047000093
:10065000014900F003B800001004002010B5006844
:100660003C22B0FBF2F302FB1303B0FBF2F00B6091
:10067000B0FBF2F302FB1303B0FBF2F018224B6065
:10068000B0FBF2F302FB1303B0FBF2F0021D8B6030
:100690000723B2FBF3F403FB1422800040F2B553AE
:1006A00000F66C308A61B0FBF3F2B0FBF3F403FBAD
:1006B0001400443280084A61C8613B2802D3920783
:1006C00000D0401C0022074C13460A61E25C8242C3
:1006D00003D8801A5B1C0B61F8E7401CC860084611
:1006E00010BD0000DE8000082DE9FF4F087883B0C0
:1006F0009946FF2805D0491C2D2804D0002400204D
:1007000008E000200BE00124F9E700EB800003EB98
:100710004000491C0B78FF2BF7D104B14042002365
:100720000293147819461D462D2C01D02B2C04D190
:10073000521C2D2C13D000240294AA461478FF2CAE
:100740000FD00A25A3FB057801FB05814FF0000CB3
:1007500003FB0C11521CE3194AEB0101EEE70124E3
:10076000EAE7814453EA010002D019F5C87F06DAAE
:1007700003980021C0E9001107B0BDE8F08F002503
:10078000AE4E2F46DFF8B882184600F05BFCCDE98C
:100790000001B9F1000002DAC9F1000400E00446EA
:1007A0000023A74A1AEB030B42EB045A12E0E007BE
:1007B00007D02A4633463846414600F0F4FA074649
:1007C00088462A4633461046194600F0ECFA05469C
:1007D0000E466410002CEAD1DDE90001B9F1000FEA
:1007E0005A46534606DA00F050FB3A46434600F0BC
:1007F0004CFB05E000F0D7FA3A46434600F0D3FA46
:10080000029A0AB181F00041039AC2E90001B3E7FC
:100810002DE9FF4F1F468DB0D7E901464FF0FF3855
:100820002E2045464FF000090B90B9696D1C0E98BB
:100830008847396A824688470028F6D1BAF1FF3FD7
:100840000AD024F4D064002E11DDBAF12B0F08D0A9
:10085000BAF12D0F0BD102E0404611B08DE744F400
:100860008064B9696D1C0E9888478246761E694679
:10087000600501D52D2000E02B208DF8000001F14E
:10088000010B0DF1200809E0B9696D1C0E9888472D
:1008900082460F9844F40074761E0560002E02DD37
:1008A000BAF1300FF0D00B998A453ED144F0800464
:1008B00006E00F99681CA9F1010944F4007408606E
:1008C000B9696D1C761E0E98884782463028F0D094
:1008D0002BE00B998A4505D1200603D444F080040F
:1008E000761E18E0504606F0D7FF08B30DF113024C
:1008F000761EAAF1300044F40074934506D20BF83A
:10090000010B200607D5A9F1010003E0200602D45F
:1009100009F101008146A00502D50F99681C086005
:10092000B9696D1C0E9888478246002ED1DC53E0D1
:10093000002E51DDBAF1650F02D0BAF1450F4BD14F
:10094000A00549D5B9696D1C24F44074761E0E9833
:1009500088478246002E0CDD2B2804D0BAF12D0FDB
:1009600007D144F48074B9696D1C0E98884782469B
:10097000761EE00501D52D2100E02B2108F8011B92
:10098000CDF82C8021E00DF12901761E44F400748D
:1009900088450CD2AAF1300010F0FF0088F8000062
:1009A00002D10B99884509D908F1010806E0E00554
:1009B00001D5244801E042F20F708146B9696D1CEF
:1009C0000E98884782460F980560002E04DD504639
:1009D00006F062FF0028D6D1F9690E988847FF20FB
:1009E0008BF8000088F800000020069007904B4626
:1009F0006A4608A906A8FFF777FEA00502D46FF0A3
:100A000001002AE714F0240F0AD0E00714D1DDE931
:100A100006123868031D3B600068C0E900120BE055
:100A2000DDE90601FFF7A0FD0146E00704D13868C3
:100A3000021D3A600068016028460EE7000014407D
:100A40000000F03FF1D8FFFF426842B1016811F8A1
:100A5000013B23B1521EC0E9001218467047012124
:100A6000C160881E704742685AB1C368016843B9C3
:100A700083688B4205D0491E521CC0E90012002039
:100A800070474FF0FF3070470FB40B0010B58AB0BD
:100A90000FA900910E994FF00004234ACC60214C1D
:100AA000CDE9064200D004236FF00042CDE90132C7
:100AB0001E4A089202466B460020FFF7A9FE0AB0C4
:100AC00010BC5DF814FBF0B585B007464FF0FF3061
:100AD0000091CDE901011E46002015460C46049008
:100AE0003B466A46314604A8FFF7CEFF0499034609
:100AF000601825B109B1024600E022462A600029AB
:100B00000ED0002B02DD0099814209D00094001B19
:100B1000CDE901043B466A46314604A8FFF7B4FF1D
:100B200005B0F0BD490A0008670A00083B1000083C
:100B30000029A8BF7047401C490008BF20F00100F1
:100B4000704710B4B0FA80FC00FA0CF050EA0104CF
:100B500004BF10BC704749B1CCF1200421FA04F461
:100B600011FA0CF118BF012121430843A3EB0C013A
:100B7000CB1D4FEA00614FEA102042BF002010BC9D
:100B8000704700EBC35010440029A4BF10BC70474D
:100B9000401C490008BF20F0010010BC704710B590
:100BA000141E73F1000408DA401C41F10001921890
:100BB0005B411A4301D120F0010010BD2DE9F04D39
:100BC00092469B4611B1B1FA81F202E0B0FA80F28E
:100BD0002032904600F010FA04460F4640EA0A0020
:100BE00041EA0B0153465A46084313D0114653EAD3
:100BF000010019D0C8F140025046FFF718FD054624
:100C00000E4650465946424600F0F6F9084305D0D4
:100C1000012004E020463946BDE8F08D0020054360
:100C200046EAE0762C4337430A986305E40AA0EBD2
:100C300008000022FD0A44EA47540A3002D5002089
:100C40000146E9E7010510196941DDE90845001988
:100C50006941BDE8F04DA2E72DE9FE4F804681EAEB
:100C60000300C00F0C46009021F0004123F0004526
:100C7000B8EB0200A94105D24046214690461C46E9
:100C80000B46024623F00040104347D0270DC7F320
:100C90000A00C3F30A510290401A019040286BDA0F
:100CA000C3F3130040F4801B0098924620B1002348
:100CB000D2EB030A63EB0B0B01985946C0F14002DB
:100CC000504600F099F906460D4650465946019A9D
:100CD00000F0A1F910EB08006141002487EA1152ED
:100CE00084EAE7731A4340D0009A62B3019A012A5A
:100CF0004FEA075215DC001B61EB02014FF0004286
:100D000002EA0752CDE90042001C41F5801132464B
:100D10002B46FFF753FF03B0BDE8F08F4046214656
:100D2000F9E7001B61EB0201001C41F5801300187C
:100D30005B412018A2F5001747EB030140EAD5708C
:100D4000B6196D4111E06D084FEA360645EAC075E7
:100D50004FEA0752001B61EB0201001C41F58011B4
:100D600049084FEA30000019514132462B4603B082
:100D7000BDE8F04FFFF713BF0098012240000023A9
:100D8000D0EB020263EBE073009821464FEAE07477
:100D9000B8EB000061EB0401E9E783F000435BE797
:100DA00081F0004158E72DE9FE4F81EA030404F089
:100DB000004421F0004100944FF0000B23F0004369
:100DC00050EA01045ED052EA03045BD0C3F30A5434
:100DD000C1F30A552C44A4F2F3340194A0FB02544D
:100DE000C1F3130141F48011C3F3130343F48013DF
:100DF00001FB024400FB034E840A970A44EA815433
:100E000047EA8357A4FB076802958D0A05FB07850F
:100E10004FEA932C04FB0C542705029D4FEA065819
:100E200047EA1637B5EB08056EEB070C870E920EF6
:100E300047EA811742EA8312A7FB0201B6EB0B01D6
:100E400064EB00042B0D43EA0C335E1844EB1C509A
:100E5000DA465146E7FB0201C5F313044FEA0B33B0
:100E600043EA14534FEA0432019C43EA0603A4F117
:100E70000C040294009CCDE900B4FFF79FFE03B080
:100E8000BDE8F08F00200146F9E72DE9F04D81EA39
:100E9000030404F0004B21F0004514464FF0000A13
:100EA00023F0004150EA050220D054EA01021DD08F
:100EB000C5F30A570246C5F31303C1F31300C1F388
:100EC0000A5640F4801543F48013A7EB0608101B64
:100ED000D64608F2FD3873EB050002D308F101088D
:100EE00001E092185B41B8F1000F03DA00200146DF
:100EF000BDE8F08D00204FF48011064684460EE0D8
:100F0000171B73EB050705D3121B63EB05030643A1
:100F10004CEA010C49084FEA300092185B4150EA54
:100F20000107EDD152EA030012D082EA040083EAFD
:100F30000501084305D0101BAB4106D20122002356
:100F400006E000224FF0004302E06FF00102531070
:100F50001AEB06004CEB085110EB0A0041EB0B01B9
:100F6000BDE8F04DFFF71BBEC1F30A52C1F31301F8
:100F700040F2FF3341F480119A4202DA0020014628
:100F8000704740F233439A42A2F2334202DC5242AB
:100F9000FFF74DBB00F030B830B5041E71F100040E
:100FA00004DB4FF00044404264EB0101141E73F176
:100FB000000405DB1C464FF00043524263EB040380
:100FC000994208BF904230BD1CB5094800900948BD
:100FD00001900546009C06E0E06840F0010394E8BB
:100FE000070098471034AC42F6D3FFF7A5F800008D
:100FF0002488000844880008202A04DB203A00FAEC
:1010000002F1002070479140C2F1200320FA03F35F
:10101000194390407047202A06DBCB17203A41FA4B
:1010200002F043EAE07306E041FA02F3D040C2F175
:1010300020029140084319467047C0B24FF4F05166
:1010400000F00CB80EB540F2334202920022CDE916
:1010500000221346FFF7B2FD03B000BD7F2801D97F
:10106000002208E0064A02EB5002C007127800D1C5
:10107000120902F00F020120904008407047000062
:10108000EA80000870B58C1810F8015B15F00703B2
:1010900001D110F8013B2A1106D110F8012B03E011
:1010A00010F8016B01F8016B5B1EF9D12B0705D419
:1010B0000023521E0DD401F8013BFAE710F8013B62
:1010C000CB1A921C03E013F8015B01F8015B521E7E
:1010D000F9D5A142D8D3002070BD000080B505F03D
:1010E000CBFF002080BD000010B5D2B0DDF854C1A8
:1010F000DDF850C150904F91ADF83A214D93509882
:1011000030B1FFE7559818B1FFE74F9808BBFFE7EC
:1011100042F61001C2F200010B68581C086048F248
:101120001E30C0F600006946486048F21930C0F62B
:101130000000086048F27941C0F6000148F223320D
:10114000C0F60002002001F05BFC01208DF8470191
:10115000C2E05098406808BBFFE742F61001C2F2B7
:1011600000010B68581C086048F21E30C0F60000F1
:101170006946486048F21930C0F60000086048F23D
:101180005341C0F6000148F22332C0F600020020AD
:1011900001F036FC04208DF847019DE056A80C9024
:1011A000559A0C9B0DA84FF4807106F033FA4FF05E
:1011B000FF300B905498002807D4FFE754981F285D
:1011C00003DCFFE754980B903BE000200A90FFE718
:1011D0000A981F280FDCFFE7509840680A99090118
:1011E000405818B9FFE70A980B9004E0FFE70A9807
:1011F00001300A90ECE70B98013008BBFFE75498E8
:10120000B0F1FF3F1CDCFFE700200990FFE70998E1
:101210001F2814DCFFE709981F2808D0FFE7509823
:101220004068099900EB0110006918B9FFE70998B7
:101230000B9004E0FFE7099801300990E7E7FFE72A
:10124000FFE70B98013020B9FFE705208DF8470133
:1012500042E00DA8FFF7B6F801300890089806F0B4
:1012600021FA0790079820B9FFE707208DF847017A
:1012700032E00798089A0DA9FFF78EF85098406859
:101280000B990901405840B1FFE7509840680B990D
:101290000901405806F0D8F9FFE75098D0F804E06B
:1012A0000B980EEB00110401079803904F980490DF
:1012B000BDF83A01ADF814004D980690DDF80CC069
:1012C0000498059A069B4EF804C0CB608A6048607B
:1012D00000208DF84701FFE79DF8470152B010BD8F
:1012E00080B586B00590059828B1FFE70598C068DD
:1012F000007A08B9FFE757E00598C168002002901E
:1013000008720599C868096900F10A0201F0BAFF7C
:101310000298ADF81200FFE7BDF8121000201F2957
:1013200001900BDCFFE705988068BDF8121050F8BB
:101330003100002818BF01200190FFE70198C00785
:1013400070B3FFE7059881680069BDF8122051F875
:101350003210FFF70FF803900398D0B1FFE705981C
:101360008068BDF8121000EBC100406848B1FFE78B
:1013700005988068BDF8121000EBC10040688047F6
:10138000FFE70598006900214FF4007204F0AEFBFE
:101390000AE0FFE7BDF812000130ADF81200BBE72C
:1013A000059906200870FFE706B080BD80B582B0C1
:1013B000019040F23C40C2F20000007820280ADB95
:1013C000FFE740F23C41C2F20001002008700199A1
:1013D000052008704FE00198406840F23C41C2F29D
:1013E000000109780901405850B9FFE740F23C413B
:1013F000C2F20001002008700199052008703AE04F
:101400000198416840F23C42C2F20002127801EBBE
:101410000213120189585A681B8900F0CFF800BBEB
:10142000FFE70198406840F23C41C2F200010978B0
:1014300000EB0110C06860B1FFE70198406840F21E
:101440003C41C2F20001097800EB0110C0688047FE
:10145000FFE740F23C41C2F2000108780130087019
:10146000FFE7FFE7FFE740F23C41C2F200010878E6
:1014700001300870FFE702B080BD000080B582B087
:101480000190019800F006F801990520087002B05B
:1014900080BD000080B58AB00990099800690230CB
:1014A00048F2B051C0F60001FEF764FF08900898BA
:1014B000002800F08080FFE708987B21FEF778FF86
:1014C000079008987D21FEF773FF0690079840B1BA
:1014D000FFE7069828B1FFE706980799884204D2EB
:1014E000FFE709990520087065E0079808B9FFE74C
:1014F00061E0079802F0D0FE0590059820B9FFE75B
:1015000002F096FE049056E0059848F27451C0F639
:10151000000102F0A1FE0390039830B1FFE70998A3
:101520000399096905F0BEFD03E0059802F034FE59
:1015300041E0059848F2A951C0F6000102F080FE92
:101540000290029808B1FFE703E0029802F024FE3F
:10155000FFE7059802F020FE06980899401A01302E
:1015600001900998C0684089ADF802000198BDF863
:101570000210884219D2FFE7089806990131BDF898
:101580000220019BD21AFEF7C3FE019A0998C16896
:101590004889801A48810998C16801200872099811
:1015A000C168887AC968487004E00998C168002059
:1015B0004881FFE7FFE70AB080BD000080B588B032
:1015C000069005910492ADF80E30069818B1FFE729
:1015D000059820B9FFE701208DF81F0073E00698F9
:1015E000C06820B9FFE702208DF81F006BE0059866
:1015F000FEF7E8FEADF80C0005F078F802900698CA
:10160000C06800680599BDF80C2001F07DFE0498C3
:1016100020B9FFE700208DF81F0054E005208DF869
:101620000700FFE705F062F80299401ABDF80E10B6
:1016300088423CD2FFE70698C068007A012832D180
:10164000FFE70698C168002008720698C068C06865
:10165000049902F0EBFC68B1FFE70698C068C06827
:10166000002100914FF4007204F040FA00988DF8C8
:101670001F0028E00698C068C06848F24451C0F6D0
:10168000000102F0D3FC60B1FFE70698C068C068B3
:1016900000214FF4007204F029FA01208DF81F0098
:1016A00011E0FFE7FFE70A2004F0F4FEBAE706982E
:1016B000C068C06800214FF4007204F017FA0320DC
:1016C0008DF81F00FFE79DF81F0008B080BD0000E7
:1016D00080B582B00190FFE740F20820C2F200001E
:1016E00000F036F80A2004F0D5FEF5E780B586B0A4
:1016F00069466420C8600A2088604FF480504860C2
:1017000041F27870C2F20000086041F2F860C2F263
:10171000000048F26A51C0F6000141F2D162C0F601
:101720000002002304F08AFE0490049848B9FFE701
:1017300041F2F860C2F2000004F00EFF00200590B4
:1017400003E04FF0FF300590FFE7059806B080BD3D
:1017500080B582B00190019808B9FFE736E00198A2
:1017600000780146009107282FD80099DFE801F0A2
:10177000040F1D2D2D21252940F2AC30C2F20000AE
:10178000283000F027FD0199012008701EE0019823
:1017900040F2AC31C2F20001283100231A4602F0B7
:1017A00089FC01990220087010E00198FFF7FEFD06
:1017B0000CE00198FFF794FD08E00198FFF75EFE4A
:1017C00004E001990520087000E0FFE702B080BD49
:1017D00080B5012000F0F0FE002000F0EDFE80BD9D
:1017E00082B0ADF806000020009046F60040C4F23A
:1017F00000000090BDF80610009808440090009882
:10180000008802B07047000082B0ADF80600ADF865
:1018100004100020009046F60040C4F20000009042
:10182000BDF80610009808440090BDF80400009927
:10183000086002B070470000FFE7FEE780B54FF098
:10184000007000F02FF9C0B1FFE74FF0007000F01A
:1018500015F842F27870C2F20000017881F00101BF
:101860000170017842F69820C2F2000000EB0111ED
:101870000120887300F0C4FAFFE780BD81B00090BA
:101880009DF80300C006002807D5FFE7009840F246
:101890000441C4F20201086005E000980421C4F28A
:1018A00002010860FFE701B07047000082B00190BC
:1018B0008DF803109DF8030030B1FFE70199086827
:1018C00040F00100086006E0019908684FF6FE72DA
:1018D00010400860FFE702B07047000081B0009040
:1018E000009908684FF6FE721040086000990020C9
:1018F000086000994860009988600099C860009865
:101900000821C4F20201884208D1FFE70421C4F291
:101910000201086840F00F000860B9E000981C213F
:10192000C4F20201884208D1FFE70421C4F2020197
:10193000086840F0F0000860A9E000983021C4F287
:101940000201884208D1FFE70421C4F202010868BD
:1019500040F47060086099E000984421C4F20201EC
:10196000884208D1FFE70421C4F20201086840F46C
:101970007040086089E000985821C4F20201884252
:1019800008D1FFE70421C4F20201086840F4702086
:10199000086079E000986C21C4F20201884208D105
:1019A000FFE70421C4F20201086840F470000860F7
:1019B00069E000988021C4F20201884208D1FFE763
:1019C0000421C4F20201086840F07060086059E028
:1019D000009840F20841C4F20201884209D1FFE7B1
:1019E00040F20441C4F20201086840F00F000860B0
:1019F00047E0009840F21C41C4F20201884209D13C
:101A0000FFE740F20441C4F20201086840F0F00030
:101A1000086035E0009840F23041C4F2020188428B
:101A200009D1FFE740F20441C4F20201086840F422
:101A30007060086023E0009840F24441C4F2020163
:101A4000884209D1FFE740F20441C4F2020108686C
:101A500040F47040086011E0009840F25841C4F230
:101A60000201884209D1FFE740F20441C4F20201B9
:101A7000086840F470200860FFE7FFE7FFE7FFE732
:101A8000FFE7FFE7FFE7FFE7FFE7FFE7FFE7FFE726
:101A900001B0704781B000900098406880B201B0FA
:101AA0007047000083B0029000208DF8070000907E
:101AB0009DF80B00C006002807D5FFE740F2004064
:101AC000C4F202000068009005E00020C4F20200A9
:101AD00000680090FFE700980299084204D0FFE7F1
:101AE00001208DF8070003E000208DF80700FFE7D4
:101AF0009DF8070003B0704780B583B00290019154
:101B000000200090029800680090009847F6F0715D
:101B1000884300900199D1F820E08868D1F810C07E
:101B20004B698A6940EA0E0040EA0C0018431043F2
:101B3000CA6910434A6A1043896A014300980843FE
:101B400000900098029908600198C0680299486066
:101B50000198006802998860019840680299C860FD
:101B600003B080BD82B00190ADF80210BDF8020054
:101B70000199486002B070477047000088B0079034
:101B8000069100200590049003900290019000902F
:101B90000698C07800F00F0005900698C078C0063F
:101BA000002806D5FFE70698817805980843059038
:101BB000FFE70698007800284BD0FFE707980068F9
:101BC000019000200390FFE7039807283DD8FFE726
:101BD00003990120884002900698008802990840E5
:101BE00004900498029988422AD1FFE70398800064
:101BF000029002990F208840009000990198884334
:101C000001900598029900FA01F1019808430190AA
:101C10000698C078282806D1FFE70399012088405C
:101C2000079948610BE00698C078482806D1FFE77D
:101C300003990120884007990861FFE7FFE7FFE764
:101C4000FFE7039801300390BEE701980799086009
:101C5000FFE706980088B0F5807F50DBFFE7079824
:101C60004068019000200390FFE70398072842D8BE
:101C7000FFE7039800F108010120884002900698D0
:101C800000880299084004900498029988422DD156
:101C9000FFE703988000029002990F20884000908F
:101CA00000990198884301900598029900FA01F182
:101CB0000198084301900698C078282808D1FFE7CA
:101CC000039800F108010120884007994861FFE767
:101CD0000698C078482808D1FFE7039800F108016A
:101CE0000120884007990861FFE7FFE7FFE70398B5
:101CF00001300390B9E7019807994860FFE708B001
:101D00007047000086B00590049100200390029077
:101D100001908DF803000598808A02900598008B49
:101D2000019001980004019002980199084320F065
:101D30007F400390039804990840884204D1FFE74C
:101D400001208DF8030003E000208DF80300FFE779
:101D50009DF8030006B0704782B001908DF8031023
:101D60009DF8030030B1FFE70199888840F40060D6
:101D7000888005E00199888820F400608880FFE76A
:101D800002B0704782B001908DF803109DF80300F7
:101D900030B1FFE70199088840F48070088005E0C1
:101DA0000199088820F480700880FFE702B070472E
:101DB00082B001908DF803108DF802209DF802008A
:101DC00038B1FFE79DF8030040F001008DF80300F3
:101DD00006E09DF8030000F0FE008DF80300FFE729
:101DE0009DF803000199088202B0704782B001900B
:101DF0008DF803109DF803000199088202B0704726
:101E000080B58EB08020C4F20200029000210191C2
:101E1000FFF74CFD0199029845F21042C4F200020E
:101E2000039242F27872C2F20002137842F69822CC
:101E3000C2F2000202EB0312049205910E220692F6
:101E400007918022089209910A910B914FF4005258
:101E50000C920D9103A9FFF74FFE45F20040C4F22A
:101E600000000121FFF78EFFFFE745F20040C4F2BA
:101E700000000121C0F20301FFF744FF08B9FFE7AA
:101E8000F3E745F20040C4F20000D0210022FFF742
:101E90008FFFFFE745F20040C4F200008221C0F24C
:101EA0000701FFF72FFF08B9FFE7F3E745F200400E
:101EB000C4F200003B21FFF799FFFFE745F2004025
:101EC000C4F200008421C0F20701FFF71BFF08B92C
:101ED000FFE7F3E745F20040C4F200000121FFF7FD
:101EE00051FFFFE745F20040C4F200000121C0F2BB
:101EF0000301FFF707FF08B9FFE7F3E745F20040EA
:101F0000C4F20000D0210122FFF752FFFFE745F2A3
:101F10000040C4F200000221C0F20301FFF7F2FE0C
:101F200008B9FFE7F3E745F20040C4F200000121E1
:101F30000091FFF711FF00998020C4F20200FFF723
:101F4000B5FC0EB080BD0000FFE7FEE780B586B0AF
:101F50000590ADF812108DF81120059840F600019B
:101F6000C4F20101884205D1FFE70420012100F0FD
:101F700007FB55E0059840F60041C4F20101884294
:101F800005D1FFE70820012100F0FAFA47E00598A3
:101F900041F20001C4F20101884205D1FFE710209F
:101FA000012100F0EDFA39E0059841F20041C4F258
:101FB0000101884205D1FFE72020012100F0E0FA6D
:101FC0002BE0059841F60001C4F20101884205D1D9
:101FD000FFE74020012100F0D3FA1DE042F608019E
:101FE000C2F200010B68581C086048F21E30C0F6AF
:101FF00000006946486048F26B30C0F60000086097
:1020000048F24631C0F6000148F27032C0F60002D4
:10201000002000F0F5FC13E0FFE7FFE7FFE7FFE734
:10202000BDF81200ADF80C009DF811008DF80F00FE
:1020300003208DF80E00059803A9FFF79FFDFFE729
:1020400006B080BD80B582B04FF080500121019173
:1020500000F07AFA01994FF0006000F075FA0198EB
:1020600000F04AFA0420FFF7BBFB4AF2B551884260
:1020700026D0FFE7FFF7ACFB012000F0A5FBFFE750
:10208000612000F05FFB012801D0FFE7F8E74FF483
:10209000007000F0B1FB012000F0A2FB00F01CFC7E
:1020A00000F00EFC49F63F4000F0F2FB00F008FCA7
:1020B00000F06EF804204AF2B551FFF7A5FB16E0D8
:1020C000012000F081FBFFE7612000F03BFB0128CD
:1020D00001D0FFE7F8E74FF4007000F08DFB01201E
:1020E00000F07EFB00F0F8FB00F0EAFBFFE70120C8
:1020F00002B080BD10B58CB000F09EFB00F5E14051
:102100000B900BA8FEF7A4FA8446DCF80000DCF87C
:102110000410DCF80820DCF80C30DCF810E0DCF807
:1021200014400594CDF810E00393029201910090C1
:10213000DCF81800DCF81C10DCF82020DCF8243077
:10214000DCF828C0CDF828C00993089207910690C2
:10215000059800F26C7040F21C31C2F20001088058
:10216000049801304880039888800298C8800198BC
:102170000881009848816846FEF776F80B900B9826
:1021800040F22C31C2F2000108600CB010BD00001A
:1021900080B58CB040F21C30C2F200000188A1F280
:1021A0006C71059141880139049181880391C1883E
:1021B000029101890191408900906846FEF754F828
:1021C000A0F5E1400B900B9800F04CFB00F078FB81
:1021D0000CB080BD80B5A2B0219000200F900E9071
:1021E0004FF40070ADF83600219800680C9044F26E
:1021F0000041C4F20001884243D0FFE70C9844F646
:102200000001C4F2000188426CD0FFE70C9843F64D
:102210000001C4F20101884240F09680FFE74FF4CC
:10222000804001210A9100F0ABF90A99084600F0BC
:102230006FF940F60000C4F201000B904FF40071FA
:102240001822FFF783FE0B984FF480610422FFF7FA
:102250007DFE25208DF86C005820C4F202000F90FE
:1022600043F60400C4F201000E9042F6F860C2F298
:10227000000048F22B31C0F60001002203F090FC70
:1022800080E04FF400300121079100F05DF90799DB
:10229000084600F03DF940F60000C4F20100089045
:1022A000042109911822FFF751FE0898099A082184
:1022B000FFF74CFE26208DF86C006C20C4F2020063
:1022C0000F9044F20440C4F200000E9042F61C70DD
:1022D000C2F2000048F23431C0F60001002203F0DF
:1022E0005FFC4FE04FF480200121059100F02CF9B4
:1022F0000599084600F00CF940F60040C4F20100D0
:1023000006904FF480611822FFF720FE06984FF4E4
:1023100000610422FFF71AFE27208DF86C003020A0
:10232000C4F202000F9044F60400C4F200000E90C4
:1023300042F64070C2F2000048F23D31C0F60001A2
:10234000002203F02DFC1DE042F60401C2F2000160
:102350000B68581C086048F21E30C0F60000694641
:10236000486048F21930C0F60000086048F20031B9
:10237000C0F6000148F22332C0F60002002000F04F
:102380003FFB53E0002003908DF86D008DF86E0048
:10239000012004908DF86F001BA800F04BF8049A00
:1023A0002198006840F2244101F0F6F80398219941
:1023B00049681C91ADF87400ADF87600ADF878006E
:1023C000ADF87C000C20ADF87A00219800681CA9BB
:1023D00001F02CF904992198006800F0FBFF0F9898
:1023E00020B3FFE70F98FFF779FA2198C068023011
:1023F000119000201290BDF83610023913911490FC
:10240000802115911690179018904FF40051199152
:102410001A900E9810900F9810A9FFF76DFB219855
:1024200000684021012200F0EBFFFFE722B080BDF1
:102430007047000084B003900020029001900F20AC
:1024400000900398C078B8B3FFE74EF60C50CEF278
:1024500000000068C043C0F3022002900298C0F15F
:102460000400019000980299C840009003984078B9
:102470000199884002900398807800990140029861
:10248000084302900298000102900298039909788B
:102490004EF20042CEF2000288540398027802F015
:1024A0001F01012088401C2101EAD2014EF20012D6
:1024B000CEF2000288500EE00398027802F01F016D
:1024C000012088401C2101EAD2014EF28012CEF296
:1024D00000028850FFE704B07047000081B0009010
:1024E00000980021C0F2FA5108434EF60C51CEF28A
:1024F0000001086001B0704781B08DF803009DF8BD
:1025000003002021C4F20E21086001B070470000D2
:1025100082B001908DF803109DF8030048B1FFE7E9
:10252000019A41F21401C4F20201086810430860E4
:1025300008E0019A41F21401C4F2020108689043D4
:102540000860FFE702B0704782B001908DF8031079
:102550009DF8030048B1FFE7019A41F21C01C4F263
:10256000020108681043086008E0019A41F21C016A
:10257000C4F20201086890430860FFE702B07047A8
:1025800082B001908DF803109DF8030048B1FFE779
:10259000019A41F21801C4F2020108681043086070
:1025A00008E0019A41F21801C4F202010868904360
:1025B0000860FFE702B0704781B08DF803009DF816
:1025C000030040F24041C4F24221086001B070476C
:1025D00086B005900020049003900290019041F293
:1025E0000400C4F20200006800F00C00049004989B
:1025F000009040B1FFE7009804280BD0FFE7009857
:1026000008280ED047E0059941F20020C0F27A0078
:10261000086047E0059941F20020C0F27A000860A6
:1026200040E041F20400C4F20200016801F47011BC
:102630000391006800F4803002900399022000EBBF
:1026400091400390029848B9FFE7039840F60011C3
:10265000C0F23D014843059908601BE041F20400C7
:10266000C4F2020000688003002809D5FFE7039840
:1026700040F60011C0F23D0148430599086008E0AA
:10268000039841F20021C0F27A014843059908609D
:10269000FFE7FFE706E0059941F20020C0F27A006B
:1026A0000860FFE741F20400C4F20200016801F093
:1026B000F0010491049909090491049A48F22E1139
:1026C000C0F600018A5C0192059B1A68DDF804C01F
:1026D00022FA0CF25A60026802F4E0620492049A50
:1026E000120A0492049A8A5C0192059B5A68DDF8EA
:1026F00004C022FA0CF29A60026802F4605204925A
:10270000049AD20A0492049A895C0191059A51684C
:10271000019BD940D160006800F4404004900498C7
:10272000800B0490049948F22A10C0F60000405C27
:1027300001900599C868019AB0FBF2F0086106B0F3
:102740007047000084B08DF80F00002002900190C7
:102750008DF803009DF80F004009029002980128AF
:1027600007D1FFE741F20000C4F2020000680190C7
:1027700012E00298022807D1FFE741F22000C4F2DC
:1027800002000068019006E041F22400C4F2020059
:1027900000680190FFE7FFE79DF80F0000F01F00C1
:1027A000029001980299C840C00720B1FFE70120BC
:1027B0008DF8030003E000208DF80300FFE79DF88B
:1027C000030004B07047000081B08DF803009DF84D
:1027D000030040F28041C4F24221086001B070471A
:1027E00081B08DF803009DF8030040F23C41C4F233
:1027F0004221086001B0704781B00090009A41F218
:102800002001C4F2020108681043086001B070475B
:1028100042F60401C4F20001088840F0100008806C
:102820007047000042F60401C4F20001088820F05D
:10283000100008807047000081B00020ADF8020051
:1028400042F61C00C4F200000088ADF8020042F617
:102850001800C4F200000188BDF8020040EA0140FF
:1028600001B0704780B582B00190FFF7D1FFBDF88D
:10287000060042F61801C4F200010880019842F6F1
:102880001C01C4F200010880FFF7CCFF02B080BD3C
:1028900080B582B00190FFF7BBFF0198C0F3034001
:1028A00042F60801C4F200010880019842F60C01CA
:1028B000C4F200010880FFF7B5FF02B080BD000040
:1028C000FFE742F60400C4F20000008880060028FA
:1028D00001D4FFE7F5E7704742F60401C4F20001B6
:1028E000088820F008000880FFE742F60400C4F2E0
:1028F000000000880007002801D4FFE7F5E77047D3
:1029000080B586B0059004910392FFE740F2404005
:10291000C2F20000019001980078532803D0FFE72D
:1029200000F048FFFFE7FFE7EFF311804FF02001D1
:1029300081F31188009005980499039A00F008F833
:102940000290009880F31188029806B080BD0000C4
:1029500080B58AB009900891079208980490099868
:1029600000EB400140F24040C2F2000000EBC10029
:102970001830039003984069029040B1FFE7029835
:10298000012819D0FFE7029802282CD032E00398E2
:1029900000F05EFF059005980799884203D2FFE793
:1029A0000020069007E00798069003980499079A7C
:1029B00001F0D6F9FFE720E0039800F049FF059009
:1029C00005980799884203D2FFE70598019002E035
:1029D00007980190FFE70198069003980499069ADA
:1029E00001F0BEF909E003980499079A01F048F94B
:1029F000069002E000200690FFE706980AB080BD2E
:102A000082B080B584B0079306920390029106A825
:102A10000090039802996A4600F008F80190019826
:102A200004B0BDE8804002B07047000080B5AAB095
:102A30002990289127920DA82190402022900020D3
:102A40002390299925912490FFE7289800788DF804
:102A50009B002898013028909DF89B0008B9FFE75B
:102A600017E29DF89B00252840F00682FFE7002032
:102A70001E9001202090FFE7289800788DF89B0099
:102A80009DF89B002338014609910D2829D8099902
:102A9000DFE801F01F2727272727272717270727E2
:102AA000270F1E9840F001001E90289801302890B2
:102AB0001AE01E9840F002001E90289801302890DD
:102AC00012E01E9840F004001E90289801302890D3
:102AD0000AE01E9840F008001E90289801302890C7
:102AE00002E000202090FFE7FFE720980028C3D1F4
:102AF000FFE700201D90FFE7289800788DF89B00E5
:102B00009DF89B00302805DBFFE79DF89B003A28E5
:102B100001DBFFE710E02898013028901D9800EBBA
:102B200080019DF89B0000EB410030381D90FFE7CD
:102B300001200028E0D1FFE700201F9028980078AE
:102B40008DF89B009DF89B002E2825D1FFE7289843
:102B500001302890FFE7289800788DF89B009DF8B9
:102B60009B00302805DBFFE79DF89B003A2801DB3E
:102B7000FFE710E02898013028901F9800EB8001B3
:102B80009DF89B0000EB410030381F90FFE70120CB
:102B90000028E0D1FFE7FFE7289800788DF89B0038
:102BA000FFE79DF89B006C2805D0FFE79DF89B0090
:102BB000682808D1FFE728980130289028980078E5
:102BC0008DF89B0000E004E0FFE701200028E8D139
:102BD000FFE79DF89B00253801460891532800F235
:102BE00046810899DFE811F0D80043014301430111
:102BF00043014301430143014301430143014301B5
:102C000043014301430143014301430143014301A4
:102C10004301430143014301430143014301430194
:102C200043014301430143014301DD0043014301EB
:102C30004301430143014301430143014301430174
:102C400043014301430143014301430143018B001D
:102C50004301430143014301430143014301430154
:102C600043014301540063004301DD00430143017C
:102C70004301430143014301430143014301C700B1
:102C8000430143019F0043017700430143018B004F
:102C9000279A1068011D11600068209020988DF817
:102CA00033009DF8331021A800F0AEFFE0E0279A32
:102CB0001068011D11600068209020991F9B1D98CD
:102CC000DDF878C06A46C2F804C0106021A80A2264
:102CD00000F0DEFDCCE0279A1068011D116000684D
:102CE000209020991F9B1D98DDF878C06A46C2F895
:102CF00004C0106021A80A2200F0B0FEB8E0279AB4
:102D00001068011D11600068209020991F9B1D987C
:102D1000DDF878C06A46C2F804C0106021A810220D
:102D200000F09CFEA4E0279A1068011D1160006865
:102D30000B900B9830B9FFE748F2A830C0F60000BE
:102D40000B90FFE7FFE70B9800788DF89B000B983E
:102D500001300B909DF89B0008B9FFE70AE09DF851
:102D60009B1021A800F050FFFFE72498B0F1FF3F2F
:102D7000E9DCFFE77CE0279A1068011D116000681C
:102D8000209020996846002242600823036021A811
:102D9000102200F063FE6BE021A8252100F034FF33
:102DA00066E0279A1068073020F0070101F108005B
:102DB000106008684968FDF7D7FB0A900A9800215F
:102DC000FDF756FB28B9FFE721A82D2100F01CFFD5
:102DD000FFE70A98FDF790FB06900028079002D5C0
:102DE0000698404207900798209020991F9B1D98B5
:102DF000DDF878C06A46C2F804C0106021A80390CC
:102E00000A22029200F044FD03982E2100F0FCFEFD
:102E10000A980021C4F2C821FDF7F8FAFDF76CFB0F
:102E200004900028059002D5049840420590029A2B
:102E3000039805992091DDF880C048F21F51C5F232
:102E4000EB118CFB0113591101EBD371642301FBCE
:102E500013C1209120991D9BDDF878E0EC46CCF859
:102E600004E0CCF80030022300F012FD00E0FFE7A0
:102E700028980130289005E09DF89B1021A800F0CB
:102E8000C3FEFFE7FFE72498B0F1FF3F3FF7DDAD5A
:102E9000FFE7249801280EDBFFE7239830B1FFE716
:102EA0002998239A0DA9FFF72BFDFFE72399249872
:102EB00008442490FFE724982AB080BD70470000A2
:102EC00080B500F001F880BD84B00020039002902E
:102ED00041F20001C4F20201086840F48030086049
:102EE000FFE741F20000C4F20200006800F4003085
:102EF0000290039801300390FFE7029900200190AF
:102F000039B9FFE70398B0F5A06018BF0120019020
:102F1000FFE70198C0070028E3D1FFE741F2000076
:102F2000C4F2020000688003002803D5FFE70120F7
:102F3000029002E000200290FFE70298012851D1A0
:102F4000FFE742F20001C4F20201086840F01000FD
:102F50000860086820F003000860086840F002007C
:102F6000086041F20401C4F202010091086808609F
:102F700008680860086840F480600860086820F409
:102F80007C100860086840F4E810086041F2000115
:102F9000C4F20201086840F080700860FFE741F267
:102FA0000000C4F2020000688001002801D4FFE79D
:102FB000F5E741F20401C4F20201086820F00300C1
:102FC0000860086840F002000860FFE741F2040072
:102FD000C4F20200006800F00C00082801D0FFE7EE
:102FE000F4E700E0FFE704B07047000080B582B06E
:102FF000009000980138B0F1807F03D3FFE70120F3
:10300000019019E0009801384EF21401CEF200014F
:1030100008604FF0FF300F2100F0E4FE4EF218017F
:10302000CEF20001002008604EF21002CEF2000243
:10303000072111600190FFE7019802B080BD0000F8
:1030400080B502F047FB03F057FB02F055FB80BD53
:1030500080B541F20002C4F20202106840F00100A3
:10306000106041F20401C4F2020108680023CFF6A7
:10307000FF031840086010684FF6FF73CFF6F66341
:1030800018401060106820F480201060086820F458
:10309000FE00086041F20801C4F202014FF41F0073
:1030A0000860FFF70DFF4EF60851CEF200014FF019
:1030B0000060086080BD000080B542F60040C4F2A8
:1030C0000100012100F052F840B1FFE742F6004054
:1030D000C4F20100012100F03DF8FFE780BD0000CF
:1030E00080B54FF08040012100F040F840B1FFE78B
:1030F00002F016F94FF08040012100F02BF8FFE7B5
:1031000080BD000080B540F20040C4F20000012103
:1031100000F02CF840B1FFE740F20040C4F200009C
:10312000012100F017F8FFE780BD000080B540F6F0
:103130000000C4F20000012100F018F840B1FFE7E0
:1031400040F60000C4F20000012100F003F8FFE7A0
:1031500080BD000082B00190ADF80210BDF8020001
:10316000C0430199088202B07047000083B002900A
:10317000ADF8061000208DF80500ADF80200ADF89E
:1031800000000298008ABDF806100840ADF8020061
:1031900002988089BDF806100840ADF80000BDF81F
:1031A000020040B1FFE7BDF8000020B1FFE70120B9
:1031B0008DF8050003E000208DF80500FFE79DF87D
:1031C000050003B07047000080B540F2AC30C2F299
:1031D000000000F13C0244F60040C4F2000040F25E
:1031E0003041C4F20201042300F09EF980BD0000CA
:1031F00080B582B045F20000C4F2000040F22441E4
:1032000000F03AF9D8B1FFE745F20000C4F200003F
:103210000088019045F20400C4F20000008801908B
:1032200040F2AC31C2F20001CA6D0520107091F875
:103230005A00CA6D5070012081F85800FFE745F22E
:103240000000C4F2000040F2255100F015F9B8B1B9
:10325000FFE745F20000C4F2000000F095FA8DF897
:1032600003009DF8030040F2AC3CC2F2000CDCF815
:103270005C10BCF85A20531CACF85A308854FFE755
:1032800002B080BD80B584B0039002910192039892
:1032900030B1FFE7029818B1FFE7019808B9FFE7DE
:1032A0002FE003980069002102F024FD20B1FFE720
:1032B00001990020088024E003984089ADF80200BD
:1032C000BDF8020001990880BDF80200012813DB57
:1032D000FFE702980399C968BDF8022002F09CFB41
:1032E000039800214181039801720398C068BDF8DA
:1032F000022002F0FBFBFFE70398006902F070FC7C
:10330000FFE704B080BD000080B584B00390029157
:10331000ADF806200020ADF80400FFE7BDF804007A
:10332000BDF80610884216DAFFE7FFE70398802110
:1033300000F080F808B9FFE7F8E703980299BDF8B4
:103340000420895C00F028FAFFE7BDF80400013092
:10335000ADF80400E2E7FFE70398402100F06AF8C7
:1033600008B9FFE7F8E704B080BD000080B540F27F
:10337000AC32C2F2000243F60000C4F20100582150
:10338000C4F20201012300F0CFF880BD80B540F205
:10339000AC30C2F2000000F1140244F20040C4F26A
:1033A00000006C21C4F20201022300F0BDF880BDD0
:1033B00080B540F2AC30C2F2000000F1280244F6C1
:1033C0000000C4F200003021C4F20201032300F027
:1033D000ABF880BD82B001908DF803109DF803001A
:1033E00030B1FFE70199888940F40050888105E0F9
:1033F0000199888920F400508881FFE702B0704766
:1034000082B00190ADF802108DF801209DF8010006
:1034100038B1FFE7BDF802200199888A10438882FD
:1034200006E0BDF802200199888A90438882FFE770
:1034300002B0704782B00190ADF8021000208DF804
:103440000100BDF80200B0F5007F01D1FFE7FFE702
:1034500001980088BDF802100840000420B1FFE781
:1034600001208DF8010003E000208DF80100FFE746
:103470009DF8010002B0704786B00590ADF81210BB
:1034800000200390029001908DF80300BDF8120017
:1034900040F66A11884201D1FFE7FFE79DF812006C
:1034A00040090190BDF8120000F01F00029002993F
:1034B0000120884002900198012806D1FFE7059875
:1034C000818902980840029010E00198022806D1F4
:1034D000FFE70598018A02980840029005E00598E8
:1034E000818A029808400290FFE7FFE79DF81300E9
:1034F0000390039901208840039005980188039860
:1035000008400390029838B1FFE7039820B1FFE725
:1035100001208DF8030003E000208DF80300FFE791
:103520009DF8030006B0704780B586B00590049101
:1035300003928DF80B30059840F22441FFF79CFF71
:1035400040B3FFE7059800880190059880880190B6
:1035500004980021FEF7AAF90498FEF79BFAC0F53B
:1035600000700399488103990120009008729DF82A
:103570000B000399C96808700399887AC968487074
:1035800004984FF40071FEF7EDFA00990498FEF7E5
:103590008DF9FFE706B080BD86B00590ADF812103A
:1035A0008DF8112000200390029001900090BDF84A
:1035B000120040F66A11884201D1FFE7FFE7059843
:1035C00000909DF8120040090390BDF8120000F031
:1035D0001F00029002990120884001900398012861
:1035E00004D1FFE700980C3000900CE0039802280B
:1035F00004D1FFE700981030009003E000981430E9
:103600000090FFE7FFE79DF8110030B1FFE7019A56
:10361000009908681043086005E0019A009908685D
:1036200090430860FFE706B07047000080B58CB09B
:103630000B900A9100200990089007900690059041
:103640000A98808908B1FFE7FFE70B9805900B986F
:10365000008A099009984CF6FF71084009900A9871
:10366000C18809980843099009980B9908820B981A
:103670008089099009984EF6F311084009900A993B
:1036800088880A89104349890143099808430990A9
:1036900009980B9988810B98808A099009984FF6B0
:1036A000FF41084009900A988189099808430990C8
:1036B00009980B9988826846FEF78AFF059843F6B9
:1036C0000001C4F20101884203D1FFE7039808908A
:1036D00002E002980890FFE70B9880890004002818
:1036E0000AD5FFE70898192148430A990968490053
:1036F000B0FBF1F0079009E00898192148430A99B6
:1037000009688900B0FBF1F00790FFE7079848F2DD
:103710001F51C5F2EB11A0FB01016FF00F0000EA91
:1037200051000990079A09980009642100FB1120B3
:1037300006900B9880890004002810D5FFE70699B1
:10374000322000EBC10048F21F51C5F2EB11A0FB83
:103750000110C0F342110998084309900FE006993F
:10376000322000EB011048F21F51C5F2EB11A0FB13
:103770000110C0F34311099808430990FFE7099825
:103780000B9908810CB080BD81B0009000988088B2
:103790006FF35F2001B0704782B00190ADF8021066
:1037A000BDF802006FF35F200199888002B0704776
:1037B000FFE7FEE780B582B040F24040C2F2000071
:1037C00001900198A821FCF7CAFD01990320086126
:1037D00001994861019848F29F31C0F6000181616A
:1037E000019A40F2F840C2F20000D061019A4FF411
:1037F00080501062019A00209062019A5062019AF2
:10380000D062019A1166019A40F2E841C2F20001C9
:103810005166019A10219166019908670199C8665D
:10382000019948670090FFE700980F280ED8FFE73E
:10383000009A48F23E10C0F60000801AC07B019941
:103840008854FFE7009801300090EDE702B080BD9A
:1038500084B003900398006902900398C0680190B7
:1038600002980199884209D8FFE703988168019876
:10387000C043084402990844009005E00299019869
:10388000C04308440090FFE7009804B07047000070
:1038900010B58CB0DDF83CC0DDF838C00B900A9153
:1038A000099208930A98B0F1FF3F04DCFFE70A98F9
:1038B0004042059002E00A980590FFE705980690BF
:1038C00001200790FFE706980999884209DBFFE786
:1038D0000698099990FBF1F006900798013007903F
:1038E000F1E708980799884203D9FFE708980790FD
:1038F000FFE70E9870B1FFE70A98002806D4FFE7AB
:103900009DF83C004007002804D5FFE70E980138D9
:103910000E90FFE79DF83C008007002803D5FFE7E5
:10392000089858B3FFE79DF83C00C00730BBFFE79D
:103930000E9810B3FFE7FFE70E990020049041B105
:10394000FFE707990E9A0020914238BF01200490AA
:10395000FFE70498C00778B1FFE70E9801380E9092
:103960000B98202100F050F90B98C068B0F1FF3F90
:1039700001DCFFE700E0DFE7FFE7FFE70B98C06847
:10398000002869D4FFE70A98B0F1FF3F08DCFFE7A1
:103990000A9840420A900B982D2100F035F90CE06E
:1039A0009DF83C004007002805D5FFE70B982B2128
:1039B00000F02AF900E0FFE7FFE70B98C068002855
:1039C00049D4FFE79DF83C00800700282ED5FFE78B
:1039D0009DF83C00C00748BBFFE7089830BBFFE7F5
:1039E0000E9810B3FFE7FFE70E990020039041B156
:1039F000FFE707990E9A0020914238BF01200390FB
:103A0000FFE70398C00778B1FFE70E9801380E90E2
:103A10000B98302100F0F8F80B98C068B0F1FF3F28
:103A200001DCFFE700E0DFE7FFE7FFE70B98C06896
:103A300000280FD4FFE70B980A99099A089BDDF834
:103A400038C00F9CEE46CEF80440CEF800C000F01F
:103A500005F8FFE7FFE7FFE70CB010BD80B58CB0BD
:103A6000DDF83CC0DDF838C00B900A91099208934C
:103A70000A980590012006900490FFE7059809999F
:103A8000884209D3FFE705980999B0FBF1F005904A
:103A9000049801300490F1E708980499884203D90A
:103AA000FFE708980490FFE79DF83C00C007C0BB03
:103AB000FFE70E98A0B3FFE79DF83C0080070028C1
:103AC00007D5FFE7089820B9FFE730208DF80F00F1
:103AD00003E020208DF80F00FFE7FFE70E9900209C
:103AE000029041B1FFE704990E9A0020914238BF3D
:103AF00001200290FFE70298C00780B1FFE70E980F
:103B000001380E900B989DF80F1000F07DF80B987F
:103B1000C068B0F1FF3F01DCFFE700E0DEE7FFE750
:103B2000FFE70B98C06800286CD4FFE7FFE7089810
:103B3000022804D3FFE70898013808900BE00A98A0
:103B40000699B0FBF1F0079007980999884201D2D5
:103B5000FFE705E0FFE70999069848430690E6E786
:103B6000FFE70A980699B0FBF1F0079007980699CD
:103B70000A9A00FB11200A900B98079A48F24F11FD
:103B8000C0F60001895C00F03FF80B98C068B0F106
:103B9000FF3F01DCFFE709E009990698B0FBF1F06F
:103BA0000690FFE706980028DBD1FFE79DF83C0070
:103BB000C00730B3FFE70E9810B3FFE7FFE70E9999
:103BC0000020019041B1FFE704990E9A0020914234
:103BD00038BF01200190FFE70198C00778B1FFE7E7
:103BE0000E9801380E900B98202100F00DF80B98DC
:103BF000C068B0F1FF3F01DCFFE700E0DFE7FFE76F
:103C0000FFE7FFE70CB080BD80B584B003908DF86E
:103C10000B1003988068019001980130039949685E
:103C200088420FD8FFE79DF80B0003990968019AB5
:103C3000885401980130039988600399C86801305D
:103C4000C860FFE7039841688068884215D1FFE7A4
:103C50000398016882680069FEF752FE039989683B
:103C6000884205D0FFE703994FF0FF30C86003E0BA
:103C7000039900208860FFE7FFE704B080BD0000E3
:103C800080B58AB0099008910792002005900998A4
:103C9000C0680390FFE709980069049004980399AD
:103CA000884206D9FFE704990398C0430844069068
:103CB00008E0099881680398049A801AC043084470
:103CC0000690FFE7069809998968039A891A88423D
:103CD00003D2FFE70698019005E0099880680399F0
:103CE000401A0190FFE701980690069807998842CC
:103CF00003D2FFE70698009002E007980090FFE7E4
:103D00000098069009984068039908440290029828
:103D10000899069AFCF7FCFA06990598084405905C
:103D2000069908980844089006990798401A079041
:103D30000699039808440390039809998968884272
:103D400003D1FFE700200390FFE703980999C860BB
:103D5000FFE7079800289ED1FFE705980AB080BDCD
:103D600080B588B00790069105920798C0680390C7
:103D7000079880680399401A029002980599884232
:103D800010D9FFE70798406803990844019001980B
:103D90000699059AFCF7BCFA039805990844079917
:103DA000C8601DE002980490079840680399084491
:103DB000019001980699049AFCF7AAFA05980299CD
:103DC000401A049007984068019001980699029A59
:103DD0001144049AFCF79CFA04980799C860FFE71D
:103DE00008B080BD82B08DF8070000919DF90700F2
:103DF00000280AD4FFE7009800019DF907104EF251
:103E00000042CEF2000288540BE0009800019DF8B9
:103E1000071001F00F014EF61452CEF20002885442
:103E2000FFE702B07047000082B00090009818B918
:103E3000FFE70020019033E09DF8000050B1FFE75C
:103E40009DF8001048F25F10C0F60000405C0130A1
:103E5000019025E09DF8010050B1FFE79DF80110A9
:103E600048F25F10C0F60000405C0930019017E096
:103E70009DF8020050B1FFE79DF8021048F25F1074
:103E8000C0F60000405C1130019009E09DF803107D
:103E900048F25F10C0F60000405C19300190FFE767
:103EA000019802B07047000080B588B084460D9834
:103EB0000C98DDF82CE0DDF828E0CDF81CC0069168
:103EC000059204938DF80F000798143001F0BEFCA2
:103ED0000598079908620498079948620A98079913
:103EE00088620B980799C8620799886ACA6A232171
:103EF00001F0FCFD079B186A596A9A6ADB6A1A444A
:103F0000043A46F27933C0F6000301F0A5FB0799A5
:103F1000C8619DF80F00079981F836009DF80F00E1
:103F2000079981F8350007980021029181630D9867
:103F3000079A50640D98079A906407980163079850
:103F400080F83410079881670798C167079B03F1D1
:103F50004C006A465160116046F2ED52C0F6000214
:103F6000194602F0A9FC029808B080BD80B586B061
:103F700084460898CDF814C00491039202938DF8FA
:103F800007009DF80700059948720599487A00F0E6
:103F9000FE00487204980599C86103980599086263
:103FA0000599002088620299059A51620090FFE706
:103FB000009800280CDCFFE70598009900EBC10091
:103FC000143001F04BFCFFE7009801300090EFE760
:103FD00006B080BD80B582B0019000200090FFE760
:103FE000009800280CDCFFE70198009900EBC10065
:103FF000143001F001FDFFE7009801300090EFE779
:1040000002B080BD80B582B00190FCF7ADF80090A1
:104010000198806F20B1FFE70198816F8847FFE723
:104020000098FCF7A5F802B080BD000087B00590AD
:10403000049105980390FFE70398007890B3FFE799
:104040000498029003980190FFE7029801780020FD
:10405000009081B1FFE7019801780020009051B1F4
:10406000FFE70298007801990978401AB0FA80F0C9
:1040700040090090FFE70098C00738B1FFE70298B9
:1040800001300290019801300190DEE7029800783B
:1040900020B9FFE701208DF81B0007E003980130ED
:1040A0000390C9E700208DF81B00FFE79DF81B0077
:1040B00007B0704780B586B00590049103920293D3
:1040C000059818B1FFE7049808B9FFE723E00498C2
:1040D0000599C860039818B1FFE70398019005E0BF
:1040E00040F20800C2F200000190FFE70198059934
:1040F0004860029818B1FFE70298009005E040F28E
:104100001C20C2F200000090FFE70098059988602B
:1041100003F006F9FFE706B080BD000083B0019010
:10412000019820B1FFE70198006818B9FFE7002067
:1041300002902EE0FFE701990020009091B1FFE787
:104140000198426881680020914200900AD2FFE7FE
:10415000019908688968415C00202129B8BF0120C5
:104160000090FFE70098C00728B1FFE70199886831
:1041700001308860DFE7019841688068884205D196
:10418000FFE70199886801388860FFE7019802908D
:10419000FFE7029803B0704780B582B0019000201D
:1041A0000090FFE70198002840D0FFE701980068E1
:1041B00000900198407BC00748B9FFE701988068EC
:1041C00028B1FFE701988068FFF7E6FFFFE7019855
:1041D000407BC00768B9FFE70198006948B1FFE775
:1041E00040F23030C2F2000041680198006988470F
:1041F000FFE70198407B800700280DD4FFE7019876
:10420000006A48B1FFE740F23030C2F20000416876
:104210000198006A8847FFE740F23030C2F20000A0
:1042200041680198884700980190BBE702B080BDC3
:1042300042F27C71C2F20001086849680844704784
:1042400080B582B00190009101980099002200F0A1
:1042500085F902B080BD000080B582B00190009168
:1042600001980099012200F079F902B080BD0000A8
:1042700080B582B00190019801682820884700909D
:10428000009828B1FFE700982821FCF768F8FFE7BD
:10429000009802B080BD000080B582B00190019806
:1042A0000022114600F002F802B080BD80B590B047
:1042B0000E900D910C92002001900B900A900990A5
:1042C0000890079006900590049042F27C71C2F22B
:1042D0000001086048600E9808B9FFE745E00E98B5
:1042E00005900E98FCF76EF80130069000200790BC
:1042F00040F23030C2F200000168426883680B93DC
:104300000A920991FFF7B4FF0490049808B9FFE7F7
:104310002BE00498009005A802F004FFFFF7FEFED2
:104320000146009800F0ECFD08B9FFE71DE00C988D
:1043300078B1FFE705A8FFF7F1FE069907988842D4
:1043400005D2FFE705980799405C08B1FFE70CE04C
:10435000FFE70D9830B1FFE70598079908440D99DC
:104360000860FFE704980F9032E0049820B1FFE75F
:104370000498FFF711FFFFE70E9830B3FFE70E98A0
:1043800002900020039006990798884203D2FFE725
:104390000798039007E0069820B1FFE706980138D8
:1043A0000390FFE7FFE70D9830B1FFE7029803990C
:1043B00008440D990860FFE742F27C71C2F20001E7
:1043C0000298039A4A600860FFE700200F90FFE719
:1043D0000F9810B080BD000080B586B004900391A6
:1043E000049818B1FFE7039818B9FFE7012005907A
:1043F00033E004980399884203D1FFE70020059039
:104400002BE0FFE704980078FBF728FF0290039861
:104410000078FBF723FF0146029888420FD1FFE79F
:104420000498007818B9FFE70020059015E0FFE731
:10443000049801300490039801300390E2E7049857
:104440000078FBF70BFF019003980078FBF706FF5D
:1044500001460198401A0590FFE7059806B080BD17
:1044600080B586B069460A20C860192088604FF47C
:104470008070486042F6F850C2F20000086042F6D0
:104480007850C2F2000048F2F721C0F6000147F26E
:104490004D02C0F60002002301F0D0FF0490049802
:1044A00038B9FFE742F67850C2F2000002F054F843
:1044B00009E048F2B820C0F6000001F091F94FF091
:1044C000FF30059002E000200590FFE7059806B058
:1044D00080BD000083B00290019101980A2815D197
:1044E000FFE7029800684CF6CD42CCF6CC42A0FB28
:1044F0000231C90801EB8101A0EB41000090029953
:104500000868A0FB0220C008086009E00298006863
:1045100000F00F0000900299086800090860FFE7AA
:10452000009803B0704700004EF6FC51CEF2000137
:10453000086840F08070086041F20401CEF200018A
:104540000020086041F20001CEF20001086840F04E
:1045500001000860012070472E20704780B588B0A8
:1045600006900591049200200390069818B1FFE789
:10457000059818B9FFE7002007903AE00698806890
:1045800003900498C8B1FFE7FFE703990020029069
:1045900051B1FFE705980399096AFBF71AFF002854
:1045A00018BF01200290FFE70298C00720B1FFE783
:1045B000039800680390E8E718E0FFE703990020FC
:1045C000019051B1FFE705980399096AFFF704FFCD
:1045D000002818BF01200190FFE70198C00720B113
:1045E000FFE7039800680390E8E7FFE70398079068
:1045F000FFE7079808B080BD80B584B00020039025
:1046000042F60C02C2F200021368591C116048F213
:104610001E31C0F600016A46916048F2F121C0F6F1
:104620000001516048F26B31C0F60001116048F2A0
:104630007831C0F6000148F27032C0F60002FEF791
:10464000DFF94FF4A060FDF749FFFFE74FF47A7000
:1046500001F020FFFAE7000080B582B0019000F081
:10466000A7FEFFF7C9FF02B080BD000080B5A8B06B
:10467000269025912492ADF88E3000208DF80D0003
:10468000259BBDF88E006946086048F2EF32C0F6FF
:1046900000020DF10E000290802102F08DFF0299C0
:1046A000269848F2A142C0F600026423FCF786FF78
:1046B00080B9FFE72698249948F23552C0F60002E7
:1046C0006423FCF77BFF20B9FFE700208DF89F00F3
:1046D00004E0FFE706208DF89F00FFE79DF89F00AC
:1046E00028B080BD80B588B0069005910020049068
:1046F00003900598C068B0F57A7F03D3FFE70020E8
:104700000790AAE00599C8680130C8600599086853
:104710008968405C5B2801D0FFE794E005998868D0
:10472000013088600598FFF7F9FC059870B1FFE744
:10473000059841688068884208D2FFE705990868B3
:104740008968405C5D2801D1FFE76BE0059830B1D6
:10475000FFE7059841688068884205D3FFE705991F
:104760008868013888606EE005998868013888603B
:10477000FFE705981030FFF77BFD0290029808B91B
:10478000FFE760E0049820B9FFE7029804900390E7
:1047900008E002980399086003980299486002981B
:1047A0000390FFE705998868013088600598FFF756
:1047B000B5FC0398059900F0A3FB08B9FFE742E0B8
:1047C0000598FFF7ABFCFFE705990020019091B138
:1047D000FFE70598426881680020914201900AD263
:1047E000FFE7059908688968405C2C38B0FA80F0CA
:1047F00040090190FFE70198C0070028B9D1FFE701
:10480000059868B1FFE7059841688068884207D23B
:10481000FFE7059908688968405C5D2801D0FFE7DB
:1048200011E0FFE70599C8680138C86006992020A3
:10483000C860049806998860059988680130886086
:104840000120079009E0049820B1FFE70498FFF7E2
:10485000A3FCFFE700200790FFE7079808B080BDA2
:1048600084B002900020019000900090FFE7009833
:1048700003284ED8FFE702980099405C30280EDBF1
:10488000FFE702980099405C392808DCFFE70298AE
:104890000099405C01990844303801902CE002985E
:1048A0000099405C41280EDBFFE702980099405CCC
:1048B000462808DCFFE702980099405C019908440B
:1048C0003738019017E002980099405C61280EDBB0
:1048D000FFE702980099405C662808DCFFE7029831
:1048E0000099405C019908445738019002E000208B
:1048F000039011E0FFE7FFE70098022804D8FFE7E4
:10490000019800010190FFE7FFE700980130009057
:10491000ADE701980390FFE7039804B070470000EB
:1049200080B5A0B01E901D91002006901B901A909B
:104930001990FFF711FE014606988DF82310079095
:104940001D9820B1FFE71D98006818B9FFE7002007
:104950001F90B5E000200790FFE7079900203E294F
:10496000059013D8FFE71D990020049059B1FFE787
:104970001D9842688068079901440020914238BF21
:1049800001200490FFE704980590FFE70598C00711
:10499000002800F04380FFE71D99086889680844F3
:1049A0000799405C2B38014603913A2800F2308089
:1049B0000399DFE801F01E2D1E272D1E1E1E1E1E50
:1049C0001E1E1E1E1E2D2D2D2D2D2D2D2D2D2D2D62
:1049D0001E2D2D2D2D2D2D2D2D2D2D2D2D2D2D2D16
:1049E0002D2D2D2D2D2D2D2D2D2D2D2D2D2D2D2DF7
:1049F0001E001D99086889680844079A805C09A907
:104A0000885406E09DF82300079A09A9885400E01D
:104A100005E0FFE70798013007909EE7FFE7079A58
:104A200009A801900021815419A903F043FB024613
:104A3000019802920A4602991B921A91199988428A
:104A400003D1FFE700201F903AE01A981B9A1E99A5
:104A5000CA6188611A981B990022CFF6C0724FF67E
:104A6000FF73C4F2DF13FBF711FD28B9FFE71E99AE
:104A70006FF00040486116E01A981B99002200234D
:104A8000CCF2E013FBF71DFD28B9FFE71E994FF0AC
:104A90000040486106E01A981B99FBF746FD1E99F5
:104AA0004861FFE7FFE71E990820C860199809A927
:104AB000421A1D9988681044886001201F90FFE702
:104AC0001F9820B080BD000080B588B00690059189
:104AD0000020049003900598C068B0F57A7F03D356
:104AE000FFE700200790DCE00599C8680130C86046
:104AF000059868B1FFE7059841688068884207D249
:104B0000FFE7059908688968405C7B2801D0FFE7CA
:104B1000BDE005998868013088600598FFF7FEFAC6
:104B2000059870B1FFE7059841688068884208D20F
:104B3000FFE7059908688968405C7D2801D1FFE797
:104B400094E0059830B1FFE7059841688068884295
:104B500005D3FFE7059988680138886097E00599D3
:104B6000886801388860FFE705981030FFF780FB00
:104B70000290029808B9FFE789E0049820B9FFE79E
:104B800002980490039008E0029803990860039843
:104B90000299486002980390FFE705998868013000
:104BA00088600598FFF7BAFA0398059900F07CF839
:104BB00008B9FFE76BE00598FFF7B0FA03990869B9
:104BC0000862039900200861059868B1FFE705981D
:104BD00041688068884207D2FFE7059908688968BC
:104BE000405C3A2801D0FFE751E005998868013020
:104BF00088600598FFF792FA0398059900F080F90C
:104C000008B9FFE743E00598FFF788FAFFE7059941
:104C10000020019091B1FFE705984268816800206B
:104C2000914201900AD2FFE7059908688968405CC3
:104C30002C38B0FA80F040090190FFE70198C007D6
:104C400000287FF491AFFFE7059868B1FFE705986A
:104C500041688068884207D2FFE70599086889683B
:104C6000405C7D2801D0FFE711E0FFE70599C868A7
:104C70000138C86006994020C86004980699886089
:104C800005998868013088600120079009E0049840
:104C900020B1FFE70498FFF77FFAFFE700200790B5
:104CA000FFE7079808B080BD80B58CB00A900991E5
:104CB00009990868896808440130089009990868CA
:104CC00089680844013007900020069005900999F2
:104CD00008688968405C222801D0FFE7F8E00020DE
:104CE00004900390FFE70798099A11685268411AE7
:104CF00000209142019007D2FFE707980078223800
:104D000018BF01200190FFE70198C007D0B1FFE76D
:104D1000079800785C2811D1FFE7079809990A687D
:104D20004968801A0130884201D3FFE7D0E0039838
:104D300001300390079801300790FFE70798013092
:104D40000790D0E7079809990A684968801A88424D
:104D500005D2FFE707980078222801D0FFE7B7E0E7
:104D60000798099A116892681144401A0399401AE9
:104D700004900998016904980130884705900598C6
:104D800008B9FFE7A4E005980690FFE7089807999F
:104D9000884280F08880FFE7089800785C2809D076
:104DA000FFE70898411C0891007806994A1C069272
:104DB000087077E002208DF80B0007980899401AD8
:104DC000002801DCFFE783E008984078223801469C
:104DD0000091532800F25F800099DFE801F0485C01
:104DE0005C5C5C5C5C5C5C5C5C5C5C485C5C5C5C17
:104DF0005C5C5C5C5C5C5C5C5C5C5C5C5C5C5C5CF3
:104E00005C5C5C5C5C5C5C5C5C5C5C5C5C5C5C5CE2
:104E10005C5C5C5C5C5C5C5C485C5C5C5C5C2A5C18
:104E20005C5C305C5C5C5C5C5C5C365C5C5C3C5C34
:104E3000424F0699481C0690082008702CE00699FD
:104E4000481C06900C20087026E00699481C069025
:104E50000A20087020E00699481C06900D20087072
:104E60001AE00699481C06900920087014E008987A
:104E7000407806994A1C069208700DE00898079938
:104E800006AA02F0B3FA8DF80B009DF80B0008B9E2
:104E9000FFE71DE000E01BE09DF80B1008980844B8
:104EA0000890FFE772E70699002008700A99102021
:104EB000C86005980A990861079809990A68801AD4
:104EC0008860099988680130886001200B9013E0A0
:104ED000059828B1FFE70998416905988847FFE7D9
:104EE000089830B1FFE7089809990A68801A886025
:104EF000FFE700200B90FFE70B980CB080BD00008F
:104F000080B584B002900191019820B1FFE701982B
:104F1000006818B9FFE700200390CCE00198F0B1D9
:104F2000FFE70198416880680430884217D8FFE79E
:104F3000019908688968084448F25E61C0F600017A
:104F40000422FBF754FA50B9FFE702990420C86025
:104F5000019988680430886001200390ABE00198D3
:104F6000E8B1FFE70198416880680530884216D8AB
:104F7000FFE7019908688968084448F23861C0F67B
:104F800000010522FBF733FA48B9FFE70299012037
:104F9000C860019A91680531916003908BE0019897
:104FA00000B3FFE70198416880680430884219D84F
:104FB000FFE7019908688968084448F23E61C0F635
:104FC00000010422FBF713FA60B9FFE702990220FF
:104FD000C860029901204861019A9168043191608A
:104FE000039068E0019898B1FFE7019841688068F4
:104FF00088420DD2FFE7019908688968405C222841
:1050000006D1FFE702980199FFF74EFE039052E0A8
:10501000019808B3FFE701984168806888421BD275
:10502000FFE7019908688968405C2D280ED0FFE7EA
:10503000019908688968405C30280DDBFFE7019919
:1050400008688968405C392806DCFFE70298019906
:10505000FFF766FC03902EE0019898B1FFE70198F6
:105060004168806888420DD2FFE701990868896825
:10507000405C5B2806D1FFE702980199FFF732FBFD
:10508000039018E0019898B1FFE7019841688068A3
:1050900088420DD2FFE7019908688968405C7B2847
:1050A00006D1FFE702980199FFF70EFD039002E099
:1050B00000200390FFE7039804B080BD80B590B056
:1050C000DDF850C0DDF84CC0DDF848C00F900E91FF
:1050D0000D920C9313980690129803901498420620
:1050E00048F25F21C0F6000148F27020C0F60000CF
:1050F000002A48BF084605909DF85000C0060028C9
:1051000005D5FFE7149820F001001490FFE71498EC
:10511000C1072020002918BF30208DF82F00002063
:105120008DF82E009DF850008007002823D5FFE75A
:105130000D98B0F1FF3F07DCFFE72D208DF82E0022
:105140000D9840420D9015E09DF850004007002852
:1051500004D5FFE72B208DF82E000AE09DF85000C3
:105160000007002804D5FFE720208DF82E00FFE778
:10517000FFE7FFE7FFE7002004900D9840B9FFE745
:10518000049A501C04900DF11E013020885414E044
:10519000FFE70D9880B1FFE7059802900C990DA8E4
:1051A000FFF798F901460298405C049A511C04915B
:1051B0000DF11E018854ECE7FFE70498139988422B
:1051C00003DDFFE704981390FFE713990398401A53
:1051D00003909DF8500010F0110F21D1FFE79DF8CA
:1051E0002E0040B1FFE70398012804DBFFE7039896
:1051F00001380390FFE7FFE70398411E0391012860
:105200000DDBFFE70F980E99884204D2FFE70F9954
:1052100020200870FFE70F9801300F90ECE7FFE7C0
:105220009DF82E0088B1FFE70F980E99884205D2AD
:10523000FFE79DF82E000F990870FFE703980138EB
:1052400003900F9801300F90FFE79DF85000C006C3
:10525000002816D4FFE7FFE70398411E03910128B9
:105260000EDBFFE70F980E99884205D2FFE79DF805
:105270002F000F990870FFE70F9801300F90EBE7B0
:10528000FFE7FFE7049813994A1E139288420DDA4C
:10529000FFE70F980E99884204D2FFE70F9930205C
:1052A0000870FFE70F9801300F90EBE7FFE70499D4
:1052B000481E049000200129019006DBFFE70698B4
:1052C000002818BF01200190FFE70198C00780B1B6
:1052D000FFE70F980E99884207D2FFE704990DF176
:1052E0001E00405C0F990870FFE70F9801300F9087
:1052F000DDE7FFE70398411E039101280DDBFFE77F
:105300000F980E99884204D2FFE70F992020087069
:10531000FFE70F9801300F90ECE70F9810B080BDB9
:1053200080B542F6B820C2F200000068804780BD18
:1053300080B586B042F61820C2F2000005900598AC
:105340006A461421D1600A2191604FF400715160C6
:1053500042F61801C2F20001116048F2A451C0F6F1
:10536000000144F25962C0F60002002301F066F821
:105370000490059801F0F0F806B080BD80B582B0C9
:1053800048F60C00C0F600000190FFE7019848F6CF
:105390001001C0F60001884208D2FFE701980068BA
:1053A0008047FFE7019804300190EFE702B080BD2D
:1053B00080B582B048F61000C0F600000190FFE70B
:1053C000019848F62001C0F60001884208D2FFE7A4
:1053D000019800688047FFE7019804300190EFE7EB
:1053E00002B080BD80B582B0FAF7BEFE019042F6F1
:1053F000D431C2F200010888013008800198FAF720
:10540000B7FE02B080BD000080B582B0FAF7ACFEF6
:10541000019042F6D430C2F20000018801390180C7
:10542000B0F90000002814DCFFE742F6D431C2F2E4
:105430000001002008800198FAF79AFE42F6C02089
:10544000C2F20000006818B1FFE700F07DFDFFE741
:1054500003E00198FAF78CFEFFE702B080BD000080
:1054600080B5092001F010FF40F22830C2F20000A0
:10547000006844F6D351C1F26201A0FB011080091B
:10548000FDF7B4FDFFF77AFF80BD000080B586B060
:10549000059000200190049003900D208DF80B00E2
:1054A000059800F01DFE0146019803910490FFE766
:1054B00004980399884219D2FFE705980499405C43
:1054C0000A2807D1FFE700200DF10B010122FDF7AB
:1054D00017FAFFE705980499014400200122FDF71F
:1054E0000FFAFFE7049801300490E1E706B080BDB1
:1054F00080B584B0039003980430029042F6C42033
:10550000C2F20000006870B1FFE742F6C420C2F2A8
:1055100000000168039888470190019810B9FFE7DF
:1055200004B080BDFFE70298C16B48F27470C0F60A
:10553000000000F055F90298016A48F2B160C0F627
:10554000000000F04DF90298416A48F2CB60C0F6C5
:10555000000000F045F90298816A48F2E560C0F663
:10556000000000F03DF90298C16A48F2FF60C0F601
:10557000000000F035F90298016848F20C70C0F69E
:10558000000000F02DF90298416848F21970C0F649
:10559000000000F025F90298816848F22670C0F6F4
:1055A000000000F01DF90298C16848F23370C0F69F
:1055B000000000F015F90298016948F24070C0F649
:1055C000000000F00DF90298416948F24D70C0F6F4
:1055D000000000F005F90298816948F2BE60C0F64B
:1055E000000000F0FDF80298C16948F2D860C0F6EA
:1055F000000000F0F5F80298016B48F2F260C0F686
:10560000000000F0EDF80298416B48F26770C0F6B8
:10561000000000F0E5F80298816B48F25A70C0F67D
:10562000000000F0DDF803980078400700280AD554
:10563000FFE700F061FF014648F28760C0F6000016
:1056400000F0CEF806E048F26D60C0F6000000F011
:10565000C7F8FFE7FFE7FEE787B0069005910492E1
:105660000393049804300190019820F00700019002
:105670000198403801900198029000200090FFE7C7
:1056800000980F280DD8FFE70299009A4BF6EF60BB
:10569000CDF6AD6041F82200FFE7009801300090A0
:1056A000EEE7059802990862029900204862029983
:1056B00088620299C8620299086303980299486354
:1056C00006980299886302994FF08070C863019828
:1056D00007B0704780B582B0FAF746FD019042F6F8
:1056E000CC21C2F200010878013008700198FAF765
:1056F0003FFD02B080BD000080B582B0FAF734FDF6
:10570000019042F6CC21C2F20001087801380870FD
:105710000198FAF72DFD02B080BD000080B582B07F
:1057200001900198006814380090009800F0BEFEC7
:10573000002002B080BD000080B586B005900491C5
:105740008DF80F20049800F027FF9DF80F00014608
:10575000009120B1FFE70098012806D032E00598BB
:105760000499143100F0BEF82DE00598006802900D
:10577000FFE702980599884218D0FFE7029814388D
:105780000190049890F83500019991F835108842FD
:1057900007DAFFE7019814300499143100F0A2F8F9
:1057A00004E0FFE7029800680290E2E7029805999A
:1057B000884206D1FFE705980499143100F092F869
:1057C000FFE700E0FFE7002006B080BD80B582B0B3
:1057D00001900198143000F029F8002002B080BD3B
:1057E00083B080B583B0079306920591029005A817
:1057F0000190029A019B42F6D420C2F20000FF21E0
:1058000001F040F900900098B0F5807F03D3FFE7E6
:10581000FF200090FFE742F6D420C2F20000FFF71D
:1058200035FE03B0BDE8804003B0704781B0009002
:10583000009840600099086001B0704781B0009006
:10584000009840600099086001B0704781B00090F6
:10585000009840600099086001B0704781B00090E6
:10586000009840600099086001B0704782B00190D4
:1058700000910098019909684860019800680099B2
:10588000086000980199086001980099486002B08A
:105890007047000082B0019000910098019909685A
:1058A00048600198006800990860009801990860B4
:1058B00001980099486002B07047000082B00190E2
:1058C0000091009801990968486001980068009962
:1058D000086000980199086001980099486002B03A
:1058E0007047000082B001900091009801994968CA
:1058F00008600198406800994860009801994860E4
:1059000001980099086002B07047000082B00190D1
:1059100000910098019949680860019840680099D1
:10592000486000980199486001980099086002B0A9
:105930007047000082B00190009100980199496879
:105940000860019840680099486000980199486093
:1059500001980099086002B07047000081B0009083
:1059600000990868401AB0FA80F0400901B0704709
:1059700081B0009000990868401AB0FA80F04009A0
:1059800001B0704781B0009000990868401AB0FAE1
:1059900080F0400901B0704781B000900098016824
:1059A000406848600099086849680860009840604D
:1059B0000099086001B0704781B0009000980168BC
:1059C000406848600099086849680860009840602D
:1059D0000099086001B0704781B00090009801689C
:1059E000406848600099086849680860009840600D
:1059F0000099086001B0704781B00090009801687C
:105A000040684860009908684968086000984060EC
:105A10000099086001B0704788B007900691059220
:105A20000798049006980390059800900098102815
:105A30004AD3FFE70398049908438007002843D11D
:105A4000FFE70498029003980190FFE70098102860
:105A500024D3FFE70198011D0191006802990A1DF6
:105A6000029208600198011D0191006802990A1DC7
:105A7000029208600198011D0191006802990A1DB7
:105A8000029208600198011D0191006802990A1DA7
:105A900002920860009810380090D7E7FFE700985E
:105AA00004280CD3FFE70198011D019100680299B9
:105AB0000A1D02920860009804380090EFE70298EF
:105AC000049001980390FFE7FFE70098411E0091C2
:105AD00048B1FFE70398411C0391007804994A1CE0
