:020000040800F2
:10000000682D002045010008410800080D02000885
:10001000AD06000851060008811800080000000025
:100020000000000000000000000000003112000885
:10003000A90600080000000097010008B513000899
:100040005F0100085F0100085F0100085F01000810
:100050005F0100085F0100085F0100085F01000800
:100060005F0100085F0100085F0100085F010008F0
:100070005F0100085F0100085F0100085F010008E0
:100080005F0100085F0100085F0100085F010008D0
:100090005F0100085F0100085F0100085F010008C0
:1000A0005F0100082D1400085F0100085F010008CF
:1000B0005514000879140008A11400085F01000815
:1000C0005F0100085F0100085F0100085F01000890
:1000D0005F0100084D160008C91600084517000802
:1000E0005F0100085F0100085F0100085F01000870
:1000F0005F0100085F0100085F0100085F01000860
:100100005F0100085F0100085F0100085F0100084F
:100110003D150008BD1500085F0100085F010008DB
:100120005F0100085F0100085F0100085F0100082F
:10013000DFF80CD000F03AFA00480047DD0500086F
:10014000682D00200648804706480047FEE7FEE786
:10015000FEE7FEE7FEE7FEE7FEE7FEE7FEE7FEE777
:10016000C513000831010008EFF3108072B6704724
:1001700080F310887047324A1368012B04D04FF087
:10018000010313602F4A10602F4A11602F484FF06F
:10019000805101607047EFF3108272B62848016801
:1001A00091B14FF0000101602648016829B1EFF3D9
:1001B000098121E9F00F0068016023490968096895
:1001C000B1E8F00F81F3098882F310884EF0040E35
:1001D00070471D4908601B494FF00000086018492E
:1001E0004FF0010008601A481A49D0F8002041EA8F
:1001F0000201016015484FF0805101601648006807
:10020000006880F3088861B662B670471EF0040F7C
:100210000CBFEFF30880EFF3098020E9F00F40F8FE
:1002200004ED1EF0040F0CBF80F3088880F30988EA
:1002300000B503F025FE5DF804EB4EF0040E7047A8
:10024000241D0020881A0020901A002004ED00E0F0
:1002500020ED00E00000FFFF08ED00E038B5D0E938
:100260000221491E01EB410102EBC1014268C1EBD1
:10027000011102EB81010268C1EB011102EB810265
:10028000D0E9043101EB410103EB81013023A1F5F9
:10029000527191FBF3F4174D6C4302EBC41291FBC6
:1002A000F3F403FB141100921A2902DB124B1A44D7
:1002B00000920C2291FBF2F3104C6343009C04EB80
:1002C000C313009391FBF2F302FB13110C4A08E0F5
:1002D000491E40F2A324535C6343009C04EBC31308
:1002E00000930029F4DC0146684600F0E1F800982C
:1002F00038BD00003F0C0F008051010067C20300B1
:10030000DC59000840EA01039B0703D009E008C953
:10031000121F08C0042AFAD203E011F8013B00F8CA
:10032000013B521EF9D27047D2B201E000F8012B16
:10033000491EFBD270470022F6E710B513460A4665
:1003400004461946FFF7F0FF204610BD421E12F882
:10035000013F002BFBD111F8013B02F8013B002BC0
:10036000F9D1704710B5044604E00B7800F8013B62
:1003700003B1491C521EF8D2204610BD421C10F891
:10038000011B0029FBD1801A7047034611F8012B8D
:1003900000F8012B002AF9D11846704730B5054600
:1003A0000020034600E05B1C934205D2EC5CC85C75
:1003B000201A01D1002CF6D130BD80EA010210B51F
:1003C00002F00043400022D04A001FD0010E01EB92
:1003D0001261C0F35600C2F3560240F4000042F42A
:1003E0000002A0FB022000047F39140400D0401C4E
:1003F00050EA124001D44000491EC2B20C0604EB80
:10040000D010401C4008802A02D003E0002010BD1C
:1004100020F00100002900DA0020184310BD002858
:1004200001DBC0F10040002901DBC1F10041814244
:1004300001D3012070470020704700F0004220F0F7
:100440000040C10DC0F3160040F400007F2901DA1E
:1004500000207047962903DCC1F19601C84001E0F5
:1004600096398840002AF4D04042704701F000439A
:1004700030B421F0004150EA010206D00A0DA2F585
:100480006072C1F31301002A02DC30BC0020704707
:10049000440F44EAC104C100E01830BC00EBC25074
:1004A00000F04CB8014900F003B8000088000020BB
:1004B00010B500683C22B0FBF2F302FB1303B0FB63
:1004C000F2F00B60B0FBF2F302FB1303B0FBF2F0AF
:1004D00018224B60B0FBF2F302FB1303B0FBF2F007
:1004E000021D8B600723B2FBF3F403FB1422800090
:1004F00040F2B55300F66C308A61B0FBF3F2B0FB0A
:10050000F3F403FB1400443280084A61C8613B28BD
:1005100002D3920700D0401C0022074C13460A6108
:10052000E25C824203D8801A5B1C0B61F8E7401C36
:10053000C860084610BD0000E85900080029A8BF9F
:100540007047401C490008BF20F00100704710B4FC
:10055000B0FA80FC00FA0CF050EA010404BF10BCB1
:10056000704749B1CCF1200421FA04F411FA0CF1DE
:1005700018BF012121430843A3EB0C01CB1D4FEA17
:1005800000614FEA102042BF002010BC704700EB12
:10059000C35010440029A4BF10BC7047401C490040
:1005A00008BF20F0010010BC704700001CB50948CE
:1005B0000090094801900546009C06E0E06840F084
:1005C000010394E8070098471034AC42F6D3FFF7D4
:1005D000B3FD0000506800087068000880B504F0A2
:1005E000C7FF002080BD000080B5012000F060F949
:1005F000002000F05DF980BD82B0ADF8060000205B
:10060000009046F60040C4F200000090BDF80610CD
:100610000098084400900098008802B070470000DD
:1006200082B0ADF80600ADF804100020009046F648
:100630000040C4F200000090BDF806100098084485
:100640000090BDF804000099086002B070470000F7
:10065000FFE7FEE782B001908DF803109DF80300DC
:1006600030B1FFE70199086840F00100086006E03A
:10067000019908684FF6FE7210400860FFE702B06B
:100680007047000081B000900098406880B201B0CF
:100690007047000082B00190ADF80210BDF8020072
:1006A0000199486002B0704770470000FFE7FEE71D
:1006B00080B582B04FF080500121019100F0DCF84C
:1006C00001994FF0006000F0D7F8019800F0C8F8E9
:1006D0000420FFF791FF4AF2B551884226D0FFE788
:1006E000FFF782FF012000F031F9FFE7612000F001
:1006F000EBF8012801D0FFE7F8E74FF4007000F0B5
:100700003DF9012000F02EF900F0A8F900F09AF967
:1007100049F63F4000F07EF900F094F900F06EF8E1
:1007200004204AF2B551FFF77BFF16E0012000F0EC
:100730000DF9FFE7612000F0C7F8012801D0FFE7BD
:10074000F8E74FF4007000F019F9012000F00AF901
:1007500000F084F900F076F9FFE7012002B080BDD7
:1007600010B58CB000F02AF900F5E1400B900BA811
:10077000FFF798FE8446DCF80000DCF80410DCF893
:100780000820DCF80C30DCF810E0DCF814400594AC
:10079000CDF810E00393029201910090DCF818006C
:1007A000DCF81C10DCF82020DCF82430DCF828C051
:1007B000CDF828C00993089207910690059800F299
:1007C0006C7040F20001C2F2000108800498013010
:1007D0004880039888800298C88001980881009812
:1007E00048816846FFF73AFD0B900B9840F21001E4
:1007F000C2F2000108600CB010BD000080B58CB0E2
:1008000040F20000C2F200000188A1F26C71059173
:1008100041880139049181880391C188029101893D
:100820000191408900906846FFF718FDA0F5E1406E
:100830000B900B9800F0D8F800F004F90CB080BDD4
:100840007047000081B0009000980021C0F2FA517A
:1008500008434EF60C51CEF20001086001B070471B
:1008600081B08DF803009DF803002021C4F20E2111
:10087000086001B07047000082B001908DF803104D
:100880009DF8030048B1FFE7019A41F21C01C4F250
:10089000020108681043086008E0019A41F21C0157
:1008A000C4F20201086890430860FFE702B0704795
:1008B00081B08DF803009DF8030040F24041C4F27E
:1008C0004221086001B0704784B08DF80F0000200D
:1008D000029001908DF803009DF80F0040090290EE
:1008E0000298012807D1FFE741F20000C4F202009C
:1008F0000068019012E00298022807D1FFE741F258
:100900002000C4F202000068019006E041F22400D9
:10091000C4F2020000680190FFE7FFE79DF80F00B6
:1009200000F01F00029001980299C840C00720B152
:10093000FFE701208DF8030003E000208DF803009D
:10094000FFE79DF8030004B07047000081B08DF808
:1009500003009DF8030040F28041C4F24221086088
:1009600001B0704781B08DF803009DF8030040F29C
:100970003C41C4F24221086001B0704781B0009050
:10098000009A41F22001C4F2020108681043086095
:1009900001B0704742F60401C4F20001088840F03B
:1009A000100008807047000042F60401C4F2000104
:1009B000088820F0100008807047000081B00020F7
:1009C000ADF8020042F61C00C4F200000088ADF849
:1009D000020042F61800C4F200000188BDF80200CF
:1009E00040EA014001B0704780B582B00190FFF746
:1009F000D1FFBDF8060042F61801C4F200010880DC
:100A0000019842F61C01C4F200010880FFF7CCFFF8
:100A100002B080BD80B582B00190FFF7BBFF0198A6
:100A2000C0F3034042F60801C4F2000108800198B7
:100A300042F60C01C4F200010880FFF7B5FF02B0D6
:100A400080BD0000FFE742F60400C4F20000008809
:100A50008006002801D4FFE7F5E7704742F604015D
:100A6000C4F20001088820F008000880FFE742F681
:100A70000400C4F2000000880007002801D4FFE74A
:100A8000F5E7704780B582B000200DF10701012223
:100A900000F03AF800900098012804D1FFE79DF893
:100AA0000700009003E04FF0FF300090FFE7009850
:100AB00002B080BD80B584B0FFE740F2B400C2F25E
:100AC0000000009000980078532803D0FFE700F062
:100AD000D9FEFFE7FFE740F2B400C2F20000603049
:100AE000039003980069029002980399C9688842AC
:100AF00003D0FFE70120019002E000200190FFE712
:100B0000019804B080BD000080B586B005900491C6
:100B10000392EFF311804FF0200181F311880190CF
:100B200005980499039A00F007F80290019880F361
:100B30001188029806B080BD80B58EB00D900C91E2
:100B40000B92FFE740F2B400C2F20000039003985A
:100B50000078532803D0FFE700F094FEFFE7FFE79B
:100B60000D9800EB400140F2B400C2F2000000EB2F
:100B7000C100603005900C980690059800690890B7
:100B80000598C06807900020099008980799884246
:100B900036D9FFE7059880680899401A0A900A98A4
:100BA0000B99884203D2FFE70A98029002E00B9863
:100BB0000290FFE702980A90059840680899084457
:100BC0000490069804990A9AFFF79CFB0A990998E1
:100BD000084409900A990698084406900A990B98C7
:100BE000401A0B900A9908980844089008980599AB
:100BF0008968884203D1FFE700200890FFE7FFE7FC
:100C000007980899401A0A900A980B99884203D2CB
:100C1000FFE70A98019002E00B980190FFE7019826
:100C20000A900A98D8B1FFE70598406808990844E7
:100C30000490069804990A9AFFF764FB0A990998A8
:100C4000084409900A990698084406900A990B9856
:100C5000401A0B900A99089808440890FFE70998F1
:100C600020B1FFE7089805990861FFE709980EB0E1
:100C700080BD000080B586B0059004910392FFE727
:100C800040F2B400C2F200000190019800785328AD
:100C900003D0FFE700F0F6FDFFE7FFE7EFF3118079
:100CA0004FF0200181F31188009005980499039A70
:100CB00000F008F80290009880F31188029806B0BE
:100CC00080BD000080B58AB009900891079208980D
:100CD0000490099800EB400140F2B400C2F2000019
:100CE00000EBC1001830039003984069029040B1B6
:100CF000FFE70298012819D0FFE7029802282CD0BC
:100D000032E0039800F00CFE0590059807998842A0
:100D100003D2FFE70020069007E0079806900398AB
:100D20000499079A01F084F8FFE720E0039800F0A7
:100D3000F7FD059005980799884203D2FFE70598CB
:100D4000019002E007980190FFE701980690039850
:100D50000499069A01F06CF809E003980499079A3F
:100D600000F0F6FF069002E000200690FFE70698EC
:100D70000AB080BD82B080B584B00793069203901C
:100D8000029106A80090039802996A4600F008F8BC
:100D90000190019804B0BDE8804002B070470000A7
:100DA00080B5AAB02990289127920DA821904020C3
:100DB000229000202390299925912490FFE72898DC
:100DC00000788DF89B002898013028909DF89B00B2
:100DD00008B9FFE717E29DF89B00252840F006823E
:100DE000FFE700201E9001202090FFE72898007860
:100DF0008DF89B009DF89B002338014609910D2832
:100E000029D80999DFE801F01F2727272727272757
:100E100017270727270F1E9840F001001E902898DB
:100E2000013028901AE01E9840F002001E90289889
:100E30000130289012E01E9840F004001E9028987F
:100E4000013028900AE01E9840F008001E90289873
:100E50000130289002E000202090FFE7FFE7209873
:100E60000028C3D1FFE700201D90FFE728980078F5
:100E70008DF89B009DF89B00302805DBFFE79DF86F
:100E80009B003A2801DBFFE710E02898013028900A
:100E90001D9800EB80019DF89B0000EB410030386D
:100EA0001D90FFE701200028E0D1FFE700201F9000
:100EB000289800788DF89B009DF89B002E2825D15E
:100EC000FFE7289801302890FFE7289800788DF8F0
:100ED0009B009DF89B00302805DBFFE79DF89B00F9
:100EE0003A2801DBFFE710E02898013028901F988E
:100EF00000EB80019DF89B0000EB410030381F9013
:100F0000FFE701200028E0D1FFE7FFE728980078FD
:100F10008DF89B00FFE79DF89B006C2805D0FFE74C
:100F20009DF89B00682808D1FFE728980130289099
:100F3000289800788DF89B0000E004E0FFE701208E
:100F40000028E8D1FFE79DF89B002538014608916D
:100F5000532800F246810899DFE811F0D8004301D8
:100F60004301430143014301430143014301430161
:100F70004301430143014301430143014301430151
:100F80004301430143014301430143014301430141
:100F90004301430143014301430143014301DD0098
:100FA0004301430143014301430143014301430121
:100FB0004301430143014301430143014301430111
:100FC00043018B00430143014301430143014301BA
:100FD0004301430143014301540063004301DD0029
:100FE00043014301430143014301430143014301E1
:100FF0004301C700430143019F00430177004301C0
:1010000043018B00279A1068011D11600068209031
:1010100020988DF833009DF8331021A800F05CFE75
:10102000E0E0279A1068011D116000682090209967
:101030001F9B1D98DDF878C06A46C2F804C0106096
:1010400021A80A2200F08CFCCCE0279A1068011D30
:1010500011600068209020991F9B1D98DDF878C0D2
:101060006A46C2F804C0106021A80A2200F05EFDA2
:10107000B8E0279A1068011D11600068209020993F
:101080001F9B1D98DDF878C06A46C2F804C0106046
:1010900021A8102200F04AFDA4E0279A1068011D43
:1010A000116000680B900B9830B9FFE745F6B96006
:1010B000C0F600000B90FFE7FFE70B9800788DF873
:1010C0009B000B9801300B909DF89B0008B9FFE73F
:1010D0000AE09DF89B1021A800F0FEFDFFE7249890
:1010E000B0F1FF3FE9DCFFE77CE0279A1068011DC3
:1010F0001160006820902099684600224260082311
:10110000036021A8102200F011FD6BE021A8252129
:1011100000F0E2FD66E0279A1068073020F0070132
:1011200001F10800106008684968FFF79FF90A900C
:101130000A980021FFF773F928B9FFE721A82D21AC
:1011400000F0CAFDFFE70A98FFF777F9069000283C
:10115000079002D506984042079007982090209962
:101160001F9B1D98DDF878C06A46C2F804C0106065
:1011700021A803900A22029200F0F2FB03982E218C
:1011800000F0AAFD0A980021C4F2C821FFF715F962
:10119000FFF753F904900028059002D504984042C7
:1011A0000590029A039805992091DDF880C048F2D5
:1011B0001F51C5F2EB118CFB0113591101EBD371D7
:1011C000642301FB13C1209120991D9BDDF878E079
:1011D000EC46CCF804E0CCF80030022300F0C0FB71
:1011E00000E0FFE728980130289005E09DF89B106B
:1011F00021A800F071FDFFE7FFE72498B0F1FF3F61
:101200003FF7DDADFFE7249801280EDBFFE72398C9
:1012100030B1FFE72998239A0DA9FFF72BFDFFE7CF
:101220002399249808442490FFE724982AB080BD8D
:101230007047000080B500F001F880BD84B0002048
:101240000390029041F20001C4F20201086840F4E8
:1012500080300860FFE741F20000C4F2020000683D
:1012600000F400300290039801300390FFE70299E8
:101270000020019039B9FFE70398B0F5A06018BFCE
:1012800001200190FFE70198C0070028E3D1FFE7A4
:1012900041F20000C4F2020000688003002803D578
:1012A000FFE70120029002E000200290FFE7029891
:1012B000012851D1FFE742F20001C4F2020108689F
:1012C00040F010000860086820F00300086008681B
:1012D00040F00200086041F20401C4F202010091F2
:1012E0000868086008680860086840F48060086062
:1012F000086820F47C100860086840F4E810086072
:1013000041F20001C4F20201086840F080700860F8
:10131000FFE741F20000C4F20200006880010028EB
:1013200001D4FFE7F5E741F20401C4F202010868C5
:1013300020F003000860086840F002000860FFE742
:1013400041F20400C4F20200006800F00C0008281A
:1013500001D0FFE7F4E700E0FFE704B070470000CA
:1013600080B582B0009000980138B0F1807F03D33F
:10137000FFE70120019019E0009801384EF21401B6
:10138000CEF2000108604FF0FF300F2100F092FD17
:101390004EF21801CEF20001002008604EF2100259
:1013A000CEF20002072111600190FFE7019802B020
:1013B00080BD000080B502F059FE03F027FC02F06A
:1013C00067FE80BD80B541F20002C4F202021068DF
:1013D00040F00100106041F20401C4F2020108680B
:1013E0000023CFF6FF031840086010684FF6FF7324
:1013F000CFF6F66318401060106820F4802010606B
:10140000086820F4FE00086041F20801C4F20201FD
:101410004FF41F000860FFF70DFF4EF60851CEF2A3
:1014200000014FF00060086080BD000080B542F60A
:101430000040C4F20100012100F052F840B1FFE782
:1014400042F60040C4F20100012100F03DF8FFE740
:1014500080BD000080B54FF08040012100F040F8D1
:1014600040B1FFE702F012FC4FF08040012100F094
:101470002BF8FFE780BD000080B540F20040C4F2C9
:101480000000012100F02CF840B1FFE740F20040DD
:10149000C4F20000012100F017F8FFE780BD000052
:1014A00080B540F60000C4F20000012100F018F8F9
:1014B00040B1FFE740F60000C4F20000012100F057
:1014C00003F8FFE780BD000082B00190ADF8021084
:1014D000BDF80200C0430199088202B070470000C5
:1014E00083B00290ADF8061000208DF80500ADF82D
:1014F0000200ADF800000298008ABDF8061008400E
:10150000ADF8020002988089BDF806100840ADF8D9
:101510000000BDF8020040B1FFE7BDF8000020B1B7
:10152000FFE701208DF8050003E000208DF805009D
:10153000FFE79DF8050003B07047000080B584B058
:1015400044F60040C4F2000040F2244100F038F9B3
:1015500088B3FFE744F60040C4F20000008803901F
:1015600044F60440C4F200000088039040F230408A
:10157000C4F2020001900021FFF76CF80198FFF718
:1015800081F801460198C1F1400141F65452C2F27E
:1015900000025180012102911170536804211970D9
:1015A0009178526851704021FFF774F801980299C0
:1015B000FFF750F8FFE704B080BD000080B582B0AF
:1015C00045F20000C4F2000040F2244100F0F8F8B7
:1015D000C8B1FFE745F20000C4F2000000880190A6
:1015E00045F20400C4F200000088019041F65C510D
:1015F000C2F200014A680520107088784A6850706D
:1016000001200870FFE745F20000C4F2000040F23C
:10161000255100F0D5F8B8B1FFE745F20000C4F25B
:10162000000000F025F98DF803009DF8030041F655
:101630005C5CC2F2000CDCF80410BCF80220531C05
:10164000ACF802308854FFE702B080BD80B584B0AA
:1016500043F60000C4F2010040F2244100F0B0F86B
:1016600078B3FFE743F60000C4F20100008803905E
:1016700043F60400C4F20100008803905820C4F22D
:10168000020001900021FEF7E5FF0198FEF7FAFF46
:1016900001460198C1F1400141F63C52C2F20002FC
:1016A000518001210291117053681970917852682C
:1016B00051704021FEF7EEFF01980299FEF7CAFF34
:1016C000FFE704B080BD000080B584B044F2004064
:1016D000C4F2000040F2244100F072F880B3FFE74A
:1016E00044F20040C4F200000088039044F2044039
:1016F000C4F20000008803906C20C4F20200019044
:101700000021FEF7A7FF0198FEF7BCFF01460198F4
:10171000C1F1400141F64452C2F200025180012160
:1017200002911170536802211970917852685170BA
:101730004021FEF7AFFF01980299FEF78BFFFFE70C
:1017400004B080BD80B584B044F60000C4F200004F
:1017500040F2244100F034F880B3FFE744F6000083
:10176000C4F200000088039044F60400C4F20000B4
:10177000008803903020C4F2020001900021FEF79F
:1017800069FF0198FEF77EFF01460198C1F1400113
:1017900041F64C52C2F200025180012102911170B7
:1017A0005368032119709178526851704021FEF7F7
:1017B00071FF01980299FEF74DFFFFE704B080BD6D
:1017C00086B00590ADF812100020039002900190B1
:1017D0008DF80300BDF8120040F66A11884201D16D
:1017E000FFE7FFE79DF8120040090190BDF81200E5
:1017F00000F01F0002900299012088400290019899
:10180000012806D1FFE705988189029808400290D7
:1018100010E00198022806D1FFE70598018A029896
:101820000840029005E00598818A029808400290DD
:10183000FFE7FFE79DF8130003900399012088401C
:10184000039005980188039808400390029838B1E6
:10185000FFE7039820B1FFE701208DF8030003E0C4
:1018600000208DF80300FFE79DF8030006B07047E5
:1018700081B00090009880886FF35F2001B07047BE
:10188000FFE7FEE780B582B040F2B400C2F200008C
:1018900001900198A821FEF74EFD019903200861EF
:1018A00001994861019845F6B061C0F60001816177
:1018B000019A40F26C10C2F20000D061019A4FF41C
:1018C00080501062019A00209062019A5062019A41
:1018D000D062019A1166019A40F25C11C2F20001D5
:1018E0005166019A10219166019908670199C866AD
:1018F000019948670090FFE700980F280ED8FFE78E
:10190000009A45F6F410C0F60000801AC07B0199D9
:101910008854FFE7009801300090EDE702B080BDE9
:1019200084B003900398006902900398C068019006
:1019300002980199884209D8FFE7039881680198C5
:10194000C043084402990844009005E002990198B8
:10195000C04308440090FFE7009804B070470000BF
:1019600010B58CB0DDF83CC0DDF838C00B900A91A2
:10197000099208930A98B0F1FF3F04DCFFE70A9848
:101980004042059002E00A980590FFE7059806900E
:1019900001200790FFE706980999884209DBFFE7D5
:1019A0000698099990FBF1F006900798013007908E
:1019B000F1E708980799884203D9FFE7089807904C
:1019C000FFE70E9870B1FFE70A98002806D4FFE7FA
:1019D0009DF83C004007002804D5FFE70E98013829
:1019E0000E90FFE79DF83C008007002803D5FFE735
:1019F000089858B3FFE79DF83C00C00730BBFFE7ED
:101A00000E9810B3FFE7FFE70E990020049041B154
:101A1000FFE707990E9A0020914238BF01200490F9
:101A2000FFE70498C00778B1FFE70E9801380E90E1
:101A30000B98202100F050F90B98C068B0F1FF3FDF
:101A400001DCFFE700E0DFE7FFE7FFE70B98C06896
:101A5000002869D4FFE70A98B0F1FF3F08DCFFE7F0
:101A60000A9840420A900B982D2100F035F90CE0BD
:101A70009DF83C004007002805D5FFE70B982B2177
:101A800000F02AF900E0FFE7FFE70B98C0680028A4
:101A900049D4FFE79DF83C00800700282ED5FFE7DA
:101AA0009DF83C00C00748BBFFE7089830BBFFE744
:101AB0000E9810B3FFE7FFE70E990020039041B1A5
:101AC000FFE707990E9A0020914238BF012003904A
:101AD000FFE70398C00778B1FFE70E9801380E9032
:101AE0000B98302100F0F8F80B98C068B0F1FF3F78
:101AF00001DCFFE700E0DFE7FFE7FFE70B98C068E6
:101B000000280FD4FFE70B980A99099A089BDDF883
:101B100038C00F9CEE46CEF80440CEF800C000F06E
:101B200005F8FFE7FFE7FFE70CB010BD80B58CB00C
:101B3000DDF83CC0DDF838C00B900A91099208939B
:101B40000A980590012006900490FFE705980999EE
:101B5000884209D3FFE705980999B0FBF1F0059099
:101B6000049801300490F1E708980499884203D959
:101B7000FFE708980490FFE79DF83C00C007C0BB52
:101B8000FFE70E98A0B3FFE79DF83C008007002810
:101B900007D5FFE7089820B9FFE730208DF80F0040
:101BA00003E020208DF80F00FFE7FFE70E990020EB
:101BB000029041B1FFE704990E9A0020914238BF8C
:101BC00001200290FFE70298C00780B1FFE70E985E
:101BD00001380E900B989DF80F1000F07DF80B98CF
:101BE000C068B0F1FF3F01DCFFE700E0DEE7FFE7A0
:101BF000FFE70B98C06800286CD4FFE7FFE7089860
:101C0000022804D3FFE70898013808900BE00A98EF
:101C10000699B0FBF1F0079007980999884201D224
:101C2000FFE705E0FFE70999069848430690E6E7D5
:101C3000FFE70A980699B0FBF1F00790079806991C
:101C40000A9A00FB11200A900B98079A45F6052185
:101C5000C0F60001895C00F03FF80B98C068B0F155
:101C6000FF3F01DCFFE709E009990698B0FBF1F0BE
:101C70000690FFE706980028DBD1FFE79DF83C00BF
:101C8000C00730B3FFE70E9810B3FFE7FFE70E99E8
:101C90000020019041B1FFE704990E9A0020914283
:101CA00038BF01200190FFE70198C00778B1FFE736
:101CB0000E9801380E900B98202100F00DF80B982B
:101CC000C068B0F1FF3F01DCFFE700E0DFE7FFE7BE
:101CD000FFE7FFE70CB080BD80B584B003908DF8BE
:101CE0000B100398806801900198013003994968AE
:101CF00088420FD8FFE79DF80B0003990968019A05
:101D0000885401980130039988600399C8680130AC
:101D1000C860FFE7039841688068884215D1FFE7F3
:101D20000398016882680069FEF7A4FF0399896837
:101D3000884205D0FFE703994FF0FF30C86003E009
:101D4000039900208860FFE7FFE704B080BD000032
:101D500080B58AB0099008910792002005900998F3
:101D6000C0680390FFE709980069049004980399FC
:101D7000884206D9FFE704990398C04308440690B7
:101D800008E0099881680398049A801AC0430844BF
:101D90000690FFE7069809998968039A891A88428C
:101DA00003D2FFE70698019005E00998806803993F
:101DB000401A0190FFE7019806900698079988421B
:101DC00003D2FFE70698009002E007980090FFE733
:101DD0000098069009984068039908440290029878
:101DE0000899069AFEF78EFA069905980844059018
:101DF000069908980844089006990798401A079091
:101E000006990398084403900398099989688842C1
:101E100003D1FFE700200390FFE703980999C8600A
:101E2000FFE7079800289ED1FFE705980AB080BD1C
:101E300080B588B00790069105920798C068039016
:101E4000079880680399401A029002980599884281
:101E500010D9FFE70798406803990844019001985A
:101E60000699059AFEF74EFA0398059908440799D2
:101E7000C8601DE0029804900798406803990844E0
:101E8000019001980699049AFEF73CFA0598029988
:101E9000401A049007984068019001980699029AA8
:101EA0001144049AFEF72EFA04980799C860FFE7D8
:101EB00008B080BD82B08DF8070000919DF9070041
:101EC00000280AD4FFE7009800019DF907104EF2A0
:101ED0000042CEF2000288540BE0009800019DF809
:101EE000071001F00F014EF61452CEF20002885492
:101EF000FFE702B07047000082B00090009818B968
:101F0000FFE70020019033E09DF8000050B1FFE7AB
:101F10009DF8001045F61520C0F60000405C013029
:101F2000019025E09DF8010050B1FFE79DF80110F8
:101F300045F61520C0F60000405C0930019017E01E
:101F40009DF8020050B1FFE79DF8021045F61520FC
:101F5000C0F60000405C1130019009E09DF80310CC
:101F600045F61520C0F60000405C19300190FFE7EF
:101F7000019802B07047000080B592B010900F91A8
:101F80000E9200200C90FFE710980C99415C002005
:101F90002029029010D0FFE710980C99415C002096
:101FA0000929029008D0FFE70C990F9A002091426E
:101FB00038BF01200290FFE70298C00720B1FFE779
:101FC0000C9801300C90DFE70C9820B9FFE74FF038
:101FD000FF3011902BE010980C9901F0ADFB0B90A5
:101FE0000B9820B9FFE74FF0FF3011901FE0002061
:101FF00001900A900990089007900690059004902F
:10200000039010980F9903AA01F014FC0D900D98FD
:1020100020B9FFE74FF0FF30119008E00B9A0D98C0
:1020200003A990470E99086000201190FFE71198CE
:1020300012B080BD80B588B084460D980C98DDF84C
:102040002CE0DDF828E0CDF81CC006910592049341
:102050008DF80F000798143002F06CF80598079976
:1020600008620498079948620A98079988620B9851
:102070000799C8620799886ACA6A232102F086F91B
:10208000079B186A596A9A6ADB6A1A44043A44F64A
:102090008D03C0F6000301F0ABFF0799C8619DF8FE
:1020A0000F00079981F836009DF80F00079981F815
:1020B000350007980021029181630D98079A5064BA
:1020C0000D98079A906407980163079880F8341078
:1020D000079881670798C167079B03F14C006A4620
:1020E0005160116044F60132C0F60002194602F058
:1020F0006DFE029808B080BD80B586B08446089811
:10210000CDF814C00491039202938DF807009DF856
:102110000700059948720599487A00F0FE00487258
:1021200004980599C86103980599086205990020EB
:1021300088620299059A51620090FFE70098002892
:102140000CDCFFE70598009900EBC100143001F0AA
:10215000F9FFFFE7009801300090EFE706B080BD7F
:1021600080B582B0019000200090FFE70098002821
:102170000CDCFFE70198009900EBC100143002F07D
:10218000B3F8FFE7009801300090EFE702B080BDA0
:1021900080B582B00190FDF7E7FF00900198806F55
:1021A00020B1FFE70198816F8847FFE70098FDF7AE
:1021B000DFFF02B080BD000080B582B046F257302C
:1021C000C0F6000001F080FF4EF62950CEF200006C
:1021D0000190017846F2EC40C0F6000001F074FF77
:1021E00001980078C00738B1FFE746F2D740C0F643
:1021F000000001F069FFFFE74EF62950CEF2000023
:1022000000788007002807D5FFE746F2CC40C0F6EB
:10221000000001F059FFFFE74EF62950CEF2000012
:1022200000784007002807D5FFE746F2CA40C0F60D
:10223000000001F049FFFFE74EF62950CEF2000002
:1022400000780007002807D5FFE746F2C040C0F637
:10225000000001F039FFFFE74EF62950CEF20000F2
:102260000078C006002807D5FFE746F2C240C0F656
:10227000000001F029FFFFE74EF62950CEF20000E2
:102280000078000600280CD5FFE74EF63850CEF255
:102290000000016846F26330C0F6000001F014FF50
:1022A00006E046F28510C0F6000001F00DFFFFE7E2
:1022B00002B080BD80B582B00190009100F060FF57
:1022C000002002B080BD000083B00290019101980F
:1022D0000A2815D1FFE7029800684CF6CD42CCF6EB
:1022E000CC42A0FB0231C90801EB8101A0EB410007
:1022F000009002990868A0FB0220C008086009E06D
:102300000298006800F00F00009002990868000928
:102310000860FFE7009803B07047000080B584B004
:1023200041F63850C2F20000006890F821004008E1
:10233000C00740B9FFE741F2EC10C2F200000021F3
:10234000017003903FE041F2F020C2F2000000680B
:1023500088B1FFE741F2F020C2F20000016841F2CB
:10236000EC10C2F2000002904FF48072FDF7FAFF09
:102370000298039027E001F05BFA58B1FFE741F2C1
:10238000EC10C2F2000046F2D021C0F60001FDF7C9
:10239000FCFF0AE041F2EC10C2F2000046F2D52147
:1023A000C0F60001FDF7F1FFFFE741F2EC10C2F2C9
:1023B0000000019046F2DC21C0F60001FDF7C6FFE7
:1023C00001980390FFE7039804B080BD80B501F049
:1023D00013FD80BD81B000909DF8002041F638507B
:1023E000C2F20000016891F8210002F0010200F041
:1023F000FD0040EA420081F8210001B07047000072
:1024000082B001900091019841F2E411C2F2000102
:102410000860009841F2E811C2F20001086002B0C1
:102420007047000080B588B000200490079046F205
:10243000D450C0F6000046F2D061C0F60001FFF7AC
:10244000DFFF049B41F63851C2F20001059141F2D1
:102450006C10C2F20000086041F2F420C2F20000E9
:1024600006906A460A21D160152191604FF480617F
:10247000516041F27431C2F20001116046F2E12173
:10248000C0F6000142F2C942C0F6000202F060FA52
:10249000049B014605980791006846F2ED21C0F6BD
:1024A00000011A4602F000F90120FFF793FF069899
:1024B00038B1FFE7079820B9FFE7069802F0D6FA8F
:1024C000FFE7002008B080BD80B58AB0099041F6D2
:1024D0003850C2F20000016891F8210040F001007C
:1024E00081F82100FFF71AFF01F0EEFDFFE7FFF78B
:1024F0006DFF08900898B0F1FF3F01DCFFE7F6E7B9
:1025000008981B2809D1FFE741F63850C2F20000B5
:102510000168012081F82000E9E741F63850C2F255
:102520000000006890F82000012816D1FFE7089805
:102530005B2809D1FFE741F63850C2F2000001687C
:10254000022081F82000D2E741F63850C2F20000A4
:102550000168002081F8200069E041F63850C2F29D
:102560000000006890F8200002285FD1FFE741F6E4
:102570003850C2F200000168002081F8200008985D
:10258000412801D1FFE7B2E70898422801D1FFE7CF
:10259000ADE7089844281BD1FFE741F63850C2F256
:1025A00000000068B0F8740088B1FFE746F2CE2062
:1025B000C0F6000001F088FD41F63850C2F200007C
:1025C0000168B1F874000138A1F87400FFE78EE7E4
:1025D0000898432826D1FFE741F63850C2F20000A0
:1025E0000168B1F87400B1F87210884219DAFFE797
:1025F00041F63850C2F2000004900068B0F8741040
:10260000084490F8221046F2DE20C0F6000001F0E7
:102610005BFD04980168B1F874000130A1F8740002
:10262000FFE764E7FFE7FFE7FFE7FFE7FFE7FFE715
:10263000089820B1FFE70898FF2801D1FFE756E787
:10264000089809282FD1FFE700200790FFE7079897
:1026500041F63851C2F200010968B1F8741088429D
:102660000BDAFFE746F2CE20C0F6000001F02CFDA9
:10267000FFE7079801300790E9E741F63850C2F2CA
:10268000000003900068223002F088FF0398006881
:102690002230FDF773FE03990A68A2F872000968F8
:1026A000A1F8740023E708987F2804D0FFE7089872
:1026B000082877D1FFE741F63850C2F200000068E1
:1026C000B0F8740008B9FFE711E741F63850C2F2DC
:1026D00000000268B2F872100139A2F872100268A4
:1026E000B2F874100139A2F874100168B1F87200E0
:1026F000B1F87410884242DDFFE741F63850C2F26B
:10270000000002900268B2F87430D11801F1220082
:102710002331B2F87220D21A01F0F6FD0298016856
:10272000B1F872200A44002182F822100068B0F843
:102730007410084400F1220146F2C920C0F60000DE
:1027400001F0C2FC02980068B0F874000690FFE740
:10275000069841F63851C2F200010968B1F87210CA
:1027600088420BDCFFE746F2CE20C0F6000001F005
:10277000ABFCFFE7069801300690E9E711E046F26E
:10278000C520C0F6000001F09FFC41F63850C2F2AF
:1027900000000068B0F872100144002081F82200A7
:1027A000FFE7A4E6FFE7FFE708980D2804D0FFE75E
:1027B00008980A283AD1FFE701F03AF801281DD11C
:1027C000FFE741F63850C2F20000006890F821009F
:1027D000C00738B1FFE746F28510C0F6000001F0EF
:1027E00073FCFFE741F63850C2F20000016801F1C6
:1027F0002200B1F8721000F03DFF00E0FFE7FFF7A4
:102800008DFD01F061FC41F63850C2F200000190EC
:10281000006822305021FDF78EFD01990A680020E2
:10282000A2F872000968A1F8740060E641F6385019
:10283000C2F200000068B0F87200502809DBFFE720
:1028400041F63850C2F2000001680020A1F8720081
:10285000FFE741F63850C2F200000168B1F8740099
:10286000B1F87210884250DAFFE741F63850C2F2F0
:10287000000000900268B2F87430D11801F1230012
:102880002231B2F87220D21A01F03EFD0098089968
:102890000268B2F874301A4482F82210006890F886
:1028A0002100C00788B1FFE741F63850C2F20000AE
:1028B0000068B0F87410084400F1220146F2EA20E2
:1028C000C0F6000001F000FCFFE741F63850C2F20C
:1028D00000000068B0F874000590FFE7059841F625
:1028E0003851C2F200010968B1F8721088420BDA5F
:1028F000FFE746F2CE20C0F6000001F0E5FBFFE75F
:10290000059801300590E9E719E0089941F638503B
:10291000C2F200000268B2F872301A4482F8221043
:10292000006890F82100C00740B1FFE7089946F21F
:10293000DE20C0F6000001F0C7FBFFE7FFE7002044
:10294000089041F63850C2F200000268B2F87210E6
:102950000131A2F872100268B2F874100131A2F8C5
:1029600074100068B0F8720050280CDBFFE741F6E5
:102970003851C2F200010A680020A2F8720009680A
:10298000A1F87400FFE7B2E580B54EF62C50CEF208
:10299000000000688007002807D5FFE746F2833073
:1029A000C0F6000001F090FBFFE74EF62C50CEF28F
:1029B00000000068400000281FD5FFE74EF62950B0
:1029C000CEF20000007818B1FFE7FFF7F5FBFFE754
:1029D0004EF62850CEF20000007818B1FFE700F064
:1029E0006FFDFFE74EF62A50CEF20000008818B1C6
:1029F000FFE702F067FFFFE7FFE74EF62C50CEF24D
:102A000000000068C00F38B1FFE746F29830C0F60A
:102A1000000001F059FBFFE780BD000080B545F6DE
:102A2000C060C0F6000001F04FFB002080BD000038
:102A300080B582B045F6C970C0F6000001F044FBD5
:102A400041F2E410C2F2000000680190FFE7019833
:102A500041F2E811C2F20001096888421AD2FFE788
:102A60000198006846F21421C0F600010222FDF729
:102A700095FC08B9FFE709E001980168426846F251
:102A80006510C0F6000001F01FFBFFE701980C3055
:102A90000190DCE7002002B080BD000080B59AB054
:102AA00000200B9046F24920C0F60000099014A8BF
:102AB00004210CAA0823059300F080F805980A90D9
:102AC0000A99099A46F25100C0F6000001F0FCFA9A
:102AD0000A9800F097FF45F69A70C0F6000001F0E2
:102AE000F3FAFFE70B9814A900F08AF80B90002086
:102AF0000890FFE708981899884256DAFFE7089986
:102B00000CA850F821000C380790FDF72DFB199008
:102B10000798007A00F07F009DF85810884204D092
:102B2000FFE71998FDF724FB3BE01998FDF720FB20
:102B3000079806900698143001F070FB18BBFFE769
:102B40000A98029006980390C1690491143001F02C
:102B500083FB0299039B844604986A46C2F804C02A
:102B6000106046F2FF10C0F60000082201F0ACFA37
:102B70000698143002F032FD46F28510C0F60000CF
:102B800001F0A2FA0CE00A99069BD8696A46106027
:102B900045F6B770C0F60000082201F095FAFFE78D
:102BA000FFE7089801300890A4E7FFE70B9800289A
:102BB00098D1FFE700201AB080BD000080B586B034
:102BC00005908DF81310039202939DF8130001F005
:102BD00049FC019001980430009000980599086024
:102BE0009DF81300059908720398059948600298AA
:102BF0000599C86005990020086106B080BD0000F5
:102C000080B58AB008900791002006900799086166
:102C10000798C06820B1FFE70798007A18B9FFE766
:102C20000020099050E0079800680390089828B9A0
:102C3000FFE7039804900120069002E008980490B2
:102C4000FFE7FDF791FA0590069898B9FFE7049819
:102C50000C3800900098007A00F07F000799097AFC
:102C6000884206D0FFE70598FDF782FA0020099018
:102C70002AE0FFE700200190079840680290FFE7F4
:102C800004980068049004980399884203D1FFE7F0
:102C9000002004900FE001980130019004980299FF
:102CA0000A1D0292086001980799C968884201D1FB
:102CB000FFE700E0E4E70598FDF75AFA0198079965
:102CC000086104980990FFE709980AB080BD0000E8
:102CD00080B5A0B00020119046F25520C0F600004B
:102CE0000F901AA8052112AA08230B93FFF766FF7D
:102CF0000B98109010990F9A46F2B100C0F60000A0
:102D000001F0E2F9109800F07DFE45F65F70C0F624
:102D1000000001F0D9F9FFE711981AA9FFF770FF39
:102D2000119000200E90FFE70E981E9988426EDAEF
:102D3000FFE70E9912A850F821000C380D90FDF70E
:102D400013FA1F900D98007A00F07F009DF8701024
:102D5000884204D0FFE71F98FDF70AFA53E01F9856
:102D6000FDF706FA0D980C900C98143001F056FA05
:102D700048BBFFE7109808900C980990418C0A9185
:102D8000018C0791143001F067FADDF81CC0089936
:102D9000099B86460A986A46C2F808E0C2F804C051
:102DA000106046F2E910C0F60000082201F08CF92C
:102DB0000C98143002F012FC46F28510C0F60000A8
:102DC00001F082F91EE0109804900C980590418C57
:102DD0000691018C0391143001F03EFADDF80CC02D
:102DE0000499059B864606986A46C2F808E0C2F830
:102DF00004C0106045F6FC70C0F60000082201F027
:102E000063F9FFE7FFE70E9801300E908CE7FFE7CC
:102E1000119800287FF480AFFFE7002020B080BD2C
:102E200080B59EB000200F9046F23120C0F6000021
:102E30000D9018A8062110AA08230993FFF7BEFEDB
:102E400009980E900E990D9A46F2D200C0F6000035
:102E500001F03AF90E9800F0D5FD45F63370C0F652
:102E6000000001F031F9FFE70F9818A9FFF7C8FE3D
:102E70000F9000200C90FFE70C981C99884262DAB2
:102E8000FFE70C9910A850F821000C380B90FDF7C3
:102E90006BF91D900B98007A00F07F009DF8681088
:102EA000884204D0FFE71D98FDF762F947E01D98BE
:102EB000FDF75EF90B980A900A98143001F0AEF90C
:102EC00018BBFFE70E9806900A980790818C08912E
:102ED000143001F0C1F90699079B844608986A46A8
:102EE000C2F804C0106046F2C810C0F60000082204
:102EF00001F0EAF80A98143002F070FB46F28510EF
:102F0000C0F6000001F0E0F818E00E9803900A986F
:102F10000490818C0591143001F09EF90399049B73
:102F2000844605986A46C2F804C0106045F6DB7016
:102F3000C0F60000082201F0C7F8FFE7FFE70C9891
:102F400001300C9098E7FFE70F9800287FF48CAFD2
:102F5000FFE700201EB080BD80B59EB000200F901E
:102F600046F24F20C0F600000D9018A8032110AAC9
:102F700008230993FFF722FE09980E900E990D9AE7
:102F800046F28D00C0F6000001F09EF80E9800F0A9
:102F900039FD45F67B70C0F6000001F095F8FFE7BB
:102FA0000F9818A9FFF72CFE0F9000200C90FFE758
:102FB0000C981C9988423FDAFFE70C9910A850F84A
:102FC00021000C380B90FDF7CFF81D900B98007A7C
:102FD00000F07F009DF86810884204D0FFE71D983C
:102FE000FDF7C6F824E01D98FDF7C2F80B980A908B
:102FF0000E9807900A980890016A0691C17F059182
:10300000143001F029F9DDF814C0069A0799089BDD
:1030100086466846C0F80CE0C0F808C04260082246
:10302000026046F21200C0F6000001F04DF8FFE722
:103030000C9801300C90BBE7FFE70F980028AFD148
:10304000FFE700201EB080BD80B59EB000200F902D
:1030500046F22720C0F600000D9018A8022110AA01
:1030600008230993FFF7AAFD09980E900E990D9A6F
:1030700046F27300C0F6000001F026F80E9800F04A
:10308000C1FC45F64A70C0F6000001F01DF8FFE7EC
:103090000F9818A9FFF7B4FD0F9000200C90FFE7E0
:1030A0000C981C99884262DAFFE70C9910A850F836
:1030B00021000C380B90FDF757F81D900B98007A03
:1030C00000F07F009DF86810884204D0FFE71D984B
:1030D000FDF74EF847E01D98FDF74AF80B980A9067
:1030E0000A98143001F09AF818BBFFE70E98069082
:1030F0000A980790818B0891143001F0ADF8069979
:10310000079B844608986A46C2F804C0106046F2DD
:10311000D910C0F60000082200F0D6FF0A9814303B
:1031200002F05CFA46F28510C0F6000000F0CCFF19
:1031300018E00E9803900A980490818B0591143042
:1031400001F08AF80399049B844605986A46C2F800
:1031500004C0106045F6EC70C0F60000082200F0D4
:10316000B3FFFFE7FFE70C9801300C9098E7FFE70B
:103170000F9800287FF48CAFFFE700201EB080BDC1
:1031800080B5BAB000202B9046F21720C0F60000A0
:103190002A9034A801212CAA08230393FFF70EFDDF
:1031A0000398299029992A9A46F22110C0F6000026
:1031B00000F08AFF299800F025FC45F6D260C0F6A1
:1031C000000000F081FFFFE72B9834A9FFF718FDFE
:1031D0002B9000202890FFE728983899884280F2A9
:1031E000A580FFE728992CA850F821000C382790DB
:1031F000FCF7BAFF39902798007A00F07F009DF81D
:10320000D810884204D0FFE73998FCF7B1FF89E075
:10321000279907A88022FDF775F83998FCF7A8FFD1
:10322000279806902999069B93F835006A46106006
:1032300046F2A210C0F60000082200F045FF0698F2
:1032400090F8340000F00F008DF817009DF817007B
:10325000012807D1FFE746F29910C0F6000000F000
:1032600033FF32E09DF81700022807D1FFE746F24E
:103270001E20C0F6000000F027FF25E09DF8170093
:1032800038B9FFE746F28710C0F6000000F01CFFD7
:1032900019E09DF81700042807D1FFE746F29010C7
:1032A000C0F6000000F010FF0CE09DF817000328A6
:1032B00007D1FFE746F23A20C0F6000000F004FF15
:1032C000FFE7FFE7FFE7FFE7FFE70698806A049064
:1032D000FFE704980078232804D1FFE70498013021
:1032E0000490F6E70698C169836AC26AD0F830E0B4
:1032F000591A1144DDF810C0A3EB0C0313444FF02E
:10330000640C03FB0CF3B3FBF2F3806CEC46CCF8DB
:1033100004E0CCF8000046F22900C0F6000000F0FE
:10332000D3FEFFE728980130289055E7FFE72B9858
:1033300000287FF449AFFFE700203AB080BD0000CD
:1033400080B598B00020099046F24320C0F60000F6
:10335000079012A80A210AAA08230393FFF72EFC5C
:10336000039808900899079A46F2FB00C0F60000FF
:1033700000F0AAFE089800F045FB45F60F70C0F675
:10338000000000F0A1FEFFE7099812A9FFF738FC42
:10339000099000200690FFE706981699884243DAC4
:1033A000FFE706990AA850F821000C380590FCF7B1
:1033B000DBFE17900598007A00F07F009DF8501012
:1033C000884204D0FFE71798FCF7D2FE28E0179850
:1033D000FCF7CEFE059804900899049B586AD3F830
:1033E00028C06A46C2F804C0106046F2AE10C0F6AB
:1033F0000000082200F068FE0498407AC00738B147
:10340000FFE746F2F000C0F6000000F05DFE06E0C7
:1034100046F2EE00C0F6000000F056FEFFE7FFE7C0
:10342000069801300690B7E7FFE709980028ABD16E
:10343000FFE701F0E5FB014646F27210C0F600001E
:1034400000F042FE002018B080BD000080B584B0BE
:103450000020039041F2F472C2F200021368591C7A
:10346000116045F6A361C0F600016A46916045F619
:103470007161C0F60001516045F69E61C0F6000121
:10348000116045F67761C0F6000145F6A862C0F606
:103490000002FDF76FFC4FF4A060FDF7D3F9FFE7E2
:1034A0004FF47A7001F080FAFAE7000080B582B03C
:1034B000019000F033FCFFF7C9FF02B080BD0000AF
:1034C00080B582B046F23630C0F6000000F0FCFD58
:1034D0004EF62850CEF200000190017846F20250DC
:1034E000C0F6000000F0F0FD01980078C00738B188
:1034F000FFE746F29B40C0F6000000F0E5FDFFE765
:103500004EF62850CEF2000000788007002807D53C
:10351000FFE746F29140C0F6000000F0D5FDFFE75E
:103520004EF62850CEF2000000780007002807D59C
:10353000FFE746F2BF40C0F6000000F0C5FDFFE720
:103540004EF62850CEF200000078C006002807D5BD
:10355000FFE746F2B640C0F6000000F0B5FDFFE719
:103560004EF62850CEF200000078000600280CD558
:10357000FFE74EF63450CEF20000016846F2733099
:10358000C0F6000000F0A0FD06E046F28510C0F68F
:10359000000000F099FDFFE702B080BD80B588B063
:1035A00007900020059004900798007828B9FFE75D
:1035B0000021084600F0FEF85AE041F2E410C2F2A1
:1035C000000000680290FFE7029841F2E811C2F2A1
:1035D00000010968884241D2FFE70298006846F27C
:1035E000BE21C0F600010622FCF7D8FE08B1FFE7B5
:1035F00030E0029800680630039007980190039924
:103600000091FCF7BBFE009902460198FCF7C6FE4C
:10361000F8B9FFE7059838B9FFE7039804900498D4
:10362000FCF7ACFE0590FFE70498039902F01CF844
:10363000069006980599884203DAFFE706980590F8
:10364000FFE7039945F66D60C0F6000000F03CFD11
:10365000FFE7FFE702980C300290B5E7049830B11D
:10366000FFE707980499059A01F072F8FFE7FFE772
:1036700008B080BD80B588B006900591FFE7059938
:103680000020029091B1FFE70698017801202029DF
:10369000019008D0FFE7069800780938B0FA80F06A
:1036A00040090190FFE701980290FFE70298C007E8
:1036B00038B1FFE70698013006900598013805906B
:1036C000DDE7059818B9FFE70020079030E006987D
:1036D000059904AAFEF750FC18B9FFE70498079073
:1036E00026E006980390FFE7039801780020202940
:1036F000009007D0FFE703980078002818BF01204A
:103700000090FFE70098C00720B1FFE70398013061
:103710000390E9E7039900200870069946F25D20BE
:10372000C0F6000000F0D0FC4FF0FF300790FFE73C
:10373000079808B080BD000080B584B00390029166
:103740000020009041F2E410C2F2000000680190F5
:10375000FFE7019841F2E811C2F2000109688842CE
:1037600025D2FFE70198006846F2BE21C0F60001AD
:103770000622FCF713FE08B1FFE714E00198006889
:1037800006300399029AFCF709FE58B9FFE7019841
:10379000016802980844807920B9FFE701988068A1
:1037A000009004E0FFE701980C300190D1E7009809
:1037B00004B080BD80B584B00390029146F293209E
:1037C000C0F6000000F080FC41F2E410C2F20000FC
:1037D00000680190FFE7019841F2E811C2F2000190
:1037E000096888421BD2FFE70198006846F2BE21B3
:1037F000C0F600010622FCF7D1FD08B1FFE70AE0A0
:10380000019908684A68811D46F2AE20C0F60000A2
:1038100000F05AFCFFE701980C300190DBE746F21C
:103820008510C0F6000000F04FFC002004B080BD01
:103830000120704780B58AB00990089107920998D5
:103840000690002005900490FFE7059808998842AB
:1038500080F0D480FFE7FFE706980078202807D0A3
:10386000FFE70698017800200929029008D1FFE7B8
:103870000599089A0020914238BF01200290FFE785
:103880000298C00750B1FFE706990020087006981B
:1038900001300690059801300590DDE7049808286E
:1038A00024D3FFE746F27520C0F6000000F00CFCC0
:1038B00000200390FFE70398049988420FD2FFE7A6
:1038C0000798039950F8211046F2BA20C0F600007C
:1038D00000F0FAFBFFE7039801300390EBE746F2B4
:1038E0008510C0F6000000F0EFFB87E0059808990E
:1038F000884201D3FFE781E00698007822284BD167
:10390000FFE706980130069005980130059006986B
:103910000799049A41F82200049801300490FFE7C7
:103920000698017800202229019008D0FFE7059928
:10393000089A0020914238BF01200190FFE70198CA
:10394000C007C8B1FFE7069800785C280DD1FFE7F3
:1039500006984078222807D1FFE7069801300690A4
:10396000059801300590FFE7FFE7069801300690C3
:10397000059801300590D3E705980899884201D34E
:10398000FFE73BE00699002008700698013006909A
:1039900005980130059030E006980799049A41F89F
:1039A0002200049801300490FFE706980178002077
:1039B000202900900FD0FFE7069801780020092900
:1039C000009008D0FFE70599089A0020914238BF7F
:1039D00001200090FFE70098C00738B1FFE7069884
:1039E00001300690059801300590DEE705980899AA
:1039F000884201D3FFE701E0FFE726E704980AB019
:103A000080BD000080B582B00190FFE70198411EA3
:103A1000019138B1FFE746F2C410C0F6000000F093
:103A200053FBF3E702B080BD80B590B0DDF850C025
:103A3000DDF84CC0DDF848C00F900E910D920C934C
:103A400013980690129803901498420645F6056163
:103A5000C0F6000145F61660C0F60000002A48BF17
:103A6000084605909DF85000C006002805D5FFE7E0
:103A7000149820F001001490FFE71498C10720204B
:103A8000002918BF30208DF82F0000208DF82E005F
:103A90009DF850008007002823D5FFE70D98B0F16E
:103AA000FF3F07DCFFE72D208DF82E000D984042E8
:103AB0000D9015E09DF850004007002804D5FFE761
:103AC0002B208DF82E000AE09DF8500000070028FA
:103AD00004D5FFE720208DF82E00FFE7FFE7FFE782
:103AE000FFE7002004900D9840B9FFE7049A501CAE
:103AF00004900DF11E013020885414E0FFE70D986A
:103B000080B1FFE7059802900C990DA8FEF7DCFB49
:103B100001460298405C049A511C04910DF11E016B
:103B20008854ECE7FFE704981399884203DDFFE728
:103B300004981390FFE713990398401A03909DF897
:103B4000500010F0110F21D1FFE79DF82E0040B179
:103B5000FFE70398012804DBFFE70398013803908F
:103B6000FFE7FFE70398411E039101280DDBFFE704
:103B70000F980E99884204D2FFE70F992020087011
:103B8000FFE70F9801300F90ECE7FFE79DF82E005C
:103B900088B1FFE70F980E99884205D2FFE79DF89C
:103BA0002E000F990870FFE70398013803900F98D3
:103BB00001300F90FFE79DF85000C006002816D492
:103BC000FFE7FFE70398411E039101280EDBFFE7A3
:103BD0000F980E99884205D2FFE79DF82F000F99A4
:103BE0000870FFE70F9801300F90EBE7FFE7FFE762
:103BF000049813994A1E139288420DDAFFE70F9832
:103C00000E99884204D2FFE70F9930200870FFE731
:103C10000F9801300F90EBE7FFE70499481E0490DE
:103C200000200129019006DBFFE70698002818BF55
:103C300001200190FFE70198C00780B1FFE70F98CE
:103C40000E99884207D2FFE704990DF11E00405CEF
:103C50000F990870FFE70F9801300F90DDE7FFE73D
:103C60000398411E039101280DDBFFE70F980E9981
:103C7000884204D2FFE70F9920200870FFE70F98D1
:103C800001300F90ECE70F9810B080BD80B541F681
:103C90007820C2F200000068804780BD80B586B001
:103CA00041F6F810C2F20000059005986A4614210A
:103CB000D1600A2191604FF40071516041F2F871B6
:103CC000C2F20001116046F22E51C0F6000143F22B
:103CD000AD42C0F60002002300F03AFE04900598C1
:103CE00000F0C4FE06B080BD80B582B046F2C05080
:103CF000C0F600000190FFE7019846F2C451C0F6FB
:103D00000001884208D2FFE7019800688047FFE77A
:103D1000019804300190EFE702B080BD80B582B019
:103D200046F2C450C0F600000190FFE7019846F249
:103D3000D051C0F60001884208D2FFE70198006820
:103D40008047FFE7019804300190EFE702B080BDA3
:103D500080B582B0FCF708FA019041F69431C2F2C6
:103D600000010888013008800198FCF701FA02B0D0
:103D700080BD000080B582B0FCF7F6F9019041F6F5
:103D80009430C2F20000018801390180B0F90000CE
:103D9000002814DCFFE741F69431C2F20001002054
:103DA00008800198FCF7E4F941F68020C2F2000097
:103DB000006818B1FFE700F0D1FBFFE703E00198CE
:103DC000FCF7D6F9FFE702B080BD000080B50920FE
:103DD00001F0F4FC40F20C00C2F20000006844F66E
:103DE000D351C1F26201A0FB01108009FDF7B8FABE
:103DF000FFF77AFF80BD000080B582B04FF0FF3042
:103E00000190FCF757FE20B1FFE7FCF73BFE019065
:103E1000FFE79DF8040002B080BD000080B586B0C9
:103E2000059000200190049003900D208DF80B0068
:103E3000059800F079FC0146019803910490FFE792
:103E400004980399884219D2FFE705980499405CC9
:103E50000A2807D1FFE700200DF10B010122FCF732
:103E600009FFFFE705980499014400200122FCF7AF
:103E700001FFFFE7049801300490E1E706B080BD40
:103E800080B584B0039003980430029041F68420FA
:103E9000C2F20000006870B1FFE741F68420C2F270
:103EA00000000168039888470190019810B9FFE766
:103EB00004B080BDFFE70298C16B46F26840C0F6CF
:103EC000000000F001F90298016A46F2A530C0F640
:103ED000000000F0F9F80298416A46F2BF30C0F6DF
:103EE000000000F0F1F80298816A46F2D930C0F67D
:103EF000000000F0E9F80298C16A46F2F330C0F61B
:103F0000000000F0E1F80298016846F20040C0F6B7
:103F1000000000F0D9F80298416846F20D40C0F662
:103F2000000000F0D1F80298816846F21A40C0F60D
:103F3000000000F0C9F80298C16846F22740C0F6B8
:103F4000000000F0C1F80298016946F23440C0F662
:103F5000000000F0B9F80298416946F24140C0F60D
:103F6000000000F0B1F80298816946F2B230C0F664
:103F7000000000F0A9F80298C16946F2CC30C0F602
:103F8000000000F0A1F80298016B46F2E630C0F69E
:103F9000000000F099F80298416B46F25B40C0F6D1
:103FA000000000F091F80298816B46F24E40C0F696
:103FB000000000F089F803980078400700280CD52D
:103FC000FFE700F023FD014646F20C30C0F600008A
:103FD00000F07AF8FFF7D4F806E046F2F220C0F6D7
:103FE000000000F071F8FFE7FEF7CEFCFFE7FEE708
:103FF00087B00690059104920393049804300190D1
:10400000019820F007000190019840380190019834
:10401000029000200090FFE700980F280DD8FFE7DE
:104020000299009A4BF6EF60CDF6AD6041F82200A0
:10403000FFE7009801300090EEE7059802990862CA
:10404000029900204862029988620299C862029926
:104050000863039802994863069802998863029955
:104060004FF08070C863019807B0704780B582B088
:10407000FCF77AF8019041F68C21C2F20001087831
:10408000013008700198FCF773F802B080BD0000A1
:1040900080B582B0FCF768F8019041F68C21C2F23D
:1040A00000010878013808700198FCF761F802B047
:1040B00080BD000080B582B001900198143000F0FE
:1040C00029F8002002B080BD83B080B583B007938B
:1040D00006920591029005A80190029A019B41F673
:1040E0009420C2F20000FF2100F056FF00900098DB
:1040F000B0F5807F03D3FFE7FF200090FFE741F694
:104100009420C2F20000FFF789FE03B0BDE88040B2
:1041100003B0704781B0009000984060009908603B
:1041200001B0704781B0009000984060009908602D
:1041300001B0704781B0009000984060009908601D
:1041400001B0704781B0009000984060009908600D
:1041500001B0704782B00190009100980199096800
:10416000486001980068009908600098019908600B
:1041700001980099486002B07047000082B0019039
:1041800000910098019909684860019800680099B9
:10419000086000980199086001980099486002B091
:1041A0007047000082B00190009100980199096861
:1041B00048600198006800990860009801990860BB
:1041C00001980099486002B07047000082B00190E9
:1041D0000091009801994968086001984068009929
:1041E000486000980199486001980099086002B001
:1041F0007047000082B001900091009801994968D1
:1042000008600198406800994860009801994860EA
:1042100001980099086002B07047000081B00090DA
:1042200000990868401AB0FA80F0400901B0704760
:1042300081B0009000990868401AB0FA80F04009F7
:1042400001B0704781B0009000990868401AB0FA38
:1042500080F0400901B0704783B0029000200190C7
:1042600002980090FFE7009800680299884207D002
:10427000FFE7009800680090019801300190F2E794
:10428000019803B07047000081B000900098016869
:104290004068486000990868496808600098406074
:1042A0000099086001B0704781B0009000980168E3
:1042B0004068486000990868496808600098406054
:1042C0000099086001B0704781B0009000980168C3
:1042D0004068486000990868496808600098406034
:1042E0000099086001B0704781B0009000980168A3
:1042F0004068486000990868496808600098406014
:104300000099086001B0704785B004900391029253
:10431000049801900398009000980199884221D256
:10432000FFE701980099029A114488421AD2FFE7E8
:10433000029901980844019002990098084400905D
:10434000FFE70298411E029158B1FFE70098411E15
:10435000009110F8010C01994A1E019201F8010C1C
:10436000EFE70FE0FFE70298411E029148B1FFE737
:104370000098411C0091007801994A1C0192087034
:10438000F1E7FFE7049805B07047000088B0079098
:1043900006910592079803909DF8180000900598E3
:1043A00004283DD3FFE79DF81C008007C0BBFFE752
:1043B00007980190009840EA00200290029840EA95
:1043C00000400290FFE70598102818D3FFE70298F5
:1043D00001990A1D01920860029801990A1D019233
:1043E0000860029801990A1D0192086002980199DB
:1043F0000A1D01920860059810380590E3E7FFE771
:104400000598042809D3FFE7029801990A1D019233
:104410000860059804380590F2E701980390FFE7DB
:10442000FFE70598411E059130B1FFE70098039919
:104430004A1C03920870F4E7079808B07047000020
:1044400080B582B00190019900200872FBF78CFEC4
:10445000009001980C30FFF717FF0098FBF788FEDB
:1044600002B080BD83B08DF8070000200090FFE708
:10447000009806281ADCFFE70098010140F21400BA
:10448000C2F20000405C9DF80710884209D1FFE7A6
:10449000009940F21400C2F2000000EB01100290FB
:1044A00007E0FFE7009801300090E1E7002002906C
:1044B000FFE7029803B0704780B588B007908DF889
:1044C0001B100592002003909DF81B00FFF7CAFF08
:1044D0000290FFF73DFC029840680390FFE70398C5
:1044E0000299043188420CD0FFE703980C38019000
:1044F000019808B1FFE7FFE7FFE703980068039022
:10450000EDE7FFF737FC9DF81B0040F080000799AE
:10451000087207980599082200F01AF9FBF724FEA3
:1045200004900298043007990C31FFF713FE0498A9
:10453000FBF71EFE08B080BD82B000900098007AA4
:104540000006002803D5FFE70120019002E00020CB
:104550000190FFE7019802B07047000080B584B079
:10456000FBF702FE039041F69430C2F20000B0F96E
:104570000000002843D1FFE741F6A040C2F200004E
:104580000068FDF7B9FC01380090009941F6A030B1
:10459000C2F2000050F8310014380290029841F63F
:1045A0008021C2F200010968884227D0FFE7009805
:1045B00041F67C21C2F20001087041F68021C2F26E
:1045C0000001086801900298086041F68C20C2F250
:1045D0000000007850B9FFE701981C3002991C31A7
:1045E000FBF7C9FD0398FBF7C3FD0CE001981C30F5
:1045F00002991C31FBF7BFFDFFE7FFE7FFE70398D8
:10460000FBF7B6FDFFE704B080BD000080B582B0C7
:104610000190FBF7A9FD0090019991F8340000F09A
:10462000F000013081F83400019991F8352041F60D
:10463000A030C2F2000000EBC2001431FFF7C6FD4B
:104640000198826B41F6A041C2F200010868104354
:1046500008600098FBF78CFD02B080BD80B582B089
:104660000190FBF781FD009001981430FFF71CFECC
:10467000019890F8351041F6A030C2F2000000EB2E
:10468000C100FFF7D5FD50B1FFE70198826B41F6FD
:10469000A041C2F20001086890430860FFE700985B
:1046A000FBF766FD02B080BD80B584B00390029137
:1046B00001928DF803300398029A0221FFF7FCFE65
:1046C0000398FFF7F7FC0198039988839DF803008E
:1046D00003994872002004B080BD000080B582B00C
:1046E00046F23950C0F60000FFF7EEFC46F26C507F
:1046F000C0F60000FFF7E8FC46F2AE50C0F600003E
:104700006946086046F29050C0F60000032101227D
:104710000523FFF7D9FC46F24250C0F60000FFF730
:10472000D3FC02B080BD000082B0019001980090DF
:10473000FFE70098007828B1FFE7FFE70098013015
:104740000090F6E700980199401A02B07047000007
:1047500085B0049003910292029820B3FFE7049879
:10476000019003980090FFE70098411C00910078A9
:1047700001994A1C0192087068B9FFE7FFE70298A7
:104780000138029030B1FFE70199481C01900020E8
:104790000870F4E706E0FFE702980138029000286D
:1047A000E2D1FFE7FFE7049805B0704780B582B01B
:1047B00041F69431C2F20001002008800190FFE729
:1047C00001981F280EDCFFE7019941F6A030C2F2E4
:1047D000000000EBC100FFF7A5FCFFE701980130E6
:1047E0000190EDE741F67C21C2F200011F20087024
:1047F00041F68021C2F200010020086041F6A0418C
:10480000C2F20001086041F69830C2F20000FFF7E2
:1048100089FC02B080BD000080B582B041F6A040A6
:10482000C2F200000068FDF767FB013800900099B4
:1048300041F6A030C2F2000050F831001438019067
:10484000019841F68021C2F20001086001981C30F5
:10485000FBF7BFFC02B080BD80B582B000200190A4
:10486000FFE7019870B9FFE7019941F62C50C2F2B9
:10487000000000EBC100FFF765FCFFE70198013085
:104880000190EEE702B080BD7047000080B582B0B5
:1048900041F68020C2F2000000680190FBF764FC42
:1048A00000900198FDF774FC0198FFF7D7FE01997D
:1048B000042081F8340001984C3000F06FFA019820
:1048C000FFF73AFE012804D1FFE70198FFF7B8FD92
:1048D00009E0019800F1140141F69830C2F200009D
:1048E000FFF74CFCFFE7FFF739FE0098FBF740FCB1
:1048F00002B080BD80B582B00190FFE700F002F801
:10490000FCE700007047000080B586B069462020B3
:10491000C8601F2088608020486041F6A440C2F231
:104920000000086041F27470C2F20000059046F287
:104930003351C0F6000144F6F502C0F60002002330
:1049400000F006F8059800F091F806B080BD000070
:1049500070B58AB0844611981098DDF83CE0DDF817
:1049600038E0CDF824C00891079206938DF817001F
:104970000998089A0121FFF79FFD09980899079A5D
:10498000069BDDF838C00F9C9DF81750119EEE462F
:10499000CEF80C60CEF80850CEF80440CEF800C037
:1049A000FDF748FB0AB070BD80B582B00190019858
:1049B00000F0F4F80090009800F02EF802B080BDEE
:1049C00080B584B00290029890F8340000F00F0097
:1049D000022804D0FFE74FF0FF30039013E0FBF70D
:1049E000C3FB019002981430FFF76EFC02984C3024
:1049F00000F0B2FA0198FBF7BBFB0298FFF706FE46
:104A000000200390FFE7039804B080BD41F68020AA
:104A1000C2F200000068704780B584B00390FBF7D5
:104A2000A3FB029041F68020C2F2000000680190D2
:104A3000019800F03BF801984C30002103AA00F0E7
:104A40006FF901984C3000F0E1F90298FBF790FB08
:104A5000FFF784FD0198006B023020B9FFE7019950
:104A600000200863FFE7002004B080BD80B582B05D
:104A70000190019991F8360081F83500019991F87B
:104A800035200120904088630199022081F834008C
:104A90000198FFF795FFFFF7B9FF18B1FFE7FFF7A0
:104AA0005DFDFFE7002002B080BD000080B584B04E
:104AB0000290029890F8340000F00F00012804D012
:104AC000FFE74FF0FF30039017E0FBF74DFB01903D
:104AD0000298FFF7C3FD029991F8340000F0F0004E
:104AE000023081F8340002984C3000F035FA019819
:104AF000FBF73EFB00200390FFE7039804B080BD66
:104B000080B582B001900198009000996FF001008B
:104B1000086300981430FFF7D7FB0098FFF776FD85
:104B2000FFF71CFD02B080BD80B584B0FBF71CFB15
:104B3000029041F68020C2F20000006801900198C6
:104B400090F8340000F00F0001281ED1FFE7019912
:104B500048698969884218D0FFE701981430FFF747
:104B6000B3FB019991F8352041F6A030C2F2000064
:104B700000EBC2001431FFF73DFB0298FBF7F8FA97
:104B8000FFF7ECFC0020039005E00298FBF7F0FA39
:104B900000200390FFE7039804B080BD82B001902D
:104BA0000198B0F1FF3F04DCFFE74FF0FF300090C9
:104BB00022E0019844F6D351C1F2620180FB010268
:104BC000901100EBD2704FF47A7250430090019B29
:104BD00083FB010C4FEAAC1000EBDC7000FB1230E1
:104BE000504300F2E73080FB0101881100EBD171E6
:104BF000009808440090FFE7009802B0704700005A
:104C000041F62850C2F200000068704780B582B0BB
:104C100041F62851C2F20001086801300860FFF730
:104C2000F5FE01900199886C013888640198806CC8
:104C300030B9FFE70199486C8864FFF775FFFFE71B
:104C400000F002F802B080BD80B586B001A8FFF781
:104C500079FAFFF7D5FF0490FBF786FA0390FFE798
:104C600041F62C50C2F20000FFF7ECFA002851D1B7
:104C7000FFE741F62C50C2F200000068143805909E
:104C800004980599896A401A4FF6FE71C7F6FF71BC
:104C900088423DD8FFE70598FDF762FA0598407A0B
:104CA0008007002806D4FFE70599487A00F0FE0047
:104CB0004872FFE7059800F1140101A80090FFF782
:104CC00071FA0598C169006A8847FFF799FF0146A4
:104CD00000980491FFF7B6FA08B1FFE7C0E705981E
:104CE0001430FFF701FB0598407A800700280ED5A5
:104CF000FFE70598407AC00748B1FFE70599487A71
:104D000000F0FE004872059800F080F8FFE700E030
:104D100000E0A5E70398FBF72BFA06B080BD000082
:104D200080B586B0059004910392FBF71DFA0290BE
:104D300004980190042829D80199DFE801F00803BC
:104D40000D1319000598406A039908601FE0039845
:104D50000068059948621AE00599487A00F0FD005C
:104D6000487214E00599487A40F0020048720EE05B
:104D70000598407AC00720B1FFE703990120086039
:104D800003E0039900200860FFE700E0FFE70298D6
:104D9000FBF7EEF9002006B080BD000080B582B0C0
:104DA0000190FBF7E1F900900198FDF7D9F901991D
:104DB000487A00F0FE0048720098FBF7D9F9019894
:104DC000FFF73EFB002002B080BD000080B586B03A
:104DD00084460998DDF820E0CDF814C004910392D0
:104DE00002938DF807000598049A0A21FFF764FBE7
:104DF00005980399029A089B9DF807C0EE46CEF8E5
:104E000000C0FDF779F906B080BD000080B588B01C
:104E10000790FBF7A9F904900798FDF7A1F9079906
:104E2000487A00F0FE004872FFF7EAFE07994A6AE6
:104E30001044886241F62C50C2F20000059005989B
:104E4000039000200690FFE70698002848D1FFE76E
:104E5000FFE7069A03A850F82200059901EBC2016A
:104E6000496888422BD0FFE7069903A850F8210033
:104E70000068009000980699A0EBC10014380190DA
:104E80000198806A0799896A401A08B9FFE70EE01D
:104E90000198806A0799896A401A4FF6FE71C7F631
:104EA000FF71884201D8FFE709E0FFE7FFE7069AB4
:104EB00003A951F82200006841F82200C9E70698CA
:104EC00048B1FFE7069A03A800EB820150F82200E0
:104ED00008304860FFE7FFE7069801300690B3E727
:104EE00041F63450C2F200000168013101600068EF
:104EF0000290039807991431FFF754F902200690A5
:104F0000FFE7069801281BD8FFE79DF808008007F7
:104F100068B9FFE70698C0F1010203A850F8220023
:104F2000079901EBC2011431FFF73CF900E007E0FB
:104F3000029880080290FFE7069801300690E0E7AB
:104F40000799487A40F0010048720498FBF710F97D
:104F5000002008B080BD000080B584B002900298A7
:104F6000407AC00720B9FFE74FF0FF30039010E010
:104F7000FBF7FAF801900298FDF7F2F80299487AE7
:104F800000F0FE0048720198FBF7F2F80020039051
:104F9000FFE7039804B080BDB0B594B013931290AE
:104FA0001191109212980C901298119908440B903C
:104FB0000B981299884208D2FFE74FF0FF300B9010
:104FC0000B981299401A1190FFE7FFE710980078AC
:104FD000002800F0AE82FFE71098007825280ED058
:104FE000FFE70C980B99884205D2FFE710980078EC
:104FF0000C990870FFE70C9801300C9095E20020A6
:105000008DF82200FFE7109801301090109800787A
:105010002D2807D1FFE79DF8220040F010008DF801
:10502000220034E0109800782B2807D1FFE79DF884
:10503000220040F004008DF8220027E0109800784C
:10504000202807D1FFE79DF8220040F008008DF8E6
:1050500022001AE010980078232807D1FFE79DF876
:10506000220040F020008DF822000DE0109800781A
:10507000302807D1FFE79DF8220040F001008DF8AD
:10508000220000E004E0FFE7FFE7FFE7FFE7BAE701
:105090004FF0FF300790109800783038092805D875
:1050A000FFE710A800F0C4FA07901DE01098007800
:1050B0002A2818D1FFE71098013010901398011D8D
:1050C0001391006807900798B0F1FF3F0ADCFFE7F3
:1050D0000798404207909DF8220040F010008DF89C
:1050E0002200FFE7FFE7FFE74FF0FF300690109840
:1050F00000782E2826D1FFE71098013010901098E4
:1051000000783038092805D8FFE710A800F090FA99
:1051100006900EE0109800782A2809D1FFE7109831
:10512000013010901398011D139100680690FFE75D
:10513000FFE70698B0F1FF3F03DCFFE70020069091
:10514000FFE7FFE700208DF821001098007868281D
:1051500005D0FFE7109800786C2808D1FFE7109879
:1051600000788DF82100109801301090FFE70A2098
:105170008DF82300109800782538014605915328B2
:1051800000F266810599DFE811F03F0163016301D8
:1051900063016301630163016301630163016301EF
:1051A00063016301630163016301630163016301DF
:1051B00063016301630163016301630163016301CF
:1051C00063016301630163016301630163016301BF
:1051D00063016301630163016301630163016301AF
:1051E000630163016301630163016301630163019F
:1051F00050016301630163016301630163016301A2
:1052000063016301630154005B0163016301630196
:1052100063015B01630163016301630163014C018D
:105220001B01630163019700630162016301630174
:1052300057019DF82200C006002815D4FFE7FFE7BC
:1052400007980138079001280DDBFFE70C980B99B0
:10525000884204D2FFE70C9920200870FFE70C98E1
:1052600001300C90ECE7FFE71398011D13910068E3
:105270008DF82B000C980B99884205D2FFE79DF81A
:105280002B000C990870FFE70C9801300C90FFE799
:1052900007980138079001280DDBFFE70C980B9960
:1052A000884204D2FFE70C9920200870FFE70C9891
:1052B00001300C90ECE738E11398011D1391006860
:1052C0000990099830B9FFE745F6B960C0F60000CB
:1052D0000990FFE700200D90FFE70D99079A002045
:1052E0009142049008D0FFE709980D99405C00288E
:1052F00018BF01200490FFE70498C00728B1FFE71A
:10530000FFE70D9801300D90E7E70698012808DBCC
:10531000FFE70D980699884203DDFFE706980D9098
:10532000FFE79DF82200C006002816D4FFE7FFE73C
:105330000D9807994A1E079288420DDAFFE70C98EC
:105340000B99884204D2FFE70C9920200870FFE7F0
:105350000C9801300C90EBE7FFE700200E90FFE780
:105360000E980D99884215DAFFE70C980B99884240
:1053700005D2FFE7099800780C990870FFE70C98B0
:1053800001300C90099801300990FFE70E98013028
:105390000E90E5E7FFE70D9807994A1E07928842AD
:1053A0000DDAFFE70C980B99884204D2FFE70C99BD
:1053B00020200870FFE70C9801300C90EBE7B4E078
:1053C0000798013048B9FFE7082007909DF82200B0
:1053D00040F001008DF82200FFE70C980B99139A1A
:1053E000131D13931268079BDDF818E09DF8224007
:1053F000EC46CCF80840CCF804E0CCF800301023A0
:10540000FEF712FB0C9090E00C980B99884204D2A6
:10541000FFE70C9925200870FFE70C9801300C90ED
:1054200083E008208DF8230035E09DF8220040F04D
:1054300040008DF82200FFE710208DF823002AE0BD
:105440009DF8220040F002008DF82200FFE722E0E4
:105450000C980B99884204D2FFE70C99252008701C
:10546000FFE70C9801300C901098007870B1FFE7BE
:105470000C980B99884205D2FFE7109800780C9998
:105480000870FFE70C9801300C9003E01098013889
:105490001090FFE749E09DF821006C280DD1FFE74F
:1054A0001398011D139100680F909DF8220080074A
:1054B000002801D5FFE7FFE722E09DF821006828DA
:1054C00010D1FFE71398011D139100880F909DF8EC
:1054D00022008007002804D5FFE7BDF93C000F90AB
:1054E000FFE70CE01398011D139100680F909DF8E1
:1054F00022008007002801D5FFE7FFE7FFE7FFE76D
:105500000C980B990F9A9DF82330DDF81CC0069C6F
:105510009DF82250EE46CEF80850CEF80440CEF862
:1055200000C0FEF781FA0C90FFE710980130109050
:105530004CE5119878B1FFE70C980B99884204D29A
:10554000FFE70C990020087004E00B99002001F897
:10555000010CFFE7FFE70C981299401A14B0B0BD98
:1055600000207047002070470020704700207047DF
:1055700080B5FAF7F9FDFEF729FCFFF7AFF8FFF762
:105580006BF9FFF713F9FEF789FBFFF77DF9FFF7DA
:10559000BBF9FFF741F9002080BD000080B582B063
:1055A000019046F28510C0F60000FEF78DFDFEF773
:1055B0003FF9012804D1FFE70198FDF7EFFF00E074
:1055C000FFE7FCF7ABFE0146019A46F2E820C0F681
:1055D0000000FEF779FD02B080BD000080B584B008
:1055E0000390039800680190FFE7019803998842AF
:1055F0001CD0FFE7019814380290029946F2EA2085
:10560000C0F60000FEF760FD01980068039988422B
:1056100007D0FFE746F2C610C0F60000FEF754FDC3
:10562000FFE7FFE7019800680190DEE704B080BD66
:1056300082B0019000200090FFE701980068007898
:10564000303809280DD8FFE7009800EB8001019B56
:105650001868421C1A60007800EB41003038009056
:10566000EBE7009802B0704784B003900291039872
:105670000190FFE7019801780020009081B1FFE7D9
:10568000029801780020009051B1FFE7019800785E
:1056900002990978401AB0FA80F040090090FFE7BB
:1056A0000098C00738B1FFE70198013001900298D7
:1056B00001300290DEE701980399401A04B0704768
:1056C00083B00290002001908DF8030041F20001A8
:1056D000C4F20201086840F480300860FFE70198D6
:1056E0004FF6EF71884214D8FFE700BF41F2000087
:1056F000C4F2020000688003002806D5FFE7019885
:10570000B0F5004F01D9FFE703E0019801300190A7
:10571000E5E701984FF6F071884204D3FFE70120D6
:105720008DF8030045E041F20401C4F202014FF498
:1057300080600860029802380290029A086840EA85
:1057400082400860086840F48030086042F200013E
:10575000C4F2020110200860086840F002000860EE
:1057600041F20001C4F20201086840F08070086054
:10577000FFE741F20000C4F2020001680020B0EB34
:10578000516F01D1FFE7F4E741F20401C4F20201D5
:10579000086840F002000860FFE741F20400C4F22C
:1057A00002000068C0F38100022801D0FFE7F4E79F
:1057B000FFE79DF8030003B07047000080B582B09A
:1057C000019041F21001C4F202010020086041F290
:1057D0000C01C4F20201086041F21402C4F2020298
:1057E0001421116041F21801C4F20201086041F273
:1057F0001C01C4F20201086041F20002C4F202027C
:10580000106840F00100106041F20401C4F202018E
:1058100008680023CFF6FF031840086010684FF6B1
:10582000FF73CFF6F66318401060106820F48020F4
:105830001060086820F4FE00086041F20801C4F21C
:1058400002014FF41F0008600198FFF739FF02B012
:1058500080BD000010B584B0FAF782FF45F65E60A7
:10586000C0F6000045F67161C0F60001FEF72CFCA1
:1058700040F2000CC2F2000CBCF80010BCF8022090
:10588000BCF80430BCF80600BCF808E0BCF80A40DC
:10589000EC46CCF80840CCF804E0CCF8000045F623
:1058A0003560C0F60000FEF70FFC40F21000C2F2B7
:1058B0000000016845F62760C0F60000FEF704FC12
:1058C00004B010BD80B582B046F24930C0F6000089
:1058D000FEF7FAFB4EF62A50CEF200000190018846
:1058E00046F21850C0F60000FEF7EEFB0198008863
:1058F000C00738B1FFE746F2E040C0F60000FEF70F
:10590000E3FBFFE74EF62A50CEF200000088800746
:10591000002807D5FFE746F28740C0F60000FEF7F3
:10592000D3FBFFE74EF62A50CEF200000088400776
:10593000002807D5FFE746F27540C0F60000FEF7E5
:10594000C3FBFFE74EF62A50CEF2000000880007A6
:10595000002807D5FFE746F2B040C0F60000FEF78A
:10596000B3FBFFE74EF62A50CEF200000088C005D8
:10597000002807D5FFE746F27C40C0F60000FEF79E
:10598000A3FBFFE74EF62A50CEF200000088800508
:10599000002807D5FFE746F2A540C0F60000FEF755
:1059A00093FBFFE746F28510C0F60000FEF78CFB84
:1059B00002B080BD80B5FEF791FE002080BD02E000
:1059C00008C8121F08C1002AFAD17047704700208A
:1059D00001E001C1121F002AFBD170471F1C1F1ECE
:1059E0001F1E1F1F1E1F1E1F1F1D1F1E1F1E1F1FCE
:1059F0001E1F1E1F0000000000005454522052457C
:105A00004747455300303132333435363738394122
:105A1000424344454600000100020001000300012A
:105A20000002000100040001000200010003000167
:105A30000002000100050001000200010003000156
:105A40000002000100040001000200010003000147
:105A50000002000100060001000200010003000135
:105A60000002000100040001000200010003000127
:105A70000002000100050001000200010003000116
:105A80000002000100040001000200010003000107
:105A900000020001000700010002000100030001F4
:105AA00000020001000400010002000100030001E7
:105AB00000020001000500010002000100030001D6
:105AC00000020001000400010002000100030001C7
:105AD00000020001000600010002000100030001B5
