:020000040800F2
:10000000D02F002045010008590900080D02000802
:1000100075080008BD050008B11B000800000000BD
:10002000000000000000000000000000450F000874
:10003000270600080000000097010008470F00088D
:100040005F0100085F0100085F0100085F01000810
:100050005F0100085F0100085F0100085F01000800
:100060005F0100085F0100085F0100085F010008F0
:100070005F0100085F0100085F0100085F010008E0
:100080005F0100085F0100085F0100085F010008D0
:100090005F0100085F0100085F0100085F010008C0
:1000A0005F0100085F0100085F0100085F010008B0
:1000B000511000087B1000085F0100085F01000874
:1000C0005F0100085F0100085F0100085F01000890
:1000D0005F010008E118000851190008CD19000857
:1000E0005F0100085F0100085F0100085F01000870
:1000F0005F0100085F0100085F0100085F01000860
:100100005F0100085F0100085F0100085F0100084F
:100110007B150008011700085F0100085F01000857
:100120005F0100085F0100085F0100085F0100082F
:10013000DFF80CD000F0FEF9004800476505000824
:10014000D02F00200648804706480047FEE7FEE71C
:10015000FEE7FEE7FEE7FEE7FEE7FEE7FEE7FEE777
:10016000590F000831010008EFF3108072B6704794
:1001700080F310887047324A1368012B04D04FF087
:10018000010313602F4A10602F4A11602F484FF06F
:10019000805101607047EFF3108272B62848016801
:1001A00091B14FF0000101602648016829B1EFF3D9
:1001B000098121E9F00F0068016023490968096895
:1001C000B1E8F00F81F3098882F310884EF0040E35
:1001D00070471D4908601B494FF00000086018492E
:1001E0004FF0010008601A481A49D0F8002041EA8F
:1001F0000201016015484FF0805101601648006807
:10020000006880F3088861B662B670471EF0040F7C
:100210000CBFEFF30880EFF3098020E9F00F40F8FE
:1002200004ED1EF0040F0CBF80F3088880F30988EA
:1002300000B502F06DFC5DF804EB4EF0040E704763
:10024000D82800203C2600204426002004ED00E0B1
:1002500020ED00E00000FFFF08ED00E038B5D0E938
:100260000221491E01EB410102EBC1014268C1EBD1
:10027000011102EB81010268C1EB011102EB810265
:10028000D0E9043101EB410103EB81013023A1F5F9
:10029000527191FBF3F4174D6C4302EBC41291FBC6
:1002A000F3F403FB141100921A2902DB124B1A44D7
:1002B00000920C2291FBF2F3104C6343009C04EB80
:1002C000C313009391FBF2F302FB13110C4A08E0F5
:1002D000491E40F2A324535C6343009C04EBC31308
:1002E00000930029F4DC0146684600F0A5F8009868
:1002F00038BD00003F0C0F008051010067C20300B1
:10030000A640000840EA01039B0703D009E008C9A2
:10031000121F08C0042AFAD203E011F8013B00F8CA
:10032000013B521EF9D27047D2B201E000F8012B16
:10033000491EFBD270470022F6E710B513460A4665
:1003400004461946FFF7F0FF204610BD80EA01027F
:1003500010B502F00043400022D04A001FD0010E29
:1003600001EB1261C0F35600C2F3560240F40000E4
:1003700042F40002A0FB022000047F39140400D0E4
:10038000401C50EA124001D44000491EC2B20C0683
:1003900004EBD010401C4008802A02D003E000206B
:1003A00010BD20F00100002900DA0020184310BD24
:1003B000002801DBC0F10040002901DBC1F1004150
:1003C000814201D3012070470020704700F00042B5
:1003D00020F00040C10DC0F3160040F400007F295A
:1003E00001DA00207047962903DCC1F19601C8406C
:1003F00001E096398840002AF4D04042704701F06D
:10040000004330B421F0004150EA010206D00A0D49
:10041000A2F56072C1F31301002A02DC30BC002097
:100420007047440F44EAC104C100E01830BC00EB3F
:10043000C25000F047B8000010B500683C22B0FB85
:10044000F2F302FB1303B0FBF2F00B60B0FBF2F32C
:1004500002FB1303B0FBF2F018224B60B0FBF2F387
:1004600002FB1303B0FBF2F0021D8B600723B2FB0B
:10047000F3F403FB1422800040F2B55300F66C3015
:100480008A61B0FBF3F2B0FBF3F403FB14004432D7
:1004900080084A61C8613B2802D3920700D0401C03
:1004A0000022074C13460A61E25C824203D8801A9C
:1004B0005B1C0B61F8E7401CC860084610BD0000DB
:1004C000B24000080029A8BF7047401C490008BF7F
:1004D00020F00100704710B4B0FA80FC00FA0CF074
:1004E00050EA010404BF10BC704749B1CCF12004AC
:1004F00021FA04F411FA0CF118BF01212143084339
:10050000A3EB0C01CB1D4FEA00614FEA102042BF64
:10051000002010BC704700EBC35010440029A4BF5A
:1005200010BC7047401C490008BF20F0010010BCFF
:10053000704700001CB50948009009480190054625
:10054000009C06E0E06840F0010394E8070098474B
:100550001034AC42F6D3FFF7EFFD0000FC45000875
:100560001C46000880B503F0C5FB002080BD80B5A7
:10057000012000F062FA0020BDE8804000F05DBA82
:1005800081B00021009146F60041C4F200010091C3
:100590000099084400900098008801B0704781B02D
:1005A0000022009246F60042C4F200020092009A35
:1005B000104400900098016001B07047FEE70268A7
:1005C0004FF6FE7C42F00103002908BF02EA0C034B
:1005D00003607047406880B270472DE9F0470268B9
:1005E00047F6F073D1E9026A9A4301F11007B0CFE0
:1005F00001F11C0E3243D1E900899EE80A501A43EA
:1006000022432A433A43114341EA0C0141EA0E01D5
:100610000160C0F804A0C0F80880C0F80C90BDE8E4
:10062000F087416070477047CA7802F00F0CD3061C
:1006300044BF8B784CEA030C2DE9F04709880B0680
:1006400022D082465AF8145B00F1100E00264FF0BB
:1006500001094FF00F08002709FA07F40C420DD0EA
:1006600008FA06F325EA03030CFA06F51D43282AC7
:10067000534602D0482A01D173461C600137082F27
:1006800006F10406E8D10560B1F5807F38BFBDE80A
:10069000F087436800F1100E00F1140A08250026C7
:1006A0004FF001094FF00F0809FA05F70F420CD07F
:1006B00008FA06F4A3430CFA06F42343282A544606
:1006C00002D0482A01D1744627600135102D06F169
:1006D0000406E9D14360BDE8F087B0B540F2040CF0
:1006E000C4F2010C0CF118031A46B0F1FF3FC4BF6D
:1006F0000422C4F20102146800F44012B2F5401F53
:100700001FFA80FE08D1DCF8005024F0706225F05A
:100710007064CCF8004011E0C20206D46FF00F0202
:1007200002EA50420EFA02F204E0C0F3034203254B
:1007300005FA02F224EA020242F070626FF00F043E
:1007400004EA504400290EFA04F518BF2A43B0F118
:10075000FF3FC8BF63461A60B0BD000070B584B0EB
:1007600042F2E85040F6082200264FF44075C2F2EB
:10077000000027A1C2F200024FF48073CDE90056B9
:1007800002F058FBC8BB40F208604FF48066C2F22A
:100790000000CDE9000640F2885044F2DB3140F61B
:1007A000210264241625C2F20000C0F60001C0F642
:1007B000000200230295039402F0E0FE28B940F203
:1007C0008850C2F2000002F073FF40F28810C2F2BB
:1007D0000000CDE9000640F2081044F2DB3140F69B
:1007E0005502C2F20000C0F60001C0F6000200236C
:1007F0000295039402F0C2FE08B104B070BD40F24D
:100800000810C2F2000004B0BDE8704002F050BF12
:100810006D6F646275735F72785F6D7100000000C8
:10082000C0B042F2E854C2F200046D4620462946A8
:100830004FF480724FF0FF3302F038FB0028F5D1FF
:10084000284602F0A6F8284600214FF4807202F0F4
:10085000C5FAEBE7002001214FF4E132002301F05B
:1008600043FD01F05BFB00BF01F078FD0A2002F0C0
:10087000CBFEF9E7FEE7000010B54FF080500121F4
:100880004AF2B55400F0A9F84FF00060012100F0E1
:10089000A4F8012000F090F80420FFF771FEA042B8
:1008A00014D1012000F028F9612000F012F901288C
:1008B000FAD14FF4007000F02BF9012000F022F97A
:1008C00000F058F9BDE8104000F04CB9FFF74FFEBA
:1008D000012000F011F900BF612000F0FAF80128B2
:1008E000FAD14FF4007000F013F9012000F00AF97A
:1008F00000F040F900F036F949F63F4000F020F9E9
:1009000000F030F900F007F804204AF2B551BDE8D4
:100910001040FFF744BE80B58CB040F20000C2F238
:10092000000001884288A1F26C710691511E059168
:100930008188C288CDE9032101894089CDE901017F
:1009400001A8FFF78BFCA0F5E14000F0E9F80CB03E
:10095000BDE8804000F006B9704710B5C1780029A5
:100960004EF20011CEF200011AD04EF60C52CEF229
:1009700000021268072323EA12220F23C2F1040C9B
:1009800023FA02F24378847890F800E003FA0CF33B
:1009900022401A43120101EB0E0383F8002300E00A
:1009A00080310078012300F01F0203FA02F2C0F345
:1009B000421041F8202010BD2021C4F20E21086011
:1009C0007047002941F21401C4F202010A680CBF09
:1009D00022EA0000104308607047002941F21C0120
:1009E000C4F202010A680CBF22EA0000104308604A
:1009F0007047002941F21001C4F202010A680CBFDD
:100A000022EA0000104308607047002941F21801F3
:100A1000C4F202010A680CBF22EA00001043086019
:100A20007047002941F20C01C4F202010A680CBFB0
:100A300022EA000010430860704740F24041C4F2CF
:100A400042210860704710B541F20404C4F2020468
:100A5000226802F00C02082A41F20022C0F27A0257
:100A600012D12368D4F800C0C3F3834E5FEACC33BD
:100A70000EF1020C02D523689B0303D540F6001249
:100A8000C0F23D020CFB02F20260236844F2C20194
:100A9000C3F30313C0F60001CB5CDA404260236865
:100AA000C3F30223CB5C22FA03F383602368C3F30E
:100AB000C223C95C44F2BE0322FA01F1C16022687C
:100AC000C0F60003C2F381329A5CB1FBF2F101611E
:100AD00010BD420941F20001012AC4F2020103D013
:100AE000022A14BF24312031096800F01F0021FAC6
:100AF00000F000F00100704740F28041C4F2422152
:100B00000860704740F23C41C4F2422108607047DF
:100B100041F22001C4F202010A68104308607047E4
:100B200042F60401C4F200010A8842F010020A8071
:100B3000020C8A820883088820F010000880704721
:100B400042F60401C4F200010A8842F010020A8051
:100B5000C0F303428A800881088820F010000880D2
:100B60007047000042F60400C4F2000001888906C4
:100B7000FCD5704742F60400C4F20000018821F061
:100B80000801018001880907FCD57047F0B581B0E4
:100B9000144641F21022C2F2000212780D46532A86
:100BA000064618BF01F006F8EFF311874FF0200159
:100BB00081F3118830462946224600F004F887F375
:100BC000118801B0F0BD2DE9F04381B0144641F227
:100BD000102200EB4000C2F2000202EBC002D06A19
:100BE0008946022802F1180510D0012806D0D0BB92
:100BF000EE682869B04230D9F14331E0EE682969E6
:100C0000B1420BD9F243A86811440BE0284649468B
:100C1000224601B0BDE8F04301F024B9A868F243D0
:100C200011440144A14238BF0C46871B6868BC428E
:100C3000304405D249462246FFF764FB26440AE0C9
:100C400049463A46FFF75EFBE61B686809EB070179
:100C50003246FFF757FBEE6022E0A968F2431044EA
:100C60000844A04201D200241AE0D5E901018F1BFB
:100C7000BC42304406D249462246FFF743FB06EB0E
:100C800004080BE049463A46FFF73CFBA4EB070893
:100C9000686809EB07014246FFF734FBC5F80C8092
:100CA000204601B0BDE8F08382B080B582B0CDE9C6
:100CB000042304AA019201AA00F006F802B0BDE8DC
:100CC000804002B0704700002DE9F04F97B0814698
:100CD00002A81290402092461390002012AE0024E9
:100CE0008846CDF85890CDE9140000BF18F8012BC4
:100CF000252A07D0002A00F012813046114601F063
:100D000091F805E1881C4FF0000B00BF98F8001027
:100D10002C2905DC232909D02B2911D1042108E035
:100D20002D2905D030290BD1022102E0082100E055
:100D300001214BEA010B08F101080130E6E700BF91
:100D4000A1F13A02002712F10A0F0ED307EB870236
:100D500001EB420210F8011BA2F13007A1F13A03A6
:100D600013F10B0FF2D8A0F101082E290AD1404649
:100D700010F8011FA1F13A0212F10A0F04D2002467
:100D8000804615E0002413E008F10200002400BFB3
:100D900004EB840201EB420210F8011BA2F13004C3
:100DA000A1F13A0313F10B0FF2D8A0F1010800BF33
:100DB00018F8010B00F0FB016829F9D0632807DC63
:100DC00057281EDC252800F0708046282ED09FE092
:100DD000A0F17001082925D8DFE801F0059A9A6A88
:100DE0009A7F9A9A2000DAF800001022011DCAF8B2
:100DF000001001683046082300270825CDE9005778
:100E000076E058280AD0632840F08280DAF80000A3
:100E1000011DCAF800100178304670E7DAF80000CA
:100E200010225DE0642866D0662871D1DAF80000EF
:100E3000073020F0070000F10801CAF8001003C8CD
:100E4000FFF7DDFA00210546FFF7B2FA18B9304680
:100E50002D2100F0E7FF2846FFF7B8FA01460028E9
:100E600000D54942304622463B46CDF800B000F05E
:100E7000DDFE30462E2100F0D5FF00212846C4F2C9
:100E8000C821FFF763FAFFF7A1FA002800D5404216
:100E900048F21F51C5F2EB11A0FB01125109642267
:100EA00001FB1201304602222DE03046252126E7C3
:100EB000DAF80000011DCAF8001005681FA0002D17
:100EC00008BF0546297819B33046013500F0AAFF5E
:100ED000159CB4F1FF3FF5DC2CE0DAF800000A22A3
:100EE000011DCAF80010016830462346CDE9007B99
:100EF00000F01AFF0CE0DAF800002246011DCAF8E3
:100F00000010016830463B46CDF800B000F08EFE80
:100F1000159C4146B4F1FF3F3FF7E8AE0AE044B10B
:100F2000149D25B102A948462A46FFF72FFE2C44FE
:100F300000E00024204617B0BDE8F08F284E554C45
:100F40004C290000704780B501F0C5FE02F037FC67
:100F5000BDE8804001F0CDBE82B041F20000C4F295
:100F600002000168002241F0010101604168CFF6F2
:100F7000FF021140416001684FF6FF72CFF6F66242
:100F800011400160016821F480210160416821F471
:100F9000FE0141604FF41F01816000210191009129
:100FA000016841F480310160016801F40031009171
:100FB000019901310191009919B90199B1F5A06F19
:100FC000F2D10168890354BF0021012100910099E9
:100FD000012934D142F20001C4F202010A6842F050
:100FE00010020A600A6822F003020A600A6842F0EE
:100FF00002020A604168416041684160416841F411
:1010000080614160416821F47C114160416841F494
:10101000E8114160016841F0807101600168890157
:10102000FCD5416821F003014160416841F00201B3
:10103000416000BF416801F00C010829FAD14EF669
:101040000850CEF200004FF00061016002B070471E
:1010500080B54FF08040012100F044F960B142F2C8
:101060002C60C2F20000006880474FF080400121F0
:10107000BDE8804000F012B880BD10B540F20044D9
:10108000C4F200042046012100F02CF928B12046CA
:101090000121BDE8104000F001B810BDC943018234
:1010A00070470288002918BF012122F00102114473
:1010B0000180704780B541F6FF71C4F2000188429B
:1010C00029DD44F2FF31C4F20101884240DD44F6DB
:1010D000FF31C4F20101884240F3A78044F6004189
:1010E000C4F20101884200F0E88045F20001C4F238
:1010F0000101884200F0BD8045F20041C4F20101C7
:10110000884218BF80BD4FF400100121FFF789FC11
:101110004FF40010E0E040F6FF71C4F20001884295
:1011200031DC40F2FF71C4F20001884259DCB0F1B9
:10113000804F00F0A68040F20041C4F200018842D6
:1011400040F0CF8002200121FFF753FC0220AFE0E6
:1011500043F2FF31C4F2010188422DDC42F200016A
:10116000C4F20001884274D042F60041C4F2010189
:10117000884240F0B6804FF400600121FFF751FC37
:101180004FF40060A8E041F2FF71C4F20001884210
:1011900039DC41F20001C4F20001884277D041F20B
:1011A0000041C4F20001884240F09B8020200121D0
:1011B000FFF71FFC20207BE043F20041C4F2010155
:1011C00088424ED044F20001C4F20101884240F04E
:1011D00088804FF480300121FFF723FC4FF48030EA
:1011E0007AE040F60001C4F20001884255D040F692
:1011F0000041C4F20001884273D108200121FFF7A9
:10120000F8FB082054E041F60001C4F200018842D6
:1012100049D041F60041C4F20001884261D18020EA
:101220000121FFF7E6FB802042E044F20041C4F2D6
:101230000101884249D044F60001C4F2010188420C
:101240004FD14FF480200121FFF7EBFB4FF48020BA
:1012500042E04FF480700121FFF7CBFB4FF4807028
:1012600026E04FF400500121FFF7DBFB4FF4005064
:1012700032E04FF480100121FFF7D3FB4FF48010D0
:101280002AE001200121FFF7B4FB012010E010202B
:101290000121FFF7AEFB10200AE004200121FFF737
:1012A000A8FB042004E040200121FFF7A2FB40201E
:1012B0000021BDE88040FFF79CBB4FF400200121D6
:1012C000FFF7AFFB4FF4002006E04FF400300121A0
:1012D000FFF7A7FB4FF400300021BDE88040FFF787
:1012E000A0BB80BD028A80890A4000EA010018BFC5
:1012F0000122002818BF012010407047002A82896F
:101300000CBF22EA0101114381817047018921F05C
:101310000701018170478184704740F6FF33B0F8C0
:1013200000C0C4F2000398420DDCB0F1804F1CD025
:1013300040F20043C4F20003984216D040F6000386
:10134000C4F200030FE040F60043C4F200039842E9
:101350000BD043F20043C4F20103984205D042F699
:101360000043C4F20103984204D14B882CF0700270
:1013700043EA020C41F2004240F48063C4F20002EE
:10138000934204D0CA882CF4407342EA030CA0F8BC
:1013900000C08A888285A0F18042A2F596320B882F
:1013A0004FEAB222072A038507D8012303FA02F283
:1013B00012F0E50F1CBF097A018601218182704776
:1013C000F0B593B005464FF480200121FFF705FBEF
:1013D00008200121FFF719FB44F6000440F2004009
:1013E000C4F20004C1F6030004F5444607AF0790B9
:1013F00030463946FFF718F94FF40060ADF81C008D
:1014000004208DF81F0030463946FFF70DF94FF4E0
:10141000402003950025059003A920460495ADF8CA
:10142000185000F062FB204640F22551012200F0E6
:1014300045FB204640F22441012200F03FFB2046BC
:1014400040F22661002200F039FB40F22710C0F282
:101450000310029002A8FFF780FA01200121FFF794
:10146000B0FA201D089041F21010C2F200000230C4
:10147000099080200D904FF480700E950C950F957B
:101480000A950B9020201295302510904FF4805033
:10149000C4F20205119008A92846FFF79EF82046DD
:1014A0004021012200F0E8FA28460121FFF787F8E1
:1014B0002046012100F0D6FA42F25830C2F2000074
:1014C000036806A7591C016006A608A10EA2002009
:1014D000CDE90067FFF7E8FB13B0F0BD1B5B306D93
:1014E000000000005B495D3A0000000025735B25A9
:1014F000645D2573554152543320496E6974204F01
:101500004B0D0A25730D0A001B5B313B33326D0016
:10151000B0B58CB002200121FFF753FA40F60B5111
:1015200044F60044C2F20001C4F200040231201D5E
:10153000029180210190002006914FF4807140F2C9
:1015400030450790059008900390049120210B905E
:101550004FF48050C4F2020509910A9001A928466F
:10156000FFF73BF820464021012200F085FA28468B
:101570000121FFF724F80CB0B0BDB0B582B044F63D
:101580000044C4F20004204640F2244100F081FAF5
:10159000A0B3208810218DF80700A0888DF80700DF
:1015A000204600F055FA40F60B60C2F2000001211F
:1015B00040F60B5540F230440170C2F200050420A1
:1015C000C4F2020428702046FFF704F84042687015
:1015D000C0B2821C42F2E850C2F20000294601F07B
:1015E00018FD20460021FEF7EAFF20464FF48071E7
:1015F000FFF717F820460121FEF7E1FF02B0B0BD6A
:10160000F0B589B005464FF400200121FFF7E5F958
:1016100010200121FFF7F9F944F6004440F20040A0
:10162000C4F20004C1F6030004F5444608AF089074
:1016300030463946FEF7F8FF4FF40060ADF8200061
:1016400004208DF8230030463946FEF7EDFF0020D8
:101650004FF4402105900691ADF81C0004A92046E6
:10166000049500F042FA204640F22551012200F094
:1016700025FA204640F22441012200F01FFA2046BC
:1016800040F22661002200F019FA40F23410C0F254
:101690000310039003A8FFF760F9FFF739FF204616
:1016A000012100F0DFF942F25C30C2F20000036871
:1016B00006A7591C016007A608A10FA20020CDE9CA
:1016C0000067FFF7F1FA09B0F0BD00BF1B5B306D9A
:1016D000000000005B495D3A0000000025735B25B7
:1016E000645D2573554152543420496E6974204F0E
:1016F0004B0D0A25730D0A001B5B313B33326D0025
:1017000070B582B045F20004C4F20004204640F2F5
:10171000255100F0BEF940F60C660028C2F2000622
:10172000204610D000F03CFA31784A1CD3B2327017
:1017300040F60D62C2F2000211448870FF2B40F2A5
:1017400025512BD128E040F2244100F0A2F958B3F2
:1017500040F60D70C2F2000001210170208840F6B1
:101760000D658DF80700A088C2F200058DF807000E
:1017700005203178287042F2E85069708A1CC2F264
:101780000000294601F045FC284600214FF48072F4
:1017900001F024FB40F2244100203070204602B0CA
:1017A000BDE8704000F057B902B070BDF0B589B027
:1017B00006464FF480100121FFF70FF91020012198
:1017C0001027FFF722F920200121FFF71EF908203A
:1017D0000121FFF71AF901200121FFF716F940F264
:1017E0000020C0F230000121FEF777FF41F2000037
:1017F00045F20004C1F60300C4F2000408AD0890ED
:1018000004F540402946FEF70FFF0420ADF8200004
:1018100048208DF8230004F544402946FEF704FFD4
:1018200000204FF4402105900691ADF81C0004A95A
:101830002046049600F059F9204640F22551012235
:1018400000F03CF9204640F22441012200F036F934
:10185000204640F22661002200F030F940F23510B7
:10186000C0F20310039003A8FFF777F82046012188
:1018700000F0F8F81820ADF8200004F53C402946A7
:101880008DF82370FEF7D0FE42F26030C2F2000005
:10189000036806A7591C016006A608A10EA2002035
:1018A000CDE90067FFF700FA09B0F0BD1B5B306DB2
:1018B000000000005B495D3A0000000025735B25D5
:1018C000645D2573554152543520496E6974204F2B
:1018D0004B0D0A25730D0A001B5B313B33326D0043
:1018E000B0B582B043F60004C4F20104204640F2D1
:1018F000244100F0CEF848B3208810218DF807006D
:10190000A0888DF80700204600F0A2F840F60850A5
:101910005824C2F20000012140F60E75C4F2020400
:101920000170C2F2000520462970FEF753FE4042C6
:10193000687020460021FEF742FE20464FF4807179
:10194000FEF76FFE20460121FEF739FE02B0B0BD62
:10195000B0B582B044F20044C4F20004204640F224
:10196000244100F096F878B3208810218DF8070004
:10197000A0888DF80700204600F06AF840F609506C
:10198000C2F20000012141F210046C250170C2F284
:1019900000040220C4F2020520702846FEF71AFE59
:1019A0004042607028460021FEF709FE28464FF4A9
:1019B0008071FEF736FE20464FF48071FEF7BBFCC7
:1019C00028460121FEF7FBFD02B0B0BDB0B582B0E4
:1019D00044F60004C4F20004204640F2244100F022
:1019E00058F898B3208810218DF80700A0888DF84A
:1019F0000700204600F02CF840F60A50C2F2000022
:101A0000012141F2101530240170C2F200050320BB
:101A1000C4F2020428702046FEF7DCFD40426870E4
:101A2000C0B2821C42F2E850C2F20000294601F026
:101A3000F0FA20460021FEF7C2FD20464FF48071E7
:101A4000FEF7EFFD20460121FEF7B9FD02B0B0BD63
:101A5000C94301807047090A012202FA01F1C94312
:101A6000018070478289002918BF012122F40052A9
:101A700042EA413181817047002A828A0CBF22EA02
:101A800001011143818270470088084018BF01207E
:101A90007047C1F342121423022A08BF1023012AFF
:101AA00008BF0C23C35A008801F01F02090A23FA59
:101AB00002F2C840104000F001007047C1F3421329
:101AC00001F01F0C1421022B08BF1021012B4FF035
:101AD000010308BF0C21002A03FA0CF243580CBF83
:101AE00023EA02021A434250704770B586B004469A
:101AF000008A0D46C98820F4405008432082A089FE
:101B00004EF6F3110840A9882A896B8908431043CF
:101B10001843A081A08AA98920F44070084301AE2F
:101B2000A0823046FEF78FFF43F6000106F1080061
:101B3000C4F201018C4208BF06F10C0000681922B2
:101B4000B4F90C1050432A680123B1F1FF3FC8BF1C
:101B5000022302FA03F1B0FBF1F048F21F51C5F283
:101B6000EB11A0FB01235A096FF0630302FB030092
:101B7000B4F90C300326B3F1FF3FC8BF042600FAC6
:101B800006F000F13200A0FB01014FF00700C8BFD2
:101B90000F2000EA511040EA0210208106B070BD0B
:101BA00080886FF35F2070476FF35F2181807047FB
:101BB000FEE7000010B541F21024C2F200042046F6
:101BC000A821FEF7B8FB03202061606144F2D23106
:101BD00041F2C820C0F60001C2F20000A161E0613C
:101BE0004FF4805020620020A0626062E0622166B3
:101BF00041F2B821C2F2000161661021A16606A17E
:101C00002067E066606700BF80F00F028A5C2254A4
:101C100001301028F8D110BD00000000000054541D
:101C20005220524547474553000000002DE9F04F30
:101C300083B091468B460546C1F1000A002908464B
:101C400000D5504601270A280CDB4CF6CD41CCF6D6
:101C5000CC4100BFA0FB012663284FEAD60007F164
:101C60000107F7D8DDF830804F4598BF4F464FF059
:101C7000000443B108F00400BBF1000F48BF012489
:101C800044EA90001C1AB9F1000F0DD118F00200BF
:101C90000AD0E86800282ED4BBF1000F18D45FEA00
:101CA00048701AD52B2115E05FEAC870F1D1002CDD
:101CB000EFD000BF002CECD0A742EAD2284620216A
:101CC000013C00F0AFF8E868B0F1FF3FF2DCE0E77C
:101CD0002D21D346284600F0A5F8E86800280AD44C
:101CE0005FEA88700AD4284659460A224B46CDE955
:101CF000004800F019F803B0BDE8F08F08F00100CB
:101D000050EA0900EFD1002CEDD0661EA64238BF84
:101D1000A742E8D22846302100F084F8E86834462B
:101D20000028F2D5E7E700002DE9F04F81B0DDF89B
:101D300028A01F4615468B46914281464FF001046C
:101D400005D35846B0FBF5F00134A842FAD20B99FE
:101D5000BC4298BF3C46BAF1000F1DD011F0010003
:101D60001AD14FF02008880748BF4FF030082020D4
:101D7000002F18BF804600BFBAF1000F0CD05445A9
:101D80000AD248464146AAF1010A00F04BF8D9F8B8
:101D90000C00B0F1FF3FEFDCD9F80C00002836D47E
:101DA000012600BF022F01D3013F03E0BBFBF6F089
:101DB000A84201D36E43F5E70FF25808BBFBF6F7D4
:101DC000484618F8071000F02DF8D9F80C00002844
:101DD00006D4B6FBF5F007FB16BBAE420646EDD2C5
:101DE0000B98C00718BFBAF1000F10D009E04846A1
:101DF000202100F017F8D9F80C00AA46B0F1FF3FF7
:101E000005DDAAF10105554538BF5445EFD301B0B2
:101E1000BDE8F08F3031323334353637383941420E
:101E20004344454610B50446D0E90120431C934283
:101E300007D822681154E06862680130E0601846F3
:101E4000A360904218BF10BD21682069FEF79EFE76
:101E5000A168884202D10020A06010BD4FF0FF3081
:101E6000E06010BD2DE9F04381B0C76814460D460F
:101E700080464FF0000900BFD8F81010D8F80800CD
:101E8000FA43B9421144A0EB070698BF0144B1429E
:101E900038BF0E46D8F80400A64228BF264638446C
:101EA00029463246FEF72EFAD8F80800F119A41B8D
:101EB0000F1AB144354418BF0F46002CC8F80C70F7
:101EC000DAD1484601B0BDE8F08318B1C1B219B10A
:101ED00001200EE00020704710F47F4102D0090A73
:101EE000092006E010F47F0107BF010E1920090C3C
:101EF000112044F2D202C0F60002515C084470473F
:101F0000B0B50446FEF730F9A16F054609B1204689
:101F100088472846BDE8B040FEF72AB910B540F220
:101F20001004C2F20004207801281CBF062010BD56
:101F300000F01CFB0020207010BDB0B50C460988D5
:101F400005292BD1C278017940F2CE7541EA0222EF
:101F5000531E9BB2AB4221D800254FF0010CB0F8C4
:101F60000130258000F802CB258892B2013525800A
:101F7000D508490718BF0CEBD20500F8015C93FAAD
:101F800083FE23884FEA1E4101332380002300F0A3
:101F9000F5FA28B1BDE8B04000F0EEBC0320B0BDBA
:101FA0002088E9B2084420800020B0BDB0B50C46BE
:101FB000098805292BD1C278017940F2CE7541EA12
:101FC0000222531E9BB2AB4221D80025B0F801304B
:101FD0002580022500F8025B258892B20135258014
:101FE000D5084FF0010C490718BF0CEBD20500F8DB
:101FF000015C93FA83FE23884FEA1E41013323805C
:1020000000F01AFB28B1BDE8B04000F0B5BC0320D9
:10201000B0BD2088E9B2084420800020B0BD70B572
:102020000C460988052925D1B0F803100ABA4FF0EB
:10203000FF3101EB124189B27C294FF003011AD81C
:102040000025B0F80130258000F8021B2188120C11
:1020500001315600218000F8016C25881BBA190C4B
:102060006B1C2380002300F01BFB30B1BDE87040E7
:1020700000F082BC0321084670BD20880021304456
:102080002080F8E7B0B50C460988052927D1B0F8BB
:1020900003104FF0FF3209BA02EB114292B27B2AD1
:1020A0001DD8B0F801300A0C19BA0023238004238C
:1020B00000F8023B238855000133238000F8015CBF
:1020C0004FF0010C23880CEB1141013389B22380BE
:1020D00000F028FB28B1BDE8B04000F04DBC032063
:1020E000B0BD2088284420800020B0BD2DE9F041FB
:1020F0000C4609880A2949D30546B0F8030006BAF8
:102100004FF0FF3000EB164080B27C284FF0030008
:102110003DD8B5F8071009BA0A0C08BFBDE8F08130
:10212000792A34D8687AB0EB420F1CBF0320BDE88F
:10213000F081B5F805004FF0010800BA08EB104136
:10214000B5F8017005F10A0089B2012300F0A8FA80
:10215000A8B938BA08EB1041002020801720287059
:102160002088320C0130560020806E702388A81C15
:102170000133238089B2002300F092FA18B1BDE840
:10218000F04100F0F9BB2088304420800020BDE8F9
:10219000F081B0B50C4642F62A21C2F200010D884A
:1021A00042F6F0010130C2F200012A46FEF7AAF819
:1021B000691C00202180B0BD10B582B009880529B6
:1021C00001D1017919B10324204602B010BDC278B3
:1021D000B0F80100FF2A01D0002AF4D100BA010CA6
:1021E000A2F1FF00B0FA80F0400900248DF806004B
:1021F0000DF10600012201238DF8074000F0BEF921
:102200000028E1D000F0B8FB0446DDE70988052985
:102210001CBF0320704780B5B0F80110033009BA25
:10222000090C0122012300F03BFABDE8804008B10F
:1022300000F0A2BB00207047B0B50D460988062902
:1022400024D3C17804794FF0010C44EA01218AB209
:10225000013989B2D30864074FEA111118BF0CEB9A
:10226000D2037A294FF0030111D84479DBB29C42A2
:102270000DD1B0F80110063009BA090C012300F0A5
:102280007DF930B1BDE8B04000F076BB03210846CF
:10229000B0BD052000212880F9E710B50C4609885B
:1022A00006291BD3C278017941EA0222531E9BB250
:1022B000772B13D8437901F07F01B3EB410F0DD198
:1022C000B0F80110063009BA090C92B2012300F0EF
:1022D000E7F928B1BDE8104000F04EBB032010BD67
:1022E00005202080002010BD01F1080C5FFA8CFC55
:1022F000BCF1090F06D342F6EC0CC2F2000C8CF8CC
:10230000001008B10220704780B542F2286C43F6F5
:10231000CF70C2F2000CC0F60000CCF8000042F210
:102320002C6C44F20F00C2F2000CC0F60000CCF896
:102330000000084611461A4600F096F800B180BD2C
:1023400001F0C3FD38B140F21000C2F200000121DB
:102350000170002080BD032080BD000040F210000D
:10236000C2F20000007808B10620704770B582B054
:102370000DF1070001F095FD012872D19DF80700CD
:10238000022823D001286CD142F2D02442F2C82086
:10239000C2F2000442F2CC2242F2D223C2F2000086
:1023A000C2F20002C2F20003214600F07AF80028CF
:1023B00057D1207830B142F6EC01C2F20001097821
:1023C00088424ED1022001F088FD4AE042F2CC243E
:1023D000C2F20004206842F2C926017840F2840368
:1023E000C2F200060022C2F20003317013F832502C
:1023F00025B18D4204D00132102AF7D1012007E027
:1024000003EBC2014A6842F2D221C2F200019047B6
:1024100042F2D021C2F20001097811B3226878B1EA
:10242000317842F2D22341F08001C2F2000301264A
:102430001E801170198822684E1C1E80505422681C
:1024400042F2C82042F6EC0142F2D223C2F200006E
:10245000C2F20001C2F20003007809781B8800F084
:1024600045F8002002B070BD10B508460C4601F0DA
:1024700042FD012804D1B4F5964F03D9232008E08A
:1024800003200CE047F6A0716000C0F21701B1FB19
:10249000F0F080B201F06CFD013818BF0320C0B22B
:1024A00010BD2DE9F04142F61017C2F20007984620
:1024B0003B7842F62C240370C2F2000420880428E2
:1024C00006D30E462188B81C154601F099FC10B1C0
:1024D0000520BDE8F081B878307020880338A8F86E
:1024E0000000F81C28600020BDE8F081F0B581B044
:1024F00042F2D527C2F200073F78012F32D142F2D3
:10250000246742F6C6360446501EC2F20007C2F2E5
:10251000000601253860358002F8011C3188194415
:102520003180318801F06CFC31884A1C328042F6DF
:102530001012C2F20002114488703188000A4B1C4C
:1025400011443380887042F2D620C2F20000057038
:102550003088002538B139683288204601F0D8FC2F
:10256000358000E00525284601B0F0BD42F2D520B7
:10257000C2F200000021017001F07BBC2DE9F043A4
:1025800081B00646501864284FF0010051D890469B
:1025900042F62E22C2F20002128800EBD804881AFA
:1025A000012B00F007051FD0002B41D142F610216E
:1025B00080B2C2F2000101EBD007013E3846294645
:1025C000082201F039FD013C06F8010F210407F152
:1025D0000107F3D108F00701C1F10801884000F0BC
:1025E000FE00C840307023E080B2B8F1080F4FEA17
:1025F000D00710D342F61029C2F2000916F8013BA9
:1026000009EB070029460822013701F023FD013CB0
:10261000A0B20128F2D818F0070209D042F6102122
:10262000B8B2C2F2000133780844294601F012FD25
:10263000002001B0BDE8F0832DE9F04190460A4446
:10264000642A4FF0010227D842F63023C2F2000379
:102650001B8802EBD807C91A8AB201F0070542F6B7
:102660001D21C2F2000101EBD206441E304629466C
:10267000082201F0E1FC013F04F8010F390406F1E2
:102680000106F3D108F00701C1F10801884000F00C
:10269000FE00C840002220701046BDE8F081000016
:1026A000B0B502EB010CBCF1640F84BF0120B0BDDA
:1026B00042F6FA2CC2F2000CBCF800C0A1EB0C01EF
:1026C000CBB1012B2BD152B342F6322CC2F2000C0B
:1026D00010F8025B8CB24FEA052E2CF814E010F8CB
:1026E000013C013A43EA05232CF81430130401F1AC
:1026F0000101EDD113E092B142F6322CC2F2000C8E
:102700001FFA81FE0CEB4E035B78013A00F8023BA6
:102710001CF81E30013100F8013C1304F0D10020F8
:10272000B0BD00005318642B84BF01207047E2B194
:1027300080B542F6C433C2F200031B8842F6FC2C7B
:10274000C91AC2F2000C00BF1FFA81FE0CEB4E0347
:102750005B78013A00F8023B1CF81E30013100F8AA
:10276000013C1304F0D1002080BD00207047000020
:10277000FEF782F8FDF7F2FF0A2000F045FFFBE7C5
:10278000B0B544F2784444F27440C0F60004C0F698
:102790000000A04209D244F27445C0F6000500BF13
:1027A00055F8040B8047A542FAD3BDE8B040FFF7C7
:1027B000DFBF00002DE9F04F87B0DDF848A00FF231
:1027C000A41B5FEA4A6762A758BFBB465FEACA67B5
:1027D000DDE9106448BF2AF0010A5FEACA774FF0CA
:1027E000300E08BF4FF0200E5FEA8A7505D400272F
:1027F00001974FF0010C009718E0B2F1FF3F07DDA1
:102800005FEA4A750CD45FEA0A75F0D5202708E024
:1028100001270197002702972D275242009708E0D1
:102820002B274FF0000C0125009701952AB3CDF816
:1028300008C04CF6CD470025CCF6CC470DF10C086E
:10284000A2FB079C02F00F044FEADC0606EB8606AB
:102850000A2B08BFA2EB46041BF804404FEA1212F1
:1028600008BF4FEADC0208F805400135002AE7D12D
:10287000DDF808C0DDE9106403E030228DF80C209B
:102880000125A5422346C8BF2B461AF0110FA6EB1F
:10289000030216D10027002AC8BF0127019E374036
:1028A000D21B012A0CDB20268842A2F1010238BF8C
:1028B0000670002A00F10100F6DC4FF0FF3200E064
:1028C000013ABCF1000F05D188423CBF009F077060
:1028D000013A01305FEACA6710D4012A0DDB00BF5C
:1028E0008842A2F1010238BF80F800E0002A00F11E
:1028F0000100F5DC4FF0FF3200E0013AA5420ADAB0
:10290000302700BF8842A3F1010338BF07709D4202
:1029100000F10100F6DB5CB103AB013B88423CBF38
:102920005F5D0770013D6F1C012F00F10100F5DCB8
:10293000012A0ADB013220238842A2F1010238BFBA
:102940000370012A00F10100F6D807B0BDE8F08F4E
:102950003031323334353637383961626364656615
:1029600000000000303132333435363738394142D7
:102970004344454600000000002808BF7047072870
:1029800004BF06207047012804BF022070470420BE
:10299000704742F22861C2F200010968084700004E
:1029A00010B584B042F268324FF40071C2F20002F6
:1029B00042F268540A20CDE90021C2F2000442F23A
:1029C00081724FF0140C029007A1C0F6000220465D
:1029D0000023CDF80CC000F0D1FD204604B0BDE8C6
:1029E000104000F065BE00BF6D61696E0000000020
:1029F000B0B544F2744444F27040C0F60004C0F62E
:102A00000000A04228BFB0BD44F27045C0F60005EA
:102A100055F8040B8047A542FAD3B0BD80B5FDF749
:102A2000A3FB42F24871C2F200010A8801320A8017
:102A3000BDE88040FDF79CBB80B5FDF795FB42F2F9
:102A40004871C2F200010A88013A13B2002B0A80D1
:102A500003DDBDE88040FDF78BBB00220A80FDF757
:102A600087FB42F23460C2F20000006818B1BDE892
:102A7000804000F0D4BB80BD80B5092001F097F9FB
:102A800040F20C00C2F20000006844F6D351C1F2DB
:102A90006201A0FB01014FF0FF3000EB911100201B
:102AA000B0EB116F0DD14EF21002CEF20002516068
:102AB0004EF62351CEF20001F0230B7090600720F8
:102AC0001060BDE88040FFF793BF000070B582B092
:102AD00004460D208DF80700204600F089FCA0B1C7
:102AE00005460DF1070600BF20780A2804D1002012
:102AF00031460122FEF74AF8002021460122FEF766
:102B000045F8013D04F10104EED102B070BD0000B2
:102B100010B542F23861C2F200010968044619B1E9
:102B200020468847002866D0216C44F25F40C0F6FA
:102B3000000000F0ECF8616A44F21E40C0F60000AC
:102B400000F0E5F8A16A44F22B40C0F6000000F066
:102B5000DEF8E16A44F23840C0F6000000F0D7F831
:102B6000216B44F24540C0F6000000F0D0F86168E7
:102B700044F25240C0F6000000F0C9F8A1681EA05F
:102B800000F0C5F8E16820A000F0C1F8216922A09A
:102B900000F0BDF8616924A000F0B9F8A16926A091
:102BA00000F0B5F8E16928A000F0B1F8216A2AA088
:102BB00000F0ADF8616B2CA000F0A9F8A16B2EA07D
:102BC00000F0A5F8E16B30A000F0A1F820784007F4
:102BD00006D444F2E730C0F6000000F098F809E0AF
:102BE00000F03BFD014644F20140C0F6000000F059
:102BF0008EF800BFFEE710BD7230353A20307825E0
:102C00003038780A000000007230363A20307825DB
:102C10003038780A000000007230373A20307825CA
:102C20003038780A000000007230383A20307825B9
:102C30003038780A000000007230393A20307825A8
:102C40003038780A000000007231303A20307825A0
:102C50003038780A000000007231313A203078258F
:102C60003038780A000000007231323A203078257E
:102C70003038780A00000000206C723A2030782545
:102C80003038780A000000002070633A2030782540
:102C90003038780A0000000010B5043222F0070E28
:102CA0004BF6EF64AEF1400C6FF03F02CDF6AD6431
:102CB0004EF802400432FBD100224FF080744EF8EF
:102CC000080C60464EE908124EE906224EE904233C
:102CD0004EF8044C10BD80B5FDF746FA42F2406153
:102CE000C2F200010A7801320A70BDE88040FDF7A7
:102CF0003FBA80B5FDF738FA42F24061C2F20001F6
:102D00000A78013A0A70BDE88040FDF731BA83B015
:102D100010B581B042F24864844603A8C2F20004B0
:102D20000EC003AB2046FF216246009300F066FE12
:102D30002046FFF7CBFE01B0BDE8104003B070475E
:102D40002DE9F041102A02D203462AB90AE041EAED
:102D500000039B0708D0034611F8017B013A03F8F2
:102D6000017BF9D1BDE8F08100234FF0000C00BFDA
:102D700051F80C7001EB0C0640F80C70776800EB12
:102D80000C056F60B768103BAF60F768D4180F2C64
:102D90000CF1100CEF60EBD801EB0C0E042C00EBE7
:102DA0000C0317D3A2EB0C08A8F10405002400269D
:102DB0000F1957F80C70021942F80C70371FAA1936
:102DC0000434032A3E46F3D808EB07020EEB040155
:102DD0002344BAE771462246B7E7000010B5042A3B
:102DE00004461DD314F003001AD1C8B24FF00133CA
:102DF000102A00FB03F320460CD300BF103AC0E9B1
:102E00000033C0E902330F2A00F11000F6D8042A7B
:102E100007D300BF043A032A40F8043BFAD800E085
:102E2000204622B1CBB211461A46FDF77DFA204664
:102E300010BD00002DE9F04117460A46DDE9068580
:102E400006211E46044600F0B5F904F11400C4E959
:102E50000500F01C4FF6FC7220F003011040021D2B
:102E6000B8FBF2F34FF0000C63849BB26572E7612C
:102E70002184C4E90ACCC4F830C06BB100213D46BE
:102E8000002600BF296006FB02710136013B154494
:102E9000F8D1281A0438206304F134010020A4F882
:102EA00024C06163A163BDE8F08100002DE9F04F0B
:102EB00085B09A4615460E460446049300F0CDFBB5
:102EC0000746FDF751F9A18C834641B9BAF1000FCD
:102ED00005D15846FDF74CF96FF001008FE059B36A
:102EE000D4E90A703A68B842A26204BF0020E062E6
:102EF000481EA0845846FDF73BF9208C391DA84296
:102F000038BF054630462A46FFF71AFFFDF72CF971
:102F100054F8341F054654F8042CA1423A6044F892
:102F2000047C68D0A1F1140000F075FB2846FDF781
:102F30001FF900F074F961E004F11800CDE90065B3
:102F400004F1140807F11409039007F14C0000255F
:102F5000029000BFBAF1000F4FF00000386351D06B
:102F6000667A384600F0BCFB039940467EB1012EDC
:102F700014D140460068404507D097F8351090F8C6
:102F800021209142F6D2011D01E0039940460A68D2
:102F9000C2F80090BA61C1F80090786104980128E5
:102FA0000BDB00F006FC029E05463046002104AA19
:102FB00000F070FC304600F0C3FC5846FDF7D8F82E
:102FC00000F02DF9386BD0B9FDF7CEF8DDF810A080
:102FD0008346BAF1010F08DB00F0EBFB0499451BB7
:102FE000481B20EAE07ACDF810A0A18C0029B1D0CE
:102FF000DDE9006574E72846FDF7BAF8002005B062
:10300000BDE8F08F5846FDF7B3F86FF00100386364
:10301000F5E70023AFF300802DE9F04F87B00446B9
:10302000008C0693904202D24FF0FF3099E09A460E
:1030300015460E4600F011FB0746FDF795F8D4F84B
:1030400030908346B9F1000F08BFBAF1000F00F0CD
:103050008380B9F1000FCDE9016521D0D9F80000D6
:1030600020635846FDF784F80021484640F8041BC9
:10307000DDE90112FFF764FEFDF776F8E16A054627
:1030800009B1C1F80090A06AC4F82C9008B9C4F83E
:103090002890A08C4FF6FF71884265D128465CE0ED
:1030A00007F11400049004F1380004F1340805908D
:1030B00007F14C0000260390BAF1000F4FF000001A
:1030C000386349D0657A384600F00AFB05994046D6
:1030D0007DB1012D13D140460068404507D097F8D7
:1030E000351090F821209142F6D2011D01E005999A
:1030F00040460A68049BBA6113600B6078610698C9
:1031000001280BDB00F055FB039D064628460021F5
:1031100006AA00F0BFFB284600F012FC5846FDF757
:1031200027F800F07CF8386BD8B9FDF71DF8DDF80A
:1031300018A08346BAF1010F08DB00F03AFB0699AC
:10314000861B881B20EAE07ACDF818A0D4F83090CE
:10315000B9F1000FB0D081E75846FDF709F86FF0DC
:10316000020007B0BDE8F08F54F8141F0130A142EF
:10317000208209D0A1F1140000F04DFA2846FCF796
:10318000F7FF00F04CF802E02846FCF7F1FF0020C2
:10319000E7E710B5044600202072FCF7E5FF54F87D
:1031A0000C1F62684A601160C4E90044BDE8104029
:1031B000FCF7DEBFF0B581B00E4640F214011546B3
:1031C00004460020C2F200010A5CB24204D0103072
:1031D0007028F9D1002700E00F18FFF71FFC043713
:1031E000384600BF0068B842FCD1FFF725FC46F026
:1031F0008000207220462946082200F001F9FCF7E1
:10320000B3FF396844F80C1F4C603C60676001B044
:10321000BDE8F040FCF7ACBF007AC009704710B5BC
:10322000FCF7A2FF42F24871C2F20001098804468D
:1032300021B12046BDE81040FCF79ABF42F6540089
:10324000C2F200000068FEF740FE42F254710138FD
:10325000C2F2000142F2346C51F830E0C2F2000CCC
:10326000DCF80020AEF114039342E2D042F2306168
:10327000C2F20001087042F24060CCF80030C2F2A5
:103280000000017802F11C0000290EF1080102D0B3
:10329000FCF771FFCDE7FCF76EFFCAE710B50446F7
:1032A000FCF762FF94F8341094F8352001F0F00137
:1032B000013184F8341042F25471C2F2000101EB82
:1032C000C2014A6842F6540C04F11403C2F2000C25
:1032D0001360A2614B60A26BDCF80030616143EACD
:1032E0000201CCF80010BDE81040FCF741BFB0B5BA
:1032F0000546FCF739FF294651F8142F4B685360F7
:103300001A6091F8212042F254730960C2F200035E
:1033100053F8324003EBC2029442496008D142F6AE
:103320005402C2F20002A96B136823EA0101116082
:10333000BDE8B040FCF71CBF80B582B00AA0FFF723
:10334000E6FC0CA0FFF7E3FC0FF24C0C15A00321E8
:1033500001220523CDF800C0FFF7D9FC19A002B067
:10336000BDE88040FFF7D3BC0A205C207C202F0AF8
:10337000000000002D205254202D20202020205419
:103380006872656164204F7065726174696E672050
:1033900053797374656D0A004170722031362032A2
:1033A00030323500202F207C205C2020202020255A
:1033B000642E25642E2564206275696C6420257353
:1033C0000A0000002032303036202D2032303230DA
:1033D00020436F7079726967687420627920727413
:1033E0002D746872656164207465616D0A00000067
:1033F000002100BF425C0131002AFBD1481E70470A
:1034000010B504468AB1C2F10102601C0B7800F8C5
:10341000013C33B101320131012A00F10100F5D143
:1034200003E012B15142FCF786FF204610BD0000B8
:1034300042F24871C2F200010020088042F2547149
:10344000C2F200010A180A500830B0F5807F5260BD
:10345000F8D142F23060C2F200001F21017042F246
:103460003460C2F200000021016042F65400C2F252
:103470000000016042F24C70C2F20000C0E900009E
:10348000704780B542F65400C2F200000068FEF7B3
:103490001CFD42F25471C2F2000101EBC00050F871
:1034A000080C42F23462A0F11401C2F200020830AA
:1034B0001160BDE88040FCF78CBE42F6E000C2F22D
:1034C0000000C0E9000070477047B0B542F23460B8
:1034D000C2F200000568FCF747FE04462846FEF7E6
:1034E0000FFD2846FFF703FF042085F8340005F19F
:1034F0004C0000F0F4F92846FFF78EFE012803D1B6
:103500002846FFF746FE09E042F24C70C2F2000086
:10351000016845F8141F4D6005606860FFF77FFE85
:103520002046BDE8B040FCF723BE0000FEE70000E7
:1035300010B584B042F658028021C2F2000242F275
:10354000D8241F20CDE90021C2F2000443F22D52FD
:103550004FF0200C029007A1C0F600022046002385
:10356000CDF80CC000F00AF8204604B0BDE81040C9
:1035700000F09EB87469646C650000002DE9F047A6
:1035800082B00DF1280A16460A46DDF834909AE812
:10359000800501211D460446FFF70CFE04F11400CE
:1035A000C4E90500384623214246C4E90865C4E958
:1035B0000A78FFF713FC04F120030FCB1A4443F2FF
:1035C000CB43043AC0F60003FFF766FB43F22372D5
:1035D000E061002704F14C00C0F6000221462346BA
:1035E00084F836A084F835A0A763C4E9119927634D
:1035F00084F83470C4E91E770097019700F086F9CB
:10360000002002B0BDE8F08780B500F0CFF800F0F0
:103610002AF8002080BDB0B5044690F8340000F0D0
:103620000F0002281CBF4FF0FF30B0BDFCF79CFD1F
:103630002246A16952F8143F054604F14C00596036
:103640000B60A261126000F0BEF92846FCF790FD05
:103650002046FFF723FE0020B0BD42F23460C2F2E4
:10366000000000687047F0B581B00090FCF77CFD69
:1036700042F23461C2F200010C680546204600F0B7
:103680002FF804F14C066A4630460021002700F06E
:1036900001F9304600F054F92846FCF769FDFFF7C0
:1036A000BEFD206B023008BF2763002001B0F0BDD3
:1036B00080B590F83610012280F8351002FA01F139
:1036C0008163022180F83410FFF7A5FF42F23460D5
:1036D000C2F20000006808B1FFF7A1FD002080BD24
:1036E000B0B5044690F8340000F00F0001281CBF6C
:1036F0004FF0FF30B0BDFCF737FD05462046FFF721
:10370000F6FD94F8340000F0F000023084F8340044
:1037100004F14C0000F057F92846FCF729FD002081
:10372000B0BD80B50346826953F8141F6FF0010CD9
:10373000C0F830C04A60116083611B60FFF7AEFDC6
:10374000BDE88040FFF76BBD10B5FCF70DFD42F200
:103750003461C2F20001096891F8342002F00F02CE
:10376000012A1FD10A4652F814CF53689C4519D03C
:1037700091F835E042F25474C2F2000404EBCE0436
:10378000CCF804308A61D4F804E0C3F800C0CEF865
:103790000020C1F818E062604C61FCF7E9FCFFF71B
:1037A0003EFD01E0FCF7E4FC002010BD40EAE070C3
:1037B000704742F6DC00C2F200000068704780B536
:1037C00042F6DC00C2F20000016801310160FFF73F
:1037D00044FF816C0139816403D1416C8164FFF73E
:1037E000B3FFBDE8804000F001B800002DE9F043D0
:1037F00083B001AECDE90166FFF7DBFF0546FCF7BC
:10380000B3FC42F6E007C2F200073C688046BC42C7
:103810003AD04FF6FE79C7F6FF7900BF6069281AE3
:10382000484531D8D4E9002114F80B0C51600A60E6
:10383000810724605CBF00F0FC0004F80B0C0198C9
:1038400044602060D4E90210019466608847FFF765
:10385000B0FF01990546B14213D0D4E90010486089
:10386000016014F80B1C246001F00300032864605D
:1038700007D1A4F1140001F0FE0104F80B1C00F0C4
:103880005FF83C68BC42C9D14046FCF771FC03B00C
:10389000BDE8F08370B514460E460546FCF764FC9F
:1038A000042E18D8DFE806F003150C100600216876
:1038B000696210E0697AC9070CBF0021012109E0A3
:1038C000697A01F0FD0102E0697A41F00201697252
:1038D00001E0696A2160FCF74BFC002070BD10B567
:1038E0000446FCF741FC2246A16952F8143F596096
:1038F0000B60617AA26101F0FE0112606172FCF757
:1039000037FC2046FFF745FC002010BD2DE9F041B3
:1039100015460A46DDE906870A211C460646FFF7DA
:1039200049FC07F0FE007072002006F11401C6E9A0
:103930000511C6E90754C6E90980BDE8F081000019
:103940002DE9F0410446FCF70FFC264656F8141FFB
:10395000804616F80B0C726800F0FE004A60116099
:103960003660766006F80B0CFFF723FF31694FF6DF
:10397000FE750B1842F6E001C2F200014A68C7F674
:10398000FF757361914207D0084609684F69FF1AB5
:10399000F8D0AF42F6D801E01168104642F6E802CE
:1039A000C2F200024E606161617A13680660A06134
:1039B00041F001000133607240461360FCF7D8FB10
:1039C0000020BDE8F08110B50446407AC00704BF6E
:1039D0004FF0FF3010BDFCF7C7FB54F8141F6268AE
:1039E0004A60116014F80B1C246001F0FE01646051
:1039F00004F80B1CFCF7BCFB002010BD2DE9F04FB8
:103A000085B0994614468A4600EB01084FF0200B1A
:103A1000002948BF4FF0FF38049000BF21782529C6
:103A200008D0002900F04581404538BF0170411C95
:103A3000C1E000BFA21C0134002100BF27782A2F5B
:103A400008DD302F10D02D2F0AD02B2F12D10423B8
:103A50000CE000BF202F05D0232F0BD1202305E041
:103A6000102303E0082301E0012300BF19430134C0
:103A70000132E3E7A7F13003092B0FD8002600BF7E
:103A800006EB860307EB430312F8017BA7F1300630
:103A90000A2EA3F13006F3D3541E0EE02A2F09D1CB
:103AA00059F8046B0134B6F1FF3FDCBF764241F0B8
:103AB000100101E04FF0FF3627782E2F16D1234654
:103AC00013F8017FA7F13002092A12D8A31C0022A3
:103AD00002EB820207EB420213F8017B303AA7F1B6
:103AE00030050A2DF4D3013B0DE000BF4FF0FF3C41
:103AF0000CE02A2F05D114F8027F59F8042B234635
:103B000001E04FF0FF3222EAE27C1C4647F004025B
:103B10006C2A02D114F8012F01E03A460027632AEB
:103B200018DC252A2CD0582A30D0632A46D1C90661
:103B300000F18C80022EC0F2888000BF4045A6F1C3
:103B4000010638BF80F800B0012E00F10100F5DC5D
:103B500000267BE0A2F16F05092D09D80A23DFE8D2
:103B600005F005612D2D3A2D182D2D17082310E095
:103B7000642A01D0692A21D141F002010A2308E018
:103B80004045BFF454AF2521017050E741F040019A
:103B90001023D9F80020682F03D18F074CBF12B231
:103BA00092B209F10409CFB24146CDE9006C029707
:103BB000FEF700FE0146013408462FE7404502D2D9
:103BC00025210170227800F10101E2B3414538BF9F
:103BD0000A70811CEFE759F8042B40A3002A08BFA4
:103BE0001A46002736B100BFD35D1BB10137BE4274
:103BF000FAD1374667456346B8BF3B46BCF1000F74
:103C0000D8BF3B46C90639D4B34236DA4045A6F19F
:103C1000010638BF80F800B0B34200F10100F5DBC7
:103C20005E1E2BE0721CB2FA82F24FEA521241EA97
:103C3000020108BF082659F8042BCFB2CDE9006C69
:103C400041461023B3E7013CB5E7013E40453CBF88
:103C5000D9F80010017009F10409022E00F10101E8
:103C6000A9DB701C4145A0F1010038BF81F800B00C
:103C7000022801F10101F5D89DE7013E012B014623
:103C8000184608DB41453CBF17780F7001310138F9
:103C900002F10102F6D1B342BFF68DAF4145A6F164
:103CA000010638BF81F800B0B34201F10101F5DB34
:103CB00081E7BAF1000F049B48BF6FEA030ABAF12B
:103CC000000F06D001460022404528BFA8F101019F
:103CD0000A70C01A05B0BDE8F08F00BF284E554CE1
:103CE0004C290000002070470020704700207047DA
:103CF0000020704780B5FCF737FAFEF7BDFEFFF7EE
:103D00001BFBFFF7DAFBFFF793FBFEF749FEFFF71C
:103D1000DBFBFFF70DFCFFF7B4FB002080BD0000CC
:103D200041F20001C4F202010A684FF6F07C42F44D
:103D300080320A60002200BF00BF0B68B2F5004F5E
:103D400002D913F4003305D10132624504BF0120CA
:103D50007047F1E74FF480624A600022CFF6F872B4
:103D60004B6802EB8040184348604868102240F4DA
:103D70008030486042F20000C4F202000260026833
:103D800042F002020260086840F08070086000BFE4
:103D90000868B0F1007FFBD3486840F0020048603B
:103DA000486800F00C000828FAD10020704741F262
:103DB0000001C4F20201002214230A61CA604B61AF
:103DC0008A61CA610A68002342F001020A604A68F7
:103DD000CFF6FF031A404A600A684FF6FF73CFF62A
:103DE000F6631A400A600A6822F480220A604A6870
:103DF00022F4FE024A604FF41F028A60FFF790BF70
:103E0000C9B110B544F2D21C44F2D22EFF23C0F641
:103E1000000CC0F6000EFF2210F8014BDBB25C4034
:103E20001CF80430013953401EF804200C04F3D16F
:103E3000BDE8104001E0FF22FF23D8B240EA022093
:103E4000704780B54FF080400121FDF727F94FF012
:103E5000804001210022FDF751FA4FF080400021FF
:103E6000FDF759FA4FF080400021BDE88040FDF792
:103E700018B980B54FF080400121FDF70FF94FF0E0
:103E8000804001210122FDF739FA4FF080400021E6
:103E9000FDF741FA4FF080400121BDE88040FDF779
:103EA00000B942F6C832C2F2000213780146012B73
:103EB0004FF0000018BF704742F2D423C2F2000353
:103EC0001B780B7010700120704742F6C831C2F2A7
:103ED0000001002201200A707047014642F6C830F6
:103EE000C2F200000122027042F2D422C2F20002A9
:103EF00001201170704710B50446FDF761FA2046A5
:103F0000FDF77EFB2046FDF751FC012010BD0000AF
:103F1000F0B581B01446421E042A27D80D4644F25B
:103F20000040C4F2000000F57446DFE802F00D0323
:103F3000080B0500064607E000F5406604E000F5C2
:103F4000806601E000F500666CB10027E95D30464F
:103F5000FDF72AFE30468021FDF796FD0028F9D0B6
:103F60000137A742F2D1012001B0F0BD0020FBE7EC
:103F700010B584B0044601200121FCF72EFD4FF05E
:103F80008040FDF7C3F94FF08040FDF793F840F60D
:103F90000F60CDF806000020ADF80C000DF1060111
:103FA0004FF08040ADF80A40FDF7B7F94FF0804080
:103FB0000121FDF776F81C20C0F20110CDF80200B7
:103FC0000DF10200FCF7C9FC012004B010BD10B5D2
:103FD00042F2D524C2F200042278911E022912D3A3
:103FE0008AB1012A11D10146407842F62C22C2F250
:103FF00000021080821C42F61010C2F20000FCF792
:1040000081F902202070FFF734FF002010BDB0B509
:1040100042F2D525C2F20005287810B1022804D159
:104020000120FFF75AFF044600E00024FFF709FFD4
:10403000012120462970B0BD4FEAD10C30F80C00A8
:104040004FF0FF3301F0070103FA02F2C84090433A
:10405000C0B2704710B54FEAD10C01F0070E4FF017
:10406000FF3400EBD10104FA02F210F80C40497859
:10407000D24302FA0EF244EA012103FA0EF391430D
:10408000194320F80C1010BD02E008C8121F08C127
:10409000002AFAD170477047002001E001C1121FC9
:1040A000002AFBD170471F1C1F1E1F1E1F1F1E1F33
:1040B0001E1F1F1D1F1E1F1E1F1F1E1F1E1F02044F
:1040C00006080000000001020304010203040607C1
:1040D00008090000010002000100030001000200C5
:1040E00001000400010002000100030001000200C1
:1040F00001000500010002000100030001000200B0
:1041000001000400010002000100030001000200A0
:10411000010006000100020001000300010002008E
:104120000100040001000200010003000100020080
:10413000010005000100020001000300010002006F
:104140000100040001000200010003000100020060
:10415000010007000100020001000300010002004D
:104160000100040001000200010003000100020040
:10417000010005000100020001000300010002002F
:104180000100040001000200010003000100020020
:10419000010006000100020001000300010002000E
:1041A0000100040001000200010003000100020000
:1041B00001000500010002000100030001000200EF
:1041C00001000400010002000100030001000200E0
:1041D000010000C1814001C0804101C0804100C197
:1041E000814001C0804100C1814000C1814001C0C7
:1041F000804101C0804100C1814000C1814001C0B7
:10420000804100C1814001C0804101C0804100C1A6
:10421000814001C0804100C1814000C1814001C096
:10422000804100C1814001C0804101C0804100C186
:10423000814000C1814001C0804101C0804100C176
:10424000814001C0804100C1814000C1814001C066
:10425000804101C0804100C1814000C1814001C056
:10426000804100C1814001C0804101C0804100C146
:10427000814000C1814001C0804101C0804100C136
:10428000814001C0804100C1814000C1814001C026
:10429000804100C1814001C0804101C0804100C116
:1042A000814001C0804100C1814000C1814001C006
:1042B000804101C0804100C1814000C1814001C0F6
:1042C000804100C1814001C0804101C0804100C1E6
:1042D000814000C0C101C30302C2C60607C705C5AD
:1042E000C404CC0C0DCD0FCFCE0E0ACACB0BC9091E
:1042F00008C8D81819D91BDBDA1A1EDEDF1FDD1D2E
:104300001CDC14D4D515D71716D6D21213D311D15D
:10431000D010F03031F133F3F23236F6F737F535AD
:1043200034F43CFCFD3DFF3F3EFEFA3A3BFB39F9DD
:10433000F83828E8E929EB2B2AEAEE2E2FEF2DEDAD
:10434000EC2CE42425E527E7E62622E2E323E1211D
:1043500020E0A06061A163A3A26266A6A767A5652D
:1043600064A46CACAD6DAF6F6EAEAA6A6BAB69A99D
:10437000A86878B8B979BB7B7ABABE7E7FBF7DBDAD
:10438000BC7CB47475B577B7B67672B2B373B171DD
:1043900070B05090915193535292965657975595AD
:1043A00094549C5C5D9D5F9F9E5E5A9A9B5B99595D
:1043B0005898884849894B8B8A4A4E8E8F4F8D4D2D
:1043C0004C8C44848545874746868242438341819D
:1043D00080405465726D696E616C004D4F4442556A
:1043E000535F5441534B0068617264206661756C81
:1043F00074206F6E2068616E646C65720D0A0D0A20
:104400000068617264206661756C74206F6E207440
:1044100068726561643A2025730D0A0D0A007230D6
:10442000303A203078253038780A007230313A201E
:104430003078253038780A007230323A20307825CA
:104440003038780A007230333A20307825303878A6
:104450000A007230343A203078253038780A0070FB
:1044600073723A203078253038780A00F13C000821
:10447000E93C0008E53C0008ED3C000830315045BF
:10448000626C00000000000000000000000000005E
:10449000000000000000000073746D33325F6F6E27
:1044A0006368697000000000000000000000000068
:1044B0000000000000000200000000003031504504
:1044C00061707000000000000000000000000000AB
:1044D000000000000000000073746D33325F6F6EE7
:1044E0006368697000000000000000000000000028
:1044F00000000200000006000000000030315045BE
:10450000646F776E6C6F6164000000000000000053
:1045100000000000000000006E6F72666C6173683E
:10452000300000000000000000000000000000005B
:10453000000000000000060000000000303150457F
:10454000666163746F727900000000000000000073
:1045500000000000000000006E6F72666C617368FE
:10456000300000000000000000000000000000001B
:104570000000060000000A00000000003031504535
:104580006664625F6B7664623100000000000000C8
:1045900000000000000000006E6F72666C617368BE
:1045A00030000000000000000000000000000000DB
:1045B00000001000000020000000000030315045D5
:1045C0006664625F74736462310000000000000082
:1045D00000000000000000006E6F72666C6173687E
:1045E000300000000000000000000000000000009B
:1045F00000003000000030000000000020460008ED
:10460000000000200801000088400008284700083A
:1046100008010020C82E000098400008000000009B
:10462000E90703000B00120016001E0000A24A0456
:104630000200000001000000180000201800002007
:104640008000000002000000280000202800002058
:104650002000000003000000380000203800002087
:104660002400000004000000480000204800002052
:104670002000000005000000580000205800002025
:1046800030000000060000006800002068000020E4
:104690003C0000000A0000007800002078000020A4
:1046A0002C0000001100000093210008040000000D
:1046B00085200008030000001F20000810000000F3
:1046C0009B220008060000000D22000817000000D1
:1046D000ED200008010000003B1F0008050000005D
:1046E000B92100080F000000392200080200000074
:1046F000AD1F0008000000000000000000000000E6
:1047000000000000000000000000000000000000A9
:104710000000000000000000000000000000000099
:08472000000000000000000091
:0400000508000131BD
:00000001FF
