:020000040800F2
:10000000404B002045010008211600080D020008A1
:1000100005110008E10B0008013100080000000094
:100020000000000000000000000000000D22000899
:100030005D0D000800000000970100081122000873
:100040005F0100085F0100085F0100085F01000810
:100050005F0100085F0100085F0100085F01000800
:100060005F0100085F0100085F0100085F010008F0
:100070005F0100085F0100085F0100085F010008E0
:100080005F0100085F0100085F0100085F010008D0
:100090005F0100085F0100085F0100085F010008C0
:1000A0005F010008712300085F0100085F0100087C
:1000B00095230008BD240008F92500085F01000809
:1000C0005F0100085F0100085F0100085F01000890
:1000D0005F010008792E0008DD2E0008452F00087A
:1000E0005F0100085F0100085F0100085F01000870
:1000F0005F0100085F0100085F0100085F01000860
:100100005F0100085F0100085F0100085F0100084F
:100110007D2D0008E52D00085F0100085F01000843
:100120005F0100085F0100085F0100085F0100082F
:10013000DFF80CD000F026FA004800470D06000852
:10014000404B00200648804706480047FEE7FEE790
:10015000FEE7FEE7FEE7FEE7FEE7FEE7FEE7FEE777
:100160002522000831010008EFF3108072B67047B5
:1001700080F310887047324A1368012B04D04FF087
:10018000010313602F4A10602F4A11602F484FF06F
:10019000805101607047EFF3108272B62848016801
:1001A00091B14FF0000101602648016829B1EFF3D9
:1001B000098121E9F00F0068016023490968096895
:1001C000B1E8F00F81F3098882F310884EF0040E35
:1001D00070471D4908601B494FF00000086018492E
:1001E0004FF0010008601A481A49D0F8002041EA8F
:1001F0000201016015484FF0805101601648006807
:10020000006880F3088861B662B670471EF0040F7C
:100210000CBFEFF30880EFF3098020E9F00F40F8FE
:1002200004ED1EF0040F0CBF80F3088880F30988EA
:1002300000B507F0BBFC5DF804EB4EF0040E704710
:10024000DC360020403400204834002004ED00E07B
:1002500020ED00E00000FFFF08ED00E038B5D0E938
:100260000221491E01EB410102EBC1014268C1EBD1
:10027000011102EB81010268C1EB011102EB810265
:10028000D0E9043101EB410103EB81013023A1F5F9
:10029000527191FBF3F4174D6C4302EBC41291FBC6
:1002A000F3F403FB141100921A2902DB124B1A44D7
:1002B00000920C2291FBF2F3104C6343009C04EB80
:1002C000C313009391FBF2F302FB13110C4A08E0F5
:1002D000491E40F2A324535C6343009C04EBC31308
:1002E00000930029F4DC0146684600F0CDF8009840
:1002F00038BD00003F0C0F008051010067C20300B1
:10030000D29E000840EA01039B0703D009E008C918
:10031000121F08C0042AFAD203E011F8013B00F8CA
:10032000013B521EF9D27047D2B201E000F8012B16
:10033000491EFBD270470022F6E710B513460A4665
:1003400004461946FFF7F0FF204610BD30B50546BC
:100350002A460B4612F8010B13F8014B08B1A042D4
:10036000F8D01CB1002802D06D1CF1E7284630BD42
:10037000421C10F8011B0029FBD1801A704730B5D0
:1003800005460020034600E05B1C934205D2EC5C6E
:10039000C85C201A01D1002CF6D130BD80EA0102E0
:1003A00010B502F00043400022D04A001FD0010ED9
:1003B00001EB1261C0F35600C2F3560240F4000094
:1003C00042F40002A0FB022000047F39140400D094
:1003D000401C50EA124001D44000491EC2B20C0633
:1003E00004EBD010401C4008802A02D003E000201B
:1003F00010BD20F00100002900DA0020184310BDD4
:10040000002801DBC0F10040002901DBC1F10041FF
:10041000814201D3012070470020704700F0004264
:1004200020F00040C10DC0F3160040F400007F2909
:1004300001DA00207047962903DCC1F19601C8401B
:1004400001E096398840002AF4D04042704701F01C
:10045000004330B421F0004150EA010206D00A0DF9
:10046000A2F56072C1F31301002A02DC30BC002047
:100470007047440F44EAC104C100E01830BC00EBEF
:10048000C25000F047B8000010B500683C22B0FB35
:10049000F2F302FB1303B0FBF2F00B60B0FBF2F3DC
:1004A00002FB1303B0FBF2F018224B60B0FBF2F337
:1004B00002FB1303B0FBF2F0021D8B600723B2FBBB
:1004C000F3F403FB1422800040F2B55300F66C30C5
:1004D0008A61B0FBF3F2B0FBF3F403FB1400443287
:1004E00080084A61C8613B2802D3920700D0401CB3
:1004F0000022074C13460A61E25C824203D8801A4C
:100500005B1C0B61F8E7401CC860084610BD00008A
:10051000DE9E00080029A8BF7047401C490008BFA4
:1005200020F00100704710B4B0FA80FC00FA0CF023
:1005300050EA010404BF10BC704749B1CCF120045B
:1005400021FA04F411FA0CF118BF012121430843E8
:10055000A3EB0C01CB1D4FEA00614FEA102042BF14
:10056000002010BC704700EBC35010440029A4BF0A
:1005700010BC7047401C490008BF20F0010010BCAF
:10058000704700001CB509480090094801900546D5
:10059000009C06E0E06840F0010394E807009847FB
:1005A0001034AC42F6D3FFF7C7FD000024AE0008BC
:1005B00044AE000870B58C1810F8015B15F0070305
:1005C00001D110F8013B2A1106D110F8012B03E0EC
:1005D00010F8016B01F8016B5B1EF9D12B0705D4F4
:1005E0000023521E0DD401F8013BFAE710F8013B3D
:1005F000CB1A921C03E013F8015B01F8015B521E59
:10060000F9D5A142D8D3002070BD000010B584B048
:10061000FFF7AAFD07F072FA08F080F908F0F6FA81
:1006200008F034FA43F268124FF40071C2F200028B
:1006300043F268340A20CDE90021C2F200044AF6F0
:10064000983146F291624FF0140C0290C0F600010E
:10065000C0F6000220460023CDF80CC008F040FB95
:10066000204608F0EFFB08F0D9FA08F013FB08F079
:10067000B1FA002004B010BDB0B582B040F2D01481
:1006800040F20005C2F200040120C2F20005207011
:1006900008E000BF0069002818BF80474FF47A7057
:1006A00008F064FB607800EB800005EB800255F8F1
:1006B00020005168128900F0FFF86178002801EBF2
:1006C000810005EB8000E5D1C06808B18047617802
:1006D000481CC1B281426070E0D140F27C30C2F26D
:1006E000000090F83400032805D040F27C30C2F2BC
:1006F000000008F0A7FB43F26411C2F200010B688E
:1007000000202070581C4AF262754AF25D744AF269
:1007100067720860C0F60005C0F6000404A1C0F6C8
:1007200000020020CDE9004501F084FA02B0B0BD1E
:1007300025735B25645D257341545F496E697420A0
:1007400066696E6973680A25730D0A0010B586B074
:1007500040F2D01043F2F461C2F20000C2F2000194
:1007600081621020012100F0C1FF202041F200042D
:10077000C1F20300C4F20104059005A9204600F06F
:10078000EFFA2046202100F0F3FB04F520504FF44F
:10079000E13100F087FD40F27C214FF48060C2F22D
:1007A0000001CDE9001040F2FC104AF6171140F2AA
:1007B00079620A24C2F20000C0F60001C0F600020D
:1007C00000230294039408F08BFA20B14AF69000BB
:1007D000C0F600002DE040F2FC10C2F2000008F06C
:1007E00031FB20B14AF6AE00C0F6000021E040F631
:1007F0007C014FF48060C2F20001CDE9001040F2AC
:10080000FC7040F279620A24C2F2000017A1C0F61F
:10081000000200230294039408F062FA08B115A0C4
:1008200007E040F2FC70C2F2000008F00BFB20B1C0
:1008300018A007F0CDFB06B010BD40F2FC314FF41C
:100840008060C2F20001CDE9001040F27C3040F639
:10085000A9220A24C2F2000016A1C0F60002002359
:100860000294039408F03CFA06B010BD41545F5561
:100870005243000041545F555243207468726561D1
:100880006420637265617465206661696C65640AE1
:100890000000000041545F55524320746872656146
:1008A000642073746172747570206661696C65642C
:1008B0000A000000415400002DE9F04F85B00028E7
:1008C00000F0AB800646007893460C4698B143F69C
:1008D00000070025C4F20107C1B2384602F00CFC43
:1008E0003846402102F074FB0028F9D00135E8B207
:1008F000305C0028F0D143F26417C2F200073B6875
:100900004AF26278581C4AF25D794AF2677238609E
:10091000C0F60008C0F600094DA1C0F60002002094
:10092000CDE90096CDF80880002601F083F9002C6F
:1009300074D040F2D01AC2F2000ADAF82800067821
:100940003EB9642008F012FADAF82800017800298C
:1009500069D000213B68426801704088591CCDE98C
:1009600000924AF26772396002903EA1C0F600021E
:100970000020CDF80C8001F05DF9DAF8280021465E
:1009800040680230FFF7E2FCB0BB584608F0EEF9D1
:10099000DAF82800214640680230FFF7D7FC58BB40
:1009A000584608F0E3F9DAF828002146406802309A
:1009B000FFF7CCFC00BB584608F0D8F9DAF828005D
:1009C000214640680230FFF7C1FCA8B9584608F03C
:1009D000CDF9DAF82800214640680230FFF7B6FC6E
:1009E00050B9584608F0C2F9DAF8280021464068A4
:1009F0000230FFF7ABFCA8B13B684AF26772581CA3
:100A0000386024A1C0F600020020CDE90094CDF8A2
:100A10000880002601F00EF900E00126304605B0FE
:100A2000BDE8F08F0EB10226F8E7584608F09EF9AF
:100A3000DAF82800214640680230FFF787FC0028DA
:100A4000DAD1002EEFD0584608F090F9D4E700BF75
:100A500025735B25645D25732D3E3A202573257330
:100A60000D0A000025735B25645D257341545F44C6
:100A700065766963652E72785F6275663A202573C4
:100A80002041545F52585F53495A453A25642573B3
:100A90000D0A000025735B25645D25733C2D3A200B
:100AA000257325730D0A00002DE9F04F85B040F243
:100AB000D01640F2140840F2FC174AF6171A40F21A
:100AC000796BC2F200060324C2F2000825A5C2F227
:100AD00000074FF00A09C0F6000AC0F6000B0FE04D
:100AE000D8E90001B8F80820FFF7E6FE002814BF97
:100AF000284621A007F06CFA4FF47A7008F036F916
:100B00003078F8B10328EBD00128F5D197F83400FC
:100B10000428F1D140F27C20C2F2000000904FF492
:100B20008060CDE90109384651465A460023CDF888
:100B30000C9008F0D5F838B9384608F083F9002849
:100B4000DAD006E03470D7E74AF69000C0F600002D
:100B500003E04AF6AE00C0F6000005B0BDE8F04F75
:100B600007F036BA41545F53656E64436D64206686
:100B700061696C65640A000041545F53656E6443AB
:100B80006D6420737563636573730A0080B501201B
:100B900000F0C4FD0020BDE8804000F0BFBD0000B3
:100BA00081B00021009146F60041C4F2000100919D
:100BB0000099084400900098008801B07047000038
:100BC00081B00022009246F60042C4F20002009278
:100BD000009A104400900098016001B07047000036
:100BE000FEE7000002684FF6FE7C42F00103002998
:100BF00008BF02EA0C0303607047000002684FF66A
:100C0000FE731A407F230421C4F20203C4F20201DE
:100C1000026000229842026042608260C26016DC7C
:100C20004322C4F2020290422CDC0822C4F20202E7
:100C3000904251D01C22C4F20202904256D030227F
:100C4000C4F2020290425ED14FF4706058E040F26C
:100C50002F42C4F20202904226DC8022C4F2020239
:100C600090423BD040F20842C4F2020290423FD090
:100C700040F21C42C4F20202904244D101F580616C
:100C8000F0203DE04422C4F20202904236D05822C5
:100C9000C4F2020290421CD06C22C4F202029042C2
:100CA00031D14FF470002BE040F23042C4F2020226
:100CB000904216D040F24442C4F2020290421BD04D
:100CC00040F25842C4F20202904218BF704701F548
:100CD00080614FF4702013E00F2011E04FF070603E
:100CE0000EE001F580614FF4706009E0F02007E04C
:100CF00001F580610F2003E001F580614FF4704041
:100D00000A68104308607047406880B2704700006E
:100D10002DE9F047026847F6F073D1E9026A9A4379
:100D200001F11007B0CF01F11C0E3243D1E9008967
:100D30009EE80A501A4322432A433A43114341EAA8
:100D40000C0141EA0E010160C0F804A0C0F808805F
:100D5000C0F80C90BDE8F087416070477047000014
:100D6000CA7802F00F0CD30644BF8B784CEA030C10
:100D7000F0B509880D0674D086465EF8143BCC07A2
:100D800000F110040BD023F00F0343EA0C03282AD0
:100D9000764602D0482A02D12646012737608E07C0
:100DA0000BD523F0F00343EA0C13482A264602D061
:100DB000282A02D17646022737604E070BD523F446
:100DC000706343EA0C23482A264602D0282A02D11F
:100DD0007646042737600E070BD523F4704343EAA9
:100DE0000C33482A264602D0282A02D17646082704
:100DF0003760CE060BD523F4702343EA0C43482A10
:100E0000264602D0282A02D17646102737608E0661
:100E10000BD523F4700343EA0C53482A264602D02C
:100E2000282A02D17646202737604E060BD523F0BC
:100E3000706343EA0C63482A264602D0282A02D16E
:100E4000764640273760002D0AD523F07043482AA4
:100E500043EA0C7302D0282A02D174468027276007
:100E60000360B1F5807F38BFF0BD4368CC0500F169
:100E7000100E00F114040CD523F00F0343EA0C0309
:100E8000282A254602D0482A03D175464FF4807699
:100E90002E608D050CD523F0F00343EA0C13482A8D
:100EA000754602D0282A03D125464FF400762E60DD
:100EB0004D050CD523F4706343EA0C23482A75468C
:100EC00002D0282A03D125464FF480662E600D05F6
:100ED0000CD523F4704343EA0C33482A754602D0FC
:100EE000282A03D125464FF400662E60CD040CD588
:100EF00023F4702343EA0C43482A754602D0282A7B
:100F000003D125464FF480562E608D040CD523F472
:100F1000700343EA0C53482A754602D0282A03D1AD
:100F200025464FF400562E604D040CD523F0706317
:100F300043EA0C63482A754602D0282A03D1254685
:100F40004FF480462E6009B2B1F1FF3F01DD4360EE
:100F5000F0BD23F07041482A41EA0C7302D0282AE0
:100F6000F5D1A6464FF40041CEF800104360F0BD25
:100F70000161704743F20000C4F200004CF6CC411E
:100F80000160704700F014B8B0B5054645F2555001
:100F90000C4600F021F8284600F012F8204600F038
:100FA00015F800F005F8BDE8B040FFF7E3BF00001A
:100FB00043F20000C4F200004AF6AA210160704723
:100FC00043F20401C4F200010860704743F20801D3
:100FD000C4F200010860704743F20001C4F200014E
:100FE00008607047B0B584B043F2EC3041F2FC4287
:100FF00000254FF44074C2F2000025A1C2F20002A5
:101000004FF48073CDE9004507F0F0F9A8BB41F239
:10101000FC014FF48060C2F20001CDE9001041F202
:101020007C0041F2B10264241625C2F200001CA12A
:10103000C0F6000200230295039407F051FE28B980
:1010400041F27C00C2F2000007F0FCFE40F67C6139
:101050004FF40070C2F20001CDE9001040F6FC50E0
:1010600041F2E502C2F200000FA1C0F60002002327
:101070000295039407F034FE08B104B0B0BD40F609
:10108000FC50C2F2000004B0BDE8B04007F0DABE88
:101090006D6F646275735F72785F6D710000000040
:1010A0006D625F72780000006D625F706F6C6C0043
:1010B000C0B043F2EC34C2F200046D46204629462B
:1010C0004FF480724FF0FF3307F018FA0028F5D183
:1010D000284606F0C7FC284600214FF4807207F02E
:1010E000FDF8EBE7002001214FF4E132002303F08B
:1010F00003FC03F00BFA00BF03F038FC0A2007F0F2
:1011000035FEF9E7FEE7000070B584B01446A0F1A3
:101110008042A2F584324FEAB222052A19D20D4646
:1011200025A151F8221006460846012100F0DEFAFA
:101130000420ADF80C50012C08BF10208DF80F00D2
:1011400003208DF80E0003A93046FFF709FE04B016
:1011500070BD43F25810C2F20000036806A6591C85
:10116000016007A508A112A20020CDE9005600F0F9
:1011700061FD04B070BD00BF1B5B306D000000005E
:101180005B495D3A0000000025735B25645D2573B3
:101190006572726F723A20696E76616C696420477D
:1011A00050494F20706F727425730D0A00000000C3
:1011B0001B5B313B33326D0004000000080000006F
:1011C00010000000200000004000000010B58CB0AE
:1011D0004FF0805001214AF2B55400F06FFA4FF001
:1011E0000060012100F06AFA012000F055FA0420A5
:1011F000FFF7D6FCA04216D1012000F0EFFA00BFA5
:10120000612000F0D7FA0128FAD14FF4007000F005
:10121000F1FA012000F0E8FA00F02CFB0CB0BDE878
:10122000104000F011BBFFF7B1FC012000F0D6FA2E
:10123000612000F0BFFA0128FAD14FF4007000F0ED
:10124000D9FA012000F0D0FA00F014FB00F0FCFA0B
:1012500049F63F4000F0E6FA00F0F6FA40F2C80026
:10126000C2F2000001884288A1F26C710691511E01
:1012700005918188C288CDE9032101894089CDE9A2
:10128000010101A8FEF7EAFFA0F5E14000F0BAFA7B
:1012900000F0DAFA04204AF2B5510CB0BDE8104073
:1012A000FFF78EBC2DE9F04393B0044644F6FF30BF
:1012B000C4F200008442884655DD44F60046C4F27C
:1012C0000006B44200F0A08045F20000C4F2000025
:1012D000844200F0D78043F60000C4F2010084424B
:1012E00040F0718143F2F46943F2FC60C2F20009FC
:1012F000C2F20000C9F804004FF48040012100F060
:10130000F5F90120012100F0CDF940F60006C4F204
:10131000010630464FF400711822FFF7F5FE304603
:101320004FF480610422FFF7EFFE2520C0F2001089
:101330000E900EA800F076F906F54056304640F2C1
:101340002441012201F060FE30464021012201F0DB
:1013500037FE3020C4F2020043F6040700F12806ED
:10136000C4F2010702E144F20046C4F20006B442AE
:1013700000F0C38044F60000C4F20000844240F054
:10138000228143F2847943F28C70C2F20009C2F2E6
:101390000000C9F804004FF48020012100F08EF90C
:1013A0000120012100F07EF940F60000C4F20100A6
:1013B00000F5806738464FF480611822FFF7A4FEDD
:1013C00038464FF400610422FFF79EFE2720C0F24A
:1013D00000100E900EA800F025F906F58066304644
:1013E00040F22441012201F00FFE3046402101224B
:1013F00001F0E6FD44F60040C4F200003026A0F5FE
:101400007F77C4F20206B1E043F2CC7943F2D470A4
:10141000C2F20009C2F20000C9F804004FF4002033
:10142000012100F04BF90220012100F03BF940F6C8
:101430000000C4F2010000F5006738464FF48061F7
:101440001822FFF761FE38464FF400610422FFF7CF
:101450005BFE3420C0F200100E900EA800F0E2F8FF
:10146000304640F22441012201F0CEFD30464021B9
:10147000012201F0A5FD3020C4F20200371D00F565
:10148000806673E043F6140943F61C00C2F20009BB
:10149000C2F20000C9F804004FF48010012100F0EE
:1014A0000DF90220012100F0FDF840F60005C4F21C
:1014B000010505F500604FF480511822FFF724FE66
:1014C00005F5406004210422FFF71EFE3520C0F21E
:1014D00000100E900EA800F0A5F8A5F5384630468D
:1014E00040F22441012201F08FFD304640F22551A7
:1014F000012201F089FD002738E043F23C7943F2F4
:101500004470C2F20009C2F20000C9F804004FF4AE
:101510000030012100F0D2F80120012100F0C2F8D2
:1015200040F60007C4F20107384604211822FFF7ED
:10153000EBFD384608210422FFF7E6FD2620C0F225
:1015400000100E900EA800F06DF8304640F22441D5
:10155000012201F059FD30464021012201F030FD09
:101560003020C4F20200371D00F13C064FF4402049
:10157000002511900FA92046CDF83C801095ADF8BC
:10158000485001F059FD2046012101F00FFD304681
:10159000FFF734FBD9F8040003A90230CDE90405B4
:1015A0003E20CDE906058020CDE908054FF4005026
:1015B000CDE90C053046CDE90A550397FFF7A8FBA6
:1015C00013B0BDE8F08343F25410C2F20000036888
:1015D00006A7591C016007A608A10FA20020CDE9AB
:1015E000006700F027FB13B0BDE8F0831B5B306D94
:1015F000000000005B455D3A0000000025735B259C
:10160000645D25736572726F722055534152547830
:1016100025730D0A000000001B5B313B33316D0068
:101620007047000010B5C17800294EF20011CEF2CB
:1016300000011AD04EF60C52CEF2000212680723B7
:1016400023EA12220F23C2F1040C23FA02F2437898
:10165000847890F800E003FA0CF322401A43120158
:1016600001EB0E0383F8002300E0803100780123B2
:1016700000F01F0203FA02F2C0F3421041F82020EA
:1016800010BD000040F080604EF60C5140F0FD703F
:10169000CEF20001086070472021C4F20E210860DC
:1016A00070470000002941F21401C4F202010A68E7
:1016B0000CBF22EA0000104308607047002941F285
:1016C0001C01C4F202010A680CBF22EA00001043A8
:1016D00008607047002941F21001C4F202010A6853
:1016E0000CBF22EA0000104308607047002941F255
:1016F0001801C4F202010A680CBF22EA000010437C
:1017000008607047002941F20C01C4F202010A6826
:101710000CBF22EA000010430860704740F24041CD
:10172000C4F242210860704710B541F20404C4F2CB
:101730000204226802F00C02082A41F20022C0F2E0
:101740007A0212D12368D4F800C0C3F3834E5FEA53
:10175000CC330EF1020C02D523689B0303D540F66F
:101760000012C0F23D020CFB02F20260236849F64F
:101770004C71C3F30313C0F60001CB5CDA40426046
:101780002368C3F30223CB5C22FA03F3836023684C
:10179000C3F3C223C95C49F6487322FA01F1C16060
:1017A0002268C0F60003C2F381329A5CB1FBF2F109
:1017B000016110BD420941F20001012AC4F2020197
:1017C00003D0022A14BF24312031096800F01F0021
:1017D00021FA00F000F001007047000040F2804163
:1017E000C4F242210860704740F23C41C4F24221F9
:1017F0000860704741F22001C4F202010A681043F8
:101800000860704742F60401C4F200010A8842F001
:1018100010020A80020C8A820883088820F01000D7
:101820000880704742F60401C4F200010A8842F0C1
:1018300010020A80C0F303428A800881088820F0E1
:10184000100008807047000042F60400C4F2000057
:1018500004E000BF0188890648BF704701888906F7
:1018600006D4018889065CBF01885FEA8161F1D5F1
:101870007047000042F60400C4F20000018821F025
:101880000801018004E000BF0188090748BF7047D4
:101890000188090706D4018809075CBF01885FEA4F
:1018A0000171F1D57047000010B582B0EFF31184DB
:1018B0004FF0200181F311880DF107010020012272
:1018C00000F056F884F311889DF80710012818BF1E
:1018D0004FF0FF31084602B010BD000010B541F6D0
:1018E0000424C2F200042078532801D1206F39E08B
:1018F00004F130007821FEF71EFD032020616061B5
:101900004AF26F7141F6BC20C0F60001C2F200003D
:10191000A161E0614FF4805020620020A06260620B
:10192000E062216641F6AC21C2F20001616610213D
:10193000A16653212067E066606721704521472238
:101940006170A270E2702171522120226171A27136
:10195000E171542121726172A072E0722073607390
:10196000A073E073E16E401A18BF012010BD0000A3
:101970002DE9F04381B041F60425C2F2000514467A
:101980002A788846532A064639D005F13000782156
:10199000FEF7D1FC0320286168614AF26F7141F6BD
:1019A000BC20C0F60001C2F20000A961E8614FF45A
:1019B000805028620020A8626862E862296641F6C9
:1019C000AC21C2F2000169661021A9665321286783
:1019D000E86668672970452147226970AA70EA7035
:1019E0002971522120226971AA71E9715421297249
:1019F0006972A872E87228736873A873E87306EBBB
:101A0000460005EBC000C56E076F00F16009AF42EC
:101A100013D9D9E90101CE1BA64228BF2646C11918
:101A200040463246FEF76EFCD9F80800F119B04482
:101A3000A41B0F1A18BF0F4600E00026E81BA042A7
:101A400038BF044644B1D9F804002246C1194046C3
:101A5000FEF758FC26442744002E18BFC9F8107022
:101A6000304601B0BDE8F083F0B581B041F6042501
:101A7000C2F200052B780C46532B3ED005F1300105
:101A80000646084678211746FEF755FC03212961D2
:101A900069614AF26F7341F6BC21C0F60003C2F2DD
:101AA0000001AB61E9614FF4805129620021A96214
:101AB0006962E9622B6641F6AC23C2F200036B66F1
:101AC0001023AB6653233A462967E96669672B7092
:101AD000452347276B70AF70EF702B71522320277F
:101AE00030466B71AF71EB7154232B726B72A9721C
:101AF000E97229736973A973E973EFF311854FF0E4
:101B0000200181F31188214600F004F885F3118843
:101B100001B0F0BD2DE9F04381B0144641F6042236
:101B200000EB4000C2F2000202EBC002D06A89461C
:101B3000022802F1180816D0012809D0002856D131
:101B4000D8F80C50D8F81000A84249D9E9434BE026
:101B5000D8F80C50D8F81010A9422DD9EA43D8F87B
:101B6000080011442DE0D8F80C500026D8F81010C9
:101B7000D8F80800EA43A9421144A0EB050798BF32
:101B80000144B94238BF0F46D8F80400A74228BF25
:101B90002746284449463A46FEF7B4FBD8F80800E1
:101BA0007919E41B0D1A3E44B94418BF0D46002CA8
:101BB000C8F80C50DAD139E0D8F80800EA431144EB
:101BC0000144A14238BF0C46461BD8F80400B44279
:101BD00028441CD249462246FEF794FB601913E0C4
:101BE000D8F80810EA4310440844A04201D2002665
:101BF0001CE0D8E901014E1BB442284407D24946F3
:101C00002246FEF77FFB2819C8F80C000DE0494674
:101C10003246FEF777FBA71BD8F8040009EB060154
:101C20003A46FEF76FFBC8F80C702646304601B006
:101C3000BDE8F08382B080B582B0CDE9042304AA68
:101C4000019201AA00F006F802B0BDE8804002B09F
:101C5000704700002DE9F04F99B0934604AA149202
:101C600040224FF0000814AD00278A4615920390D9
:101C70001890CDE9168822E000212846C4F2C82138
:101C8000FEF78CFBFEF7CAFB48F21F51C5F2EB11C1
:101C9000002848BF4042A0FB01125109642201FB09
:101CA000120114AD284602222346CDF8009001F01F
:101CB000A1FBB0E1B7F1FF3F514640F39E821AF815
:101CC000010B25281AD0002800F08982DDE9154192
:101CD0004A1CA24205D8149B01375854114616924B
:101CE0001797A142E6D1149918982246FFF7BCFE37
:101CF000A04240F07E82CDF85880DBE701F1020A75
:101D00004FF000091AF8010CA0F123020D2A00F28D
:101D10005D800221DFE802F0075A5A5A5A5A5A5A8D
:101D20000C5A0A5A5A0D082103E000BF012100E0B5
:101D300004219AF8000049EA0109A0F123020D2AC2
:101D400000F24C800221DFE802F007494949494985
:101D500049490B490949490C082102E0012100E0E9
:101D600004219AF8010049EA0109A0F123020D2A91
:101D70002FD80221DFE802F0072D2D2D2D2D2D2D3E
:101D80000C2D0A2D2D0D082103E000BF012100E0DC
:101D900004219AF8020049EA0109A0F123020D2A60
:101DA0001AD80221DFE802F00C18181818181818B1
:101DB0000E181018180749EA01090AF1040AA1E7E8
:101DC0000821F8E70421F6E70121F4E7AAF1010A66
:101DD00004E00AF1010A01E00AF1020AA0F13A0165
:101DE00011F10A0F04D200242E2845D0002695E0D8
:101DF0000AF1020A002400BF04EB840100EB410158
:101E00001AF8010CA1F13004A0F13A0212F10A0F04
:101E10002DD304EB840100EB41019AF80000A1F1FD
:101E20003004A0F13A0212F10A0F23D304EB84012B
:101E300000EB41019AF80100A1F13004A0F13A024F
:101E400012F10A0F5FD304EB840100EB41019AF811
:101E50000200A1F13004A0F13A0111F10A0F0AF1D8
:101E6000040AC9D2AAF1020A2E2805D0BEE7AAF1B7
:101E7000010A00BF2E28B9D1514611F8010FA0F177
:101E80003A0212F10A0F02D200268A4646E00AF10F
:101E9000020A00269AF8001006EB860200EB4200C8
:101EA000A1F13A0212F10A0FA0F1300636D39AF8E6
:101EB000010006EB860201EB4201A0F13A0212F1A9
:101EC0000A0FA1F1300623D39AF8021006EB86021E
:101ED00000EB4200A1F13A0212F10A0FA0F1300624
:101EE00019D306EB860001EB40019AF80300A1F13B
:101EF0003006A0F13A0111F10B0F0AF1040AC9D81A
:101F0000AAF1010A0AE00AF1010A2E28B4D06DE70D
:101F10000AF1010A02E00AF1020A00BF9AF8000081
:101F200000F0FB01682914D19AF8010000F0FB01D0
:101F3000682911D19AF8020000F0FB0168290ED13E
:101F40009AF803000AF1040A00F0FB016829E5D0C1
:101F500007E00AF1010A04E00AF1020A01E00AF1CD
:101F6000030A2538532800F25680DFE810F0DA0023
:101F700054005400540054005400540054005400C1
:101F800054005400540054005400540054005400B1
:101F900054005400540054005400540054005400A1
:101FA0005400540054005400540054005400540091
:101FB000560054005400540054005400540054007F
:101FC0005400540054005400540054005400540071
:101FD00054005400AE005400540054005400540007
:101FE00054005400540054005400B200C400540083
:101FF000560054005400540054005400540054003F
:1020000054005400CD005400540004015400F60064
:1020100054005400AE00179F4CE6DBF80000073078
:1020200020F0070000F10801CBF8001003C8FEF70C
:102030000EFA00210546FEF7E3F9C8B9DDE915807F
:10204000411C414506D8149A2D231354781C17902F
:102050000846169140450BD1149918984246FFF74F
:1020600003FD404507BF002016904FF0FF3017904A
:102070002846FEF7D3F90146002814A83246234625
:1020800048BF4942CDF8009001F0B4F9DDE9156090
:10209000411CB14207D8149A2E2313541798169155
:1020A0000130179008464FF00008B0427FF4E4ADCD
:1020B000149918983246FFF7D7FCB0420EBFCDF8FE
:1020C00058804FF0FF301790D6E5DBF80000102263
:1020D00046E0DDE91540DBF80010421C0B1DA24272
:1020E000CBF8003029D80968149B1954781C179034
:1020F0001046169221E0DBF800003246011DCBF8B5
:10210000001001682846CFE5DBF800000827011D14
:10211000CBF800100168284610220823CDE900788A
:1021200026E0DDE91540411CA14206D8149A25237A
:102130001354781C169117900846A0427FF46BAF99
:10214000149918982246FFF78FFCA0420EBFCDF8D5
:1021500058804FF0FF3017905DE7DBF800000A224F
:10216000011DCBF80010016828463346CDE900492F
:1021700001F036FA4FE7DBF80000DDE91454011DE9
:10218000CBF8001006681698DDF86080002E1DA1BF
:1021900008BF0E4606E000BF0020B7F1FF3F06F182
:1021A000010615DD317899B1421CA2429EBF295427
:1021B00001371046A042F0D1404629462246FFF79B
:1021C00053FCA042E8D04FF0FF301694179001E086
:1021D000CDE91607179F4FF0000814AD6AE55FB10F
:1021E000169C24B1039804A92246FFF73DFC27441E
:1021F00003E04FF0FF3700E00027384619B0BDE894
:10220000F08F00BF284E554C4C290000704700004D
:1022100080B505F0C1FE06F0B7FEBDE8804005F0D0
:10222000C9BE000082B041F20400C4F2020050F8BE
:10223000041C002241F0010140F8041C0168CFF6A3
:10224000FF021140016050F8041C4FF6FF72CFF6F8
:10225000F662114040F8041C50F8041C21F480215F
:1022600040F8041C016821F4FE0101604FF41F01D5
:10227000416000210191009150F8041C41F480312B
:1022800040F8041C50F8041C01F40031009101993D
:1022900001310191009919B90199B1F5A06FF1D1FE
:1022A00050F8041C890354BF0021012100910099BA
:1022B000012953D142F20001C4F202010A6842F03E
:1022C00010020A600A6822F003020A600A6842F0FB
:1022D00002020A600168016001680160016841F45E
:1022E00080610160016821F47C110160016841F4A2
:1022F000E811016050F8041C41F0807140F8041CA2
:1023000050F8041C89010CD450F8041C89015CBFEE
:1023100050F8041C5FEA811103D450F8041C8901B1
:10232000EED5016821F003010160016841F002016E
:10233000016000BF016801F00C0108290ED001689E
:1023400001F00C01082909D0016801F00C010829ED
:1023500004D0016801F00C010829EBD14EF60850B9
:10236000CEF200004FF00061016002B07047000043
:1023700010B542F60044C4F201042046012100F0E9
:10238000F5FA002808BF10BD20460121BDE8104025
:1023900000F0C6B980B54FF08040012100F0E6FAA8
:1023A000002808BF80BD05F057FB4FF08040012199
:1023B000BDE8804000F0B4B970B586B00C46054663
:1023C000042001210126FFF791F9601E032823D87C
:1023D00006FA00F081B240F60000C4F201001822B3
:1023E000FEF792FE6020C0F2010002900020012C56
:1023F000ADF8100002A94FF08040ADF80E502ED07D
:10240000022C24D0032C32D100F04AFB4FF0804044
:10241000082100F07FFB31E043F25010C2F20000CF
:1024200003684AF26276591C4AF25D754AF2677295
:102430000160C0F60006C0F6000514A1C0F6000257
:102440000020CDE90056FFF7F5FB06B070BD00F0A7
:10245000E5FA4FF08040082100F01AFB0EE000F092
:102460009FFA4FF08040082100F0D2FA06E000F019
:1024700057FB4FF08040082100F080FB4FF0804078
:10248000012100F051F906B070BD00BF25735B2536
:10249000645D25736572726F723A20696E76616C45
:1024A00069642050574D20706F727420666F7220DF
:1024B00054494D3225730D0A0000000010B540F25A
:1024C0000044C4F200042046012100F04FFA002825
:1024D00008BF10BD20460121BDE8104000F020B922
:1024E000F0B587B00E46054608200121FFF7FEF83B
:1024F000771E022F03D210204FF0FF3105E0F01EAF
:10250000022825D201206FF0020140F2004431443C
:10251000C4F2000400FA01F104F5843089B21822F3
:10252000FEF7F2FD6020C0F2010003900020ADF83C
:102530001250ADF81400DFE807F00238262F03A987
:10254000204600F02DFA2046082100F061FA34E020
:1025500043F25010C2F2000003684AF26277591C3D
:102560004AF25D764AF267720160C0F60007C0F673
:10257000000615A1C0F600020020CDE90067FFF7B4
:1025800059FB07B0F0BD03A9204600F089FA2046A8
:10259000082100F0BFFA10E003A9204600F0C0FABD
:1025A0002046082100F0EAFA07E003A9204600F0DF
:1025B00035FA2046082100F06BFA2046012100F090
:1025C000B3F807B0F0BD00BF25735B25645D2573CC
:1025D0006572726F723A20696E76616C6964205020
:1025E000574D20706F727420666F722054494D33BE
:1025F00025730D0A0000000010B540F60004C4F277
:1026000000042046012100F0B1F9002808BF10BDE8
:1026100020460121BDE8104000F082B870B586B0B8
:102620000D46064604200121FFF748F80820012145
:10263000FFF75CF8681E032824D840F60004202029
:10264000C4F2000400FA05F104F5823089B21822C0
:10265000FEF75AFD6020C0F2010002900020012D1B
:10266000ADF8100002A92046ADF80E602CD0022D66
:1026700023D0032D2FD100F013FA2046082100F0BB
:1026800049FA2EE043F25010C2F2000003684AF209
:102690006276591C4AF25D754AF267720160C0F6B3
:1026A0000006C0F6000512A1C0F600020020CDE928
:1026B0000056FFF7BFFA06B070BD00F0AFF9204634
:1026C000082100F0E5F90CE000F06AF92046082145
:1026D00000F09EF905E000F023FA2046082100F002
:1026E0004DFA2046012100F01FF806B070BD00BF72
:1026F00025735B25645D25736572726F723A20697C
:102700006E76616C69642050574D20706F72742032
:10271000666F722054494D3425730D0A0000000085
:10272000C9430182704700000288002918BF0121B7
:1027300022F00102114401807047000080B541F68B
:10274000FF71C4F20001884229DD44F2FF31C4F276
:102750000101884240DD44F6FF31C4F201018842A4
:1027600040F3A78044F60041C4F20101884200F022
:10277000E88045F20001C4F20101884200F0BD800A
:1027800045F20041C4F20101884218BF80BD4FF4F8
:1027900000100121FEF7B6FF4FF40010E0E040F614
:1027A000FF71C4F20001884231DC40F2FF71C4F2D3
:1027B0000001884259DCB0F1804F00F0A68040F261
:1027C0000041C4F20001884240F0CF800220012184
:1027D000FEF780FF0220AFE043F2FF31C4F20101B7
:1027E00088422DDC42F20001C4F20001884274D01C
:1027F00042F60041C4F20101884240F0B6804FF435
:1028000000600121FEF77EFF4FF40060A8E041F276
:10281000FF71C4F20001884239DC41F20001C4F2C8
:102820000001884277D041F20041C4F200018842A1
:1028300040F09B8020200121FEF74CFF20207BE010
:1028400043F20041C4F2010188424ED044F200013B
:10285000C4F20101884240F088804FF480300121A9
:10286000FEF750FF4FF480307AE040F60001C4F2EA
:102870000001884255D040F60041C4F20001884270
:1028800073D108200121FEF725FF082054E041F60E
:102890000001C4F20001884249D041F60041C4F26F
:1028A0000001884261D180200121FEF713FF8020C2
:1028B00042E044F20041C4F20101884249D044F6AA
:1028C0000001C4F2010188424FD14FF48020012160
:1028D000FEF718FF4FF4802042E04FF48070012192
:1028E000FEF7F8FE4FF4807026E04FF4005001210F
:1028F000FEF708FF4FF4005032E04FF48010012142
:10290000FEF700FF4FF480102AE001200121FEF7BE
:10291000E1FE012010E010200121FEF7DBFE102077
:102920000AE004200121FEF7D5FE042004E0402047
:102930000121FEF7CFFE40200021BDE88040FEF7D8
:10294000C9BE4FF400200121FEF7DCFE4FF4002049
:1029500006E04FF400300121FEF7D4FE4FF40030C2
:102960000021BDE88040FEF7CDBE80BD028A80898F
:102970000A4000EA010018BF0122002818BF012008
:1029800010407047002A82890CBF22EA01011143DE
:1029900081817047018921F00701018170470000A2
:1029A000B0B5028C22F001020284038C8288B0F858
:1029B00018C00C8923F002032343A0F180444D8802
:1029C000A4F59634B1F800E04FEAB424072C43EAAA
:1029D000050313D8012505FA04F414F0E50F0DD012
:1029E0004C8923F00C0324F004048D8823438C8944
:1029F0002B4322F44072CD8922432A432CF07305E5
:102A000045EA0E0582800583C98881860384B0BDAE
:102A1000028B22F00802114301837047B0B5028C8B
:102A200022F010020284038C8288B0F818E00C892E
:102A30004D88B1F800C02C4343F2004523F0200339
:102A4000C4F20105A84243EA041305D042F600444B
:102A5000C4F20104A04211D14C896FF0400523F06B
:102A6000C00305EA04148D88234343EA05138C89C7
:102A7000CD8922F440622C4342EA84022EF4E645DA
:102A800045EA0C2582800583C98801870384B0BD8F
:102A9000028B22F4006242EA0121018370470000A8
:102AA000B0B5028C22F480720284038C8288B0F864
:102AB0001CE00C894D88B1F800C02C4343F200455E
:102AC00023F40073C4F20105A84243EA042305D0AD
:102AD00042F60044C4F20104A04211D14C8940F2F4
:102AE000FF45240223F44063AC438D88234343EA2B
:102AF00005238C89CD8922F440522C4342EA0412EA
:102B00002EF0730545EA0C0582808583C98881878C
:102B10000384B0BD828B22F0080211438183704789
:102B200070B5028C43F2004622F480520284038C7A
:102B30008288B0F81CE0B1F800C00C894D88C4F25E
:102B40000106B04205D042F60046C4F20106B0428A
:102B500004D18E8922F4804242EA86122EF4E6469F
:102B600046EA0C268280868323F400532C43C988CE
:102B700043EA0432A0F84010028470BD828B22F434
:102B8000006242EA0121818370470000818470471E
:102B900040F6FF33B0F800C0C4F2000398420FDCE7
:102BA000B0F1804F1ED040F20043C4F200039842BF
:102BB00018D040F60003C4F20003984212D016E089
:102BC00040F60043C4F2000398420BD043F20043A6
:102BD000C4F20103984205D042F60043C4F2010357
:102BE000984204D14B882CF0700243EA020C41F267
:102BF000004240F48063C4F20002934204D0CA88C9
:102C00002CF4407342EA030CA0F800C08A88828545
:102C1000A0F18042A2F596320B884FEAB222072A31
:102C2000038507D8012303FA02F212F0E50F1CBF57
:102C3000097A018601218182704700002DE9F04167
:102C400084B0044640F2FF70C4F2000040F6000871
:102C50001D4616460F468442C4F2000818DD44455E
:102C600021D043F20040C4F2010042F60041844208
:102C7000C4F2010101D08C421BD14FF400508C42B0
:102C80004FF0010108BF4FF40060FEF72FFD10E088
:102C9000B4F1804F09D040F20040C4F200008442F9
:102CA00007D1022002E0042000E001200121FEF70C
:102CB00005FD2046FFF76EFE4FF08040FFF73EFD1A
:102CC0000020ADF80C00ADF808000DF1060120461B
:102CD000ADF80A70ADF80660FFF75AFF20460121F3
:102CE0000122FFF74FFE85B1DDE90A01444527D0F7
:102CF00040F20042C4F2000294421DD0B4F1804F71
:102D000034D1C9B2FFF758FB30E04FF4A060FEF7B2
:102D1000B9FC42F60040C4F20100844214D044459C
:102D200016D040F20040C4F2000084420ED0B4F14C
:102D3000804F10D11C200CE0C9B2FFF7D1FB15E089
:102D4000C9B2FFF76BFC11E0192002E01D2000E082
:102D50001E208DF8020040F20220ADF80300012091
:102D60008DF805000DF10200FEF75CFC2046012104
:102D7000FFF7DAFC04B0BDE8F081000010B582B0C6
:102D800044F60044C4F20004204640F2244100F01E
:102D900025F928B3208800210190A08840F2304412
:102DA000C4F2020401902046FDF71CFF2046FDF707
:102DB000ABFF43F2CC71C0F14000C2F20001488089
:102DC00001200870486804220270887849684870B9
:102DD00020464021FDF7C0FF20460121FDF702FFFC
:102DE00002B010BDB0B582B045F20004C4F20004D8
:102DF000204640F2244100F0F1F843F61405C2F2F7
:102E0000000558B1208805210190A08801906868CC
:102E10000170A8786968487001202870204640F247
:102E2000255100F0DBF838B1204600F061F96988DF
:102E30006A684B1C6B80505402B0B0BDF0B581B0D5
:102E400004468AB115460E46002700BF2046802161
:102E500000F0BEF80028F9D0F15D204600F04CF9F2
:102E60000137AF42F2D100BF2046402100F0B0F858
:102E70000028F9D001B0F0BD10B582B043F60004CF
:102E8000C4F20104204640F2244100F0A7F818B330
:102E9000208800210190A0885824C4F202040190E7
:102EA0002046FDF79FFE2046FDF72EFF43F2F4611A
:102EB000C2F20001C0F140004A6848800120087059
:102EC000107088784968487020464021FDF744FF1B
:102ED00020460121FDF786FE02B010BD10B582B07C
:102EE00044F20044C4F20004204640F2244100F0C1
:102EF00075F820B3208800210190A0886C24C4F2CA
:102F0000020401902046FDF76DFE2046FDF7FCFE11
:102F100043F23C71C0F14000C2F200014880012040
:102F20000870486802220270887849684870204614
:102F30004021FDF711FF20460121FDF753FE02B0AD
:102F400010BD000010B582B044F60004C4F20004C5
:102F5000204640F2244100F041F820B320880021AF
:102F60000190A0883024C4F2020401902046FDF7AD
:102F700039FE2046FDF7C8FE43F28471C0F14000DF
:102F8000C2F20001488001200870486803220270E4
:102F900088784968487020464021FDF7DDFE2046CC
:102FA0000121FDF71FFE02B010BD0000828900293B
:102FB00018BF012122F4005242EA41318181704759
:102FC000002A828A0CBF22EA0101114381827047E4
:102FD0000088084018BF012070470000C1F342126A
:102FE0001423022A08BF1023012A08BF0C23C35A46
:102FF000008801F01F02090A23FA02F2C8401040BB
:1030000000F0010070470000C1F3421301F01F0CF3
:103010001421022B08BF1021012B4FF0010308BF20
:103020000C21002A03FA0CF243580CBF23EA0202D7
:103030001A4342507047000070B586B00446008ABB
:103040000D46C98820F4405008432082A0894EF6DE
:10305000F3110840A9882A896B8908431043184353
:10306000A081A08AA98920F44070084301AEA08203
:103070003046FEF759FB43F6000106F10800C4F2A2
:1030800001018C4208BF06F10C0000681922B4F956
:103090000C1050432A680123B1F1FF3FC8BF02233F
:1030A00002FA03F1B0FBF1F048F21F51C5F2EB1147
:1030B000A0FB01235A096FF0630302FB0300B4F97C
:1030C0000C300326B3F1FF3FC8BF042600FA06F018
:1030D00000F13200A0FB01014FF00700C8BF0F2034
:1030E00000EA511040EA0210208106B070BD0000D5
:1030F00080886FF35F2070476FF35F218180704796
:10310000FEE7000080B584B040F6FC1216204FF4B4
:103110008061C2F20002CDE90021029040F67C10ED
:1031200043F235224FF0640CC2F2000025A1C0F634
:1031300000020023CDF80CC005F0D2FD78B143F2B7
:103140006010C2F2000003684AF2627C591C016000
:10315000C0F6000C0FF27C0E20A12AA219E040F666
:103160007C10C2F2000005F06DFE43F26010C2F266
:10317000000003684AF2627C591C4AF25D7E4AF202
:1031800067720160C0F6000CC0F6000E1FA1C0F609
:1031900000020020CDE900ECFEF74CFD43F2E832DE
:1031A00043F28473C2F20002C2F2000344F600004C
:1031B000C4F200004FF4E131136004B0BDE8804078
:1031C000FEF770B84D41535445525F4D425F544134
:1031D000534B00005B455D3A0000000025735B2502
:1031E000645D25734D41535445525F4D4220544117
:1031F000534B205354415254204641494C0D0A250B
:10320000730D0A001B5B313B33316D0025735B2569
:10321000645D25734D41535445525F4D42205441E6
:10322000534B205354415254204F4B0D0A25730DDC
:103230000A0000009CB041F6001141F2FC734FF40B
:103240008277C2F20001C2F2000313A84FF4827227
:10325000009701F009F843F260194AF25D744AF2EE
:103260006775C2F200094FF00008C0F60004C0F60E
:10327000000500BF43F2847AC2F2000ADAF8046063
:103280000DF14C0B5846012100220DF142030A2793
:10329000CDE9007603F016FADAF804605846012109
:1032A00000220EABCDE9007603F0FAFADAF80460FA
:1032B00058460121002209ABCDE9007603F0DEFB80
:1032C000DAF8046058460121002204ABCDE900760B
:1032D00003F094FDD9F800309DF842100026581CE8
:1032E000CDE901614AF2B1714AF26277C9F8000092
:1032F0000020C0F600012A46C0F60007009403979C
:10330000FEF798FCD9F800309DF83810581CC9F821
:103310000000029100201CA12A46CDE90046039737
:10332000FEF788FCD9F80030BDF82410581CC9F805
:103330000000029100201DA12A46CDE90046039716
:10334000FEF778FCD9F80030BDF81010581CC9F809
:103350000000029100201EA12A46CDE900460397F5
:10336000FEF768FCDAF804605FFA88F3584601213A
:10337000002208F1010A009603F066FC4FF47A700F
:1033800005F0F4FCD04675E725735B25645D257375
:10339000646973635F726567205B25645D3A203002
:1033A000782530345825730D0A00000025735B25FD
:1033B000645D2573686F6C645F726567205B25646C
:1033C0005D3A2030782530345825730D0A0000000E
:1033D00025735B25645D2573696E7075745F726516
:1033E00067205B25645D3A2030782530345825739A
:1033F0000D0A00002DE9F04F83B00446002908466D
:1034000091468B46C1F1000E48BF70460A281CDB6E
:1034100041F2597C48F29F66022742F21071CDF2C8
:10342000B71CC0F2010600BF642813D3B0F57A7F41
:103430000DD388420DD3A0FB0C52B0424FEA52305C
:1034400007F10407F0D8013F04E0012702E001374B
:1034500000E00237DDF830804F4598BF4F464FF00F
:10346000000543B108F00400BBF1000F48BF01257F
:1034700045EA90001D1AB9F1000FCDF808E01FD100
:1034800018F002001CD0E068002875D4BBF1FF3FA3
:1034900046DD5FEA487061D5264656F8080F56F8B3
:1034A000042C411C914208D822682B231354E06855
:1034B00062680130A160E0600846904245D04DE06E
:1034C0005FEAC870DFD1002DDDD000264FF0200A62
:1034D00005E000BFA660E068B0F1FF3FD3DD002D3E
:1034E000D1D0AF42CFD2D4E90120411C914208D8BB
:1034F000226802F800A0E06862680130E0600846D7
:10350000A1609042A5F10105E5D121682069FEF78F
:10351000ABFAA1688842DDD04FF0FF30E060B2E73F
:10352000264656F8080F56F8042C411C914208D83C
:1035300022682D231354E06862680130E060084679
:10354000A160DDF808B0904208D121682069FEF73B
:103550008BFAA16888423DD100203060E0680028E5
:103560000AD45FEA88710AD4204659460A224B469B
:10357000CDE9005800F034F803B0BDE8F08F08F052
:10358000010151EA0901EFD1002DEDD03026A5F15E
:10359000010AAA4538BFAF42E6D2D4E901214B1C4B
:1035A000934207D820684654E068626801301946A3
:1035B000A360E060914209D121682069FEF754FAC6
:1035C000A168884206D1E0680021A1600028554624
:1035D000DDD5D1E74FF0FF30E06003B0BDE8F08FFC
:1035E0002DE9F04F81B0DDF828901F4615468B4637
:1035F0009142044602D24FF001081DE04FF002084C
:10360000584600BFB0FBF5F0A84215D3B0FBF5F06B
:10361000A8420CD3B0FBF5F0A8420BD3B0FBF5F0F9
:1036200008F10408A842EDD2A8F1010804E008F16D
:10363000010801E008F102080B99B84598BFB846A7
:10364000B9F1000F35D011F0010032D120268807E2
:1036500048BF30264FF0000A2020002F18BF064632
:1036600004E000BFE068B0F1FF3F22DDB9F1000FD8
:103670001FD0C8451DD2D4E90120411C914207D872
:1036800022681654E06862680130E0600846A16074
:103690009042A9F10109E5D121682069FEF7E4F91A
:1036A000A168884202D1C4F808A0DBE74FF0FF30E0
:1036B000E060E068002858D4012601E0013F6E4335
:1036C000022F01D3013F03E0BBFBF6F1A9421BD35C
:1036D000012F05FB06F601D9013F03E0BBFBF6F124
:1036E000A94211D3012F05FB06F601D9013F03E0E2
:1036F000BBFBF6F1A94207D3012F05FB06F6DDD887
:10370000BBFBF6F1A942DAD2A2682EA76168BBFB27
:10371000F6FA531C8B4209D817F80A00216888541E
:10372000E068616801301A46A360E0608A4209D10E
:1037300021682069FEF798F9A26890420CD1E068F0
:103740000022A26000280AD4B6FBF5F10AFB16BBE2
:10375000AE420E46DAD202E04FF0FF30E0600B9945
:10376000C90718BFB9F1000F02D101B0BDE8F08F51
:103770002025A9F101064E4538BFC845F5D261683C
:10378000531C8B4207D820688554E068616801307B
:103790001A46A360E0608A4209D121682069FEF7D9
:1037A00063F9A168884207D1E0680022A260B0F105
:1037B000FF3FB146DDDCD8E74FF0FF30E06001B0FD
:1037C000BDE8F08F30313233343536373839414245
:1037D00043444546002804BF00207047C1B209B1E8
:1037E00001200CE010F47F4102D0090A092006E014
:1037F00010F47F0107BF010E1920090C112049F6B2
:103800005C72C0F60002515C084470472DE9F04F2D
:1038100081B00746C06998464668856A12F80690E6
:1038200092468B4632464DB138465946524643463B
:10383000A847002800F17380F86942681BF802105D
:103840000AEB060C4D1E162D4FF0FF3327D80BEB5D
:1038500002010527DFE805F013130C0C20202323B9
:10386000232323232323202023232323231F0C006C
:103870000B79C9785B0043EA41218F1C0CE0CB78BF
:103880000979012541EA0323DF08490718BF05EB41
:10389000D307023700E0072781683A4453184FFAEC
:1038A00089F1B1F1FF3F26DD434518BF13F1010057
:1038B00035D11BF80600814531D1A9F10101162946
:1038C0004FF0010049D80BEB06030122DFE801F0BD
:1038D0002C2C0C0C4646464646464646464639394A
:1038E0004146464646460C00B3F803009CF80110DA
:1038F00040BA4A0832E080683044023040450ED178
:103900009CF800001BF806108038884207D19CF80C
:1039100001006FF07F01081A01B0BDE8F08F4FF091
:10392000FF3001B0BDE8F08FD87819799CF80120FC
:1039300041EA0023D8080127490718BF07EBD30045
:103940000CE0F01C3BF800103AF8002048BA52BADC
:1039500004E09CF80100024600E00122904218BFFA
:103960004FF0FF3001B0BDE8F08F000010B54FF010
:10397000FF344FF0000EC0E9004100F10801DDF80E
:1039800008C0C0F820E081E80C50C0E906EE10BD88
:10399000034601294FF0FF30B8BF70472DE9F04FC3
:1039A00081B0DF699D68D7E9016737440537BD42BB
:1039B0006BDB1869884266DBF043471863D4D3F8A1
:1039C0000CB099461BF80660701EC0B2172806D2CC
:1039D0004CF23F05C0F26105C540ED0710D15C69AE
:1039E00054B118460D46314616460122A0472946D5
:1039F00032463F1A0CD546E001203F1A08D542E076
:103A000049F6EC63C0F6000353F820003F1A3AD49D
:103A1000D9F81C30C84658681BF80060172E73D8B8
:103A2000012505FA06F61F25C0F282052E426BD04D
:103A3000584440780E4699680844381A23D45B6A83
:103A40009046321A48465946984700281BD4D9F860
:103A50000410D9F80C2003464846FFF7D7FE00288B
:103A600013D4D9F81C10D9F80420496800280A4456
:103A7000B2F80330024658BA07D0023101EB020C0B
:103A8000002543460AE04FF0FF3001B0BDE8F04F9B
:103A9000704700BF3D4601316145F6DA8542FADAEA
:103AA000D9F80C206F1C565C874206F001025A556B
:103AB000F0DAAA1CC6F340048242DC5522DAEF1C7D
:103AC000C6F3800487429C54E4DA2A1DC6F3C0047E
:103AD0008242DC5516DA6F1DC6F3001487429C54EF
:103AE000D8DAAA1DC6F340148242DC550ADAC6F3BE
:103AF0008014EF1D87429C54AFBF3D46F209083544
:103B0000DA55C8E71546C6E7D8F818400E464CB156
:103B100040465946924632460123A047D8F81C3009
:103B2000524688E7002086E7034601294FF0FF3020
:103B3000B8BF70472DE9F04F81B0DF699D68D7E9C4
:103B4000016737440537BD426BDB1869884266DB85
:103B5000F043471863D4D3F80CB099461BF80660BD
:103B6000701EC0B2172806D24CF23F05C0F26105A4
:103B7000C540ED0710D15C6954B118460D46314679
:103B800016460122A047294632463F1A0CD546E088
:103B900001203F1A08D542E049F6EC63C0F6000365
:103BA00053F820003F1A3AD4D9F81C30C846586858
:103BB0001BF80060172E73D8012505FA06F61F259D
:103BC000C0F282052E426BD0584440780E46996868
:103BD0000844381A23D45B6A9046321A484659463C
:103BE000984700281BD4D9F80410D9F80C200346B4
:103BF0004846FFF70BFE002813D4D9F81C10D9F85B
:103C00000420496800280A44B2F80330024658BA32
:103C100007D0023101EB020C002543460AE04FF0C9
:103C2000FF3001B0BDE8F04F704700BF3D460131A5
:103C30006145F6DA8542FADAD9F80C206F1C565C39
:103C4000874206F001025A55F0DAAA1CC6F3400476
:103C50008242DC5522DAEF1CC6F3800487429C5472
:103C6000E4DA2A1DC6F3C0048242DC5516DA6F1D61
:103C7000C6F3001487429C54D8DAAA1DC6F3401438
:103C80008242DC550ADAC6F38014EF1D87429C5449
:103C9000AFBF3D46F2090835DA55C8E71546C6E715
:103CA000D8F818400E464CB1404659469246324626
:103CB0000123A047D8F81C30524688E7002086E749
:103CC000034601294FF0FF30B8BF70472DE9F04F90
:103CD00081B0DF699D68D7E9016737440537BD4288
:103CE00068DB1869884263DBF043471860D4D3F877
:103CF0000CB099461BF80660701EC0B2172806D299
:103D00004CF23F05C0F26105C540ED0710D15C697A
:103D100054B118460D46314616460122A0472946A1
:103D200032463F1A0CD543E001203F1A08D53FE048
:103D300049F6EC63C0F6000353F820003F1A37D46D
:103D4000D9F81C30C84658681BF80060172E35D8C3
:103D5000012505FA06F61F25C0F282052E422DD058
:103D6000584440780E4699680844381A20D45B6A53
:103D70009046321A484659469847002818D4D9F830
:103D80000410D9F80C2003464846FFF73FFD0028F1
:103D900010D422D0D9F81C10D9F80C204968042876
:103DA00002EB010900F0030C19D20022434640E067
:103DB0004FF0FF3001B0BDE8F04F7047D8F8184021
:103DC0000E46002C5DD040465946924632460123AD
:103DD000A047D8F81C305246C5E70020EAE74FF666
:103DE000FC72C7F6FF7200EA020E00226FF00305B4
:103DF000434600BF09EB420409EB0506A178F779B9
:103E000047EA012123F81210318903EB420709BA6E
:103E1000090C798071895F1909BA090C3981217AF5
:103E2000747B043244EA0121964505F10805798145
:103E3000E0D1BCF1000FBDD009F1020609F1030782
:103E400016F8121017F81250BCF1010F45EA0121C3
:103E500023F81210AED0511C16F8115017F811406B
:103E6000BCF1020F44EA052523F81150A2D0911CA1
:103E700016F8112017F8117047EA022223F81120D2
:103E800098E700206FE70000034601294FF0FF305C
:103E9000B8BF70472DE9F04F81B0DF699D68D7E961
:103EA000016737440537BD4268DB1869884263DB28
:103EB000F043471860D4D3F80CB099461BF806605D
:103EC000701EC0B2172806D24CF23F05C0F2610541
:103ED000C540ED0710D15C6954B118460D46314616
:103EE00016460122A047294632463F1A0CD543E028
:103EF00001203F1A08D53FE049F6EC63C0F6000305
:103F000053F820003F1A37D4D9F81C30C8465868F7
:103F10001BF80060172E35D8012505FA06F61F2577
:103F2000C0F282052E422DD0584440780E46996842
:103F30000844381A20D45B6A9046321A48465946DB
:103F40009847002818D4D9F80410D9F80C20034653
:103F50004846FFF75BFC002810D422D0D9F81C108B
:103F6000D9F80C204968042802EB010900F0030C81
:103F700019D20022434640E04FF0FF3001B0BDE8C7
:103F8000F04F7047D8F818400E46002C5DD04046E0
:103F90005946924632460123A047D8F81C30524673
:103FA000C5E70020EAE74FF6FC72C7F6FF7200EAA9
:103FB000020E00226FF00305434600BF09EB4204E6
:103FC00009EB0506A178F77947EA012123F81210D9
:103FD000318903EB420709BA090C798071895F19AD
:103FE00009BA090C3981217A747B043244EA01212F
:103FF000964505F108057981E0D1BCF1000FBDD0EF
:1040000009F1020609F1030716F8121017F8125009
:10401000BCF1010F45EA012123F81210AED0511C6A
:1040200016F8115017F81140BCF1020F44EA0525AB
:1040300023F81150A2D0911C16F8112017F8117016
:1040400047EA022223F8112098E700206FE70000DA
:104050002DE9F041012955DBC269876893685268F0
:10406000134405339F424DDB03698B424ADBD34344
:104070005E1847D4C468A25C531EDBB2172B06D26D
:104080004CF23F07C0F26107DF40FF0710D14369E0
:1040900053B10F461146012205469847394602465C
:1040A0002846B71A0CD52DE00122B71A08D529E009
:1040B00049F6EC62C0F6000252F82320B71A21D468
:1040C000C3695A68A65C172E20D8012505FA06F6A2
:1040D0001F25C0F282052E4218D0224452789E68D5
:1040E0003244BA1A0ED45B6A8A1A214605469847AA
:1040F000002807D46968EA6803462846BDE8F0410D
:10410000FFF784BB4FF0FF30BDE8F081866956B100
:1041100088462146424601230546B047EB694146A1
:1041200002462846DBE70022D9E70000DDF800C0A0
:1041300000688CF801108CF80000100A8CF802005E
:10414000180A8CF8040006208CF803208CF805303F
:104150007047000002680A70426802204A70704787
:10416000A2F1020C10465FEA0C4213D02DE9F04791
:1041700082B2033A4AF25C0A4AF25C190CF0030E6E
:10418000032AC0F6000AC0F6000906D2FF240D4635
:10419000FF2632E04FF6FF7259E04FF6FC740CEA4E
:1041A00004080027FF240D46FF2600BF15F8043B36
:1041B000F6B273401AF8036015F8032CE4B27440A9
:1041C000624019F803301AF8024015F8026C634097
:1041D000734019F802201AF8034015F8016C624088
:1041E000724019F803301AF80260043719F80240D7
:1041F000BAB2424586EA0306D8D1BEF1000F20D0FC
:104200002A78F3B25A401AF80230BEF1010F83EA5D
:10421000040619F8024014D06A78F3B25A401AF82A
:104220000230BEF1020F83EA040619F8024008D0FA
:10423000AA78F3B25A401AF8023083EA040619F851
:104240000240F2B2E3B243EA0222BDE8F04711F8BD
:104250000C30014411F8011C41EA0321914218BFBE
:104260004FF0FF307047000010B582B0DDF810C08D
:104270000446CDF800C0FFF779FB4AF25C21C0F696
:1042800000010020C4E9071402B010BD08781278BC
:104290000028014618BF0121801A18BF01200840DC
:1042A000404270470868821E00200A607047000084
:1042B0002DE9F0430A0410D08AB24AF25C094AF2AE
:1042C0005C1C01F0030E042AC0F60009C0F6000CC5
:1042D00006D2FF220446FF2531E0FF25FF2252E0EF
:1042E0004FF6FC7201EA02080027FF220446FF2570
:1042F00014F8046BEDB2754019F8056014F8033C2E
:10430000D2B272405A401CF8055019F8023014F825
:10431000026C6B4073401CF8022019F8035014F82B
:10432000016C6A4072401CF8033019F802500437DF
:104330001CF80220BEB2464585EA0305D8D1BEF17D
:10434000000F20D02378EDB26B4019F80350BEF176
:10435000010F85EA02051CF8032014D06378EDB242
:104360006B4019F80350BEF1020F85EA02051CF8F4
:10437000032008D0A378EFB27B4019F8037087EAD6
:1043800002051CF8032043184554881C5A70BDE8E8
:10439000F0830000024600201160704770B582B0C3
:1043A000B2F5FA6F19DC8C46C1699646D1E9014233
:1043B00083682244053293420FDB4D694668012130
:1043C0006246734604460096A847E2690146606863
:1043D000126A02B0BDE8704010474FF0FF3002B0E3
:1043E00070BD000070B582B0B2F5FA6F19DC8C4672
:1043F000C1699646D1E9014283682244053293425D
:104400000FDB4D69466802216246734604460096FA
:10441000A847E26901466068126A02B0BDE87040D0
:1044200010474FF0FF3002B070BD000070B582B091
:104430007D2A19DC8C46C1699646D1E90142836820
:104440002244053293420FDB4D69466804216246DF
:10445000734604460096A847E26901466068126AFE
:1044600002B0BDE8704010474FF0FF3002B070BDA1
:1044700070B582B07D2A19DC8C46C1699646D1E9B7
:10448000014283682244053293420FDB4D6946683E
:1044900003216246734604460096A847E269014636
:1044A0006068126A02B0BDE8704010474FF0FF30FC
:1044B00002B070BDB0B582B0D0F81CE09446DEE921
:1044C00001341A1983680532934203DA4FF0FF3042
:1044D00002B0B0BDDEF814E045680A460621634626
:1044E00004460095F047E26901466068126A02B02E
:1044F000BDE8B04010470000C269126910470000D3
:1045000080B501F04BFE002080BD000010B540F2E8
:10451000D804C2F20004207801281CBF062010BD78
:1045200000F0A2FB0020207010BD000070B50A88CA
:10453000052A2DD1C278037940F2CE7443EA0222D3
:10454000551EADB2A54223D800244FF0010CB0F89F
:1045500001500C8000F802CB0C8892B201340C8020
:10456000D4085B0718BF0CEBD20400F8014C95FA95
:1045700085FE0D884FEA1E4301350E460D80194613
:10458000002300F079FB28B1BDE8704003F056BA73
:10459000032070BD3088E1B208443080002070BD37
:1045A00070B50A88052A2DD1C278037940F2CE74FD
:1045B00043EA0222551EADB2A54223D80024B0F82A
:1045C00001500C80022400F8024B0C8892B2013496
:1045D0000C80D4084FF0010C5B0718BF0CEBD20421
:1045E00000F8014C95FA85FE0D884FEA1E4301350F
:1045F0000E460D80194600F09FFB28B1BDE87040C3
:1046000003F01CBA032070BD3088E1B2084430804A
:10461000002070BD70B50A88052A1CBF032070BD3C
:10462000B0F803204FF0FF3312BA03EB12439BB2F2
:104630007C2B4FF003031FD80024B0F801500C80EE
:1046400000F8023B0B88120C013356000B8000F877
:10465000016C0C882DBA2B0C01340D460C801946C8
:10466000002300F09DFB18B1BDE8704003F0E6B9EF
:104670002888002330442880184670BD70B50A8809
:10468000052A28D1B0F803204FF0FF3312BA03EB0C
:1046900012439BB27B2B1ED80025B0F801300D8051
:1046A000042500F8025B0D88120C013554000D80C2
:1046B00000F8014C0D881BBA4FF0010C0CEB1343B2
:1046C00001350E460D8099B200F05CFC28B1BDE8C2
:1046D000704003F0B3B9032070BD308820443080AF
:1046E000002070BD2DE9F0410A880A2A4CD3B0F8A9
:1046F0000320032314BA4FF0FF3202EB144292B2AC
:104700007C2A42D8B0F8072012BA120C3DD0792A80
:104710003BD8437AB3EB420F1CBF0320BDE8F081C6
:104720008846B0F80510012509BA05EB1141B0F82B
:10473000017006460A3089B2012300F031FBD0B97E
:1047400038BA05EB10410020A8F80000172030709F
:10475000B8F80000220C01305400A8F80000747072
:10476000B8F80070B01C013789B20023A8F80070B7
:1047700000F016FB18B1BDE8F04103F05FB9B8F8DE
:1047800000002044A8F8000000231846BDE8F0818E
:10479000B0B50C4643F69A11C2F200010D8843F6FB
:1047A00060010130C2F200012A46FBF7ABFD691C33
:1047B00000202180B0BD00000988052901D10179C0
:1047C00009B103207047C278B0F80100FF2A01D078
:1047D000002AF6D180B582B000BA010C00208DF815
:1047E0000700A2F1FF00B0FA80F040098DF8060042
:1047F0000DF106000122012300F03EFA00280CBF53
:10480000002003F01BF902B080BD000009880529D3
:104810001CBF0320704780B5B0F80110033009BAFF
:10482000090C0122012300F0BBFA0028BDE88040FA
:1048300004BF0020704703F001B9000010B50A88DA
:10484000062A3CBF032010BDC27803794FF0010E49
:1048500043EA022C5B07ACF101031FFA8CF29BB216
:104860004FEAD2044FEA131318BF0EEBD2047A2B8F
:104870004FF0030315D890F805C0E4B2A44510D159
:104880000C46B0F80110063009BA090C012300F0FB
:10489000F3F918B1BDE8104003F0D0B805200023AB
:1048A0002080184610BD000010B50A88062A1CD3C7
:1048B000C278037943EA0222541EA4B2772C14D89A
:1048C000447903F07F03B4EB430F0ED10C46B0F8EC
:1048D0000110063009BA090C92B2012300F060FA07
:1048E00028B1BDE8104003F0A9B8032010BD052091
:1048F0002080002010BD000001F1080C5FFA8CFC44
:10490000BCF1090F06D343F65C0CC2F2000C8CF824
:10491000001008B10220704780B543F22C4C49F6D4
:10492000F950C2F2000CC0F60000CCF8000043F2CF
:10493000304C49F63960C2F2000CC0F60000CCF8E9
:104940000000084611461A4600F006F9002818BF74
:1049500080BD05F0FDF938B140F2D800C2F2000088
:1049600001210170002080BD032080BD40F2D800ED
:10497000C2F20000007800281CBF06207047B0B5C6
:1049800082B00DF1070005F0CFF9012840F0E18079
:104990009DF80700022826D0012840F0DA8042F670
:1049A000443442F63C30C2F2000442F6403242F651
:1049B0004633C2F20000C2F20002C2F200032146F6
:1049C00000F0E8F8002840F0C480207838B143F6C1
:1049D0005C01C2F200010978884240F0BA800220EE
:1049E00005F0BEF9B5E042F64034C2F2000440F2F0
:1049F0004C112068C2F200010978037842F63D3577
:104A0000C2F2000500292B7069D040F24C12994285
:104A1000C2F200026DD0117A002960D0994201D112
:104A2000083266E0117C002959D0994201D1103238
:104A30005FE0117E002952D0994201D1183258E02E
:104A400092F8201000294AD0994201D1203250E03A
:104A500092F82810002942D0994201D1283248E02A
:104A600092F83010D9B3994201D1303241E092F836
:104A70003810A1B3994201D138323AE092F840108F
:104A800069B3994201D1403233E092F8481031B312
:104A9000994201D148322CE092F85010F9B1994274
:104AA00001D1503225E092F85810C1B1994201D19C
:104AB00058321EE092F8601089B1994201D16032FB
:104AC00017E092F8681051B1994201D1683210E0B4
:104AD00092F8701019B1994203D1703209E00121A6
:104AE0000EE012F878CF0121BCF1000F08D09C45F0
:104AF00006D1526842F64631C2F2000190470146A3
:104B000042F64430C2F20000007810B3226879B156
:104B1000287842F6463340F08000C2F200030125B7
:104B20001D80107018882268451C1D801154226851
:104B300042F63C3043F65C0142F64633C2F20000D6
:104B4000C2F20001C2F20003007809781B8800F06D
:104B500047F8002002B0B0BD10B508460C4605F07D
:104B60000DF9012804D1B4F5964F04D9232009E0AA
:104B70000320C0B210BD47F6A0716000C0F217015B
:104B8000B1FBF0F080B205F023F9013818BF032023
:104B9000C0B210BD2DE9F04143F68004C2F200041A
:104BA000277843F69C150770C2F200052888042870
:104BB00007D30E462988A01C90461F4605F01AF818
:104BC00010B10520BDE8F081A07830702888033846
:104BD0003880E01CC8F800000020BDE8F08100002B
:104BE000F0B581B042F64936C2F200063678012EA1
:104BF00036D143F2284643F636350446501EC2F2FB
:104C00000006C2F20005012730602F8002F8011C67
:104C1000298819442980298804F0ECFF29884A1C36
:104C20002A8043F68002C2F200021144887029886B
:104C3000000A4B1C11442B80887042F64A30C2F2A5
:104C400000000770288800284FF0000006D0316867
:104C50002A88204605F09CF80020288001B0F0BD8D
:104C6000052001B0F0BD000042F64930C2F200005C
:104C70000021017005F03AB82DE9F04381B00546F6
:104C8000501864284FF0010052D843F69E17C2F224
:104C900000073E8800EBD207881B012B00F00704B9
:104CA00020D0002B43D143F6801180B2C2F2000124
:104CB000904601EBD006023D30462146082205F021
:104CC000D1F8013FA8700136390405F10105F3D18F
:104CD00008F00701C1F10801884000F0FE00C8405B
:104CE000687024E080B2082A4FEAD00612D343F657
:104CF00080199046C2F2000915F8013B09EB060045
:104D000021460822013605F0BBF8013FB8B2012860
:104D1000F2D8424612F0070209D043F68011B0B231
:104D2000C2F200012B780844214605F0A9F80020C2
:104D300001B0BDE8F08300002DE9F04190460A443F
:104D4000642A4FF0010227D843F6A013C2F20003F1
:104D50001B8802EBD807C91A8AB201F0070543F68F
:104D60008D11C2F2000101EBD206841E30462946A5
:104D7000082205F077F8013FA0700136390404F1EC
:104D80000104F3D108F00701C1F10801884000F0E7
:104D9000FE00C840002260701046BDE8F0810000AF
:104DA00070B502EB010CBCF1640F84BF012070BD33
:104DB00043F66A2CC2F2000CBCF800C0A1EB0C0157
:104DC000F3B1012B40F0DC80002A00F0D98043F6DB
:104DD000A21C12F00306C2F2000C2BD003788DB295
:104DE0001C022CF815404478012E44EA032301F1FB
:104DF000010E2CF8153021D10230531E71464FE0C0
:104E0000002A00F0BD8012F0030315D043F6A21C67
:104E10008EB2C2F2000C0CEB46056D78012B0570CA
:104E20001CF8166001F1010E46701AD10230531EB3
:104E3000714676E0134633E0134672E083781FFA3A
:104E40008EF51C022CF81540C478022E44EA032388
:104E500001F1020E2CF8153014D10430931E714666
:104E60001EE01FFA8EF60CEB46056D78022B85705E
:104E70001CF8166001F1020EC67046D10430931E74
:104E800071464EE003791FFA8EF61C022CF816408C
:104E90004579063045EA03232CF816300331D31E3A
:104EA000042A6DD3083800BF10F8082F8DB21602FF
:104EB0002CF815604678043B46EA02222CF81520AF
:104EC00082784E1C1502B6B22CF81650C57845EA09
:104ED00002222CF8162002798E1C1502B6B22CF88C
:104EE0001650457945EA02222CF816208279CE1C0C
:104EF0001502B6B22CF81650C579043145EA0222E3
:104F00002CF816201A04CFD13AE01FFA8EF30CEBDE
:104F100043067678033106711CF81330437106306E
:104F2000D31E042A2CD343F6A2120838C2F2000280
:104F30008EB202EB46056D78043B00F8085F12F86C
:104F4000166046704E1CB6B202EB46056D78857051
:104F500012F81660C6708E1CB6B202EB46056D786C
:104F6000057112F816604671CE1CB6B202EB46050A
:104F70006D780431857112F81660C6711E04D7D1A0
:104F8000002070BD5318642B84BF01207047002A95
:104F900004BF00207047B0B543F63433C2F20003BB
:104FA0001B8843F66C2CCB1A12F00305C2F2000CDE
:104FB0000ED099B20CEB41046478012D04701CF8FA
:104FC000111003F1010E417006D10230511E12E0A2
:104FD0001146042A21D249E01FFA8EF10CEB41045C
:104FE0006478022D84701CF8111003F1020EC17058
:104FF00005D10430911E7346042A0ED236E01FFA02
:105000008EF10CEB41056D78033305711CF811101E
:1050100041710630D11E042A28D308389AB20CEB0D
:1050200042056D78043900F8085F1CF812204270C0
:105030005A1C92B20CEB42056D7885701CF8122058
:10504000C2709A1C92B20CEB42056D7805711CF887
:1050500012204271DA1C92B20CEB42056D780433D7
:1050600085711CF81220C2710A04D7D10020B0BD8E
:10507000B0B584B042F634304AF6B431C2F2000022
:10508000C0F60001016042F638304AF6A441C2F28F
:105090000000C0F60001016043F2F06542F6BC205A
:1050A000C2F20005C2F2000042F6D042286015208C
:1050B0004FF48061C2F20002CDE90021029042F675
:1050C000504045F21D120A24C2F200000FA1C0F6A2
:1050D00000020023039403F003FE2A6804460DA196
:1050E00010460022002303F009FC286890F82110E4
:1050F00041F0020180F821102CB942F65040C2F272
:10510000000003F09FFE002004B0B0BD747368651A
:105110006C6C0000736872780000000043F2F06A63
:10512000C2F2000ADAF8000042F64C3490F821107E
:10513000C2F2000441F0010280F82120880702D465
:105140000020207019E002F017FA30B10020207121
:1051500047F26D30C2F2680009E046F67300C0F213
:105160002000C4F8030046F66610C7F26E302060D7
:105170002046FBF7FDF83E212152204602F028FF91
:105180004AF6DA164FF0010B4FF00008C0F60006A1
:10519000022701E080F820B002F0DAFC8146DAF85C
:1051A0000000B9F11B0FF5D090F82010022909D0AA
:1051B000012940F07380B9F15B0F40F06D8080F8F9
:1051C0002070E9E7A9F14101022980F82080E3D3AA
:1051D000B9F1440F00F28F80DFE819F04500940028
:1051E0009400940094009400940094009C00E700C4
:1051F0006D00940094006D0094009400940094005D
:1052000094009400940094009400940094009400FE
:1052100094009400940094009400940094009400EE
:1052200094009400940094009400940094009400DE
:1052300094009400940094009400940094009400CE
:1052400094009400940094009400940094009400BE
:1052500094009400940094009400940094009400AE
:1052600094004600920197E7B0F87410B0F87220ED
:105270009142BFF491AF084490F822104AF6E8102A
:10528000C0F6000002F0A4FEDAF80000B0F87410D6
:105290000131A0F874107FE780F82080B9F10D0F7C
:1052A00029D8DFE809F0072F2F2F2F2F2F2F378234
:1052B000082F2F0870E702F05FF9012812D1DAF801
:1052C000000090F82110C90707D04AF67610C0F602
:1052D000000002F07DFEDAF80000B0F87210223013
:1052E00001F02EFFDAF8000090F82100800750D47A
:1052F00084F80080FAE0B9F17F0F0BD0B9F1FF0F0D
:105300003FF44AAFB0F87220502A75D30022A0F8BB
:105310007220A4E0B0F8741000293FF43DAFB0F85B
:1053200072204D1E531E9AB2A0F87230ABB29A4250
:10533000A0F8745040F2B58000F12205E818294425
:10534000D21A02F051FFDAF80000B0F872100844E7
:1053500080F82280DAF80000B0F87410084400F1F8
:10536000220180A002F034FEDAF80010B1F87400D7
:10537000B1F8721088423FF60FAF451E304602F07A
:1053800027FEDAF800000135B0F872008542F5D347
:1053900002E702F0F1F8002800F0988047F26D3043
:1053A00084F80480C2F268009AE0B0F8741059B131
:1053B000002500BF304602F00BFEDAF80000013590
:1053C000B0F874108D42F5D300F122054AF676103C
:1053D000C0F6000002F0FCFD02F0CEF8012802D178
:1053E000284601F0F9FDDAF8000090F82100800766
:1053F00062D484F80080A3E0B0F874309A422ED9C9
:10540000C11801F123002231D21A02F0EDFEDAF8C0
:105410000000B0F87410084480F82290DAF8000018
:1054200090F82110C90709D0B0F87410084400F1B1
:10543000220150A002F0CCFDDAF80000B0F8745060
:10544000B0F872108D421CD2304602F0C1FDDAF87D
:1054500000000135B0F872108D42F5D311E0104410
:1054600080F82290DAF8000090F82110C90708D0DF
:105470004AF6E810C0F60000494602F0A9FDDAF845
:105480000000B0F87210B0F874200131A0F872106A
:1054900089B201325029A0F8742028BFC0F8728068
:1054A0007AE62FA002F094FDDAF80000B0F872104E
:1054B000084480F822806FE602F05EF880B347F27D
:1054C0006D3084F80480C2F2680033E046F6730061
:1054D000C0F22000C4F8030046F66610C7F26E3032
:1054E00020602046FAF744FF3E212152204602F078
:1054F0006FFDDAF8000054212230FAF71CFF4BE66A
:10550000B0F8740000283FF447AE304602F060FD6A
:10551000DAF80000B0F874100139A0F874103BE616
:1055200046F67300C0F22000C4F8030046F6661089
:10553000C7F26E3020602046FAF71AFF3E21215252
:105540000AA021462A4602F043FDDAF8005005F190
:105550002200FAF70DFFA5F87200A5F874001BE60B
:1055600008200800082573202008000025732573F3
:10557000000000002573000080B502A002F028FDA5
:10558000002080BD48656C6C6F2052542D546872A9
:10559000656164210A0000002DE9F04381B016A086
:1055A00002F016FD42F6343042F63839C2F20000FD
:1055B000C2F200090768D9F80050AF4217D213A40D
:1055C0000FF24C0803E000BF0C37AF420FD23E6829
:1055D000214630460222FAF7D2FE0028F4D07A683B
:1055E0004046314602F0F4FCD9F80050ECE70020C8
:1055F00001B0BDE8F08300BF2D2D46756E63746960
:105600006F6E204C6973743A0A0000005F5F0000FF
:10561000252D313673202D2D2025730A0000000022
:105620002DE9F04F8DB0042003F04EF800F104088E
:1056300071A07AA2082102F0CBFC4AF69314C0F6BE
:105640000004204602F0C4FC204602F0C1FC2046C3
:1056500002F0BEFC204602F0BBFC204602F0B8FC83
:10566000204602F0B5FC204602F0B2FC204602F0D3
:10567000AFFC6CA002F0ACFC4AF6A9174AF69514F0
:1056800000250DF1140BC0F60007C0F60004CDF89C
:105690000C8005E0049DDDF80C80002D00F0A78053
:1056A0002E46002D08BF4646FAF75EFD35B115F8C7
:1056B000041C01F07F01042940F0978031684145C6
:1056C00000F093800A68059142451DD0116806924A
:1056D00041451DD00A68079142451CD011680892C7
:1056E00041451BD00A68099142451AD011680A92B7
:1056F000414519D00A680B91424518D04FF008086F
:10570000114604920C9217E04FF0010812E000BF1E
:105710004FF002080EE04FF003080BE04FF00408D2
:1057200008E04FF0050805E04FF0060802E04FF0F2
:10573000070800BF00210491FAF71AFD4FF0000995
:105740000AE000BF4AF67610C0F6000002F040FC06
:1057500009F10109C1459DD05BF829A0FAF704FDC4
:105760001AF8041C01F07F05FAF702FD042DEFD1B1
:10577000AAF10C035AF8080FDAF80860504510D067
:10578000002550460068504515D0006850450FD0A0
:10579000006850450ED0006804355045F2D1013DF7
:1057A00009E02EA008210822009602F011FCCFE7A4
:1057B000013500E0023523A008210822CDE900656B
:1057C00002F006FCDAF800505545BBD0A5F11401F3
:1057D000384602F0FDFB28685045B3D0204602F061
:1057E000F7FB2D685545F1D1ACE7FAF7C1FC002075
:1057F0000DB0BDE8F08F00BF252D2A2E732020208C
:105800002020207365742020202073757370656ECE
:1058100064207468726561640A0000006576656ED4
:105820007400000020202D2D2D2D2D2D2D2D2D2D02
:10583000202D2D2D2D2D2D2D2D2D2D2D2D2D2D0AC8
:1058400000000000252D2A2E2A73202030782530D4
:10585000387820253033643A00000000252D2A2EA8
:105860002A73202030782530387820300A00000054
:105870002DE9F04F8DB0052002F026FF00F104085D
:105880007DA086A2082102F0A3FB4AF69314C0F67D
:105890000004204602F09CFB204602F099FB2046C3
:1058A00002F096FB204602F093FB204602F090FBAC
:1058B000204602F08DFB204602F08AFB204602F0D3
:1058C00087FB78A002F084FB4AF6A9174AF69514E4
:1058D00000260DF1140BC0F60007C0F60004CDF849
:1058E0000C8005E0049EDDF80C80002E00F0BF80E7
:1058F0003546002E08BF4546FAF736FC36B116F895
:10590000041C01F07F01052940F0AF802968414562
:1059100000F0AB800A68059142451DD011680692DF
:1059200041451DD00A68079142451CD01168089274
:1059300041451BD00A68099142451AD011680A9264
:10594000414519D00A680B91424518D04FF008081C
:10595000114604920C9217E04FF0010812E000BFCC
:105960004FF002080EE04FF003080BE04FF0040880
:1059700008E04FF0050805E04FF0060802E04FF0A0
:10598000070800BF0021049153A5FAF7F1FB4FF07F
:10599000000909E04AF67610C0F6000002F018FB94
:1059A00009F10109C1459DD05BF829A0FAF7DCFB9C
:1059B0001AF8041C01F07F06FAF7DAFB052EEFD186
:1059C000AAF10C035AF8082F0026BAF80E10BAF8FC
:1059D0000C0052450FD05246126852451ED0126834
:1059E000524518D01268524517D0126804365245F5
:1059F000F2D1013E12E05246126852452CD0126894
:105A0000524526D01268524525D0126804365245B8
:105A1000F2D1013E20E0013600E00236CDE900106F
:105A200027A008210822029602F0D2FADAF80060D4
:105A30005645AFD0A6F11401384602F0C9FA3068D5
:105A40005045A7D0204602F0C3FA36685645F1D13A
:105A5000A0E7013600E00236CDE900102846082113
:105A60000822029602F0B4FA9AE7FAF781FB0020C6
:105A70000DB0BDE8F08F00BF252D2A2E7320656E76
:105A80007472792073697A652073757370656E64BA
:105A9000207468726561640A000000006D61696CC1
:105AA000626F7800202D2D2D2D20202D2D2D2D20C5
:105AB0002D2D2D2D2D2D2D2D2D2D2D2D2D2D0A0066
:105AC000252D2A2E2A7320253034642020253034B9
:105AD000642025643A000000252D2A2E2A732025F3
